{
  "fileName": "Factory.sol",
  "contractName": "Factory",
  "source": "// \"SPDX-License-Identifier: UNLICENSED\"\npragma solidity >=0.4.21 <0.7.0;\n\ncontract Factory {\n\n    /*\n     *  Events\n     */\n    event ContractInstantiation(address creator, address instantiation);\n\n    /*\n     *  Storage\n     */\n    mapping(address => bool) public isInstantiation;\n    mapping(address => address[]) public instantiations;\n\n    /*\n     * Public functions\n     */\n    /// @dev Returns number of instantiations by creator.\n    /// @param creator Contract creator.\n    /// @return Returns number of instantiations by creator.\n    function getInstantiationCount(address creator)\n        public\n        view\n        returns (uint)\n    {\n        return instantiations[creator].length;\n    }\n\n    function getInstantiations(address creator)\n        public\n        view\n        returns (address[] memory)\n    {\n        return instantiations[creator];\n    }\n\n    /*\n     * Internal functions\n     */\n    /// @dev Registers contract in factory registry.\n    /// @param _instantiation Address of contract instantiation.\n    /// @param _creator Address of contract creator.\n    function register(address _instantiation, address _creator)\n        internal\n    {\n        isInstantiation[_instantiation] = true;\n        instantiations[_creator].push(_instantiation);\n        emit ContractInstantiation(_creator, _instantiation);\n    }\n}\n",
  "sourcePath": "contracts/Factory.sol",
  "abi": [
    {
      "anonymous": false,
      "inputs": [
        {
          "indexed": false,
          "internalType": "address",
          "name": "creator",
          "type": "address"
        },
        {
          "indexed": false,
          "internalType": "address",
          "name": "instantiation",
          "type": "address"
        }
      ],
      "name": "ContractInstantiation",
      "type": "event"
    },
    {
      "constant": true,
      "inputs": [
        {
          "internalType": "address",
          "name": "creator",
          "type": "address"
        }
      ],
      "name": "getInstantiationCount",
      "outputs": [
        {
          "internalType": "uint256",
          "name": "",
          "type": "uint256"
        }
      ],
      "payable": false,
      "stateMutability": "view",
      "type": "function"
    },
    {
      "constant": true,
      "inputs": [
        {
          "internalType": "address",
          "name": "creator",
          "type": "address"
        }
      ],
      "name": "getInstantiations",
      "outputs": [
        {
          "internalType": "address[]",
          "name": "",
          "type": "address[]"
        }
      ],
      "payable": false,
      "stateMutability": "view",
      "type": "function"
    },
    {
      "constant": true,
      "inputs": [
        {
          "internalType": "address",
          "name": "",
          "type": "address"
        },
        {
          "internalType": "uint256",
          "name": "",
          "type": "uint256"
        }
      ],
      "name": "instantiations",
      "outputs": [
        {
          "internalType": "address",
          "name": "",
          "type": "address"
        }
      ],
      "payable": false,
      "stateMutability": "view",
      "type": "function"
    },
    {
      "constant": true,
      "inputs": [
        {
          "internalType": "address",
          "name": "",
          "type": "address"
        }
      ],
      "name": "isInstantiation",
      "outputs": [
        {
          "internalType": "bool",
          "name": "",
          "type": "bool"
        }
      ],
      "payable": false,
      "stateMutability": "view",
      "type": "function"
    }
  ],
  "bytecode": "0x608060405234801561001057600080fd5b50610291806100206000396000f3fe608060405234801561001057600080fd5b506004361061004c5760003560e01c80630c6cc52a146100515780632f4f3316146100c757806357183c82146101015780638f83847814610149575b600080fd5b6100776004803603602081101561006757600080fd5b50356001600160a01b0316610181565b60408051602080825283518183015283519192839290830191858101910280838360005b838110156100b357818101518382015260200161009b565b505050509050019250505060405180910390f35b6100ed600480360360208110156100dd57600080fd5b50356001600160a01b03166101f7565b604080519115158252519081900360200190f35b61012d6004803603604081101561011757600080fd5b506001600160a01b03813516906020013561020c565b604080516001600160a01b039092168252519081900360200190f35b61016f6004803603602081101561015f57600080fd5b50356001600160a01b0316610241565b60408051918252519081900360200190f35b6001600160a01b0381166000908152600160209081526040918290208054835181840281018401909452808452606093928301828280156101eb57602002820191906000526020600020905b81546001600160a01b031681526001909101906020018083116101cd575b50505050509050919050565b60006020819052908152604090205460ff1681565b6001602052816000526040600020818154811061022557fe5b6000918252602090912001546001600160a01b03169150829050565b6001600160a01b03166000908152600160205260409020549056fea265627a7a723158200343ac1ce0fef510bebedacfa3e0560491e791d9ad06a337ee9c05598dc6460364736f6c63430005110032",
  "compiler": {
    "name": "solc",
    "version": "0.5.17+commit.d19bba13.Emscripten.clang",
    "optimizer": {
      "enabled": true,
      "runs": 200
    },
    "evmVersion": "petersburg"
  }
}