{
  "fileName": "MultiSigFundWallet.sol",
  "contractName": "MultiSigFundWallet",
  "source": "// \"SPDX-License-Identifier: UNLICENSED\"\npragma solidity >=0.4.21 <0.7.0;\n\nimport \"@openzeppelin/contracts-ethereum-package/contracts/token/ERC20/IERC20.sol\";\n\nimport \"./TraderPaired.sol\";\n\ncontract MultiSigFundWallet {\n\n    address constant ETHER = address(0); // allows storage of ether in blank address in token mapping\n\n    uint8 constant MAX_TOKENS = 20;\n\n    address public fund;\n\n    address public trader;\n    address public investor;\n    address public admin;\n\n    uint32 private disbursementIdx;\n\n    mapping (uint32 => Disbursement) private disbursements;\n    uint32[] private pendingDisbursements;\n\n    event SetTrader(address trader);\n    event Fund(address trader, address investor, uint256 investmentId, address token, uint256 amount, uint256 date);\n    event DisbursementCreated(address initiator, uint256 investmentId, uint32 disbursementId, uint256 date);\n    event DisbursementCompleted(address initiator, address signedBy, uint256 investmentId, uint32 disbursementId, uint256 date);\n    event Payout(address token, uint256 amount, address to);\n\n    struct Disbursement {\n        address initiator;\n        uint256 investmentId;\n    }\n\n    modifier isAdmin() {\n        require(msg.sender == admin);\n        _;\n    }\n\n    modifier isInvestor() {\n        require(msg.sender == investor);\n        _;\n    }\n\n    modifier hasTrader() {\n        require(trader != address(0));\n        _;\n    }\n\n    modifier hasNoTrader() {\n        require(trader == address(0));\n        _;\n    }\n\n    modifier traderOrInvestor() {\n        require(msg.sender == investor || msg.sender == trader);\n        _;\n    }\n\n    modifier validOwner() {\n        require(msg.sender == trader || msg.sender == investor || msg.sender == admin);\n        _;\n    }\n\n    modifier validSignature(uint32 disbursementId) {\n        require(_validateSignature(disbursementId));\n        _;\n    }\n\n    // @dev reverts if ether is sent directly\n    function () external {\n        revert();\n    }\n\n    constructor (address _fund, address _investor, address _admin)\n        public\n    {\n        // all are unique and non-zero\n        require (_fund != _investor && _fund != _admin && _investor != _admin && _admin != address(0));\n\n        fund = _fund;\n        investor = _investor;\n        admin = _admin;\n    }\n\n    function setTrader(address _trader) \n        public\n        isInvestor\n        hasNoTrader\n    {\n        require (_trader != investor && _trader != admin && _trader != fund);\n\n        trader = _trader;\n        emit SetTrader(_trader);\n    }\n\n    function replaceAdmin(address _admin) \n        external\n        isAdmin\n    {\n        require (_admin != address(0) && _admin != investor && _admin != trader);\n        admin = _admin;\n    }\n\n    function initiateFund(address _trader, address[] calldata _tokens, uint256[] calldata _amounts) \n        external\n        payable \n    {\n        setTrader(_trader);\n        _batchFund(msg.value, _tokens, _amounts);\n    }\n\n    function batchFund(address[] calldata _tokens, uint256[] calldata _amounts) \n        external\n        payable \n    {\n        _batchFund(msg.value, _tokens, _amounts);\n    }\n\n    function _batchFund(uint256 _etherAmount, address[] memory _tokens, uint256[] memory _amounts) \n        internal\n        isInvestor\n        hasTrader\n    {\n        require (_tokens.length == _amounts.length && _tokens.length <= MAX_TOKENS);\n\n        if (_etherAmount > 0) {\n            _fundEther(_etherAmount);\n        }\n\n        for (uint8 i=0; i<_tokens.length; i++) {\n            require (_tokens[i] != ETHER);\n            _fundToken(_tokens[i], _amounts[i]);\n        }\n    }\n\n    function fundEther() \n        external \n        payable\n    {\n        _fundEther(msg.value);\n    }\n\n    function fundToken(address _token, uint256 _amount)\n        external \n    {\n        _fundToken(_token, _amount);\n    }\n\n    function _fundEther(uint256 _amount) \n        internal\n        isInvestor\n        hasTrader\n    {\n        uint256 investmentId = TraderPaired(fund).invest(trader, investor, ETHER, _amount);\n        emit Fund(trader, msg.sender, investmentId, ETHER, _amount, now);\n    }\n\n    function _fundToken(address _token, uint256 _amount)\n        internal \n        isInvestor\n        hasTrader\n    {\n        require(_token != ETHER);\n        require(IERC20(_token).transferFrom(msg.sender, address(this), _amount));\n        uint256 investmentId = TraderPaired(fund).invest(trader, investor, _token, _amount);\n        emit Fund(trader, msg.sender, investmentId, _token, _amount, now);\n    }\n\n    function disburseEther(uint256 _investmentId, uint256 _value)\n        external\n        payable\n    {\n        _disburse(msg.sender, _investmentId, ETHER, _value, msg.value);\n    }\n\n    function disburseToken(uint256 _investmentId, address _token, uint256 _value, uint256 _amount)\n        external \n    {\n        if (msg.sender == trader && _amount > 0) {\n            require(IERC20(_token).transferFrom(msg.sender, address(this), _amount));\n        }\n        _disburse(msg.sender, _investmentId, _token, _value, _amount);\n    }\n\n    function _disburse(address _initiator, uint256 _investmentId, address _token, uint256 _value, uint256 _amount)\n        internal \n        traderOrInvestor\n        hasTrader\n    {\n        if (_initiator == investor) {\n            TraderPaired(fund).requestExitInvestor(trader, investor, _investmentId, _value);\n        } else {\n            TraderPaired(fund).requestExitTrader(trader, investor, _investmentId, _value, _amount);\n        }\n\n        uint32 _disbursementId = disbursementIdx++;\n\n        Disbursement memory _disbursement;\n        _disbursement.initiator = _initiator;\n        _disbursement.investmentId = _investmentId;\n\n        disbursements[_disbursementId] = _disbursement;\n        pendingDisbursements.push(_disbursementId);\n\n        emit DisbursementCreated(_initiator, _investmentId, _disbursementId, now);\n    }\n\n    function getPendingDisbursements()\n      external\n      view\n      validOwner\n      returns (uint32[] memory) \n    {\n        return pendingDisbursements;\n    }\n\n    function approveDisbursementEther(uint32 _disbursementId)\n      external\n      payable \n    {\n        _approveDisbursement(_disbursementId, ETHER, msg.value);\n    }\n\n    function approveDisbursementToken(uint32 _disbursementId, address _token, uint256 _amount)\n      external\n    {\n        if (_amount > 0) {\n            require(IERC20(_token).transferFrom(msg.sender, address(this), _amount));\n        }\n\n        _approveDisbursement(_disbursementId, _token, _amount);\n    }\n\n    function _approveDisbursement(uint32 _disbursementId, address _token, uint256 _amount)\n      internal\n      validOwner\n      hasTrader\n      validSignature(_disbursementId)\n    {\n        Disbursement memory _disbursement = disbursements[_disbursementId];\n        _executeDisbursement(_disbursementId, _token, _amount);\n        emit DisbursementCompleted(_disbursement.initiator, msg.sender, _disbursement.investmentId, _disbursementId, now);\n        deleteDisbursement(_disbursementId);\n    }\n\n    function _executeDisbursement(uint32 _disbursementId, address _token, uint256 _amount) \n        internal \n    {\n        Disbursement storage _disbursement = disbursements[_disbursementId];\n        uint256[3] memory _payouts = TraderPaired(fund).approveExit(trader, investor, _disbursement.investmentId, _token, _amount);\n\n        if (_token == ETHER) {\n            _payoutEther(_payouts[0], trader);\n            _payoutEther(_payouts[1], investor);\n            _payoutEther(_payouts[2], admin);\n            \n        } else {\n            _payoutToken(_token, _payouts[0], trader);\n            _payoutToken(_token, _payouts[1], investor);\n            _payoutToken(_token, _payouts[2], admin);\n        }\n    }\n\n    function _payoutEther(uint256 _amount, address _to) \n        internal\n    {\n        if (_amount > 0) {\n            address payable _toAddress = address(uint160(_to));\n            _toAddress.transfer(_amount);\n            emit Payout(ETHER, _amount, _toAddress);\n        }\n    }\n\n    function _payoutToken(address _token, uint256 _amount, address _to) \n        internal\n    {\n        if (_amount > 0) {\n            require(IERC20(_token).transfer(_to, _amount));\n            emit Payout(_token, _amount, _to);\n        }\n    }\n\n    function deleteDisbursement(uint32 _disbursementId)\n      public \n      validOwner\n    {\n        uint8 replace = 0;\n        for(uint32 i = 0; i < pendingDisbursements.length; i++) {\n            if (1 == replace) {\n                pendingDisbursements[i-1] = pendingDisbursements[i];\n            } else if (_disbursementId == pendingDisbursements[i]) {\n                replace = 1;\n            }\n        }\n        delete pendingDisbursements[pendingDisbursements.length - 1];\n        pendingDisbursements.length--;\n        delete disbursements[_disbursementId];\n    }\n\n    function _validateSignature(uint32 _disbursementId)\n        internal\n        returns (bool)\n    {\n        Disbursement storage _disbursement = disbursements[_disbursementId];\n\n        // disbursement must exist\n        if(address(0) == _disbursement.initiator) {\n            return false;\n        }\n        // Initiator cannot sign the disbursement\n        if(msg.sender == _disbursement.initiator) {\n            return false;\n        }\n\n        return true;\n    }\n\n    function etherBalance()\n        external\n        view\n        returns (uint256) \n    {\n        return address(this).balance;\n    }\n\n    function tokenBalance(address _token)\n        external\n        view\n        returns (uint256) \n    {\n        return IERC20(_token).balanceOf(address(this));\n    }\n}\n",
  "sourcePath": "contracts/MultiSigFundWallet.sol",
  "abi": [
    {
      "inputs": [
        {
          "internalType": "address",
          "name": "_fund",
          "type": "address"
        },
        {
          "internalType": "address",
          "name": "_investor",
          "type": "address"
        },
        {
          "internalType": "address",
          "name": "_admin",
          "type": "address"
        }
      ],
      "payable": false,
      "stateMutability": "nonpayable",
      "type": "constructor"
    },
    {
      "anonymous": false,
      "inputs": [
        {
          "indexed": false,
          "internalType": "address",
          "name": "initiator",
          "type": "address"
        },
        {
          "indexed": false,
          "internalType": "address",
          "name": "signedBy",
          "type": "address"
        },
        {
          "indexed": false,
          "internalType": "uint256",
          "name": "investmentId",
          "type": "uint256"
        },
        {
          "indexed": false,
          "internalType": "uint32",
          "name": "disbursementId",
          "type": "uint32"
        },
        {
          "indexed": false,
          "internalType": "uint256",
          "name": "date",
          "type": "uint256"
        }
      ],
      "name": "DisbursementCompleted",
      "type": "event"
    },
    {
      "anonymous": false,
      "inputs": [
        {
          "indexed": false,
          "internalType": "address",
          "name": "initiator",
          "type": "address"
        },
        {
          "indexed": false,
          "internalType": "uint256",
          "name": "investmentId",
          "type": "uint256"
        },
        {
          "indexed": false,
          "internalType": "uint32",
          "name": "disbursementId",
          "type": "uint32"
        },
        {
          "indexed": false,
          "internalType": "uint256",
          "name": "date",
          "type": "uint256"
        }
      ],
      "name": "DisbursementCreated",
      "type": "event"
    },
    {
      "anonymous": false,
      "inputs": [
        {
          "indexed": false,
          "internalType": "address",
          "name": "trader",
          "type": "address"
        },
        {
          "indexed": false,
          "internalType": "address",
          "name": "investor",
          "type": "address"
        },
        {
          "indexed": false,
          "internalType": "uint256",
          "name": "investmentId",
          "type": "uint256"
        },
        {
          "indexed": false,
          "internalType": "address",
          "name": "token",
          "type": "address"
        },
        {
          "indexed": false,
          "internalType": "uint256",
          "name": "amount",
          "type": "uint256"
        },
        {
          "indexed": false,
          "internalType": "uint256",
          "name": "date",
          "type": "uint256"
        }
      ],
      "name": "Fund",
      "type": "event"
    },
    {
      "anonymous": false,
      "inputs": [
        {
          "indexed": false,
          "internalType": "address",
          "name": "token",
          "type": "address"
        },
        {
          "indexed": false,
          "internalType": "uint256",
          "name": "amount",
          "type": "uint256"
        },
        {
          "indexed": false,
          "internalType": "address",
          "name": "to",
          "type": "address"
        }
      ],
      "name": "Payout",
      "type": "event"
    },
    {
      "anonymous": false,
      "inputs": [
        {
          "indexed": false,
          "internalType": "address",
          "name": "trader",
          "type": "address"
        }
      ],
      "name": "SetTrader",
      "type": "event"
    },
    {
      "payable": false,
      "stateMutability": "nonpayable",
      "type": "fallback"
    },
    {
      "constant": true,
      "inputs": [],
      "name": "admin",
      "outputs": [
        {
          "internalType": "address",
          "name": "",
          "type": "address"
        }
      ],
      "payable": false,
      "stateMutability": "view",
      "type": "function"
    },
    {
      "constant": false,
      "inputs": [
        {
          "internalType": "uint32",
          "name": "_disbursementId",
          "type": "uint32"
        }
      ],
      "name": "approveDisbursementEther",
      "outputs": [],
      "payable": true,
      "stateMutability": "payable",
      "type": "function"
    },
    {
      "constant": false,
      "inputs": [
        {
          "internalType": "uint32",
          "name": "_disbursementId",
          "type": "uint32"
        },
        {
          "internalType": "address",
          "name": "_token",
          "type": "address"
        },
        {
          "internalType": "uint256",
          "name": "_amount",
          "type": "uint256"
        }
      ],
      "name": "approveDisbursementToken",
      "outputs": [],
      "payable": false,
      "stateMutability": "nonpayable",
      "type": "function"
    },
    {
      "constant": false,
      "inputs": [
        {
          "internalType": "address[]",
          "name": "_tokens",
          "type": "address[]"
        },
        {
          "internalType": "uint256[]",
          "name": "_amounts",
          "type": "uint256[]"
        }
      ],
      "name": "batchFund",
      "outputs": [],
      "payable": true,
      "stateMutability": "payable",
      "type": "function"
    },
    {
      "constant": false,
      "inputs": [
        {
          "internalType": "uint32",
          "name": "_disbursementId",
          "type": "uint32"
        }
      ],
      "name": "deleteDisbursement",
      "outputs": [],
      "payable": false,
      "stateMutability": "nonpayable",
      "type": "function"
    },
    {
      "constant": false,
      "inputs": [
        {
          "internalType": "uint256",
          "name": "_investmentId",
          "type": "uint256"
        },
        {
          "internalType": "uint256",
          "name": "_value",
          "type": "uint256"
        }
      ],
      "name": "disburseEther",
      "outputs": [],
      "payable": true,
      "stateMutability": "payable",
      "type": "function"
    },
    {
      "constant": false,
      "inputs": [
        {
          "internalType": "uint256",
          "name": "_investmentId",
          "type": "uint256"
        },
        {
          "internalType": "address",
          "name": "_token",
          "type": "address"
        },
        {
          "internalType": "uint256",
          "name": "_value",
          "type": "uint256"
        },
        {
          "internalType": "uint256",
          "name": "_amount",
          "type": "uint256"
        }
      ],
      "name": "disburseToken",
      "outputs": [],
      "payable": false,
      "stateMutability": "nonpayable",
      "type": "function"
    },
    {
      "constant": true,
      "inputs": [],
      "name": "etherBalance",
      "outputs": [
        {
          "internalType": "uint256",
          "name": "",
          "type": "uint256"
        }
      ],
      "payable": false,
      "stateMutability": "view",
      "type": "function"
    },
    {
      "constant": true,
      "inputs": [],
      "name": "fund",
      "outputs": [
        {
          "internalType": "address",
          "name": "",
          "type": "address"
        }
      ],
      "payable": false,
      "stateMutability": "view",
      "type": "function"
    },
    {
      "constant": false,
      "inputs": [],
      "name": "fundEther",
      "outputs": [],
      "payable": true,
      "stateMutability": "payable",
      "type": "function"
    },
    {
      "constant": false,
      "inputs": [
        {
          "internalType": "address",
          "name": "_token",
          "type": "address"
        },
        {
          "internalType": "uint256",
          "name": "_amount",
          "type": "uint256"
        }
      ],
      "name": "fundToken",
      "outputs": [],
      "payable": false,
      "stateMutability": "nonpayable",
      "type": "function"
    },
    {
      "constant": true,
      "inputs": [],
      "name": "getPendingDisbursements",
      "outputs": [
        {
          "internalType": "uint32[]",
          "name": "",
          "type": "uint32[]"
        }
      ],
      "payable": false,
      "stateMutability": "view",
      "type": "function"
    },
    {
      "constant": false,
      "inputs": [
        {
          "internalType": "address",
          "name": "_trader",
          "type": "address"
        },
        {
          "internalType": "address[]",
          "name": "_tokens",
          "type": "address[]"
        },
        {
          "internalType": "uint256[]",
          "name": "_amounts",
          "type": "uint256[]"
        }
      ],
      "name": "initiateFund",
      "outputs": [],
      "payable": true,
      "stateMutability": "payable",
      "type": "function"
    },
    {
      "constant": true,
      "inputs": [],
      "name": "investor",
      "outputs": [
        {
          "internalType": "address",
          "name": "",
          "type": "address"
        }
      ],
      "payable": false,
      "stateMutability": "view",
      "type": "function"
    },
    {
      "constant": false,
      "inputs": [
        {
          "internalType": "address",
          "name": "_admin",
          "type": "address"
        }
      ],
      "name": "replaceAdmin",
      "outputs": [],
      "payable": false,
      "stateMutability": "nonpayable",
      "type": "function"
    },
    {
      "constant": false,
      "inputs": [
        {
          "internalType": "address",
          "name": "_trader",
          "type": "address"
        }
      ],
      "name": "setTrader",
      "outputs": [],
      "payable": false,
      "stateMutability": "nonpayable",
      "type": "function"
    },
    {
      "constant": true,
      "inputs": [
        {
          "internalType": "address",
          "name": "_token",
          "type": "address"
        }
      ],
      "name": "tokenBalance",
      "outputs": [
        {
          "internalType": "uint256",
          "name": "",
          "type": "uint256"
        }
      ],
      "payable": false,
      "stateMutability": "view",
      "type": "function"
    },
    {
      "constant": true,
      "inputs": [],
      "name": "trader",
      "outputs": [
        {
          "internalType": "address",
          "name": "",
          "type": "address"
        }
      ],
      "payable": false,
      "stateMutability": "view",
      "type": "function"
    }
  ],
  "bytecode": "0x608060405234801561001057600080fd5b506040516119003803806119008339818101604052606081101561003357600080fd5b50805160208201516040909201519091906001600160a01b03808416908316148015906100725750806001600160a01b0316836001600160a01b031614155b80156100905750806001600160a01b0316826001600160a01b031614155b80156100a457506001600160a01b03811615155b6100ad57600080fd5b600080546001600160a01b039485166001600160a01b031991821617909155600280549385169382169390931790925560038054919093169116179055611807806100f96000396000f3fe6080604052600436106101095760003560e01c8063a6bc18f911610095578063d411b8b511610064578063d411b8b5146104b1578063d5b460eb146104ea578063eedc966a1461052f578063f677601914610562578063f851a4401461056a57610109565b8063a6bc18f91461040f578063ad66e52a14610442578063b60d428814610469578063c4f4face1461047e57610109565b80633872dbe9116100dc5780633872dbe91461020d57806345156389146102305780635e5dad76146102ee5780638204869a1461031e578063982c61411461034157610109565b8063160c4cf61461011b5780631758078b146101805780631e0018d6146101b15780632bf24c4b146101c6575b34801561011557600080fd5b50600080fd5b34801561012757600080fd5b5061013061057f565b60408051602080825283518183015283519192839290830191858101910280838360005b8381101561016c578181015183820152602001610154565b505050509050019250505060405180910390f35b34801561018c57600080fd5b50610195610646565b604080516001600160a01b039092168252519081900360200190f35b3480156101bd57600080fd5b50610195610655565b3480156101d257600080fd5b5061020b600480360360608110156101e957600080fd5b5063ffffffff813516906001600160a01b036020820135169060400135610664565b005b61020b6004803603604081101561022357600080fd5b5080359060200135610704565b61020b6004803603604081101561024657600080fd5b810190602081018135600160201b81111561026057600080fd5b82018360208201111561027257600080fd5b803590602001918460208302840111600160201b8311171561029357600080fd5b919390929091602081019035600160201b8111156102b057600080fd5b8201836020820111156102c257600080fd5b803590602001918460208302840111600160201b831117156102e357600080fd5b509092509050610716565b3480156102fa57600080fd5b5061020b6004803603602081101561031157600080fd5b503563ffffffff1661078a565b61020b6004803603602081101561033457600080fd5b503563ffffffff16610945565b61020b6004803603606081101561035757600080fd5b6001600160a01b038235169190810190604081016020820135600160201b81111561038157600080fd5b82018360208201111561039357600080fd5b803590602001918460208302840111600160201b831117156103b457600080fd5b919390929091602081019035600160201b8111156103d157600080fd5b8201836020820111156103e357600080fd5b803590602001918460208302840111600160201b8311171561040457600080fd5b509092509050610954565b34801561041b57600080fd5b5061020b6004803603602081101561043257600080fd5b50356001600160a01b03166109d2565b34801561044e57600080fd5b50610457610aa2565b60408051918252519081900360200190f35b34801561047557600080fd5b50610195610aa7565b34801561048a57600080fd5b5061020b600480360360208110156104a157600080fd5b50356001600160a01b0316610ab6565b3480156104bd57600080fd5b5061020b600480360360408110156104d457600080fd5b506001600160a01b038135169060200135610b38565b3480156104f657600080fd5b5061020b6004803603608081101561050d57600080fd5b508035906001600160a01b036020820135169060408101359060600135610b42565b34801561053b57600080fd5b506104576004803603602081101561055257600080fd5b50356001600160a01b0316610bf8565b61020b610c76565b34801561057657600080fd5b50610195610c81565b6001546060906001600160a01b03163314806105a557506002546001600160a01b031633145b806105ba57506003546001600160a01b031633145b6105c357600080fd5b600580548060200260200160405190810160405280929190818152602001828054801561063b57602002820191906000526020600020906000905b82829054906101000a900463ffffffff1663ffffffff16815260200190600401906020826003010492830192600103820291508084116105fe5790505b505050505090505b90565b6001546001600160a01b031681565b6002546001600160a01b031681565b80156106f457604080516323b872dd60e01b81523360048201523060248201526044810183905290516001600160a01b038416916323b872dd9160648083019260209291908290030181600087803b1580156106bf57600080fd5b505af11580156106d3573d6000803e3d6000fd5b505050506040513d60208110156106e957600080fd5b50516106f457600080fd5b6106ff838383610c90565b505050565b610712338360008434610dae565b5050565b610784348585808060200260200160405190810160405280939291908181526020018383602002808284376000920191909152505060408051602080890282810182019093528882529093508892508791829185019084908082843760009201919091525061102e92505050565b50505050565b6001546001600160a01b03163314806107ad57506002546001600160a01b031633145b806107c257506003546001600160a01b031633145b6107cb57600080fd5b6000805b60055463ffffffff821610156108cb578160ff16600114156108725760058163ffffffff16815481106107fe57fe5b90600052602060002090600891828204019190066004029054906101000a900463ffffffff1660056001830363ffffffff168154811061083a57fe5b90600052602060002090600891828204019190066004026101000a81548163ffffffff021916908363ffffffff1602179055506108c3565b60058163ffffffff168154811061088557fe5b90600052602060002090600891828204019190066004029054906101000a900463ffffffff1663ffffffff168363ffffffff1614156108c357600191505b6001016107cf565b506005805460001981019081106108de57fe5b90600052602060002090600891828204019190066004026101000a81549063ffffffff0219169055600580548091906001900361091b919061174b565b505063ffffffff16600090815260046020526040812080546001600160a01b031916815560010155565b61095181600034610c90565b50565b61095d856109d2565b6109cb348585808060200260200160405190810160405280939291908181526020018383602002808284376000920191909152505060408051602080890282810182019093528882529093508892508791829185019084908082843760009201919091525061102e92505050565b5050505050565b6002546001600160a01b031633146109e957600080fd5b6001546001600160a01b0316156109ff57600080fd5b6002546001600160a01b03828116911614801590610a2b57506003546001600160a01b03828116911614155b8015610a4557506000546001600160a01b03828116911614155b610a4e57600080fd5b600180546001600160a01b0383166001600160a01b0319909116811790915560408051918252517f985b4dd4654f00a77259f8971c3a5aa21910e31ed411ffd8c4106d7e9a0c22859181900360200190a150565b303190565b6000546001600160a01b031681565b6003546001600160a01b03163314610acd57600080fd5b6001600160a01b03811615801590610af357506002546001600160a01b03828116911614155b8015610b0d57506001546001600160a01b03828116911614155b610b1657600080fd5b600380546001600160a01b0319166001600160a01b0392909216919091179055565b6107128282611108565b6001546001600160a01b031633148015610b5c5750600081115b15610beb57604080516323b872dd60e01b81523360048201523060248201526044810183905290516001600160a01b038516916323b872dd9160648083019260209291908290030181600087803b158015610bb657600080fd5b505af1158015610bca573d6000803e3d6000fd5b505050506040513d6020811015610be057600080fd5b5051610beb57600080fd5b6107843385858585610dae565b604080516370a0823160e01b815230600482015290516000916001600160a01b038416916370a0823191602480820192602092909190829003018186803b158015610c4257600080fd5b505afa158015610c56573d6000803e3d6000fd5b505050506040513d6020811015610c6c57600080fd5b505190505b919050565b610c7f346112d1565b565b6003546001600160a01b031681565b6001546001600160a01b0316331480610cb357506002546001600160a01b031633145b80610cc857506003546001600160a01b031633145b610cd157600080fd5b6001546001600160a01b0316610ce657600080fd5b82610cf0816113fa565b610cf957600080fd5b610d0161177f565b5063ffffffff8416600090815260046020908152604091829020825180840190935280546001600160a01b031683526001015490820152610d4385858561144d565b8051602080830151604080516001600160a01b03909416845233928401929092528282015263ffffffff87166060830152426080830152517f587e27ac9fad1ca4409b109943c810a6efb15dde2c444e4983831342fc7f1b7a9181900360a00190a16109cb8561078a565b6002546001600160a01b0316331480610dd157506001546001600160a01b031633145b610dda57600080fd5b6001546001600160a01b0316610def57600080fd5b6002546001600160a01b0386811691161415610e885760008054600154600254604080516302ea5cad60e31b81526001600160a01b03938416600482015291831660248301526044820189905260648201879052519190921692631752e568926084808201939182900301818387803b158015610e6b57600080fd5b505af1158015610e7f573d6000803e3d6000fd5b50505050610f0e565b600080546001546002546040805163468bdb2360e01b81526001600160a01b039384166004820152918316602483015260448201899052606482018790526084820186905251919092169263468bdb239260a4808201939182900301818387803b158015610ef557600080fd5b505af1158015610f09573d6000803e3d6000fd5b505050505b6003805463ffffffff60a01b198116600160a01b9182900463ffffffff9081166001810190911690920217909155610f4461177f565b6001600160a01b03808816808352602080840189815263ffffffff8087166000818152600480865260408083208a5181549a166001600160a01b0319909a169990991789559451600198890155600580549889018155909152600887047f036b6384b5eca791c62761152d0c79bb0604c104a5fb6f4eb0703f3154bb3db001805460079098169091026101000a8083029302199096169190911790945580519283529082018990528181019290925242606082015290517f13d685a6493cbaead91779cdce8bc57b265083d70991296ffa975125288e865f9181900360800190a150505050505050565b6002546001600160a01b0316331461104557600080fd5b6001546001600160a01b031661105a57600080fd5b8051825114801561106d57508151601410155b61107657600080fd5b821561108557611085836112d1565b60005b82518160ff1610156107845760006001600160a01b0316838260ff16815181106110ae57fe5b60200260200101516001600160a01b031614156110ca57600080fd5b611100838260ff16815181106110dc57fe5b6020026020010151838360ff16815181106110f357fe5b6020026020010151611108565b600101611088565b6002546001600160a01b0316331461111f57600080fd5b6001546001600160a01b031661113457600080fd5b6001600160a01b03821661114757600080fd5b604080516323b872dd60e01b81523360048201523060248201526044810183905290516001600160a01b038416916323b872dd9160648083019260209291908290030181600087803b15801561119c57600080fd5b505af11580156111b0573d6000803e3d6000fd5b505050506040513d60208110156111c657600080fd5b50516111d157600080fd5b6000805460015460025460408051630c4b6f2960e11b81526001600160a01b0393841660048201529183166024830152868316604483015260648201869052519190921691631896de5291608480830192602092919082900301818787803b15801561123c57600080fd5b505af1158015611250573d6000803e3d6000fd5b505050506040513d602081101561126657600080fd5b5051600154604080516001600160a01b0392831681523360208201528082018490529186166060830152608082018590524260a0830152519192507f8d543feb7ab204eb3d3c58cdc5b330052056bbabbdc1b1fddd51049ac954712c919081900360c00190a1505050565b6002546001600160a01b031633146112e857600080fd5b6001546001600160a01b03166112fd57600080fd5b6000805460015460025460408051630c4b6f2960e11b81526001600160a01b03938416600482015291831660248301526044820185905260648201869052519190921691631896de5291608480830192602092919082900301818787803b15801561136757600080fd5b505af115801561137b573d6000803e3d6000fd5b505050506040513d602081101561139157600080fd5b5051600154604080516001600160a01b03909216825233602083015281810183905260006060830152608082018590524260a0830152519192507f8d543feb7ab204eb3d3c58cdc5b330052056bbabbdc1b1fddd51049ac954712c919081900360c00190a15050565b63ffffffff8116600090815260046020526040812080546001600160a01b0316611428576000915050610c71565b80546001600160a01b0316331415611444576000915050610c71565b50600192915050565b63ffffffff8316600090815260046020526040902061146a611796565b6000805460018054600254918601546040805163a57a71b760e01b81526001600160a01b039384166004820152938316602485015260448401919091528882166064840152608483018890525192169263a57a71b79260a4808401936060939083900390910190829087803b1580156114e257600080fd5b505af11580156114f6573d6000803e3d6000fd5b505050506040513d601f19601f82011682018060405250606081101561151b57600080fd5b5090506001600160a01b03841661158157805160015461154491906001600160a01b03166115d4565b61156081600160200201516002546001600160a01b03166115d4565b61157c81600260200201516003546001600160a01b03166115d4565b6109cb565b805160015461159a9186916001600160a01b0316611661565b6115b78482600160200201516002546001600160a01b0316611661565b6109cb8482600260200201516003546001600160a01b0316611661565b81156107125760405181906001600160a01b0382169084156108fc029085906000818181858888f19350505050158015611612573d6000803e3d6000fd5b506040805160008152602081018590526001600160a01b0383168183015290517f1be0a78bb08f226c98376fe01c6b0037104329761c8799e7d9f3ba5599c9eba79181900360600190a1505050565b81156106ff57826001600160a01b031663a9059cbb82846040518363ffffffff1660e01b815260040180836001600160a01b03166001600160a01b0316815260200182815260200192505050602060405180830381600087803b1580156116c757600080fd5b505af11580156116db573d6000803e3d6000fd5b505050506040513d60208110156116f157600080fd5b50516116fc57600080fd5b604080516001600160a01b0380861682526020820185905283168183015290517f1be0a78bb08f226c98376fe01c6b0037104329761c8799e7d9f3ba5599c9eba79181900360600190a1505050565b8154818355818111156106ff5760070160089004816007016008900483600052602060002091820191016106ff91906117b4565b604080518082019091526000808252602082015290565b60405180606001604052806003906020820280388339509192915050565b61064391905b808211156117ce57600081556001016117ba565b509056fea265627a7a723158203557c67fe8626c4d393698c6b63bf95a2efc6e9c36647de1379e305249f4239264736f6c63430005110032",
  "compiler": {
    "name": "solc",
    "version": "0.5.17+commit.d19bba13.Emscripten.clang",
    "optimizer": {
      "enabled": true,
      "runs": 200
    },
    "evmVersion": "petersburg"
  }
}