{
  "fileName": "MultiSigFundWallet.sol",
  "contractName": "MultiSigFundWallet",
  "source": "// \"SPDX-License-Identifier: UNLICENSED\"\npragma solidity >=0.4.21 <0.7.0;\n\nimport \"@openzeppelin/contracts-ethereum-package/contracts/math/SafeMath.sol\";\nimport \"@openzeppelin/contracts-ethereum-package/contracts/token/ERC20/IERC20.sol\";\n\nimport \"./TraderPaired.sol\";\n\ncontract MultiSigFundWallet {\n    using SafeMath for uint256;\n\n    address constant ETHER = address(0); // allows storage of ether in blank address in token mapping\n\n    uint8 constant MAX_TOKENS = 20;\n\n    address public fund;\n\n    mapping (address => bool) public traders;\n    address public investor;\n    address public admin;\n\n    mapping (address => mapping (address => uint256)) balances;\n\n    uint32 private disbursementIdx;\n\n    mapping (uint32 => Disbursement) private disbursements;\n    uint32[] private pendingDisbursements;\n\n    event SetTrader(address trader, bool active);\n    event Fund(address trader, address investor, uint256 investmentId, address token, uint256 amount, uint256 date);\n    event DisbursementCreated(address trader, address initiator, uint256 investmentId, uint32 disbursementId, uint256 date);\n    event DisbursementCompleted(address initiator, address signedBy, uint256 investmentId, uint32 disbursementId, uint256 date);\n    event Payout(address token, uint256 amount, address to);\n\n    struct Disbursement {\n        address trader;\n        address initiator;\n        uint256 investmentId;\n    }\n\n    modifier isAdmin() {\n        require(msg.sender == admin);\n        _;\n    }\n\n    modifier isInvestor() {\n        require(msg.sender == investor);\n        _;\n    }\n\n    modifier isTrader(address _trader) {\n        require(traders[_trader]);\n        _;\n    }\n\n    modifier isNotTrader(address _trader) {\n        require(!traders[_trader]);\n        _;\n    }\n\n    modifier traderOrInvestor() {\n        require(msg.sender == investor || traders[msg.sender]);\n        _;\n    }\n\n    modifier validOwner() {\n        require(msg.sender == investor || msg.sender == admin || traders[msg.sender]);\n        _;\n    }\n\n    modifier validSignature(address trader, uint32 disbursementId) {\n        require(_validateSignature(trader, disbursementId));\n        _;\n    }\n\n    // @dev reverts if ether is sent directly\n    function () external {\n        revert();\n    }\n\n    constructor (address _fund, address _investor, address _admin)\n        public\n    {\n        // all are unique and non-zero\n        require (_fund != _investor && _fund != _admin && _investor != _admin && _admin != address(0));\n\n        fund = _fund;\n        investor = _investor;\n        admin = _admin;\n    }\n\n    function setTrader(address _trader, bool _active) \n        external\n        isInvestor\n    {\n        // TODO: only deactivate on zero balances\n        require (_trader != investor && _trader != admin && _trader != fund);\n\n        traders[_trader] = _active;\n        emit SetTrader(_trader, _active);\n    }\n\n    function replaceAdmin(address _admin) \n        external\n        isAdmin\n    {\n        require (_admin != address(0) && _admin != investor && !traders[_admin]);\n        admin = _admin;\n    }\n\n    function fundEther(address _trader) \n        external \n        payable\n    {\n        _fundEther(_trader, msg.value);\n    }\n\n    function fundToken(address _trader, address _token, uint256 _amount)\n        external \n    {\n        _fundToken(_trader, _token, _amount);\n    }\n\n    function _fundEther(address _trader, uint256 _amount) \n        internal\n        isInvestor\n        isTrader(_trader)\n    {\n        uint256 investmentId = TraderPaired(fund).invest(_trader, investor, ETHER, _amount);\n        balances[_trader][ETHER] = balances[_trader][ETHER].add(_amount);\n        emit Fund(_trader, msg.sender, investmentId, ETHER, _amount, now);\n    }\n\n    function _fundToken(address _trader, address _token, uint256 _amount)\n        internal \n        isInvestor\n        isTrader(_trader)\n    {\n        require(_token != ETHER);\n        require(IERC20(_token).transferFrom(msg.sender, address(this), _amount));\n        uint256 investmentId = TraderPaired(fund).invest(_trader, investor, _token, _amount);\n        balances[_trader][_token] = balances[_trader][_token].add(_amount);\n        emit Fund(_trader, msg.sender, investmentId, _token, _amount, now);\n    }\n\n    function disburseEther(address _trader, uint256 _investmentId, uint256 _value)\n        external\n        payable\n    {\n        _disburse(_trader, msg.sender, _investmentId, ETHER, _value, msg.value);\n    }\n\n    function disburseToken(address _trader, uint256 _investmentId, address _token, uint256 _value, uint256 _amount)\n        external \n    {\n        if (_amount > 0) {\n            require(IERC20(_token).transferFrom(msg.sender, address(this), _amount));\n        }\n        _disburse(_trader, msg.sender, _investmentId, _token, _value, _amount);\n    }\n\n    function _disburse(address _trader, address _initiator, uint256 _investmentId, address _token, uint256 _value, uint256 _amount)\n        internal \n        traderOrInvestor\n        isTrader(_trader)\n    {\n        if (_initiator == investor) {\n            TraderPaired(fund).requestExitInvestor(_trader, investor, _investmentId, _value);\n        } else {\n            require(msg.sender == _trader);\n            TraderPaired(fund).requestExitTrader(_trader, investor, _investmentId, _value, _amount);\n        }\n\n        if (_amount > 0) {\n            balances[_trader][_token] = balances[_trader][_token].add(_amount);\n        }\n\n        uint32 _disbursementId = disbursementIdx++;\n\n        Disbursement memory _disbursement;\n        _disbursement.trader = _trader;\n        _disbursement.initiator = _initiator;\n        _disbursement.investmentId = _investmentId;\n\n        disbursements[_disbursementId] = _disbursement;\n        pendingDisbursements.push(_disbursementId);\n\n        emit DisbursementCreated(_trader, _initiator, _investmentId, _disbursementId, now);\n    }\n\n    function getPendingDisbursements()\n      external\n      view\n      validOwner\n      returns (uint32[] memory) \n    {\n        return pendingDisbursements;\n    }\n\n    function approveDisbursementEther(address _trader, uint32 _disbursementId)\n      external\n      payable \n    {\n        _approveDisbursement(_trader, _disbursementId, ETHER, msg.value);\n    }\n\n    function approveDisbursementToken(address _trader, uint32 _disbursementId, address _token, uint256 _amount)\n      external\n    {\n        if (_amount > 0) {\n            require(IERC20(_token).transferFrom(msg.sender, address(this), _amount));\n        }\n\n        _approveDisbursement(_trader, _disbursementId, _token, _amount);\n    }\n\n    function _approveDisbursement(address _trader, uint32 _disbursementId, address _token, uint256 _amount)\n      internal\n      validOwner\n      isTrader(_trader)\n      validSignature(_trader, _disbursementId)\n    {\n        Disbursement memory _disbursement = disbursements[_disbursementId];\n        _executeDisbursement(_trader, _disbursementId, _token, _amount);\n        emit DisbursementCompleted(_disbursement.initiator, msg.sender, _disbursement.investmentId, _disbursementId, now);\n        deleteDisbursement(_disbursementId);\n    }\n\n    function _executeDisbursement(address _trader, uint32 _disbursementId, address _token, uint256 _amount) \n        internal \n    {\n        Disbursement storage _disbursement = disbursements[_disbursementId];\n        uint256[3] memory _payouts = TraderPaired(fund).approveExit(_trader, investor, _disbursement.investmentId, _token, _amount);\n\n        if (_amount > 0) {\n            balances[_trader][_token] = balances[_trader][_token].add(_amount);\n        }\n\n        if (_token == ETHER) {\n            _payoutEther(_trader, _payouts[0], _trader);\n            _payoutEther(_trader, _payouts[1], investor);\n            _payoutEther(_trader, _payouts[2], admin);\n            \n        } else {\n            _payoutToken(_trader, _token, _payouts[0], _trader);\n            _payoutToken(_trader, _token, _payouts[1], investor);\n            _payoutToken(_trader, _token, _payouts[2], admin);\n        }\n    }\n\n    function _payoutEther(address _trader, uint256 _amount, address _to) \n        internal\n    {\n        if (_amount > 0) {\n            address payable _toAddress = address(uint160(_to));\n            balances[_trader][ETHER] = balances[_trader][ETHER].sub(_amount);\n            _toAddress.transfer(_amount);\n            emit Payout(ETHER, _amount, _toAddress);\n        }\n    }\n\n    function _payoutToken(address _trader, address _token, uint256 _amount, address _to) \n        internal\n    {\n        if (_amount > 0) {\n            balances[_trader][_token] = balances[_trader][_token].sub(_amount);\n            require(IERC20(_token).transfer(_to, _amount));\n            emit Payout(_token, _amount, _to);\n        }\n    }\n\n    function deleteDisbursement(uint32 _disbursementId)\n      public \n      validOwner\n    {\n        uint8 replace = 0;\n        for(uint32 i = 0; i < pendingDisbursements.length; i++) {\n            if (1 == replace) {\n                pendingDisbursements[i-1] = pendingDisbursements[i];\n            } else if (_disbursementId == pendingDisbursements[i]) {\n                replace = 1;\n            }\n        }\n        delete pendingDisbursements[pendingDisbursements.length - 1];\n        pendingDisbursements.length--;\n        delete disbursements[_disbursementId];\n    }\n\n    function _validateSignature(address _trader, uint32 _disbursementId)\n        internal\n        returns (bool)\n    {\n        Disbursement storage _disbursement = disbursements[_disbursementId];\n\n        require (_disbursement.trader == _trader);\n\n        // disbursement must exist\n        if(address(0) == _disbursement.initiator) {\n            return false;\n        }\n        // Initiator cannot sign the disbursement\n        if(msg.sender == _disbursement.initiator) {\n            return false;\n        }\n        // if a trader is signing, it must match the trader for this disbursement\n        if(traders[msg.sender]) {\n            require (_disbursement.trader == msg.sender);\n        }\n\n        return true;\n    }\n\n    function etherBalance()\n        external\n        view\n        returns (uint256) \n    {\n        return address(this).balance;\n    }\n\n    function tokenBalance(address _token)\n        external\n        view\n        returns (uint256) \n    {\n        return IERC20(_token).balanceOf(address(this));\n    }\n}\n",
  "sourcePath": "contracts/MultiSigFundWallet.sol",
  "abi": [
    {
      "inputs": [
        {
          "internalType": "address",
          "name": "_fund",
          "type": "address"
        },
        {
          "internalType": "address",
          "name": "_investor",
          "type": "address"
        },
        {
          "internalType": "address",
          "name": "_admin",
          "type": "address"
        }
      ],
      "payable": false,
      "stateMutability": "nonpayable",
      "type": "constructor"
    },
    {
      "anonymous": false,
      "inputs": [
        {
          "indexed": false,
          "internalType": "address",
          "name": "initiator",
          "type": "address"
        },
        {
          "indexed": false,
          "internalType": "address",
          "name": "signedBy",
          "type": "address"
        },
        {
          "indexed": false,
          "internalType": "uint256",
          "name": "investmentId",
          "type": "uint256"
        },
        {
          "indexed": false,
          "internalType": "uint32",
          "name": "disbursementId",
          "type": "uint32"
        },
        {
          "indexed": false,
          "internalType": "uint256",
          "name": "date",
          "type": "uint256"
        }
      ],
      "name": "DisbursementCompleted",
      "type": "event"
    },
    {
      "anonymous": false,
      "inputs": [
        {
          "indexed": false,
          "internalType": "address",
          "name": "trader",
          "type": "address"
        },
        {
          "indexed": false,
          "internalType": "address",
          "name": "initiator",
          "type": "address"
        },
        {
          "indexed": false,
          "internalType": "uint256",
          "name": "investmentId",
          "type": "uint256"
        },
        {
          "indexed": false,
          "internalType": "uint32",
          "name": "disbursementId",
          "type": "uint32"
        },
        {
          "indexed": false,
          "internalType": "uint256",
          "name": "date",
          "type": "uint256"
        }
      ],
      "name": "DisbursementCreated",
      "type": "event"
    },
    {
      "anonymous": false,
      "inputs": [
        {
          "indexed": false,
          "internalType": "address",
          "name": "trader",
          "type": "address"
        },
        {
          "indexed": false,
          "internalType": "address",
          "name": "investor",
          "type": "address"
        },
        {
          "indexed": false,
          "internalType": "uint256",
          "name": "investmentId",
          "type": "uint256"
        },
        {
          "indexed": false,
          "internalType": "address",
          "name": "token",
          "type": "address"
        },
        {
          "indexed": false,
          "internalType": "uint256",
          "name": "amount",
          "type": "uint256"
        },
        {
          "indexed": false,
          "internalType": "uint256",
          "name": "date",
          "type": "uint256"
        }
      ],
      "name": "Fund",
      "type": "event"
    },
    {
      "anonymous": false,
      "inputs": [
        {
          "indexed": false,
          "internalType": "address",
          "name": "token",
          "type": "address"
        },
        {
          "indexed": false,
          "internalType": "uint256",
          "name": "amount",
          "type": "uint256"
        },
        {
          "indexed": false,
          "internalType": "address",
          "name": "to",
          "type": "address"
        }
      ],
      "name": "Payout",
      "type": "event"
    },
    {
      "anonymous": false,
      "inputs": [
        {
          "indexed": false,
          "internalType": "address",
          "name": "trader",
          "type": "address"
        },
        {
          "indexed": false,
          "internalType": "bool",
          "name": "active",
          "type": "bool"
        }
      ],
      "name": "SetTrader",
      "type": "event"
    },
    {
      "payable": false,
      "stateMutability": "nonpayable",
      "type": "fallback"
    },
    {
      "constant": true,
      "inputs": [],
      "name": "admin",
      "outputs": [
        {
          "internalType": "address",
          "name": "",
          "type": "address"
        }
      ],
      "payable": false,
      "stateMutability": "view",
      "type": "function"
    },
    {
      "constant": false,
      "inputs": [
        {
          "internalType": "address",
          "name": "_trader",
          "type": "address"
        },
        {
          "internalType": "uint32",
          "name": "_disbursementId",
          "type": "uint32"
        }
      ],
      "name": "approveDisbursementEther",
      "outputs": [],
      "payable": true,
      "stateMutability": "payable",
      "type": "function"
    },
    {
      "constant": false,
      "inputs": [
        {
          "internalType": "address",
          "name": "_trader",
          "type": "address"
        },
        {
          "internalType": "uint32",
          "name": "_disbursementId",
          "type": "uint32"
        },
        {
          "internalType": "address",
          "name": "_token",
          "type": "address"
        },
        {
          "internalType": "uint256",
          "name": "_amount",
          "type": "uint256"
        }
      ],
      "name": "approveDisbursementToken",
      "outputs": [],
      "payable": false,
      "stateMutability": "nonpayable",
      "type": "function"
    },
    {
      "constant": false,
      "inputs": [
        {
          "internalType": "uint32",
          "name": "_disbursementId",
          "type": "uint32"
        }
      ],
      "name": "deleteDisbursement",
      "outputs": [],
      "payable": false,
      "stateMutability": "nonpayable",
      "type": "function"
    },
    {
      "constant": false,
      "inputs": [
        {
          "internalType": "address",
          "name": "_trader",
          "type": "address"
        },
        {
          "internalType": "uint256",
          "name": "_investmentId",
          "type": "uint256"
        },
        {
          "internalType": "uint256",
          "name": "_value",
          "type": "uint256"
        }
      ],
      "name": "disburseEther",
      "outputs": [],
      "payable": true,
      "stateMutability": "payable",
      "type": "function"
    },
    {
      "constant": false,
      "inputs": [
        {
          "internalType": "address",
          "name": "_trader",
          "type": "address"
        },
        {
          "internalType": "uint256",
          "name": "_investmentId",
          "type": "uint256"
        },
        {
          "internalType": "address",
          "name": "_token",
          "type": "address"
        },
        {
          "internalType": "uint256",
          "name": "_value",
          "type": "uint256"
        },
        {
          "internalType": "uint256",
          "name": "_amount",
          "type": "uint256"
        }
      ],
      "name": "disburseToken",
      "outputs": [],
      "payable": false,
      "stateMutability": "nonpayable",
      "type": "function"
    },
    {
      "constant": true,
      "inputs": [],
      "name": "etherBalance",
      "outputs": [
        {
          "internalType": "uint256",
          "name": "",
          "type": "uint256"
        }
      ],
      "payable": false,
      "stateMutability": "view",
      "type": "function"
    },
    {
      "constant": true,
      "inputs": [],
      "name": "fund",
      "outputs": [
        {
          "internalType": "address",
          "name": "",
          "type": "address"
        }
      ],
      "payable": false,
      "stateMutability": "view",
      "type": "function"
    },
    {
      "constant": false,
      "inputs": [
        {
          "internalType": "address",
          "name": "_trader",
          "type": "address"
        }
      ],
      "name": "fundEther",
      "outputs": [],
      "payable": true,
      "stateMutability": "payable",
      "type": "function"
    },
    {
      "constant": false,
      "inputs": [
        {
          "internalType": "address",
          "name": "_trader",
          "type": "address"
        },
        {
          "internalType": "address",
          "name": "_token",
          "type": "address"
        },
        {
          "internalType": "uint256",
          "name": "_amount",
          "type": "uint256"
        }
      ],
      "name": "fundToken",
      "outputs": [],
      "payable": false,
      "stateMutability": "nonpayable",
      "type": "function"
    },
    {
      "constant": true,
      "inputs": [],
      "name": "getPendingDisbursements",
      "outputs": [
        {
          "internalType": "uint32[]",
          "name": "",
          "type": "uint32[]"
        }
      ],
      "payable": false,
      "stateMutability": "view",
      "type": "function"
    },
    {
      "constant": true,
      "inputs": [],
      "name": "investor",
      "outputs": [
        {
          "internalType": "address",
          "name": "",
          "type": "address"
        }
      ],
      "payable": false,
      "stateMutability": "view",
      "type": "function"
    },
    {
      "constant": false,
      "inputs": [
        {
          "internalType": "address",
          "name": "_admin",
          "type": "address"
        }
      ],
      "name": "replaceAdmin",
      "outputs": [],
      "payable": false,
      "stateMutability": "nonpayable",
      "type": "function"
    },
    {
      "constant": false,
      "inputs": [
        {
          "internalType": "address",
          "name": "_trader",
          "type": "address"
        },
        {
          "internalType": "bool",
          "name": "_active",
          "type": "bool"
        }
      ],
      "name": "setTrader",
      "outputs": [],
      "payable": false,
      "stateMutability": "nonpayable",
      "type": "function"
    },
    {
      "constant": true,
      "inputs": [
        {
          "internalType": "address",
          "name": "_token",
          "type": "address"
        }
      ],
      "name": "tokenBalance",
      "outputs": [
        {
          "internalType": "uint256",
          "name": "",
          "type": "uint256"
        }
      ],
      "payable": false,
      "stateMutability": "view",
      "type": "function"
    },
    {
      "constant": true,
      "inputs": [
        {
          "internalType": "address",
          "name": "",
          "type": "address"
        }
      ],
      "name": "traders",
      "outputs": [
        {
          "internalType": "bool",
          "name": "",
          "type": "bool"
        }
      ],
      "payable": false,
      "stateMutability": "view",
      "type": "function"
    }
  ],
  "bytecode": "0x608060405234801561001057600080fd5b50604051611a5c380380611a5c8339818101604052606081101561003357600080fd5b50805160208201516040909201519091906001600160a01b03808416908316148015906100725750806001600160a01b0316836001600160a01b031614155b80156100905750806001600160a01b0316826001600160a01b031614155b80156100a457506001600160a01b03811615155b6100ad57600080fd5b600080546001600160a01b039485166001600160a01b031991821617909155600280549385169382169390931790925560038054919093169116179055611963806100f96000396000f3fe6080604052600436106100f35760003560e01c8063ac5e01f01161008a578063eedc966a11610059578063eedc966a146103bc578063f851a440146103ef578063f9b50ff314610404578063ffad08bb1461042a576100f3565b8063ac5e01f014610300578063ad66e52a1461034d578063b60d428814610374578063c4f4face14610389576100f3565b80635e5dad76116100c65780635e5dad76146102015780636f730652146102315780637ef59d011461027e57806392a88fa2146102b9576100f3565b806307b0d75114610105578063160c4cf6146101395780631e0018d61461019e578063415a73b7146101cf575b3480156100ff57600080fd5b50600080fd5b6101376004803603604081101561011b57600080fd5b5080356001600160a01b0316906020013563ffffffff1661046d565b005b34801561014557600080fd5b5061014e61047e565b60408051602080825283518183015283519192839290830191858101910280838360005b8381101561018a578181015183820152602001610172565b505050509050019250505060405180910390f35b3480156101aa57600080fd5b506101b361054a565b604080516001600160a01b039092168252519081900360200190f35b610137600480360360608110156101e557600080fd5b506001600160a01b038135169060208101359060400135610559565b34801561020d57600080fd5b506101376004803603602081101561022457600080fd5b503563ffffffff1661056d565b34801561023d57600080fd5b50610137600480360360a081101561025457600080fd5b506001600160a01b0381358116916020810135916040820135169060608101359060800135610735565b34801561028a57600080fd5b50610137600480360360408110156102a157600080fd5b506001600160a01b03813516906020013515156107da565b3480156102c557600080fd5b506102ec600480360360208110156102dc57600080fd5b50356001600160a01b03166108a4565b604080519115158252519081900360200190f35b34801561030c57600080fd5b506101376004803603608081101561032357600080fd5b506001600160a01b03813581169163ffffffff6020820135169160408201351690606001356108b9565b34801561035957600080fd5b5061036261095b565b60408051918252519081900360200190f35b34801561038057600080fd5b506101b3610960565b34801561039557600080fd5b50610137600480360360208110156103ac57600080fd5b50356001600160a01b031661096f565b3480156103c857600080fd5b50610362600480360360208110156103df57600080fd5b50356001600160a01b03166109fc565b3480156103fb57600080fd5b506101b3610a78565b6101376004803603602081101561041a57600080fd5b50356001600160a01b0316610a87565b34801561043657600080fd5b506101376004803603606081101561044d57600080fd5b506001600160a01b03813581169160208101359091169060400135610a94565b61047a8282600034610a9f565b5050565b6002546060906001600160a01b03163314806104a457506003546001600160a01b031633145b806104be57503360009081526001602052604090205460ff165b6104c757600080fd5b600780548060200260200160405190810160405280929190818152602001828054801561053f57602002820191906000526020600020906000905b82829054906101000a900463ffffffff1663ffffffff16815260200190600401906020826003010492830192600103820291508084116105025790505b505050505090505b90565b6002546001600160a01b031681565b61056883338460008534610bf9565b505050565b6002546001600160a01b031633148061059057506003546001600160a01b031633145b806105aa57503360009081526001602052604090205460ff165b6105b357600080fd5b6000805b60075463ffffffff821610156106b3578160ff166001141561065a5760078163ffffffff16815481106105e657fe5b90600052602060002090600891828204019190066004029054906101000a900463ffffffff1660076001830363ffffffff168154811061062257fe5b90600052602060002090600891828204019190066004026101000a81548163ffffffff021916908363ffffffff1602179055506106ab565b60078163ffffffff168154811061066d57fe5b90600052602060002090600891828204019190066004029054906101000a900463ffffffff1663ffffffff168363ffffffff1614156106ab57600191505b6001016105b7565b506007805460001981019081106106c657fe5b600091825260209091206008820401805463ffffffff60046007948516026101000a02191690558054906106fe90600019830161189e565b505063ffffffff16600090815260066020526040812080546001600160a01b03199081168255600182018054909116905560020155565b80156107c557604080516323b872dd60e01b81523360048201523060248201526044810183905290516001600160a01b038516916323b872dd9160648083019260209291908290030181600087803b15801561079057600080fd5b505af11580156107a4573d6000803e3d6000fd5b505050506040513d60208110156107ba57600080fd5b50516107c557600080fd5b6107d3853386868686610bf9565b5050505050565b6002546001600160a01b031633146107f157600080fd5b6002546001600160a01b0383811691161480159061081d57506003546001600160a01b03838116911614155b801561083757506000546001600160a01b03838116911614155b61084057600080fd5b6001600160a01b038216600081815260016020908152604091829020805460ff191685151590811790915582519384529083015280517f1a3544092dc1db93ff00d7694d763de72c72c66ca489a6c62593aba947a087ed9281900390910190a15050565b60016020526000908152604090205460ff1681565b801561094957604080516323b872dd60e01b81523360048201523060248201526044810183905290516001600160a01b038416916323b872dd9160648083019260209291908290030181600087803b15801561091457600080fd5b505af1158015610928573d6000803e3d6000fd5b505050506040513d602081101561093e57600080fd5b505161094957600080fd5b61095584848484610a9f565b50505050565b303190565b6000546001600160a01b031681565b6003546001600160a01b0316331461098657600080fd5b6001600160a01b038116158015906109ac57506002546001600160a01b03828116911614155b80156109d157506001600160a01b03811660009081526001602052604090205460ff16155b6109da57600080fd5b600380546001600160a01b0319166001600160a01b0392909216919091179055565b604080516370a0823160e01b815230600482015290516000916001600160a01b038416916370a0823191602480820192602092909190829003018186803b158015610a4657600080fd5b505afa158015610a5a573d6000803e3d6000fd5b505050506040513d6020811015610a7057600080fd5b505192915050565b6003546001600160a01b031681565b610a918134610f1e565b50565b6105688383836110a2565b6002546001600160a01b0316331480610ac257506003546001600160a01b031633145b80610adc57503360009081526001602052604090205460ff165b610ae557600080fd5b6001600160a01b038416600090815260016020526040902054849060ff16610b0c57600080fd5b8484610b1882826112d3565b610b2157600080fd5b610b296118d2565b5063ffffffff8616600090815260066020908152604091829020825160608101845281546001600160a01b039081168252600183015416928101929092526002015491810191909152610b7e88888888611376565b60208082015160408084015181516001600160a01b03909316835233938301939093528181019290925263ffffffff8916606082015242608082015290517f587e27ac9fad1ca4409b109943c810a6efb15dde2c444e4983831342fc7f1b7a9181900360a00190a1610bef8761056d565b5050505050505050565b6002546001600160a01b0316331480610c2157503360009081526001602052604090205460ff165b610c2a57600080fd5b6001600160a01b038616600090815260016020526040902054869060ff16610c5157600080fd5b6002546001600160a01b0387811691161415610ce85760008054600254604080516302ea5cad60e31b81526001600160a01b038c811660048301529283166024820152604481018a90526064810188905290519190921692631752e568926084808201939182900301818387803b158015610ccb57600080fd5b505af1158015610cdf573d6000803e3d6000fd5b50505050610d81565b336001600160a01b03881614610cfd57600080fd5b600080546002546040805163468bdb2360e01b81526001600160a01b038c811660048301529283166024820152604481018a905260648101889052608481018790529051919092169263468bdb239260a4808201939182900301818387803b158015610d6857600080fd5b505af1158015610d7c573d6000803e3d6000fd5b505050505b8115610de4576001600160a01b03808816600090815260046020908152604080832093881683529290522054610dbd908363ffffffff61155916565b6001600160a01b038089166000908152600460209081526040808320938916835292905220555b6005805463ffffffff198116600163ffffffff92831690810190921617909155610e0c6118d2565b6001600160a01b03808a16808352898216602080850182815260408087018d815263ffffffff808a166000818152600687528481208b518154908c166001600160a01b031991821617825596516001808301805492909d169190981617909a55925160029099019890985560078054948501815591829052600884047fa66cc928b5edb82af9bd49922954155ab7b0942694bea4ce44661d9a8736c688018054600495909316949094026101000a808902910219909116179091558051938452908301919091528181018a9052606082019290925242608082015290517f7303f605398a0bdcb13273d3359ed0295f455759408ba7bdc968a176a74e17c59181900360a00190a1505050505050505050565b6002546001600160a01b03163314610f3557600080fd5b6001600160a01b038216600090815260016020526040902054829060ff16610f5c57600080fd5b6000805460025460408051630c4b6f2960e11b81526001600160a01b0388811660048301529283166024820152604481018590526064810187905290519190921691631896de5291608480830192602092919082900301818787803b158015610fc457600080fd5b505af1158015610fd8573d6000803e3d6000fd5b505050506040513d6020811015610fee57600080fd5b50516001600160a01b0385166000908152600460209081526040808320838052909152902054909150611027908463ffffffff61155916565b6001600160a01b0385166000818152600460209081526040808320838052825280832094909455835192835233908301528183018490526060820152608081018590524260a082015290517f8d543feb7ab204eb3d3c58cdc5b330052056bbabbdc1b1fddd51049ac954712c9181900360c00190a150505050565b6002546001600160a01b031633146110b957600080fd5b6001600160a01b038316600090815260016020526040902054839060ff166110e057600080fd5b6001600160a01b0383166110f357600080fd5b604080516323b872dd60e01b81523360048201523060248201526044810184905290516001600160a01b038516916323b872dd9160648083019260209291908290030181600087803b15801561114857600080fd5b505af115801561115c573d6000803e3d6000fd5b505050506040513d602081101561117257600080fd5b505161117d57600080fd5b6000805460025460408051630c4b6f2960e11b81526001600160a01b038981166004830152928316602482015287831660448201526064810187905290519190921691631896de5291608480830192602092919082900301818787803b1580156111e657600080fd5b505af11580156111fa573d6000803e3d6000fd5b505050506040513d602081101561121057600080fd5b50516001600160a01b0380871660009081526004602090815260408083209389168352929052205490915061124b908463ffffffff61155916565b6001600160a01b038087166000818152600460209081526040808320948a168084529482529182902094909455805191825233938201939093528083018490526060810191909152608081018590524260a082015290517f8d543feb7ab204eb3d3c58cdc5b330052056bbabbdc1b1fddd51049ac954712c9181900360c00190a15050505050565b63ffffffff8116600090815260066020526040812080546001600160a01b0385811691161461130157600080fd5b60018101546001600160a01b031661131d576000915050611370565b60018101546001600160a01b031633141561133c576000915050611370565b3360009081526001602052604090205460ff161561136a5780546001600160a01b0316331461136a57600080fd5b60019150505b92915050565b63ffffffff831660009081526006602052604090206113936118f2565b6000805460028054908501546040805163a57a71b760e01b81526001600160a01b038c811660048301529384166024820152604481019290925288831660648301526084820188905251919092169263a57a71b79260a480820193606093909283900390910190829087803b15801561140b57600080fd5b505af115801561141f573d6000803e3d6000fd5b505050506040513d601f19601f82011682018060405250606081101561144457600080fd5b50905082156114aa576001600160a01b03808716600090815260046020908152604080832093881683529290522054611483908463ffffffff61155916565b6001600160a01b038088166000908152600460209081526040808320938916835292905220555b6001600160a01b0384166115055780516114c6908790816115ba565b6114e38682600160200201516002546001600160a01b03166115ba565b6115008682600260200201516003546001600160a01b03166115ba565b611551565b805161151590879086908261169b565b611533868583600160200201516002546001600160a01b031661169b565b611551868583600260200201516003546001600160a01b031661169b565b505050505050565b6000828201838110156115b3576040805162461bcd60e51b815260206004820152601b60248201527f536166654d6174683a206164646974696f6e206f766572666c6f770000000000604482015290519081900360640190fd5b9392505050565b8115610568576001600160a01b038316600090815260046020908152604080832083805290915290205481906115f6908463ffffffff6117ca16565b6001600160a01b0380861660009081526004602090815260408083208380529091528082209390935591519083169185156108fc02918691818181858888f1935050505015801561164b573d6000803e3d6000fd5b506040805160008152602081018590526001600160a01b0383168183015290517f1be0a78bb08f226c98376fe01c6b0037104329761c8799e7d9f3ba5599c9eba79181900360600190a150505050565b8115610955576001600160a01b038085166000908152600460209081526040808320938716835292905220546116d7908363ffffffff6117ca16565b6001600160a01b03808616600090815260046020818152604080842089861680865290835281852096909655805163a9059cbb60e01b81529487169285019290925260248401879052905163a9059cbb93604480820194918390030190829087803b15801561174557600080fd5b505af1158015611759573d6000803e3d6000fd5b505050506040513d602081101561176f57600080fd5b505161177a57600080fd5b604080516001600160a01b0380861682526020820185905283168183015290517f1be0a78bb08f226c98376fe01c6b0037104329761c8799e7d9f3ba5599c9eba79181900360600190a150505050565b60006115b383836040518060400160405280601e81526020017f536166654d6174683a207375627472616374696f6e206f766572666c6f770000815250600081848411156118965760405162461bcd60e51b81526004018080602001828103825283818151815260200191508051906020019080838360005b8381101561185b578181015183820152602001611843565b50505050905090810190601f1680156118885780820380516001836020036101000a031916815260200191505b509250505060405180910390fd5b505050900390565b8154818355818111156105685760070160089004816007016008900483600052602060002091820191016105689190611910565b604080516060810182526000808252602082018190529181019190915290565b60405180606001604052806003906020820280388339509192915050565b61054791905b8082111561192a5760008155600101611916565b509056fea265627a7a72315820e7fefbf73b8c8a538fa49b467399d4dad87cf9b10fea379eeb692a0bb100474f64736f6c63430005110032",
  "compiler": {
    "name": "solc",
    "version": "0.5.17+commit.d19bba13.Emscripten.clang",
    "optimizer": {
      "enabled": true,
      "runs": 200
    },
    "evmVersion": "petersburg"
  }
}