{
  "fileName": "MultiSigFundWallet.sol",
  "contractName": "MultiSigFundWallet",
  "source": "// \"SPDX-License-Identifier: UNLICENSED\"\npragma solidity >=0.4.21 <0.7.0;\n\nimport \"@openzeppelin/contracts-ethereum-package/contracts/token/ERC20/IERC20.sol\";\n\nimport \"./TraderPaired.sol\";\n\ncontract MultiSigFundWallet {\n\n    address constant ETHER = address(0); // allows storage of ether in blank address in token mapping\n\n    address public fund;\n\n    address public trader;\n    address public investor;\n    address public admin;\n\n    uint32 private disbursementIdx;\n\n    mapping (uint32 => Disbursement) private disbursements;\n    uint32[] private pendingDisbursements;\n\n    event Fund(address trader, address investor, uint256 investmentId, address token, uint256 amount, uint256 date);\n    event DisbursementCreated(address initiator, uint256 investmentId, uint32 disbursementId, uint256 date);\n    event DisbursementCompleted(address initiator, address signedBy, uint256 investmentId, uint32 disbursementId, uint256 date);\n    event Payout(address token, uint256 amount, address to);\n\n    struct Disbursement {\n        address initiator;\n        uint256 investmentId;\n    }\n\n    modifier isAdmin() {\n        require(msg.sender == admin);\n        _;\n    }\n\n    modifier isInvestor() {\n        require(msg.sender == investor);\n        _;\n    }\n\n    modifier validOwner() {\n        require(msg.sender == trader || msg.sender == investor || msg.sender == admin);\n        _;\n    }\n\n    modifier validSignature(uint32 disbursementId) {\n        require(_validateSignature(disbursementId));\n        _;\n    }\n\n    // @dev reverts if ether is sent directly\n    function () external {\n        revert();\n    }\n\n    constructor (address _fund, address _trader, address _investor, address _admin)\n        public\n    {\n        require (_fund != address(0));\n\n        // all are unique and non-zero\n        require (_trader != _investor && _trader != _admin && _investor != _admin && _admin != address(0));\n\n        fund = _fund;\n        trader = _trader;\n        investor = _investor;\n        admin = _admin;\n    }\n\n    function replaceAdmin(address _admin) \n        external\n        isAdmin\n    {\n        admin = _admin;\n    }\n\n    function fundEther() \n        payable \n        external\n        isInvestor\n    {\n        uint256 investmentId = TraderPaired(fund).invest(trader, investor, ETHER, msg.value);\n        emit Fund(trader, msg.sender, investmentId, ETHER, msg.value, now);\n    }\n\n    function fundToken(address _token, uint256 _amount)\n        external \n        isInvestor\n    {\n        require(_token != ETHER);\n        require(IERC20(_token).transferFrom(msg.sender, address(this), _amount));\n        uint256 investmentId = TraderPaired(fund).invest(trader, investor, _token, _amount);\n        emit Fund(trader, msg.sender, investmentId, _token, _amount, now);\n    }\n\n    function disburseEther(uint256 _investmentId, uint256 _value)\n        external \n    {\n        _disburse(msg.sender, _investmentId, ETHER, _value);\n    }\n\n    function disburseToken(uint256 _investmentId, address _token, uint256 _value)\n        external \n    {\n        _disburse(msg.sender, _investmentId, _token, _value);\n    }\n\n    function _disburse(address _initiator, uint256 _investmentId, address _token, uint256 _value)\n        internal \n        validOwner\n    {\n        TraderPaired(fund).requestExit(trader, investor, _investmentId, _value);\n\n        uint32 _disbursementId = disbursementIdx++;\n\n        Disbursement memory _disbursement;\n        _disbursement.initiator = _initiator;\n        _disbursement.investmentId = _investmentId;\n\n        disbursements[_disbursementId] = _disbursement;\n        pendingDisbursements.push(_disbursementId);\n\n        emit DisbursementCreated(_initiator, _investmentId, _disbursementId, now);\n    }\n\n    function getPendingDisbursements()\n      external\n      view\n      validOwner\n      returns (uint32[] memory) \n    {\n        return pendingDisbursements;\n    }\n\n    function approveDisbursementEther(uint32 _disbursementId)\n      external\n      payable \n    {\n        _approveDisbursement(_disbursementId, ETHER, msg.value);\n    }\n\n    function approveDisbursementToken(uint32 _disbursementId, address _token, uint256 _amount)\n      external\n    {\n        require(IERC20(_token).transferFrom(msg.sender, address(this), _amount));\n\n        _approveDisbursement(_disbursementId, _token, _amount);\n    }\n\n    function _approveDisbursement(uint32 _disbursementId, address _token, uint256 _amount)\n      internal\n      validOwner\n      validSignature(_disbursementId)\n    {\n        Disbursement memory _disbursement = disbursements[_disbursementId];\n        _executeDisbursement(_disbursementId, _token, _amount);\n        emit DisbursementCompleted(_disbursement.initiator, msg.sender, _disbursement.investmentId, _disbursementId, now);\n        _deleteDisbursement(_disbursementId);\n    }\n\n    function _executeDisbursement(uint32 _disbursementId, address _token, uint256 _amount) \n        internal \n    {\n        Disbursement storage _disbursement = disbursements[_disbursementId];\n        uint256[3] memory _payouts = TraderPaired(fund).approveExit(trader, investor, _disbursement.investmentId, _token, _amount);\n\n        if (_token == ETHER) {\n            _payoutEther(_payouts[0], trader);\n            _payoutEther(_payouts[1], investor);\n            _payoutEther(_payouts[2], admin);\n            \n        } else {\n            _payoutToken(_token, _payouts[0], trader);\n            _payoutToken(_token, _payouts[1], investor);\n            _payoutToken(_token, _payouts[2], admin);\n        }\n    }\n\n    function _payoutEther(uint256 _amount, address _to) \n        internal\n    {\n        if (_amount > 0) {\n            address payable _toAddress = address(uint160(_to));\n            _toAddress.transfer(_amount);\n            emit Payout(ETHER, _amount, _toAddress);\n        }\n    }\n\n    function _payoutToken(address _token, uint256 _amount, address _to) \n        internal\n    {\n        if (_amount > 0) {\n            require(IERC20(_token).transfer(_to, _amount));\n            emit Payout(_token, _amount, _to);\n        }\n    }\n\n    function _deleteDisbursement(uint32 _disbursementId)\n      public \n      validOwner\n    {\n        uint8 replace = 0;\n        for(uint32 i = 0; i < pendingDisbursements.length; i++) {\n            if (1 == replace) {\n                pendingDisbursements[i-1] = pendingDisbursements[i];\n            } else if (_disbursementId == pendingDisbursements[i]) {\n                replace = 1;\n            }\n        }\n        delete pendingDisbursements[pendingDisbursements.length - 1];\n        pendingDisbursements.length--;\n        delete disbursements[_disbursementId];\n    }\n\n    function _validateSignature(uint32 _disbursementId)\n        internal\n        returns (bool)\n    {\n        Disbursement storage _disbursement = disbursements[_disbursementId];\n\n        // disbursement must exist\n        if(address(0) == _disbursement.initiator) {\n            return false;\n        }\n        // Initiator cannot sign the disbursement\n        if(msg.sender == _disbursement.initiator) {\n            return false;\n        }\n\n        return true;\n    }\n\n    function etherBalance()\n        external\n        view\n        returns (uint256) \n    {\n        return address(this).balance;\n    }\n\n    function tokenBalance(address _token)\n        external\n        view\n        returns (uint256) \n    {\n        return IERC20(_token).balanceOf(address(this));\n    }\n}\n",
  "sourcePath": "contracts/MultiSigFundWallet.sol",
  "abi": [
    {
      "inputs": [
        {
          "internalType": "address",
          "name": "_fund",
          "type": "address"
        },
        {
          "internalType": "address",
          "name": "_trader",
          "type": "address"
        },
        {
          "internalType": "address",
          "name": "_investor",
          "type": "address"
        },
        {
          "internalType": "address",
          "name": "_admin",
          "type": "address"
        }
      ],
      "payable": false,
      "stateMutability": "nonpayable",
      "type": "constructor"
    },
    {
      "anonymous": false,
      "inputs": [
        {
          "indexed": false,
          "internalType": "address",
          "name": "initiator",
          "type": "address"
        },
        {
          "indexed": false,
          "internalType": "address",
          "name": "signedBy",
          "type": "address"
        },
        {
          "indexed": false,
          "internalType": "uint256",
          "name": "investmentId",
          "type": "uint256"
        },
        {
          "indexed": false,
          "internalType": "uint32",
          "name": "disbursementId",
          "type": "uint32"
        },
        {
          "indexed": false,
          "internalType": "uint256",
          "name": "date",
          "type": "uint256"
        }
      ],
      "name": "DisbursementCompleted",
      "type": "event"
    },
    {
      "anonymous": false,
      "inputs": [
        {
          "indexed": false,
          "internalType": "address",
          "name": "initiator",
          "type": "address"
        },
        {
          "indexed": false,
          "internalType": "uint256",
          "name": "investmentId",
          "type": "uint256"
        },
        {
          "indexed": false,
          "internalType": "uint32",
          "name": "disbursementId",
          "type": "uint32"
        },
        {
          "indexed": false,
          "internalType": "uint256",
          "name": "date",
          "type": "uint256"
        }
      ],
      "name": "DisbursementCreated",
      "type": "event"
    },
    {
      "anonymous": false,
      "inputs": [
        {
          "indexed": false,
          "internalType": "address",
          "name": "trader",
          "type": "address"
        },
        {
          "indexed": false,
          "internalType": "address",
          "name": "investor",
          "type": "address"
        },
        {
          "indexed": false,
          "internalType": "uint256",
          "name": "investmentId",
          "type": "uint256"
        },
        {
          "indexed": false,
          "internalType": "address",
          "name": "token",
          "type": "address"
        },
        {
          "indexed": false,
          "internalType": "uint256",
          "name": "amount",
          "type": "uint256"
        },
        {
          "indexed": false,
          "internalType": "uint256",
          "name": "date",
          "type": "uint256"
        }
      ],
      "name": "Fund",
      "type": "event"
    },
    {
      "anonymous": false,
      "inputs": [
        {
          "indexed": false,
          "internalType": "address",
          "name": "token",
          "type": "address"
        },
        {
          "indexed": false,
          "internalType": "uint256",
          "name": "amount",
          "type": "uint256"
        },
        {
          "indexed": false,
          "internalType": "address",
          "name": "to",
          "type": "address"
        }
      ],
      "name": "Payout",
      "type": "event"
    },
    {
      "payable": false,
      "stateMutability": "nonpayable",
      "type": "fallback"
    },
    {
      "constant": false,
      "inputs": [
        {
          "internalType": "uint32",
          "name": "_disbursementId",
          "type": "uint32"
        }
      ],
      "name": "_deleteDisbursement",
      "outputs": [],
      "payable": false,
      "stateMutability": "nonpayable",
      "type": "function"
    },
    {
      "constant": true,
      "inputs": [],
      "name": "admin",
      "outputs": [
        {
          "internalType": "address",
          "name": "",
          "type": "address"
        }
      ],
      "payable": false,
      "stateMutability": "view",
      "type": "function"
    },
    {
      "constant": false,
      "inputs": [
        {
          "internalType": "uint32",
          "name": "_disbursementId",
          "type": "uint32"
        }
      ],
      "name": "approveDisbursementEther",
      "outputs": [],
      "payable": true,
      "stateMutability": "payable",
      "type": "function"
    },
    {
      "constant": false,
      "inputs": [
        {
          "internalType": "uint32",
          "name": "_disbursementId",
          "type": "uint32"
        },
        {
          "internalType": "address",
          "name": "_token",
          "type": "address"
        },
        {
          "internalType": "uint256",
          "name": "_amount",
          "type": "uint256"
        }
      ],
      "name": "approveDisbursementToken",
      "outputs": [],
      "payable": false,
      "stateMutability": "nonpayable",
      "type": "function"
    },
    {
      "constant": false,
      "inputs": [
        {
          "internalType": "uint256",
          "name": "_investmentId",
          "type": "uint256"
        },
        {
          "internalType": "uint256",
          "name": "_value",
          "type": "uint256"
        }
      ],
      "name": "disburseEther",
      "outputs": [],
      "payable": false,
      "stateMutability": "nonpayable",
      "type": "function"
    },
    {
      "constant": false,
      "inputs": [
        {
          "internalType": "uint256",
          "name": "_investmentId",
          "type": "uint256"
        },
        {
          "internalType": "address",
          "name": "_token",
          "type": "address"
        },
        {
          "internalType": "uint256",
          "name": "_value",
          "type": "uint256"
        }
      ],
      "name": "disburseToken",
      "outputs": [],
      "payable": false,
      "stateMutability": "nonpayable",
      "type": "function"
    },
    {
      "constant": true,
      "inputs": [],
      "name": "etherBalance",
      "outputs": [
        {
          "internalType": "uint256",
          "name": "",
          "type": "uint256"
        }
      ],
      "payable": false,
      "stateMutability": "view",
      "type": "function"
    },
    {
      "constant": true,
      "inputs": [],
      "name": "fund",
      "outputs": [
        {
          "internalType": "address",
          "name": "",
          "type": "address"
        }
      ],
      "payable": false,
      "stateMutability": "view",
      "type": "function"
    },
    {
      "constant": false,
      "inputs": [],
      "name": "fundEther",
      "outputs": [],
      "payable": true,
      "stateMutability": "payable",
      "type": "function"
    },
    {
      "constant": false,
      "inputs": [
        {
          "internalType": "address",
          "name": "_token",
          "type": "address"
        },
        {
          "internalType": "uint256",
          "name": "_amount",
          "type": "uint256"
        }
      ],
      "name": "fundToken",
      "outputs": [],
      "payable": false,
      "stateMutability": "nonpayable",
      "type": "function"
    },
    {
      "constant": true,
      "inputs": [],
      "name": "getPendingDisbursements",
      "outputs": [
        {
          "internalType": "uint32[]",
          "name": "",
          "type": "uint32[]"
        }
      ],
      "payable": false,
      "stateMutability": "view",
      "type": "function"
    },
    {
      "constant": true,
      "inputs": [],
      "name": "investor",
      "outputs": [
        {
          "internalType": "address",
          "name": "",
          "type": "address"
        }
      ],
      "payable": false,
      "stateMutability": "view",
      "type": "function"
    },
    {
      "constant": false,
      "inputs": [
        {
          "internalType": "address",
          "name": "_admin",
          "type": "address"
        }
      ],
      "name": "replaceAdmin",
      "outputs": [],
      "payable": false,
      "stateMutability": "nonpayable",
      "type": "function"
    },
    {
      "constant": true,
      "inputs": [
        {
          "internalType": "address",
          "name": "_token",
          "type": "address"
        }
      ],
      "name": "tokenBalance",
      "outputs": [
        {
          "internalType": "uint256",
          "name": "",
          "type": "uint256"
        }
      ],
      "payable": false,
      "stateMutability": "view",
      "type": "function"
    },
    {
      "constant": true,
      "inputs": [],
      "name": "trader",
      "outputs": [
        {
          "internalType": "address",
          "name": "",
          "type": "address"
        }
      ],
      "payable": false,
      "stateMutability": "view",
      "type": "function"
    }
  ],
  "bytecode": "0x608060405234801561001057600080fd5b506040516112d13803806112d18339818101604052608081101561003357600080fd5b50805160208201516040830151606090930151919290916001600160a01b03841661005d57600080fd5b816001600160a01b0316836001600160a01b0316141580156100915750806001600160a01b0316836001600160a01b031614155b80156100af5750806001600160a01b0316826001600160a01b031614155b80156100c357506001600160a01b03811615155b6100cc57600080fd5b600080546001600160a01b039586166001600160a01b03199182161790915560018054948616948216949094179093556002805492851692841692909217909155600380549190931691161790556111a8806101296000396000f3fe6080604052600436106100e85760003560e01c80639df9618f1161008a578063d411b8b511610059578063d411b8b51461031d578063eedc966a14610356578063f677601914610389578063f851a44014610391576100e8565b80639df9618f1461027e578063ad66e52a146102ae578063b60d4288146102d5578063c4f4face146102ea576100e8565b80632bf24c4b116100c65780632bf24c4b146101a55780633872dbe9146101ec5780633dd4d4bf1461021c5780638204869a1461025b576100e8565b8063160c4cf6146100fa5780631758078b1461015f5780631e0018d614610190575b3480156100f457600080fd5b50600080fd5b34801561010657600080fd5b5061010f6103a6565b60408051602080825283518183015283519192839290830191858101910280838360005b8381101561014b578181015183820152602001610133565b505050509050019250505060405180910390f35b34801561016b57600080fd5b5061017461046d565b604080516001600160a01b039092168252519081900360200190f35b34801561019c57600080fd5b5061017461047c565b3480156101b157600080fd5b506101ea600480360360608110156101c857600080fd5b5063ffffffff813516906001600160a01b03602082013516906040013561048b565b005b3480156101f857600080fd5b506101ea6004803603604081101561020f57600080fd5b5080359060200135610525565b34801561022857600080fd5b506101ea6004803603606081101561023f57600080fd5b508035906001600160a01b036020820135169060400135610536565b6101ea6004803603602081101561027157600080fd5b503563ffffffff16610542565b34801561028a57600080fd5b506101ea600480360360208110156102a157600080fd5b503563ffffffff16610551565b3480156102ba57600080fd5b506102c361070c565b60408051918252519081900360200190f35b3480156102e157600080fd5b50610174610711565b3480156102f657600080fd5b506101ea6004803603602081101561030d57600080fd5b50356001600160a01b0316610720565b34801561032957600080fd5b506101ea6004803603604081101561034057600080fd5b506001600160a01b038135169060200135610759565b34801561036257600080fd5b506102c36004803603602081101561037957600080fd5b50356001600160a01b031661090d565b6101ea61098b565b34801561039d57600080fd5b50610174610a9c565b6001546060906001600160a01b03163314806103cc57506002546001600160a01b031633145b806103e157506003546001600160a01b031633145b6103ea57600080fd5b600580548060200260200160405190810160405280929190818152602001828054801561046257602002820191906000526020600020906000905b82829054906101000a900463ffffffff1663ffffffff16815260200190600401906020826003010492830192600103820291508084116104255790505b505050505090505b90565b6001546001600160a01b031681565b6002546001600160a01b031681565b604080516323b872dd60e01b81523360048201523060248201526044810183905290516001600160a01b038416916323b872dd9160648083019260209291908290030181600087803b1580156104e057600080fd5b505af11580156104f4573d6000803e3d6000fd5b505050506040513d602081101561050a57600080fd5b505161051557600080fd5b610520838383610aab565b505050565b6105323383600084610bbb565b5050565b61052033848484610bbb565b61054e81600034610aab565b50565b6001546001600160a01b031633148061057457506002546001600160a01b031633145b8061058957506003546001600160a01b031633145b61059257600080fd5b6000805b60055463ffffffff82161015610692578160ff16600114156106395760058163ffffffff16815481106105c557fe5b90600052602060002090600891828204019190066004029054906101000a900463ffffffff1660056001830363ffffffff168154811061060157fe5b90600052602060002090600891828204019190066004026101000a81548163ffffffff021916908363ffffffff16021790555061068a565b60058163ffffffff168154811061064c57fe5b90600052602060002090600891828204019190066004029054906101000a900463ffffffff1663ffffffff168363ffffffff16141561068a57600191505b600101610596565b506005805460001981019081106106a557fe5b90600052602060002090600891828204019190066004026101000a81549063ffffffff021916905560058054809190600190036106e291906110ec565b505063ffffffff16600090815260046020526040812080546001600160a01b031916815560010155565b303190565b6000546001600160a01b031681565b6003546001600160a01b0316331461073757600080fd5b600380546001600160a01b0319166001600160a01b0392909216919091179055565b6002546001600160a01b0316331461077057600080fd5b6001600160a01b03821661078357600080fd5b604080516323b872dd60e01b81523360048201523060248201526044810183905290516001600160a01b038416916323b872dd9160648083019260209291908290030181600087803b1580156107d857600080fd5b505af11580156107ec573d6000803e3d6000fd5b505050506040513d602081101561080257600080fd5b505161080d57600080fd5b6000805460015460025460408051630c4b6f2960e11b81526001600160a01b0393841660048201529183166024830152868316604483015260648201869052519190921691631896de5291608480830192602092919082900301818787803b15801561087857600080fd5b505af115801561088c573d6000803e3d6000fd5b505050506040513d60208110156108a257600080fd5b5051600154604080516001600160a01b0392831681523360208201528082018490529186166060830152608082018590524260a0830152519192507f8d543feb7ab204eb3d3c58cdc5b330052056bbabbdc1b1fddd51049ac954712c919081900360c00190a1505050565b604080516370a0823160e01b815230600482015290516000916001600160a01b038416916370a0823191602480820192602092909190829003018186803b15801561095757600080fd5b505afa15801561096b573d6000803e3d6000fd5b505050506040513d602081101561098157600080fd5b505190505b919050565b6002546001600160a01b031633146109a257600080fd5b6000805460015460025460408051630c4b6f2960e11b81526001600160a01b039384166004820152918316602483015260448201859052346064830152519190921691631896de5291608480830192602092919082900301818787803b158015610a0b57600080fd5b505af1158015610a1f573d6000803e3d6000fd5b505050506040513d6020811015610a3557600080fd5b5051600154604080516001600160a01b039092168252336020830152818101839052600060608301523460808301524260a0830152519192507f8d543feb7ab204eb3d3c58cdc5b330052056bbabbdc1b1fddd51049ac954712c919081900360c00190a150565b6003546001600160a01b031681565b6001546001600160a01b0316331480610ace57506002546001600160a01b031633145b80610ae357506003546001600160a01b031633145b610aec57600080fd5b82610af681610d9b565b610aff57600080fd5b610b07611120565b5063ffffffff8416600090815260046020908152604091829020825180840190935280546001600160a01b031683526001015490820152610b49858585610dee565b8051602080830151604080516001600160a01b03909416845233928401929092528282015263ffffffff87166060830152426080830152517f587e27ac9fad1ca4409b109943c810a6efb15dde2c444e4983831342fc7f1b7a9181900360a00190a1610bb485610551565b5050505050565b6001546001600160a01b0316331480610bde57506002546001600160a01b031633145b80610bf357506003546001600160a01b031633145b610bfc57600080fd5b6000805460015460025460408051634d69d7a360e01b81526001600160a01b03938416600482015291831660248301526044820188905260648201869052519190921692634d69d7a3926084808201939182900301818387803b158015610c6257600080fd5b505af1158015610c76573d6000803e3d6000fd5b50506003805463ffffffff60a01b198116600160a01b9182900463ffffffff90811660018101909116909202179091559150610cb29050611120565b6001600160a01b03808716808352602080840188815263ffffffff8087166000818152600480865260408083208a5181549a166001600160a01b0319909a169990991789559451600198890155600580549889018155909152600887047f036b6384b5eca791c62761152d0c79bb0604c104a5fb6f4eb0703f3154bb3db001805460079098169091026101000a8083029302199096169190911790945580519283529082018890528181019290925242606082015290517f13d685a6493cbaead91779cdce8bc57b265083d70991296ffa975125288e865f9181900360800190a1505050505050565b63ffffffff8116600090815260046020526040812080546001600160a01b0316610dc9576000915050610986565b80546001600160a01b0316331415610de5576000915050610986565b50600192915050565b63ffffffff83166000908152600460205260409020610e0b611137565b6000805460018054600254918601546040805163a57a71b760e01b81526001600160a01b039384166004820152938316602485015260448401919091528882166064840152608483018890525192169263a57a71b79260a4808401936060939083900390910190829087803b158015610e8357600080fd5b505af1158015610e97573d6000803e3d6000fd5b505050506040513d601f19601f820116820180604052506060811015610ebc57600080fd5b5090506001600160a01b038416610f22578051600154610ee591906001600160a01b0316610f75565b610f0181600160200201516002546001600160a01b0316610f75565b610f1d81600260200201516003546001600160a01b0316610f75565b610bb4565b8051600154610f3b9186916001600160a01b0316611002565b610f588482600160200201516002546001600160a01b0316611002565b610bb48482600260200201516003546001600160a01b0316611002565b81156105325760405181906001600160a01b0382169084156108fc029085906000818181858888f19350505050158015610fb3573d6000803e3d6000fd5b506040805160008152602081018590526001600160a01b0383168183015290517f1be0a78bb08f226c98376fe01c6b0037104329761c8799e7d9f3ba5599c9eba79181900360600190a1505050565b811561052057826001600160a01b031663a9059cbb82846040518363ffffffff1660e01b815260040180836001600160a01b03166001600160a01b0316815260200182815260200192505050602060405180830381600087803b15801561106857600080fd5b505af115801561107c573d6000803e3d6000fd5b505050506040513d602081101561109257600080fd5b505161109d57600080fd5b604080516001600160a01b0380861682526020820185905283168183015290517f1be0a78bb08f226c98376fe01c6b0037104329761c8799e7d9f3ba5599c9eba79181900360600190a1505050565b8154818355818111156105205760070160089004816007016008900483600052602060002091820191016105209190611155565b604080518082019091526000808252602082015290565b60405180606001604052806003906020820280388339509192915050565b61046a91905b8082111561116f576000815560010161115b565b509056fea265627a7a723158208537817a6035e1b3054e653110500487ab4842eac4f4808251849539f7d8f29c64736f6c63430005110032",
  "compiler": {
    "name": "solc",
    "version": "0.5.17+commit.d19bba13.Emscripten.clang",
    "optimizer": {
      "enabled": true,
      "runs": 200
    },
    "evmVersion": "petersburg"
  }
}