{
  "fileName": "MultiSigFundWallet.sol",
  "contractName": "MultiSigFundWallet",
  "source": "// \"SPDX-License-Identifier: UNLICENSED\"\npragma solidity >=0.4.21 <0.7.0;\n\nimport \"@openzeppelin/contracts-ethereum-package/contracts/math/SafeMath.sol\";\nimport \"@openzeppelin/contracts-ethereum-package/contracts/token/ERC20/IERC20.sol\";\n\nimport \"./TraderPaired.sol\";\n\ncontract MultiSigFundWallet {\n    using SafeMath for uint256;\n\n    address constant ETHER = address(0); // allows storage of ether in blank address in token mapping\n\n    uint8 constant MAX_TOKENS = 20;\n\n    address public fund;\n\n    mapping (address => bool) public traders;\n    address public investor;\n    address public admin;\n\n    mapping (address => mapping (address => uint256)) balances;\n\n    uint32 private disbursementIdx;\n\n    mapping (uint32 => Disbursement) private disbursements;\n    uint32[] private pendingDisbursements;\n\n    event SetTrader(address trader, bool active);\n    event Fund(address trader, address investor, uint256 investmentId, address token, uint256 amount, uint256 date);\n    event Stopped(address trader, address initiator, uint256 investmentId, uint256 date);\n    event DisbursementCreated(address trader, address initiator, uint256 investmentId, uint32 disbursementId, uint256 date);\n    event DisbursementCompleted(address initiator, address signedBy, uint256 investmentId, uint32 disbursementId, uint256 date);\n    event Payout(address token, uint256 amount, address to);\n\n    struct Disbursement {\n        address trader;\n        address initiator;\n        uint256 investmentId;\n    }\n\n    modifier isAdmin() {\n        require(msg.sender == admin);\n        _;\n    }\n\n    modifier isInvestor() {\n        require(msg.sender == investor);\n        _;\n    }\n\n    modifier isTrader(address _trader) {\n        require(traders[_trader]);\n        _;\n    }\n\n    modifier isNotTrader(address _trader) {\n        require(!traders[_trader]);\n        _;\n    }\n\n    modifier traderOrInvestor(address _trader) {\n        require(msg.sender == investor || (traders[msg.sender] && msg.sender == _trader));\n        _;\n    }\n\n    modifier validOwner() {\n        require(msg.sender == investor || msg.sender == admin || traders[msg.sender]);\n        _;\n    }\n\n    modifier validSignature(address trader, uint32 disbursementId) {\n        require(_validateSignature(trader, disbursementId));\n        _;\n    }\n\n    // @dev reverts if ether is sent directly\n    function () external {\n        revert();\n    }\n\n    constructor (address _fund, address _investor, address _admin)\n        public\n    {\n        // all are unique and non-zero\n        require (_fund != _investor && _fund != _admin && _investor != _admin && _admin != address(0));\n\n        fund = _fund;\n        investor = _investor;\n        admin = _admin;\n    }\n\n    function setTrader(address _trader, bool _active) \n        external\n        isInvestor\n    {\n        // TODO: only deactivate on zero balances\n        require (_trader != investor && _trader != admin && _trader != fund);\n\n        traders[_trader] = _active;\n        emit SetTrader(_trader, _active);\n    }\n\n    function replaceAdmin(address _admin) \n        external\n        isAdmin\n    {\n        require (_admin != address(0) && _admin != investor && !traders[_admin]);\n        admin = _admin;\n    }\n\n    function fundEther(address _trader) \n        external \n        payable\n    {\n        _fundEther(_trader, msg.value);\n    }\n\n    function fundToken(address _trader, address _token, uint256 _amount)\n        external \n    {\n        _fundToken(_trader, _token, _amount);\n    }\n\n    function _fundEther(address _trader, uint256 _amount) \n        internal\n        isInvestor\n        isTrader(_trader)\n    {\n        uint256 investmentId = TraderPaired(fund).invest(_trader, investor, ETHER, _amount);\n        balances[_trader][ETHER] = balances[_trader][ETHER].add(_amount);\n        emit Fund(_trader, msg.sender, investmentId, ETHER, _amount, now);\n    }\n\n    function _fundToken(address _trader, address _token, uint256 _amount)\n        internal \n        isInvestor\n        isTrader(_trader)\n    {\n        require(_token != ETHER);\n        require(IERC20(_token).transferFrom(msg.sender, address(this), _amount));\n        uint256 investmentId = TraderPaired(fund).invest(_trader, investor, _token, _amount);\n        balances[_trader][_token] = balances[_trader][_token].add(_amount);\n        emit Fund(_trader, msg.sender, investmentId, _token, _amount, now);\n    }\n\n    function stop(address _trader, uint256 _investmentId)\n        external\n        traderOrInvestor(_trader)\n        isTrader(_trader)\n    {\n        TraderPaired(fund).stop(_trader, investor, msg.sender, _investmentId);\n        \n        emit Stopped(_trader, msg.sender, _investmentId, now);\n    }\n\n    function disburseEther(address _trader, uint256 _investmentId, uint256 _value)\n        external\n        payable\n    {\n        _disburse(_trader, msg.sender, _investmentId, ETHER, _value, msg.value);\n    }\n\n    function disburseToken(address _trader, uint256 _investmentId, address _token, uint256 _value, uint256 _amount)\n        external \n    {\n        if (_amount > 0) {\n            require(IERC20(_token).transferFrom(msg.sender, address(this), _amount));\n        }\n        _disburse(_trader, msg.sender, _investmentId, _token, _value, _amount);\n    }\n\n    function _disburse(address _trader, address _initiator, uint256 _investmentId, address _token, uint256 _value, uint256 _amount)\n        internal \n        traderOrInvestor(_trader)\n        isTrader(_trader)\n    {\n        if (_initiator == investor) {\n            TraderPaired(fund).requestExitInvestor(_trader, investor, _investmentId, _value);\n        } else {\n            TraderPaired(fund).requestExitTrader(_trader, investor, _investmentId, _value, _amount);\n        }\n\n        if (_amount > 0) {\n            balances[_trader][_token] = balances[_trader][_token].add(_amount);\n        }\n\n        uint32 _disbursementId = disbursementIdx++;\n\n        Disbursement memory _disbursement;\n        _disbursement.trader = _trader;\n        _disbursement.initiator = _initiator;\n        _disbursement.investmentId = _investmentId;\n\n        disbursements[_disbursementId] = _disbursement;\n        pendingDisbursements.push(_disbursementId);\n\n        emit DisbursementCreated(_trader, _initiator, _investmentId, _disbursementId, now);\n    }\n\n    function getPendingDisbursements()\n      external\n      view\n      validOwner\n      returns (uint32[] memory) \n    {\n        return pendingDisbursements;\n    }\n\n    function approveDisbursementEther(address _trader, uint32 _disbursementId)\n      external\n      payable \n    {\n        _approveDisbursement(_trader, _disbursementId, ETHER, msg.value);\n    }\n\n    function approveDisbursementToken(address _trader, uint32 _disbursementId, address _token, uint256 _amount)\n      external\n    {\n        if (_amount > 0) {\n            require(IERC20(_token).transferFrom(msg.sender, address(this), _amount));\n        }\n\n        _approveDisbursement(_trader, _disbursementId, _token, _amount);\n    }\n\n    function _approveDisbursement(address _trader, uint32 _disbursementId, address _token, uint256 _amount)\n      internal\n      validOwner\n      isTrader(_trader)\n      validSignature(_trader, _disbursementId)\n    {\n        Disbursement memory _disbursement = disbursements[_disbursementId];\n        _executeDisbursement(_trader, _disbursementId, _token, _amount);\n        emit DisbursementCompleted(_disbursement.initiator, msg.sender, _disbursement.investmentId, _disbursementId, now);\n        deleteDisbursement(_disbursementId);\n    }\n\n    function _executeDisbursement(address _trader, uint32 _disbursementId, address _token, uint256 _amount) \n        internal \n    {\n        Disbursement storage _disbursement = disbursements[_disbursementId];\n        uint256[3] memory _payouts = TraderPaired(fund).approveExit(_trader, investor, _disbursement.investmentId, _token, _amount);\n\n        if (_amount > 0) {\n            balances[_trader][_token] = balances[_trader][_token].add(_amount);\n        }\n\n        if (_token == ETHER) {\n            _payoutEther(_trader, _payouts[0], _trader);\n            _payoutEther(_trader, _payouts[1], investor);\n            _payoutEther(_trader, _payouts[2], admin);\n            \n        } else {\n            _payoutToken(_trader, _token, _payouts[0], _trader);\n            _payoutToken(_trader, _token, _payouts[1], investor);\n            _payoutToken(_trader, _token, _payouts[2], admin);\n        }\n    }\n\n    function _payoutEther(address _trader, uint256 _amount, address _to) \n        internal\n    {\n        if (_amount > 0) {\n            address payable _toAddress = address(uint160(_to));\n            balances[_trader][ETHER] = balances[_trader][ETHER].sub(_amount);\n            _toAddress.transfer(_amount);\n            emit Payout(ETHER, _amount, _toAddress);\n        }\n    }\n\n    function _payoutToken(address _trader, address _token, uint256 _amount, address _to) \n        internal\n    {\n        if (_amount > 0) {\n            balances[_trader][_token] = balances[_trader][_token].sub(_amount);\n            require(IERC20(_token).transfer(_to, _amount));\n            emit Payout(_token, _amount, _to);\n        }\n    }\n\n    function deleteDisbursement(uint32 _disbursementId)\n      public \n      validOwner\n    {\n        uint8 replace = 0;\n        for(uint32 i = 0; i < pendingDisbursements.length; i++) {\n            if (1 == replace) {\n                pendingDisbursements[i-1] = pendingDisbursements[i];\n            } else if (_disbursementId == pendingDisbursements[i]) {\n                replace = 1;\n            }\n        }\n        delete pendingDisbursements[pendingDisbursements.length - 1];\n        pendingDisbursements.length--;\n        delete disbursements[_disbursementId];\n    }\n\n    function _validateSignature(address _trader, uint32 _disbursementId)\n        internal\n        view\n        returns (bool)\n    {\n        Disbursement storage _disbursement = disbursements[_disbursementId];\n\n        require (_disbursement.trader == _trader);\n\n        // disbursement must exist\n        if(address(0) == _disbursement.initiator) {\n            return false;\n        }\n        // Initiator cannot sign the disbursement\n        if(msg.sender == _disbursement.initiator) {\n            return false;\n        }\n        // if a trader is signing, it must match the trader for this disbursement\n        if(traders[msg.sender]) {\n            require (_disbursement.trader == msg.sender);\n        }\n\n        return true;\n    }\n\n    function etherBalance()\n        external\n        view\n        returns (uint256) \n    {\n        return address(this).balance;\n    }\n\n    function tokenBalance(address _token)\n        external\n        view\n        returns (uint256) \n    {\n        return IERC20(_token).balanceOf(address(this));\n    }\n}\n",
  "sourcePath": "contracts/MultiSigFundWallet.sol",
  "abi": [
    {
      "inputs": [
        {
          "internalType": "address",
          "name": "_fund",
          "type": "address"
        },
        {
          "internalType": "address",
          "name": "_investor",
          "type": "address"
        },
        {
          "internalType": "address",
          "name": "_admin",
          "type": "address"
        }
      ],
      "payable": false,
      "stateMutability": "nonpayable",
      "type": "constructor"
    },
    {
      "anonymous": false,
      "inputs": [
        {
          "indexed": false,
          "internalType": "address",
          "name": "initiator",
          "type": "address"
        },
        {
          "indexed": false,
          "internalType": "address",
          "name": "signedBy",
          "type": "address"
        },
        {
          "indexed": false,
          "internalType": "uint256",
          "name": "investmentId",
          "type": "uint256"
        },
        {
          "indexed": false,
          "internalType": "uint32",
          "name": "disbursementId",
          "type": "uint32"
        },
        {
          "indexed": false,
          "internalType": "uint256",
          "name": "date",
          "type": "uint256"
        }
      ],
      "name": "DisbursementCompleted",
      "type": "event"
    },
    {
      "anonymous": false,
      "inputs": [
        {
          "indexed": false,
          "internalType": "address",
          "name": "trader",
          "type": "address"
        },
        {
          "indexed": false,
          "internalType": "address",
          "name": "initiator",
          "type": "address"
        },
        {
          "indexed": false,
          "internalType": "uint256",
          "name": "investmentId",
          "type": "uint256"
        },
        {
          "indexed": false,
          "internalType": "uint32",
          "name": "disbursementId",
          "type": "uint32"
        },
        {
          "indexed": false,
          "internalType": "uint256",
          "name": "date",
          "type": "uint256"
        }
      ],
      "name": "DisbursementCreated",
      "type": "event"
    },
    {
      "anonymous": false,
      "inputs": [
        {
          "indexed": false,
          "internalType": "address",
          "name": "trader",
          "type": "address"
        },
        {
          "indexed": false,
          "internalType": "address",
          "name": "investor",
          "type": "address"
        },
        {
          "indexed": false,
          "internalType": "uint256",
          "name": "investmentId",
          "type": "uint256"
        },
        {
          "indexed": false,
          "internalType": "address",
          "name": "token",
          "type": "address"
        },
        {
          "indexed": false,
          "internalType": "uint256",
          "name": "amount",
          "type": "uint256"
        },
        {
          "indexed": false,
          "internalType": "uint256",
          "name": "date",
          "type": "uint256"
        }
      ],
      "name": "Fund",
      "type": "event"
    },
    {
      "anonymous": false,
      "inputs": [
        {
          "indexed": false,
          "internalType": "address",
          "name": "token",
          "type": "address"
        },
        {
          "indexed": false,
          "internalType": "uint256",
          "name": "amount",
          "type": "uint256"
        },
        {
          "indexed": false,
          "internalType": "address",
          "name": "to",
          "type": "address"
        }
      ],
      "name": "Payout",
      "type": "event"
    },
    {
      "anonymous": false,
      "inputs": [
        {
          "indexed": false,
          "internalType": "address",
          "name": "trader",
          "type": "address"
        },
        {
          "indexed": false,
          "internalType": "bool",
          "name": "active",
          "type": "bool"
        }
      ],
      "name": "SetTrader",
      "type": "event"
    },
    {
      "anonymous": false,
      "inputs": [
        {
          "indexed": false,
          "internalType": "address",
          "name": "trader",
          "type": "address"
        },
        {
          "indexed": false,
          "internalType": "address",
          "name": "initiator",
          "type": "address"
        },
        {
          "indexed": false,
          "internalType": "uint256",
          "name": "investmentId",
          "type": "uint256"
        },
        {
          "indexed": false,
          "internalType": "uint256",
          "name": "date",
          "type": "uint256"
        }
      ],
      "name": "Stopped",
      "type": "event"
    },
    {
      "payable": false,
      "stateMutability": "nonpayable",
      "type": "fallback"
    },
    {
      "constant": true,
      "inputs": [],
      "name": "admin",
      "outputs": [
        {
          "internalType": "address",
          "name": "",
          "type": "address"
        }
      ],
      "payable": false,
      "stateMutability": "view",
      "type": "function"
    },
    {
      "constant": false,
      "inputs": [
        {
          "internalType": "address",
          "name": "_trader",
          "type": "address"
        },
        {
          "internalType": "uint32",
          "name": "_disbursementId",
          "type": "uint32"
        }
      ],
      "name": "approveDisbursementEther",
      "outputs": [],
      "payable": true,
      "stateMutability": "payable",
      "type": "function"
    },
    {
      "constant": false,
      "inputs": [
        {
          "internalType": "address",
          "name": "_trader",
          "type": "address"
        },
        {
          "internalType": "uint32",
          "name": "_disbursementId",
          "type": "uint32"
        },
        {
          "internalType": "address",
          "name": "_token",
          "type": "address"
        },
        {
          "internalType": "uint256",
          "name": "_amount",
          "type": "uint256"
        }
      ],
      "name": "approveDisbursementToken",
      "outputs": [],
      "payable": false,
      "stateMutability": "nonpayable",
      "type": "function"
    },
    {
      "constant": false,
      "inputs": [
        {
          "internalType": "uint32",
          "name": "_disbursementId",
          "type": "uint32"
        }
      ],
      "name": "deleteDisbursement",
      "outputs": [],
      "payable": false,
      "stateMutability": "nonpayable",
      "type": "function"
    },
    {
      "constant": false,
      "inputs": [
        {
          "internalType": "address",
          "name": "_trader",
          "type": "address"
        },
        {
          "internalType": "uint256",
          "name": "_investmentId",
          "type": "uint256"
        },
        {
          "internalType": "uint256",
          "name": "_value",
          "type": "uint256"
        }
      ],
      "name": "disburseEther",
      "outputs": [],
      "payable": true,
      "stateMutability": "payable",
      "type": "function"
    },
    {
      "constant": false,
      "inputs": [
        {
          "internalType": "address",
          "name": "_trader",
          "type": "address"
        },
        {
          "internalType": "uint256",
          "name": "_investmentId",
          "type": "uint256"
        },
        {
          "internalType": "address",
          "name": "_token",
          "type": "address"
        },
        {
          "internalType": "uint256",
          "name": "_value",
          "type": "uint256"
        },
        {
          "internalType": "uint256",
          "name": "_amount",
          "type": "uint256"
        }
      ],
      "name": "disburseToken",
      "outputs": [],
      "payable": false,
      "stateMutability": "nonpayable",
      "type": "function"
    },
    {
      "constant": true,
      "inputs": [],
      "name": "etherBalance",
      "outputs": [
        {
          "internalType": "uint256",
          "name": "",
          "type": "uint256"
        }
      ],
      "payable": false,
      "stateMutability": "view",
      "type": "function"
    },
    {
      "constant": true,
      "inputs": [],
      "name": "fund",
      "outputs": [
        {
          "internalType": "address",
          "name": "",
          "type": "address"
        }
      ],
      "payable": false,
      "stateMutability": "view",
      "type": "function"
    },
    {
      "constant": false,
      "inputs": [
        {
          "internalType": "address",
          "name": "_trader",
          "type": "address"
        }
      ],
      "name": "fundEther",
      "outputs": [],
      "payable": true,
      "stateMutability": "payable",
      "type": "function"
    },
    {
      "constant": false,
      "inputs": [
        {
          "internalType": "address",
          "name": "_trader",
          "type": "address"
        },
        {
          "internalType": "address",
          "name": "_token",
          "type": "address"
        },
        {
          "internalType": "uint256",
          "name": "_amount",
          "type": "uint256"
        }
      ],
      "name": "fundToken",
      "outputs": [],
      "payable": false,
      "stateMutability": "nonpayable",
      "type": "function"
    },
    {
      "constant": true,
      "inputs": [],
      "name": "getPendingDisbursements",
      "outputs": [
        {
          "internalType": "uint32[]",
          "name": "",
          "type": "uint32[]"
        }
      ],
      "payable": false,
      "stateMutability": "view",
      "type": "function"
    },
    {
      "constant": true,
      "inputs": [],
      "name": "investor",
      "outputs": [
        {
          "internalType": "address",
          "name": "",
          "type": "address"
        }
      ],
      "payable": false,
      "stateMutability": "view",
      "type": "function"
    },
    {
      "constant": false,
      "inputs": [
        {
          "internalType": "address",
          "name": "_admin",
          "type": "address"
        }
      ],
      "name": "replaceAdmin",
      "outputs": [],
      "payable": false,
      "stateMutability": "nonpayable",
      "type": "function"
    },
    {
      "constant": false,
      "inputs": [
        {
          "internalType": "address",
          "name": "_trader",
          "type": "address"
        },
        {
          "internalType": "bool",
          "name": "_active",
          "type": "bool"
        }
      ],
      "name": "setTrader",
      "outputs": [],
      "payable": false,
      "stateMutability": "nonpayable",
      "type": "function"
    },
    {
      "constant": false,
      "inputs": [
        {
          "internalType": "address",
          "name": "_trader",
          "type": "address"
        },
        {
          "internalType": "uint256",
          "name": "_investmentId",
          "type": "uint256"
        }
      ],
      "name": "stop",
      "outputs": [],
      "payable": false,
      "stateMutability": "nonpayable",
      "type": "function"
    },
    {
      "constant": true,
      "inputs": [
        {
          "internalType": "address",
          "name": "_token",
          "type": "address"
        }
      ],
      "name": "tokenBalance",
      "outputs": [
        {
          "internalType": "uint256",
          "name": "",
          "type": "uint256"
        }
      ],
      "payable": false,
      "stateMutability": "view",
      "type": "function"
    },
    {
      "constant": true,
      "inputs": [
        {
          "internalType": "address",
          "name": "",
          "type": "address"
        }
      ],
      "name": "traders",
      "outputs": [
        {
          "internalType": "bool",
          "name": "",
          "type": "bool"
        }
      ],
      "payable": false,
      "stateMutability": "view",
      "type": "function"
    }
  ],
  "bytecode": "0x608060405234801561001057600080fd5b50604051611bde380380611bde8339818101604052606081101561003357600080fd5b50805160208201516040909201519091906001600160a01b03808416908316148015906100725750806001600160a01b0316836001600160a01b031614155b80156100905750806001600160a01b0316826001600160a01b031614155b80156100a457506001600160a01b03811615155b6100ad57600080fd5b600080546001600160a01b039485166001600160a01b031991821617909155600280549385169382169390931790925560038054919093169116179055611ae5806100f96000396000f3fe6080604052600436106100fe5760003560e01c806392a88fa211610095578063c4f4face11610064578063c4f4face146103cd578063eedc966a14610400578063f851a44014610433578063f9b50ff314610448578063ffad08bb1461046e576100fe565b806392a88fa2146102fd578063ac5e01f014610344578063ad66e52a14610391578063b60d4288146103b8576100fe565b8063415a73b7116100d1578063415a73b7146102135780635e5dad76146102455780636f730652146102755780637ef59d01146102c2576100fe565b806307b0d751146101105780630f4e1a0914610144578063160c4cf61461017d5780631e0018d6146101e2575b34801561010a57600080fd5b50600080fd5b6101426004803603604081101561012657600080fd5b5080356001600160a01b0316906020013563ffffffff166104b1565b005b34801561015057600080fd5b506101426004803603604081101561016757600080fd5b506001600160a01b0381351690602001356104c2565b34801561018957600080fd5b506101926105ff565b60408051602080825283518183015283519192839290830191858101910280838360005b838110156101ce5781810151838201526020016101b6565b505050509050019250505060405180910390f35b3480156101ee57600080fd5b506101f76106cb565b604080516001600160a01b039092168252519081900360200190f35b6101426004803603606081101561022957600080fd5b506001600160a01b0381351690602081013590604001356106da565b34801561025157600080fd5b506101426004803603602081101561026857600080fd5b503563ffffffff166106ee565b34801561028157600080fd5b50610142600480360360a081101561029857600080fd5b506001600160a01b03813581169160208101359160408201351690606081013590608001356108b6565b3480156102ce57600080fd5b50610142600480360360408110156102e557600080fd5b506001600160a01b038135169060200135151561095b565b34801561030957600080fd5b506103306004803603602081101561032057600080fd5b50356001600160a01b0316610a25565b604080519115158252519081900360200190f35b34801561035057600080fd5b506101426004803603608081101561036757600080fd5b506001600160a01b03813581169163ffffffff602082013516916040820135169060600135610a3a565b34801561039d57600080fd5b506103a6610adc565b60408051918252519081900360200190f35b3480156103c457600080fd5b506101f7610ae1565b3480156103d957600080fd5b50610142600480360360208110156103f057600080fd5b50356001600160a01b0316610af0565b34801561040c57600080fd5b506103a66004803603602081101561042357600080fd5b50356001600160a01b0316610b7d565b34801561043f57600080fd5b506101f7610bf9565b6101426004803603602081101561045e57600080fd5b50356001600160a01b0316610c08565b34801561047a57600080fd5b506101426004803603606081101561049157600080fd5b506001600160a01b03813581169160208101359091169060400135610c15565b6104be8282600034610c20565b5050565b60025482906001600160a01b03163314806104ff57503360009081526001602052604090205460ff1680156104ff5750336001600160a01b038216145b61050857600080fd5b6001600160a01b038316600090815260016020526040902054839060ff1661052f57600080fd5b6000805460025460408051635931add760e01b81526001600160a01b03898116600483015292831660248201523360448201526064810188905290519190921692635931add7926084808201939182900301818387803b15801561059257600080fd5b505af11580156105a6573d6000803e3d6000fd5b5050604080516001600160a01b038816815233602082015280820187905242606082015290517f0a3fb0839d30fc7e0420364c827723e1d306863b68eae727d9540baf81c5ab129350908190036080019150a150505050565b6002546060906001600160a01b031633148061062557506003546001600160a01b031633145b8061063f57503360009081526001602052604090205460ff165b61064857600080fd5b60078054806020026020016040519081016040528092919081815260200182805480156106c057602002820191906000526020600020906000905b82829054906101000a900463ffffffff1663ffffffff16815260200190600401906020826003010492830192600103820291508084116106835790505b505050505090505b90565b6002546001600160a01b031681565b6106e983338460008534610d7a565b505050565b6002546001600160a01b031633148061071157506003546001600160a01b031633145b8061072b57503360009081526001602052604090205460ff165b61073457600080fd5b6000805b60075463ffffffff82161015610834578160ff16600114156107db5760078163ffffffff168154811061076757fe5b90600052602060002090600891828204019190066004029054906101000a900463ffffffff1660076001830363ffffffff16815481106107a357fe5b90600052602060002090600891828204019190066004026101000a81548163ffffffff021916908363ffffffff16021790555061082c565b60078163ffffffff16815481106107ee57fe5b90600052602060002090600891828204019190066004029054906101000a900463ffffffff1663ffffffff168363ffffffff16141561082c57600191505b600101610738565b5060078054600019810190811061084757fe5b600091825260209091206008820401805463ffffffff60046007948516026101000a021916905580549061087f906000198301611a20565b505063ffffffff16600090815260066020526040812080546001600160a01b03199081168255600182018054909116905560020155565b801561094657604080516323b872dd60e01b81523360048201523060248201526044810183905290516001600160a01b038516916323b872dd9160648083019260209291908290030181600087803b15801561091157600080fd5b505af1158015610925573d6000803e3d6000fd5b505050506040513d602081101561093b57600080fd5b505161094657600080fd5b610954853386868686610d7a565b5050505050565b6002546001600160a01b0316331461097257600080fd5b6002546001600160a01b0383811691161480159061099e57506003546001600160a01b03838116911614155b80156109b857506000546001600160a01b03838116911614155b6109c157600080fd5b6001600160a01b038216600081815260016020908152604091829020805460ff191685151590811790915582519384529083015280517f1a3544092dc1db93ff00d7694d763de72c72c66ca489a6c62593aba947a087ed9281900390910190a15050565b60016020526000908152604090205460ff1681565b8015610aca57604080516323b872dd60e01b81523360048201523060248201526044810183905290516001600160a01b038416916323b872dd9160648083019260209291908290030181600087803b158015610a9557600080fd5b505af1158015610aa9573d6000803e3d6000fd5b505050506040513d6020811015610abf57600080fd5b5051610aca57600080fd5b610ad684848484610c20565b50505050565b303190565b6000546001600160a01b031681565b6003546001600160a01b03163314610b0757600080fd5b6001600160a01b03811615801590610b2d57506002546001600160a01b03828116911614155b8015610b5257506001600160a01b03811660009081526001602052604090205460ff16155b610b5b57600080fd5b600380546001600160a01b0319166001600160a01b0392909216919091179055565b604080516370a0823160e01b815230600482015290516000916001600160a01b038416916370a0823191602480820192602092909190829003018186803b158015610bc757600080fd5b505afa158015610bdb573d6000803e3d6000fd5b505050506040513d6020811015610bf157600080fd5b505192915050565b6003546001600160a01b031681565b610c1281346110a0565b50565b6106e9838383611224565b6002546001600160a01b0316331480610c4357506003546001600160a01b031633145b80610c5d57503360009081526001602052604090205460ff165b610c6657600080fd5b6001600160a01b038416600090815260016020526040902054849060ff16610c8d57600080fd5b8484610c998282611455565b610ca257600080fd5b610caa611a54565b5063ffffffff8616600090815260066020908152604091829020825160608101845281546001600160a01b039081168252600183015416928101929092526002015491810191909152610cff888888886114f8565b60208082015160408084015181516001600160a01b03909316835233938301939093528181019290925263ffffffff8916606082015242608082015290517f587e27ac9fad1ca4409b109943c810a6efb15dde2c444e4983831342fc7f1b7a9181900360a00190a1610d70876106ee565b5050505050505050565b60025486906001600160a01b0316331480610db757503360009081526001602052604090205460ff168015610db75750336001600160a01b038216145b610dc057600080fd5b6001600160a01b038716600090815260016020526040902054879060ff16610de757600080fd5b6002546001600160a01b0388811691161415610e7e5760008054600254604080516302ea5cad60e31b81526001600160a01b038d811660048301529283166024820152604481018b90526064810189905290519190921692631752e568926084808201939182900301818387803b158015610e6157600080fd5b505af1158015610e75573d6000803e3d6000fd5b50505050610f02565b600080546002546040805163468bdb2360e01b81526001600160a01b038d811660048301529283166024820152604481018b905260648101899052608481018890529051919092169263468bdb239260a4808201939182900301818387803b158015610ee957600080fd5b505af1158015610efd573d6000803e3d6000fd5b505050505b8215610f65576001600160a01b03808916600090815260046020908152604080832093891683529290522054610f3e908463ffffffff6116db16565b6001600160a01b03808a166000908152600460209081526040808320938a16835292905220555b6005805463ffffffff198116600163ffffffff92831690810190921617909155610f8d611a54565b6001600160a01b03808b168083528a8216602080850182815260408087018e815263ffffffff808a166000818152600687528481208b518154908c166001600160a01b031991821617825596516001808301805492909d169190981617909a55925160029099019890985560078054948501815591829052600884047fa66cc928b5edb82af9bd49922954155ab7b0942694bea4ce44661d9a8736c688018054600495909316949094026101000a808902910219909116179091558051938452908301919091528181018b9052606082019290925242608082015290517f7303f605398a0bdcb13273d3359ed0295f455759408ba7bdc968a176a74e17c59181900360a00190a150505050505050505050565b6002546001600160a01b031633146110b757600080fd5b6001600160a01b038216600090815260016020526040902054829060ff166110de57600080fd5b6000805460025460408051630c4b6f2960e11b81526001600160a01b0388811660048301529283166024820152604481018590526064810187905290519190921691631896de5291608480830192602092919082900301818787803b15801561114657600080fd5b505af115801561115a573d6000803e3d6000fd5b505050506040513d602081101561117057600080fd5b50516001600160a01b03851660009081526004602090815260408083208380529091529020549091506111a9908463ffffffff6116db16565b6001600160a01b0385166000818152600460209081526040808320838052825280832094909455835192835233908301528183018490526060820152608081018590524260a082015290517f8d543feb7ab204eb3d3c58cdc5b330052056bbabbdc1b1fddd51049ac954712c9181900360c00190a150505050565b6002546001600160a01b0316331461123b57600080fd5b6001600160a01b038316600090815260016020526040902054839060ff1661126257600080fd5b6001600160a01b03831661127557600080fd5b604080516323b872dd60e01b81523360048201523060248201526044810184905290516001600160a01b038516916323b872dd9160648083019260209291908290030181600087803b1580156112ca57600080fd5b505af11580156112de573d6000803e3d6000fd5b505050506040513d60208110156112f457600080fd5b50516112ff57600080fd5b6000805460025460408051630c4b6f2960e11b81526001600160a01b038981166004830152928316602482015287831660448201526064810187905290519190921691631896de5291608480830192602092919082900301818787803b15801561136857600080fd5b505af115801561137c573d6000803e3d6000fd5b505050506040513d602081101561139257600080fd5b50516001600160a01b038087166000908152600460209081526040808320938916835292905220549091506113cd908463ffffffff6116db16565b6001600160a01b038087166000818152600460209081526040808320948a168084529482529182902094909455805191825233938201939093528083018490526060810191909152608081018590524260a082015290517f8d543feb7ab204eb3d3c58cdc5b330052056bbabbdc1b1fddd51049ac954712c9181900360c00190a15050505050565b63ffffffff8116600090815260066020526040812080546001600160a01b0385811691161461148357600080fd5b60018101546001600160a01b031661149f5760009150506114f2565b60018101546001600160a01b03163314156114be5760009150506114f2565b3360009081526001602052604090205460ff16156114ec5780546001600160a01b031633146114ec57600080fd5b60019150505b92915050565b63ffffffff83166000908152600660205260409020611515611a74565b6000805460028054908501546040805163a57a71b760e01b81526001600160a01b038c811660048301529384166024820152604481019290925288831660648301526084820188905251919092169263a57a71b79260a480820193606093909283900390910190829087803b15801561158d57600080fd5b505af11580156115a1573d6000803e3d6000fd5b505050506040513d601f19601f8201168201806040525060608110156115c657600080fd5b509050821561162c576001600160a01b03808716600090815260046020908152604080832093881683529290522054611605908463ffffffff6116db16565b6001600160a01b038088166000908152600460209081526040808320938916835292905220555b6001600160a01b0384166116875780516116489087908161173c565b6116658682600160200201516002546001600160a01b031661173c565b6116828682600260200201516003546001600160a01b031661173c565b6116d3565b805161169790879086908261181d565b6116b5868583600160200201516002546001600160a01b031661181d565b6116d3868583600260200201516003546001600160a01b031661181d565b505050505050565b600082820183811015611735576040805162461bcd60e51b815260206004820152601b60248201527f536166654d6174683a206164646974696f6e206f766572666c6f770000000000604482015290519081900360640190fd5b9392505050565b81156106e9576001600160a01b03831660009081526004602090815260408083208380529091529020548190611778908463ffffffff61194c16565b6001600160a01b0380861660009081526004602090815260408083208380529091528082209390935591519083169185156108fc02918691818181858888f193505050501580156117cd573d6000803e3d6000fd5b506040805160008152602081018590526001600160a01b0383168183015290517f1be0a78bb08f226c98376fe01c6b0037104329761c8799e7d9f3ba5599c9eba79181900360600190a150505050565b8115610ad6576001600160a01b03808516600090815260046020908152604080832093871683529290522054611859908363ffffffff61194c16565b6001600160a01b03808616600090815260046020818152604080842089861680865290835281852096909655805163a9059cbb60e01b81529487169285019290925260248401879052905163a9059cbb93604480820194918390030190829087803b1580156118c757600080fd5b505af11580156118db573d6000803e3d6000fd5b505050506040513d60208110156118f157600080fd5b50516118fc57600080fd5b604080516001600160a01b0380861682526020820185905283168183015290517f1be0a78bb08f226c98376fe01c6b0037104329761c8799e7d9f3ba5599c9eba79181900360600190a150505050565b600061173583836040518060400160405280601e81526020017f536166654d6174683a207375627472616374696f6e206f766572666c6f77000081525060008184841115611a185760405162461bcd60e51b81526004018080602001828103825283818151815260200191508051906020019080838360005b838110156119dd5781810151838201526020016119c5565b50505050905090810190601f168015611a0a5780820380516001836020036101000a031916815260200191505b509250505060405180910390fd5b505050900390565b8154818355818111156106e95760070160089004816007016008900483600052602060002091820191016106e99190611a92565b604080516060810182526000808252602082018190529181019190915290565b60405180606001604052806003906020820280388339509192915050565b6106c891905b80821115611aac5760008155600101611a98565b509056fea265627a7a723158203eb1eb2421e63c16eb745591045957a376709c63a6ff5e27f58dada80a2325cb64736f6c63430005110032",
  "compiler": {
    "name": "solc",
    "version": "0.5.17+commit.d19bba13.Emscripten.clang",
    "optimizer": {
      "enabled": true,
      "runs": 200
    },
    "evmVersion": "petersburg"
  }
}