{
  "fileName": "MultiSigFundWalletFactory.sol",
  "contractName": "MultiSigFundWalletFactory",
  "source": "// \"SPDX-License-Identifier: UNLICENSED\"\npragma solidity >=0.4.21 <0.7.0;\n\nimport \"./Factory.sol\";\nimport \"./MultiSigFundWallet.sol\";\n\ncontract MultiSigFundWalletFactory is Factory {\n\n    function create(address _fund, address _investor, address _admin)\n        public\n        returns (address wallet)\n    {\n        MultiSigFundWallet msfw = new MultiSigFundWallet(_fund, _investor, _admin);\n        wallet = address(msfw);\n        register(wallet, _investor);\n    }\n}\n",
  "sourcePath": "contracts/MultiSigFundWalletFactory.sol",
  "abi": [
    {
      "anonymous": false,
      "inputs": [
        {
          "indexed": false,
          "internalType": "address",
          "name": "creator",
          "type": "address"
        },
        {
          "indexed": false,
          "internalType": "address",
          "name": "instantiation",
          "type": "address"
        }
      ],
      "name": "ContractInstantiation",
      "type": "event"
    },
    {
      "constant": false,
      "inputs": [
        {
          "internalType": "address",
          "name": "_fund",
          "type": "address"
        },
        {
          "internalType": "address",
          "name": "_investor",
          "type": "address"
        },
        {
          "internalType": "address",
          "name": "_admin",
          "type": "address"
        }
      ],
      "name": "create",
      "outputs": [
        {
          "internalType": "address",
          "name": "wallet",
          "type": "address"
        }
      ],
      "payable": false,
      "stateMutability": "nonpayable",
      "type": "function"
    },
    {
      "constant": true,
      "inputs": [
        {
          "internalType": "address",
          "name": "creator",
          "type": "address"
        }
      ],
      "name": "getInstantiationCount",
      "outputs": [
        {
          "internalType": "uint256",
          "name": "",
          "type": "uint256"
        }
      ],
      "payable": false,
      "stateMutability": "view",
      "type": "function"
    },
    {
      "constant": true,
      "inputs": [
        {
          "internalType": "address",
          "name": "creator",
          "type": "address"
        }
      ],
      "name": "getInstantiations",
      "outputs": [
        {
          "internalType": "address[]",
          "name": "",
          "type": "address[]"
        }
      ],
      "payable": false,
      "stateMutability": "view",
      "type": "function"
    },
    {
      "constant": true,
      "inputs": [
        {
          "internalType": "address",
          "name": "",
          "type": "address"
        },
        {
          "internalType": "uint256",
          "name": "",
          "type": "uint256"
        }
      ],
      "name": "instantiations",
      "outputs": [
        {
          "internalType": "address",
          "name": "",
          "type": "address"
        }
      ],
      "payable": false,
      "stateMutability": "view",
      "type": "function"
    },
    {
      "constant": true,
      "inputs": [
        {
          "internalType": "address",
          "name": "",
          "type": "address"
        }
      ],
      "name": "isInstantiation",
      "outputs": [
        {
          "internalType": "bool",
          "name": "",
          "type": "bool"
        }
      ],
      "payable": false,
      "stateMutability": "view",
      "type": "function"
    }
  ],
  "bytecode": "0x608060405234801561001057600080fd5b50612064806100206000396000f3fe608060405234801561001057600080fd5b50600436106100575760003560e01c80630c6cc52a1461005c5780632f4f3316146100d257806357183c821461010c5780638f838478146101545780639c041ebd1461018c575b600080fd5b6100826004803603602081101561007257600080fd5b50356001600160a01b03166101c4565b60408051602080825283518183015283519192839290830191858101910280838360005b838110156100be5781810151838201526020016100a6565b505050509050019250505060405180910390f35b6100f8600480360360208110156100e857600080fd5b50356001600160a01b031661023a565b604080519115158252519081900360200190f35b6101386004803603604081101561012257600080fd5b506001600160a01b03813516906020013561024f565b604080516001600160a01b039092168252519081900360200190f35b61017a6004803603602081101561016a57600080fd5b50356001600160a01b0316610284565b60408051918252519081900360200190f35b610138600480360360608110156101a257600080fd5b506001600160a01b03813581169160208101358216916040909101351661029f565b6001600160a01b03811660009081526001602090815260409182902080548351818402810184019094528084526060939283018282801561022e57602002820191906000526020600020905b81546001600160a01b03168152600190910190602001808311610210575b50505050509050919050565b60006020819052908152604090205460ff1681565b6001602052816000526040600020818154811061026857fe5b6000918252602090912001546001600160a01b03169150829050565b6001600160a01b031660009081526001602052604090205490565b6000808484846040516102b190610398565b6001600160a01b03938416815291831660208301529091166040808301919091525190819003606001906000f0801580156102f0573d6000803e3d6000fd5b5090508091506103008285610308565b509392505050565b6001600160a01b03808316600081815260208181526040808320805460ff191660019081179091559486168084528583528184208054968701815584529282902090940180546001600160a01b03191684179055835191825281019190915281517f4fb057ad4a26ed17a57957fa69c306f11987596069b89521c511fc9a894e6161929181900390910190a15050565b611c8a806103a68339019056fe608060405234801561001057600080fd5b50604051611c8a380380611c8a8339818101604052606081101561003357600080fd5b50805160208201516040909201519091906001600160a01b03808416908316148015906100725750806001600160a01b0316836001600160a01b031614155b80156100905750806001600160a01b0316826001600160a01b031614155b80156100a457506001600160a01b03811615155b6100ad57600080fd5b600080546001600160a01b039485166001600160a01b031991821617909155600280549385169382169390931790925560038054919093169116179055611b91806100f96000396000f3fe6080604052600436106101095760003560e01c806392a88fa211610095578063c4f4face11610064578063c4f4face14610432578063eedc966a14610465578063f851a44014610498578063f9b50ff3146104ad578063ffad08bb146104d357610109565b806392a88fa214610362578063ac5e01f0146103a9578063ad66e52a146103f6578063b60d42881461041d57610109565b806320b6807a116100dc57806320b6807a1461021e578063415a73b7146102785780635e5dad76146102aa5780636f730652146102da5780637ef59d011461032757610109565b806307b0d7511461011b5780630f4e1a091461014f578063160c4cf6146101885780631e0018d6146101ed575b34801561011557600080fd5b50600080fd5b61014d6004803603604081101561013157600080fd5b5080356001600160a01b0316906020013563ffffffff16610516565b005b34801561015b57600080fd5b5061014d6004803603604081101561017257600080fd5b506001600160a01b038135169060200135610527565b34801561019457600080fd5b5061019d610664565b60408051602080825283518183015283519192839290830191858101910280838360005b838110156101d95781810151838201526020016101c1565b505050509050019250505060405180910390f35b3480156101f957600080fd5b50610202610730565b604080516001600160a01b039092168252519081900360200190f35b34801561022a57600080fd5b5061024e6004803603602081101561024157600080fd5b503563ffffffff1661073f565b604080516001600160a01b0394851681529290931660208301528183015290519081900360600190f35b61014d6004803603606081101561028e57600080fd5b506001600160a01b03813516906020810135906040013561076d565b3480156102b657600080fd5b5061014d600480360360208110156102cd57600080fd5b503563ffffffff16610781565b3480156102e657600080fd5b5061014d600480360360a08110156102fd57600080fd5b506001600160a01b0381358116916020810135916040820135169060608101359060800135610949565b34801561033357600080fd5b5061014d6004803603604081101561034a57600080fd5b506001600160a01b03813516906020013515156109ee565b34801561036e57600080fd5b506103956004803603602081101561038557600080fd5b50356001600160a01b0316610ab8565b604080519115158252519081900360200190f35b3480156103b557600080fd5b5061014d600480360360808110156103cc57600080fd5b506001600160a01b03813581169163ffffffff602082013516916040820135169060600135610acd565b34801561040257600080fd5b5061040b610b6f565b60408051918252519081900360200190f35b34801561042957600080fd5b50610202610b74565b34801561043e57600080fd5b5061014d6004803603602081101561045557600080fd5b50356001600160a01b0316610b83565b34801561047157600080fd5b5061040b6004803603602081101561048857600080fd5b50356001600160a01b0316610c10565b3480156104a457600080fd5b50610202610c8c565b61014d600480360360208110156104c357600080fd5b50356001600160a01b0316610c9b565b3480156104df57600080fd5b5061014d600480360360608110156104f657600080fd5b506001600160a01b03813581169160208101359091169060400135610ca8565b6105238282600034610cb3565b5050565b60025482906001600160a01b031633148061056457503360009081526001602052604090205460ff1680156105645750336001600160a01b038216145b61056d57600080fd5b6001600160a01b038316600090815260016020526040902054839060ff1661059457600080fd5b6000805460025460408051635931add760e01b81526001600160a01b03898116600483015292831660248201523360448201526064810188905290519190921692635931add7926084808201939182900301818387803b1580156105f757600080fd5b505af115801561060b573d6000803e3d6000fd5b5050604080516001600160a01b038816815233602082015280820187905242606082015290517f0a3fb0839d30fc7e0420364c827723e1d306863b68eae727d9540baf81c5ab129350908190036080019150a150505050565b6002546060906001600160a01b031633148061068a57506003546001600160a01b031633145b806106a457503360009081526001602052604090205460ff165b6106ad57600080fd5b600780548060200260200160405190810160405280929190818152602001828054801561072557602002820191906000526020600020906000905b82829054906101000a900463ffffffff1663ffffffff16815260200190600401906020826003010492830192600103820291508084116106e85790505b505050505090505b90565b6002546001600160a01b031681565b6006602052600090815260409020805460018201546002909201546001600160a01b03918216929091169083565b61077c83338460008534610e0d565b505050565b6002546001600160a01b03163314806107a457506003546001600160a01b031633145b806107be57503360009081526001602052604090205460ff165b6107c757600080fd5b6000805b60075463ffffffff821610156108c7578160ff166001141561086e5760078163ffffffff16815481106107fa57fe5b90600052602060002090600891828204019190066004029054906101000a900463ffffffff1660076001830363ffffffff168154811061083657fe5b90600052602060002090600891828204019190066004026101000a81548163ffffffff021916908363ffffffff1602179055506108bf565b60078163ffffffff168154811061088157fe5b90600052602060002090600891828204019190066004029054906101000a900463ffffffff1663ffffffff168363ffffffff1614156108bf57600191505b6001016107cb565b506007805460001981019081106108da57fe5b600091825260209091206008820401805463ffffffff60046007948516026101000a0219169055805490610912906000198301611acc565b505063ffffffff16600090815260066020526040812080546001600160a01b03199081168255600182018054909116905560020155565b80156109d957604080516323b872dd60e01b81523360048201523060248201526044810183905290516001600160a01b038516916323b872dd9160648083019260209291908290030181600087803b1580156109a457600080fd5b505af11580156109b8573d6000803e3d6000fd5b505050506040513d60208110156109ce57600080fd5b50516109d957600080fd5b6109e7853386868686610e0d565b5050505050565b6002546001600160a01b03163314610a0557600080fd5b6002546001600160a01b03838116911614801590610a3157506003546001600160a01b03838116911614155b8015610a4b57506000546001600160a01b03838116911614155b610a5457600080fd5b6001600160a01b038216600081815260016020908152604091829020805460ff191685151590811790915582519384529083015280517f1a3544092dc1db93ff00d7694d763de72c72c66ca489a6c62593aba947a087ed9281900390910190a15050565b60016020526000908152604090205460ff1681565b8015610b5d57604080516323b872dd60e01b81523360048201523060248201526044810183905290516001600160a01b038416916323b872dd9160648083019260209291908290030181600087803b158015610b2857600080fd5b505af1158015610b3c573d6000803e3d6000fd5b505050506040513d6020811015610b5257600080fd5b5051610b5d57600080fd5b610b6984848484610cb3565b50505050565b303190565b6000546001600160a01b031681565b6003546001600160a01b03163314610b9a57600080fd5b6001600160a01b03811615801590610bc057506002546001600160a01b03828116911614155b8015610be557506001600160a01b03811660009081526001602052604090205460ff16155b610bee57600080fd5b600380546001600160a01b0319166001600160a01b0392909216919091179055565b604080516370a0823160e01b815230600482015290516000916001600160a01b038416916370a0823191602480820192602092909190829003018186803b158015610c5a57600080fd5b505afa158015610c6e573d6000803e3d6000fd5b505050506040513d6020811015610c8457600080fd5b505192915050565b6003546001600160a01b031681565b610ca5813461114c565b50565b61077c8383836112d0565b6002546001600160a01b0316331480610cd657506003546001600160a01b031633145b80610cf057503360009081526001602052604090205460ff165b610cf957600080fd5b6001600160a01b038416600090815260016020526040902054849060ff16610d2057600080fd5b8484610d2c8282611501565b610d3557600080fd5b610d3d611b00565b5063ffffffff8616600090815260066020908152604091829020825160608101845281546001600160a01b039081168252600183015416928101929092526002015491810191909152610d92888888886115a4565b60208082015160408084015181516001600160a01b03909316835233938301939093528181019290925263ffffffff8916606082015242608082015290517f587e27ac9fad1ca4409b109943c810a6efb15dde2c444e4983831342fc7f1b7a9181900360a00190a1610e0387610781565b5050505050505050565b60025486906001600160a01b0316331480610e4a57503360009081526001602052604090205460ff168015610e4a5750336001600160a01b038216145b610e5357600080fd5b6001600160a01b038716600090815260016020526040902054879060ff16610e7a57600080fd5b6002546001600160a01b0388811691161415610f115760008054600254604080516302ea5cad60e31b81526001600160a01b038d811660048301529283166024820152604481018b90526064810189905290519190921692631752e568926084808201939182900301818387803b158015610ef457600080fd5b505af1158015610f08573d6000803e3d6000fd5b50505050610f95565b600080546002546040805163468bdb2360e01b81526001600160a01b038d811660048301529283166024820152604481018b905260648101899052608481018890529051919092169263468bdb239260a4808201939182900301818387803b158015610f7c57600080fd5b505af1158015610f90573d6000803e3d6000fd5b505050505b8215610ff8576001600160a01b03808916600090815260046020908152604080832093891683529290522054610fd1908463ffffffff61178716565b6001600160a01b03808a166000908152600460209081526040808320938a16835292905220555b6005805463ffffffff198116600163ffffffff92831690810190921617909155611020611b00565b6001600160a01b03808b168083528a8216602080850182815260408087018e815263ffffffff808a166000818152600687528481208b518154908c166001600160a01b0319918216178255965160018083018054928e169290991691909117909755935160029094019390935560078054958601815592839052600885047fa66cc928b5edb82af9bd49922954155ab7b0942694bea4ce44661d9a8736c6880180546004969094169590950261010090810a808302930219909316919091179093558151958652928501939093528383018d90526060840152928a16608083015260a0820189905260c082018890524260e0830152517ed773ca73957a22b8f7505793c37382f6f558125da58e6a946a2fc47ee80831929181900390910190a150505050505050505050565b6002546001600160a01b0316331461116357600080fd5b6001600160a01b038216600090815260016020526040902054829060ff1661118a57600080fd5b6000805460025460408051630c4b6f2960e11b81526001600160a01b0388811660048301529283166024820152604481018590526064810187905290519190921691631896de5291608480830192602092919082900301818787803b1580156111f257600080fd5b505af1158015611206573d6000803e3d6000fd5b505050506040513d602081101561121c57600080fd5b50516001600160a01b0385166000908152600460209081526040808320838052909152902054909150611255908463ffffffff61178716565b6001600160a01b0385166000818152600460209081526040808320838052825280832094909455835192835233908301528183018490526060820152608081018590524260a082015290517f8d543feb7ab204eb3d3c58cdc5b330052056bbabbdc1b1fddd51049ac954712c9181900360c00190a150505050565b6002546001600160a01b031633146112e757600080fd5b6001600160a01b038316600090815260016020526040902054839060ff1661130e57600080fd5b6001600160a01b03831661132157600080fd5b604080516323b872dd60e01b81523360048201523060248201526044810184905290516001600160a01b038516916323b872dd9160648083019260209291908290030181600087803b15801561137657600080fd5b505af115801561138a573d6000803e3d6000fd5b505050506040513d60208110156113a057600080fd5b50516113ab57600080fd5b6000805460025460408051630c4b6f2960e11b81526001600160a01b038981166004830152928316602482015287831660448201526064810187905290519190921691631896de5291608480830192602092919082900301818787803b15801561141457600080fd5b505af1158015611428573d6000803e3d6000fd5b505050506040513d602081101561143e57600080fd5b50516001600160a01b03808716600090815260046020908152604080832093891683529290522054909150611479908463ffffffff61178716565b6001600160a01b038087166000818152600460209081526040808320948a168084529482529182902094909455805191825233938201939093528083018490526060810191909152608081018590524260a082015290517f8d543feb7ab204eb3d3c58cdc5b330052056bbabbdc1b1fddd51049ac954712c9181900360c00190a15050505050565b63ffffffff8116600090815260066020526040812080546001600160a01b0385811691161461152f57600080fd5b60018101546001600160a01b031661154b57600091505061159e565b60018101546001600160a01b031633141561156a57600091505061159e565b3360009081526001602052604090205460ff16156115985780546001600160a01b0316331461159857600080fd5b60019150505b92915050565b63ffffffff831660009081526006602052604090206115c1611b20565b6000805460028054908501546040805163a57a71b760e01b81526001600160a01b038c811660048301529384166024820152604481019290925288831660648301526084820188905251919092169263a57a71b79260a480820193606093909283900390910190829087803b15801561163957600080fd5b505af115801561164d573d6000803e3d6000fd5b505050506040513d601f19601f82011682018060405250606081101561167257600080fd5b50905082156116d8576001600160a01b038087166000908152600460209081526040808320938816835292905220546116b1908463ffffffff61178716565b6001600160a01b038088166000908152600460209081526040808320938916835292905220555b6001600160a01b0384166117335780516116f4908790816117e8565b6117118682600160200201516002546001600160a01b03166117e8565b61172e8682600260200201516003546001600160a01b03166117e8565b61177f565b80516117439087908690826118c9565b611761868583600160200201516002546001600160a01b03166118c9565b61177f868583600260200201516003546001600160a01b03166118c9565b505050505050565b6000828201838110156117e1576040805162461bcd60e51b815260206004820152601b60248201527f536166654d6174683a206164646974696f6e206f766572666c6f770000000000604482015290519081900360640190fd5b9392505050565b811561077c576001600160a01b03831660009081526004602090815260408083208380529091529020548190611824908463ffffffff6119f816565b6001600160a01b0380861660009081526004602090815260408083208380529091528082209390935591519083169185156108fc02918691818181858888f19350505050158015611879573d6000803e3d6000fd5b506040805160008152602081018590526001600160a01b0383168183015290517f1be0a78bb08f226c98376fe01c6b0037104329761c8799e7d9f3ba5599c9eba79181900360600190a150505050565b8115610b69576001600160a01b03808516600090815260046020908152604080832093871683529290522054611905908363ffffffff6119f816565b6001600160a01b03808616600090815260046020818152604080842089861680865290835281852096909655805163a9059cbb60e01b81529487169285019290925260248401879052905163a9059cbb93604480820194918390030190829087803b15801561197357600080fd5b505af1158015611987573d6000803e3d6000fd5b505050506040513d602081101561199d57600080fd5b50516119a857600080fd5b604080516001600160a01b0380861682526020820185905283168183015290517f1be0a78bb08f226c98376fe01c6b0037104329761c8799e7d9f3ba5599c9eba79181900360600190a150505050565b60006117e183836040518060400160405280601e81526020017f536166654d6174683a207375627472616374696f6e206f766572666c6f77000081525060008184841115611ac45760405162461bcd60e51b81526004018080602001828103825283818151815260200191508051906020019080838360005b83811015611a89578181015183820152602001611a71565b50505050905090810190601f168015611ab65780820380516001836020036101000a031916815260200191505b509250505060405180910390fd5b505050900390565b81548183558181111561077c57600701600890048160070160089004836000526020600020918201910161077c9190611b3e565b604080516060810182526000808252602082018190529181019190915290565b60405180606001604052806003906020820280388339509192915050565b61072d91905b80821115611b585760008155600101611b44565b509056fea265627a7a72315820947078e663ed053d30781ba4d1c0759851e171eebd81f6bc00fb4b9e7d57113f64736f6c63430005110032a265627a7a723158208a9dcea4456c8d4b9b4eaaec35885f27cc67d570384d17b2c386321e90339b0d64736f6c63430005110032",
  "compiler": {
    "name": "solc",
    "version": "0.5.17+commit.d19bba13.Emscripten.clang",
    "optimizer": {
      "enabled": true,
      "runs": 200
    },
    "evmVersion": "petersburg"
  }
}