{
  "fileName": "PairedInvestments.sol",
  "contractName": "PairedInvestments",
  "source": "// \"SPDX-License-Identifier: UNLICENSED\"\npragma solidity >=0.4.21 <0.7.0;\n\nimport \"@openzeppelin/contracts-ethereum-package/contracts/math/SafeMath.sol\";\nimport \"@openzeppelin/upgrades/contracts/Initializable.sol\";\nimport \"@openzeppelin/contracts-ethereum-package/contracts/ownership/Ownable.sol\";\n\ncontract PairedInvestments is Initializable, Ownable {\n\tusing SafeMath for uint256;\n\n\taddress public manager;\n\n\tuint8 constant IDX_ADDRESS_traderAddress \t\t= 0;\n\tuint8 constant IDX_ADDRESS_investorAddress \t\t= 1;\n\n\tuint8 constant IDX_UINT256_investmentId \t\t= 0;\n\tuint8 constant IDX_UINT256_amount \t\t\t\t= 1;\n\n\tuint256 public traderFeePercent; // trader fee percentage in unit of 100, i.e. 100 == 1% and 5 == 0.05% and 10000 == 100%\n    uint256 public investorFeePercent; // investor fee percentage in unit of 100, i.e. 100 == 1% and 5 == 0.05% and 10000 == 100%\n    uint256 public investorProfitPercent;\n\n\tmapping(uint256 => _Investment) public investments;\n    uint256 public investmentCount;\n\n    enum InvestmentState {\n        Invested,\n        ExitRequested,\n        Divested\n    }\n\n    struct _Investment {\n        uint256 id;\n        address trader;\n        address investor;\n        address token;\n        uint256 amount;\n        uint256 value;\n        InvestmentState state;\n    }\n\n    struct _InvestmentArgs {\n    \taddress _traderAddress;\n    \taddress _investorAddress; \n    \tuint256 _investmentId;\n    \tuint256 _amount;\n    }\n\n    modifier onlyManager() {\n        require(manager == msg.sender);\n        _;\n    }\n\n    function initialize(\n\t    \tuint256 _traderFeePercent, \n\t        uint256 _investorFeePercent, \n\t        uint256 _investorProfitPercent) \n        public \n        initializer \n    {\n    \tOwnable.initialize(msg.sender);\n    \ttraderFeePercent = _traderFeePercent;\n        investorFeePercent = _investorFeePercent;\n        investorProfitPercent = _investorProfitPercent;\n    }\n\n    function setManager(address _manager) \n        public \n        onlyOwner \n    {\n        manager = _manager;\n    }\n\n    function invest(address _traderAddress, address _investorAddress, address _token, uint256 _amount) \n        public \n        onlyManager \n        returns(uint256) \n    {\n        \n        investmentCount = investmentCount.add(1);\n        investments[investmentCount] = _Investment({\n                id: investmentCount,\n                trader: _traderAddress,\n                investor: _investorAddress,\n                token: _token,\n                amount: _amount,\n                value: 0,\n                state: InvestmentState.Invested\n            });\n\n        return investmentCount;\n    }\n\n    function requestExit(address[2] memory _addresses, uint256[2] memory _uint256s) \n        public \n        onlyManager \n    {\n\n        _Investment storage _investment = investments[_uint256s[IDX_UINT256_investmentId]];\n\n        require(_investment.trader == _addresses[IDX_ADDRESS_traderAddress]);\n        require(_investment.investor == _addresses[IDX_ADDRESS_investorAddress]);\n\n        require(_investment.state == InvestmentState.Invested);\n\n        _investment.value = _uint256s[IDX_UINT256_amount];\n        _investment.state = InvestmentState.ExitRequested;\n    }\n\n    function approveExit(address[2] memory _addresses, uint256[2] memory _uint256s) \n        public \n        onlyManager \n        returns (uint256[4] memory result) \n    {\n\n        _Investment storage _investment = investments[_uint256s[IDX_UINT256_investmentId]];\n        require(_investment.trader == _addresses[IDX_ADDRESS_traderAddress]);\n        require(_investment.investor == _addresses[IDX_ADDRESS_investorAddress]);\n        require(_investment.state == InvestmentState.ExitRequested);\n\n        if (_investment.value > _investment.amount) {\n\n        \t(\n            \tuint256 _traderFee,\n            \tuint256 _investorFee,\n            \t,\n            \tuint256 _investorProfit\n            ) = _calculateProfitsAndFees(\n            \t_investment.value, \n            \t_investment.amount, \n            \ttraderFeePercent, \n            \tinvestorFeePercent, \n            \tinvestorProfitPercent\n            );\n\n            require(_investorProfit.add(_traderFee).add(_investorFee) == _uint256s[IDX_UINT256_amount]);\n\n            // investment amount plus profit (minus fee)\n            result[1] = _investment.amount.add(_investorProfit);\n\n            // pay trader and investor fee\n            result[2] = _traderFee.add(_investorFee);\n            \n            \n        } else {\n\n        \tuint256 _traderFee = (_investment.amount.sub(_investment.value)).mul(traderFeePercent).div(10000);\n\n        \trequire(_traderFee == _uint256s[IDX_UINT256_amount]);\n\n            // take losses away from investor\n            result[1] = _investment.value;\n            \n            // add losses to trader balance\n            result[0] = _investment.amount.sub(_investment.value);\n            \n            // trader fee\n            result[2] = _traderFee;\n        }\n\n        _investment.state = InvestmentState.Divested;\n\n        result[3] = _investment.amount;\n    }\n\n    function _calculateProfitsAndFees(\n\t\tuint256 _value,\n\t\tuint256 _amount,\n\t\tuint256 _traderFeePercent,\n\t\tuint256 _investorFeePercent,\n\t\tuint256 _investorProfitPercent\n\t\t) internal pure returns (uint256, uint256, uint256, uint256) {\n\t\t\n\t\tuint256 _profit = _value - _amount;\n        uint256 _investorProfit = _profit.mul(_investorProfitPercent.sub(_investorFeePercent)).div(10000);\n        uint256 _traderProfit = _profit.mul(uint256(10000).sub(_investorProfitPercent).sub(_traderFeePercent)).div(10000);\n        uint256 _fee = _profit.sub(_investorProfit).sub(_traderProfit);\n        uint256 _investorFee = _fee.div(2);\n        uint256 _traderFee = _fee.sub(_investorFee);\n\n        return (_traderFee, _investorFee, _traderProfit, _investorProfit);\n\t}\n}",
  "sourcePath": "contracts/PairedInvestments.sol",
  "abi": [
    {
      "anonymous": false,
      "inputs": [
        {
          "indexed": true,
          "internalType": "address",
          "name": "previousOwner",
          "type": "address"
        },
        {
          "indexed": true,
          "internalType": "address",
          "name": "newOwner",
          "type": "address"
        }
      ],
      "name": "OwnershipTransferred",
      "type": "event"
    },
    {
      "constant": false,
      "inputs": [
        {
          "internalType": "address[2]",
          "name": "_addresses",
          "type": "address[2]"
        },
        {
          "internalType": "uint256[2]",
          "name": "_uint256s",
          "type": "uint256[2]"
        }
      ],
      "name": "approveExit",
      "outputs": [
        {
          "internalType": "uint256[4]",
          "name": "result",
          "type": "uint256[4]"
        }
      ],
      "payable": false,
      "stateMutability": "nonpayable",
      "type": "function"
    },
    {
      "constant": false,
      "inputs": [
        {
          "internalType": "uint256",
          "name": "_traderFeePercent",
          "type": "uint256"
        },
        {
          "internalType": "uint256",
          "name": "_investorFeePercent",
          "type": "uint256"
        },
        {
          "internalType": "uint256",
          "name": "_investorProfitPercent",
          "type": "uint256"
        }
      ],
      "name": "initialize",
      "outputs": [],
      "payable": false,
      "stateMutability": "nonpayable",
      "type": "function"
    },
    {
      "constant": false,
      "inputs": [
        {
          "internalType": "address",
          "name": "sender",
          "type": "address"
        }
      ],
      "name": "initialize",
      "outputs": [],
      "payable": false,
      "stateMutability": "nonpayable",
      "type": "function"
    },
    {
      "constant": false,
      "inputs": [
        {
          "internalType": "address",
          "name": "_traderAddress",
          "type": "address"
        },
        {
          "internalType": "address",
          "name": "_investorAddress",
          "type": "address"
        },
        {
          "internalType": "address",
          "name": "_token",
          "type": "address"
        },
        {
          "internalType": "uint256",
          "name": "_amount",
          "type": "uint256"
        }
      ],
      "name": "invest",
      "outputs": [
        {
          "internalType": "uint256",
          "name": "",
          "type": "uint256"
        }
      ],
      "payable": false,
      "stateMutability": "nonpayable",
      "type": "function"
    },
    {
      "constant": true,
      "inputs": [],
      "name": "investmentCount",
      "outputs": [
        {
          "internalType": "uint256",
          "name": "",
          "type": "uint256"
        }
      ],
      "payable": false,
      "stateMutability": "view",
      "type": "function"
    },
    {
      "constant": true,
      "inputs": [
        {
          "internalType": "uint256",
          "name": "",
          "type": "uint256"
        }
      ],
      "name": "investments",
      "outputs": [
        {
          "internalType": "uint256",
          "name": "id",
          "type": "uint256"
        },
        {
          "internalType": "address",
          "name": "trader",
          "type": "address"
        },
        {
          "internalType": "address",
          "name": "investor",
          "type": "address"
        },
        {
          "internalType": "address",
          "name": "token",
          "type": "address"
        },
        {
          "internalType": "uint256",
          "name": "amount",
          "type": "uint256"
        },
        {
          "internalType": "uint256",
          "name": "value",
          "type": "uint256"
        },
        {
          "internalType": "enum PairedInvestments.InvestmentState",
          "name": "state",
          "type": "uint8"
        }
      ],
      "payable": false,
      "stateMutability": "view",
      "type": "function"
    },
    {
      "constant": true,
      "inputs": [],
      "name": "investorFeePercent",
      "outputs": [
        {
          "internalType": "uint256",
          "name": "",
          "type": "uint256"
        }
      ],
      "payable": false,
      "stateMutability": "view",
      "type": "function"
    },
    {
      "constant": true,
      "inputs": [],
      "name": "investorProfitPercent",
      "outputs": [
        {
          "internalType": "uint256",
          "name": "",
          "type": "uint256"
        }
      ],
      "payable": false,
      "stateMutability": "view",
      "type": "function"
    },
    {
      "constant": true,
      "inputs": [],
      "name": "isOwner",
      "outputs": [
        {
          "internalType": "bool",
          "name": "",
          "type": "bool"
        }
      ],
      "payable": false,
      "stateMutability": "view",
      "type": "function"
    },
    {
      "constant": true,
      "inputs": [],
      "name": "manager",
      "outputs": [
        {
          "internalType": "address",
          "name": "",
          "type": "address"
        }
      ],
      "payable": false,
      "stateMutability": "view",
      "type": "function"
    },
    {
      "constant": true,
      "inputs": [],
      "name": "owner",
      "outputs": [
        {
          "internalType": "address",
          "name": "",
          "type": "address"
        }
      ],
      "payable": false,
      "stateMutability": "view",
      "type": "function"
    },
    {
      "constant": false,
      "inputs": [],
      "name": "renounceOwnership",
      "outputs": [],
      "payable": false,
      "stateMutability": "nonpayable",
      "type": "function"
    },
    {
      "constant": false,
      "inputs": [
        {
          "internalType": "address[2]",
          "name": "_addresses",
          "type": "address[2]"
        },
        {
          "internalType": "uint256[2]",
          "name": "_uint256s",
          "type": "uint256[2]"
        }
      ],
      "name": "requestExit",
      "outputs": [],
      "payable": false,
      "stateMutability": "nonpayable",
      "type": "function"
    },
    {
      "constant": false,
      "inputs": [
        {
          "internalType": "address",
          "name": "_manager",
          "type": "address"
        }
      ],
      "name": "setManager",
      "outputs": [],
      "payable": false,
      "stateMutability": "nonpayable",
      "type": "function"
    },
    {
      "constant": true,
      "inputs": [],
      "name": "traderFeePercent",
      "outputs": [
        {
          "internalType": "uint256",
          "name": "",
          "type": "uint256"
        }
      ],
      "payable": false,
      "stateMutability": "view",
      "type": "function"
    },
    {
      "constant": false,
      "inputs": [
        {
          "internalType": "address",
          "name": "newOwner",
          "type": "address"
        }
      ],
      "name": "transferOwnership",
      "outputs": [],
      "payable": false,
      "stateMutability": "nonpayable",
      "type": "function"
    }
  ],
  "bytecode": "0x608060405261100d806100136000396000f3fe608060405234801561001057600080fd5b50600436106101005760003560e01c80638da5cb5b11610097578063c4d66de811610066578063c4d66de81461030e578063d0ebdbe714610334578063f2fde38b1461035a578063fd345c8a1461038057610100565b80638da5cb5b146102da5780638f32d59b146102e257806391db6bb5146102fe5780639c4abeb71461030657610100565b8063481c6a75116100d3578063481c6a751461027d578063715018a6146102a157806380d85911146102a95780638c68770b146102d257610100565b80631896de5214610105578063246b0e5c1461015357806328cebe0c1461015b578063385da3dd146101d1575b600080fd5b6101416004803603608081101561011b57600080fd5b506001600160a01b03813581169160208101358216916040820135169060600135610421565b60408051918252519081900360200190f35b610141610569565b6101cf6004803603608081101561017157600080fd5b60408051808201825291830192918183019183906002908390839080828437600092019190915250506040805180820182529295949381810193925090600290839083908082843760009201919091525091945061056f9350505050565b005b610245600480360360808110156101e757600080fd5b6040805180820182529183019291818301918390600290839083908082843760009201919091525050604080518082018252929594938181019392509060029083908390808284376000920191909152509194506106109350505050565b6040518082608080838360005b8381101561026a578181015183820152602001610252565b5050505090500191505060405180910390f35b6102856107c7565b604080516001600160a01b039092168252519081900360200190f35b6101cf6107d6565b6101cf600480360360608110156102bf57600080fd5b5080359060208101359060400135610879565b610141610936565b61028561093c565b6102ea61094b565b604080519115158252519081900360200190f35b610141610971565b610141610977565b6101cf6004803603602081101561032457600080fd5b50356001600160a01b031661097d565b6101cf6004803603602081101561034a57600080fd5b50356001600160a01b0316610a6f565b6101cf6004803603602081101561037057600080fd5b50356001600160a01b0316610aea565b61039d6004803603602081101561039657600080fd5b5035610b4f565b60405180888152602001876001600160a01b03166001600160a01b03168152602001866001600160a01b03166001600160a01b03168152602001856001600160a01b03166001600160a01b0316815260200184815260200183815260200182600281111561040757fe5b60ff16815260200197505050505050505060405180910390f35b6066546000906001600160a01b0316331461043b57600080fd5b606b5461044f90600163ffffffff610b9d16565b606b819055506040518060e00160405280606b548152602001866001600160a01b03168152602001856001600160a01b03168152602001846001600160a01b0316815260200183815260200160008152602001600060028111156104af57fe5b9052606b546000908152606a60209081526040918290208351815590830151600180830180546001600160a01b03199081166001600160a01b0394851617909155938501516002808501805487169285169290921790915560608601516003850180549096169316929092179093556080840151600483015560a0840151600583015560c084015160068301805493949193909260ff199091169190849081111561055657fe5b021790555050606b549695505050505050565b606b5481565b6066546001600160a01b0316331461058657600080fd5b80516000908152606a60205260409020825160018201546001600160a01b039182169116146105b457600080fd5b602083015160028201546001600160a01b039182169116146105d557600080fd5b6000600682015460ff1660028111156105ea57fe5b146105f457600080fd5b6020909101516005820155600601805460ff1916600117905550565b610618610f45565b6066546001600160a01b0316331461062f57600080fd5b81516000908152606a60205260409020835160018201546001600160a01b0391821691161461065d57600080fd5b602084015160028201546001600160a01b0391821691161461067e57600080fd5b6001600682015460ff16600281111561069357fe5b1461069d57600080fd5b8060040154816005015411156107335760008060006106cd84600501548560040154606754606854606954610c00565b60208a01519396509194509092506106f79050836106eb8487610b9d565b9063ffffffff610b9d16565b1461070157600080fd5b6004840154610716908263ffffffff610b9d16565b60208601526107258383610b9d565b6040860152506107a9915050565b600061077461271061076860675461075c86600501548760040154610cc190919063ffffffff16565b9063ffffffff610d0316565b9063ffffffff610d5c16565b6020850151909150811461078757600080fd5b60058201546020840181905260048301546107a191610cc1565b835260408301525b60068101805460ff1916600217905560040154606082015292915050565b6066546001600160a01b031681565b6107de61094b565b61082f576040805162461bcd60e51b815260206004820181905260248201527f4f776e61626c653a2063616c6c6572206973206e6f7420746865206f776e6572604482015290519081900360640190fd5b6033546040516000916001600160a01b0316907f8be0079c531659141344cd1fd0a4f28419497f9722a3daafe3b4186f6b6457e0908390a3603380546001600160a01b0319169055565b600054610100900460ff16806108925750610892610d9e565b806108a0575060005460ff16155b6108db5760405162461bcd60e51b815260040180806020018281038252602e815260200180610fab602e913960400191505060405180910390fd5b600054610100900460ff16158015610906576000805460ff1961ff0019909116610100171660011790555b61090f3361097d565b6067849055606883905560698290558015610930576000805461ff00191690555b50505050565b60685481565b6033546001600160a01b031690565b6033546000906001600160a01b0316610962610da4565b6001600160a01b031614905090565b60675481565b60695481565b600054610100900460ff16806109965750610996610d9e565b806109a4575060005460ff16155b6109df5760405162461bcd60e51b815260040180806020018281038252602e815260200180610fab602e913960400191505060405180910390fd5b600054610100900460ff16158015610a0a576000805460ff1961ff0019909116610100171660011790555b603380546001600160a01b0319166001600160a01b0384811691909117918290556040519116906000907f8be0079c531659141344cd1fd0a4f28419497f9722a3daafe3b4186f6b6457e0908290a38015610a6b576000805461ff00191690555b5050565b610a7761094b565b610ac8576040805162461bcd60e51b815260206004820181905260248201527f4f776e61626c653a2063616c6c6572206973206e6f7420746865206f776e6572604482015290519081900360640190fd5b606680546001600160a01b0319166001600160a01b0392909216919091179055565b610af261094b565b610b43576040805162461bcd60e51b815260206004820181905260248201527f4f776e61626c653a2063616c6c6572206973206e6f7420746865206f776e6572604482015290519081900360640190fd5b610b4c81610da8565b50565b606a60205260009081526040902080546001820154600283015460038401546004850154600586015460069096015494956001600160a01b0394851695938516949092169290919060ff1687565b600082820183811015610bf7576040805162461bcd60e51b815260206004820152601b60248201527f536166654d6174683a206164646974696f6e206f766572666c6f770000000000604482015290519081900360640190fd5b90505b92915050565b600080808087890381610c2f612710610768610c228a8c63ffffffff610cc116565b859063ffffffff610d0316565b90506000610c69612710610768610c5c8d610c50848e63ffffffff610cc116565b9063ffffffff610cc116565b869063ffffffff610d0316565b90506000610c8182610c50868663ffffffff610cc116565b90506000610c9682600263ffffffff610d5c16565b90506000610caa838363ffffffff610cc116565b9f919e50929c50929a509198505050505050505050565b6000610bf783836040518060400160405280601e81526020017f536166654d6174683a207375627472616374696f6e206f766572666c6f770000815250610e49565b600082610d1257506000610bfa565b82820282848281610d1f57fe5b0414610bf75760405162461bcd60e51b8152600401808060200182810382526021815260200180610f8a6021913960400191505060405180910390fd5b6000610bf783836040518060400160405280601a81526020017f536166654d6174683a206469766973696f6e206279207a65726f000000000000815250610ee0565b303b1590565b3390565b6001600160a01b038116610ded5760405162461bcd60e51b8152600401808060200182810382526026815260200180610f646026913960400191505060405180910390fd5b6033546040516001600160a01b038084169216907f8be0079c531659141344cd1fd0a4f28419497f9722a3daafe3b4186f6b6457e090600090a3603380546001600160a01b0319166001600160a01b0392909216919091179055565b60008184841115610ed85760405162461bcd60e51b81526004018080602001828103825283818151815260200191508051906020019080838360005b83811015610e9d578181015183820152602001610e85565b50505050905090810190601f168015610eca5780820380516001836020036101000a031916815260200191505b509250505060405180910390fd5b505050900390565b60008183610f2f5760405162461bcd60e51b8152602060048201818152835160248401528351909283926044909101919085019080838360008315610e9d578181015183820152602001610e85565b506000838581610f3b57fe5b0495945050505050565b6040518060800160405280600490602082028038833950919291505056fe4f776e61626c653a206e6577206f776e657220697320746865207a65726f2061646472657373536166654d6174683a206d756c7469706c69636174696f6e206f766572666c6f77436f6e747261637420696e7374616e63652068617320616c7265616479206265656e20696e697469616c697a6564a265627a7a72315820e21afc2e3289cb27ae4f40b07c908c739eee5b53d7485659d4725c92afee684a64736f6c63430005110032",
  "compiler": {
    "name": "solc",
    "version": "0.5.17+commit.d19bba13.Emscripten.clang",
    "optimizer": {
      "enabled": true,
      "runs": 200
    },
    "evmVersion": "petersburg"
  }
}