{
  "fileName": "PairedInvestments.sol",
  "contractName": "PairedInvestments",
  "source": "// \"SPDX-License-Identifier: UNLICENSED\"\npragma solidity >=0.4.21 <0.7.0;\n\nimport \"@openzeppelin/contracts-ethereum-package/contracts/math/SafeMath.sol\";\nimport \"@openzeppelin/upgrades/contracts/Initializable.sol\";\nimport \"@openzeppelin/contracts-ethereum-package/contracts/ownership/Ownable.sol\";\n\ncontract PairedInvestments is Initializable, Ownable {\n\tusing SafeMath for uint256;\n\n\taddress public manager;\n\n\tuint8 constant IDX_ADDRESS_traderAddress \t\t= 0;\n\tuint8 constant IDX_ADDRESS_investorAddress \t\t= 1;\n\n\tuint8 constant IDX_UINT256_investmentId \t\t= 0;\n\tuint8 constant IDX_UINT256_amount \t\t\t\t= 1;\n\tuint8 constant IDX_UINT256_traderBalance \t\t= 2;\n\tuint8 constant IDX_UINT256_investorBalance \t\t= 3;\n\tuint8 constant IDX_UINT256_feeAccountBalance \t= 4;\n\n\tuint256 public traderFeePercent; // trader fee percentage in unit of 100, i.e. 100 == 1% and 5 == 0.05% and 10000 == 100%\n    uint256 public investorFeePercent; // investor fee percentage in unit of 100, i.e. 100 == 1% and 5 == 0.05% and 10000 == 100%\n    uint256 public investorProfitPercent;\n    uint256 public secondsToForceExit; // number of seconds required before an exit can be forced\n\n\tmapping(uint256 => _Investment) public investments;\n    uint256 public investmentCount;\n\n    enum InvestmentState {\n        Invested,\n        ExitRequested,\n        ExitRejected,\n        Divested\n    }\n\n    struct _Investment {\n        uint256 id;\n        address trader;\n        address investor;\n        bool forced;\n        address token;\n        uint256 amount;\n        uint256 endDate;\n        uint256 value;\n        InvestmentState state;\n    }\n\n    struct _InvestmentArgs {\n    \taddress _traderAddress;\n    \taddress _investorAddress; \n    \tuint256 _investmentId;\n    \tuint256 _amount;\n    \tuint256 _traderBalance;\n    \tuint256 _investorBalance;\n    \tuint256 _feeAccountBalance;\n    }\n\n    modifier onlyManager() {\n        require(manager == msg.sender);\n        _;\n    }\n\n    function initialize(\n\t    \tuint256 _traderFeePercent, \n\t        uint256 _investorFeePercent, \n\t        uint256 _investorProfitPercent,\n\t        uint256 _secondsToForceExit) public initializer {\n    \tOwnable.initialize(msg.sender);\n    \ttraderFeePercent = _traderFeePercent;\n        investorFeePercent = _investorFeePercent;\n        investorProfitPercent = _investorProfitPercent;\n        secondsToForceExit = _secondsToForceExit;\n    }\n\n    function setManager(address _manager) public onlyOwner {\n        manager = _manager;\n    }\n\n    function invest(address _traderAddress, address _investorAddress, address _token, uint256 _amount) public onlyManager returns(uint256) {\n        \n        investmentCount = investmentCount.add(1);\n        investments[investmentCount] = _Investment({\n                id: investmentCount,\n                trader: _traderAddress,\n                investor: _investorAddress,\n                forced: false,\n                token: _token,\n                amount: _amount,\n                endDate: 0,\n                value: 0,\n                state: InvestmentState.Invested\n            });\n\n        return investmentCount;\n    }\n\n    function requestExit(address[2] memory _addresses, uint256[5] memory _uint256s) public onlyManager returns (uint256[4] memory) {\n\n        _Investment storage _investment = investments[_uint256s[IDX_UINT256_investmentId]];\n\n        require(_investment.trader == _addresses[IDX_ADDRESS_traderAddress]);\n        require(_investment.investor == _addresses[IDX_ADDRESS_investorAddress]);\n\n        if (_investment.endDate == 0) {\n            require(_investment.state == InvestmentState.Invested);\n        } else {\n            require(_investment.state == InvestmentState.ExitRequested);\n            require(!_investment.forced); // not yet forced\n            require((now - _investment.endDate) >= secondsToForceExit); // can force an exit\n            require(_investment.value == _uint256s[IDX_UINT256_amount]); // value is still the same\n\n            _investment.forced = true;\n        }\n\n        if (_uint256s[IDX_UINT256_amount] > _investment.amount) {\n            // profit\n\n            (\n            \t,\n            \tuint256 _investorFee,\n            \t,\n            \t\n            ) = _calculateProfitsAndFees(\n            \t_uint256s[IDX_UINT256_amount], \n            \t_investment.amount, \n            \ttraderFeePercent, \n            \tinvestorFeePercent, \n            \tinvestorProfitPercent\n            );\n\n            if (_investment.forced) {\n                // when forcing an exit with profit, the amount is immediately returned to the investor\n                _uint256s[IDX_UINT256_investorBalance] = _uint256s[IDX_UINT256_investorBalance].add(_investment.amount);\n\n                // immediately pay investor fee\n                _uint256s[IDX_UINT256_feeAccountBalance] = _uint256s[IDX_UINT256_feeAccountBalance].add(_investorFee);\n            }\n\n        } else {\n            // break even or loss\n            uint256 _traderFee = (_investment.amount.sub(_uint256s[IDX_UINT256_amount])).mul(traderFeePercent).div(10000);\n\n            if (_investment.forced) {\n                // take losses away from investor\n                _uint256s[IDX_UINT256_investorBalance] = _uint256s[IDX_UINT256_investorBalance].add(_uint256s[IDX_UINT256_amount]);\n\n                // when forcing an exit with loss, the losses are immedately returned to the trader\n                _uint256s[IDX_UINT256_traderBalance] = _uint256s[IDX_UINT256_traderBalance].add(\n                    _investment.amount.sub(_uint256s[IDX_UINT256_amount]).sub(_traderFee)\n                );\n            }\n        }\n\n        _investment.endDate = now;\n        _investment.value = _uint256s[IDX_UINT256_amount];\n        _investment.state = InvestmentState.ExitRequested;\n\n        uint256[4] memory _result = [\n        \t_uint256s[IDX_UINT256_traderBalance], \n        \t_uint256s[IDX_UINT256_investorBalance], \n        \t_uint256s[IDX_UINT256_feeAccountBalance], \n        \t_investment.endDate];\n\n        return (_result);\n    }\n\n    function rejectExit(address _traderAddress, uint256 _investmentId) public onlyManager {\n        _Investment storage _investment = investments[_investmentId];\n        require(_investment.trader == _traderAddress);\n        require(_investment.state == InvestmentState.ExitRequested);\n        \n        _investment.state = InvestmentState.ExitRejected;\n    }\n\n    function approveExit(address[2] memory _addresses, uint256[5] memory _uint256s) public onlyManager returns (uint256[4] memory) {\n\n        _Investment storage _investment = investments[_uint256s[IDX_UINT256_investmentId]];\n        require(_investment.trader == _addresses[IDX_ADDRESS_traderAddress]);\n        require(_investment.investor == _addresses[IDX_ADDRESS_investorAddress]);\n        require(_investment.state == InvestmentState.ExitRequested);\n\n        if (_investment.value > _investment.amount) {\n\n        \t(\n            \tuint256 _traderFee,\n            \tuint256 _investorFee,\n            \t,\n            \tuint256 _investorProfit\n            ) = _calculateProfitsAndFees(\n            \t_investment.value, \n            \t_investment.amount, \n            \ttraderFeePercent, \n            \tinvestorFeePercent, \n            \tinvestorProfitPercent\n            );\n\n            require(_investorProfit.add(_traderFee) == _uint256s[IDX_UINT256_amount]);\n\n            if (_investment.forced) {\n                // investment profit (minus fee)\n                _uint256s[IDX_UINT256_investorBalance] = _uint256s[IDX_UINT256_investorBalance].add(_investorProfit);\n\n                // pay trader fee\n                _uint256s[IDX_UINT256_feeAccountBalance] = _uint256s[IDX_UINT256_feeAccountBalance].add(_traderFee);\n\n            } else {\n                // investment amount plus profit (minus fee)\n                _uint256s[IDX_UINT256_investorBalance] = _uint256s[IDX_UINT256_investorBalance].add(\n                    _investment.amount.add(_investorProfit)\n                );\n\n                // pay trader and investor fee\n                _uint256s[IDX_UINT256_feeAccountBalance] = _uint256s[IDX_UINT256_feeAccountBalance]\n                    .add(_traderFee)\n                    .add(_investorFee);\n            }\n            \n        } else {\n\n        \tuint256 _traderFee = (_investment.amount.sub(_investment.value)).mul(traderFeePercent).div(10000);\n\n        \trequire(\n                _traderFee == _uint256s[IDX_UINT256_amount]\n            );\n\n            if (!_investment.forced) {\n            \t\n                // take losses away from investor\n                _uint256s[IDX_UINT256_investorBalance] = _uint256s[IDX_UINT256_investorBalance].add(_investment.value);\n                \n                // add losses to trader balance\n                _uint256s[IDX_UINT256_traderBalance] = _uint256s[IDX_UINT256_traderBalance]\n                    .add(_investment.amount\n                        .sub(_investment.value)\n                        .sub(_traderFee)\n                    );\n            }\n\n            // trader fee\n           _uint256s[IDX_UINT256_feeAccountBalance] = _uint256s[IDX_UINT256_feeAccountBalance].add(_traderFee);\n        }\n\n        _investment.state = InvestmentState.Divested;\n\n        uint256[4] memory _result = [\n        \t_uint256s[IDX_UINT256_traderBalance], \n        \t_uint256s[IDX_UINT256_investorBalance], \n        \t_uint256s[IDX_UINT256_feeAccountBalance], \n        \t_investment.amount];\n\n        return (_result);\n    }\n\n    function _calculateProfitsAndFees(\n\t\tuint256 _value,\n\t\tuint256 _amount,\n\t\tuint256 _traderFeePercent,\n\t\tuint256 _investorFeePercent,\n\t\tuint256 _investorProfitPercent\n\t\t) internal pure returns (uint256, uint256, uint256, uint256) {\n\t\t\n\t\tuint256 _profit = _value - _amount;\n        uint256 _investorProfit = _profit.mul(_investorProfitPercent.sub(_investorFeePercent)).div(10000);\n        uint256 _traderProfit = _profit.mul(uint256(10000).sub(_investorProfitPercent).sub(_traderFeePercent)).div(10000);\n        uint256 _fee = _profit.sub(_investorProfit).sub(_traderProfit);\n        uint256 _investorFee = _fee.div(2);\n        uint256 _traderFee = _fee.sub(_investorFee);\n\n        return (_traderFee, _investorFee, _traderProfit, _investorProfit);\n\t}\n}",
  "sourcePath": "contracts/PairedInvestments.sol",
  "abi": [
    {
      "anonymous": false,
      "inputs": [
        {
          "indexed": true,
          "internalType": "address",
          "name": "previousOwner",
          "type": "address"
        },
        {
          "indexed": true,
          "internalType": "address",
          "name": "newOwner",
          "type": "address"
        }
      ],
      "name": "OwnershipTransferred",
      "type": "event"
    },
    {
      "constant": false,
      "inputs": [
        {
          "internalType": "address[2]",
          "name": "_addresses",
          "type": "address[2]"
        },
        {
          "internalType": "uint256[5]",
          "name": "_uint256s",
          "type": "uint256[5]"
        }
      ],
      "name": "approveExit",
      "outputs": [
        {
          "internalType": "uint256[4]",
          "name": "",
          "type": "uint256[4]"
        }
      ],
      "payable": false,
      "stateMutability": "nonpayable",
      "type": "function"
    },
    {
      "constant": false,
      "inputs": [
        {
          "internalType": "uint256",
          "name": "_traderFeePercent",
          "type": "uint256"
        },
        {
          "internalType": "uint256",
          "name": "_investorFeePercent",
          "type": "uint256"
        },
        {
          "internalType": "uint256",
          "name": "_investorProfitPercent",
          "type": "uint256"
        },
        {
          "internalType": "uint256",
          "name": "_secondsToForceExit",
          "type": "uint256"
        }
      ],
      "name": "initialize",
      "outputs": [],
      "payable": false,
      "stateMutability": "nonpayable",
      "type": "function"
    },
    {
      "constant": false,
      "inputs": [
        {
          "internalType": "address",
          "name": "sender",
          "type": "address"
        }
      ],
      "name": "initialize",
      "outputs": [],
      "payable": false,
      "stateMutability": "nonpayable",
      "type": "function"
    },
    {
      "constant": false,
      "inputs": [
        {
          "internalType": "address",
          "name": "_traderAddress",
          "type": "address"
        },
        {
          "internalType": "address",
          "name": "_investorAddress",
          "type": "address"
        },
        {
          "internalType": "address",
          "name": "_token",
          "type": "address"
        },
        {
          "internalType": "uint256",
          "name": "_amount",
          "type": "uint256"
        }
      ],
      "name": "invest",
      "outputs": [
        {
          "internalType": "uint256",
          "name": "",
          "type": "uint256"
        }
      ],
      "payable": false,
      "stateMutability": "nonpayable",
      "type": "function"
    },
    {
      "constant": true,
      "inputs": [],
      "name": "investmentCount",
      "outputs": [
        {
          "internalType": "uint256",
          "name": "",
          "type": "uint256"
        }
      ],
      "payable": false,
      "stateMutability": "view",
      "type": "function"
    },
    {
      "constant": true,
      "inputs": [
        {
          "internalType": "uint256",
          "name": "",
          "type": "uint256"
        }
      ],
      "name": "investments",
      "outputs": [
        {
          "internalType": "uint256",
          "name": "id",
          "type": "uint256"
        },
        {
          "internalType": "address",
          "name": "trader",
          "type": "address"
        },
        {
          "internalType": "address",
          "name": "investor",
          "type": "address"
        },
        {
          "internalType": "bool",
          "name": "forced",
          "type": "bool"
        },
        {
          "internalType": "address",
          "name": "token",
          "type": "address"
        },
        {
          "internalType": "uint256",
          "name": "amount",
          "type": "uint256"
        },
        {
          "internalType": "uint256",
          "name": "endDate",
          "type": "uint256"
        },
        {
          "internalType": "uint256",
          "name": "value",
          "type": "uint256"
        },
        {
          "internalType": "enum PairedInvestments.InvestmentState",
          "name": "state",
          "type": "uint8"
        }
      ],
      "payable": false,
      "stateMutability": "view",
      "type": "function"
    },
    {
      "constant": true,
      "inputs": [],
      "name": "investorFeePercent",
      "outputs": [
        {
          "internalType": "uint256",
          "name": "",
          "type": "uint256"
        }
      ],
      "payable": false,
      "stateMutability": "view",
      "type": "function"
    },
    {
      "constant": true,
      "inputs": [],
      "name": "investorProfitPercent",
      "outputs": [
        {
          "internalType": "uint256",
          "name": "",
          "type": "uint256"
        }
      ],
      "payable": false,
      "stateMutability": "view",
      "type": "function"
    },
    {
      "constant": true,
      "inputs": [],
      "name": "isOwner",
      "outputs": [
        {
          "internalType": "bool",
          "name": "",
          "type": "bool"
        }
      ],
      "payable": false,
      "stateMutability": "view",
      "type": "function"
    },
    {
      "constant": true,
      "inputs": [],
      "name": "manager",
      "outputs": [
        {
          "internalType": "address",
          "name": "",
          "type": "address"
        }
      ],
      "payable": false,
      "stateMutability": "view",
      "type": "function"
    },
    {
      "constant": true,
      "inputs": [],
      "name": "owner",
      "outputs": [
        {
          "internalType": "address",
          "name": "",
          "type": "address"
        }
      ],
      "payable": false,
      "stateMutability": "view",
      "type": "function"
    },
    {
      "constant": false,
      "inputs": [
        {
          "internalType": "address",
          "name": "_traderAddress",
          "type": "address"
        },
        {
          "internalType": "uint256",
          "name": "_investmentId",
          "type": "uint256"
        }
      ],
      "name": "rejectExit",
      "outputs": [],
      "payable": false,
      "stateMutability": "nonpayable",
      "type": "function"
    },
    {
      "constant": false,
      "inputs": [],
      "name": "renounceOwnership",
      "outputs": [],
      "payable": false,
      "stateMutability": "nonpayable",
      "type": "function"
    },
    {
      "constant": false,
      "inputs": [
        {
          "internalType": "address[2]",
          "name": "_addresses",
          "type": "address[2]"
        },
        {
          "internalType": "uint256[5]",
          "name": "_uint256s",
          "type": "uint256[5]"
        }
      ],
      "name": "requestExit",
      "outputs": [
        {
          "internalType": "uint256[4]",
          "name": "",
          "type": "uint256[4]"
        }
      ],
      "payable": false,
      "stateMutability": "nonpayable",
      "type": "function"
    },
    {
      "constant": true,
      "inputs": [],
      "name": "secondsToForceExit",
      "outputs": [
        {
          "internalType": "uint256",
          "name": "",
          "type": "uint256"
        }
      ],
      "payable": false,
      "stateMutability": "view",
      "type": "function"
    },
    {
      "constant": false,
      "inputs": [
        {
          "internalType": "address",
          "name": "_manager",
          "type": "address"
        }
      ],
      "name": "setManager",
      "outputs": [],
      "payable": false,
      "stateMutability": "nonpayable",
      "type": "function"
    },
    {
      "constant": true,
      "inputs": [],
      "name": "traderFeePercent",
      "outputs": [
        {
          "internalType": "uint256",
          "name": "",
          "type": "uint256"
        }
      ],
      "payable": false,
      "stateMutability": "view",
      "type": "function"
    },
    {
      "constant": false,
      "inputs": [
        {
          "internalType": "address",
          "name": "newOwner",
          "type": "address"
        }
      ],
      "name": "transferOwnership",
      "outputs": [],
      "payable": false,
      "stateMutability": "nonpayable",
      "type": "function"
    }
  ],
  "bytecode": "0x60806040526113d8806100136000396000f3fe608060405234801561001057600080fd5b50600436106101165760003560e01c80638da5cb5b116100a2578063c4d66de811610071578063c4d66de814610338578063d0ebdbe71461035e578063d16c28ac14610384578063f2fde38b146103b0578063fd345c8a146103d657610116565b80638da5cb5b146103045780638f32d59b1461030c57806391db6bb5146103285780639c4abeb71461033057610116565b8063481c6a75116100e9578063481c6a751461029757806360a2da44146102bb578063715018a6146102ec5780637d4c6fe4146102f45780638c68770b146102fc57610116565b8063154c49e01461011b5780631896de52146101ca578063246b0e5c14610218578063252044ff14610220575b600080fd5b610192600480360360e081101561013157600080fd5b60408051808201825291830192918183019183906002908390839080828437600092019190915250506040805160a0818101909252929594938181019392509060059083908390808284376000920191909152509194506104899350505050565b6040518082608080838360005b838110156101b757818101518382015260200161019f565b5050505090500191505060405180910390f35b610206600480360360808110156101e057600080fd5b506001600160a01b03813581169160208101358216916040820135169060600135610738565b60408051918252519081900360200190f35b6102066108b6565b610192600480360360e081101561023657600080fd5b60408051808201825291830192918183019183906002908390839080828437600092019190915250506040805160a0818101909252929594938181019392509060059083908390808284376000920191909152509194506108bc9350505050565b61029f610b16565b604080516001600160a01b039092168252519081900360200190f35b6102ea600480360360808110156102d157600080fd5b5080359060208101359060408101359060600135610b25565b005b6102ea610be8565b610206610c8b565b610206610c91565b61029f610c97565b610314610ca6565b604080519115158252519081900360200190f35b610206610ccc565b610206610cd2565b6102ea6004803603602081101561034e57600080fd5b50356001600160a01b0316610cd8565b6102ea6004803603602081101561037457600080fd5b50356001600160a01b0316610dca565b6102ea6004803603604081101561039a57600080fd5b506001600160a01b038135169060200135610e45565b6102ea600480360360208110156103c657600080fd5b50356001600160a01b0316610eb7565b6103f3600480360360208110156103ec57600080fd5b5035610f1c565b604051808a8152602001896001600160a01b03166001600160a01b03168152602001886001600160a01b03166001600160a01b0316815260200187151515158152602001866001600160a01b03166001600160a01b0316815260200185815260200184815260200183815260200182600381111561046d57fe5b60ff168152602001995050505050505050505060405180910390f35b610491611310565b6066546001600160a01b031633146104a857600080fd5b81516000908152606b60205260409020835160018201546001600160a01b039182169116146104d657600080fd5b602084015160028201546001600160a01b039182169116146104f757600080fd5b6005810154610524576000600782015460ff16600381111561051557fe5b1461051f57600080fd5b61059b565b6001600782015460ff16600381111561053957fe5b1461054357600080fd5b6002810154600160a01b900460ff161561055c57600080fd5b606a5481600501544203101561057157600080fd5b602083015160068201541461058557600080fd5b60028101805460ff60a01b1916600160a01b1790555b6004810154602084015111156106215760006105cb84600160200201518360040154606754606854606954610f76565b50506002840154909250600160a01b900460ff1615905061061b576004820154610604908560035b60200201519063ffffffff61102b16565b6060850152610615818560046105f3565b60808501525b506106d6565b606754600090610667906127109061065b9061064f886001602002015160048801549063ffffffff61108c16565b9063ffffffff6110ce16565b9063ffffffff61112716565b6002830154909150600160a01b900460ff16156106d457602084015161068f908560036105f3565b84600360200201526106ce6106c6826106ba876001602002015160048701549063ffffffff61108c16565b9063ffffffff61108c16565b8560026105f3565b60408501525b505b4260058201556020830151600682015560078101805460ff191660011790556106fd611310565b506040805160808082018352858301518252606080870151602084015290860151928201929092526005909201549082015290505b92915050565b6066546000906001600160a01b0316331461075257600080fd5b606c5461076690600163ffffffff61102b16565b606c81905550604051806101200160405280606c548152602001866001600160a01b03168152602001856001600160a01b03168152602001600015158152602001846001600160a01b031681526020018381526020016000815260200160008152602001600060038111156107d757fe5b9052606c546000908152606b60209081526040918290208351815590830151600180830180546001600160a01b039384166001600160a01b0319918216179091559385015160028401805460608801511515600160a01b0260ff60a01b19938616918816919091179290921691909117905560808501516003808501805492909416919095161790915560a0840151600483015560c0840151600583015560e0840151600683015561010084015160078301805493949193909260ff199091169184908111156108a357fe5b021790555050606c549695505050505050565b606c5481565b6108c4611310565b6066546001600160a01b031633146108db57600080fd5b81516000908152606b60205260409020835160018201546001600160a01b0391821691161461090957600080fd5b602084015160028201546001600160a01b0391821691161461092a57600080fd5b6001600782015460ff16600381111561093f57fe5b1461094957600080fd5b806004015481600601541115610a2857600080600061097984600601548560040154606754606854606954610f76565b60208a01519396509194509092506109939050828561102b565b1461099d57600080fd5b6002840154600160a01b900460ff16156109d8576109bd818760036105f3565b60608701526109ce838760046105f3565b6080870152610a20565b60048401546109f9906109f1908363ffffffff61102b16565b8760036105f3565b6060870152610a1a82610a0e858960046105f3565b9063ffffffff61102b16565b60808701525b505050610ac4565b6000610a5161271061065b60675461064f8660060154876004015461108c90919063ffffffff16565b60208501519091508114610a6457600080fd5b6002820154600160a01b900460ff16610ab1576006820154610a88908560036105f3565b606085015260068201546004830154610aab916106c69184916106ba919061108c565b60408501525b610abd818560046105f3565b6080850152505b60078101805460ff19166003179055610adb611310565b506040805160808082018352858301518252606080870151602084015295015191810191909152600491909101549281019290925250919050565b6066546001600160a01b031681565b600054610100900460ff1680610b3e5750610b3e611169565b80610b4c575060005460ff16155b610b875760405162461bcd60e51b815260040180806020018281038252602e815260200180611376602e913960400191505060405180910390fd5b600054610100900460ff16158015610bb2576000805460ff1961ff0019909116610100171660011790555b610bbb33610cd8565b606785905560688490556069839055606a8290558015610be1576000805461ff00191690555b5050505050565b610bf0610ca6565b610c41576040805162461bcd60e51b815260206004820181905260248201527f4f776e61626c653a2063616c6c6572206973206e6f7420746865206f776e6572604482015290519081900360640190fd5b6033546040516000916001600160a01b0316907f8be0079c531659141344cd1fd0a4f28419497f9722a3daafe3b4186f6b6457e0908390a3603380546001600160a01b0319169055565b606a5481565b60685481565b6033546001600160a01b031690565b6033546000906001600160a01b0316610cbd61116f565b6001600160a01b031614905090565b60675481565b60695481565b600054610100900460ff1680610cf15750610cf1611169565b80610cff575060005460ff16155b610d3a5760405162461bcd60e51b815260040180806020018281038252602e815260200180611376602e913960400191505060405180910390fd5b600054610100900460ff16158015610d65576000805460ff1961ff0019909116610100171660011790555b603380546001600160a01b0319166001600160a01b0384811691909117918290556040519116906000907f8be0079c531659141344cd1fd0a4f28419497f9722a3daafe3b4186f6b6457e0908290a38015610dc6576000805461ff00191690555b5050565b610dd2610ca6565b610e23576040805162461bcd60e51b815260206004820181905260248201527f4f776e61626c653a2063616c6c6572206973206e6f7420746865206f776e6572604482015290519081900360640190fd5b606680546001600160a01b0319166001600160a01b0392909216919091179055565b6066546001600160a01b03163314610e5c57600080fd5b6000818152606b6020526040902060018101546001600160a01b03848116911614610e8657600080fd5b6001600782015460ff166003811115610e9b57fe5b14610ea557600080fd5b600701805460ff191660021790555050565b610ebf610ca6565b610f10576040805162461bcd60e51b815260206004820181905260248201527f4f776e61626c653a2063616c6c6572206973206e6f7420746865206f776e6572604482015290519081900360640190fd5b610f1981611173565b50565b606b602052600090815260409020805460018201546002830154600384015460048501546005860154600687015460079097015495966001600160a01b03958616968587169660ff600160a01b9097048716969516941689565b600080808087890381610fa561271061065b610f988a8c63ffffffff61108c16565b859063ffffffff6110ce16565b90506000610fd361271061065b610fc68d6106ba848e63ffffffff61108c16565b869063ffffffff6110ce16565b90506000610feb826106ba868663ffffffff61108c16565b9050600061100082600263ffffffff61112716565b90506000611014838363ffffffff61108c16565b9f919e50929c50929a509198505050505050505050565b600082820183811015611085576040805162461bcd60e51b815260206004820152601b60248201527f536166654d6174683a206164646974696f6e206f766572666c6f770000000000604482015290519081900360640190fd5b9392505050565b600061108583836040518060400160405280601e81526020017f536166654d6174683a207375627472616374696f6e206f766572666c6f770000815250611214565b6000826110dd57506000610732565b828202828482816110ea57fe5b04146110855760405162461bcd60e51b81526004018080602001828103825260218152602001806113556021913960400191505060405180910390fd5b600061108583836040518060400160405280601a81526020017f536166654d6174683a206469766973696f6e206279207a65726f0000000000008152506112ab565b303b1590565b3390565b6001600160a01b0381166111b85760405162461bcd60e51b815260040180806020018281038252602681526020018061132f6026913960400191505060405180910390fd5b6033546040516001600160a01b038084169216907f8be0079c531659141344cd1fd0a4f28419497f9722a3daafe3b4186f6b6457e090600090a3603380546001600160a01b0319166001600160a01b0392909216919091179055565b600081848411156112a35760405162461bcd60e51b81526004018080602001828103825283818151815260200191508051906020019080838360005b83811015611268578181015183820152602001611250565b50505050905090810190601f1680156112955780820380516001836020036101000a031916815260200191505b509250505060405180910390fd5b505050900390565b600081836112fa5760405162461bcd60e51b8152602060048201818152835160248401528351909283926044909101919085019080838360008315611268578181015183820152602001611250565b50600083858161130657fe5b0495945050505050565b6040518060800160405280600490602082028038833950919291505056fe4f776e61626c653a206e6577206f776e657220697320746865207a65726f2061646472657373536166654d6174683a206d756c7469706c69636174696f6e206f766572666c6f77436f6e747261637420696e7374616e63652068617320616c7265616479206265656e20696e697469616c697a6564a265627a7a72315820cbe4d6a967b42d974a010f854e9ecaaf958a631d7584d392ed8082f57a28a67d64736f6c63430005110032",
  "compiler": {
    "name": "solc",
    "version": "0.5.17+commit.d19bba13.Emscripten.clang",
    "optimizer": {
      "enabled": true,
      "runs": 200
    },
    "evmVersion": "petersburg"
  }
}