{
  "fileName": "PairedInvestments.sol",
  "contractName": "PairedInvestments",
  "source": "// \"SPDX-License-Identifier: UNLICENSED\"\npragma solidity >=0.4.21 <0.7.0;\n\nimport \"@openzeppelin/contracts-ethereum-package/contracts/math/SafeMath.sol\";\nimport \"@openzeppelin/upgrades/contracts/Initializable.sol\";\nimport \"@openzeppelin/contracts-ethereum-package/contracts/ownership/Ownable.sol\";\n\ncontract PairedInvestments is Initializable, Ownable {\n\tusing SafeMath for uint256;\n\n\taddress public manager;\n\n\tuint8 constant IDX_ADDRESS_traderAddress \t\t= 0;\n\tuint8 constant IDX_ADDRESS_investorAddress \t\t= 1;\n\n\tuint8 constant IDX_UINT256_investmentId \t\t= 0;\n\tuint8 constant IDX_UINT256_value \t\t\t\t= 1;\n    uint8 constant IDX_UINT256_amount               = 2;\n\n\tuint256 public traderFeePercent; // trader fee percentage in unit of 100, i.e. 100 == 1% and 5 == 0.05% and 10000 == 100%\n    uint256 public investorFeePercent; // investor fee percentage in unit of 100, i.e. 100 == 1% and 5 == 0.05% and 10000 == 100%\n    uint256 public investorProfitPercent;\n\n\tmapping(uint256 => _Investment) public investments;\n    uint256 public investmentCount;\n\n    enum InvestmentState {\n        Invested,\n        Stopped,\n        ExitRequestedInvestor,\n        ExitRequestedTrader,\n        Divested\n    }\n\n    struct _Investment {\n        uint256 id;\n        address trader;\n        address investor;\n        address token;\n        uint256 amount;\n        uint256 value;\n        InvestmentState state;\n    }\n\n    struct _InvestmentArgs {\n    \taddress _traderAddress;\n    \taddress _investorAddress; \n    \tuint256 _investmentId;\n    \tuint256 _amount;\n    }\n\n    modifier onlyManager() {\n        require(manager == msg.sender);\n        _;\n    }\n\n    function initialize(\n\t    \tuint256 _traderFeePercent, \n\t        uint256 _investorFeePercent, \n\t        uint256 _investorProfitPercent) \n        public \n        initializer \n    {\n    \tOwnable.initialize(msg.sender);\n    \ttraderFeePercent = _traderFeePercent;\n        investorFeePercent = _investorFeePercent;\n        investorProfitPercent = _investorProfitPercent;\n    }\n\n    function setManager(address _manager) \n        public \n        onlyOwner \n    {\n        manager = _manager;\n    }\n\n    function invest(address _traderAddress, address _investorAddress, address _token, uint256 _amount) \n        public \n        onlyManager \n        returns(uint256) \n    {\n        \n        investmentCount = investmentCount.add(1);\n        investments[investmentCount] = _Investment({\n                id: investmentCount,\n                trader: _traderAddress,\n                investor: _investorAddress,\n                token: _token,\n                amount: _amount,\n                value: 0,\n                state: InvestmentState.Invested\n            });\n\n        return investmentCount;\n    }\n\n    function stop(address _traderAddress, address _investorAddress, uint256 _investmentId) \n        public \n        onlyManager \n    {\n        _Investment storage _investment = investments[_investmentId];\n\n        require(_investment.trader == _traderAddress);\n        require(_investment.investor == _investorAddress);\n        require(_investment.state == InvestmentState.Invested);\n\n        _investment.state = InvestmentState.Stopped;\n    }\n\n    function requestExitInvestor(address _traderAddress, address _investorAddress, uint256 _investmentId, uint256 _value) \n        public  \n    {\n        _requestExit(_traderAddress, _investorAddress, _investmentId, _value, InvestmentState.ExitRequestedInvestor);\n    }\n\n    function requestExitTrader(address _traderAddress, address _investorAddress, uint256 _investmentId, uint256 _value, uint256 _amount) \n        public \n    {\n        _Investment memory _investment = investments[_investmentId];\n\n        if (_value > _investment.amount) {\n\n            (\n                uint256 _traderFee,\n                uint256 _investorFee,\n                ,\n                uint256 _investorProfit\n            ) = _calculateProfitsAndFees(\n                _value, \n                _investment.amount, \n                traderFeePercent, \n                investorFeePercent, \n                investorProfitPercent\n            );\n\n            require(_investorProfit.add(_traderFee).add(_investorFee) == _amount);\n            \n        } else {\n\n            uint256 _traderFee = (_investment.amount.sub(_value)).mul(traderFeePercent).div(10000);\n\n            require(_traderFee == _amount);\n        }\n\n        _requestExit(_traderAddress, _investorAddress, _investmentId, _value, InvestmentState.ExitRequestedTrader);\n    }\n\n    function _requestExit(address _traderAddress, address _investorAddress, uint256 _investmentId, uint256 _value, InvestmentState _state) \n        internal \n        onlyManager \n    {\n        _Investment storage _investment = investments[_investmentId];\n\n        require(_investment.trader == _traderAddress);\n        require(_investment.investor == _investorAddress);\n        require(_investment.state == InvestmentState.Stopped);\n\n        _investment.value = _value;\n        _investment.state = _state;\n    }\n\n    function approveExit(address _traderAddress, address _investorAddress, uint256 _investmentId, uint256 _amount) \n        public \n        onlyManager \n        returns (uint256[4] memory result) \n    {\n\n        _Investment storage _investment = investments[_investmentId];\n        require(_investment.trader == _traderAddress);\n        require(_investment.investor == _investorAddress);\n        require(_investment.state == InvestmentState.ExitRequestedInvestor || \n                _investment.state == InvestmentState.ExitRequestedTrader);\n\n        if (_investment.value > _investment.amount) {\n\n        \t(\n            \tuint256 _traderFee,\n            \tuint256 _investorFee,\n            \t,\n            \tuint256 _investorProfit\n            ) = _calculateProfitsAndFees(\n            \t_investment.value, \n            \t_investment.amount, \n            \ttraderFeePercent, \n            \tinvestorFeePercent, \n            \tinvestorProfitPercent\n            );\n\n            // if the investor requested the exit, the trader will have to pay the amount\n            // if the trader requested the exit, they've already paid the amount\n            if (_investment.state == InvestmentState.ExitRequestedInvestor) {\n                require(_investorProfit.add(_traderFee).add(_investorFee) == _amount);\n            } else {\n                require(0 == _amount);\n            }\n\n            // investment amount plus profit (minus fee)\n            result[1] = _investment.amount.add(_investorProfit);\n\n            // pay trader and investor fee\n            result[2] = _traderFee.add(_investorFee);\n            \n            \n        } else {\n\n        \tuint256 _traderFee = (_investment.amount.sub(_investment.value)).mul(traderFeePercent).div(10000);\n\n            // if the investor requested the exit, the trader will have to pay the amount\n            // if the trader requested the exit, they've already paid the amount\n            if (_investment.state == InvestmentState.ExitRequestedInvestor) {\n        \t   require(_traderFee == _amount);\n            } else {\n                require(0 == _amount);\n            }\n\n            // take losses away from investor\n            result[1] = _investment.value;\n            \n            // add losses to trader balance\n            result[0] = _investment.amount.sub(_investment.value);\n            \n            // trader fee\n            result[2] = _traderFee;\n        }\n\n        _investment.state = InvestmentState.Divested;\n\n        result[3] = _investment.amount;\n    }\n\n    function _calculateProfitsAndFees(\n\t\tuint256 _value,\n\t\tuint256 _amount,\n\t\tuint256 _traderFeePercent,\n\t\tuint256 _investorFeePercent,\n\t\tuint256 _investorProfitPercent\n\t\t) internal pure returns (uint256, uint256, uint256, uint256) {\n\t\t\n\t\tuint256 _profit = _value - _amount;\n        uint256 _investorProfit = _profit.mul(_investorProfitPercent.sub(_investorFeePercent)).div(10000);\n        uint256 _traderProfit = _profit.mul(uint256(10000).sub(_investorProfitPercent).sub(_traderFeePercent)).div(10000);\n        uint256 _fee = _profit.sub(_investorProfit).sub(_traderProfit);\n        uint256 _investorFee = _fee.div(2);\n        uint256 _traderFee = _fee.sub(_investorFee);\n\n        return (_traderFee, _investorFee, _traderProfit, _investorProfit);\n\t}\n}",
  "sourcePath": "contracts/PairedInvestments.sol",
  "abi": [
    {
      "anonymous": false,
      "inputs": [
        {
          "indexed": true,
          "internalType": "address",
          "name": "previousOwner",
          "type": "address"
        },
        {
          "indexed": true,
          "internalType": "address",
          "name": "newOwner",
          "type": "address"
        }
      ],
      "name": "OwnershipTransferred",
      "type": "event"
    },
    {
      "constant": false,
      "inputs": [
        {
          "internalType": "address",
          "name": "_traderAddress",
          "type": "address"
        },
        {
          "internalType": "address",
          "name": "_investorAddress",
          "type": "address"
        },
        {
          "internalType": "uint256",
          "name": "_investmentId",
          "type": "uint256"
        },
        {
          "internalType": "uint256",
          "name": "_amount",
          "type": "uint256"
        }
      ],
      "name": "approveExit",
      "outputs": [
        {
          "internalType": "uint256[4]",
          "name": "result",
          "type": "uint256[4]"
        }
      ],
      "payable": false,
      "stateMutability": "nonpayable",
      "type": "function"
    },
    {
      "constant": false,
      "inputs": [
        {
          "internalType": "uint256",
          "name": "_traderFeePercent",
          "type": "uint256"
        },
        {
          "internalType": "uint256",
          "name": "_investorFeePercent",
          "type": "uint256"
        },
        {
          "internalType": "uint256",
          "name": "_investorProfitPercent",
          "type": "uint256"
        }
      ],
      "name": "initialize",
      "outputs": [],
      "payable": false,
      "stateMutability": "nonpayable",
      "type": "function"
    },
    {
      "constant": false,
      "inputs": [
        {
          "internalType": "address",
          "name": "sender",
          "type": "address"
        }
      ],
      "name": "initialize",
      "outputs": [],
      "payable": false,
      "stateMutability": "nonpayable",
      "type": "function"
    },
    {
      "constant": false,
      "inputs": [
        {
          "internalType": "address",
          "name": "_traderAddress",
          "type": "address"
        },
        {
          "internalType": "address",
          "name": "_investorAddress",
          "type": "address"
        },
        {
          "internalType": "address",
          "name": "_token",
          "type": "address"
        },
        {
          "internalType": "uint256",
          "name": "_amount",
          "type": "uint256"
        }
      ],
      "name": "invest",
      "outputs": [
        {
          "internalType": "uint256",
          "name": "",
          "type": "uint256"
        }
      ],
      "payable": false,
      "stateMutability": "nonpayable",
      "type": "function"
    },
    {
      "constant": true,
      "inputs": [],
      "name": "investmentCount",
      "outputs": [
        {
          "internalType": "uint256",
          "name": "",
          "type": "uint256"
        }
      ],
      "payable": false,
      "stateMutability": "view",
      "type": "function"
    },
    {
      "constant": true,
      "inputs": [
        {
          "internalType": "uint256",
          "name": "",
          "type": "uint256"
        }
      ],
      "name": "investments",
      "outputs": [
        {
          "internalType": "uint256",
          "name": "id",
          "type": "uint256"
        },
        {
          "internalType": "address",
          "name": "trader",
          "type": "address"
        },
        {
          "internalType": "address",
          "name": "investor",
          "type": "address"
        },
        {
          "internalType": "address",
          "name": "token",
          "type": "address"
        },
        {
          "internalType": "uint256",
          "name": "amount",
          "type": "uint256"
        },
        {
          "internalType": "uint256",
          "name": "value",
          "type": "uint256"
        },
        {
          "internalType": "enum PairedInvestments.InvestmentState",
          "name": "state",
          "type": "uint8"
        }
      ],
      "payable": false,
      "stateMutability": "view",
      "type": "function"
    },
    {
      "constant": true,
      "inputs": [],
      "name": "investorFeePercent",
      "outputs": [
        {
          "internalType": "uint256",
          "name": "",
          "type": "uint256"
        }
      ],
      "payable": false,
      "stateMutability": "view",
      "type": "function"
    },
    {
      "constant": true,
      "inputs": [],
      "name": "investorProfitPercent",
      "outputs": [
        {
          "internalType": "uint256",
          "name": "",
          "type": "uint256"
        }
      ],
      "payable": false,
      "stateMutability": "view",
      "type": "function"
    },
    {
      "constant": true,
      "inputs": [],
      "name": "isOwner",
      "outputs": [
        {
          "internalType": "bool",
          "name": "",
          "type": "bool"
        }
      ],
      "payable": false,
      "stateMutability": "view",
      "type": "function"
    },
    {
      "constant": true,
      "inputs": [],
      "name": "manager",
      "outputs": [
        {
          "internalType": "address",
          "name": "",
          "type": "address"
        }
      ],
      "payable": false,
      "stateMutability": "view",
      "type": "function"
    },
    {
      "constant": true,
      "inputs": [],
      "name": "owner",
      "outputs": [
        {
          "internalType": "address",
          "name": "",
          "type": "address"
        }
      ],
      "payable": false,
      "stateMutability": "view",
      "type": "function"
    },
    {
      "constant": false,
      "inputs": [],
      "name": "renounceOwnership",
      "outputs": [],
      "payable": false,
      "stateMutability": "nonpayable",
      "type": "function"
    },
    {
      "constant": false,
      "inputs": [
        {
          "internalType": "address",
          "name": "_traderAddress",
          "type": "address"
        },
        {
          "internalType": "address",
          "name": "_investorAddress",
          "type": "address"
        },
        {
          "internalType": "uint256",
          "name": "_investmentId",
          "type": "uint256"
        },
        {
          "internalType": "uint256",
          "name": "_value",
          "type": "uint256"
        }
      ],
      "name": "requestExitInvestor",
      "outputs": [],
      "payable": false,
      "stateMutability": "nonpayable",
      "type": "function"
    },
    {
      "constant": false,
      "inputs": [
        {
          "internalType": "address",
          "name": "_traderAddress",
          "type": "address"
        },
        {
          "internalType": "address",
          "name": "_investorAddress",
          "type": "address"
        },
        {
          "internalType": "uint256",
          "name": "_investmentId",
          "type": "uint256"
        },
        {
          "internalType": "uint256",
          "name": "_value",
          "type": "uint256"
        },
        {
          "internalType": "uint256",
          "name": "_amount",
          "type": "uint256"
        }
      ],
      "name": "requestExitTrader",
      "outputs": [],
      "payable": false,
      "stateMutability": "nonpayable",
      "type": "function"
    },
    {
      "constant": false,
      "inputs": [
        {
          "internalType": "address",
          "name": "_manager",
          "type": "address"
        }
      ],
      "name": "setManager",
      "outputs": [],
      "payable": false,
      "stateMutability": "nonpayable",
      "type": "function"
    },
    {
      "constant": false,
      "inputs": [
        {
          "internalType": "address",
          "name": "_traderAddress",
          "type": "address"
        },
        {
          "internalType": "address",
          "name": "_investorAddress",
          "type": "address"
        },
        {
          "internalType": "uint256",
          "name": "_investmentId",
          "type": "uint256"
        }
      ],
      "name": "stop",
      "outputs": [],
      "payable": false,
      "stateMutability": "nonpayable",
      "type": "function"
    },
    {
      "constant": true,
      "inputs": [],
      "name": "traderFeePercent",
      "outputs": [
        {
          "internalType": "uint256",
          "name": "",
          "type": "uint256"
        }
      ],
      "payable": false,
      "stateMutability": "view",
      "type": "function"
    },
    {
      "constant": false,
      "inputs": [
        {
          "internalType": "address",
          "name": "newOwner",
          "type": "address"
        }
      ],
      "name": "transferOwnership",
      "outputs": [],
      "payable": false,
      "stateMutability": "nonpayable",
      "type": "function"
    }
  ],
  "bytecode": "0x60806040526112bf806100136000396000f3fe608060405234801561001057600080fd5b50600436106101165760003560e01c80638da5cb5b116100a25780639c4abeb7116100715780639c4abeb714610324578063c4d66de81461032c578063d0ebdbe714610352578063f2fde38b14610378578063fd345c8a1461039e57610116565b80638da5cb5b146102c25780638f32d59b146102ca57806391db6bb5146102e6578063979d5a26146102ee57610116565b8063468bdb23116100e9578063468bdb2314610223578063481c6a7514610265578063715018a61461028957806380d85911146102915780638c68770b146102ba57610116565b80631752e5681461011b5780631896de5214610159578063246b0e5c146101a757806334872831146101af575b600080fd5b6101576004803603608081101561013157600080fd5b506001600160a01b0381358116916020810135909116906040810135906060013561043f565b005b6101956004803603608081101561016f57600080fd5b506001600160a01b03813581169160208101358216916040820135169060600135610453565b60408051918252519081900360200190f35b61019561059d565b6101eb600480360360808110156101c557600080fd5b506001600160a01b038135811691602081013590911690604081013590606001356105a3565b6040518082608080838360005b838110156102105781810151838201526020016101f8565b5050505090500191505060405180910390f35b610157600480360360a081101561023957600080fd5b506001600160a01b038135811691602081013590911690604081013590606081013590608001356107cb565b61026d610906565b604080516001600160a01b039092168252519081900360200190f35b610157610915565b610157600480360360608110156102a757600080fd5b50803590602081013590604001356109b8565b610195610a74565b61026d610a7a565b6102d2610a89565b604080519115158252519081900360200190f35b610195610aaf565b6101576004803603606081101561030457600080fd5b506001600160a01b03813581169160208101359091169060400135610ab5565b610195610b44565b6101576004803603602081101561034257600080fd5b50356001600160a01b0316610b4a565b6101576004803603602081101561036857600080fd5b50356001600160a01b0316610c3c565b6101576004803603602081101561038e57600080fd5b50356001600160a01b0316610cb7565b6103bb600480360360208110156103b457600080fd5b5035610d1c565b60405180888152602001876001600160a01b03166001600160a01b03168152602001866001600160a01b03166001600160a01b03168152602001856001600160a01b03166001600160a01b0316815260200184815260200183815260200182600481111561042557fe5b60ff16815260200197505050505050505060405180910390f35b61044d848484846002610d6a565b50505050565b6066546000906001600160a01b0316331461046d57600080fd5b606b5461048190600163ffffffff610e1516565b606b819055506040518060e00160405280606b548152602001866001600160a01b03168152602001856001600160a01b03168152602001846001600160a01b0316815260200183815260200160008152602001600060048111156104e157fe5b9052606b546000908152606a60209081526040918290208351815590830151600180830180546001600160a01b03199081166001600160a01b03948516179091559385015160028401805486169184169190911790556060850151600384018054909516921691909117909255608083015160048083019190915560a0840151600583015560c084015160068301805493949193909260ff199091169190849081111561058a57fe5b021790555050606b549695505050505050565b606b5481565b6105ab6111bd565b6066546001600160a01b031633146105c257600080fd5b6000838152606a6020526040902060018101546001600160a01b038781169116146105ec57600080fd5b60028101546001600160a01b0386811691161461060857600080fd5b6002600682015460ff16600481111561061d57fe5b148061063b57506003600682015460ff16600481111561063957fe5b145b61064457600080fd5b80600401548160050154111561070e57600080600061067484600501548560040154606754606854606954610e78565b935050925092506002600481111561068857fe5b600685015460ff16600481111561069b57fe5b14156106d157856106c2836106b6848763ffffffff610e1516565b9063ffffffff610e1516565b146106cc57600080fd5b6106dc565b85156106dc57600080fd5b60048401546106f1908263ffffffff610e1516565b60208601526107008383610e15565b6040860152506107aa915050565b600061074f61271061074360675461073786600501548760040154610f3990919063ffffffff16565b9063ffffffff610f7b16565b9063ffffffff610fd416565b90506002600683015460ff16600481111561076657fe5b141561077d5783811461077857600080fd5b610788565b831561078857600080fd5b60058201546020840181905260048301546107a291610f39565b835260408301525b60068101805460ff1916600490811790915501546060820152949350505050565b6107d36111db565b6000848152606a6020908152604091829020825160e0810184528154815260018201546001600160a01b03908116938201939093526002820154831693810193909352600381015490911660608301526004808201546080840152600582015460a0840152600682015460c084019160ff9091169081111561085157fe5b600481111561085c57fe5b81525050905080608001518311156108bb57600080600061088a868560800151606754606854606954610e78565b93505092509250846108a9836106b68685610e1590919063ffffffff16565b146108b357600080fd5b5050506108f0565b60006108e0612710610743606754610737888760800151610f3990919063ffffffff16565b90508281146108ee57600080fd5b505b6108fe868686866003610d6a565b505050505050565b6066546001600160a01b031681565b61091d610a89565b61096e576040805162461bcd60e51b815260206004820181905260248201527f4f776e61626c653a2063616c6c6572206973206e6f7420746865206f776e6572604482015290519081900360640190fd5b6033546040516000916001600160a01b0316907f8be0079c531659141344cd1fd0a4f28419497f9722a3daafe3b4186f6b6457e0908390a3603380546001600160a01b0319169055565b600054610100900460ff16806109d157506109d1611016565b806109df575060005460ff16155b610a1a5760405162461bcd60e51b815260040180806020018281038252602e81526020018061125d602e913960400191505060405180910390fd5b600054610100900460ff16158015610a45576000805460ff1961ff0019909116610100171660011790555b610a4e33610b4a565b606784905560688390556069829055801561044d576000805461ff001916905550505050565b60685481565b6033546001600160a01b031690565b6033546000906001600160a01b0316610aa061101c565b6001600160a01b031614905090565b60675481565b6066546001600160a01b03163314610acc57600080fd5b6000818152606a6020526040902060018101546001600160a01b03858116911614610af657600080fd5b60028101546001600160a01b03848116911614610b1257600080fd5b6000600682015460ff166004811115610b2757fe5b14610b3157600080fd5b600601805460ff19166001179055505050565b60695481565b600054610100900460ff1680610b635750610b63611016565b80610b71575060005460ff16155b610bac5760405162461bcd60e51b815260040180806020018281038252602e81526020018061125d602e913960400191505060405180910390fd5b600054610100900460ff16158015610bd7576000805460ff1961ff0019909116610100171660011790555b603380546001600160a01b0319166001600160a01b0384811691909117918290556040519116906000907f8be0079c531659141344cd1fd0a4f28419497f9722a3daafe3b4186f6b6457e0908290a38015610c38576000805461ff00191690555b5050565b610c44610a89565b610c95576040805162461bcd60e51b815260206004820181905260248201527f4f776e61626c653a2063616c6c6572206973206e6f7420746865206f776e6572604482015290519081900360640190fd5b606680546001600160a01b0319166001600160a01b0392909216919091179055565b610cbf610a89565b610d10576040805162461bcd60e51b815260206004820181905260248201527f4f776e61626c653a2063616c6c6572206973206e6f7420746865206f776e6572604482015290519081900360640190fd5b610d1981611020565b50565b606a60205260009081526040902080546001820154600283015460038401546004850154600586015460069096015494956001600160a01b0394851695938516949092169290919060ff1687565b6066546001600160a01b03163314610d8157600080fd5b6000838152606a6020526040902060018101546001600160a01b03878116911614610dab57600080fd5b60028101546001600160a01b03868116911614610dc757600080fd5b6001600682015460ff166004811115610ddc57fe5b14610de657600080fd5b6005810183905560068101805483919060ff19166001836004811115610e0857fe5b0217905550505050505050565b600082820183811015610e6f576040805162461bcd60e51b815260206004820152601b60248201527f536166654d6174683a206164646974696f6e206f766572666c6f770000000000604482015290519081900360640190fd5b90505b92915050565b600080808087890381610ea7612710610743610e9a8a8c63ffffffff610f3916565b859063ffffffff610f7b16565b90506000610ee1612710610743610ed48d610ec8848e63ffffffff610f3916565b9063ffffffff610f3916565b869063ffffffff610f7b16565b90506000610ef982610ec8868663ffffffff610f3916565b90506000610f0e82600263ffffffff610fd416565b90506000610f22838363ffffffff610f3916565b9f919e50929c50929a509198505050505050505050565b6000610e6f83836040518060400160405280601e81526020017f536166654d6174683a207375627472616374696f6e206f766572666c6f7700008152506110c1565b600082610f8a57506000610e72565b82820282848281610f9757fe5b0414610e6f5760405162461bcd60e51b815260040180806020018281038252602181526020018061123c6021913960400191505060405180910390fd5b6000610e6f83836040518060400160405280601a81526020017f536166654d6174683a206469766973696f6e206279207a65726f000000000000815250611158565b303b1590565b3390565b6001600160a01b0381166110655760405162461bcd60e51b81526004018080602001828103825260268152602001806112166026913960400191505060405180910390fd5b6033546040516001600160a01b038084169216907f8be0079c531659141344cd1fd0a4f28419497f9722a3daafe3b4186f6b6457e090600090a3603380546001600160a01b0319166001600160a01b0392909216919091179055565b600081848411156111505760405162461bcd60e51b81526004018080602001828103825283818151815260200191508051906020019080838360005b838110156111155781810151838201526020016110fd565b50505050905090810190601f1680156111425780820380516001836020036101000a031916815260200191505b509250505060405180910390fd5b505050900390565b600081836111a75760405162461bcd60e51b81526020600482018181528351602484015283519092839260449091019190850190808383600083156111155781810151838201526020016110fd565b5060008385816111b357fe5b0495945050505050565b60405180608001604052806004906020820280388339509192915050565b6040805160e081018252600080825260208201819052918101829052606081018290526080810182905260a081018290529060c08201529056fe4f776e61626c653a206e6577206f776e657220697320746865207a65726f2061646472657373536166654d6174683a206d756c7469706c69636174696f6e206f766572666c6f77436f6e747261637420696e7374616e63652068617320616c7265616479206265656e20696e697469616c697a6564a265627a7a7231582080a43dec9e91df855887775d1bff2c6e71623161ae05b57c2704aaabaa05202b64736f6c63430005110032",
  "compiler": {
    "name": "solc",
    "version": "0.5.17+commit.d19bba13.Emscripten.clang",
    "optimizer": {
      "enabled": true,
      "runs": 200
    },
    "evmVersion": "petersburg"
  }
}