{
  "fileName": "PairedInvestments.sol",
  "contractName": "PairedInvestments",
  "source": "// \"SPDX-License-Identifier: UNLICENSED\"\npragma solidity >=0.4.21 <0.7.0;\n\nimport \"@openzeppelin/contracts-ethereum-package/contracts/math/SafeMath.sol\";\nimport \"@openzeppelin/upgrades/contracts/Initializable.sol\";\nimport \"@openzeppelin/contracts-ethereum-package/contracts/ownership/Ownable.sol\";\n\ncontract PairedInvestments is Initializable, Ownable {\n\tusing SafeMath for uint256;\n\n\taddress public manager;\n\n\tuint8 constant IDX_ADDRESS_traderAddress \t\t= 0;\n\tuint8 constant IDX_ADDRESS_investorAddress \t\t= 1;\n\n\tuint8 constant IDX_UINT256_investmentId \t\t= 0;\n\tuint8 constant IDX_UINT256_value \t\t\t\t= 1;\n    uint8 constant IDX_UINT256_amount               = 2;\n\n\tuint256 public traderFeePercent; // trader fee percentage in unit of 100, i.e. 100 == 1% and 5 == 0.05% and 10000 == 100%\n    uint256 public investorFeePercent; // investor fee percentage in unit of 100, i.e. 100 == 1% and 5 == 0.05% and 10000 == 100%\n    uint256 public investorProfitPercent;\n\n\tmapping(uint256 => _Investment) public investments;\n    uint256 public investmentCount;\n\n    enum InvestmentState {\n        Invested,\n        Stopped,\n        ExitRequestedInvestor,\n        ExitRequestedTrader,\n        Divested\n    }\n\n    struct _Investment {\n        uint256 id;\n        address trader;\n        address investor;\n        address token;\n        uint256 amount;\n        uint256 value;\n        InvestmentState state;\n    }\n\n    struct _InvestmentArgs {\n    \taddress _traderAddress;\n    \taddress _investorAddress; \n    \tuint256 _investmentId;\n    \tuint256 _amount;\n    }\n\n    modifier onlyManager() {\n        require(manager == msg.sender);\n        _;\n    }\n\n    function initialize(\n\t    \tuint256 _traderFeePercent, \n\t        uint256 _investorFeePercent, \n\t        uint256 _investorProfitPercent) \n        public \n        initializer \n    {\n    \tOwnable.initialize(msg.sender);\n    \ttraderFeePercent = _traderFeePercent;\n        investorFeePercent = _investorFeePercent;\n        investorProfitPercent = _investorProfitPercent;\n    }\n\n    function setManager(address _manager) \n        public \n        onlyOwner \n    {\n        manager = _manager;\n    }\n\n    function invest(address _traderAddress, address _investorAddress, address _token, uint256 _amount) \n        public \n        onlyManager \n        returns(uint256) \n    {\n        \n        investmentCount = investmentCount.add(1);\n        investments[investmentCount] = _Investment({\n                id: investmentCount,\n                trader: _traderAddress,\n                investor: _investorAddress,\n                token: _token,\n                amount: _amount,\n                value: 0,\n                state: InvestmentState.Invested\n            });\n\n        return investmentCount;\n    }\n\n    function stop(address _traderAddress, address _investorAddress, uint256 _investmentId) \n        public \n        onlyManager \n    {\n        _Investment storage _investment = investments[_investmentId];\n\n        require(_investment.trader == _traderAddress);\n        require(_investment.investor == _investorAddress);\n        require(_investment.state == InvestmentState.Invested);\n\n        _investment.state = InvestmentState.Stopped;\n    }\n\n    function requestExitInvestor(address _traderAddress, address _investorAddress, uint256 _investmentId, uint256 _value) \n        public  \n    {\n        _requestExit(_traderAddress, _investorAddress, _investmentId, _value, InvestmentState.ExitRequestedInvestor);\n    }\n\n    function requestExitTrader(address _traderAddress, address _investorAddress, uint256 _investmentId, uint256 _value, uint256 _amount) \n        public \n    {\n        _Investment memory _investment = investments[_investmentId];\n\n        if (_value > _investment.amount) {\n\n            (\n                uint256 _traderFee,\n                uint256 _investorFee,\n                ,\n                uint256 _investorProfit\n            ) = calculateProfitsAndFees(\n                _value, \n                _investment.amount, \n                traderFeePercent, \n                investorFeePercent, \n                investorProfitPercent\n            );\n\n            require(_investorProfit.add(_traderFee).add(_investorFee) == _amount);\n            \n        } else {\n\n            uint256 _traderFee = (_investment.amount.sub(_value)).mul(traderFeePercent).div(10000);\n\n            require(_traderFee == _amount);\n        }\n\n        _requestExit(_traderAddress, _investorAddress, _investmentId, _value, InvestmentState.ExitRequestedTrader);\n    }\n\n    function _requestExit(address _traderAddress, address _investorAddress, uint256 _investmentId, uint256 _value, InvestmentState _state) \n        internal \n        onlyManager \n    {\n        _Investment storage _investment = investments[_investmentId];\n\n        require(_investment.trader == _traderAddress);\n        require(_investment.investor == _investorAddress);\n        require(_investment.state == InvestmentState.Stopped);\n\n        _investment.value = _value;\n        _investment.state = _state;\n    }\n\n    function approveExit(address _traderAddress, address _investorAddress, uint256 _investmentId, uint256 _amount) \n        public \n        onlyManager \n        returns (uint256[5] memory result) \n    {\n\n        _Investment storage _investment = investments[_investmentId];\n        require(_investment.trader == _traderAddress);\n        require(_investment.investor == _investorAddress);\n        require(_investment.state == InvestmentState.ExitRequestedInvestor || \n                _investment.state == InvestmentState.ExitRequestedTrader);\n\n        uint256 _expected = 0;\n\n        if (_investment.value > _investment.amount) {\n\n        \t(\n            \tuint256 _traderFee,\n            \tuint256 _investorFee,\n            \t,\n            \tuint256 _investorProfit\n            ) = calculateProfitsAndFees(\n            \t_investment.value, \n            \t_investment.amount, \n            \ttraderFeePercent, \n            \tinvestorFeePercent, \n            \tinvestorProfitPercent\n            );\n\n            // if the investor requested the exit, the trader will have to pay the amount\n            // if the trader requested the exit, they've already paid the amount\n            if (_investment.state == InvestmentState.ExitRequestedInvestor) {\n                _expected = _investorProfit.add(_traderFee).add(_investorFee);   \n            }\n\n            require(_expected == _amount);\n\n            // investment amount plus profit (minus fee)\n            result[1] = _investment.amount.add(_investorProfit);\n\n            // pay trader and investor fee\n            result[2] = _traderFee.add(_investorFee);\n            \n            \n        } else {\n\n        \tuint256 _traderFee = (_investment.amount.sub(_investment.value)).mul(traderFeePercent).div(10000);\n\n            // if the investor requested the exit, the trader will have to pay the amount\n            // if the trader requested the exit, they've already paid the amount\n            if (_investment.state == InvestmentState.ExitRequestedInvestor) {\n        \t   _expected =_traderFee;\n            }\n\n            require(_expected == _amount);\n\n            // take losses away from investor\n            result[1] = _investment.value;\n            \n            // add losses to trader balance\n            result[0] = _investment.amount.sub(_investment.value);\n            \n            // trader fee\n            result[2] = _traderFee;\n        }\n\n        _investment.state = InvestmentState.Divested;\n\n        result[3] = _investment.amount;\n        result[4] = _expected;\n    }\n\n    function calculateProfitsAndFees(\n\t\tuint256 _value,\n\t\tuint256 _amount,\n\t\tuint256 _traderFeePercent,\n\t\tuint256 _investorFeePercent,\n\t\tuint256 _investorProfitPercent\n\t) public pure returns (uint256, uint256, uint256, uint256) {\n\t\t\n        if (_value > _amount) {\n    \t\tuint256 _profit = _value - _amount;\n            uint256 _investorProfit = _profit.mul(_investorProfitPercent.sub(_investorFeePercent)).div(10000);\n            uint256 _traderProfit = _profit.mul(uint256(10000).sub(_investorProfitPercent).sub(_traderFeePercent)).div(10000);\n            uint256 _fee = _profit.sub(_investorProfit).sub(_traderProfit);\n            uint256 _investorFee = _fee.div(2);\n            uint256 _traderFee = _fee.sub(_investorFee);\n\n            return (_traderFee, _investorFee, _traderProfit, _investorProfit);\n        }\n\n        uint _traderFee = (_amount.sub(_value)).mul(_traderFeePercent).div(10000);\n        return (_traderFee, 0, 0, 0);\n\t}\n}",
  "sourcePath": "contracts/PairedInvestments.sol",
  "abi": [
    {
      "anonymous": false,
      "inputs": [
        {
          "indexed": true,
          "internalType": "address",
          "name": "previousOwner",
          "type": "address"
        },
        {
          "indexed": true,
          "internalType": "address",
          "name": "newOwner",
          "type": "address"
        }
      ],
      "name": "OwnershipTransferred",
      "type": "event"
    },
    {
      "constant": false,
      "inputs": [
        {
          "internalType": "address",
          "name": "_traderAddress",
          "type": "address"
        },
        {
          "internalType": "address",
          "name": "_investorAddress",
          "type": "address"
        },
        {
          "internalType": "uint256",
          "name": "_investmentId",
          "type": "uint256"
        },
        {
          "internalType": "uint256",
          "name": "_amount",
          "type": "uint256"
        }
      ],
      "name": "approveExit",
      "outputs": [
        {
          "internalType": "uint256[5]",
          "name": "result",
          "type": "uint256[5]"
        }
      ],
      "payable": false,
      "stateMutability": "nonpayable",
      "type": "function"
    },
    {
      "constant": true,
      "inputs": [
        {
          "internalType": "uint256",
          "name": "_value",
          "type": "uint256"
        },
        {
          "internalType": "uint256",
          "name": "_amount",
          "type": "uint256"
        },
        {
          "internalType": "uint256",
          "name": "_traderFeePercent",
          "type": "uint256"
        },
        {
          "internalType": "uint256",
          "name": "_investorFeePercent",
          "type": "uint256"
        },
        {
          "internalType": "uint256",
          "name": "_investorProfitPercent",
          "type": "uint256"
        }
      ],
      "name": "calculateProfitsAndFees",
      "outputs": [
        {
          "internalType": "uint256",
          "name": "",
          "type": "uint256"
        },
        {
          "internalType": "uint256",
          "name": "",
          "type": "uint256"
        },
        {
          "internalType": "uint256",
          "name": "",
          "type": "uint256"
        },
        {
          "internalType": "uint256",
          "name": "",
          "type": "uint256"
        }
      ],
      "payable": false,
      "stateMutability": "pure",
      "type": "function"
    },
    {
      "constant": false,
      "inputs": [
        {
          "internalType": "uint256",
          "name": "_traderFeePercent",
          "type": "uint256"
        },
        {
          "internalType": "uint256",
          "name": "_investorFeePercent",
          "type": "uint256"
        },
        {
          "internalType": "uint256",
          "name": "_investorProfitPercent",
          "type": "uint256"
        }
      ],
      "name": "initialize",
      "outputs": [],
      "payable": false,
      "stateMutability": "nonpayable",
      "type": "function"
    },
    {
      "constant": false,
      "inputs": [
        {
          "internalType": "address",
          "name": "sender",
          "type": "address"
        }
      ],
      "name": "initialize",
      "outputs": [],
      "payable": false,
      "stateMutability": "nonpayable",
      "type": "function"
    },
    {
      "constant": false,
      "inputs": [
        {
          "internalType": "address",
          "name": "_traderAddress",
          "type": "address"
        },
        {
          "internalType": "address",
          "name": "_investorAddress",
          "type": "address"
        },
        {
          "internalType": "address",
          "name": "_token",
          "type": "address"
        },
        {
          "internalType": "uint256",
          "name": "_amount",
          "type": "uint256"
        }
      ],
      "name": "invest",
      "outputs": [
        {
          "internalType": "uint256",
          "name": "",
          "type": "uint256"
        }
      ],
      "payable": false,
      "stateMutability": "nonpayable",
      "type": "function"
    },
    {
      "constant": true,
      "inputs": [],
      "name": "investmentCount",
      "outputs": [
        {
          "internalType": "uint256",
          "name": "",
          "type": "uint256"
        }
      ],
      "payable": false,
      "stateMutability": "view",
      "type": "function"
    },
    {
      "constant": true,
      "inputs": [
        {
          "internalType": "uint256",
          "name": "",
          "type": "uint256"
        }
      ],
      "name": "investments",
      "outputs": [
        {
          "internalType": "uint256",
          "name": "id",
          "type": "uint256"
        },
        {
          "internalType": "address",
          "name": "trader",
          "type": "address"
        },
        {
          "internalType": "address",
          "name": "investor",
          "type": "address"
        },
        {
          "internalType": "address",
          "name": "token",
          "type": "address"
        },
        {
          "internalType": "uint256",
          "name": "amount",
          "type": "uint256"
        },
        {
          "internalType": "uint256",
          "name": "value",
          "type": "uint256"
        },
        {
          "internalType": "enum PairedInvestments.InvestmentState",
          "name": "state",
          "type": "uint8"
        }
      ],
      "payable": false,
      "stateMutability": "view",
      "type": "function"
    },
    {
      "constant": true,
      "inputs": [],
      "name": "investorFeePercent",
      "outputs": [
        {
          "internalType": "uint256",
          "name": "",
          "type": "uint256"
        }
      ],
      "payable": false,
      "stateMutability": "view",
      "type": "function"
    },
    {
      "constant": true,
      "inputs": [],
      "name": "investorProfitPercent",
      "outputs": [
        {
          "internalType": "uint256",
          "name": "",
          "type": "uint256"
        }
      ],
      "payable": false,
      "stateMutability": "view",
      "type": "function"
    },
    {
      "constant": true,
      "inputs": [],
      "name": "isOwner",
      "outputs": [
        {
          "internalType": "bool",
          "name": "",
          "type": "bool"
        }
      ],
      "payable": false,
      "stateMutability": "view",
      "type": "function"
    },
    {
      "constant": true,
      "inputs": [],
      "name": "manager",
      "outputs": [
        {
          "internalType": "address",
          "name": "",
          "type": "address"
        }
      ],
      "payable": false,
      "stateMutability": "view",
      "type": "function"
    },
    {
      "constant": true,
      "inputs": [],
      "name": "owner",
      "outputs": [
        {
          "internalType": "address",
          "name": "",
          "type": "address"
        }
      ],
      "payable": false,
      "stateMutability": "view",
      "type": "function"
    },
    {
      "constant": false,
      "inputs": [],
      "name": "renounceOwnership",
      "outputs": [],
      "payable": false,
      "stateMutability": "nonpayable",
      "type": "function"
    },
    {
      "constant": false,
      "inputs": [
        {
          "internalType": "address",
          "name": "_traderAddress",
          "type": "address"
        },
        {
          "internalType": "address",
          "name": "_investorAddress",
          "type": "address"
        },
        {
          "internalType": "uint256",
          "name": "_investmentId",
          "type": "uint256"
        },
        {
          "internalType": "uint256",
          "name": "_value",
          "type": "uint256"
        }
      ],
      "name": "requestExitInvestor",
      "outputs": [],
      "payable": false,
      "stateMutability": "nonpayable",
      "type": "function"
    },
    {
      "constant": false,
      "inputs": [
        {
          "internalType": "address",
          "name": "_traderAddress",
          "type": "address"
        },
        {
          "internalType": "address",
          "name": "_investorAddress",
          "type": "address"
        },
        {
          "internalType": "uint256",
          "name": "_investmentId",
          "type": "uint256"
        },
        {
          "internalType": "uint256",
          "name": "_value",
          "type": "uint256"
        },
        {
          "internalType": "uint256",
          "name": "_amount",
          "type": "uint256"
        }
      ],
      "name": "requestExitTrader",
      "outputs": [],
      "payable": false,
      "stateMutability": "nonpayable",
      "type": "function"
    },
    {
      "constant": false,
      "inputs": [
        {
          "internalType": "address",
          "name": "_manager",
          "type": "address"
        }
      ],
      "name": "setManager",
      "outputs": [],
      "payable": false,
      "stateMutability": "nonpayable",
      "type": "function"
    },
    {
      "constant": false,
      "inputs": [
        {
          "internalType": "address",
          "name": "_traderAddress",
          "type": "address"
        },
        {
          "internalType": "address",
          "name": "_investorAddress",
          "type": "address"
        },
        {
          "internalType": "uint256",
          "name": "_investmentId",
          "type": "uint256"
        }
      ],
      "name": "stop",
      "outputs": [],
      "payable": false,
      "stateMutability": "nonpayable",
      "type": "function"
    },
    {
      "constant": true,
      "inputs": [],
      "name": "traderFeePercent",
      "outputs": [
        {
          "internalType": "uint256",
          "name": "",
          "type": "uint256"
        }
      ],
      "payable": false,
      "stateMutability": "view",
      "type": "function"
    },
    {
      "constant": false,
      "inputs": [
        {
          "internalType": "address",
          "name": "newOwner",
          "type": "address"
        }
      ],
      "name": "transferOwnership",
      "outputs": [],
      "payable": false,
      "stateMutability": "nonpayable",
      "type": "function"
    }
  ],
  "bytecode": "0x6080604052611354806100136000396000f3fe608060405234801561001057600080fd5b50600436106101215760003560e01c80638da5cb5b116100ad578063b9220c3f11610071578063b9220c3f14610337578063c4d66de814610392578063d0ebdbe7146103b8578063f2fde38b146103de578063fd345c8a1461040457610121565b80638da5cb5b146102cd5780638f32d59b146102d557806391db6bb5146102f1578063979d5a26146102f95780639c4abeb71461032f57610121565b8063468bdb23116100f4578063468bdb231461022e578063481c6a7514610270578063715018a61461029457806380d859111461029c5780638c68770b146102c557610121565b80631752e568146101265780631896de5214610164578063246b0e5c146101b257806334872831146101ba575b600080fd5b6101626004803603608081101561013c57600080fd5b506001600160a01b038135811691602081013590911690604081013590606001356104a5565b005b6101a06004803603608081101561017a57600080fd5b506001600160a01b038135811691602081013582169160408201351690606001356104b9565b60408051918252519081900360200190f35b6101a0610603565b6101f6600480360360808110156101d057600080fd5b506001600160a01b03813581169160208101359091169060408101359060600135610609565b604051808260a080838360005b8381101561021b578181015183820152602001610203565b5050505090500191505060405180910390f35b610162600480360360a081101561024457600080fd5b506001600160a01b03813581169160208101359091169060408101359060608101359060800135610823565b61027861095e565b604080516001600160a01b039092168252519081900360200190f35b61016261096d565b610162600480360360608110156102b257600080fd5b5080359060208101359060400135610a10565b6101a0610acc565b610278610ad2565b6102dd610ae1565b604080519115158252519081900360200190f35b6101a0610b07565b6101626004803603606081101561030f57600080fd5b506001600160a01b03813581169160208101359091169060400135610b0d565b6101a0610b9c565b61036c600480360360a081101561034d57600080fd5b5080359060208101359060408101359060608101359060800135610ba2565b604080519485526020850193909352838301919091526060830152519081900360800190f35b610162600480360360208110156103a857600080fd5b50356001600160a01b0316610ca0565b610162600480360360208110156103ce57600080fd5b50356001600160a01b0316610d92565b610162600480360360208110156103f457600080fd5b50356001600160a01b0316610e0d565b6104216004803603602081101561041a57600080fd5b5035610e72565b60405180888152602001876001600160a01b03166001600160a01b03168152602001866001600160a01b03166001600160a01b03168152602001856001600160a01b03166001600160a01b0316815260200184815260200183815260200182600481111561048b57fe5b60ff16815260200197505050505050505060405180910390f35b6104b3848484846002610ec0565b50505050565b6066546000906001600160a01b031633146104d357600080fd5b606b546104e790600163ffffffff610f6b16565b606b819055506040518060e00160405280606b548152602001866001600160a01b03168152602001856001600160a01b03168152602001846001600160a01b03168152602001838152602001600081526020016000600481111561054757fe5b9052606b546000908152606a60209081526040918290208351815590830151600180830180546001600160a01b03199081166001600160a01b03948516179091559385015160028401805486169184169190911790556060850151600384018054909516921691909117909255608083015160048083019190915560a0840151600583015560c084015160068301805493949193909260ff19909116919084908111156105f057fe5b021790555050606b549695505050505050565b606b5481565b610611611252565b6066546001600160a01b0316331461062857600080fd5b6000838152606a6020526040902060018101546001600160a01b0387811691161461065257600080fd5b60028101546001600160a01b0386811691161461066e57600080fd5b6002600682015460ff16600481111561068357fe5b14806106a157506003600682015460ff16600481111561069f57fe5b145b6106aa57600080fd5b60048101546005820154600091101561076b5760008060006106dd85600501548660040154606754606854606954610ba2565b93505092509250600260048111156106f157fe5b600686015460ff16600481111561070457fe5b141561072d5761072a8261071e838663ffffffff610f6b16565b9063ffffffff610f6b16565b93505b86841461073957600080fd5b600485015461074e908263ffffffff610f6b16565b602087015261075d8383610f6b565b6040870152506107fb915050565b60006107ac6127106107a060675461079487600501548860040154610fce90919063ffffffff16565b9063ffffffff61101016565b9063ffffffff61106916565b90506002600684015460ff1660048111156107c357fe5b14156107cd578091505b8482146107d957600080fd5b60058301546020850181905260048401546107f391610fce565b845260408401525b60068201805460ff191660049081179091559091015460608301526080820152949350505050565b61082b611270565b6000848152606a6020908152604091829020825160e0810184528154815260018201546001600160a01b03908116938201939093526002820154831693810193909352600381015490911660608301526004808201546080840152600582015460a0840152600682015460c084019160ff909116908111156108a957fe5b60048111156108b457fe5b81525050905080608001518311156109135760008060006108e2868560800151606754606854606954610ba2565b93505092509250846109018361071e8685610f6b90919063ffffffff16565b1461090b57600080fd5b505050610948565b60006109386127106107a0606754610794888760800151610fce90919063ffffffff16565b905082811461094657600080fd5b505b610956868686866003610ec0565b505050505050565b6066546001600160a01b031681565b610975610ae1565b6109c6576040805162461bcd60e51b815260206004820181905260248201527f4f776e61626c653a2063616c6c6572206973206e6f7420746865206f776e6572604482015290519081900360640190fd5b6033546040516000916001600160a01b0316907f8be0079c531659141344cd1fd0a4f28419497f9722a3daafe3b4186f6b6457e0908390a3603380546001600160a01b0319169055565b600054610100900460ff1680610a295750610a296110ab565b80610a37575060005460ff16155b610a725760405162461bcd60e51b815260040180806020018281038252602e8152602001806112f2602e913960400191505060405180910390fd5b600054610100900460ff16158015610a9d576000805460ff1961ff0019909116610100171660011790555b610aa633610ca0565b60678490556068839055606982905580156104b3576000805461ff001916905550505050565b60685481565b6033546001600160a01b031690565b6033546000906001600160a01b0316610af86110b1565b6001600160a01b031614905090565b60675481565b6066546001600160a01b03163314610b2457600080fd5b6000818152606a6020526040902060018101546001600160a01b03858116911614610b4e57600080fd5b60028101546001600160a01b03848116911614610b6a57600080fd5b6000600682015460ff166004811115610b7f57fe5b14610b8957600080fd5b600601805460ff19166001179055505050565b60695481565b60008060008087891115610c6a578789036000610bdb6127106107a0610bce8a8c63ffffffff610fce16565b859063ffffffff61101016565b90506000610c156127106107a0610c088d610bfc848e63ffffffff610fce16565b9063ffffffff610fce16565b869063ffffffff61101016565b90506000610c2d82610bfc868663ffffffff610fce16565b90506000610c4282600263ffffffff61106916565b90506000610c56838363ffffffff610fce16565b9950909750919550919350610c9492505050565b6000610c866127106107a08a6107948d8f63ffffffff610fce16565b945060009350839250829150505b95509550955095915050565b600054610100900460ff1680610cb95750610cb96110ab565b80610cc7575060005460ff16155b610d025760405162461bcd60e51b815260040180806020018281038252602e8152602001806112f2602e913960400191505060405180910390fd5b600054610100900460ff16158015610d2d576000805460ff1961ff0019909116610100171660011790555b603380546001600160a01b0319166001600160a01b0384811691909117918290556040519116906000907f8be0079c531659141344cd1fd0a4f28419497f9722a3daafe3b4186f6b6457e0908290a38015610d8e576000805461ff00191690555b5050565b610d9a610ae1565b610deb576040805162461bcd60e51b815260206004820181905260248201527f4f776e61626c653a2063616c6c6572206973206e6f7420746865206f776e6572604482015290519081900360640190fd5b606680546001600160a01b0319166001600160a01b0392909216919091179055565b610e15610ae1565b610e66576040805162461bcd60e51b815260206004820181905260248201527f4f776e61626c653a2063616c6c6572206973206e6f7420746865206f776e6572604482015290519081900360640190fd5b610e6f816110b5565b50565b606a60205260009081526040902080546001820154600283015460038401546004850154600586015460069096015494956001600160a01b0394851695938516949092169290919060ff1687565b6066546001600160a01b03163314610ed757600080fd5b6000838152606a6020526040902060018101546001600160a01b03878116911614610f0157600080fd5b60028101546001600160a01b03868116911614610f1d57600080fd5b6001600682015460ff166004811115610f3257fe5b14610f3c57600080fd5b6005810183905560068101805483919060ff19166001836004811115610f5e57fe5b0217905550505050505050565b600082820183811015610fc5576040805162461bcd60e51b815260206004820152601b60248201527f536166654d6174683a206164646974696f6e206f766572666c6f770000000000604482015290519081900360640190fd5b90505b92915050565b6000610fc583836040518060400160405280601e81526020017f536166654d6174683a207375627472616374696f6e206f766572666c6f770000815250611156565b60008261101f57506000610fc8565b8282028284828161102c57fe5b0414610fc55760405162461bcd60e51b81526004018080602001828103825260218152602001806112d16021913960400191505060405180910390fd5b6000610fc583836040518060400160405280601a81526020017f536166654d6174683a206469766973696f6e206279207a65726f0000000000008152506111ed565b303b1590565b3390565b6001600160a01b0381166110fa5760405162461bcd60e51b81526004018080602001828103825260268152602001806112ab6026913960400191505060405180910390fd5b6033546040516001600160a01b038084169216907f8be0079c531659141344cd1fd0a4f28419497f9722a3daafe3b4186f6b6457e090600090a3603380546001600160a01b0319166001600160a01b0392909216919091179055565b600081848411156111e55760405162461bcd60e51b81526004018080602001828103825283818151815260200191508051906020019080838360005b838110156111aa578181015183820152602001611192565b50505050905090810190601f1680156111d75780820380516001836020036101000a031916815260200191505b509250505060405180910390fd5b505050900390565b6000818361123c5760405162461bcd60e51b81526020600482018181528351602484015283519092839260449091019190850190808383600083156111aa578181015183820152602001611192565b50600083858161124857fe5b0495945050505050565b6040518060a001604052806005906020820280388339509192915050565b6040805160e081018252600080825260208201819052918101829052606081018290526080810182905260a081018290529060c08201529056fe4f776e61626c653a206e6577206f776e657220697320746865207a65726f2061646472657373536166654d6174683a206d756c7469706c69636174696f6e206f766572666c6f77436f6e747261637420696e7374616e63652068617320616c7265616479206265656e20696e697469616c697a6564a265627a7a72315820f12ae0094be3290ea4149b428904c61b2247e0ffa4e6ebc6fb2d8aa1e43e2a2b64736f6c63430005110032",
  "compiler": {
    "name": "solc",
    "version": "0.5.17+commit.d19bba13.Emscripten.clang",
    "optimizer": {
      "enabled": true,
      "runs": 200
    },
    "evmVersion": "petersburg"
  }
}