{
  "fileName": "PairedInvestments.sol",
  "contractName": "PairedInvestments",
  "source": "// \"SPDX-License-Identifier: UNLICENSED\"\npragma solidity >=0.4.21 <0.7.0;\n\nimport \"@openzeppelin/contracts-ethereum-package/contracts/math/SafeMath.sol\";\nimport \"@openzeppelin/upgrades/contracts/Initializable.sol\";\nimport \"@openzeppelin/contracts-ethereum-package/contracts/ownership/Ownable.sol\";\n\ncontract PairedInvestments is Initializable, Ownable {\n\tusing SafeMath for uint256;\n\n\taddress public manager;\n\n\tuint8 constant IDX_ADDRESS_traderAddress \t\t= 0;\n\tuint8 constant IDX_ADDRESS_investorAddress \t\t= 1;\n\n\tuint8 constant IDX_UINT256_investmentId \t\t= 0;\n\tuint8 constant IDX_UINT256_value \t\t\t\t= 1;\n    uint8 constant IDX_UINT256_amount               = 2;\n\n\tuint256 public traderFeePercent; // trader fee percentage in unit of 100, i.e. 100 == 1% and 5 == 0.05% and 10000 == 100%\n    uint256 public investorFeePercent; // investor fee percentage in unit of 100, i.e. 100 == 1% and 5 == 0.05% and 10000 == 100%\n    uint256 public investorProfitPercent;\n\n\tmapping(uint256 => _Investment) public investments;\n    uint256 public investmentCount;\n\n    enum InvestmentState {\n        Invested,\n        ExitRequestedInvestor,\n        ExitRequestedTrader,\n        Divested\n    }\n\n    struct _Investment {\n        uint256 id;\n        address trader;\n        address investor;\n        address token;\n        uint256 amount;\n        uint256 value;\n        InvestmentState state;\n    }\n\n    struct _InvestmentArgs {\n    \taddress _traderAddress;\n    \taddress _investorAddress; \n    \tuint256 _investmentId;\n    \tuint256 _amount;\n    }\n\n    modifier onlyManager() {\n        require(manager == msg.sender);\n        _;\n    }\n\n    function initialize(\n\t    \tuint256 _traderFeePercent, \n\t        uint256 _investorFeePercent, \n\t        uint256 _investorProfitPercent) \n        public \n        initializer \n    {\n    \tOwnable.initialize(msg.sender);\n    \ttraderFeePercent = _traderFeePercent;\n        investorFeePercent = _investorFeePercent;\n        investorProfitPercent = _investorProfitPercent;\n    }\n\n    function setManager(address _manager) \n        public \n        onlyOwner \n    {\n        manager = _manager;\n    }\n\n    function invest(address _traderAddress, address _investorAddress, address _token, uint256 _amount) \n        public \n        onlyManager \n        returns(uint256) \n    {\n        \n        investmentCount = investmentCount.add(1);\n        investments[investmentCount] = _Investment({\n                id: investmentCount,\n                trader: _traderAddress,\n                investor: _investorAddress,\n                token: _token,\n                amount: _amount,\n                value: 0,\n                state: InvestmentState.Invested\n            });\n\n        return investmentCount;\n    }\n\n    function requestExitInvestor(address _traderAddress, address _investorAddress, uint256 _investmentId, uint256 _value) \n        public  \n    {\n        _requestExit(_traderAddress, _investorAddress, _investmentId, _value, InvestmentState.ExitRequestedInvestor);\n    }\n\n    function requestExitTrader(address _traderAddress, address _investorAddress, uint256 _investmentId, uint256 _value, uint256 _amount) \n        public \n    {\n        _Investment memory _investment = investments[_investmentId];\n\n        if (_value > _investment.amount) {\n\n            (\n                uint256 _traderFee,\n                uint256 _investorFee,\n                ,\n                uint256 _investorProfit\n            ) = _calculateProfitsAndFees(\n                _value, \n                _investment.amount, \n                traderFeePercent, \n                investorFeePercent, \n                investorProfitPercent\n            );\n\n            require(_investorProfit.add(_traderFee).add(_investorFee) == _amount);\n            \n        } else {\n\n            uint256 _traderFee = (_investment.amount.sub(_value)).mul(traderFeePercent).div(10000);\n\n            require(_traderFee == _amount);\n        }\n\n        _requestExit(_traderAddress, _investorAddress, _investmentId, _value, InvestmentState.ExitRequestedTrader);\n    }\n\n    function _requestExit(address _traderAddress, address _investorAddress, uint256 _investmentId, uint256 _value, InvestmentState _state) \n        internal \n        onlyManager \n    {\n        _Investment storage _investment = investments[_investmentId];\n\n        require(_investment.trader == _traderAddress);\n        require(_investment.investor == _investorAddress);\n        require(_investment.state == InvestmentState.Invested);\n\n        _investment.value = _value;\n        _investment.state = _state;\n    }\n\n    function approveExit(address _traderAddress, address _investorAddress, uint256 _investmentId, uint256 _amount) \n        public \n        onlyManager \n        returns (uint256[4] memory result) \n    {\n\n        _Investment storage _investment = investments[_investmentId];\n        require(_investment.trader == _traderAddress);\n        require(_investment.investor == _investorAddress);\n        require(_investment.state == InvestmentState.ExitRequestedInvestor || \n                _investment.state == InvestmentState.ExitRequestedTrader);\n\n        if (_investment.value > _investment.amount) {\n\n        \t(\n            \tuint256 _traderFee,\n            \tuint256 _investorFee,\n            \t,\n            \tuint256 _investorProfit\n            ) = _calculateProfitsAndFees(\n            \t_investment.value, \n            \t_investment.amount, \n            \ttraderFeePercent, \n            \tinvestorFeePercent, \n            \tinvestorProfitPercent\n            );\n\n            // if the investor requested the exit, the trader will have to pay the amount\n            // if the trader requested the exit, they've already paid the amount\n            if (_investment.state == InvestmentState.ExitRequestedInvestor) {\n                require(_investorProfit.add(_traderFee).add(_investorFee) == _amount);\n            } else {\n                require(0 == _amount);\n            }\n\n            // investment amount plus profit (minus fee)\n            result[1] = _investment.amount.add(_investorProfit);\n\n            // pay trader and investor fee\n            result[2] = _traderFee.add(_investorFee);\n            \n            \n        } else {\n\n        \tuint256 _traderFee = (_investment.amount.sub(_investment.value)).mul(traderFeePercent).div(10000);\n\n            // if the investor requested the exit, the trader will have to pay the amount\n            // if the trader requested the exit, they've already paid the amount\n            if (_investment.state == InvestmentState.ExitRequestedInvestor) {\n        \t   require(_traderFee == _amount);\n            } else {\n                require(0 == _amount);\n            }\n\n            // take losses away from investor\n            result[1] = _investment.value;\n            \n            // add losses to trader balance\n            result[0] = _investment.amount.sub(_investment.value);\n            \n            // trader fee\n            result[2] = _traderFee;\n        }\n\n        _investment.state = InvestmentState.Divested;\n\n        result[3] = _investment.amount;\n    }\n\n    function _calculateProfitsAndFees(\n\t\tuint256 _value,\n\t\tuint256 _amount,\n\t\tuint256 _traderFeePercent,\n\t\tuint256 _investorFeePercent,\n\t\tuint256 _investorProfitPercent\n\t\t) internal pure returns (uint256, uint256, uint256, uint256) {\n\t\t\n\t\tuint256 _profit = _value - _amount;\n        uint256 _investorProfit = _profit.mul(_investorProfitPercent.sub(_investorFeePercent)).div(10000);\n        uint256 _traderProfit = _profit.mul(uint256(10000).sub(_investorProfitPercent).sub(_traderFeePercent)).div(10000);\n        uint256 _fee = _profit.sub(_investorProfit).sub(_traderProfit);\n        uint256 _investorFee = _fee.div(2);\n        uint256 _traderFee = _fee.sub(_investorFee);\n\n        return (_traderFee, _investorFee, _traderProfit, _investorProfit);\n\t}\n}",
  "sourcePath": "contracts/PairedInvestments.sol",
  "abi": [
    {
      "anonymous": false,
      "inputs": [
        {
          "indexed": true,
          "internalType": "address",
          "name": "previousOwner",
          "type": "address"
        },
        {
          "indexed": true,
          "internalType": "address",
          "name": "newOwner",
          "type": "address"
        }
      ],
      "name": "OwnershipTransferred",
      "type": "event"
    },
    {
      "constant": false,
      "inputs": [
        {
          "internalType": "address",
          "name": "_traderAddress",
          "type": "address"
        },
        {
          "internalType": "address",
          "name": "_investorAddress",
          "type": "address"
        },
        {
          "internalType": "uint256",
          "name": "_investmentId",
          "type": "uint256"
        },
        {
          "internalType": "uint256",
          "name": "_amount",
          "type": "uint256"
        }
      ],
      "name": "approveExit",
      "outputs": [
        {
          "internalType": "uint256[4]",
          "name": "result",
          "type": "uint256[4]"
        }
      ],
      "payable": false,
      "stateMutability": "nonpayable",
      "type": "function"
    },
    {
      "constant": false,
      "inputs": [
        {
          "internalType": "uint256",
          "name": "_traderFeePercent",
          "type": "uint256"
        },
        {
          "internalType": "uint256",
          "name": "_investorFeePercent",
          "type": "uint256"
        },
        {
          "internalType": "uint256",
          "name": "_investorProfitPercent",
          "type": "uint256"
        }
      ],
      "name": "initialize",
      "outputs": [],
      "payable": false,
      "stateMutability": "nonpayable",
      "type": "function"
    },
    {
      "constant": false,
      "inputs": [
        {
          "internalType": "address",
          "name": "sender",
          "type": "address"
        }
      ],
      "name": "initialize",
      "outputs": [],
      "payable": false,
      "stateMutability": "nonpayable",
      "type": "function"
    },
    {
      "constant": false,
      "inputs": [
        {
          "internalType": "address",
          "name": "_traderAddress",
          "type": "address"
        },
        {
          "internalType": "address",
          "name": "_investorAddress",
          "type": "address"
        },
        {
          "internalType": "address",
          "name": "_token",
          "type": "address"
        },
        {
          "internalType": "uint256",
          "name": "_amount",
          "type": "uint256"
        }
      ],
      "name": "invest",
      "outputs": [
        {
          "internalType": "uint256",
          "name": "",
          "type": "uint256"
        }
      ],
      "payable": false,
      "stateMutability": "nonpayable",
      "type": "function"
    },
    {
      "constant": true,
      "inputs": [],
      "name": "investmentCount",
      "outputs": [
        {
          "internalType": "uint256",
          "name": "",
          "type": "uint256"
        }
      ],
      "payable": false,
      "stateMutability": "view",
      "type": "function"
    },
    {
      "constant": true,
      "inputs": [
        {
          "internalType": "uint256",
          "name": "",
          "type": "uint256"
        }
      ],
      "name": "investments",
      "outputs": [
        {
          "internalType": "uint256",
          "name": "id",
          "type": "uint256"
        },
        {
          "internalType": "address",
          "name": "trader",
          "type": "address"
        },
        {
          "internalType": "address",
          "name": "investor",
          "type": "address"
        },
        {
          "internalType": "address",
          "name": "token",
          "type": "address"
        },
        {
          "internalType": "uint256",
          "name": "amount",
          "type": "uint256"
        },
        {
          "internalType": "uint256",
          "name": "value",
          "type": "uint256"
        },
        {
          "internalType": "enum PairedInvestments.InvestmentState",
          "name": "state",
          "type": "uint8"
        }
      ],
      "payable": false,
      "stateMutability": "view",
      "type": "function"
    },
    {
      "constant": true,
      "inputs": [],
      "name": "investorFeePercent",
      "outputs": [
        {
          "internalType": "uint256",
          "name": "",
          "type": "uint256"
        }
      ],
      "payable": false,
      "stateMutability": "view",
      "type": "function"
    },
    {
      "constant": true,
      "inputs": [],
      "name": "investorProfitPercent",
      "outputs": [
        {
          "internalType": "uint256",
          "name": "",
          "type": "uint256"
        }
      ],
      "payable": false,
      "stateMutability": "view",
      "type": "function"
    },
    {
      "constant": true,
      "inputs": [],
      "name": "isOwner",
      "outputs": [
        {
          "internalType": "bool",
          "name": "",
          "type": "bool"
        }
      ],
      "payable": false,
      "stateMutability": "view",
      "type": "function"
    },
    {
      "constant": true,
      "inputs": [],
      "name": "manager",
      "outputs": [
        {
          "internalType": "address",
          "name": "",
          "type": "address"
        }
      ],
      "payable": false,
      "stateMutability": "view",
      "type": "function"
    },
    {
      "constant": true,
      "inputs": [],
      "name": "owner",
      "outputs": [
        {
          "internalType": "address",
          "name": "",
          "type": "address"
        }
      ],
      "payable": false,
      "stateMutability": "view",
      "type": "function"
    },
    {
      "constant": false,
      "inputs": [],
      "name": "renounceOwnership",
      "outputs": [],
      "payable": false,
      "stateMutability": "nonpayable",
      "type": "function"
    },
    {
      "constant": false,
      "inputs": [
        {
          "internalType": "address",
          "name": "_traderAddress",
          "type": "address"
        },
        {
          "internalType": "address",
          "name": "_investorAddress",
          "type": "address"
        },
        {
          "internalType": "uint256",
          "name": "_investmentId",
          "type": "uint256"
        },
        {
          "internalType": "uint256",
          "name": "_value",
          "type": "uint256"
        }
      ],
      "name": "requestExitInvestor",
      "outputs": [],
      "payable": false,
      "stateMutability": "nonpayable",
      "type": "function"
    },
    {
      "constant": false,
      "inputs": [
        {
          "internalType": "address",
          "name": "_traderAddress",
          "type": "address"
        },
        {
          "internalType": "address",
          "name": "_investorAddress",
          "type": "address"
        },
        {
          "internalType": "uint256",
          "name": "_investmentId",
          "type": "uint256"
        },
        {
          "internalType": "uint256",
          "name": "_value",
          "type": "uint256"
        },
        {
          "internalType": "uint256",
          "name": "_amount",
          "type": "uint256"
        }
      ],
      "name": "requestExitTrader",
      "outputs": [],
      "payable": false,
      "stateMutability": "nonpayable",
      "type": "function"
    },
    {
      "constant": false,
      "inputs": [
        {
          "internalType": "address",
          "name": "_manager",
          "type": "address"
        }
      ],
      "name": "setManager",
      "outputs": [],
      "payable": false,
      "stateMutability": "nonpayable",
      "type": "function"
    },
    {
      "constant": true,
      "inputs": [],
      "name": "traderFeePercent",
      "outputs": [
        {
          "internalType": "uint256",
          "name": "",
          "type": "uint256"
        }
      ],
      "payable": false,
      "stateMutability": "view",
      "type": "function"
    },
    {
      "constant": false,
      "inputs": [
        {
          "internalType": "address",
          "name": "newOwner",
          "type": "address"
        }
      ],
      "name": "transferOwnership",
      "outputs": [],
      "payable": false,
      "stateMutability": "nonpayable",
      "type": "function"
    }
  ],
  "bytecode": "0x60806040526111ea806100136000396000f3fe608060405234801561001057600080fd5b506004361061010b5760003560e01c80638c68770b116100a25780639c4abeb7116100715780639c4abeb7146102e3578063c4d66de8146102eb578063d0ebdbe714610311578063f2fde38b14610337578063fd345c8a1461035d5761010b565b80638c68770b146102af5780638da5cb5b146102b75780638f32d59b146102bf57806391db6bb5146102db5761010b565b8063468bdb23116100de578063468bdb2314610218578063481c6a751461025a578063715018a61461027e57806380d85911146102865761010b565b80631752e568146101105780631896de521461014e578063246b0e5c1461019c57806334872831146101a4575b600080fd5b61014c6004803603608081101561012657600080fd5b506001600160a01b038135811691602081013590911690604081013590606001356103fe565b005b61018a6004803603608081101561016457600080fd5b506001600160a01b03813581169160208101358216916040820135169060600135610412565b60408051918252519081900360200190f35b61018a610558565b6101e0600480360360808110156101ba57600080fd5b506001600160a01b0381358116916020810135909116906040810135906060013561055e565b6040518082608080838360005b838110156102055781810151838201526020016101ed565b5050505090500191505060405180910390f35b61014c600480360360a081101561022e57600080fd5b506001600160a01b03813581169160208101359091169060408101359060608101359060800135610785565b6102626108c0565b604080516001600160a01b039092168252519081900360200190f35b61014c6108cf565b61014c6004803603606081101561029c57600080fd5b5080359060208101359060400135610972565b61018a610a2e565b610262610a34565b6102c7610a43565b604080519115158252519081900360200190f35b61018a610a69565b61018a610a6f565b61014c6004803603602081101561030157600080fd5b50356001600160a01b0316610a75565b61014c6004803603602081101561032757600080fd5b50356001600160a01b0316610b67565b61014c6004803603602081101561034d57600080fd5b50356001600160a01b0316610be2565b61037a6004803603602081101561037357600080fd5b5035610c47565b60405180888152602001876001600160a01b03166001600160a01b03168152602001866001600160a01b03166001600160a01b03168152602001856001600160a01b03166001600160a01b031681526020018481526020018381526020018260038111156103e457fe5b60ff16815260200197505050505050505060405180910390f35b61040c848484846001610c95565b50505050565b6066546000906001600160a01b0316331461042c57600080fd5b606b5461044090600163ffffffff610d4016565b606b819055506040518060e00160405280606b548152602001866001600160a01b03168152602001856001600160a01b03168152602001846001600160a01b0316815260200183815260200160008152602001600060038111156104a057fe5b9052606b546000908152606a60209081526040918290208351815590830151600180830180546001600160a01b03199081166001600160a01b039485161790915593850151600284018054861691841691909117905560608501516003808501805490961691909316179093556080840151600483015560a0840151600583015560c084015160068301805493949193909260ff199091169190849081111561054557fe5b021790555050606b549695505050505050565b606b5481565b6105666110e8565b6066546001600160a01b0316331461057d57600080fd5b6000838152606a6020526040902060018101546001600160a01b038781169116146105a757600080fd5b60028101546001600160a01b038681169116146105c357600080fd5b6001600682015460ff1660038111156105d857fe5b14806105f657506002600682015460ff1660038111156105f457fe5b145b6105ff57600080fd5b8060040154816005015411156106c957600080600061062f84600501548560040154606754606854606954610da3565b935050925092506001600381111561064357fe5b600685015460ff16600381111561065657fe5b141561068c578561067d83610671848763ffffffff610d4016565b9063ffffffff610d4016565b1461068757600080fd5b610697565b851561069757600080fd5b60048401546106ac908263ffffffff610d4016565b60208601526106bb8383610d40565b604086015250610765915050565b600061070a6127106106fe6067546106f286600501548760040154610e6490919063ffffffff16565b9063ffffffff610ea616565b9063ffffffff610eff16565b90506001600683015460ff16600381111561072157fe5b14156107385783811461073357600080fd5b610743565b831561074357600080fd5b600582015460208401819052600483015461075d91610e64565b835260408301525b60068101805460ff19166003179055600401546060820152949350505050565b61078d611106565b6000848152606a6020908152604091829020825160e0810184528154815260018201546001600160a01b03908116938201939093526002820154831693810193909352600380820154909216606084015260048101546080840152600581015460a08401526006810154909160c084019160ff169081111561080b57fe5b600381111561081657fe5b8152505090508060800151831115610875576000806000610844868560800151606754606854606954610da3565b9350509250925084610863836106718685610d4090919063ffffffff16565b1461086d57600080fd5b5050506108aa565b600061089a6127106106fe6067546106f2888760800151610e6490919063ffffffff16565b90508281146108a857600080fd5b505b6108b8868686866002610c95565b505050505050565b6066546001600160a01b031681565b6108d7610a43565b610928576040805162461bcd60e51b815260206004820181905260248201527f4f776e61626c653a2063616c6c6572206973206e6f7420746865206f776e6572604482015290519081900360640190fd5b6033546040516000916001600160a01b0316907f8be0079c531659141344cd1fd0a4f28419497f9722a3daafe3b4186f6b6457e0908390a3603380546001600160a01b0319169055565b600054610100900460ff168061098b575061098b610f41565b80610999575060005460ff16155b6109d45760405162461bcd60e51b815260040180806020018281038252602e815260200180611188602e913960400191505060405180910390fd5b600054610100900460ff161580156109ff576000805460ff1961ff0019909116610100171660011790555b610a0833610a75565b606784905560688390556069829055801561040c576000805461ff001916905550505050565b60685481565b6033546001600160a01b031690565b6033546000906001600160a01b0316610a5a610f47565b6001600160a01b031614905090565b60675481565b60695481565b600054610100900460ff1680610a8e5750610a8e610f41565b80610a9c575060005460ff16155b610ad75760405162461bcd60e51b815260040180806020018281038252602e815260200180611188602e913960400191505060405180910390fd5b600054610100900460ff16158015610b02576000805460ff1961ff0019909116610100171660011790555b603380546001600160a01b0319166001600160a01b0384811691909117918290556040519116906000907f8be0079c531659141344cd1fd0a4f28419497f9722a3daafe3b4186f6b6457e0908290a38015610b63576000805461ff00191690555b5050565b610b6f610a43565b610bc0576040805162461bcd60e51b815260206004820181905260248201527f4f776e61626c653a2063616c6c6572206973206e6f7420746865206f776e6572604482015290519081900360640190fd5b606680546001600160a01b0319166001600160a01b0392909216919091179055565b610bea610a43565b610c3b576040805162461bcd60e51b815260206004820181905260248201527f4f776e61626c653a2063616c6c6572206973206e6f7420746865206f776e6572604482015290519081900360640190fd5b610c4481610f4b565b50565b606a60205260009081526040902080546001820154600283015460038401546004850154600586015460069096015494956001600160a01b0394851695938516949092169290919060ff1687565b6066546001600160a01b03163314610cac57600080fd5b6000838152606a6020526040902060018101546001600160a01b03878116911614610cd657600080fd5b60028101546001600160a01b03868116911614610cf257600080fd5b6000600682015460ff166003811115610d0757fe5b14610d1157600080fd5b6005810183905560068101805483919060ff19166001836003811115610d3357fe5b0217905550505050505050565b600082820183811015610d9a576040805162461bcd60e51b815260206004820152601b60248201527f536166654d6174683a206164646974696f6e206f766572666c6f770000000000604482015290519081900360640190fd5b90505b92915050565b600080808087890381610dd26127106106fe610dc58a8c63ffffffff610e6416565b859063ffffffff610ea616565b90506000610e0c6127106106fe610dff8d610df3848e63ffffffff610e6416565b9063ffffffff610e6416565b869063ffffffff610ea616565b90506000610e2482610df3868663ffffffff610e6416565b90506000610e3982600263ffffffff610eff16565b90506000610e4d838363ffffffff610e6416565b9f919e50929c50929a509198505050505050505050565b6000610d9a83836040518060400160405280601e81526020017f536166654d6174683a207375627472616374696f6e206f766572666c6f770000815250610fec565b600082610eb557506000610d9d565b82820282848281610ec257fe5b0414610d9a5760405162461bcd60e51b81526004018080602001828103825260218152602001806111676021913960400191505060405180910390fd5b6000610d9a83836040518060400160405280601a81526020017f536166654d6174683a206469766973696f6e206279207a65726f000000000000815250611083565b303b1590565b3390565b6001600160a01b038116610f905760405162461bcd60e51b81526004018080602001828103825260268152602001806111416026913960400191505060405180910390fd5b6033546040516001600160a01b038084169216907f8be0079c531659141344cd1fd0a4f28419497f9722a3daafe3b4186f6b6457e090600090a3603380546001600160a01b0319166001600160a01b0392909216919091179055565b6000818484111561107b5760405162461bcd60e51b81526004018080602001828103825283818151815260200191508051906020019080838360005b83811015611040578181015183820152602001611028565b50505050905090810190601f16801561106d5780820380516001836020036101000a031916815260200191505b509250505060405180910390fd5b505050900390565b600081836110d25760405162461bcd60e51b8152602060048201818152835160248401528351909283926044909101919085019080838360008315611040578181015183820152602001611028565b5060008385816110de57fe5b0495945050505050565b60405180608001604052806004906020820280388339509192915050565b6040805160e081018252600080825260208201819052918101829052606081018290526080810182905260a081018290529060c08201529056fe4f776e61626c653a206e6577206f776e657220697320746865207a65726f2061646472657373536166654d6174683a206d756c7469706c69636174696f6e206f766572666c6f77436f6e747261637420696e7374616e63652068617320616c7265616479206265656e20696e697469616c697a6564a265627a7a72315820a7f076d450f9ddb6cf1181617b120fd7e447122182a7e1dc9bb2b8345ff6103964736f6c63430005110032",
  "compiler": {
    "name": "solc",
    "version": "0.5.17+commit.d19bba13.Emscripten.clang",
    "optimizer": {
      "enabled": true,
      "runs": 200
    },
    "evmVersion": "petersburg"
  }
}