{
  "fileName": "TraderPaired.sol",
  "contractName": "TraderPaired",
  "source": "// \"SPDX-License-Identifier: UNLICENSED\"\npragma solidity >=0.4.21 <0.7.0;\n\nimport \"@openzeppelin/contracts-ethereum-package/contracts/math/SafeMath.sol\";\nimport \"@openzeppelin/upgrades/contracts/Initializable.sol\";\nimport \"@openzeppelin/contracts-ethereum-package/contracts/ownership/Ownable.sol\";\nimport \"@openzeppelin/contracts-ethereum-package/contracts/lifecycle/Pausable.sol\";\nimport \"@openzeppelin/contracts-ethereum-package/contracts/token/ERC20/IERC20.sol\";\n\nimport \"./PairedInvestments.sol\";\nimport \"./MultiSigFundWalletFactory.sol\";\nimport \"./MultiSigFundWallet.sol\";\n\ncontract TraderPaired is Initializable, Ownable, Pausable {\n\tusing SafeMath for uint256;\n\n    address constant ETHER = address(0); // allows storage of ether in blank address in token mapping\n    address public feeAccount; // account that will receive fees\n\n    mapping(address => _Trader) public traders;\n    mapping(address => _Investor) public investors;\n\n    address public multiSigFundWalletFactory;\n\n    address public pairedInvestments;\n\n    mapping(address => bool) public tokens;\n\n    mapping(address => mapping(uint256 => uint256)) public traderInvestments;\n    mapping(address => mapping(uint256 => uint256)) public investorInvestments;\n    mapping(address => mapping(address => _Allocation)) public allocations;\n\n    event Trader(address indexed user, uint256 date);\n    event Investor(address indexed user, uint256 date);\n    event Investment(address indexed wallet, address indexed investor, uint256 date);\n    event Allocate(address indexed trader, address indexed token, uint256 total, uint256 invested, uint256 date);\n    event Invest(uint256 id, address indexed wallet, address indexed trader, address indexed investor, address token, uint256 amount, uint256 amountInvested, uint256 totalInvested, uint256 date);\n    event Stop(uint256 id, address indexed wallet, address indexed trader, address indexed investor, address from, uint256 date);\n    event RequestExit(uint256 id, address indexed wallet, address indexed trader, address indexed investor, address from, uint256 value, uint256 date);\n    event ApproveExit(uint256 id, address indexed wallet, address indexed trader, address indexed investor, uint256 amountInvested, uint256 totalInvested, uint256 date);\n\n    struct _Trader {\n        address user;\n        uint256 investmentCount;\n    }\n\n    struct _Allocation {\n        uint256 total;\n        uint256 invested;\n    }\n\n    struct _Investor {\n        address user;\n        uint256 investmentCount;\n    }\n\n    modifier isTrader(address trader) {\n        require(trader != address(0) && traders[trader].user == trader);\n        _;\n    }\n\n    modifier isInvestor(address investor) {\n        require(investor != address(0) && investors[investor].user == investor);\n        _;\n    }\n\n    modifier notInvested(address trader, address investor) {\n        require(!isInvested(trader, investor));\n        _;\n    }\n\n    modifier onlyWallet {\n        require(MultiSigFundWalletFactory(multiSigFundWalletFactory).isInstantiation(msg.sender));\n        _;\n    }\n\n    function initialize(\n            address _feeAccount\n            ) public initializer {\n        Ownable.initialize(msg.sender);\n        Pausable.initialize(msg.sender);\n        feeAccount = _feeAccount;\n    }\n\n    function setMultiSigFundWalletFactory(\n            address _factory\n            ) public onlyOwner {\n        multiSigFundWalletFactory = _factory;\n    }\n\n    function setPairedInvestments(\n            address _pairedInvestments\n            ) public onlyOwner {\n        pairedInvestments = _pairedInvestments;\n    }\n\n    // reverts if ether is sent directly\n    function () external {\n        revert();\n    }\n\n    function setToken(address _token, bool _valid) external onlyOwner {\n        tokens[_token] = _valid;\n    }\n\n    function joinAsTrader() external whenNotPaused {\n        require(traders[msg.sender].user == address(0));\n        require(investors[msg.sender].user == address(0));\n\n        traders[msg.sender] = _Trader({\n            user: msg.sender, \n            investmentCount: 0\n        });\n\n        emit Trader(msg.sender, now);\n    }\n\n    function joinAsInvestor() external whenNotPaused {\n        require(traders[msg.sender].user == address(0));\n        require(investors[msg.sender].user == address(0));\n\n        investors[msg.sender] = _Investor({\n                user: msg.sender,\n                investmentCount: 0\n            });\n\n        emit Investor(msg.sender, now);\n    }\n\n    function allocate(address _token, uint256 _amount) external whenNotPaused {\n        require(tokens[_token]);\n        _Trader memory _trader = traders[msg.sender];\n        require(_trader.user == msg.sender);\n\n        allocations[msg.sender][_token].total = _amount;\n\n        emit Allocate(msg.sender, _token, _amount, allocations[msg.sender][_token].invested, now);\n    }\n\n    function isInvested(address _traderAddress, address _investorAddress) \n        internal\n        view\n        returns (bool) \n    {\n        address[] memory wallets = MultiSigFundWalletFactory(multiSigFundWalletFactory).getInstantiations(_investorAddress);\n        \n        for(uint256 i = 0; i < wallets.length; i++) {\n            if (MultiSigFundWallet(wallets[i]).traders(_traderAddress)) {\n                return true;\n            }\n        }\n\n        return false;\n    }\n\n    function createInvestment() \n        external\n        whenNotPaused\n        isInvestor(msg.sender)\n    {\n        address wallet = MultiSigFundWalletFactory(multiSigFundWalletFactory).create(address(this), msg.sender, feeAccount);\n        emit Investment(wallet, msg.sender, now);\n    }\n\n    function invest(address _traderAddress, address _investorAddress, address _token, uint256 _amount) \n        public \n        whenNotPaused \n        onlyWallet \n        returns (uint256 investmentCount)\n    {\n        require(tokens[_token]);\n        _Investor storage _investor = investors[_investorAddress];\n        require(_investor.user == _investorAddress);\n\n        _Trader storage _trader = traders[_traderAddress];\n        require(_trader.user == _traderAddress);\n\n        _Allocation storage allocation = allocations[_trader.user][_token];\n\n        // falls within trader allocations\n        require(allocation.total - allocation.invested >= _amount);\n        allocation.invested = allocation.invested.add(_amount);\n\n        investmentCount = PairedInvestments(pairedInvestments).invest(\n            _traderAddress, \n            _investorAddress, \n            _token, \n            _amount\n        );\n\n        _trader.investmentCount = _trader.investmentCount.add(1);\n        traderInvestments[_trader.user][_trader.investmentCount] = investmentCount;\n\n        _investor.investmentCount = _investor.investmentCount.add(1);\n        investorInvestments[_investor.user][_investor.investmentCount] = investmentCount;\n\n        emit Invest(\n            investmentCount,\n            msg.sender,\n            _traderAddress,\n            _investorAddress,\n            _token,\n            _amount,\n            allocation.invested,\n            allocation.total,\n            now\n        );\n    }\n\n    //\n    //    Trader/Investor stops an investment\n    //\n    function stop(address _traderAddress, address _investorAddress, address _from, uint256 _investmentId) \n        public \n        whenNotPaused \n        onlyWallet \n    {\n        _Trader memory _trader = traders[_traderAddress];\n        require(_trader.user == _traderAddress);\n\n        PairedInvestments(pairedInvestments).stop(\n            _traderAddress, \n            _investorAddress, \n            _investmentId);\n\n        emit Stop(\n            _investmentId,\n            msg.sender,\n            _traderAddress,\n            _investorAddress,\n            _from,\n            now\n        );\n    }\n\n    //\n    //    Investor exits an investment\n    //\n    function requestExitInvestor(address _traderAddress, address _investorAddress, uint256 _investmentId, uint256 _value) \n        public \n        whenNotPaused \n        onlyWallet \n    {\n        _Trader memory _trader = traders[_traderAddress];\n        require(_trader.user == _traderAddress);\n\n        PairedInvestments(pairedInvestments).requestExitInvestor(\n            _traderAddress, \n            _investorAddress, \n            _investmentId, \n            _value);\n\n        emit RequestExit(\n            _investmentId,\n            msg.sender,\n            _traderAddress,\n            _investorAddress,\n            _investorAddress,\n            _value,\n            now\n        );\n    }\n\n    //\n    //    Trader exits an investment\n    //\n    function requestExitTrader(address _traderAddress, address _investorAddress, uint256 _investmentId, uint256 _value, uint256 _amount) \n        public \n        whenNotPaused \n        onlyWallet \n    {\n        _Trader memory _trader = traders[_traderAddress];\n        require(_trader.user == _traderAddress);\n\n        PairedInvestments(pairedInvestments).requestExitTrader(\n            _traderAddress, \n            _investorAddress, \n            _investmentId, \n            _value,\n            _amount);\n\n        emit RequestExit(\n            _investmentId,\n            msg.sender,\n            _traderAddress,\n            _investorAddress,\n            _traderAddress,\n            _value,\n            now\n        );\n    }\n\n    function approveExit(address _traderAddress, address _investorAddress, uint256 _investmentId, address _token, uint256 _amount) \n        public \n        whenNotPaused\n        onlyWallet\n        returns (uint256[3] memory payouts)\n    {\n        _Trader memory _trader = traders[_traderAddress];\n        _Investor memory _investor = investors[_investorAddress];\n        require(_trader.user == _traderAddress);\n        require(_investor.user == _investorAddress);\n\n        uint256[4] memory _result = PairedInvestments(pairedInvestments).approveExit(\n            _traderAddress,\n            _investorAddress, \n            _investmentId, \n            _amount);\n\n        _Allocation storage allocation = allocations[_traderAddress][_token];\n\n        allocation.invested = allocation.invested.sub(_result[3]);\n        \n        payouts[0] = _result[0];\n        payouts[1] = _result[1];\n        payouts[2] = _result[2];\n\n        emit ApproveExit(\n            _investmentId,\n            msg.sender,\n            _traderAddress,\n            _investorAddress,\n            allocation.invested,\n            allocation.total,\n            now\n        );\n    }\n\n}\n",
  "sourcePath": "contracts/TraderPaired.sol",
  "abi": [
    {
      "anonymous": false,
      "inputs": [
        {
          "indexed": true,
          "internalType": "address",
          "name": "trader",
          "type": "address"
        },
        {
          "indexed": true,
          "internalType": "address",
          "name": "token",
          "type": "address"
        },
        {
          "indexed": false,
          "internalType": "uint256",
          "name": "total",
          "type": "uint256"
        },
        {
          "indexed": false,
          "internalType": "uint256",
          "name": "invested",
          "type": "uint256"
        },
        {
          "indexed": false,
          "internalType": "uint256",
          "name": "date",
          "type": "uint256"
        }
      ],
      "name": "Allocate",
      "type": "event"
    },
    {
      "anonymous": false,
      "inputs": [
        {
          "indexed": false,
          "internalType": "uint256",
          "name": "id",
          "type": "uint256"
        },
        {
          "indexed": true,
          "internalType": "address",
          "name": "wallet",
          "type": "address"
        },
        {
          "indexed": true,
          "internalType": "address",
          "name": "trader",
          "type": "address"
        },
        {
          "indexed": true,
          "internalType": "address",
          "name": "investor",
          "type": "address"
        },
        {
          "indexed": false,
          "internalType": "uint256",
          "name": "amountInvested",
          "type": "uint256"
        },
        {
          "indexed": false,
          "internalType": "uint256",
          "name": "totalInvested",
          "type": "uint256"
        },
        {
          "indexed": false,
          "internalType": "uint256",
          "name": "date",
          "type": "uint256"
        }
      ],
      "name": "ApproveExit",
      "type": "event"
    },
    {
      "anonymous": false,
      "inputs": [
        {
          "indexed": false,
          "internalType": "uint256",
          "name": "id",
          "type": "uint256"
        },
        {
          "indexed": true,
          "internalType": "address",
          "name": "wallet",
          "type": "address"
        },
        {
          "indexed": true,
          "internalType": "address",
          "name": "trader",
          "type": "address"
        },
        {
          "indexed": true,
          "internalType": "address",
          "name": "investor",
          "type": "address"
        },
        {
          "indexed": false,
          "internalType": "address",
          "name": "token",
          "type": "address"
        },
        {
          "indexed": false,
          "internalType": "uint256",
          "name": "amount",
          "type": "uint256"
        },
        {
          "indexed": false,
          "internalType": "uint256",
          "name": "amountInvested",
          "type": "uint256"
        },
        {
          "indexed": false,
          "internalType": "uint256",
          "name": "totalInvested",
          "type": "uint256"
        },
        {
          "indexed": false,
          "internalType": "uint256",
          "name": "date",
          "type": "uint256"
        }
      ],
      "name": "Invest",
      "type": "event"
    },
    {
      "anonymous": false,
      "inputs": [
        {
          "indexed": true,
          "internalType": "address",
          "name": "wallet",
          "type": "address"
        },
        {
          "indexed": true,
          "internalType": "address",
          "name": "investor",
          "type": "address"
        },
        {
          "indexed": false,
          "internalType": "uint256",
          "name": "date",
          "type": "uint256"
        }
      ],
      "name": "Investment",
      "type": "event"
    },
    {
      "anonymous": false,
      "inputs": [
        {
          "indexed": true,
          "internalType": "address",
          "name": "user",
          "type": "address"
        },
        {
          "indexed": false,
          "internalType": "uint256",
          "name": "date",
          "type": "uint256"
        }
      ],
      "name": "Investor",
      "type": "event"
    },
    {
      "anonymous": false,
      "inputs": [
        {
          "indexed": true,
          "internalType": "address",
          "name": "previousOwner",
          "type": "address"
        },
        {
          "indexed": true,
          "internalType": "address",
          "name": "newOwner",
          "type": "address"
        }
      ],
      "name": "OwnershipTransferred",
      "type": "event"
    },
    {
      "anonymous": false,
      "inputs": [
        {
          "indexed": false,
          "internalType": "address",
          "name": "account",
          "type": "address"
        }
      ],
      "name": "Paused",
      "type": "event"
    },
    {
      "anonymous": false,
      "inputs": [
        {
          "indexed": true,
          "internalType": "address",
          "name": "account",
          "type": "address"
        }
      ],
      "name": "PauserAdded",
      "type": "event"
    },
    {
      "anonymous": false,
      "inputs": [
        {
          "indexed": true,
          "internalType": "address",
          "name": "account",
          "type": "address"
        }
      ],
      "name": "PauserRemoved",
      "type": "event"
    },
    {
      "anonymous": false,
      "inputs": [
        {
          "indexed": false,
          "internalType": "uint256",
          "name": "id",
          "type": "uint256"
        },
        {
          "indexed": true,
          "internalType": "address",
          "name": "wallet",
          "type": "address"
        },
        {
          "indexed": true,
          "internalType": "address",
          "name": "trader",
          "type": "address"
        },
        {
          "indexed": true,
          "internalType": "address",
          "name": "investor",
          "type": "address"
        },
        {
          "indexed": false,
          "internalType": "address",
          "name": "from",
          "type": "address"
        },
        {
          "indexed": false,
          "internalType": "uint256",
          "name": "value",
          "type": "uint256"
        },
        {
          "indexed": false,
          "internalType": "uint256",
          "name": "date",
          "type": "uint256"
        }
      ],
      "name": "RequestExit",
      "type": "event"
    },
    {
      "anonymous": false,
      "inputs": [
        {
          "indexed": false,
          "internalType": "uint256",
          "name": "id",
          "type": "uint256"
        },
        {
          "indexed": true,
          "internalType": "address",
          "name": "wallet",
          "type": "address"
        },
        {
          "indexed": true,
          "internalType": "address",
          "name": "trader",
          "type": "address"
        },
        {
          "indexed": true,
          "internalType": "address",
          "name": "investor",
          "type": "address"
        },
        {
          "indexed": false,
          "internalType": "address",
          "name": "from",
          "type": "address"
        },
        {
          "indexed": false,
          "internalType": "uint256",
          "name": "date",
          "type": "uint256"
        }
      ],
      "name": "Stop",
      "type": "event"
    },
    {
      "anonymous": false,
      "inputs": [
        {
          "indexed": true,
          "internalType": "address",
          "name": "user",
          "type": "address"
        },
        {
          "indexed": false,
          "internalType": "uint256",
          "name": "date",
          "type": "uint256"
        }
      ],
      "name": "Trader",
      "type": "event"
    },
    {
      "anonymous": false,
      "inputs": [
        {
          "indexed": false,
          "internalType": "address",
          "name": "account",
          "type": "address"
        }
      ],
      "name": "Unpaused",
      "type": "event"
    },
    {
      "payable": false,
      "stateMutability": "nonpayable",
      "type": "fallback"
    },
    {
      "constant": false,
      "inputs": [
        {
          "internalType": "address",
          "name": "account",
          "type": "address"
        }
      ],
      "name": "addPauser",
      "outputs": [],
      "payable": false,
      "stateMutability": "nonpayable",
      "type": "function"
    },
    {
      "constant": false,
      "inputs": [
        {
          "internalType": "address",
          "name": "_token",
          "type": "address"
        },
        {
          "internalType": "uint256",
          "name": "_amount",
          "type": "uint256"
        }
      ],
      "name": "allocate",
      "outputs": [],
      "payable": false,
      "stateMutability": "nonpayable",
      "type": "function"
    },
    {
      "constant": true,
      "inputs": [
        {
          "internalType": "address",
          "name": "",
          "type": "address"
        },
        {
          "internalType": "address",
          "name": "",
          "type": "address"
        }
      ],
      "name": "allocations",
      "outputs": [
        {
          "internalType": "uint256",
          "name": "total",
          "type": "uint256"
        },
        {
          "internalType": "uint256",
          "name": "invested",
          "type": "uint256"
        }
      ],
      "payable": false,
      "stateMutability": "view",
      "type": "function"
    },
    {
      "constant": false,
      "inputs": [
        {
          "internalType": "address",
          "name": "_traderAddress",
          "type": "address"
        },
        {
          "internalType": "address",
          "name": "_investorAddress",
          "type": "address"
        },
        {
          "internalType": "uint256",
          "name": "_investmentId",
          "type": "uint256"
        },
        {
          "internalType": "address",
          "name": "_token",
          "type": "address"
        },
        {
          "internalType": "uint256",
          "name": "_amount",
          "type": "uint256"
        }
      ],
      "name": "approveExit",
      "outputs": [
        {
          "internalType": "uint256[3]",
          "name": "payouts",
          "type": "uint256[3]"
        }
      ],
      "payable": false,
      "stateMutability": "nonpayable",
      "type": "function"
    },
    {
      "constant": false,
      "inputs": [],
      "name": "createInvestment",
      "outputs": [],
      "payable": false,
      "stateMutability": "nonpayable",
      "type": "function"
    },
    {
      "constant": true,
      "inputs": [],
      "name": "feeAccount",
      "outputs": [
        {
          "internalType": "address",
          "name": "",
          "type": "address"
        }
      ],
      "payable": false,
      "stateMutability": "view",
      "type": "function"
    },
    {
      "constant": false,
      "inputs": [
        {
          "internalType": "address",
          "name": "_feeAccount",
          "type": "address"
        }
      ],
      "name": "initialize",
      "outputs": [],
      "payable": false,
      "stateMutability": "nonpayable",
      "type": "function"
    },
    {
      "constant": false,
      "inputs": [
        {
          "internalType": "address",
          "name": "_traderAddress",
          "type": "address"
        },
        {
          "internalType": "address",
          "name": "_investorAddress",
          "type": "address"
        },
        {
          "internalType": "address",
          "name": "_token",
          "type": "address"
        },
        {
          "internalType": "uint256",
          "name": "_amount",
          "type": "uint256"
        }
      ],
      "name": "invest",
      "outputs": [
        {
          "internalType": "uint256",
          "name": "investmentCount",
          "type": "uint256"
        }
      ],
      "payable": false,
      "stateMutability": "nonpayable",
      "type": "function"
    },
    {
      "constant": true,
      "inputs": [
        {
          "internalType": "address",
          "name": "",
          "type": "address"
        },
        {
          "internalType": "uint256",
          "name": "",
          "type": "uint256"
        }
      ],
      "name": "investorInvestments",
      "outputs": [
        {
          "internalType": "uint256",
          "name": "",
          "type": "uint256"
        }
      ],
      "payable": false,
      "stateMutability": "view",
      "type": "function"
    },
    {
      "constant": true,
      "inputs": [
        {
          "internalType": "address",
          "name": "",
          "type": "address"
        }
      ],
      "name": "investors",
      "outputs": [
        {
          "internalType": "address",
          "name": "user",
          "type": "address"
        },
        {
          "internalType": "uint256",
          "name": "investmentCount",
          "type": "uint256"
        }
      ],
      "payable": false,
      "stateMutability": "view",
      "type": "function"
    },
    {
      "constant": true,
      "inputs": [],
      "name": "isOwner",
      "outputs": [
        {
          "internalType": "bool",
          "name": "",
          "type": "bool"
        }
      ],
      "payable": false,
      "stateMutability": "view",
      "type": "function"
    },
    {
      "constant": true,
      "inputs": [
        {
          "internalType": "address",
          "name": "account",
          "type": "address"
        }
      ],
      "name": "isPauser",
      "outputs": [
        {
          "internalType": "bool",
          "name": "",
          "type": "bool"
        }
      ],
      "payable": false,
      "stateMutability": "view",
      "type": "function"
    },
    {
      "constant": false,
      "inputs": [],
      "name": "joinAsInvestor",
      "outputs": [],
      "payable": false,
      "stateMutability": "nonpayable",
      "type": "function"
    },
    {
      "constant": false,
      "inputs": [],
      "name": "joinAsTrader",
      "outputs": [],
      "payable": false,
      "stateMutability": "nonpayable",
      "type": "function"
    },
    {
      "constant": true,
      "inputs": [],
      "name": "multiSigFundWalletFactory",
      "outputs": [
        {
          "internalType": "address",
          "name": "",
          "type": "address"
        }
      ],
      "payable": false,
      "stateMutability": "view",
      "type": "function"
    },
    {
      "constant": true,
      "inputs": [],
      "name": "owner",
      "outputs": [
        {
          "internalType": "address",
          "name": "",
          "type": "address"
        }
      ],
      "payable": false,
      "stateMutability": "view",
      "type": "function"
    },
    {
      "constant": true,
      "inputs": [],
      "name": "pairedInvestments",
      "outputs": [
        {
          "internalType": "address",
          "name": "",
          "type": "address"
        }
      ],
      "payable": false,
      "stateMutability": "view",
      "type": "function"
    },
    {
      "constant": false,
      "inputs": [],
      "name": "pause",
      "outputs": [],
      "payable": false,
      "stateMutability": "nonpayable",
      "type": "function"
    },
    {
      "constant": true,
      "inputs": [],
      "name": "paused",
      "outputs": [
        {
          "internalType": "bool",
          "name": "",
          "type": "bool"
        }
      ],
      "payable": false,
      "stateMutability": "view",
      "type": "function"
    },
    {
      "constant": false,
      "inputs": [],
      "name": "renounceOwnership",
      "outputs": [],
      "payable": false,
      "stateMutability": "nonpayable",
      "type": "function"
    },
    {
      "constant": false,
      "inputs": [],
      "name": "renouncePauser",
      "outputs": [],
      "payable": false,
      "stateMutability": "nonpayable",
      "type": "function"
    },
    {
      "constant": false,
      "inputs": [
        {
          "internalType": "address",
          "name": "_traderAddress",
          "type": "address"
        },
        {
          "internalType": "address",
          "name": "_investorAddress",
          "type": "address"
        },
        {
          "internalType": "uint256",
          "name": "_investmentId",
          "type": "uint256"
        },
        {
          "internalType": "uint256",
          "name": "_value",
          "type": "uint256"
        }
      ],
      "name": "requestExitInvestor",
      "outputs": [],
      "payable": false,
      "stateMutability": "nonpayable",
      "type": "function"
    },
    {
      "constant": false,
      "inputs": [
        {
          "internalType": "address",
          "name": "_traderAddress",
          "type": "address"
        },
        {
          "internalType": "address",
          "name": "_investorAddress",
          "type": "address"
        },
        {
          "internalType": "uint256",
          "name": "_investmentId",
          "type": "uint256"
        },
        {
          "internalType": "uint256",
          "name": "_value",
          "type": "uint256"
        },
        {
          "internalType": "uint256",
          "name": "_amount",
          "type": "uint256"
        }
      ],
      "name": "requestExitTrader",
      "outputs": [],
      "payable": false,
      "stateMutability": "nonpayable",
      "type": "function"
    },
    {
      "constant": false,
      "inputs": [
        {
          "internalType": "address",
          "name": "_factory",
          "type": "address"
        }
      ],
      "name": "setMultiSigFundWalletFactory",
      "outputs": [],
      "payable": false,
      "stateMutability": "nonpayable",
      "type": "function"
    },
    {
      "constant": false,
      "inputs": [
        {
          "internalType": "address",
          "name": "_pairedInvestments",
          "type": "address"
        }
      ],
      "name": "setPairedInvestments",
      "outputs": [],
      "payable": false,
      "stateMutability": "nonpayable",
      "type": "function"
    },
    {
      "constant": false,
      "inputs": [
        {
          "internalType": "address",
          "name": "_token",
          "type": "address"
        },
        {
          "internalType": "bool",
          "name": "_valid",
          "type": "bool"
        }
      ],
      "name": "setToken",
      "outputs": [],
      "payable": false,
      "stateMutability": "nonpayable",
      "type": "function"
    },
    {
      "constant": false,
      "inputs": [
        {
          "internalType": "address",
          "name": "_traderAddress",
          "type": "address"
        },
        {
          "internalType": "address",
          "name": "_investorAddress",
          "type": "address"
        },
        {
          "internalType": "address",
          "name": "_from",
          "type": "address"
        },
        {
          "internalType": "uint256",
          "name": "_investmentId",
          "type": "uint256"
        }
      ],
      "name": "stop",
      "outputs": [],
      "payable": false,
      "stateMutability": "nonpayable",
      "type": "function"
    },
    {
      "constant": true,
      "inputs": [
        {
          "internalType": "address",
          "name": "",
          "type": "address"
        }
      ],
      "name": "tokens",
      "outputs": [
        {
          "internalType": "bool",
          "name": "",
          "type": "bool"
        }
      ],
      "payable": false,
      "stateMutability": "view",
      "type": "function"
    },
    {
      "constant": true,
      "inputs": [
        {
          "internalType": "address",
          "name": "",
          "type": "address"
        },
        {
          "internalType": "uint256",
          "name": "",
          "type": "uint256"
        }
      ],
      "name": "traderInvestments",
      "outputs": [
        {
          "internalType": "uint256",
          "name": "",
          "type": "uint256"
        }
      ],
      "payable": false,
      "stateMutability": "view",
      "type": "function"
    },
    {
      "constant": true,
      "inputs": [
        {
          "internalType": "address",
          "name": "",
          "type": "address"
        }
      ],
      "name": "traders",
      "outputs": [
        {
          "internalType": "address",
          "name": "user",
          "type": "address"
        },
        {
          "internalType": "uint256",
          "name": "investmentCount",
          "type": "uint256"
        }
      ],
      "payable": false,
      "stateMutability": "view",
      "type": "function"
    },
    {
      "constant": false,
      "inputs": [
        {
          "internalType": "address",
          "name": "newOwner",
          "type": "address"
        }
      ],
      "name": "transferOwnership",
      "outputs": [],
      "payable": false,
      "stateMutability": "nonpayable",
      "type": "function"
    },
    {
      "constant": false,
      "inputs": [],
      "name": "unpause",
      "outputs": [],
      "payable": false,
      "stateMutability": "nonpayable",
      "type": "function"
    }
  ],
  "bytecode": "0x60806040526124e6806100136000396000f3fe608060405234801561001057600080fd5b50600436106101f05760003560e01c806382dc1ec41161010f578063b78b52df116100a2578063e486033911610071578063e486033914610605578063eef90b621461062b578063f2fde38b14610657578063fb171a521461067d576101f0565b8063b78b52df14610567578063c4d66de814610593578063c9076b5b146105b9578063d37a15d0146105df576101f0565b80638f32d59b116100de5780638f32d59b146104b557806392a88fa2146104bd578063a57a71b7146104e3578063b3cb642f1461055f576101f0565b806382dc1ec4146104385780638456cb591461045e578063853996e4146104665780638da5cb5b146104ad576101f0565b80635931add7116101875780636e146998116101565780636e146998146103d75780636ef8d66d146103df5780636f7bc9be146103e7578063715018a614610430576101f0565b80635931add7146103435780635a77c18d1461037f5780635c975abb146103ab57806365e17c9d146103b3576101f0565b80633816a292116101c35780633816a292146102915780633f4ba83a146102bf578063468bdb23146102c757806346fbf68e14610309576101f0565b80631752e568146101f55780631896de52146102335780632daf2f02146102815780633619fcd114610289575b600080fd5b6102316004803603608081101561020b57600080fd5b506001600160a01b03813581169160208101359091169060408101359060600135610685565b005b61026f6004803603608081101561024957600080fd5b506001600160a01b03813581169160208101358216916040820135169060600135610876565b60408051918252519081900360200190f35b610231610b9e565b610231610cf1565b610231600480360360408110156102a757600080fd5b506001600160a01b0381351690602001351515610dff565b610231610e71565b610231600480360360a08110156102dd57600080fd5b506001600160a01b03813581169160208101359091169060408101359060608101359060800135610f5a565b61032f6004803603602081101561031f57600080fd5b50356001600160a01b0316611154565b604080519115158252519081900360200190f35b6102316004803603608081101561035957600080fd5b506001600160a01b0381358116916020810135821691604082013516906060013561116d565b61026f6004803603604081101561039557600080fd5b506001600160a01b038135169060200135611351565b61032f61136e565b6103bb611377565b604080516001600160a01b039092168252519081900360200190f35b610231611386565b610231611494565b61040d600480360360208110156103fd57600080fd5b50356001600160a01b03166114a6565b604080516001600160a01b03909316835260208301919091528051918290030190f35b6102316114cb565b6102316004803603602081101561044e57600080fd5b50356001600160a01b031661155c565b6102316115ae565b6104946004803603604081101561047c57600080fd5b506001600160a01b0381358116916020013516611675565b6040805192835260208301919091528051918290030190f35b6103bb611699565b61032f6116a8565b61040d600480360360208110156104d357600080fd5b50356001600160a01b03166116ce565b610527600480360360a08110156104f957600080fd5b506001600160a01b0381358116916020810135821691604082013591606081013590911690608001356116f3565b6040518082606080838360005b8381101561054c578181015183820152602001610534565b5050505090500191505060405180910390f35b6103bb6119ea565b6102316004803603604081101561057d57600080fd5b506001600160a01b0381351690602001356119f9565b610231600480360360208110156105a957600080fd5b50356001600160a01b0316611b22565b610231600480360360208110156105cf57600080fd5b50356001600160a01b0316611bf2565b610231600480360360208110156105f557600080fd5b50356001600160a01b0316611c5b565b61032f6004803603602081101561061b57600080fd5b50356001600160a01b0316611cc4565b61026f6004803603604081101561064157600080fd5b506001600160a01b038135169060200135611cd9565b6102316004803603602081101561066d57600080fd5b50356001600160a01b0316611cf6565b6103bb611d46565b60995460ff16156106d0576040805162461bcd60e51b815260206004820152601060248201526f14185d5cd8589b194e881c185d5cd95960821b604482015290519081900360640190fd5b60cf54604080516317a7998b60e11b815233600482015290516001600160a01b0390921691632f4f331691602480820192602092909190829003018186803b15801561071b57600080fd5b505afa15801561072f573d6000803e3d6000fd5b505050506040513d602081101561074557600080fd5b505161075057600080fd5b610758612377565b506001600160a01b03808516600081815260cd60209081526040918290208251808401909352805490941680835260019094015490820152911461079b57600080fd5b60d054604080516302ea5cad60e31b81526001600160a01b0388811660048301528781166024830152604482018790526064820186905291519190921691631752e56891608480830192600092919082900301818387803b1580156107ff57600080fd5b505af1158015610813573d6000803e3d6000fd5b5050604080518681526001600160a01b038089166020830181905282840188905242606084015292519294508916925033917ff1fcf51588e9e75fe5e9591517dfd728e6b717db09b8764132b9077ed2de05799181900360800190a45050505050565b60995460009060ff16156108c4576040805162461bcd60e51b815260206004820152601060248201526f14185d5cd8589b194e881c185d5cd95960821b604482015290519081900360640190fd5b60cf54604080516317a7998b60e11b815233600482015290516001600160a01b0390921691632f4f331691602480820192602092909190829003018186803b15801561090f57600080fd5b505afa158015610923573d6000803e3d6000fd5b505050506040513d602081101561093957600080fd5b505161094457600080fd5b6001600160a01b038316600090815260d1602052604090205460ff1661096957600080fd5b6001600160a01b03808516600081815260ce6020526040902080549092161461099157600080fd5b6001600160a01b03808716600081815260cd602052604090208054909216146109b957600080fd5b80546001600160a01b03908116600090815260d46020908152604080832093891683529290522060018101548154038511156109f457600080fd5b6001810154610a09908663ffffffff611d5516565b600182015560d05460408051630c4b6f2960e11b81526001600160a01b038b811660048301528a8116602483015289811660448301526064820189905291519190921691631896de529160848083019260209291908290030181600087803b158015610a7457600080fd5b505af1158015610a88573d6000803e3d6000fd5b505050506040513d6020811015610a9e57600080fd5b5051600183810154919550610ab9919063ffffffff611d5516565b600180840182905583546001600160a01b0316600090815260d2602090815260408083209483529390529190912085905583810154610afd9163ffffffff611d5516565b600180850182905584546001600160a01b03908116600090815260d3602090815260408083209583529481529084902088905591840154845484518981528b8416948101949094528385018a9052606084019190915260808301524260a08301529151898316928b169133917fb5686e6556d185c30eb1db7246cd7609b59a4bd0d90dda8b0860a499057422259181900360c00190a4505050949350505050565b60995460ff1615610be9576040805162461bcd60e51b815260206004820152601060248201526f14185d5cd8589b194e881c185d5cd95960821b604482015290519081900360640190fd5b338015801590610c1357506001600160a01b03808216600081815260ce6020526040902054909116145b610c1c57600080fd5b60cf5460cc5460408051639c041ebd60e01b81523060048201523360248201526001600160a01b03928316604482015290516000939290921691639c041ebd9160648082019260209290919082900301818787803b158015610c7d57600080fd5b505af1158015610c91573d6000803e3d6000fd5b505050506040513d6020811015610ca757600080fd5b505160408051428152905191925033916001600160a01b038416917f1db4dbd1a480026d914fad200d8cff01748461d96bcd8684a4e4496d8b46c6e7919081900360200190a35050565b60995460ff1615610d3c576040805162461bcd60e51b815260206004820152601060248201526f14185d5cd8589b194e881c185d5cd95960821b604482015290519081900360640190fd5b33600090815260cd60205260409020546001600160a01b031615610d5f57600080fd5b33600090815260ce60205260409020546001600160a01b031615610d8257600080fd5b604080518082018252338082526000602080840182815283835260cd825291859020935184546001600160a01b0319166001600160a01b0390911617845590516001909301929092558251428152925190927f07e6fac70d6958b8515f69f22e83196b98850a5a0891eb226df124f7677bd81592908290030190a2565b610e076116a8565b610e46576040805162461bcd60e51b81526020600482018190526024820152600080516020612442833981519152604482015290519081900360640190fd5b6001600160a01b0391909116600090815260d160205260409020805460ff1916911515919091179055565b610e81610e7c611db6565b611154565b610ebc5760405162461bcd60e51b81526004018080602001828103825260308152602001806123cb6030913960400191505060405180910390fd5b60995460ff16610f0a576040805162461bcd60e51b815260206004820152601460248201527314185d5cd8589b194e881b9bdd081c185d5cd95960621b604482015290519081900360640190fd5b6099805460ff191690557f5db9ee0a495bf2e6ff9c91a7834c1ba4fdd244a5e8aa4e537bd38aeae4b073aa610f3d611db6565b604080516001600160a01b039092168252519081900360200190a1565b60995460ff1615610fa5576040805162461bcd60e51b815260206004820152601060248201526f14185d5cd8589b194e881c185d5cd95960821b604482015290519081900360640190fd5b60cf54604080516317a7998b60e11b815233600482015290516001600160a01b0390921691632f4f331691602480820192602092909190829003018186803b158015610ff057600080fd5b505afa158015611004573d6000803e3d6000fd5b505050506040513d602081101561101a57600080fd5b505161102557600080fd5b61102d612377565b506001600160a01b03808616600081815260cd60209081526040918290208251808401909352805490941680835260019094015490820152911461107057600080fd5b60d0546040805163468bdb2360e01b81526001600160a01b03898116600483015288811660248301526044820188905260648201879052608482018690529151919092169163468bdb239160a480830192600092919082900301818387803b1580156110db57600080fd5b505af11580156110ef573d6000803e3d6000fd5b5050604080518781526001600160a01b038a8116602083018190528284018990524260608401529251908a16945091925033917ff1fcf51588e9e75fe5e9591517dfd728e6b717db09b8764132b9077ed2de05799181900360800190a4505050505050565b600061116760668363ffffffff611dba16565b92915050565b60995460ff16156111b8576040805162461bcd60e51b815260206004820152601060248201526f14185d5cd8589b194e881c185d5cd95960821b604482015290519081900360640190fd5b60cf54604080516317a7998b60e11b815233600482015290516001600160a01b0390921691632f4f331691602480820192602092909190829003018186803b15801561120357600080fd5b505afa158015611217573d6000803e3d6000fd5b505050506040513d602081101561122d57600080fd5b505161123857600080fd5b611240612377565b506001600160a01b03808516600081815260cd60209081526040918290208251808401909352805490941680835260019094015490820152911461128357600080fd5b60d05460408051634bcead1360e11b81526001600160a01b0388811660048301528781166024830152604482018690529151919092169163979d5a2691606480830192600092919082900301818387803b1580156112e057600080fd5b505af11580156112f4573d6000803e3d6000fd5b5050604080518581526001600160a01b038781166020830152428284015291518289169450918916925033917f9d7a2a0f1dacbb478b794b94e683c644b7f952bb6d4eb2726f22b74e2d7860449181900360600190a45050505050565b60d260209081526000928352604080842090915290825290205481565b60995460ff1690565b60cc546001600160a01b031681565b60995460ff16156113d1576040805162461bcd60e51b815260206004820152601060248201526f14185d5cd8589b194e881c185d5cd95960821b604482015290519081900360640190fd5b33600090815260cd60205260409020546001600160a01b0316156113f457600080fd5b33600090815260ce60205260409020546001600160a01b03161561141757600080fd5b604080518082018252338082526000602080840182815283835260ce825291859020935184546001600160a01b0319166001600160a01b0390911617845590516001909301929092558251428152925190927f7eb3885ab39ec25048338624e839a2b90fe3079bb88b9c697f56cfff3147193592908290030190a2565b6114a461149f611db6565b611e21565b565b60ce60205260009081526040902080546001909101546001600160a01b039091169082565b6114d36116a8565b611512576040805162461bcd60e51b81526020600482018190526024820152600080516020612442833981519152604482015290519081900360640190fd5b6033546040516000916001600160a01b0316907f8be0079c531659141344cd1fd0a4f28419497f9722a3daafe3b4186f6b6457e0908390a3603380546001600160a01b0319169055565b611567610e7c611db6565b6115a25760405162461bcd60e51b81526004018080602001828103825260308152602001806123cb6030913960400191505060405180910390fd5b6115ab81611e69565b50565b6115b9610e7c611db6565b6115f45760405162461bcd60e51b81526004018080602001828103825260308152602001806123cb6030913960400191505060405180910390fd5b60995460ff161561163f576040805162461bcd60e51b815260206004820152601060248201526f14185d5cd8589b194e881c185d5cd95960821b604482015290519081900360640190fd5b6099805460ff191660011790557f62e78cea01bee320cd4e420270b5ea74000d11b0c9f74754ebdbfc544b05a258610f3d611db6565b60d46020908152600092835260408084209091529082529020805460019091015482565b6033546001600160a01b031690565b6033546000906001600160a01b03166116bf611db6565b6001600160a01b031614905090565b60cd60205260009081526040902080546001909101546001600160a01b039091169082565b6116fb61238e565b60995460ff1615611746576040805162461bcd60e51b815260206004820152601060248201526f14185d5cd8589b194e881c185d5cd95960821b604482015290519081900360640190fd5b60cf54604080516317a7998b60e11b815233600482015290516001600160a01b0390921691632f4f331691602480820192602092909190829003018186803b15801561179157600080fd5b505afa1580156117a5573d6000803e3d6000fd5b505050506040513d60208110156117bb57600080fd5b50516117c657600080fd5b6117ce612377565b506001600160a01b03808716600090815260cd602090815260409182902082518084019093528054909316825260019092015491810191909152611810612377565b506001600160a01b03868116600090815260ce6020908152604091829020825180840190935280548416835260010154908201528251909189811691161461185757600080fd5b866001600160a01b031681600001516001600160a01b03161461187957600080fd5b6118816123ac565b60d05460408051633487283160e01b81526001600160a01b038c811660048301528b81166024830152604482018b9052606482018990529151919092169163348728319160848083019260809291908290030181600087803b1580156118e657600080fd5b505af11580156118fa573d6000803e3d6000fd5b505050506040513d601f19601f82011682018060405250608081101561191f57600080fd5b506001600160a01b03808b16600090815260d460209081526040808320938b16835292905220909150611964826003602002015160018301549063ffffffff611eb116565b60018201819055825186526020808401518188015260408085015181890152835481518c8152928301939093528181019290925242606082015290516001600160a01b038b811692908d169133917f4180898819db8636488bd8088532fab4d77cbae964f136c223763571f8292dda919081900360800190a45050505095945050505050565b60cf546001600160a01b031681565b60995460ff1615611a44576040805162461bcd60e51b815260206004820152601060248201526f14185d5cd8589b194e881c185d5cd95960821b604482015290519081900360640190fd5b6001600160a01b038216600090815260d1602052604090205460ff16611a6957600080fd5b611a71612377565b5033600081815260cd6020908152604091829020825180840190935280546001600160a01b031680845260019091015491830191909152909114611ab457600080fd5b33600081815260d4602090815260408083206001600160a01b03881680855290835292819020868155600101548151878152928301524282820152519192917f776bbaa896d9abe5db2f98efa8cbb7b341d887ba96ec823714a54aae19dc241f9181900360600190a3505050565b600054610100900460ff1680611b3b5750611b3b611ef3565b80611b49575060005460ff16155b611b845760405162461bcd60e51b815260040180806020018281038252602e815260200180612484602e913960400191505060405180910390fd5b600054610100900460ff16158015611baf576000805460ff1961ff0019909116610100171660011790555b611bb833611ef9565b611bc133611fea565b60cc80546001600160a01b0319166001600160a01b0384161790558015611bee576000805461ff00191690555b5050565b611bfa6116a8565b611c39576040805162461bcd60e51b81526020600482018190526024820152600080516020612442833981519152604482015290519081900360640190fd5b60cf80546001600160a01b0319166001600160a01b0392909216919091179055565b611c636116a8565b611ca2576040805162461bcd60e51b81526020600482018190526024820152600080516020612442833981519152604482015290519081900360640190fd5b60d080546001600160a01b0319166001600160a01b0392909216919091179055565b60d16020526000908152604090205460ff1681565b60d360209081526000928352604080842090915290825290205481565b611cfe6116a8565b611d3d576040805162461bcd60e51b81526020600482018190526024820152600080516020612442833981519152604482015290519081900360640190fd5b6115ab8161209f565b60d0546001600160a01b031681565b600082820183811015611daf576040805162461bcd60e51b815260206004820152601b60248201527f536166654d6174683a206164646974696f6e206f766572666c6f770000000000604482015290519081900360640190fd5b9392505050565b3390565b60006001600160a01b038216611e015760405162461bcd60e51b81526004018080602001828103825260228152602001806124626022913960400191505060405180910390fd5b506001600160a01b03166000908152602091909152604090205460ff1690565b611e3260668263ffffffff61214016565b6040516001600160a01b038216907fcd265ebaf09df2871cc7bd4133404a235ba12eff2041bb89d9c714a2621c7c7e90600090a250565b611e7a60668263ffffffff6121a716565b6040516001600160a01b038216907f6719d08c1888103bea251a4ed56406bd0c3e69723c8a1686e017e7bbe159b6f890600090a250565b6000611daf83836040518060400160405280601e81526020017f536166654d6174683a207375627472616374696f6e206f766572666c6f770000815250612228565b303b1590565b600054610100900460ff1680611f125750611f12611ef3565b80611f20575060005460ff16155b611f5b5760405162461bcd60e51b815260040180806020018281038252602e815260200180612484602e913960400191505060405180910390fd5b600054610100900460ff16158015611f86576000805460ff1961ff0019909116610100171660011790555b603380546001600160a01b0319166001600160a01b0384811691909117918290556040519116906000907f8be0079c531659141344cd1fd0a4f28419497f9722a3daafe3b4186f6b6457e0908290a38015611bee576000805461ff00191690555050565b600054610100900460ff16806120035750612003611ef3565b80612011575060005460ff16155b61204c5760405162461bcd60e51b815260040180806020018281038252602e815260200180612484602e913960400191505060405180910390fd5b600054610100900460ff16158015612077576000805460ff1961ff0019909116610100171660011790555b612080826122bf565b6099805460ff191690558015611bee576000805461ff00191690555050565b6001600160a01b0381166120e45760405162461bcd60e51b81526004018080602001828103825260268152602001806123fb6026913960400191505060405180910390fd5b6033546040516001600160a01b038084169216907f8be0079c531659141344cd1fd0a4f28419497f9722a3daafe3b4186f6b6457e090600090a3603380546001600160a01b0319166001600160a01b0392909216919091179055565b61214a8282611dba565b6121855760405162461bcd60e51b81526004018080602001828103825260218152602001806124216021913960400191505060405180910390fd5b6001600160a01b0316600090815260209190915260409020805460ff19169055565b6121b18282611dba565b15612203576040805162461bcd60e51b815260206004820152601f60248201527f526f6c65733a206163636f756e7420616c72656164792068617320726f6c6500604482015290519081900360640190fd5b6001600160a01b0316600090815260209190915260409020805460ff19166001179055565b600081848411156122b75760405162461bcd60e51b81526004018080602001828103825283818151815260200191508051906020019080838360005b8381101561227c578181015183820152602001612264565b50505050905090810190601f1680156122a95780820380516001836020036101000a031916815260200191505b509250505060405180910390fd5b505050900390565b600054610100900460ff16806122d857506122d8611ef3565b806122e6575060005460ff16155b6123215760405162461bcd60e51b815260040180806020018281038252602e815260200180612484602e913960400191505060405180910390fd5b600054610100900460ff1615801561234c576000805460ff1961ff0019909116610100171660011790555b61235582611154565b6123625761236282611e69565b8015611bee576000805461ff00191690555050565b604080518082019091526000808252602082015290565b60405180606001604052806003906020820280388339509192915050565b6040518060800160405280600490602082028038833950919291505056fe506175736572526f6c653a2063616c6c657220646f6573206e6f742068617665207468652050617573657220726f6c654f776e61626c653a206e6577206f776e657220697320746865207a65726f2061646472657373526f6c65733a206163636f756e7420646f6573206e6f74206861766520726f6c654f776e61626c653a2063616c6c6572206973206e6f7420746865206f776e6572526f6c65733a206163636f756e7420697320746865207a65726f2061646472657373436f6e747261637420696e7374616e63652068617320616c7265616479206265656e20696e697469616c697a6564a265627a7a7231582033852be38c94cb046384cc1b37916750833af40053d45591bbfefe0d0c250bd364736f6c63430005110032",
  "compiler": {
    "name": "solc",
    "version": "0.5.17+commit.d19bba13.Emscripten.clang",
    "optimizer": {
      "enabled": true,
      "runs": 200
    },
    "evmVersion": "petersburg"
  }
}