{
  "fileName": "TraderPaired.sol",
  "contractName": "TraderPaired",
  "source": "// \"SPDX-License-Identifier: UNLICENSED\"\npragma solidity >=0.4.21 <0.7.0;\n\nimport \"@openzeppelin/contracts-ethereum-package/contracts/math/SafeMath.sol\";\nimport \"@openzeppelin/upgrades/contracts/Initializable.sol\";\nimport \"@openzeppelin/contracts-ethereum-package/contracts/ownership/Ownable.sol\";\nimport \"@openzeppelin/contracts-ethereum-package/contracts/lifecycle/Pausable.sol\";\nimport \"@openzeppelin/contracts-ethereum-package/contracts/token/ERC20/IERC20.sol\";\n\nimport \"./PairedInvestments.sol\";\nimport \"./MultiSigFundWalletFactory.sol\";\nimport \"./MultiSigFundWallet.sol\";\n\ncontract TraderPaired is Initializable, Ownable, Pausable {\n\tusing SafeMath for uint256;\n\n    address constant ETHER = address(0); // allows storage of ether in blank address in token mapping\n    address public feeAccount; // account that will receive fees\n\n    mapping(address => _Trader) public traders;\n    mapping(address => _Investor) public investors;\n\n    address public multiSigFundWalletFactory;\n\n    address public pairedInvestments;\n\n    mapping(address => bool) public tokens;\n\n    mapping(address => mapping(uint256 => uint256)) public traderInvestments;\n    mapping(address => mapping(uint256 => uint256)) public investorInvestments;\n    mapping(address => mapping(address => _Allocation)) public allocations;\n\n    mapping(address => mapping(address => uint256)) public balances; // mapping of token balances to addresses\n\n    event Trader(address indexed trader, uint256 date);\n    event Investor(address indexed investor, uint256 date);\n    event Investment(address indexed wallet, address indexed investor, uint256 date);\n    event Allocate(address indexed trader, address token, uint256 amount, uint256 date);\n    event Withdraw(address indexed token, address indexed user, uint256 amount, uint256 balance, uint256 date);\n    event Invest(uint256 id, address indexed investor, address indexed trader, address indexed token, uint256 amount, uint256 date);\n    event RequestExit(address indexed trader, uint256 investmentId, uint256 value, uint256 date);\n    event RejectExit(address indexed trader, uint256 investmentId, uint256 value, uint256 date);\n    event ApproveExit(address indexed trader, uint256 investmentId, uint256 date);\n\n    struct _Trader {\n        address user;\n        uint256 investmentCount;\n    }\n\n    struct _Allocation {\n        uint256 total;\n        uint256 invested;\n    }\n\n    struct _Investor {\n        address user;\n        uint256 investmentCount;\n    }\n\n    modifier isTrader(address trader) {\n        require(trader != address(0) && traders[trader].user == trader);\n        _;\n    }\n\n    modifier isInvestor(address investor) {\n        require(investor != address(0) && investors[investor].user == investor);\n        _;\n    }\n\n    modifier notInvested(address trader, address investor) {\n        require(!isInvested(trader, investor));\n        _;\n    }\n\n    modifier onlyWallet {\n        require(MultiSigFundWalletFactory(multiSigFundWalletFactory).isInstantiation(msg.sender));\n        _;\n    }\n\n    function initialize(\n            address _feeAccount\n            ) public initializer {\n        Ownable.initialize(msg.sender);\n        Pausable.initialize(msg.sender);\n        feeAccount = _feeAccount;\n    }\n\n    function setMultiSigFundWalletFactory(\n            address _factory\n            ) public onlyOwner {\n        multiSigFundWalletFactory = _factory;\n    }\n\n    function setPairedInvestments(\n            address _pairedInvestments\n            ) public onlyOwner {\n        pairedInvestments = _pairedInvestments;\n    }\n\n    // reverts if ether is sent directly\n    function () external {\n        revert();\n    }\n\n    function setToken(address _token, bool _valid) external onlyOwner {\n        tokens[_token] = _valid;\n    }\n\n    function joinAsTrader() external whenNotPaused {\n        require(traders[msg.sender].user == address(0));\n        require(investors[msg.sender].user == address(0));\n\n        traders[msg.sender] = _Trader({\n            user: msg.sender, \n            investmentCount: 0\n        });\n\n        emit Trader(msg.sender, now);\n    }\n\n    function joinAsInvestor() external whenNotPaused {\n        require(traders[msg.sender].user == address(0));\n        require(investors[msg.sender].user == address(0));\n\n        investors[msg.sender] = _Investor({\n                user: msg.sender,\n                investmentCount: 0\n            });\n\n        emit Investor(msg.sender, now);\n    }\n\n    function allocate(address _token, uint256 _amount) external whenNotPaused {\n        require(tokens[_token]);\n        _Trader memory _trader = traders[msg.sender];\n        require(_trader.user == msg.sender);\n\n        allocations[msg.sender][_token].total = _amount;\n\n        emit Allocate(msg.sender, _token, _amount, now);\n    }\n\n    function isInvested(address _traderAddress, address _investorAddress) \n        internal\n        returns (bool) \n    {\n        address[] memory wallets = MultiSigFundWalletFactory(multiSigFundWalletFactory).getInstantiations(_investorAddress);\n        \n        for(uint256 i = 0; i < wallets.length; i++) {\n            if (MultiSigFundWallet(wallets[i]).traders(_traderAddress)) {\n                return true;\n            }\n        }\n\n        return false;\n    }\n\n    function createInvestment() \n        external\n        whenNotPaused\n        isInvestor(msg.sender)\n    {\n        address wallet = MultiSigFundWalletFactory(multiSigFundWalletFactory).create(address(this), msg.sender, feeAccount);\n        emit Investment(wallet, msg.sender, now);\n    }\n\n    function invest(address _traderAddress, address _investorAddress, address _token, uint256 _amount) \n        public \n        whenNotPaused \n        onlyWallet \n        returns (uint256 investmentCount)\n    {\n        require(tokens[_token]);\n        _Investor storage _investor = investors[_investorAddress];\n        require(_investor.user == _investorAddress);\n\n        _Trader storage _trader = traders[_traderAddress];\n        require(_trader.user == _traderAddress);\n\n        _Allocation storage allocation = allocations[_trader.user][_token];\n\n        // falls within trader allocations\n        require(allocation.total - allocation.invested >= _amount);\n        allocation.invested = allocation.invested.add(_amount);\n\n        investmentCount = PairedInvestments(pairedInvestments).invest(\n            _traderAddress, \n            _investorAddress, \n            _token, \n            _amount\n        );\n\n        _trader.investmentCount = _trader.investmentCount.add(1);\n        traderInvestments[_trader.user][_trader.investmentCount] = investmentCount;\n\n        _investor.investmentCount = _investor.investmentCount.add(1);\n        investorInvestments[_investor.user][_investor.investmentCount] = investmentCount;\n\n        emit Invest(\n            investmentCount,\n            _investorAddress,\n            _trader.user,\n            _token,\n            _amount,\n            now\n        );\n    }\n\n    //\n    //    Investor exits an investment\n    //\n    function requestExitInvestor(address _traderAddress, address _investorAddress, uint256 _investmentId, uint256 _value) \n        public \n        whenNotPaused \n        onlyWallet \n    {\n        _Trader memory _trader = traders[_traderAddress];\n        require(_trader.user == _traderAddress);\n\n        PairedInvestments(pairedInvestments).requestExitInvestor(\n            _traderAddress, \n            _investorAddress, \n            _investmentId, \n            _value);\n\n        emit RequestExit(\n            _traderAddress,\n            _investmentId, \n            _value,\n            now\n        );\n    }\n\n    //\n    //    Trader exits an investment\n    //\n    function requestExitTrader(address _traderAddress, address _investorAddress, uint256 _investmentId, uint256 _value, uint256 _amount) \n        public \n        whenNotPaused \n        onlyWallet \n    {\n        _Trader memory _trader = traders[_traderAddress];\n        require(_trader.user == _traderAddress);\n\n        PairedInvestments(pairedInvestments).requestExitTrader(\n            _traderAddress, \n            _investorAddress, \n            _investmentId, \n            _value,\n            _amount);\n\n        emit RequestExit(\n            _traderAddress,\n            _investmentId, \n            _value,\n            now\n        );\n    }\n\n    function approveExit(address _traderAddress, address _investorAddress, uint256 _investmentId, address _token, uint256 _amount) \n        public \n        whenNotPaused\n        onlyWallet\n        returns (uint256[3] memory payouts)\n    {\n        _Trader memory _trader = traders[_traderAddress];\n        _Investor memory _investor = investors[_investorAddress];\n        require(_trader.user == _traderAddress);\n        require(_investor.user == _investorAddress);\n\n        uint256[4] memory _result = PairedInvestments(pairedInvestments).approveExit(\n            _traderAddress,\n            _investorAddress, \n            _investmentId, \n            _amount);\n\n        allocations[_traderAddress][_token].invested = allocations[_traderAddress][_token].invested.sub(_result[3]);\n        \n        payouts[0] = _result[0];\n        payouts[1] = _result[1];\n        payouts[2] = _result[2];\n\n        emit ApproveExit(\n            _traderAddress,\n            _investmentId,\n            now\n        );\n    }\n\n    // //\n    // //    Investor withdraws previously deposited ether funds, perhaps including profits (and losses)\n    // //\n    // function withdrawEther(uint256 _amount) external whenNotPaused {\n    //     uint256 balance = balances[msg.sender][ETHER];\n    //     balances[msg.sender][ETHER] = balance.sub(_amount);\n    //     msg.sender.transfer(_amount);\n    //     emit Withdraw(ETHER, msg.sender, _amount, balances[msg.sender][ETHER], now);\n    // }\n\n    // //\n    // //    Investor withdraws previously deposited token funds, perhaps including profits (and losses)\n    // //\n    // function withdrawToken(address _token, uint256 _amount) external whenNotPaused {\n    //     require(_token != ETHER);\n    //     uint256 balance = balances[msg.sender][_token];\n    //     // require(IERC20(_token).transferFrom(address(this), msg.sender, _amount));\n    //     require(IERC20(_token).transfer(msg.sender, _amount));\n    //     balances[msg.sender][_token] = balance.sub(_amount);\n    //     emit Withdraw(_token, msg.sender, _amount, balances[msg.sender][_token], now);\n    // }\n\n}\n",
  "sourcePath": "contracts/TraderPaired.sol",
  "abi": [
    {
      "anonymous": false,
      "inputs": [
        {
          "indexed": true,
          "internalType": "address",
          "name": "trader",
          "type": "address"
        },
        {
          "indexed": false,
          "internalType": "address",
          "name": "token",
          "type": "address"
        },
        {
          "indexed": false,
          "internalType": "uint256",
          "name": "amount",
          "type": "uint256"
        },
        {
          "indexed": false,
          "internalType": "uint256",
          "name": "date",
          "type": "uint256"
        }
      ],
      "name": "Allocate",
      "type": "event"
    },
    {
      "anonymous": false,
      "inputs": [
        {
          "indexed": true,
          "internalType": "address",
          "name": "trader",
          "type": "address"
        },
        {
          "indexed": false,
          "internalType": "uint256",
          "name": "investmentId",
          "type": "uint256"
        },
        {
          "indexed": false,
          "internalType": "uint256",
          "name": "date",
          "type": "uint256"
        }
      ],
      "name": "ApproveExit",
      "type": "event"
    },
    {
      "anonymous": false,
      "inputs": [
        {
          "indexed": false,
          "internalType": "uint256",
          "name": "id",
          "type": "uint256"
        },
        {
          "indexed": true,
          "internalType": "address",
          "name": "investor",
          "type": "address"
        },
        {
          "indexed": true,
          "internalType": "address",
          "name": "trader",
          "type": "address"
        },
        {
          "indexed": true,
          "internalType": "address",
          "name": "token",
          "type": "address"
        },
        {
          "indexed": false,
          "internalType": "uint256",
          "name": "amount",
          "type": "uint256"
        },
        {
          "indexed": false,
          "internalType": "uint256",
          "name": "date",
          "type": "uint256"
        }
      ],
      "name": "Invest",
      "type": "event"
    },
    {
      "anonymous": false,
      "inputs": [
        {
          "indexed": true,
          "internalType": "address",
          "name": "wallet",
          "type": "address"
        },
        {
          "indexed": true,
          "internalType": "address",
          "name": "investor",
          "type": "address"
        },
        {
          "indexed": false,
          "internalType": "uint256",
          "name": "date",
          "type": "uint256"
        }
      ],
      "name": "Investment",
      "type": "event"
    },
    {
      "anonymous": false,
      "inputs": [
        {
          "indexed": true,
          "internalType": "address",
          "name": "investor",
          "type": "address"
        },
        {
          "indexed": false,
          "internalType": "uint256",
          "name": "date",
          "type": "uint256"
        }
      ],
      "name": "Investor",
      "type": "event"
    },
    {
      "anonymous": false,
      "inputs": [
        {
          "indexed": true,
          "internalType": "address",
          "name": "previousOwner",
          "type": "address"
        },
        {
          "indexed": true,
          "internalType": "address",
          "name": "newOwner",
          "type": "address"
        }
      ],
      "name": "OwnershipTransferred",
      "type": "event"
    },
    {
      "anonymous": false,
      "inputs": [
        {
          "indexed": false,
          "internalType": "address",
          "name": "account",
          "type": "address"
        }
      ],
      "name": "Paused",
      "type": "event"
    },
    {
      "anonymous": false,
      "inputs": [
        {
          "indexed": true,
          "internalType": "address",
          "name": "account",
          "type": "address"
        }
      ],
      "name": "PauserAdded",
      "type": "event"
    },
    {
      "anonymous": false,
      "inputs": [
        {
          "indexed": true,
          "internalType": "address",
          "name": "account",
          "type": "address"
        }
      ],
      "name": "PauserRemoved",
      "type": "event"
    },
    {
      "anonymous": false,
      "inputs": [
        {
          "indexed": true,
          "internalType": "address",
          "name": "trader",
          "type": "address"
        },
        {
          "indexed": false,
          "internalType": "uint256",
          "name": "investmentId",
          "type": "uint256"
        },
        {
          "indexed": false,
          "internalType": "uint256",
          "name": "value",
          "type": "uint256"
        },
        {
          "indexed": false,
          "internalType": "uint256",
          "name": "date",
          "type": "uint256"
        }
      ],
      "name": "RejectExit",
      "type": "event"
    },
    {
      "anonymous": false,
      "inputs": [
        {
          "indexed": true,
          "internalType": "address",
          "name": "trader",
          "type": "address"
        },
        {
          "indexed": false,
          "internalType": "uint256",
          "name": "investmentId",
          "type": "uint256"
        },
        {
          "indexed": false,
          "internalType": "uint256",
          "name": "value",
          "type": "uint256"
        },
        {
          "indexed": false,
          "internalType": "uint256",
          "name": "date",
          "type": "uint256"
        }
      ],
      "name": "RequestExit",
      "type": "event"
    },
    {
      "anonymous": false,
      "inputs": [
        {
          "indexed": true,
          "internalType": "address",
          "name": "trader",
          "type": "address"
        },
        {
          "indexed": false,
          "internalType": "uint256",
          "name": "date",
          "type": "uint256"
        }
      ],
      "name": "Trader",
      "type": "event"
    },
    {
      "anonymous": false,
      "inputs": [
        {
          "indexed": false,
          "internalType": "address",
          "name": "account",
          "type": "address"
        }
      ],
      "name": "Unpaused",
      "type": "event"
    },
    {
      "anonymous": false,
      "inputs": [
        {
          "indexed": true,
          "internalType": "address",
          "name": "token",
          "type": "address"
        },
        {
          "indexed": true,
          "internalType": "address",
          "name": "user",
          "type": "address"
        },
        {
          "indexed": false,
          "internalType": "uint256",
          "name": "amount",
          "type": "uint256"
        },
        {
          "indexed": false,
          "internalType": "uint256",
          "name": "balance",
          "type": "uint256"
        },
        {
          "indexed": false,
          "internalType": "uint256",
          "name": "date",
          "type": "uint256"
        }
      ],
      "name": "Withdraw",
      "type": "event"
    },
    {
      "payable": false,
      "stateMutability": "nonpayable",
      "type": "fallback"
    },
    {
      "constant": false,
      "inputs": [
        {
          "internalType": "address",
          "name": "account",
          "type": "address"
        }
      ],
      "name": "addPauser",
      "outputs": [],
      "payable": false,
      "stateMutability": "nonpayable",
      "type": "function"
    },
    {
      "constant": false,
      "inputs": [
        {
          "internalType": "address",
          "name": "_token",
          "type": "address"
        },
        {
          "internalType": "uint256",
          "name": "_amount",
          "type": "uint256"
        }
      ],
      "name": "allocate",
      "outputs": [],
      "payable": false,
      "stateMutability": "nonpayable",
      "type": "function"
    },
    {
      "constant": true,
      "inputs": [
        {
          "internalType": "address",
          "name": "",
          "type": "address"
        },
        {
          "internalType": "address",
          "name": "",
          "type": "address"
        }
      ],
      "name": "allocations",
      "outputs": [
        {
          "internalType": "uint256",
          "name": "total",
          "type": "uint256"
        },
        {
          "internalType": "uint256",
          "name": "invested",
          "type": "uint256"
        }
      ],
      "payable": false,
      "stateMutability": "view",
      "type": "function"
    },
    {
      "constant": false,
      "inputs": [
        {
          "internalType": "address",
          "name": "_traderAddress",
          "type": "address"
        },
        {
          "internalType": "address",
          "name": "_investorAddress",
          "type": "address"
        },
        {
          "internalType": "uint256",
          "name": "_investmentId",
          "type": "uint256"
        },
        {
          "internalType": "address",
          "name": "_token",
          "type": "address"
        },
        {
          "internalType": "uint256",
          "name": "_amount",
          "type": "uint256"
        }
      ],
      "name": "approveExit",
      "outputs": [
        {
          "internalType": "uint256[3]",
          "name": "payouts",
          "type": "uint256[3]"
        }
      ],
      "payable": false,
      "stateMutability": "nonpayable",
      "type": "function"
    },
    {
      "constant": true,
      "inputs": [
        {
          "internalType": "address",
          "name": "",
          "type": "address"
        },
        {
          "internalType": "address",
          "name": "",
          "type": "address"
        }
      ],
      "name": "balances",
      "outputs": [
        {
          "internalType": "uint256",
          "name": "",
          "type": "uint256"
        }
      ],
      "payable": false,
      "stateMutability": "view",
      "type": "function"
    },
    {
      "constant": false,
      "inputs": [],
      "name": "createInvestment",
      "outputs": [],
      "payable": false,
      "stateMutability": "nonpayable",
      "type": "function"
    },
    {
      "constant": true,
      "inputs": [],
      "name": "feeAccount",
      "outputs": [
        {
          "internalType": "address",
          "name": "",
          "type": "address"
        }
      ],
      "payable": false,
      "stateMutability": "view",
      "type": "function"
    },
    {
      "constant": false,
      "inputs": [
        {
          "internalType": "address",
          "name": "_feeAccount",
          "type": "address"
        }
      ],
      "name": "initialize",
      "outputs": [],
      "payable": false,
      "stateMutability": "nonpayable",
      "type": "function"
    },
    {
      "constant": false,
      "inputs": [
        {
          "internalType": "address",
          "name": "_traderAddress",
          "type": "address"
        },
        {
          "internalType": "address",
          "name": "_investorAddress",
          "type": "address"
        },
        {
          "internalType": "address",
          "name": "_token",
          "type": "address"
        },
        {
          "internalType": "uint256",
          "name": "_amount",
          "type": "uint256"
        }
      ],
      "name": "invest",
      "outputs": [
        {
          "internalType": "uint256",
          "name": "investmentCount",
          "type": "uint256"
        }
      ],
      "payable": false,
      "stateMutability": "nonpayable",
      "type": "function"
    },
    {
      "constant": true,
      "inputs": [
        {
          "internalType": "address",
          "name": "",
          "type": "address"
        },
        {
          "internalType": "uint256",
          "name": "",
          "type": "uint256"
        }
      ],
      "name": "investorInvestments",
      "outputs": [
        {
          "internalType": "uint256",
          "name": "",
          "type": "uint256"
        }
      ],
      "payable": false,
      "stateMutability": "view",
      "type": "function"
    },
    {
      "constant": true,
      "inputs": [
        {
          "internalType": "address",
          "name": "",
          "type": "address"
        }
      ],
      "name": "investors",
      "outputs": [
        {
          "internalType": "address",
          "name": "user",
          "type": "address"
        },
        {
          "internalType": "uint256",
          "name": "investmentCount",
          "type": "uint256"
        }
      ],
      "payable": false,
      "stateMutability": "view",
      "type": "function"
    },
    {
      "constant": true,
      "inputs": [],
      "name": "isOwner",
      "outputs": [
        {
          "internalType": "bool",
          "name": "",
          "type": "bool"
        }
      ],
      "payable": false,
      "stateMutability": "view",
      "type": "function"
    },
    {
      "constant": true,
      "inputs": [
        {
          "internalType": "address",
          "name": "account",
          "type": "address"
        }
      ],
      "name": "isPauser",
      "outputs": [
        {
          "internalType": "bool",
          "name": "",
          "type": "bool"
        }
      ],
      "payable": false,
      "stateMutability": "view",
      "type": "function"
    },
    {
      "constant": false,
      "inputs": [],
      "name": "joinAsInvestor",
      "outputs": [],
      "payable": false,
      "stateMutability": "nonpayable",
      "type": "function"
    },
    {
      "constant": false,
      "inputs": [],
      "name": "joinAsTrader",
      "outputs": [],
      "payable": false,
      "stateMutability": "nonpayable",
      "type": "function"
    },
    {
      "constant": true,
      "inputs": [],
      "name": "multiSigFundWalletFactory",
      "outputs": [
        {
          "internalType": "address",
          "name": "",
          "type": "address"
        }
      ],
      "payable": false,
      "stateMutability": "view",
      "type": "function"
    },
    {
      "constant": true,
      "inputs": [],
      "name": "owner",
      "outputs": [
        {
          "internalType": "address",
          "name": "",
          "type": "address"
        }
      ],
      "payable": false,
      "stateMutability": "view",
      "type": "function"
    },
    {
      "constant": true,
      "inputs": [],
      "name": "pairedInvestments",
      "outputs": [
        {
          "internalType": "address",
          "name": "",
          "type": "address"
        }
      ],
      "payable": false,
      "stateMutability": "view",
      "type": "function"
    },
    {
      "constant": false,
      "inputs": [],
      "name": "pause",
      "outputs": [],
      "payable": false,
      "stateMutability": "nonpayable",
      "type": "function"
    },
    {
      "constant": true,
      "inputs": [],
      "name": "paused",
      "outputs": [
        {
          "internalType": "bool",
          "name": "",
          "type": "bool"
        }
      ],
      "payable": false,
      "stateMutability": "view",
      "type": "function"
    },
    {
      "constant": false,
      "inputs": [],
      "name": "renounceOwnership",
      "outputs": [],
      "payable": false,
      "stateMutability": "nonpayable",
      "type": "function"
    },
    {
      "constant": false,
      "inputs": [],
      "name": "renouncePauser",
      "outputs": [],
      "payable": false,
      "stateMutability": "nonpayable",
      "type": "function"
    },
    {
      "constant": false,
      "inputs": [
        {
          "internalType": "address",
          "name": "_traderAddress",
          "type": "address"
        },
        {
          "internalType": "address",
          "name": "_investorAddress",
          "type": "address"
        },
        {
          "internalType": "uint256",
          "name": "_investmentId",
          "type": "uint256"
        },
        {
          "internalType": "uint256",
          "name": "_value",
          "type": "uint256"
        }
      ],
      "name": "requestExitInvestor",
      "outputs": [],
      "payable": false,
      "stateMutability": "nonpayable",
      "type": "function"
    },
    {
      "constant": false,
      "inputs": [
        {
          "internalType": "address",
          "name": "_traderAddress",
          "type": "address"
        },
        {
          "internalType": "address",
          "name": "_investorAddress",
          "type": "address"
        },
        {
          "internalType": "uint256",
          "name": "_investmentId",
          "type": "uint256"
        },
        {
          "internalType": "uint256",
          "name": "_value",
          "type": "uint256"
        },
        {
          "internalType": "uint256",
          "name": "_amount",
          "type": "uint256"
        }
      ],
      "name": "requestExitTrader",
      "outputs": [],
      "payable": false,
      "stateMutability": "nonpayable",
      "type": "function"
    },
    {
      "constant": false,
      "inputs": [
        {
          "internalType": "address",
          "name": "_factory",
          "type": "address"
        }
      ],
      "name": "setMultiSigFundWalletFactory",
      "outputs": [],
      "payable": false,
      "stateMutability": "nonpayable",
      "type": "function"
    },
    {
      "constant": false,
      "inputs": [
        {
          "internalType": "address",
          "name": "_pairedInvestments",
          "type": "address"
        }
      ],
      "name": "setPairedInvestments",
      "outputs": [],
      "payable": false,
      "stateMutability": "nonpayable",
      "type": "function"
    },
    {
      "constant": false,
      "inputs": [
        {
          "internalType": "address",
          "name": "_token",
          "type": "address"
        },
        {
          "internalType": "bool",
          "name": "_valid",
          "type": "bool"
        }
      ],
      "name": "setToken",
      "outputs": [],
      "payable": false,
      "stateMutability": "nonpayable",
      "type": "function"
    },
    {
      "constant": true,
      "inputs": [
        {
          "internalType": "address",
          "name": "",
          "type": "address"
        }
      ],
      "name": "tokens",
      "outputs": [
        {
          "internalType": "bool",
          "name": "",
          "type": "bool"
        }
      ],
      "payable": false,
      "stateMutability": "view",
      "type": "function"
    },
    {
      "constant": true,
      "inputs": [
        {
          "internalType": "address",
          "name": "",
          "type": "address"
        },
        {
          "internalType": "uint256",
          "name": "",
          "type": "uint256"
        }
      ],
      "name": "traderInvestments",
      "outputs": [
        {
          "internalType": "uint256",
          "name": "",
          "type": "uint256"
        }
      ],
      "payable": false,
      "stateMutability": "view",
      "type": "function"
    },
    {
      "constant": true,
      "inputs": [
        {
          "internalType": "address",
          "name": "",
          "type": "address"
        }
      ],
      "name": "traders",
      "outputs": [
        {
          "internalType": "address",
          "name": "user",
          "type": "address"
        },
        {
          "internalType": "uint256",
          "name": "investmentCount",
          "type": "uint256"
        }
      ],
      "payable": false,
      "stateMutability": "view",
      "type": "function"
    },
    {
      "constant": false,
      "inputs": [
        {
          "internalType": "address",
          "name": "newOwner",
          "type": "address"
        }
      ],
      "name": "transferOwnership",
      "outputs": [],
      "payable": false,
      "stateMutability": "nonpayable",
      "type": "function"
    },
    {
      "constant": false,
      "inputs": [],
      "name": "unpause",
      "outputs": [],
      "payable": false,
      "stateMutability": "nonpayable",
      "type": "function"
    }
  ],
  "bytecode": "0x60806040526122d0806100136000396000f3fe608060405234801561001057600080fd5b50600436106101f05760003560e01c80638456cb591161010f578063c23f001f116100a2578063e486033911610071578063e4860339146105f7578063eef90b621461061d578063f2fde38b14610649578063fb171a521461066f576101f0565b8063c23f001f14610557578063c4d66de814610585578063c9076b5b146105ab578063d37a15d0146105d1576101f0565b806392a88fa2116100de57806392a88fa214610481578063a57a71b7146104a7578063b3cb642f14610523578063b78b52df1461052b576101f0565b80638456cb5914610422578063853996e41461042a5780638da5cb5b146104715780638f32d59b14610479576101f0565b80635a77c18d116101875780636ef8d66d116101565780636ef8d66d146103a35780636f7bc9be146103ab578063715018a6146103f457806382dc1ec4146103fc576101f0565b80635a77c18d146103435780635c975abb1461036f57806365e17c9d146103775780636e1469981461039b576101f0565b80633816a292116101c35780633816a292146102915780633f4ba83a146102bf578063468bdb23146102c757806346fbf68e14610309576101f0565b80631752e568146101f55780631896de52146102335780632daf2f02146102815780633619fcd114610289575b600080fd5b6102316004803603608081101561020b57600080fd5b506001600160a01b03813581169160208101359091169060408101359060600135610677565b005b61026f6004803603608081101561024957600080fd5b506001600160a01b0381358116916020810135821691604082013516906060013561085b565b60408051918252519081900360200190f35b610231610b68565b610231610cbb565b610231600480360360408110156102a757600080fd5b506001600160a01b0381351690602001351515610dc9565b610231610e3b565b610231600480360360a08110156102dd57600080fd5b506001600160a01b03813581169160208101359091169060408101359060608101359060800135610f24565b61032f6004803603602081101561031f57600080fd5b50356001600160a01b0316611110565b604080519115158252519081900360200190f35b61026f6004803603604081101561035957600080fd5b506001600160a01b038135169060200135611129565b61032f611146565b61037f61114f565b604080516001600160a01b039092168252519081900360200190f35b61023161115e565b61023161126c565b6103d1600480360360208110156103c157600080fd5b50356001600160a01b031661127e565b604080516001600160a01b03909316835260208301919091528051918290030190f35b6102316112a3565b6102316004803603602081101561041257600080fd5b50356001600160a01b0316611334565b610231611386565b6104586004803603604081101561044057600080fd5b506001600160a01b038135811691602001351661144d565b6040805192835260208301919091528051918290030190f35b61037f611471565b61032f611480565b6103d16004803603602081101561049757600080fd5b50356001600160a01b03166114a6565b6104eb600480360360a08110156104bd57600080fd5b506001600160a01b0381358116916020810135821691604082013591606081013590911690608001356114cb565b6040518082606080838360005b838110156105105781810151838201526020016104f8565b5050505090500191505060405180910390f35b61037f6117bc565b6102316004803603604081101561054157600080fd5b506001600160a01b0381351690602001356117cb565b61026f6004803603604081101561056d57600080fd5b506001600160a01b03813581169160200135166118ef565b6102316004803603602081101561059b57600080fd5b50356001600160a01b031661190c565b610231600480360360208110156105c157600080fd5b50356001600160a01b03166119dc565b610231600480360360208110156105e757600080fd5b50356001600160a01b0316611a45565b61032f6004803603602081101561060d57600080fd5b50356001600160a01b0316611aae565b61026f6004803603604081101561063357600080fd5b506001600160a01b038135169060200135611ac3565b6102316004803603602081101561065f57600080fd5b50356001600160a01b0316611ae0565b61037f611b30565b60995460ff16156106c2576040805162461bcd60e51b815260206004820152601060248201526f14185d5cd8589b194e881c185d5cd95960821b604482015290519081900360640190fd5b60cf54604080516317a7998b60e11b815233600482015290516001600160a01b0390921691632f4f331691602480820192602092909190829003018186803b15801561070d57600080fd5b505afa158015610721573d6000803e3d6000fd5b505050506040513d602081101561073757600080fd5b505161074257600080fd5b61074a612161565b506001600160a01b03808516600081815260cd60209081526040918290208251808401909352805490941680835260019094015490820152911461078d57600080fd5b60d054604080516302ea5cad60e31b81526001600160a01b0388811660048301528781166024830152604482018790526064820186905291519190921691631752e56891608480830192600092919082900301818387803b1580156107f157600080fd5b505af1158015610805573d6000803e3d6000fd5b50506040805186815260208101869052428183015290516001600160a01b03891693507f1ba6e7576ae4d1d432c1146c68136b75d0a329b7c0163bdb28145ddae4910b0992509081900360600190a25050505050565b60995460009060ff16156108a9576040805162461bcd60e51b815260206004820152601060248201526f14185d5cd8589b194e881c185d5cd95960821b604482015290519081900360640190fd5b60cf54604080516317a7998b60e11b815233600482015290516001600160a01b0390921691632f4f331691602480820192602092909190829003018186803b1580156108f457600080fd5b505afa158015610908573d6000803e3d6000fd5b505050506040513d602081101561091e57600080fd5b505161092957600080fd5b6001600160a01b038316600090815260d1602052604090205460ff1661094e57600080fd5b6001600160a01b03808516600081815260ce6020526040902080549092161461097657600080fd5b6001600160a01b03808716600081815260cd6020526040902080549092161461099e57600080fd5b80546001600160a01b03908116600090815260d46020908152604080832093891683529290522060018101548154038511156109d957600080fd5b60018101546109ee908663ffffffff611b3f16565b600182015560d05460408051630c4b6f2960e11b81526001600160a01b038b811660048301528a8116602483015289811660448301526064820189905291519190921691631896de529160848083019260209291908290030181600087803b158015610a5957600080fd5b505af1158015610a6d573d6000803e3d6000fd5b505050506040513d6020811015610a8357600080fd5b5051600183810154919550610a9e919063ffffffff611b3f16565b600180840182905583546001600160a01b0316600090815260d2602090815260408083209483529390529190912085905583810154610ae29163ffffffff611b3f16565b6001840181905583546001600160a01b03908116600090815260d360209081526040808320948352938152908390208790558454835188815291820189905242828501529251898316938316928b16917fdd1f7f399039cfed2bfd62579273f6a61162a5724bea9728560733671c15e81c919081900360600190a4505050949350505050565b60995460ff1615610bb3576040805162461bcd60e51b815260206004820152601060248201526f14185d5cd8589b194e881c185d5cd95960821b604482015290519081900360640190fd5b338015801590610bdd57506001600160a01b03808216600081815260ce6020526040902054909116145b610be657600080fd5b60cf5460cc5460408051639c041ebd60e01b81523060048201523360248201526001600160a01b03928316604482015290516000939290921691639c041ebd9160648082019260209290919082900301818787803b158015610c4757600080fd5b505af1158015610c5b573d6000803e3d6000fd5b505050506040513d6020811015610c7157600080fd5b505160408051428152905191925033916001600160a01b038416917f1db4dbd1a480026d914fad200d8cff01748461d96bcd8684a4e4496d8b46c6e7919081900360200190a35050565b60995460ff1615610d06576040805162461bcd60e51b815260206004820152601060248201526f14185d5cd8589b194e881c185d5cd95960821b604482015290519081900360640190fd5b33600090815260cd60205260409020546001600160a01b031615610d2957600080fd5b33600090815260ce60205260409020546001600160a01b031615610d4c57600080fd5b604080518082018252338082526000602080840182815283835260cd825291859020935184546001600160a01b0319166001600160a01b0390911617845590516001909301929092558251428152925190927f07e6fac70d6958b8515f69f22e83196b98850a5a0891eb226df124f7677bd81592908290030190a2565b610dd1611480565b610e10576040805162461bcd60e51b8152602060048201819052602482015260008051602061222c833981519152604482015290519081900360640190fd5b6001600160a01b0391909116600090815260d160205260409020805460ff1916911515919091179055565b610e4b610e46611ba0565b611110565b610e865760405162461bcd60e51b81526004018080602001828103825260308152602001806121b56030913960400191505060405180910390fd5b60995460ff16610ed4576040805162461bcd60e51b815260206004820152601460248201527314185d5cd8589b194e881b9bdd081c185d5cd95960621b604482015290519081900360640190fd5b6099805460ff191690557f5db9ee0a495bf2e6ff9c91a7834c1ba4fdd244a5e8aa4e537bd38aeae4b073aa610f07611ba0565b604080516001600160a01b039092168252519081900360200190a1565b60995460ff1615610f6f576040805162461bcd60e51b815260206004820152601060248201526f14185d5cd8589b194e881c185d5cd95960821b604482015290519081900360640190fd5b60cf54604080516317a7998b60e11b815233600482015290516001600160a01b0390921691632f4f331691602480820192602092909190829003018186803b158015610fba57600080fd5b505afa158015610fce573d6000803e3d6000fd5b505050506040513d6020811015610fe457600080fd5b5051610fef57600080fd5b610ff7612161565b506001600160a01b03808616600081815260cd60209081526040918290208251808401909352805490941680835260019094015490820152911461103a57600080fd5b60d0546040805163468bdb2360e01b81526001600160a01b03898116600483015288811660248301526044820188905260648201879052608482018690529151919092169163468bdb239160a480830192600092919082900301818387803b1580156110a557600080fd5b505af11580156110b9573d6000803e3d6000fd5b50506040805187815260208101879052428183015290516001600160a01b038a1693507f1ba6e7576ae4d1d432c1146c68136b75d0a329b7c0163bdb28145ddae4910b0992509081900360600190a2505050505050565b600061112360668363ffffffff611ba416565b92915050565b60d260209081526000928352604080842090915290825290205481565b60995460ff1690565b60cc546001600160a01b031681565b60995460ff16156111a9576040805162461bcd60e51b815260206004820152601060248201526f14185d5cd8589b194e881c185d5cd95960821b604482015290519081900360640190fd5b33600090815260cd60205260409020546001600160a01b0316156111cc57600080fd5b33600090815260ce60205260409020546001600160a01b0316156111ef57600080fd5b604080518082018252338082526000602080840182815283835260ce825291859020935184546001600160a01b0319166001600160a01b0390911617845590516001909301929092558251428152925190927f7eb3885ab39ec25048338624e839a2b90fe3079bb88b9c697f56cfff3147193592908290030190a2565b61127c611277611ba0565b611c0b565b565b60ce60205260009081526040902080546001909101546001600160a01b039091169082565b6112ab611480565b6112ea576040805162461bcd60e51b8152602060048201819052602482015260008051602061222c833981519152604482015290519081900360640190fd5b6033546040516000916001600160a01b0316907f8be0079c531659141344cd1fd0a4f28419497f9722a3daafe3b4186f6b6457e0908390a3603380546001600160a01b0319169055565b61133f610e46611ba0565b61137a5760405162461bcd60e51b81526004018080602001828103825260308152602001806121b56030913960400191505060405180910390fd5b61138381611c53565b50565b611391610e46611ba0565b6113cc5760405162461bcd60e51b81526004018080602001828103825260308152602001806121b56030913960400191505060405180910390fd5b60995460ff1615611417576040805162461bcd60e51b815260206004820152601060248201526f14185d5cd8589b194e881c185d5cd95960821b604482015290519081900360640190fd5b6099805460ff191660011790557f62e78cea01bee320cd4e420270b5ea74000d11b0c9f74754ebdbfc544b05a258610f07611ba0565b60d46020908152600092835260408084209091529082529020805460019091015482565b6033546001600160a01b031690565b6033546000906001600160a01b0316611497611ba0565b6001600160a01b031614905090565b60cd60205260009081526040902080546001909101546001600160a01b039091169082565b6114d3612178565b60995460ff161561151e576040805162461bcd60e51b815260206004820152601060248201526f14185d5cd8589b194e881c185d5cd95960821b604482015290519081900360640190fd5b60cf54604080516317a7998b60e11b815233600482015290516001600160a01b0390921691632f4f331691602480820192602092909190829003018186803b15801561156957600080fd5b505afa15801561157d573d6000803e3d6000fd5b505050506040513d602081101561159357600080fd5b505161159e57600080fd5b6115a6612161565b506001600160a01b03808716600090815260cd6020908152604091829020825180840190935280549093168252600190920154918101919091526115e8612161565b506001600160a01b03868116600090815260ce6020908152604091829020825180840190935280548416835260010154908201528251909189811691161461162f57600080fd5b866001600160a01b031681600001516001600160a01b03161461165157600080fd5b611659612196565b60d05460408051633487283160e01b81526001600160a01b038c811660048301528b81166024830152604482018b9052606482018990529151919092169163348728319160848083019260809291908290030181600087803b1580156116be57600080fd5b505af11580156116d2573d6000803e3d6000fd5b505050506040513d601f19601f8201168201806040525060808110156116f757600080fd5b5060608101516001600160a01b038b8116600090815260d460209081526040808320938c16835292905220600101549192506117339190611c9b565b6001600160a01b038a8116600081815260d460209081526040808320948c1683529381529083902060010193909355835187528383015187840152838201518783015281518a81524293810193909352815190927f157a16655c9fec6a7b8d28e7996c8bc1f1ebe0a2b4fa91bbd6427f6dc2bf114b92908290030190a250505095945050505050565b60cf546001600160a01b031681565b60995460ff1615611816576040805162461bcd60e51b815260206004820152601060248201526f14185d5cd8589b194e881c185d5cd95960821b604482015290519081900360640190fd5b6001600160a01b038216600090815260d1602052604090205460ff1661183b57600080fd5b611843612161565b5033600081815260cd6020908152604091829020825180840190935280546001600160a01b03168084526001909101549183019190915290911461188657600080fd5b33600081815260d4602090815260408083206001600160a01b0388168085529083529281902086905580519283529082018590524282820152517f5b9d56b28a7cde78f80ab41749028c18864c008e0e3722985c63ea258111b7eb9181900360600190a2505050565b60d560209081526000928352604080842090915290825290205481565b600054610100900460ff16806119255750611925611cdd565b80611933575060005460ff16155b61196e5760405162461bcd60e51b815260040180806020018281038252602e81526020018061226e602e913960400191505060405180910390fd5b600054610100900460ff16158015611999576000805460ff1961ff0019909116610100171660011790555b6119a233611ce3565b6119ab33611dd4565b60cc80546001600160a01b0319166001600160a01b03841617905580156119d8576000805461ff00191690555b5050565b6119e4611480565b611a23576040805162461bcd60e51b8152602060048201819052602482015260008051602061222c833981519152604482015290519081900360640190fd5b60cf80546001600160a01b0319166001600160a01b0392909216919091179055565b611a4d611480565b611a8c576040805162461bcd60e51b8152602060048201819052602482015260008051602061222c833981519152604482015290519081900360640190fd5b60d080546001600160a01b0319166001600160a01b0392909216919091179055565b60d16020526000908152604090205460ff1681565b60d360209081526000928352604080842090915290825290205481565b611ae8611480565b611b27576040805162461bcd60e51b8152602060048201819052602482015260008051602061222c833981519152604482015290519081900360640190fd5b61138381611e89565b60d0546001600160a01b031681565b600082820183811015611b99576040805162461bcd60e51b815260206004820152601b60248201527f536166654d6174683a206164646974696f6e206f766572666c6f770000000000604482015290519081900360640190fd5b9392505050565b3390565b60006001600160a01b038216611beb5760405162461bcd60e51b815260040180806020018281038252602281526020018061224c6022913960400191505060405180910390fd5b506001600160a01b03166000908152602091909152604090205460ff1690565b611c1c60668263ffffffff611f2a16565b6040516001600160a01b038216907fcd265ebaf09df2871cc7bd4133404a235ba12eff2041bb89d9c714a2621c7c7e90600090a250565b611c6460668263ffffffff611f9116565b6040516001600160a01b038216907f6719d08c1888103bea251a4ed56406bd0c3e69723c8a1686e017e7bbe159b6f890600090a250565b6000611b9983836040518060400160405280601e81526020017f536166654d6174683a207375627472616374696f6e206f766572666c6f770000815250612012565b303b1590565b600054610100900460ff1680611cfc5750611cfc611cdd565b80611d0a575060005460ff16155b611d455760405162461bcd60e51b815260040180806020018281038252602e81526020018061226e602e913960400191505060405180910390fd5b600054610100900460ff16158015611d70576000805460ff1961ff0019909116610100171660011790555b603380546001600160a01b0319166001600160a01b0384811691909117918290556040519116906000907f8be0079c531659141344cd1fd0a4f28419497f9722a3daafe3b4186f6b6457e0908290a380156119d8576000805461ff00191690555050565b600054610100900460ff1680611ded5750611ded611cdd565b80611dfb575060005460ff16155b611e365760405162461bcd60e51b815260040180806020018281038252602e81526020018061226e602e913960400191505060405180910390fd5b600054610100900460ff16158015611e61576000805460ff1961ff0019909116610100171660011790555b611e6a826120a9565b6099805460ff1916905580156119d8576000805461ff00191690555050565b6001600160a01b038116611ece5760405162461bcd60e51b81526004018080602001828103825260268152602001806121e56026913960400191505060405180910390fd5b6033546040516001600160a01b038084169216907f8be0079c531659141344cd1fd0a4f28419497f9722a3daafe3b4186f6b6457e090600090a3603380546001600160a01b0319166001600160a01b0392909216919091179055565b611f348282611ba4565b611f6f5760405162461bcd60e51b815260040180806020018281038252602181526020018061220b6021913960400191505060405180910390fd5b6001600160a01b0316600090815260209190915260409020805460ff19169055565b611f9b8282611ba4565b15611fed576040805162461bcd60e51b815260206004820152601f60248201527f526f6c65733a206163636f756e7420616c72656164792068617320726f6c6500604482015290519081900360640190fd5b6001600160a01b0316600090815260209190915260409020805460ff19166001179055565b600081848411156120a15760405162461bcd60e51b81526004018080602001828103825283818151815260200191508051906020019080838360005b8381101561206657818101518382015260200161204e565b50505050905090810190601f1680156120935780820380516001836020036101000a031916815260200191505b509250505060405180910390fd5b505050900390565b600054610100900460ff16806120c257506120c2611cdd565b806120d0575060005460ff16155b61210b5760405162461bcd60e51b815260040180806020018281038252602e81526020018061226e602e913960400191505060405180910390fd5b600054610100900460ff16158015612136576000805460ff1961ff0019909116610100171660011790555b61213f82611110565b61214c5761214c82611c53565b80156119d8576000805461ff00191690555050565b604080518082019091526000808252602082015290565b60405180606001604052806003906020820280388339509192915050565b6040518060800160405280600490602082028038833950919291505056fe506175736572526f6c653a2063616c6c657220646f6573206e6f742068617665207468652050617573657220726f6c654f776e61626c653a206e6577206f776e657220697320746865207a65726f2061646472657373526f6c65733a206163636f756e7420646f6573206e6f74206861766520726f6c654f776e61626c653a2063616c6c6572206973206e6f7420746865206f776e6572526f6c65733a206163636f756e7420697320746865207a65726f2061646472657373436f6e747261637420696e7374616e63652068617320616c7265616479206265656e20696e697469616c697a6564a265627a7a72315820b2d93cd004454103caf2169442e176c5423c09a1b1f02242594f2b61a0f5c1c264736f6c63430005110032",
  "compiler": {
    "name": "solc",
    "version": "0.5.17+commit.d19bba13.Emscripten.clang",
    "optimizer": {
      "enabled": true,
      "runs": 200
    },
    "evmVersion": "petersburg"
  }
}