{
  "fileName": "TraderPaired.sol",
  "contractName": "TraderPaired",
  "source": "// \"SPDX-License-Identifier: UNLICENSED\"\npragma solidity >=0.4.21 <0.7.0;\n\nimport \"@openzeppelin/contracts-ethereum-package/contracts/math/SafeMath.sol\";\nimport \"@openzeppelin/upgrades/contracts/Initializable.sol\";\nimport \"@openzeppelin/contracts-ethereum-package/contracts/ownership/Ownable.sol\";\nimport \"@openzeppelin/contracts-ethereum-package/contracts/lifecycle/Pausable.sol\";\nimport \"@openzeppelin/contracts-ethereum-package/contracts/token/ERC20/IERC20.sol\";\n\nimport \"./PairedInvestments.sol\";\n\ncontract TraderPaired is Initializable, Ownable, Pausable {\n\tusing SafeMath for uint256;\n\n    address constant ETHER = address(0); // allows storage of ether in blank address in token mapping\n    address public feeAccount; // account that will receive fees\n\n    mapping(address => _Trader) public traders;\n    // mapping(address => _Investor) public investors;\n\n    // address public pairedInvestments;\n\n    // mapping(address => bool) public tokens;\n\n    // mapping(address => mapping(uint256 => uint256)) public traderInvestments;\n    // mapping(address => mapping(uint256 => uint256)) public investorInvestments;\n    // mapping(address => mapping(address => _Allocation)) public allocations;\n\n    // mapping(address => mapping(address => uint256)) public balances; // mapping of token balances to addresses\n\n    event Trader(address indexed trader, uint256 date);\n    // event Investor(address indexed investor, uint256 date);\n    // event Allocate(address indexed trader, address token, uint256 amount);\n    // event Withdraw(address indexed token, address indexed user, uint256 amount, uint256 balance, uint256 date);\n    // event Invest(uint256 id, address indexed investor, address indexed trader, address indexed token, uint256 amount);\n    // event RequestExit(address indexed trader, uint256 investmentId, uint256 date, uint256 value);\n    // event RejectExit(address indexed trader, uint256 investmentId, uint256 value, uint256 date);\n    // event ApproveExit(address indexed trader, uint256 investmentId, uint256 date);\n\n    struct _Trader {\n        address user;\n        uint256 investmentCount;\n    }\n\n    struct _Allocation {\n        uint256 total;\n        uint256 invested;\n    }\n\n    struct _Investor {\n        address user;\n        uint256 investmentCount;\n    }\n\n    function initialize(\n            address _feeAccount\n            ) public initializer {\n        Ownable.initialize(msg.sender);\n        Pausable.initialize(msg.sender);\n        feeAccount = _feeAccount;\n    }\n\n    // function setPairedInvestments(\n    //         address _pairedInvestments\n    //         ) public onlyOwner {\n    //     pairedInvestments = _pairedInvestments;\n    // }\n\n    // reverts if ether is sent directly\n    function () external {\n        revert();\n    }\n\n    // function setToken(address _token, bool _valid) external onlyOwner {\n    //     tokens[_token] = _valid;\n    // }\n\n    function joinAsTrader() external whenNotPaused {\n        require(traders[msg.sender].user == address(0));\n        // require(investors[msg.sender].user == address(0));\n\n        traders[msg.sender] = _Trader({\n            user: msg.sender, \n            investmentCount: 0\n        });\n\n        emit Trader(msg.sender, now);\n    }\n\n    // function joinAsInvestor() external whenNotPaused {\n    //     require(traders[msg.sender].user == address(0));\n    //     require(investors[msg.sender].user == address(0));\n\n    //     investors[msg.sender] = _Investor({\n    //             user: msg.sender,\n    //             investmentCount: 0\n    //         });\n\n    //     emit Investor(msg.sender, now);\n    // }\n\n    // function allocate(address _token, uint256 _amount) external whenNotPaused {\n    //     require(tokens[_token]);\n    //     _Trader memory _trader = traders[msg.sender];\n    //     require(_trader.user == msg.sender);\n\n    //     allocations[msg.sender][_token].total = _amount;\n\n    //     emit Allocate(msg.sender, _token, _amount);\n    // }\n\n    // //\n    // //    Investor invests\n    // //\n    // function investEther(address _traderAddress) external payable whenNotPaused {\n    //     _invest(_traderAddress, ETHER, msg.value);\n    // }\n\n    // //\n    // //    Investor invests\n    // //\n    // function investToken(address _traderAddress, address _token, uint256 _amount) external whenNotPaused {\n    //     require(tokens[_token]);\n    //     require(IERC20(_token).transferFrom(msg.sender, address(this), _amount));\n    //     _invest(_traderAddress, _token, _amount);\n    // }\n\n    // function _invest(address _traderAddress, address _token, uint256 _amount) internal {\n    //     _Investor storage _investor = investors[msg.sender];\n    //     require(_investor.user == msg.sender);\n\n    //     _Trader storage _trader = traders[_traderAddress];\n    //     require(_trader.user == _traderAddress);\n\n    //     _Allocation storage allocation = allocations[_trader.user][_token];\n\n    //     // falls within trader allocations\n    //     require(allocation.total - allocation.invested >= _amount);\n    //     allocation.invested = allocation.invested.add(_amount);\n\n    //     uint256 investmentCount = PairedInvestments(pairedInvestments).invest(\n    //         _traderAddress, \n    //         msg.sender, \n    //         _token, \n    //         _amount\n    //     );\n\n    //     _trader.investmentCount = _trader.investmentCount.add(1);\n    //     traderInvestments[_trader.user][_trader.investmentCount] = investmentCount;\n\n    //     _investor.investmentCount = _investor.investmentCount.add(1);\n    //     investorInvestments[_investor.user][_investor.investmentCount] = investmentCount;\n\n    //     emit Invest(\n    //         investmentCount,\n    //         msg.sender,\n    //         _trader.user,\n    //         _token,\n    //         _amount\n    //     );\n    // }\n\n    // //\n    // //    Investor exits an investment\n    // //\n    // function requestExit(address _traderAddress, uint256 _investmentId, address _token, uint256 _value) external whenNotPaused {\n    //     require(tokens[_token]);\n    //     _Trader memory _trader = traders[_traderAddress];\n    //     require(_trader.user == _traderAddress);\n \n    //     address[2] memory _addressArgs = [\n    //         _traderAddress, \n    //         msg.sender];\n\n    //     uint256[5] memory _uint256Args = [\n    //         _investmentId, \n    //         _value,\n    //         balances[_traderAddress][_token],\n    //         balances[msg.sender][_token],\n    //         balances[feeAccount][_token]];\n\n    //     uint256[4] memory _result = PairedInvestments(pairedInvestments).requestExit(_addressArgs, _uint256Args);\n\n    //     balances[_traderAddress][_token] = _result[0];\n    //     balances[msg.sender][_token] = _result[1];\n    //     balances[feeAccount][_token] = _result[2];\n\n    //     emit RequestExit(\n    //         _traderAddress,\n    //         _investmentId, \n    //         _result[3], \n    //         _value\n    //     );\n    // }\n\n    // //\n    // //    Trader rejects the exit request. \n    // //    Perhaps the investor made a false profit claim. \n    // //    This will now enter a dispute workflow managed on the client\n    // //\n    // function rejectExit(uint256 _investmentId, uint256 _value) external whenNotPaused {\n    //     PairedInvestments(pairedInvestments).rejectExit(\n    //         msg.sender,\n    //         _investmentId\n    //     );\n\n    //     emit RejectExit(\n    //         msg.sender, \n    //         _investmentId,\n    //         _value,\n    //         now\n    //     );\n    // }\n\n    // //\n    // //    Trader approves the exit by paying the nett profit back to the contract, under the name of the investor\n    // //\n    // function approveExitEther(address _investorAddress, uint256 _investmentId) external payable whenNotPaused {\n    //     _approveExit(_investorAddress, _investmentId, ETHER, msg.value);\n    // }\n\n    // //\n    // //    Trader approves the exit by paying the nett profit back to the contract, under the name of the investor\n    // //\n    // function approveExitToken(address _investorAddress, uint256 _investmentId, address _token, uint256 _amount) external whenNotPaused {\n    //     require(IERC20(_token).transferFrom(msg.sender, address(this), _amount));\n    //     _approveExit(_investorAddress, _investmentId, _token, _amount);\n    // }\n\n    // function _approveExit(address _investorAddress, uint256 _investmentId, address _token, uint256 _amount) internal {\n    //     _Trader memory _trader = traders[msg.sender];\n    //     _Investor memory _investor = investors[_investorAddress];\n    //     require(_trader.user == msg.sender);\n    //     require(_investor.user == _investorAddress);\n\n    //     address[2] memory _addressArgs = [\n    //         msg.sender,\n    //         _investorAddress];\n\n    //     uint256[5] memory _uint256Args = [\n    //         _investmentId, \n    //         _amount,\n    //         balances[msg.sender][_token],\n    //         balances[_investorAddress][_token],\n    //         balances[feeAccount][_token]];\n\n    //     uint256[4] memory _result = PairedInvestments(pairedInvestments).approveExit(_addressArgs, _uint256Args);\n\n    //     allocations[msg.sender][_token].invested = allocations[msg.sender][_token].invested.sub(_result[3]);\n        \n    //     balances[msg.sender][_token] = _result[0];\n    //     balances[_investorAddress][_token] = _result[1];\n    //     balances[feeAccount][_token] = _result[2];\n\n    //     emit ApproveExit(\n    //         msg.sender,\n    //         _investmentId,\n    //         now\n    //     );\n    // }\n\n    // //\n    // //    Investor withdraws previously deposited ether funds, perhaps including profits (and losses)\n    // //\n    // function withdrawEther(uint256 _amount) external whenNotPaused {\n    //     uint256 balance = balances[msg.sender][ETHER];\n    //     balances[msg.sender][ETHER] = balance.sub(_amount);\n    //     msg.sender.transfer(_amount);\n    //     emit Withdraw(ETHER, msg.sender, _amount, balances[msg.sender][ETHER], now);\n    // }\n\n    // //\n    // //    Investor withdraws previously deposited token funds, perhaps including profits (and losses)\n    // //\n    // function withdrawToken(address _token, uint256 _amount) external whenNotPaused {\n    //     require(_token != ETHER);\n    //     uint256 balance = balances[msg.sender][_token];\n    //     // require(IERC20(_token).transferFrom(address(this), msg.sender, _amount));\n    //     require(IERC20(_token).transfer(msg.sender, _amount));\n    //     balances[msg.sender][_token] = balance.sub(_amount);\n    //     emit Withdraw(_token, msg.sender, _amount, balances[msg.sender][_token], now);\n    // }\n\n}\n",
  "sourcePath": "contracts/TraderPaired.sol",
  "abi": [
    {
      "anonymous": false,
      "inputs": [
        {
          "indexed": true,
          "internalType": "address",
          "name": "previousOwner",
          "type": "address"
        },
        {
          "indexed": true,
          "internalType": "address",
          "name": "newOwner",
          "type": "address"
        }
      ],
      "name": "OwnershipTransferred",
      "type": "event"
    },
    {
      "anonymous": false,
      "inputs": [
        {
          "indexed": false,
          "internalType": "address",
          "name": "account",
          "type": "address"
        }
      ],
      "name": "Paused",
      "type": "event"
    },
    {
      "anonymous": false,
      "inputs": [
        {
          "indexed": true,
          "internalType": "address",
          "name": "account",
          "type": "address"
        }
      ],
      "name": "PauserAdded",
      "type": "event"
    },
    {
      "anonymous": false,
      "inputs": [
        {
          "indexed": true,
          "internalType": "address",
          "name": "account",
          "type": "address"
        }
      ],
      "name": "PauserRemoved",
      "type": "event"
    },
    {
      "anonymous": false,
      "inputs": [
        {
          "indexed": true,
          "internalType": "address",
          "name": "trader",
          "type": "address"
        },
        {
          "indexed": false,
          "internalType": "uint256",
          "name": "date",
          "type": "uint256"
        }
      ],
      "name": "Trader",
      "type": "event"
    },
    {
      "anonymous": false,
      "inputs": [
        {
          "indexed": false,
          "internalType": "address",
          "name": "account",
          "type": "address"
        }
      ],
      "name": "Unpaused",
      "type": "event"
    },
    {
      "payable": false,
      "stateMutability": "nonpayable",
      "type": "fallback"
    },
    {
      "constant": false,
      "inputs": [
        {
          "internalType": "address",
          "name": "account",
          "type": "address"
        }
      ],
      "name": "addPauser",
      "outputs": [],
      "payable": false,
      "stateMutability": "nonpayable",
      "type": "function"
    },
    {
      "constant": true,
      "inputs": [],
      "name": "feeAccount",
      "outputs": [
        {
          "internalType": "address",
          "name": "",
          "type": "address"
        }
      ],
      "payable": false,
      "stateMutability": "view",
      "type": "function"
    },
    {
      "constant": false,
      "inputs": [
        {
          "internalType": "address",
          "name": "_feeAccount",
          "type": "address"
        }
      ],
      "name": "initialize",
      "outputs": [],
      "payable": false,
      "stateMutability": "nonpayable",
      "type": "function"
    },
    {
      "constant": true,
      "inputs": [],
      "name": "isOwner",
      "outputs": [
        {
          "internalType": "bool",
          "name": "",
          "type": "bool"
        }
      ],
      "payable": false,
      "stateMutability": "view",
      "type": "function"
    },
    {
      "constant": true,
      "inputs": [
        {
          "internalType": "address",
          "name": "account",
          "type": "address"
        }
      ],
      "name": "isPauser",
      "outputs": [
        {
          "internalType": "bool",
          "name": "",
          "type": "bool"
        }
      ],
      "payable": false,
      "stateMutability": "view",
      "type": "function"
    },
    {
      "constant": false,
      "inputs": [],
      "name": "joinAsTrader",
      "outputs": [],
      "payable": false,
      "stateMutability": "nonpayable",
      "type": "function"
    },
    {
      "constant": true,
      "inputs": [],
      "name": "owner",
      "outputs": [
        {
          "internalType": "address",
          "name": "",
          "type": "address"
        }
      ],
      "payable": false,
      "stateMutability": "view",
      "type": "function"
    },
    {
      "constant": false,
      "inputs": [],
      "name": "pause",
      "outputs": [],
      "payable": false,
      "stateMutability": "nonpayable",
      "type": "function"
    },
    {
      "constant": true,
      "inputs": [],
      "name": "paused",
      "outputs": [
        {
          "internalType": "bool",
          "name": "",
          "type": "bool"
        }
      ],
      "payable": false,
      "stateMutability": "view",
      "type": "function"
    },
    {
      "constant": false,
      "inputs": [],
      "name": "renounceOwnership",
      "outputs": [],
      "payable": false,
      "stateMutability": "nonpayable",
      "type": "function"
    },
    {
      "constant": false,
      "inputs": [],
      "name": "renouncePauser",
      "outputs": [],
      "payable": false,
      "stateMutability": "nonpayable",
      "type": "function"
    },
    {
      "constant": true,
      "inputs": [
        {
          "internalType": "address",
          "name": "",
          "type": "address"
        }
      ],
      "name": "traders",
      "outputs": [
        {
          "internalType": "address",
          "name": "user",
          "type": "address"
        },
        {
          "internalType": "uint256",
          "name": "investmentCount",
          "type": "uint256"
        }
      ],
      "payable": false,
      "stateMutability": "view",
      "type": "function"
    },
    {
      "constant": false,
      "inputs": [
        {
          "internalType": "address",
          "name": "newOwner",
          "type": "address"
        }
      ],
      "name": "transferOwnership",
      "outputs": [],
      "payable": false,
      "stateMutability": "nonpayable",
      "type": "function"
    },
    {
      "constant": false,
      "inputs": [],
      "name": "unpause",
      "outputs": [],
      "payable": false,
      "stateMutability": "nonpayable",
      "type": "function"
    }
  ],
  "bytecode": "0x6080604052610d8d806100136000396000f3fe608060405234801561001057600080fd5b50600436106100ea5760003560e01c806382dc1ec41161008c5780638f32d59b116100665780638f32d59b146101ad57806392a88fa2146101b5578063c4d66de8146101fe578063f2fde38b14610224576100ea565b806382dc1ec4146101775780638456cb591461019d5780638da5cb5b146101a5576100ea565b80635c975abb116100c85780635c975abb1461013b57806365e17c9d146101435780636ef8d66d14610167578063715018a61461016f576100ea565b80633619fcd1146100ef5780633f4ba83a146100f957806346fbf68e14610101575b600080fd5b6100f761024a565b005b6100f7610335565b6101276004803603602081101561011757600080fd5b50356001600160a01b031661041e565b604080519115158252519081900360200190f35b610127610437565b61014b610440565b604080516001600160a01b039092168252519081900360200190f35b6100f761044f565b6100f7610461565b6100f76004803603602081101561018d57600080fd5b50356001600160a01b0316610504565b6100f7610556565b61014b61061d565b61012761062c565b6101db600480360360208110156101cb57600080fd5b50356001600160a01b0316610652565b604080516001600160a01b03909316835260208301919091528051918290030190f35b6100f76004803603602081101561021457600080fd5b50356001600160a01b0316610677565b6100f76004803603602081101561023a57600080fd5b50356001600160a01b0316610747565b60995460ff1615610295576040805162461bcd60e51b815260206004820152601060248201526f14185d5cd8589b194e881c185d5cd95960821b604482015290519081900360640190fd5b33600090815260cd60205260409020546001600160a01b0316156102b857600080fd5b604080518082018252338082526000602080840182815283835260cd825291859020935184546001600160a01b0319166001600160a01b0390911617845590516001909301929092558251428152925190927f07e6fac70d6958b8515f69f22e83196b98850a5a0891eb226df124f7677bd81592908290030190a2565b6103456103406107a9565b61041e565b6103805760405162461bcd60e51b8152600401808060200182810382526030815260200180610c926030913960400191505060405180910390fd5b60995460ff166103ce576040805162461bcd60e51b815260206004820152601460248201527314185d5cd8589b194e881b9bdd081c185d5cd95960621b604482015290519081900360640190fd5b6099805460ff191690557f5db9ee0a495bf2e6ff9c91a7834c1ba4fdd244a5e8aa4e537bd38aeae4b073aa6104016107a9565b604080516001600160a01b039092168252519081900360200190a1565b600061043160668363ffffffff6107ad16565b92915050565b60995460ff1690565b60cc546001600160a01b031681565b61045f61045a6107a9565b610814565b565b61046961062c565b6104ba576040805162461bcd60e51b815260206004820181905260248201527f4f776e61626c653a2063616c6c6572206973206e6f7420746865206f776e6572604482015290519081900360640190fd5b6033546040516000916001600160a01b0316907f8be0079c531659141344cd1fd0a4f28419497f9722a3daafe3b4186f6b6457e0908390a3603380546001600160a01b0319169055565b61050f6103406107a9565b61054a5760405162461bcd60e51b8152600401808060200182810382526030815260200180610c926030913960400191505060405180910390fd5b6105538161085c565b50565b6105616103406107a9565b61059c5760405162461bcd60e51b8152600401808060200182810382526030815260200180610c926030913960400191505060405180910390fd5b60995460ff16156105e7576040805162461bcd60e51b815260206004820152601060248201526f14185d5cd8589b194e881c185d5cd95960821b604482015290519081900360640190fd5b6099805460ff191660011790557f62e78cea01bee320cd4e420270b5ea74000d11b0c9f74754ebdbfc544b05a2586104016107a9565b6033546001600160a01b031690565b6033546000906001600160a01b03166106436107a9565b6001600160a01b031614905090565b60cd60205260009081526040902080546001909101546001600160a01b039091169082565b600054610100900460ff168061069057506106906108a4565b8061069e575060005460ff16155b6106d95760405162461bcd60e51b815260040180806020018281038252602e815260200180610d2b602e913960400191505060405180910390fd5b600054610100900460ff16158015610704576000805460ff1961ff0019909116610100171660011790555b61070d336108aa565b6107163361099b565b60cc80546001600160a01b0319166001600160a01b0384161790558015610743576000805461ff00191690555b5050565b61074f61062c565b6107a0576040805162461bcd60e51b815260206004820181905260248201527f4f776e61626c653a2063616c6c6572206973206e6f7420746865206f776e6572604482015290519081900360640190fd5b61055381610a50565b3390565b60006001600160a01b0382166107f45760405162461bcd60e51b8152600401808060200182810382526022815260200180610d096022913960400191505060405180910390fd5b506001600160a01b03166000908152602091909152604090205460ff1690565b61082560668263ffffffff610af116565b6040516001600160a01b038216907fcd265ebaf09df2871cc7bd4133404a235ba12eff2041bb89d9c714a2621c7c7e90600090a250565b61086d60668263ffffffff610b5816565b6040516001600160a01b038216907f6719d08c1888103bea251a4ed56406bd0c3e69723c8a1686e017e7bbe159b6f890600090a250565b303b1590565b600054610100900460ff16806108c357506108c36108a4565b806108d1575060005460ff16155b61090c5760405162461bcd60e51b815260040180806020018281038252602e815260200180610d2b602e913960400191505060405180910390fd5b600054610100900460ff16158015610937576000805460ff1961ff0019909116610100171660011790555b603380546001600160a01b0319166001600160a01b0384811691909117918290556040519116906000907f8be0079c531659141344cd1fd0a4f28419497f9722a3daafe3b4186f6b6457e0908290a38015610743576000805461ff00191690555050565b600054610100900460ff16806109b457506109b46108a4565b806109c2575060005460ff16155b6109fd5760405162461bcd60e51b815260040180806020018281038252602e815260200180610d2b602e913960400191505060405180910390fd5b600054610100900460ff16158015610a28576000805460ff1961ff0019909116610100171660011790555b610a3182610bd9565b6099805460ff191690558015610743576000805461ff00191690555050565b6001600160a01b038116610a955760405162461bcd60e51b8152600401808060200182810382526026815260200180610cc26026913960400191505060405180910390fd5b6033546040516001600160a01b038084169216907f8be0079c531659141344cd1fd0a4f28419497f9722a3daafe3b4186f6b6457e090600090a3603380546001600160a01b0319166001600160a01b0392909216919091179055565b610afb82826107ad565b610b365760405162461bcd60e51b8152600401808060200182810382526021815260200180610ce86021913960400191505060405180910390fd5b6001600160a01b0316600090815260209190915260409020805460ff19169055565b610b6282826107ad565b15610bb4576040805162461bcd60e51b815260206004820152601f60248201527f526f6c65733a206163636f756e7420616c72656164792068617320726f6c6500604482015290519081900360640190fd5b6001600160a01b0316600090815260209190915260409020805460ff19166001179055565b600054610100900460ff1680610bf25750610bf26108a4565b80610c00575060005460ff16155b610c3b5760405162461bcd60e51b815260040180806020018281038252602e815260200180610d2b602e913960400191505060405180910390fd5b600054610100900460ff16158015610c66576000805460ff1961ff0019909116610100171660011790555b610c6f8261041e565b610c7c57610c7c8261085c565b8015610743576000805461ff0019169055505056fe506175736572526f6c653a2063616c6c657220646f6573206e6f742068617665207468652050617573657220726f6c654f776e61626c653a206e6577206f776e657220697320746865207a65726f2061646472657373526f6c65733a206163636f756e7420646f6573206e6f74206861766520726f6c65526f6c65733a206163636f756e7420697320746865207a65726f2061646472657373436f6e747261637420696e7374616e63652068617320616c7265616479206265656e20696e697469616c697a6564a265627a7a7231582036061d0bb6b0de8f559266e361a7257ce214ad5dd60cc15d31956a906d6ed24364736f6c63430005110032",
  "compiler": {
    "name": "solc",
    "version": "0.5.17+commit.d19bba13.Emscripten.clang",
    "optimizer": {
      "enabled": true,
      "runs": 200
    },
    "evmVersion": "petersburg"
  }
}