{
  "fileName": "TraderPaired.sol",
  "contractName": "TraderPaired",
  "source": "// \"SPDX-License-Identifier: UNLICENSED\"\npragma solidity >=0.4.21 <0.7.0;\n\nimport \"@openzeppelin/contracts-ethereum-package/contracts/math/SafeMath.sol\";\nimport \"@openzeppelin/upgrades/contracts/Initializable.sol\";\nimport \"@openzeppelin/contracts-ethereum-package/contracts/ownership/Ownable.sol\";\nimport \"@openzeppelin/contracts-ethereum-package/contracts/lifecycle/Pausable.sol\";\nimport \"@openzeppelin/contracts-ethereum-package/contracts/token/ERC20/IERC20.sol\";\n\ncontract TraderPaired is Initializable, Ownable, Pausable {\n    \n\n\tusing SafeMath for uint256;\n\n    mapping(address => bool) public tokens;\n\n    address constant ETHER = address(0); // allows storage of ether in blank address in token mapping\n    address public feeAccount; // account that will receive fees\n    uint256 public traderFeePercent; // trader fee percentage in unit of 100, i.e. 100 == 1% and 5 == 0.05% and 10000 == 100%\n    uint256 public investorFeePercent; // investor fee percentage in unit of 100, i.e. 100 == 1% and 5 == 0.05% and 10000 == 100%\n    uint256 public secondsToForceExit; // number of seconds required before an exit can be forced\n    \n    mapping(uint256 => _Investment) public investments;\n    uint256 public investmentCount;\n\n    mapping(address => mapping(uint256 => uint256)) public traderInvestments;\n    mapping(address => mapping(uint256 => uint256)) public investorInvestments;\n    mapping(address => mapping(address => _Allocation)) public allocations;\n\n    mapping(address => mapping(address => uint256)) public balances; // mapping of token balances to addresses\n\n    mapping(address => _Trader) public traders;\n    mapping(address => _Investor) public investors;\n\n    uint256 public traderCount;\n    uint256 public investorCount;\n\n    mapping(uint256 => address) public traderList;\n    mapping(uint256 => address) public investorList;\n\n    event SetToken(address indexed token, bool valid);\n    event Trader(address indexed trader, uint256 traderId, uint256 investorProfitPercent);\n    event Investor(address indexed investor, uint256 investorId);\n    event Allocate(address indexed trader, address token, uint256 amount);\n    event Withdraw(address indexed token, address indexed user, uint256 amount, uint256 balance);\n    event Invest(uint256 id, address indexed investor, address indexed trader, address indexed token, uint256 amount);\n    event RequestExit(address indexed trader, uint256 investmentId, uint256 date, uint256 value, uint256 traderProfit, uint256 investorProfit, uint256 traderFee, uint256 investorFee);\n    event RejectExit(address indexed trader, uint256 investmentId, uint256 value);\n    event ApproveExit(address indexed trader, uint256 investmentId, uint256 traderAmount, uint256 investorAmount);\n\n    enum InvestmentState {\n        Invested,\n        ExitRequested,\n        ExitRejected,\n        Divested\n    }\n\n    struct _Trader {\n        uint256 id;\n        address payable user;\n        uint256 investorProfitPercent;\n        uint256 investmentCount;\n    }\n\n    struct _Allocation {\n        uint256 total;\n        uint256 invested;\n    }\n\n    struct _Investor {\n        uint256 id;\n        address payable user;\n        uint256 investmentCount;\n    }\n\n    struct _Investment {\n        uint256 id;\n        address payable trader;\n        address payable investor;\n        bool forced;\n        address token;\n        uint256 amount;\n        uint256 startDate;\n        uint256 endDate;\n        uint256 value;\n        uint256 traderProfit;\n        uint256 investorProfit;\n        uint256 traderFee;\n        uint256 investorFee;\n        InvestmentState state;\n    }\n\n    function initialize(address payable _feeAccount, uint256 _traderFeePercent, uint256 _investorFeePercent, uint256 _secondsToForceExit) public initializer {\n        Ownable.initialize(msg.sender);\n        Pausable.initialize(msg.sender);\n\n        tokens[ETHER] = true;\n        feeAccount = _feeAccount;\n        traderFeePercent = _traderFeePercent;\n        investorFeePercent = _investorFeePercent;\n        secondsToForceExit = _secondsToForceExit;\n    }\n\n    // reverts if ether is sent directly\n    function () external {\n        revert();\n    }\n\n    function setToken(address _token, bool _valid) external onlyOwner {\n        tokens[_token] = _valid;\n        emit SetToken(_token, _valid);\n    }\n\n    function joinAsTrader(uint256 _investorProfitPercent) external whenNotPaused {\n        require(traders[msg.sender].user == address(0));\n        require(investors[msg.sender].user == address(0));\n\n        require(\n            _investorProfitPercent < 10000 && \n            _investorProfitPercent >= investorFeePercent);\n\n        traderCount = traderCount.add(1);\n        traderList[traderCount] = msg.sender;\n\n        traders[msg.sender] = _Trader({\n            id: traderCount, \n            user: msg.sender, \n            investorProfitPercent: _investorProfitPercent, \n            investmentCount: 0\n        });\n        \n\n        emit Trader(msg.sender, traderCount, _investorProfitPercent);\n    }\n\n    function joinAsInvestor() external whenNotPaused {\n        require(traders[msg.sender].user == address(0));\n        require(investors[msg.sender].user == address(0));\n\n        investorCount = investorCount.add(1);\n        investorList[investorCount] = msg.sender;\n        investors[msg.sender] = _Investor({\n                id: investorCount,\n                user: msg.sender,\n                investmentCount: 0\n            });\n\n        emit Investor(msg.sender, investorCount);\n    }\n\n    function allocate(address _token, uint256 _amount) external whenNotPaused {\n        require(tokens[_token]);\n        _Trader memory _trader = traders[msg.sender];\n        require(_trader.user == msg.sender);\n        // require(allocations[msg.sender][_token].total == 0);\n\n        allocations[msg.sender][_token].total = _amount;\n\n        emit Allocate(msg.sender, _token, _amount);\n    }\n\n    /**\n        Investor invests\n    */\n    function investEther(address _traderAddress) external payable whenNotPaused {\n        _invest(_traderAddress, ETHER, msg.value);\n    }\n\n    /**\n        Investor invests\n    */\n    function investToken(address _traderAddress, address _token, uint256 _amount) external whenNotPaused {\n        require(IERC20(_token).transferFrom(msg.sender, address(this), _amount));\n        _invest(_traderAddress, _token, _amount);\n    }\n\n    function _invest(address _traderAddress, address _token, uint256 _amount) internal {\n        require(tokens[_token]);\n        _Investor storage _investor = investors[msg.sender];\n        require(_investor.user == msg.sender);\n\n        _Trader storage _trader = traders[_traderAddress];\n        require(_trader.user == _traderAddress);\n\n        _Allocation storage allocation = allocations[_trader.user][_token];\n\n        // falls within trader allocations\n        require(allocation.total - allocation.invested >= _amount);\n        allocation.invested = allocation.invested.add(_amount);\n        \n        investmentCount = investmentCount.add(1);\n        investments[investmentCount] = _Investment({\n                id: investmentCount,\n                trader: _trader.user,\n                investor: _investor.user,\n                forced: false,\n                token: _token,\n                amount: _amount,\n                startDate: now,\n                endDate: 0,\n                value: 0,\n                traderProfit: 0,\n                investorProfit: 0,\n                traderFee: 0,\n                investorFee: 0,\n                state: InvestmentState.Invested\n            });\n\n        _trader.investmentCount = _trader.investmentCount.add(1);\n        traderInvestments[_trader.user][_trader.investmentCount] = investmentCount;\n\n        _investor.investmentCount = _investor.investmentCount.add(1);\n        investorInvestments[_investor.user][_investor.investmentCount] = investmentCount;\n\n        emit Invest(\n            investmentCount,\n            msg.sender,\n            _trader.user,\n            _token,\n            _amount\n        );\n    }\n\n    /**\n        Investor exits an investment\n    */\n    function requestExit(address _traderAddress, uint256 _investmentId, uint256 _value) external whenNotPaused {\n        _Trader storage _trader = traders[_traderAddress];\n        require(_trader.user == _traderAddress);\n\n        _Investment storage investment = investments[_investmentId];\n\n        require(investment.trader == _traderAddress);\n        require(investment.investor == msg.sender);\n\n        if (investment.endDate == 0) {\n            require(investment.state == InvestmentState.Invested);\n        } else {\n            require(investment.state == InvestmentState.ExitRequested);\n            require(!investment.forced); // not yet forced\n            require((now - investment.endDate) >= secondsToForceExit); // can force an exit\n            require(investment.value == _value); // value is still the same\n\n            investment.forced = true;\n        }\n\n        address _token = investment.token;\n\n        if (_value > investment.amount) {\n            // profit\n            uint256 _investorProfitPercent = _trader.investorProfitPercent.sub(investorFeePercent);\n            uint256 _traderProfitPercent = uint256(10000).sub(_trader.investorProfitPercent).sub(traderFeePercent);\n\n            uint256 _profit = _value - investment.amount;\n            uint256 _investorProfit = _profit.mul(_investorProfitPercent).div(10000);\n            uint256 _traderProfit = _profit.mul(_traderProfitPercent).div(10000);\n            uint256 _fee = _profit.sub(_investorProfit).sub(_traderProfit);\n            uint256 _investorFee = _fee.div(2);\n            uint256 _traderFee = _fee.sub(_investorFee);\n\n            investment.traderProfit = _traderProfit;\n            investment.investorProfit = _investorProfit;\n            investment.traderFee = _traderFee;\n            investment.investorFee = _investorFee;\n\n            if (investment.forced) {\n                // when forcing an exit with profit, the amount is immediately returned to the investor\n                balances[msg.sender][_token] = balances[msg.sender][_token].add(\n                    investment.amount\n                );\n\n                // immediately pay investor fee\n                balances[feeAccount][_token] = balances[feeAccount][_token]\n                    .add(investment.investorFee);\n            }\n\n        } else {\n            // break even or loss\n            investment.traderProfit = 0;\n            investment.investorProfit = 0;\n            investment.traderFee = (investment.amount.sub(_value)).mul(traderFeePercent).div(10000);\n            investment.investorFee = 0;\n\n            if (investment.forced) {\n                // take losses away from investor\n                balances[msg.sender][_token] = balances[msg.sender][_token].add(_value);\n\n                // when forcing an exit with loss, the losses are immedately returned to the trader\n                balances[_traderAddress][_token] = balances[_traderAddress][_token].add(\n                    investment.amount.sub(_value).sub(investment.traderFee)\n                );\n            }\n        }\n\n        investment.endDate = now;\n        investment.value = _value;\n        investment.state = InvestmentState.ExitRequested;\n\n        emit RequestExit(\n            _traderAddress,\n            _investmentId, \n            investment.endDate, \n            _value, \n            investment.traderProfit, \n            investment.investorProfit, \n            investment.traderFee,\n            investment.investorFee\n        );\n    }\n\n    /**\n        Trader rejects the exit request\n        Perhaps the investor made a false profit claim\n        This will now enter a dispute workflow managed on the client\n    */\n    function rejectExit(uint256 _investmentId, uint256 _value) external whenNotPaused {\n        require(investments[_investmentId].trader == msg.sender);\n        require(investments[_investmentId].state == InvestmentState.ExitRequested);\n        \n        investments[_investmentId].state = InvestmentState.ExitRejected;\n\n        emit RejectExit(\n            msg.sender, \n            _investmentId,\n            _value\n        );\n    }\n\n    /**\n        Trader approves the exit by paying the nett profit back to the contract, under the name of the investor\n    */\n    function approveExitEther(address _investorAddress, uint256 _investmentId) external payable whenNotPaused {\n        approveExit(_investorAddress, _investmentId, msg.value);\n    }\n\n    /**\n        Trader approves the exit by paying the nett profit back to the contract, under the name of the investor\n    */\n    function approveExitToken(address _investorAddress, uint256 _investmentId, uint256 _amount) external whenNotPaused {\n        require(IERC20(investments[_investmentId].token).transferFrom(msg.sender, address(this), _amount));\n        approveExit(_investorAddress, _investmentId, _amount);\n    }\n\n    function approveExit(address _investorAddress, uint256 _investmentId, uint256 _amount) internal {\n        _Trader storage _trader = traders[msg.sender];\n        require(_trader.user == msg.sender);\n        _Investor storage _investor = investors[_investorAddress];\n        _Investment storage investment = investments[_investmentId];\n        require(_investor.user == _investorAddress);\n       \n        require(investment.trader == msg.sender);\n        require(investment.investor == _investorAddress);\n\n        require(investment.state == InvestmentState.ExitRequested);\n\n        address _token = investment.token;\n\n        require(\n                investment.investorProfit\n                .add(investment.traderFee) == _amount\n            );\n\n        if (investment.value > investment.amount) {\n            if (investment.forced) {\n                // investment profit (minus fee)\n                balances[_investorAddress][_token] = balances[_investorAddress][_token].add(\n                    investment.investorProfit\n                );\n\n                // pay trader fee\n                balances[feeAccount][_token] = balances[feeAccount][_token]\n                    .add(investment.traderFee);\n\n            } else {\n                // investment amount plus profit (minus fee)\n                balances[_investorAddress][_token] = balances[_investorAddress][_token].add(\n                    investment.amount.add(\n                        investment.investorProfit\n                    )\n                );\n\n                // pay trader and investor fee\n                balances[feeAccount][_token] = balances[feeAccount][_token]\n                    .add(investment.traderFee)\n                    .add(investment.investorFee);\n            }\n            \n        } else {\n            if (!investment.forced) {\n                // take losses away from investor\n                balances[_investorAddress][_token] = balances[_investorAddress][_token].add(investment.value);\n                \n                // add losses to trader balance\n                balances[msg.sender][_token] = balances[msg.sender][_token]\n                    .add(investment.amount\n                        .sub(investment.value)\n                        .sub(investment.traderFee)\n                    );\n            }\n\n            // trader fee\n            balances[feeAccount][_token] = balances[feeAccount][_token]\n                .add(investment.traderFee);\n        }\n\n        allocations[_trader.user][investment.token].invested = allocations[_trader.user][investment.token].invested.sub(investment.amount);\n        \n        investment.state = InvestmentState.Divested;\n\n        emit ApproveExit(\n            msg.sender,\n            _investmentId,\n            investment.traderProfit,\n            investment.investorProfit\n        );\n    }\n\n    /**\n        Investor withdraws previously deposited ether funds, perhaps including profits (and losses)\n    */\n    function withdrawEther(uint256 _amount) external whenNotPaused {\n        require(balances[msg.sender][ETHER] >= _amount);\n        balances[msg.sender][ETHER] = balances[msg.sender][ETHER].sub(_amount);\n        msg.sender.transfer(_amount);\n        emit Withdraw(ETHER, msg.sender, _amount, balances[msg.sender][ETHER]);\n    }\n\n    /**\n        Investor withdraws previously deposited token funds, perhaps including profits (and losses)\n    */\n    function withdrawToken(address _token, uint256 _amount) external whenNotPaused {\n        require(_token != ETHER);\n        require(balances[msg.sender][_token] >= _amount);\n        // require(IERC20(_token).transferFrom(address(this), msg.sender, _amount));\n        require(IERC20(_token).transfer(msg.sender, _amount));\n        balances[msg.sender][_token] = balances[msg.sender][_token].sub(_amount);\n        emit Withdraw(_token, msg.sender, _amount, balances[msg.sender][_token]);\n    }\n\n}\n",
  "sourcePath": "contracts/TraderPaired.sol",
  "abi": [
    {
      "anonymous": false,
      "inputs": [
        {
          "indexed": true,
          "internalType": "address",
          "name": "trader",
          "type": "address"
        },
        {
          "indexed": false,
          "internalType": "address",
          "name": "token",
          "type": "address"
        },
        {
          "indexed": false,
          "internalType": "uint256",
          "name": "amount",
          "type": "uint256"
        }
      ],
      "name": "Allocate",
      "type": "event"
    },
    {
      "anonymous": false,
      "inputs": [
        {
          "indexed": true,
          "internalType": "address",
          "name": "trader",
          "type": "address"
        },
        {
          "indexed": false,
          "internalType": "uint256",
          "name": "investmentId",
          "type": "uint256"
        },
        {
          "indexed": false,
          "internalType": "uint256",
          "name": "traderAmount",
          "type": "uint256"
        },
        {
          "indexed": false,
          "internalType": "uint256",
          "name": "investorAmount",
          "type": "uint256"
        }
      ],
      "name": "ApproveExit",
      "type": "event"
    },
    {
      "anonymous": false,
      "inputs": [
        {
          "indexed": false,
          "internalType": "uint256",
          "name": "id",
          "type": "uint256"
        },
        {
          "indexed": true,
          "internalType": "address",
          "name": "investor",
          "type": "address"
        },
        {
          "indexed": true,
          "internalType": "address",
          "name": "trader",
          "type": "address"
        },
        {
          "indexed": true,
          "internalType": "address",
          "name": "token",
          "type": "address"
        },
        {
          "indexed": false,
          "internalType": "uint256",
          "name": "amount",
          "type": "uint256"
        }
      ],
      "name": "Invest",
      "type": "event"
    },
    {
      "anonymous": false,
      "inputs": [
        {
          "indexed": true,
          "internalType": "address",
          "name": "investor",
          "type": "address"
        },
        {
          "indexed": false,
          "internalType": "uint256",
          "name": "investorId",
          "type": "uint256"
        }
      ],
      "name": "Investor",
      "type": "event"
    },
    {
      "anonymous": false,
      "inputs": [
        {
          "indexed": true,
          "internalType": "address",
          "name": "previousOwner",
          "type": "address"
        },
        {
          "indexed": true,
          "internalType": "address",
          "name": "newOwner",
          "type": "address"
        }
      ],
      "name": "OwnershipTransferred",
      "type": "event"
    },
    {
      "anonymous": false,
      "inputs": [
        {
          "indexed": false,
          "internalType": "address",
          "name": "account",
          "type": "address"
        }
      ],
      "name": "Paused",
      "type": "event"
    },
    {
      "anonymous": false,
      "inputs": [
        {
          "indexed": true,
          "internalType": "address",
          "name": "account",
          "type": "address"
        }
      ],
      "name": "PauserAdded",
      "type": "event"
    },
    {
      "anonymous": false,
      "inputs": [
        {
          "indexed": true,
          "internalType": "address",
          "name": "account",
          "type": "address"
        }
      ],
      "name": "PauserRemoved",
      "type": "event"
    },
    {
      "anonymous": false,
      "inputs": [
        {
          "indexed": true,
          "internalType": "address",
          "name": "trader",
          "type": "address"
        },
        {
          "indexed": false,
          "internalType": "uint256",
          "name": "investmentId",
          "type": "uint256"
        },
        {
          "indexed": false,
          "internalType": "uint256",
          "name": "value",
          "type": "uint256"
        }
      ],
      "name": "RejectExit",
      "type": "event"
    },
    {
      "anonymous": false,
      "inputs": [
        {
          "indexed": true,
          "internalType": "address",
          "name": "trader",
          "type": "address"
        },
        {
          "indexed": false,
          "internalType": "uint256",
          "name": "investmentId",
          "type": "uint256"
        },
        {
          "indexed": false,
          "internalType": "uint256",
          "name": "date",
          "type": "uint256"
        },
        {
          "indexed": false,
          "internalType": "uint256",
          "name": "value",
          "type": "uint256"
        },
        {
          "indexed": false,
          "internalType": "uint256",
          "name": "traderProfit",
          "type": "uint256"
        },
        {
          "indexed": false,
          "internalType": "uint256",
          "name": "investorProfit",
          "type": "uint256"
        },
        {
          "indexed": false,
          "internalType": "uint256",
          "name": "traderFee",
          "type": "uint256"
        },
        {
          "indexed": false,
          "internalType": "uint256",
          "name": "investorFee",
          "type": "uint256"
        }
      ],
      "name": "RequestExit",
      "type": "event"
    },
    {
      "anonymous": false,
      "inputs": [
        {
          "indexed": true,
          "internalType": "address",
          "name": "token",
          "type": "address"
        },
        {
          "indexed": false,
          "internalType": "bool",
          "name": "valid",
          "type": "bool"
        }
      ],
      "name": "SetToken",
      "type": "event"
    },
    {
      "anonymous": false,
      "inputs": [
        {
          "indexed": true,
          "internalType": "address",
          "name": "trader",
          "type": "address"
        },
        {
          "indexed": false,
          "internalType": "uint256",
          "name": "traderId",
          "type": "uint256"
        },
        {
          "indexed": false,
          "internalType": "uint256",
          "name": "investorProfitPercent",
          "type": "uint256"
        }
      ],
      "name": "Trader",
      "type": "event"
    },
    {
      "anonymous": false,
      "inputs": [
        {
          "indexed": false,
          "internalType": "address",
          "name": "account",
          "type": "address"
        }
      ],
      "name": "Unpaused",
      "type": "event"
    },
    {
      "anonymous": false,
      "inputs": [
        {
          "indexed": true,
          "internalType": "address",
          "name": "token",
          "type": "address"
        },
        {
          "indexed": true,
          "internalType": "address",
          "name": "user",
          "type": "address"
        },
        {
          "indexed": false,
          "internalType": "uint256",
          "name": "amount",
          "type": "uint256"
        },
        {
          "indexed": false,
          "internalType": "uint256",
          "name": "balance",
          "type": "uint256"
        }
      ],
      "name": "Withdraw",
      "type": "event"
    },
    {
      "payable": false,
      "stateMutability": "nonpayable",
      "type": "fallback"
    },
    {
      "constant": false,
      "inputs": [
        {
          "internalType": "address",
          "name": "account",
          "type": "address"
        }
      ],
      "name": "addPauser",
      "outputs": [],
      "payable": false,
      "stateMutability": "nonpayable",
      "type": "function"
    },
    {
      "constant": false,
      "inputs": [
        {
          "internalType": "address",
          "name": "_token",
          "type": "address"
        },
        {
          "internalType": "uint256",
          "name": "_amount",
          "type": "uint256"
        }
      ],
      "name": "allocate",
      "outputs": [],
      "payable": false,
      "stateMutability": "nonpayable",
      "type": "function"
    },
    {
      "constant": true,
      "inputs": [
        {
          "internalType": "address",
          "name": "",
          "type": "address"
        },
        {
          "internalType": "address",
          "name": "",
          "type": "address"
        }
      ],
      "name": "allocations",
      "outputs": [
        {
          "internalType": "uint256",
          "name": "total",
          "type": "uint256"
        },
        {
          "internalType": "uint256",
          "name": "invested",
          "type": "uint256"
        }
      ],
      "payable": false,
      "stateMutability": "view",
      "type": "function"
    },
    {
      "constant": false,
      "inputs": [
        {
          "internalType": "address",
          "name": "_investorAddress",
          "type": "address"
        },
        {
          "internalType": "uint256",
          "name": "_investmentId",
          "type": "uint256"
        }
      ],
      "name": "approveExitEther",
      "outputs": [],
      "payable": true,
      "stateMutability": "payable",
      "type": "function"
    },
    {
      "constant": false,
      "inputs": [
        {
          "internalType": "address",
          "name": "_investorAddress",
          "type": "address"
        },
        {
          "internalType": "uint256",
          "name": "_investmentId",
          "type": "uint256"
        },
        {
          "internalType": "uint256",
          "name": "_amount",
          "type": "uint256"
        }
      ],
      "name": "approveExitToken",
      "outputs": [],
      "payable": false,
      "stateMutability": "nonpayable",
      "type": "function"
    },
    {
      "constant": true,
      "inputs": [
        {
          "internalType": "address",
          "name": "",
          "type": "address"
        },
        {
          "internalType": "address",
          "name": "",
          "type": "address"
        }
      ],
      "name": "balances",
      "outputs": [
        {
          "internalType": "uint256",
          "name": "",
          "type": "uint256"
        }
      ],
      "payable": false,
      "stateMutability": "view",
      "type": "function"
    },
    {
      "constant": true,
      "inputs": [],
      "name": "feeAccount",
      "outputs": [
        {
          "internalType": "address",
          "name": "",
          "type": "address"
        }
      ],
      "payable": false,
      "stateMutability": "view",
      "type": "function"
    },
    {
      "constant": false,
      "inputs": [
        {
          "internalType": "address payable",
          "name": "_feeAccount",
          "type": "address"
        },
        {
          "internalType": "uint256",
          "name": "_traderFeePercent",
          "type": "uint256"
        },
        {
          "internalType": "uint256",
          "name": "_investorFeePercent",
          "type": "uint256"
        },
        {
          "internalType": "uint256",
          "name": "_secondsToForceExit",
          "type": "uint256"
        }
      ],
      "name": "initialize",
      "outputs": [],
      "payable": false,
      "stateMutability": "nonpayable",
      "type": "function"
    },
    {
      "constant": false,
      "inputs": [
        {
          "internalType": "address",
          "name": "sender",
          "type": "address"
        }
      ],
      "name": "initialize",
      "outputs": [],
      "payable": false,
      "stateMutability": "nonpayable",
      "type": "function"
    },
    {
      "constant": false,
      "inputs": [
        {
          "internalType": "address",
          "name": "_traderAddress",
          "type": "address"
        }
      ],
      "name": "investEther",
      "outputs": [],
      "payable": true,
      "stateMutability": "payable",
      "type": "function"
    },
    {
      "constant": false,
      "inputs": [
        {
          "internalType": "address",
          "name": "_traderAddress",
          "type": "address"
        },
        {
          "internalType": "address",
          "name": "_token",
          "type": "address"
        },
        {
          "internalType": "uint256",
          "name": "_amount",
          "type": "uint256"
        }
      ],
      "name": "investToken",
      "outputs": [],
      "payable": false,
      "stateMutability": "nonpayable",
      "type": "function"
    },
    {
      "constant": true,
      "inputs": [],
      "name": "investmentCount",
      "outputs": [
        {
          "internalType": "uint256",
          "name": "",
          "type": "uint256"
        }
      ],
      "payable": false,
      "stateMutability": "view",
      "type": "function"
    },
    {
      "constant": true,
      "inputs": [
        {
          "internalType": "uint256",
          "name": "",
          "type": "uint256"
        }
      ],
      "name": "investments",
      "outputs": [
        {
          "internalType": "uint256",
          "name": "id",
          "type": "uint256"
        },
        {
          "internalType": "address payable",
          "name": "trader",
          "type": "address"
        },
        {
          "internalType": "address payable",
          "name": "investor",
          "type": "address"
        },
        {
          "internalType": "bool",
          "name": "forced",
          "type": "bool"
        },
        {
          "internalType": "address",
          "name": "token",
          "type": "address"
        },
        {
          "internalType": "uint256",
          "name": "amount",
          "type": "uint256"
        },
        {
          "internalType": "uint256",
          "name": "startDate",
          "type": "uint256"
        },
        {
          "internalType": "uint256",
          "name": "endDate",
          "type": "uint256"
        },
        {
          "internalType": "uint256",
          "name": "value",
          "type": "uint256"
        },
        {
          "internalType": "uint256",
          "name": "traderProfit",
          "type": "uint256"
        },
        {
          "internalType": "uint256",
          "name": "investorProfit",
          "type": "uint256"
        },
        {
          "internalType": "uint256",
          "name": "traderFee",
          "type": "uint256"
        },
        {
          "internalType": "uint256",
          "name": "investorFee",
          "type": "uint256"
        },
        {
          "internalType": "enum TraderPaired.InvestmentState",
          "name": "state",
          "type": "uint8"
        }
      ],
      "payable": false,
      "stateMutability": "view",
      "type": "function"
    },
    {
      "constant": true,
      "inputs": [],
      "name": "investorCount",
      "outputs": [
        {
          "internalType": "uint256",
          "name": "",
          "type": "uint256"
        }
      ],
      "payable": false,
      "stateMutability": "view",
      "type": "function"
    },
    {
      "constant": true,
      "inputs": [],
      "name": "investorFeePercent",
      "outputs": [
        {
          "internalType": "uint256",
          "name": "",
          "type": "uint256"
        }
      ],
      "payable": false,
      "stateMutability": "view",
      "type": "function"
    },
    {
      "constant": true,
      "inputs": [
        {
          "internalType": "address",
          "name": "",
          "type": "address"
        },
        {
          "internalType": "uint256",
          "name": "",
          "type": "uint256"
        }
      ],
      "name": "investorInvestments",
      "outputs": [
        {
          "internalType": "uint256",
          "name": "",
          "type": "uint256"
        }
      ],
      "payable": false,
      "stateMutability": "view",
      "type": "function"
    },
    {
      "constant": true,
      "inputs": [
        {
          "internalType": "uint256",
          "name": "",
          "type": "uint256"
        }
      ],
      "name": "investorList",
      "outputs": [
        {
          "internalType": "address",
          "name": "",
          "type": "address"
        }
      ],
      "payable": false,
      "stateMutability": "view",
      "type": "function"
    },
    {
      "constant": true,
      "inputs": [
        {
          "internalType": "address",
          "name": "",
          "type": "address"
        }
      ],
      "name": "investors",
      "outputs": [
        {
          "internalType": "uint256",
          "name": "id",
          "type": "uint256"
        },
        {
          "internalType": "address payable",
          "name": "user",
          "type": "address"
        },
        {
          "internalType": "uint256",
          "name": "investmentCount",
          "type": "uint256"
        }
      ],
      "payable": false,
      "stateMutability": "view",
      "type": "function"
    },
    {
      "constant": true,
      "inputs": [],
      "name": "isOwner",
      "outputs": [
        {
          "internalType": "bool",
          "name": "",
          "type": "bool"
        }
      ],
      "payable": false,
      "stateMutability": "view",
      "type": "function"
    },
    {
      "constant": true,
      "inputs": [
        {
          "internalType": "address",
          "name": "account",
          "type": "address"
        }
      ],
      "name": "isPauser",
      "outputs": [
        {
          "internalType": "bool",
          "name": "",
          "type": "bool"
        }
      ],
      "payable": false,
      "stateMutability": "view",
      "type": "function"
    },
    {
      "constant": false,
      "inputs": [],
      "name": "joinAsInvestor",
      "outputs": [],
      "payable": false,
      "stateMutability": "nonpayable",
      "type": "function"
    },
    {
      "constant": false,
      "inputs": [
        {
          "internalType": "uint256",
          "name": "_investorProfitPercent",
          "type": "uint256"
        }
      ],
      "name": "joinAsTrader",
      "outputs": [],
      "payable": false,
      "stateMutability": "nonpayable",
      "type": "function"
    },
    {
      "constant": true,
      "inputs": [],
      "name": "owner",
      "outputs": [
        {
          "internalType": "address",
          "name": "",
          "type": "address"
        }
      ],
      "payable": false,
      "stateMutability": "view",
      "type": "function"
    },
    {
      "constant": false,
      "inputs": [],
      "name": "pause",
      "outputs": [],
      "payable": false,
      "stateMutability": "nonpayable",
      "type": "function"
    },
    {
      "constant": true,
      "inputs": [],
      "name": "paused",
      "outputs": [
        {
          "internalType": "bool",
          "name": "",
          "type": "bool"
        }
      ],
      "payable": false,
      "stateMutability": "view",
      "type": "function"
    },
    {
      "constant": false,
      "inputs": [
        {
          "internalType": "uint256",
          "name": "_investmentId",
          "type": "uint256"
        },
        {
          "internalType": "uint256",
          "name": "_value",
          "type": "uint256"
        }
      ],
      "name": "rejectExit",
      "outputs": [],
      "payable": false,
      "stateMutability": "nonpayable",
      "type": "function"
    },
    {
      "constant": false,
      "inputs": [],
      "name": "renounceOwnership",
      "outputs": [],
      "payable": false,
      "stateMutability": "nonpayable",
      "type": "function"
    },
    {
      "constant": false,
      "inputs": [],
      "name": "renouncePauser",
      "outputs": [],
      "payable": false,
      "stateMutability": "nonpayable",
      "type": "function"
    },
    {
      "constant": false,
      "inputs": [
        {
          "internalType": "address",
          "name": "_traderAddress",
          "type": "address"
        },
        {
          "internalType": "uint256",
          "name": "_investmentId",
          "type": "uint256"
        },
        {
          "internalType": "uint256",
          "name": "_value",
          "type": "uint256"
        }
      ],
      "name": "requestExit",
      "outputs": [],
      "payable": false,
      "stateMutability": "nonpayable",
      "type": "function"
    },
    {
      "constant": true,
      "inputs": [],
      "name": "secondsToForceExit",
      "outputs": [
        {
          "internalType": "uint256",
          "name": "",
          "type": "uint256"
        }
      ],
      "payable": false,
      "stateMutability": "view",
      "type": "function"
    },
    {
      "constant": false,
      "inputs": [
        {
          "internalType": "address",
          "name": "_token",
          "type": "address"
        },
        {
          "internalType": "bool",
          "name": "_valid",
          "type": "bool"
        }
      ],
      "name": "setToken",
      "outputs": [],
      "payable": false,
      "stateMutability": "nonpayable",
      "type": "function"
    },
    {
      "constant": true,
      "inputs": [
        {
          "internalType": "address",
          "name": "",
          "type": "address"
        }
      ],
      "name": "tokens",
      "outputs": [
        {
          "internalType": "bool",
          "name": "",
          "type": "bool"
        }
      ],
      "payable": false,
      "stateMutability": "view",
      "type": "function"
    },
    {
      "constant": true,
      "inputs": [],
      "name": "traderCount",
      "outputs": [
        {
          "internalType": "uint256",
          "name": "",
          "type": "uint256"
        }
      ],
      "payable": false,
      "stateMutability": "view",
      "type": "function"
    },
    {
      "constant": true,
      "inputs": [],
      "name": "traderFeePercent",
      "outputs": [
        {
          "internalType": "uint256",
          "name": "",
          "type": "uint256"
        }
      ],
      "payable": false,
      "stateMutability": "view",
      "type": "function"
    },
    {
      "constant": true,
      "inputs": [
        {
          "internalType": "address",
          "name": "",
          "type": "address"
        },
        {
          "internalType": "uint256",
          "name": "",
          "type": "uint256"
        }
      ],
      "name": "traderInvestments",
      "outputs": [
        {
          "internalType": "uint256",
          "name": "",
          "type": "uint256"
        }
      ],
      "payable": false,
      "stateMutability": "view",
      "type": "function"
    },
    {
      "constant": true,
      "inputs": [
        {
          "internalType": "uint256",
          "name": "",
          "type": "uint256"
        }
      ],
      "name": "traderList",
      "outputs": [
        {
          "internalType": "address",
          "name": "",
          "type": "address"
        }
      ],
      "payable": false,
      "stateMutability": "view",
      "type": "function"
    },
    {
      "constant": true,
      "inputs": [
        {
          "internalType": "address",
          "name": "",
          "type": "address"
        }
      ],
      "name": "traders",
      "outputs": [
        {
          "internalType": "uint256",
          "name": "id",
          "type": "uint256"
        },
        {
          "internalType": "address payable",
          "name": "user",
          "type": "address"
        },
        {
          "internalType": "uint256",
          "name": "investorProfitPercent",
          "type": "uint256"
        },
        {
          "internalType": "uint256",
          "name": "investmentCount",
          "type": "uint256"
        }
      ],
      "payable": false,
      "stateMutability": "view",
      "type": "function"
    },
    {
      "constant": false,
      "inputs": [
        {
          "internalType": "address",
          "name": "newOwner",
          "type": "address"
        }
      ],
      "name": "transferOwnership",
      "outputs": [],
      "payable": false,
      "stateMutability": "nonpayable",
      "type": "function"
    },
    {
      "constant": false,
      "inputs": [],
      "name": "unpause",
      "outputs": [],
      "payable": false,
      "stateMutability": "nonpayable",
      "type": "function"
    },
    {
      "constant": false,
      "inputs": [
        {
          "internalType": "uint256",
          "name": "_amount",
          "type": "uint256"
        }
      ],
      "name": "withdrawEther",
      "outputs": [],
      "payable": false,
      "stateMutability": "nonpayable",
      "type": "function"
    },
    {
      "constant": false,
      "inputs": [
        {
          "internalType": "address",
          "name": "_token",
          "type": "address"
        },
        {
          "internalType": "uint256",
          "name": "_amount",
          "type": "uint256"
        }
      ],
      "name": "withdrawToken",
      "outputs": [],
      "payable": false,
      "stateMutability": "nonpayable",
      "type": "function"
    }
  ],
  "bytecode": "0x6080604052615f5a806100136000396000f3fe6080604052600436106102465760003560e01c806380649a34116101395780639e281a98116100b6578063c9d251111161007a578063c9d2511114610d0d578063d7e64c0014610d88578063e486033914610db3578063eef90b6214610e1c578063f2fde38b14610e8b578063fd345c8a14610edc57610246565b80639e281a9814610b3c578063a6cf3acd14610b97578063b78b52df14610bdc578063c23f001f14610c37578063c4d66de814610cbc57610246565b80638c68770b116100fd5780638c68770b146109ba5780638da5cb5b146109e55780638f32d59b14610a3c57806391db6bb514610a6b57806392a88fa214610a9657610246565b806380649a341461081357806382dc1ec41461086157806383cbd34b146108b25780638456cb5914610917578063853996e41461092e57610246565b80635c975abb116101c75780636ef8d66d1161018b5780636ef8d66d146106b65780636f7bc9be146106cd578063715018a61461076c5780637d4c6fe4146107835780637e6fc89f146107ae57610246565b80635c975abb146105aa5780635ccaa931146105d957806365e17c9d1461061d57806369dc6765146106745780636e1469981461069f57610246565b80633e34ed101161020e5780633e34ed10146103d15780633f4ba83a1461044c57806346fbf68e146104635780634ec81af1146104cc5780635a77c18d1461053b57610246565b806312f9b48e14610258578063246b0e5c146102d3578063320cbd1e146102fe5780633816a292146103395780633bed33ce14610396575b34801561025257600080fd5b50600080fd5b34801561026457600080fd5b506102916004803603602081101561027b57600080fd5b810190808035906020019092919050505061101c565b604051808273ffffffffffffffffffffffffffffffffffffffff1673ffffffffffffffffffffffffffffffffffffffff16815260200191505060405180910390f35b3480156102df57600080fd5b506102e861104f565b6040518082815260200191505060405180910390f35b34801561030a57600080fd5b506103376004803603602081101561032157600080fd5b8101908080359060200190929190505050611055565b005b34801561034557600080fd5b506103946004803603604081101561035c57600080fd5b81019080803573ffffffffffffffffffffffffffffffffffffffff1690602001909291908035151590602001909291905050506113d6565b005b3480156103a257600080fd5b506103cf600480360360208110156103b957600080fd5b81019080803590602001909291905050506114fd565b005b3480156103dd57600080fd5b5061044a600480360360608110156103f457600080fd5b81019080803573ffffffffffffffffffffffffffffffffffffffff169060200190929190803573ffffffffffffffffffffffffffffffffffffffff1690602001909291908035906020019092919050505061184c565b005b34801561045857600080fd5b506104616119de565b005b34801561046f57600080fd5b506104b26004803603602081101561048657600080fd5b81019080803573ffffffffffffffffffffffffffffffffffffffff169060200190929190505050611b4c565b604051808215151515815260200191505060405180910390f35b3480156104d857600080fd5b50610539600480360360808110156104ef57600080fd5b81019080803573ffffffffffffffffffffffffffffffffffffffff169060200190929190803590602001909291908035906020019092919080359060200190929190505050611b69565b005b34801561054757600080fd5b506105946004803603604081101561055e57600080fd5b81019080803573ffffffffffffffffffffffffffffffffffffffff16906020019092919080359060200190929190505050611d2c565b6040518082815260200191505060405180910390f35b3480156105b657600080fd5b506105bf611d51565b604051808215151515815260200191505060405180910390f35b61061b600480360360208110156105ef57600080fd5b81019080803573ffffffffffffffffffffffffffffffffffffffff169060200190929190505050611d68565b005b34801561062957600080fd5b50610632611dfa565b604051808273ffffffffffffffffffffffffffffffffffffffff1673ffffffffffffffffffffffffffffffffffffffff16815260200191505060405180910390f35b34801561068057600080fd5b50610689611e20565b6040518082815260200191505060405180910390f35b3480156106ab57600080fd5b506106b4611e26565b005b3480156106c257600080fd5b506106cb612172565b005b3480156106d957600080fd5b5061071c600480360360208110156106f057600080fd5b81019080803573ffffffffffffffffffffffffffffffffffffffff169060200190929190505050612184565b604051808481526020018373ffffffffffffffffffffffffffffffffffffffff1673ffffffffffffffffffffffffffffffffffffffff168152602001828152602001935050505060405180910390f35b34801561077857600080fd5b506107816121ce565b005b34801561078f57600080fd5b50610798612309565b6040518082815260200191505060405180910390f35b3480156107ba57600080fd5b50610811600480360360608110156107d157600080fd5b81019080803573ffffffffffffffffffffffffffffffffffffffff169060200190929190803590602001909291908035906020019092919050505061230f565b005b61085f6004803603604081101561082957600080fd5b81019080803573ffffffffffffffffffffffffffffffffffffffff16906020019092919080359060200190929190505050612d62565b005b34801561086d57600080fd5b506108b06004803603602081101561088457600080fd5b81019080803573ffffffffffffffffffffffffffffffffffffffff169060200190929190505050612df4565b005b3480156108be57600080fd5b50610915600480360360608110156108d557600080fd5b81019080803573ffffffffffffffffffffffffffffffffffffffff1690602001909291908035906020019092919080359060200190929190505050612e65565b005b34801561092357600080fd5b5061092c61302d565b005b34801561093a57600080fd5b5061099d6004803603604081101561095157600080fd5b81019080803573ffffffffffffffffffffffffffffffffffffffff169060200190929190803573ffffffffffffffffffffffffffffffffffffffff16906020019092919050505061319c565b604051808381526020018281526020019250505060405180910390f35b3480156109c657600080fd5b506109cf6131cd565b6040518082815260200191505060405180910390f35b3480156109f157600080fd5b506109fa6131d3565b604051808273ffffffffffffffffffffffffffffffffffffffff1673ffffffffffffffffffffffffffffffffffffffff16815260200191505060405180910390f35b348015610a4857600080fd5b50610a516131fd565b604051808215151515815260200191505060405180910390f35b348015610a7757600080fd5b50610a8061325c565b6040518082815260200191505060405180910390f35b348015610aa257600080fd5b50610ae560048036036020811015610ab957600080fd5b81019080803573ffffffffffffffffffffffffffffffffffffffff169060200190929190505050613262565b604051808581526020018473ffffffffffffffffffffffffffffffffffffffff1673ffffffffffffffffffffffffffffffffffffffff16815260200183815260200182815260200194505050505060405180910390f35b348015610b4857600080fd5b50610b9560048036036040811015610b5f57600080fd5b81019080803573ffffffffffffffffffffffffffffffffffffffff169060200190929190803590602001909291905050506132b2565b005b348015610ba357600080fd5b50610bda60048036036040811015610bba57600080fd5b8101908080359060200190929190803590602001909291905050506136bf565b005b348015610be857600080fd5b50610c3560048036036040811015610bff57600080fd5b81019080803573ffffffffffffffffffffffffffffffffffffffff16906020019092919080359060200190929190505050613888565b005b348015610c4357600080fd5b50610ca660048036036040811015610c5a57600080fd5b81019080803573ffffffffffffffffffffffffffffffffffffffff169060200190929190803573ffffffffffffffffffffffffffffffffffffffff169060200190929190505050613b70565b6040518082815260200191505060405180910390f35b348015610cc857600080fd5b50610d0b60048036036020811015610cdf57600080fd5b81019080803573ffffffffffffffffffffffffffffffffffffffff169060200190929190505050613b95565b005b348015610d1957600080fd5b50610d4660048036036020811015610d3057600080fd5b8101908080359060200190929190505050613cb9565b604051808273ffffffffffffffffffffffffffffffffffffffff1673ffffffffffffffffffffffffffffffffffffffff16815260200191505060405180910390f35b348015610d9457600080fd5b50610d9d613cec565b6040518082815260200191505060405180910390f35b348015610dbf57600080fd5b50610e0260048036036020811015610dd657600080fd5b81019080803573ffffffffffffffffffffffffffffffffffffffff169060200190929190505050613cf2565b604051808215151515815260200191505060405180910390f35b348015610e2857600080fd5b50610e7560048036036040811015610e3f57600080fd5b81019080803573ffffffffffffffffffffffffffffffffffffffff16906020019092919080359060200190929190505050613d12565b6040518082815260200191505060405180910390f35b348015610e9757600080fd5b50610eda60048036036020811015610eae57600080fd5b81019080803573ffffffffffffffffffffffffffffffffffffffff169060200190929190505050613d37565b005b348015610ee857600080fd5b50610f1560048036036020811015610eff57600080fd5b8101908080359060200190929190505050613dbd565b604051808f81526020018e73ffffffffffffffffffffffffffffffffffffffff1673ffffffffffffffffffffffffffffffffffffffff1681526020018d73ffffffffffffffffffffffffffffffffffffffff1673ffffffffffffffffffffffffffffffffffffffff1681526020018c1515151581526020018b73ffffffffffffffffffffffffffffffffffffffff1673ffffffffffffffffffffffffffffffffffffffff1681526020018a8152602001898152602001888152602001878152602001868152602001858152602001848152602001838152602001826003811115610ffb57fe5b60ff1681526020019e50505050505050505050505050505060405180910390f35b60dc6020528060005260406000206000915054906101000a900473ffffffffffffffffffffffffffffffffffffffff1681565b60d25481565b609960009054906101000a900460ff16156110d8576040517f08c379a00000000000000000000000000000000000000000000000000000000081526004018080602001828103825260108152602001807f5061757361626c653a207061757365640000000000000000000000000000000081525060200191505060405180910390fd5b600073ffffffffffffffffffffffffffffffffffffffff1660d760003373ffffffffffffffffffffffffffffffffffffffff1673ffffffffffffffffffffffffffffffffffffffff16815260200190815260200160002060010160009054906101000a900473ffffffffffffffffffffffffffffffffffffffff1673ffffffffffffffffffffffffffffffffffffffff161461117357600080fd5b600073ffffffffffffffffffffffffffffffffffffffff1660d860003373ffffffffffffffffffffffffffffffffffffffff1673ffffffffffffffffffffffffffffffffffffffff16815260200190815260200160002060010160009054906101000a900473ffffffffffffffffffffffffffffffffffffffff1673ffffffffffffffffffffffffffffffffffffffff161461120e57600080fd5b61271081108015611221575060cf548110155b61122a57600080fd5b611240600160d954613ea390919063ffffffff16565b60d9819055503360db600060d954815260200190815260200160002060006101000a81548173ffffffffffffffffffffffffffffffffffffffff021916908373ffffffffffffffffffffffffffffffffffffffff160217905550604051806080016040528060d95481526020013373ffffffffffffffffffffffffffffffffffffffff168152602001828152602001600081525060d760003373ffffffffffffffffffffffffffffffffffffffff1673ffffffffffffffffffffffffffffffffffffffff1681526020019081526020016000206000820151816000015560208201518160010160006101000a81548173ffffffffffffffffffffffffffffffffffffffff021916908373ffffffffffffffffffffffffffffffffffffffff16021790555060408201518160020155606082015181600301559050503373ffffffffffffffffffffffffffffffffffffffff167f2443e16faef9accaee1c7486a06f0da588a8f541204a9e4bca14555672cae00060d95483604051808381526020018281526020019250505060405180910390a250565b6113de6131fd565b611450576040517f08c379a00000000000000000000000000000000000000000000000000000000081526004018080602001828103825260208152602001807f4f776e61626c653a2063616c6c6572206973206e6f7420746865206f776e657281525060200191505060405180910390fd5b8060cc60008473ffffffffffffffffffffffffffffffffffffffff1673ffffffffffffffffffffffffffffffffffffffff16815260200190815260200160002060006101000a81548160ff0219169083151502179055508173ffffffffffffffffffffffffffffffffffffffff167fb7ebab83a58ce61ea26b563c1f73ed2fb8e747c78205f72382399303a9c7b1d282604051808215151515815260200191505060405180910390a25050565b609960009054906101000a900460ff1615611580576040517f08c379a00000000000000000000000000000000000000000000000000000000081526004018080602001828103825260108152602001807f5061757361626c653a207061757365640000000000000000000000000000000081525060200191505060405180910390fd5b8060d660003373ffffffffffffffffffffffffffffffffffffffff1673ffffffffffffffffffffffffffffffffffffffff16815260200190815260200160002060008073ffffffffffffffffffffffffffffffffffffffff1673ffffffffffffffffffffffffffffffffffffffff16815260200190815260200160002054101561160957600080fd5b6116988160d660003373ffffffffffffffffffffffffffffffffffffffff1673ffffffffffffffffffffffffffffffffffffffff16815260200190815260200160002060008073ffffffffffffffffffffffffffffffffffffffff1673ffffffffffffffffffffffffffffffffffffffff16815260200190815260200160002054613f2b90919063ffffffff16565b60d660003373ffffffffffffffffffffffffffffffffffffffff1673ffffffffffffffffffffffffffffffffffffffff16815260200190815260200160002060008073ffffffffffffffffffffffffffffffffffffffff1673ffffffffffffffffffffffffffffffffffffffff168152602001908152602001600020819055503373ffffffffffffffffffffffffffffffffffffffff166108fc829081150290604051600060405180830381858888f1935050505015801561175e573d6000803e3d6000fd5b503373ffffffffffffffffffffffffffffffffffffffff16600073ffffffffffffffffffffffffffffffffffffffff167ff341246adaac6f497bc2a656f546ab9e182111d630394f0c57c710a59a2cb5678360d660003373ffffffffffffffffffffffffffffffffffffffff1673ffffffffffffffffffffffffffffffffffffffff16815260200190815260200160002060008073ffffffffffffffffffffffffffffffffffffffff1673ffffffffffffffffffffffffffffffffffffffff16815260200190815260200160002054604051808381526020018281526020019250505060405180910390a350565b609960009054906101000a900460ff16156118cf576040517f08c379a00000000000000000000000000000000000000000000000000000000081526004018080602001828103825260108152602001807f5061757361626c653a207061757365640000000000000000000000000000000081525060200191505060405180910390fd5b8173ffffffffffffffffffffffffffffffffffffffff166323b872dd3330846040518463ffffffff1660e01b8152600401808473ffffffffffffffffffffffffffffffffffffffff1673ffffffffffffffffffffffffffffffffffffffff1681526020018373ffffffffffffffffffffffffffffffffffffffff1673ffffffffffffffffffffffffffffffffffffffff1681526020018281526020019350505050602060405180830381600087803b15801561198a57600080fd5b505af115801561199e573d6000803e3d6000fd5b505050506040513d60208110156119b457600080fd5b81019080805190602001909291905050506119ce57600080fd5b6119d9838383613f75565b505050565b6119ee6119e9614684565b611b4c565b611a43576040517f08c379a0000000000000000000000000000000000000000000000000000000008152600401808060200182810382526030815260200180615e3e6030913960400191505060405180910390fd5b609960009054906101000a900460ff16611ac5576040517f08c379a00000000000000000000000000000000000000000000000000000000081526004018080602001828103825260148152602001807f5061757361626c653a206e6f742070617573656400000000000000000000000081525060200191505060405180910390fd5b6000609960006101000a81548160ff0219169083151502179055507f5db9ee0a495bf2e6ff9c91a7834c1ba4fdd244a5e8aa4e537bd38aeae4b073aa611b09614684565b604051808273ffffffffffffffffffffffffffffffffffffffff1673ffffffffffffffffffffffffffffffffffffffff16815260200191505060405180910390a1565b6000611b6282606661468c90919063ffffffff16565b9050919050565b600060019054906101000a900460ff1680611b885750611b8761476a565b5b80611b9f57506000809054906101000a900460ff16155b611bf4576040517f08c379a000000000000000000000000000000000000000000000000000000000815260040180806020018281038252602e815260200180615ef8602e913960400191505060405180910390fd5b60008060019054906101000a900460ff161590508015611c44576001600060016101000a81548160ff02191690831515021790555060016000806101000a81548160ff0219169083151502179055505b611c4d33614781565b611c5633613b95565b600160cc60008073ffffffffffffffffffffffffffffffffffffffff1673ffffffffffffffffffffffffffffffffffffffff16815260200190815260200160002060006101000a81548160ff0219169083151502179055508460cd60006101000a81548173ffffffffffffffffffffffffffffffffffffffff021916908373ffffffffffffffffffffffffffffffffffffffff1602179055508360ce819055508260cf819055508160d0819055508015611d255760008060016101000a81548160ff0219169083151502179055505b5050505050565b60d3602052816000526040600020602052806000526040600020600091509150505481565b6000609960009054906101000a900460ff16905090565b609960009054906101000a900460ff1615611deb576040517f08c379a00000000000000000000000000000000000000000000000000000000081526004018080602001828103825260108152602001807f5061757361626c653a207061757365640000000000000000000000000000000081525060200191505060405180910390fd5b611df781600034613f75565b50565b60cd60009054906101000a900473ffffffffffffffffffffffffffffffffffffffff1681565b60d95481565b609960009054906101000a900460ff1615611ea9576040517f08c379a00000000000000000000000000000000000000000000000000000000081526004018080602001828103825260108152602001807f5061757361626c653a207061757365640000000000000000000000000000000081525060200191505060405180910390fd5b600073ffffffffffffffffffffffffffffffffffffffff1660d760003373ffffffffffffffffffffffffffffffffffffffff1673ffffffffffffffffffffffffffffffffffffffff16815260200190815260200160002060010160009054906101000a900473ffffffffffffffffffffffffffffffffffffffff1673ffffffffffffffffffffffffffffffffffffffff1614611f4457600080fd5b600073ffffffffffffffffffffffffffffffffffffffff1660d860003373ffffffffffffffffffffffffffffffffffffffff1673ffffffffffffffffffffffffffffffffffffffff16815260200190815260200160002060010160009054906101000a900473ffffffffffffffffffffffffffffffffffffffff1673ffffffffffffffffffffffffffffffffffffffff1614611fdf57600080fd5b611ff5600160da54613ea390919063ffffffff16565b60da819055503360dc600060da54815260200190815260200160002060006101000a81548173ffffffffffffffffffffffffffffffffffffffff021916908373ffffffffffffffffffffffffffffffffffffffff160217905550604051806060016040528060da5481526020013373ffffffffffffffffffffffffffffffffffffffff168152602001600081525060d860003373ffffffffffffffffffffffffffffffffffffffff1673ffffffffffffffffffffffffffffffffffffffff1681526020019081526020016000206000820151816000015560208201518160010160006101000a81548173ffffffffffffffffffffffffffffffffffffffff021916908373ffffffffffffffffffffffffffffffffffffffff160217905550604082015181600201559050503373ffffffffffffffffffffffffffffffffffffffff167f7eb3885ab39ec25048338624e839a2b90fe3079bb88b9c697f56cfff3147193560da546040518082815260200191505060405180910390a2565b61218261217d614684565b61493f565b565b60d86020528060005260406000206000915090508060000154908060010160009054906101000a900473ffffffffffffffffffffffffffffffffffffffff16908060020154905083565b6121d66131fd565b612248576040517f08c379a00000000000000000000000000000000000000000000000000000000081526004018080602001828103825260208152602001807f4f776e61626c653a2063616c6c6572206973206e6f7420746865206f776e657281525060200191505060405180910390fd5b600073ffffffffffffffffffffffffffffffffffffffff16603360009054906101000a900473ffffffffffffffffffffffffffffffffffffffff1673ffffffffffffffffffffffffffffffffffffffff167f8be0079c531659141344cd1fd0a4f28419497f9722a3daafe3b4186f6b6457e060405160405180910390a36000603360006101000a81548173ffffffffffffffffffffffffffffffffffffffff021916908373ffffffffffffffffffffffffffffffffffffffff160217905550565b60d05481565b609960009054906101000a900460ff1615612392576040517f08c379a00000000000000000000000000000000000000000000000000000000081526004018080602001828103825260108152602001807f5061757361626c653a207061757365640000000000000000000000000000000081525060200191505060405180910390fd5b600060d760008573ffffffffffffffffffffffffffffffffffffffff1673ffffffffffffffffffffffffffffffffffffffff16815260200190815260200160002090508373ffffffffffffffffffffffffffffffffffffffff168160010160009054906101000a900473ffffffffffffffffffffffffffffffffffffffff1673ffffffffffffffffffffffffffffffffffffffff161461243157600080fd5b600060d1600085815260200190815260200160002090508473ffffffffffffffffffffffffffffffffffffffff168160010160009054906101000a900473ffffffffffffffffffffffffffffffffffffffff1673ffffffffffffffffffffffffffffffffffffffff16146124a457600080fd5b3373ffffffffffffffffffffffffffffffffffffffff168160020160009054906101000a900473ffffffffffffffffffffffffffffffffffffffff1673ffffffffffffffffffffffffffffffffffffffff161461250057600080fd5b600081600601541415612546576000600381111561251a57fe5b81600c0160009054906101000a900460ff16600381111561253757fe5b1461254157600080fd5b6125d9565b6001600381111561255357fe5b81600c0160009054906101000a900460ff16600381111561257057fe5b1461257a57600080fd5b8060020160149054906101000a900460ff161561259657600080fd5b60d0548160060154420310156125ab57600080fd5b828160070154146125bb57600080fd5b60018160020160146101000a81548160ff0219169083151502179055505b60008160030160009054906101000a900473ffffffffffffffffffffffffffffffffffffffff16905081600401548411156129c857600061262960cf548560020154613f2b90919063ffffffff16565b9050600061265a60ce5461264c8760020154612710613f2b90919063ffffffff16565b613f2b90919063ffffffff16565b905060008460040154870390506000612690612710612682868561499990919063ffffffff16565b614a1f90919063ffffffff16565b905060006126bb6127106126ad868661499990919063ffffffff16565b614a1f90919063ffffffff16565b905060006126e4826126d68587613f2b90919063ffffffff16565b613f2b90919063ffffffff16565b905060006126fc600283614a1f90919063ffffffff16565b905060006127138284613f2b90919063ffffffff16565b9050838a60080181905550848a60090181905550808a600a0181905550818a600b01819055508960020160149054906101000a900460ff16156129bb576127e38a6004015460d660003373ffffffffffffffffffffffffffffffffffffffff1673ffffffffffffffffffffffffffffffffffffffff16815260200190815260200160002060008c73ffffffffffffffffffffffffffffffffffffffff1673ffffffffffffffffffffffffffffffffffffffff16815260200190815260200160002054613ea390919063ffffffff16565b60d660003373ffffffffffffffffffffffffffffffffffffffff1673ffffffffffffffffffffffffffffffffffffffff16815260200190815260200160002060008b73ffffffffffffffffffffffffffffffffffffffff1673ffffffffffffffffffffffffffffffffffffffff168152602001908152602001600020819055506129188a600b015460d6600060cd60009054906101000a900473ffffffffffffffffffffffffffffffffffffffff1673ffffffffffffffffffffffffffffffffffffffff1673ffffffffffffffffffffffffffffffffffffffff16815260200190815260200160002060008c73ffffffffffffffffffffffffffffffffffffffff1673ffffffffffffffffffffffffffffffffffffffff16815260200190815260200160002054613ea390919063ffffffff16565b60d6600060cd60009054906101000a900473ffffffffffffffffffffffffffffffffffffffff1673ffffffffffffffffffffffffffffffffffffffff1673ffffffffffffffffffffffffffffffffffffffff16815260200190815260200160002060008b73ffffffffffffffffffffffffffffffffffffffff1673ffffffffffffffffffffffffffffffffffffffff168152602001908152602001600020819055505b5050505050505050612c90565b6000826008018190555060008260090181905550612a1b612710612a0d60ce546129ff888760040154613f2b90919063ffffffff16565b61499990919063ffffffff16565b614a1f90919063ffffffff16565b82600a0181905550600082600b01819055508160020160149054906101000a900460ff1615612c8f57612ad38460d660003373ffffffffffffffffffffffffffffffffffffffff1673ffffffffffffffffffffffffffffffffffffffff16815260200190815260200160002060008473ffffffffffffffffffffffffffffffffffffffff1673ffffffffffffffffffffffffffffffffffffffff16815260200190815260200160002054613ea390919063ffffffff16565b60d660003373ffffffffffffffffffffffffffffffffffffffff1673ffffffffffffffffffffffffffffffffffffffff16815260200190815260200160002060008373ffffffffffffffffffffffffffffffffffffffff1673ffffffffffffffffffffffffffffffffffffffff16815260200190815260200160002081905550612c0e612b8383600a0154612b75878660040154613f2b90919063ffffffff16565b613f2b90919063ffffffff16565b60d660008973ffffffffffffffffffffffffffffffffffffffff1673ffffffffffffffffffffffffffffffffffffffff16815260200190815260200160002060008473ffffffffffffffffffffffffffffffffffffffff1673ffffffffffffffffffffffffffffffffffffffff16815260200190815260200160002054613ea390919063ffffffff16565b60d660008873ffffffffffffffffffffffffffffffffffffffff1673ffffffffffffffffffffffffffffffffffffffff16815260200190815260200160002060008373ffffffffffffffffffffffffffffffffffffffff1673ffffffffffffffffffffffffffffffffffffffff168152602001908152602001600020819055505b5b428260060181905550838260070181905550600182600c0160006101000a81548160ff02191690836003811115612cc357fe5b02179055508573ffffffffffffffffffffffffffffffffffffffff167fe93d5cdcdc6e5b7ce9050f626fbe0ff4b4ec5c7675cdee914b14cd959e7a23ff868460060154878660080154876009015488600a015489600b01546040518088815260200187815260200186815260200185815260200184815260200183815260200182815260200197505050505050505060405180910390a2505050505050565b609960009054906101000a900460ff1615612de5576040517f08c379a00000000000000000000000000000000000000000000000000000000081526004018080602001828103825260108152602001807f5061757361626c653a207061757365640000000000000000000000000000000081525060200191505060405180910390fd5b612df0828234614a69565b5050565b612e04612dff614684565b611b4c565b612e59576040517f08c379a0000000000000000000000000000000000000000000000000000000008152600401808060200182810382526030815260200180615e3e6030913960400191505060405180910390fd5b612e628161582a565b50565b609960009054906101000a900460ff1615612ee8576040517f08c379a00000000000000000000000000000000000000000000000000000000081526004018080602001828103825260108152602001807f5061757361626c653a207061757365640000000000000000000000000000000081525060200191505060405180910390fd5b60d1600083815260200190815260200160002060030160009054906101000a900473ffffffffffffffffffffffffffffffffffffffff1673ffffffffffffffffffffffffffffffffffffffff166323b872dd3330846040518463ffffffff1660e01b8152600401808473ffffffffffffffffffffffffffffffffffffffff1673ffffffffffffffffffffffffffffffffffffffff1681526020018373ffffffffffffffffffffffffffffffffffffffff1673ffffffffffffffffffffffffffffffffffffffff1681526020018281526020019350505050602060405180830381600087803b158015612fd957600080fd5b505af1158015612fed573d6000803e3d6000fd5b505050506040513d602081101561300357600080fd5b810190808051906020019092919050505061301d57600080fd5b613028838383614a69565b505050565b61303d613038614684565b611b4c565b613092576040517f08c379a0000000000000000000000000000000000000000000000000000000008152600401808060200182810382526030815260200180615e3e6030913960400191505060405180910390fd5b609960009054906101000a900460ff1615613115576040517f08c379a00000000000000000000000000000000000000000000000000000000081526004018080602001828103825260108152602001807f5061757361626c653a207061757365640000000000000000000000000000000081525060200191505060405180910390fd5b6001609960006101000a81548160ff0219169083151502179055507f62e78cea01bee320cd4e420270b5ea74000d11b0c9f74754ebdbfc544b05a258613159614684565b604051808273ffffffffffffffffffffffffffffffffffffffff1673ffffffffffffffffffffffffffffffffffffffff16815260200191505060405180910390a1565b60d5602052816000526040600020602052806000526040600020600091509150508060000154908060010154905082565b60cf5481565b6000603360009054906101000a900473ffffffffffffffffffffffffffffffffffffffff16905090565b6000603360009054906101000a900473ffffffffffffffffffffffffffffffffffffffff1673ffffffffffffffffffffffffffffffffffffffff16613240614684565b73ffffffffffffffffffffffffffffffffffffffff1614905090565b60ce5481565b60d76020528060005260406000206000915090508060000154908060010160009054906101000a900473ffffffffffffffffffffffffffffffffffffffff16908060020154908060030154905084565b609960009054906101000a900460ff1615613335576040517f08c379a00000000000000000000000000000000000000000000000000000000081526004018080602001828103825260108152602001807f5061757361626c653a207061757365640000000000000000000000000000000081525060200191505060405180910390fd5b600073ffffffffffffffffffffffffffffffffffffffff168273ffffffffffffffffffffffffffffffffffffffff16141561336f57600080fd5b8060d660003373ffffffffffffffffffffffffffffffffffffffff1673ffffffffffffffffffffffffffffffffffffffff16815260200190815260200160002060008473ffffffffffffffffffffffffffffffffffffffff1673ffffffffffffffffffffffffffffffffffffffff1681526020019081526020016000205410156133f857600080fd5b8173ffffffffffffffffffffffffffffffffffffffff1663a9059cbb33836040518363ffffffff1660e01b8152600401808373ffffffffffffffffffffffffffffffffffffffff1673ffffffffffffffffffffffffffffffffffffffff16815260200182815260200192505050602060405180830381600087803b15801561347f57600080fd5b505af1158015613493573d6000803e3d6000fd5b505050506040513d60208110156134a957600080fd5b81019080805190602001909291905050506134c357600080fd5b6135528160d660003373ffffffffffffffffffffffffffffffffffffffff1673ffffffffffffffffffffffffffffffffffffffff16815260200190815260200160002060008573ffffffffffffffffffffffffffffffffffffffff1673ffffffffffffffffffffffffffffffffffffffff16815260200190815260200160002054613f2b90919063ffffffff16565b60d660003373ffffffffffffffffffffffffffffffffffffffff1673ffffffffffffffffffffffffffffffffffffffff16815260200190815260200160002060008473ffffffffffffffffffffffffffffffffffffffff1673ffffffffffffffffffffffffffffffffffffffff168152602001908152602001600020819055503373ffffffffffffffffffffffffffffffffffffffff168273ffffffffffffffffffffffffffffffffffffffff167ff341246adaac6f497bc2a656f546ab9e182111d630394f0c57c710a59a2cb5678360d660003373ffffffffffffffffffffffffffffffffffffffff1673ffffffffffffffffffffffffffffffffffffffff16815260200190815260200160002060008773ffffffffffffffffffffffffffffffffffffffff1673ffffffffffffffffffffffffffffffffffffffff16815260200190815260200160002054604051808381526020018281526020019250505060405180910390a35050565b609960009054906101000a900460ff1615613742576040517f08c379a00000000000000000000000000000000000000000000000000000000081526004018080602001828103825260108152602001807f5061757361626c653a207061757365640000000000000000000000000000000081525060200191505060405180910390fd5b3373ffffffffffffffffffffffffffffffffffffffff1660d1600084815260200190815260200160002060010160009054906101000a900473ffffffffffffffffffffffffffffffffffffffff1673ffffffffffffffffffffffffffffffffffffffff16146137b057600080fd5b600160038111156137bd57fe5b60d16000848152602001908152602001600020600c0160009054906101000a900460ff1660038111156137ec57fe5b146137f657600080fd5b600260d16000848152602001908152602001600020600c0160006101000a81548160ff0219169083600381111561382957fe5b02179055503373ffffffffffffffffffffffffffffffffffffffff167f7362b21edcb1222c67817188f739016839d9fa8a6c274893dc7cd9fe6451c7978383604051808381526020018281526020019250505060405180910390a25050565b609960009054906101000a900460ff161561390b576040517f08c379a00000000000000000000000000000000000000000000000000000000081526004018080602001828103825260108152602001807f5061757361626c653a207061757365640000000000000000000000000000000081525060200191505060405180910390fd5b60cc60008373ffffffffffffffffffffffffffffffffffffffff1673ffffffffffffffffffffffffffffffffffffffff16815260200190815260200160002060009054906101000a900460ff1661396157600080fd5b613969615dff565b60d760003373ffffffffffffffffffffffffffffffffffffffff1673ffffffffffffffffffffffffffffffffffffffff168152602001908152602001600020604051806080016040529081600082015481526020016001820160009054906101000a900473ffffffffffffffffffffffffffffffffffffffff1673ffffffffffffffffffffffffffffffffffffffff1673ffffffffffffffffffffffffffffffffffffffff1681526020016002820154815260200160038201548152505090503373ffffffffffffffffffffffffffffffffffffffff16816020015173ffffffffffffffffffffffffffffffffffffffff1614613a6557600080fd5b8160d560003373ffffffffffffffffffffffffffffffffffffffff1673ffffffffffffffffffffffffffffffffffffffff16815260200190815260200160002060008573ffffffffffffffffffffffffffffffffffffffff1673ffffffffffffffffffffffffffffffffffffffff168152602001908152602001600020600001819055503373ffffffffffffffffffffffffffffffffffffffff167f5168bfb88d6125d4580e2b91ecb103a730312c3e8b0be9c4031a0fc794e2cd5f8484604051808373ffffffffffffffffffffffffffffffffffffffff1673ffffffffffffffffffffffffffffffffffffffff1681526020018281526020019250505060405180910390a2505050565b60d6602052816000526040600020602052806000526040600020600091509150505481565b600060019054906101000a900460ff1680613bb45750613bb361476a565b5b80613bcb57506000809054906101000a900460ff16155b613c20576040517f08c379a000000000000000000000000000000000000000000000000000000000815260040180806020018281038252602e815260200180615ef8602e913960400191505060405180910390fd5b60008060019054906101000a900460ff161590508015613c70576001600060016101000a81548160ff02191690831515021790555060016000806101000a81548160ff0219169083151502179055505b613c7982615884565b6000609960006101000a81548160ff0219169083151502179055508015613cb55760008060016101000a81548160ff0219169083151502179055505b5050565b60db6020528060005260406000206000915054906101000a900473ffffffffffffffffffffffffffffffffffffffff1681565b60da5481565b60cc6020528060005260406000206000915054906101000a900460ff1681565b60d4602052816000526040600020602052806000526040600020600091509150505481565b613d3f6131fd565b613db1576040517f08c379a00000000000000000000000000000000000000000000000000000000081526004018080602001828103825260208152602001807f4f776e61626c653a2063616c6c6572206973206e6f7420746865206f776e657281525060200191505060405180910390fd5b613dba8161599b565b50565b60d16020528060005260406000206000915090508060000154908060010160009054906101000a900473ffffffffffffffffffffffffffffffffffffffff16908060020160009054906101000a900473ffffffffffffffffffffffffffffffffffffffff16908060020160149054906101000a900460ff16908060030160009054906101000a900473ffffffffffffffffffffffffffffffffffffffff169080600401549080600501549080600601549080600701549080600801549080600901549080600a01549080600b01549080600c0160009054906101000a900460ff1690508e565b600080828401905083811015613f21576040517f08c379a000000000000000000000000000000000000000000000000000000000815260040180806020018281038252601b8152602001807f536166654d6174683a206164646974696f6e206f766572666c6f77000000000081525060200191505060405180910390fd5b8091505092915050565b6000613f6d83836040518060400160405280601e81526020017f536166654d6174683a207375627472616374696f6e206f766572666c6f770000815250615ae1565b905092915050565b60cc60008373ffffffffffffffffffffffffffffffffffffffff1673ffffffffffffffffffffffffffffffffffffffff16815260200190815260200160002060009054906101000a900460ff16613fcb57600080fd5b600060d860003373ffffffffffffffffffffffffffffffffffffffff1673ffffffffffffffffffffffffffffffffffffffff16815260200190815260200160002090503373ffffffffffffffffffffffffffffffffffffffff168160010160009054906101000a900473ffffffffffffffffffffffffffffffffffffffff1673ffffffffffffffffffffffffffffffffffffffff161461406a57600080fd5b600060d760008673ffffffffffffffffffffffffffffffffffffffff1673ffffffffffffffffffffffffffffffffffffffff16815260200190815260200160002090508473ffffffffffffffffffffffffffffffffffffffff168160010160009054906101000a900473ffffffffffffffffffffffffffffffffffffffff1673ffffffffffffffffffffffffffffffffffffffff161461410957600080fd5b600060d560008360010160009054906101000a900473ffffffffffffffffffffffffffffffffffffffff1673ffffffffffffffffffffffffffffffffffffffff1673ffffffffffffffffffffffffffffffffffffffff16815260200190815260200160002060008673ffffffffffffffffffffffffffffffffffffffff1673ffffffffffffffffffffffffffffffffffffffff168152602001908152602001600020905083816001015482600001540310156141c457600080fd5b6141db848260010154613ea390919063ffffffff16565b81600101819055506141f9600160d254613ea390919063ffffffff16565b60d281905550604051806101c0016040528060d25481526020018360010160009054906101000a900473ffffffffffffffffffffffffffffffffffffffff1673ffffffffffffffffffffffffffffffffffffffff1681526020018460010160009054906101000a900473ffffffffffffffffffffffffffffffffffffffff1673ffffffffffffffffffffffffffffffffffffffff1681526020016000151581526020018673ffffffffffffffffffffffffffffffffffffffff168152602001858152602001428152602001600081526020016000815260200160008152602001600081526020016000815260200160008152602001600060038111156142fb57fe5b81525060d1600060d25481526020019081526020016000206000820151816000015560208201518160010160006101000a81548173ffffffffffffffffffffffffffffffffffffffff021916908373ffffffffffffffffffffffffffffffffffffffff16021790555060408201518160020160006101000a81548173ffffffffffffffffffffffffffffffffffffffff021916908373ffffffffffffffffffffffffffffffffffffffff16021790555060608201518160020160146101000a81548160ff02191690831515021790555060808201518160030160006101000a81548173ffffffffffffffffffffffffffffffffffffffff021916908373ffffffffffffffffffffffffffffffffffffffff16021790555060a0820151816004015560c0820151816005015560e0820151816006015561010082015181600701556101208201518160080155610140820151816009015561016082015181600a015561018082015181600b01556101a082015181600c0160006101000a81548160ff0219169083600381111561448c57fe5b02179055509050506144ac60018360030154613ea390919063ffffffff16565b826003018190555060d25460d360008460010160009054906101000a900473ffffffffffffffffffffffffffffffffffffffff1673ffffffffffffffffffffffffffffffffffffffff1673ffffffffffffffffffffffffffffffffffffffff1681526020019081526020016000206000846003015481526020019081526020016000208190555061454b60018460020154613ea390919063ffffffff16565b836002018190555060d25460d460008560010160009054906101000a900473ffffffffffffffffffffffffffffffffffffffff1673ffffffffffffffffffffffffffffffffffffffff1673ffffffffffffffffffffffffffffffffffffffff168152602001908152602001600020600085600201548152602001908152602001600020819055508473ffffffffffffffffffffffffffffffffffffffff168260010160009054906101000a900473ffffffffffffffffffffffffffffffffffffffff1673ffffffffffffffffffffffffffffffffffffffff163373ffffffffffffffffffffffffffffffffffffffff167f74ab455bf1fbf7a48394cdd46b35b3bb6b086b10d5c21b4f4ea561cdc2c8493b60d25488604051808381526020018281526020019250505060405180910390a4505050505050565b600033905090565b60008073ffffffffffffffffffffffffffffffffffffffff168273ffffffffffffffffffffffffffffffffffffffff161415614713576040517f08c379a0000000000000000000000000000000000000000000000000000000008152600401808060200182810382526022815260200180615ed66022913960400191505060405180910390fd5b8260000160008373ffffffffffffffffffffffffffffffffffffffff1673ffffffffffffffffffffffffffffffffffffffff16815260200190815260200160002060009054906101000a900460ff16905092915050565b6000803090506000813b9050600081149250505090565b600060019054906101000a900460ff16806147a0575061479f61476a565b5b806147b757506000809054906101000a900460ff16155b61480c576040517f08c379a000000000000000000000000000000000000000000000000000000000815260040180806020018281038252602e815260200180615ef8602e913960400191505060405180910390fd5b60008060019054906101000a900460ff16159050801561485c576001600060016101000a81548160ff02191690831515021790555060016000806101000a81548160ff0219169083151502179055505b81603360006101000a81548173ffffffffffffffffffffffffffffffffffffffff021916908373ffffffffffffffffffffffffffffffffffffffff160217905550603360009054906101000a900473ffffffffffffffffffffffffffffffffffffffff1673ffffffffffffffffffffffffffffffffffffffff16600073ffffffffffffffffffffffffffffffffffffffff167f8be0079c531659141344cd1fd0a4f28419497f9722a3daafe3b4186f6b6457e060405160405180910390a3801561493b5760008060016101000a81548160ff0219169083151502179055505b5050565b614953816066615ba190919063ffffffff16565b8073ffffffffffffffffffffffffffffffffffffffff167fcd265ebaf09df2871cc7bd4133404a235ba12eff2041bb89d9c714a2621c7c7e60405160405180910390a250565b6000808314156149ac5760009050614a19565b60008284029050828482816149bd57fe5b0414614a14576040517f08c379a0000000000000000000000000000000000000000000000000000000008152600401808060200182810382526021815260200180615eb56021913960400191505060405180910390fd5b809150505b92915050565b6000614a6183836040518060400160405280601a81526020017f536166654d6174683a206469766973696f6e206279207a65726f000000000000815250615c5e565b905092915050565b600060d760003373ffffffffffffffffffffffffffffffffffffffff1673ffffffffffffffffffffffffffffffffffffffff16815260200190815260200160002090503373ffffffffffffffffffffffffffffffffffffffff168160010160009054906101000a900473ffffffffffffffffffffffffffffffffffffffff1673ffffffffffffffffffffffffffffffffffffffff1614614b0857600080fd5b600060d860008673ffffffffffffffffffffffffffffffffffffffff1673ffffffffffffffffffffffffffffffffffffffff1681526020019081526020016000209050600060d1600086815260200190815260200160002090508573ffffffffffffffffffffffffffffffffffffffff168260010160009054906101000a900473ffffffffffffffffffffffffffffffffffffffff1673ffffffffffffffffffffffffffffffffffffffff1614614bbe57600080fd5b3373ffffffffffffffffffffffffffffffffffffffff168160010160009054906101000a900473ffffffffffffffffffffffffffffffffffffffff1673ffffffffffffffffffffffffffffffffffffffff1614614c1a57600080fd5b8573ffffffffffffffffffffffffffffffffffffffff168160020160009054906101000a900473ffffffffffffffffffffffffffffffffffffffff1673ffffffffffffffffffffffffffffffffffffffff1614614c7657600080fd5b60016003811115614c8357fe5b81600c0160009054906101000a900460ff166003811115614ca057fe5b14614caa57600080fd5b60008160030160009054906101000a900473ffffffffffffffffffffffffffffffffffffffff16905084614cef83600a01548460090154613ea390919063ffffffff16565b14614cf957600080fd5b81600401548260070154111561522b578160020160149054906101000a900460ff1615614f8f57614db3826009015460d660008a73ffffffffffffffffffffffffffffffffffffffff1673ffffffffffffffffffffffffffffffffffffffff16815260200190815260200160002060008473ffffffffffffffffffffffffffffffffffffffff1673ffffffffffffffffffffffffffffffffffffffff16815260200190815260200160002054613ea390919063ffffffff16565b60d660008973ffffffffffffffffffffffffffffffffffffffff1673ffffffffffffffffffffffffffffffffffffffff16815260200190815260200160002060008373ffffffffffffffffffffffffffffffffffffffff1673ffffffffffffffffffffffffffffffffffffffff16815260200190815260200160002081905550614ee882600a015460d6600060cd60009054906101000a900473ffffffffffffffffffffffffffffffffffffffff1673ffffffffffffffffffffffffffffffffffffffff1673ffffffffffffffffffffffffffffffffffffffff16815260200190815260200160002060008473ffffffffffffffffffffffffffffffffffffffff1673ffffffffffffffffffffffffffffffffffffffff16815260200190815260200160002054613ea390919063ffffffff16565b60d6600060cd60009054906101000a900473ffffffffffffffffffffffffffffffffffffffff1673ffffffffffffffffffffffffffffffffffffffff1673ffffffffffffffffffffffffffffffffffffffff16815260200190815260200160002060008373ffffffffffffffffffffffffffffffffffffffff1673ffffffffffffffffffffffffffffffffffffffff16815260200190815260200160002081905550615226565b615038614fad83600901548460040154613ea390919063ffffffff16565b60d660008a73ffffffffffffffffffffffffffffffffffffffff1673ffffffffffffffffffffffffffffffffffffffff16815260200190815260200160002060008473ffffffffffffffffffffffffffffffffffffffff1673ffffffffffffffffffffffffffffffffffffffff16815260200190815260200160002054613ea390919063ffffffff16565b60d660008973ffffffffffffffffffffffffffffffffffffffff1673ffffffffffffffffffffffffffffffffffffffff16815260200190815260200160002060008373ffffffffffffffffffffffffffffffffffffffff1673ffffffffffffffffffffffffffffffffffffffff1681526020019081526020016000208190555061518382600b015461517584600a015460d6600060cd60009054906101000a900473ffffffffffffffffffffffffffffffffffffffff1673ffffffffffffffffffffffffffffffffffffffff1673ffffffffffffffffffffffffffffffffffffffff16815260200190815260200160002060008673ffffffffffffffffffffffffffffffffffffffff1673ffffffffffffffffffffffffffffffffffffffff16815260200190815260200160002054613ea390919063ffffffff16565b613ea390919063ffffffff16565b60d6600060cd60009054906101000a900473ffffffffffffffffffffffffffffffffffffffff1673ffffffffffffffffffffffffffffffffffffffff1673ffffffffffffffffffffffffffffffffffffffff16815260200190815260200160002060008373ffffffffffffffffffffffffffffffffffffffff1673ffffffffffffffffffffffffffffffffffffffff168152602001908152602001600020819055505b6155ec565b8160020160149054906101000a900460ff16615494576152d4826007015460d660008a73ffffffffffffffffffffffffffffffffffffffff1673ffffffffffffffffffffffffffffffffffffffff16815260200190815260200160002060008473ffffffffffffffffffffffffffffffffffffffff1673ffffffffffffffffffffffffffffffffffffffff16815260200190815260200160002054613ea390919063ffffffff16565b60d660008973ffffffffffffffffffffffffffffffffffffffff1673ffffffffffffffffffffffffffffffffffffffff16815260200190815260200160002060008373ffffffffffffffffffffffffffffffffffffffff1673ffffffffffffffffffffffffffffffffffffffff1681526020019081526020016000208190555061541361538883600a015461537a85600701548660040154613f2b90919063ffffffff16565b613f2b90919063ffffffff16565b60d660003373ffffffffffffffffffffffffffffffffffffffff1673ffffffffffffffffffffffffffffffffffffffff16815260200190815260200160002060008473ffffffffffffffffffffffffffffffffffffffff1673ffffffffffffffffffffffffffffffffffffffff16815260200190815260200160002054613ea390919063ffffffff16565b60d660003373ffffffffffffffffffffffffffffffffffffffff1673ffffffffffffffffffffffffffffffffffffffff16815260200190815260200160002060008373ffffffffffffffffffffffffffffffffffffffff1673ffffffffffffffffffffffffffffffffffffffff168152602001908152602001600020819055505b61554982600a015460d6600060cd60009054906101000a900473ffffffffffffffffffffffffffffffffffffffff1673ffffffffffffffffffffffffffffffffffffffff1673ffffffffffffffffffffffffffffffffffffffff16815260200190815260200160002060008473ffffffffffffffffffffffffffffffffffffffff1673ffffffffffffffffffffffffffffffffffffffff16815260200190815260200160002054613ea390919063ffffffff16565b60d6600060cd60009054906101000a900473ffffffffffffffffffffffffffffffffffffffff1673ffffffffffffffffffffffffffffffffffffffff1673ffffffffffffffffffffffffffffffffffffffff16815260200190815260200160002060008373ffffffffffffffffffffffffffffffffffffffff1673ffffffffffffffffffffffffffffffffffffffff168152602001908152602001600020819055505b6156ca826004015460d560008760010160009054906101000a900473ffffffffffffffffffffffffffffffffffffffff1673ffffffffffffffffffffffffffffffffffffffff1673ffffffffffffffffffffffffffffffffffffffff16815260200190815260200160002060008560030160009054906101000a900473ffffffffffffffffffffffffffffffffffffffff1673ffffffffffffffffffffffffffffffffffffffff1673ffffffffffffffffffffffffffffffffffffffff16815260200190815260200160002060010154613f2b90919063ffffffff16565b60d560008660010160009054906101000a900473ffffffffffffffffffffffffffffffffffffffff1673ffffffffffffffffffffffffffffffffffffffff1673ffffffffffffffffffffffffffffffffffffffff16815260200190815260200160002060008460030160009054906101000a900473ffffffffffffffffffffffffffffffffffffffff1673ffffffffffffffffffffffffffffffffffffffff1673ffffffffffffffffffffffffffffffffffffffff16815260200190815260200160002060010181905550600382600c0160006101000a81548160ff021916908360038111156157b657fe5b02179055503373ffffffffffffffffffffffffffffffffffffffff167ff1742434e1b80bd4f9edb22a1663806afc3d7b52840f28ff20056578a2e8a78f878460080154856009015460405180848152602001838152602001828152602001935050505060405180910390a250505050505050565b61583e816066615d2490919063ffffffff16565b8073ffffffffffffffffffffffffffffffffffffffff167f6719d08c1888103bea251a4ed56406bd0c3e69723c8a1686e017e7bbe159b6f860405160405180910390a250565b600060019054906101000a900460ff16806158a357506158a261476a565b5b806158ba57506000809054906101000a900460ff16155b61590f576040517f08c379a000000000000000000000000000000000000000000000000000000000815260040180806020018281038252602e815260200180615ef8602e913960400191505060405180910390fd5b60008060019054906101000a900460ff16159050801561595f576001600060016101000a81548160ff02191690831515021790555060016000806101000a81548160ff0219169083151502179055505b61596882611b4c565b615976576159758261582a565b5b80156159975760008060016101000a81548160ff0219169083151502179055505b5050565b600073ffffffffffffffffffffffffffffffffffffffff168173ffffffffffffffffffffffffffffffffffffffff161415615a21576040517f08c379a0000000000000000000000000000000000000000000000000000000008152600401808060200182810382526026815260200180615e6e6026913960400191505060405180910390fd5b8073ffffffffffffffffffffffffffffffffffffffff16603360009054906101000a900473ffffffffffffffffffffffffffffffffffffffff1673ffffffffffffffffffffffffffffffffffffffff167f8be0079c531659141344cd1fd0a4f28419497f9722a3daafe3b4186f6b6457e060405160405180910390a380603360006101000a81548173ffffffffffffffffffffffffffffffffffffffff021916908373ffffffffffffffffffffffffffffffffffffffff16021790555050565b6000838311158290615b8e576040517f08c379a00000000000000000000000000000000000000000000000000000000081526004018080602001828103825283818151815260200191508051906020019080838360005b83811015615b53578082015181840152602081019050615b38565b50505050905090810190601f168015615b805780820380516001836020036101000a031916815260200191505b509250505060405180910390fd5b5060008385039050809150509392505050565b615bab828261468c565b615c00576040517f08c379a0000000000000000000000000000000000000000000000000000000008152600401808060200182810382526021815260200180615e946021913960400191505060405180910390fd5b60008260000160008373ffffffffffffffffffffffffffffffffffffffff1673ffffffffffffffffffffffffffffffffffffffff16815260200190815260200160002060006101000a81548160ff0219169083151502179055505050565b60008083118290615d0a576040517f08c379a00000000000000000000000000000000000000000000000000000000081526004018080602001828103825283818151815260200191508051906020019080838360005b83811015615ccf578082015181840152602081019050615cb4565b50505050905090810190601f168015615cfc5780820380516001836020036101000a031916815260200191505b509250505060405180910390fd5b506000838581615d1657fe5b049050809150509392505050565b615d2e828261468c565b15615da1576040517f08c379a000000000000000000000000000000000000000000000000000000000815260040180806020018281038252601f8152602001807f526f6c65733a206163636f756e7420616c72656164792068617320726f6c650081525060200191505060405180910390fd5b60018260000160008373ffffffffffffffffffffffffffffffffffffffff1673ffffffffffffffffffffffffffffffffffffffff16815260200190815260200160002060006101000a81548160ff0219169083151502179055505050565b604051806080016040528060008152602001600073ffffffffffffffffffffffffffffffffffffffff1681526020016000815260200160008152509056fe506175736572526f6c653a2063616c6c657220646f6573206e6f742068617665207468652050617573657220726f6c654f776e61626c653a206e6577206f776e657220697320746865207a65726f2061646472657373526f6c65733a206163636f756e7420646f6573206e6f74206861766520726f6c65536166654d6174683a206d756c7469706c69636174696f6e206f766572666c6f77526f6c65733a206163636f756e7420697320746865207a65726f2061646472657373436f6e747261637420696e7374616e63652068617320616c7265616479206265656e20696e697469616c697a6564a265627a7a723158207406cfbe4dc129b96f7cba94faff3fe6a44f61c3fd796c689ed4aa8757597bdd64736f6c63430005110032",
  "compiler": {
    "name": "solc",
    "version": "0.5.17+commit.d19bba13.Emscripten.clang",
    "optimizer": {
      "enabled": false,
      "runs": 200
    },
    "evmVersion": "petersburg"
  }
}