{
  "fileName": "TraderPaired.sol",
  "contractName": "TraderPaired",
  "source": "// \"SPDX-License-Identifier: UNLICENSED\"\npragma solidity >=0.4.21 <0.7.0;\n\nimport \"@openzeppelin/contracts-ethereum-package/contracts/math/SafeMath.sol\";\nimport \"@openzeppelin/upgrades/contracts/Initializable.sol\";\nimport \"@openzeppelin/contracts-ethereum-package/contracts/ownership/Ownable.sol\";\nimport \"@openzeppelin/contracts-ethereum-package/contracts/lifecycle/Pausable.sol\";\nimport \"@openzeppelin/contracts-ethereum-package/contracts/token/ERC20/IERC20.sol\";\n\ncontract TraderPaired is Initializable, Ownable, Pausable {\n    \n\n\tusing SafeMath for uint256;\n\n    mapping(address => bool) public tokens;\n\n    address constant ETHER = address(0); // allows storage of ether in blank address in token mapping\n    address public feeAccount; // account that will receive fees\n    uint256 public traderFeePercent; // trader fee percentage in unit of 100, i.e. 100 == 1% and 5 == 0.05% and 10000 == 100%\n    uint256 public investorFeePercent; // investor fee percentage in unit of 100, i.e. 100 == 1% and 5 == 0.05% and 10000 == 100%\n    uint256 public investorProfitPercent;\n    uint256 public secondsToForceExit; // number of seconds required before an exit can be forced\n    \n    mapping(uint256 => _Investment) public investments;\n    uint256 public investmentCount;\n\n    mapping(address => mapping(uint256 => uint256)) public traderInvestments;\n    mapping(address => mapping(uint256 => uint256)) public investorInvestments;\n    mapping(address => mapping(address => _Allocation)) public allocations;\n\n    mapping(address => mapping(address => uint256)) public balances; // mapping of token balances to addresses\n\n    mapping(address => _Trader) public traders;\n    mapping(address => _Investor) public investors;\n\n    uint256 public traderCount;\n    uint256 public investorCount;\n\n    mapping(uint256 => address) public traderList;\n    mapping(uint256 => address) public investorList;\n\n    event SetToken(address indexed token, bool valid);\n    event Trader(address indexed trader, uint256 traderId);\n    event Investor(address indexed investor, uint256 investorId);\n    event Allocate(address indexed trader, address token, uint256 amount);\n    event Withdraw(address indexed token, address indexed user, uint256 amount, uint256 balance);\n    event Invest(uint256 id, address indexed investor, address indexed trader, address indexed token, uint256 amount);\n    event RequestExit(address indexed trader, uint256 investmentId, uint256 date, uint256 value, uint256 traderProfit, uint256 investorProfit, uint256 traderFee, uint256 investorFee);\n    event RejectExit(address indexed trader, uint256 investmentId, uint256 value);\n    event ApproveExit(address indexed trader, uint256 investmentId, uint256 traderAmount, uint256 investorAmount);\n\n    enum InvestmentState {\n        Invested,\n        ExitRequested,\n        ExitRejected,\n        Divested\n    }\n\n    struct _Trader {\n        uint256 id;\n        address payable user;\n        uint256 investmentCount;\n    }\n\n    struct _Allocation {\n        uint256 total;\n        uint256 invested;\n    }\n\n    struct _Investor {\n        uint256 id;\n        address payable user;\n        uint256 investmentCount;\n    }\n\n    struct _Investment {\n        uint256 id;\n        address payable trader;\n        address payable investor;\n        bool forced;\n        address token;\n        uint256 amount;\n        uint256 startDate;\n        uint256 endDate;\n        uint256 value;\n        uint256 traderProfit;\n        uint256 investorProfit;\n        uint256 traderFee;\n        uint256 investorFee;\n        InvestmentState state;\n    }\n\n    function initialize(address payable _feeAccount, uint256 _traderFeePercent, uint256 _investorFeePercent, uint256 _investorProfitPercent, uint256 _secondsToForceExit) public initializer {\n        Ownable.initialize(msg.sender);\n        Pausable.initialize(msg.sender);\n\n        tokens[ETHER] = true;\n        feeAccount = _feeAccount;\n        traderFeePercent = _traderFeePercent;\n        investorFeePercent = _investorFeePercent;\n        investorProfitPercent = _investorProfitPercent;\n        secondsToForceExit = _secondsToForceExit;\n    }\n\n    // reverts if ether is sent directly\n    function () external {\n        revert();\n    }\n\n    function setToken(address _token, bool _valid) external onlyOwner {\n        tokens[_token] = _valid;\n        emit SetToken(_token, _valid);\n    }\n\n    function joinAsTrader() external whenNotPaused {\n        require(traders[msg.sender].user == address(0));\n        require(investors[msg.sender].user == address(0));\n\n        traderCount = traderCount.add(1);\n        traderList[traderCount] = msg.sender;\n\n        traders[msg.sender] = _Trader({\n            id: traderCount, \n            user: msg.sender, \n            investmentCount: 0\n        });\n\n        emit Trader(msg.sender, traderCount);\n    }\n\n    function joinAsInvestor() external whenNotPaused {\n        require(traders[msg.sender].user == address(0));\n        require(investors[msg.sender].user == address(0));\n\n        investorCount = investorCount.add(1);\n        investorList[investorCount] = msg.sender;\n        investors[msg.sender] = _Investor({\n                id: investorCount,\n                user: msg.sender,\n                investmentCount: 0\n            });\n\n        emit Investor(msg.sender, investorCount);\n    }\n\n    function allocate(address _token, uint256 _amount) external whenNotPaused {\n        require(tokens[_token]);\n        _Trader memory _trader = traders[msg.sender];\n        require(_trader.user == msg.sender);\n        // require(allocations[msg.sender][_token].total == 0);\n\n        allocations[msg.sender][_token].total = _amount;\n\n        emit Allocate(msg.sender, _token, _amount);\n    }\n\n    /**\n        Investor invests\n    */\n    function investEther(address _traderAddress) external payable whenNotPaused {\n        _invest(_traderAddress, ETHER, msg.value);\n    }\n\n    /**\n        Investor invests\n    */\n    function investToken(address _traderAddress, address _token, uint256 _amount) external whenNotPaused {\n        require(IERC20(_token).transferFrom(msg.sender, address(this), _amount));\n        _invest(_traderAddress, _token, _amount);\n    }\n\n    function _invest(address _traderAddress, address _token, uint256 _amount) internal {\n        require(tokens[_token]);\n        _Investor storage _investor = investors[msg.sender];\n        require(_investor.user == msg.sender);\n\n        _Trader storage _trader = traders[_traderAddress];\n        require(_trader.user == _traderAddress);\n\n        _Allocation storage allocation = allocations[_trader.user][_token];\n\n        // falls within trader allocations\n        require(allocation.total - allocation.invested >= _amount);\n        allocation.invested = allocation.invested.add(_amount);\n        \n        investmentCount = investmentCount.add(1);\n        investments[investmentCount] = _Investment({\n                id: investmentCount,\n                trader: _trader.user,\n                investor: _investor.user,\n                forced: false,\n                token: _token,\n                amount: _amount,\n                startDate: now,\n                endDate: 0,\n                value: 0,\n                traderProfit: 0,\n                investorProfit: 0,\n                traderFee: 0,\n                investorFee: 0,\n                state: InvestmentState.Invested\n            });\n\n        _trader.investmentCount = _trader.investmentCount.add(1);\n        traderInvestments[_trader.user][_trader.investmentCount] = investmentCount;\n\n        _investor.investmentCount = _investor.investmentCount.add(1);\n        investorInvestments[_investor.user][_investor.investmentCount] = investmentCount;\n\n        emit Invest(\n            investmentCount,\n            msg.sender,\n            _trader.user,\n            _token,\n            _amount\n        );\n    }\n\n    /**\n        Investor exits an investment\n    */\n    function requestExit(address _traderAddress, uint256 _investmentId, uint256 _value) external whenNotPaused {\n        _Trader storage _trader = traders[_traderAddress];\n        require(_trader.user == _traderAddress);\n\n        _Investment storage investment = investments[_investmentId];\n\n        require(investment.trader == _traderAddress);\n        require(investment.investor == msg.sender);\n\n        if (investment.endDate == 0) {\n            require(investment.state == InvestmentState.Invested);\n        } else {\n            require(investment.state == InvestmentState.ExitRequested);\n            require(!investment.forced); // not yet forced\n            require((now - investment.endDate) >= secondsToForceExit); // can force an exit\n            require(investment.value == _value); // value is still the same\n\n            investment.forced = true;\n        }\n\n        address _token = investment.token;\n\n        if (_value > investment.amount) {\n            // profit\n            uint256 _investorProfitPercent = investorProfitPercent.sub(investorFeePercent);\n            uint256 _traderProfitPercent = uint256(10000).sub(investorProfitPercent).sub(traderFeePercent);\n\n            uint256 _profit = _value - investment.amount;\n            uint256 _investorProfit = _profit.mul(_investorProfitPercent).div(10000);\n            uint256 _traderProfit = _profit.mul(_traderProfitPercent).div(10000);\n            uint256 _fee = _profit.sub(_investorProfit).sub(_traderProfit);\n            uint256 _investorFee = _fee.div(2);\n            uint256 _traderFee = _fee.sub(_investorFee);\n\n            investment.traderProfit = _traderProfit;\n            investment.investorProfit = _investorProfit;\n            investment.traderFee = _traderFee;\n            investment.investorFee = _investorFee;\n\n            if (investment.forced) {\n                // when forcing an exit with profit, the amount is immediately returned to the investor\n                balances[msg.sender][_token] = balances[msg.sender][_token].add(\n                    investment.amount\n                );\n\n                // immediately pay investor fee\n                balances[feeAccount][_token] = balances[feeAccount][_token]\n                    .add(investment.investorFee);\n            }\n\n        } else {\n            // break even or loss\n            investment.traderProfit = 0;\n            investment.investorProfit = 0;\n            investment.traderFee = (investment.amount.sub(_value)).mul(traderFeePercent).div(10000);\n            investment.investorFee = 0;\n\n            if (investment.forced) {\n                // take losses away from investor\n                balances[msg.sender][_token] = balances[msg.sender][_token].add(_value);\n\n                // when forcing an exit with loss, the losses are immedately returned to the trader\n                balances[_traderAddress][_token] = balances[_traderAddress][_token].add(\n                    investment.amount.sub(_value).sub(investment.traderFee)\n                );\n            }\n        }\n\n        investment.endDate = now;\n        investment.value = _value;\n        investment.state = InvestmentState.ExitRequested;\n\n        emit RequestExit(\n            _traderAddress,\n            _investmentId, \n            investment.endDate, \n            _value, \n            investment.traderProfit, \n            investment.investorProfit, \n            investment.traderFee,\n            investment.investorFee\n        );\n    }\n\n    /**\n        Trader rejects the exit request\n        Perhaps the investor made a false profit claim\n        This will now enter a dispute workflow managed on the client\n    */\n    function rejectExit(uint256 _investmentId, uint256 _value) external whenNotPaused {\n        require(investments[_investmentId].trader == msg.sender);\n        require(investments[_investmentId].state == InvestmentState.ExitRequested);\n        \n        investments[_investmentId].state = InvestmentState.ExitRejected;\n\n        emit RejectExit(\n            msg.sender, \n            _investmentId,\n            _value\n        );\n    }\n\n    /**\n        Trader approves the exit by paying the nett profit back to the contract, under the name of the investor\n    */\n    function approveExitEther(address _investorAddress, uint256 _investmentId) external payable whenNotPaused {\n        approveExit(_investorAddress, _investmentId, msg.value);\n    }\n\n    /**\n        Trader approves the exit by paying the nett profit back to the contract, under the name of the investor\n    */\n    function approveExitToken(address _investorAddress, uint256 _investmentId, uint256 _amount) external whenNotPaused {\n        require(IERC20(investments[_investmentId].token).transferFrom(msg.sender, address(this), _amount));\n        approveExit(_investorAddress, _investmentId, _amount);\n    }\n\n    function approveExit(address _investorAddress, uint256 _investmentId, uint256 _amount) internal {\n        _Trader storage _trader = traders[msg.sender];\n        require(_trader.user == msg.sender);\n        _Investor storage _investor = investors[_investorAddress];\n        _Investment storage investment = investments[_investmentId];\n        require(_investor.user == _investorAddress);\n       \n        require(investment.trader == msg.sender);\n        require(investment.investor == _investorAddress);\n\n        require(investment.state == InvestmentState.ExitRequested);\n\n        address _token = investment.token;\n\n        require(\n                investment.investorProfit\n                .add(investment.traderFee) == _amount\n            );\n\n        if (investment.value > investment.amount) {\n            if (investment.forced) {\n                // investment profit (minus fee)\n                balances[_investorAddress][_token] = balances[_investorAddress][_token].add(\n                    investment.investorProfit\n                );\n\n                // pay trader fee\n                balances[feeAccount][_token] = balances[feeAccount][_token]\n                    .add(investment.traderFee);\n\n            } else {\n                // investment amount plus profit (minus fee)\n                balances[_investorAddress][_token] = balances[_investorAddress][_token].add(\n                    investment.amount.add(\n                        investment.investorProfit\n                    )\n                );\n\n                // pay trader and investor fee\n                balances[feeAccount][_token] = balances[feeAccount][_token]\n                    .add(investment.traderFee)\n                    .add(investment.investorFee);\n            }\n            \n        } else {\n            if (!investment.forced) {\n                // take losses away from investor\n                balances[_investorAddress][_token] = balances[_investorAddress][_token].add(investment.value);\n                \n                // add losses to trader balance\n                balances[msg.sender][_token] = balances[msg.sender][_token]\n                    .add(investment.amount\n                        .sub(investment.value)\n                        .sub(investment.traderFee)\n                    );\n            }\n\n            // trader fee\n            balances[feeAccount][_token] = balances[feeAccount][_token]\n                .add(investment.traderFee);\n        }\n\n        allocations[_trader.user][investment.token].invested = allocations[_trader.user][investment.token].invested.sub(investment.amount);\n        \n        investment.state = InvestmentState.Divested;\n\n        emit ApproveExit(\n            msg.sender,\n            _investmentId,\n            investment.traderProfit,\n            investment.investorProfit\n        );\n    }\n\n    /**\n        Investor withdraws previously deposited ether funds, perhaps including profits (and losses)\n    */\n    function withdrawEther(uint256 _amount) external whenNotPaused {\n        require(balances[msg.sender][ETHER] >= _amount);\n        balances[msg.sender][ETHER] = balances[msg.sender][ETHER].sub(_amount);\n        msg.sender.transfer(_amount);\n        emit Withdraw(ETHER, msg.sender, _amount, balances[msg.sender][ETHER]);\n    }\n\n    /**\n        Investor withdraws previously deposited token funds, perhaps including profits (and losses)\n    */\n    function withdrawToken(address _token, uint256 _amount) external whenNotPaused {\n        require(_token != ETHER);\n        require(balances[msg.sender][_token] >= _amount);\n        // require(IERC20(_token).transferFrom(address(this), msg.sender, _amount));\n        require(IERC20(_token).transfer(msg.sender, _amount));\n        balances[msg.sender][_token] = balances[msg.sender][_token].sub(_amount);\n        emit Withdraw(_token, msg.sender, _amount, balances[msg.sender][_token]);\n    }\n\n}\n",
  "sourcePath": "contracts/TraderPaired.sol",
  "abi": [
    {
      "anonymous": false,
      "inputs": [
        {
          "indexed": true,
          "internalType": "address",
          "name": "trader",
          "type": "address"
        },
        {
          "indexed": false,
          "internalType": "address",
          "name": "token",
          "type": "address"
        },
        {
          "indexed": false,
          "internalType": "uint256",
          "name": "amount",
          "type": "uint256"
        }
      ],
      "name": "Allocate",
      "type": "event"
    },
    {
      "anonymous": false,
      "inputs": [
        {
          "indexed": true,
          "internalType": "address",
          "name": "trader",
          "type": "address"
        },
        {
          "indexed": false,
          "internalType": "uint256",
          "name": "investmentId",
          "type": "uint256"
        },
        {
          "indexed": false,
          "internalType": "uint256",
          "name": "traderAmount",
          "type": "uint256"
        },
        {
          "indexed": false,
          "internalType": "uint256",
          "name": "investorAmount",
          "type": "uint256"
        }
      ],
      "name": "ApproveExit",
      "type": "event"
    },
    {
      "anonymous": false,
      "inputs": [
        {
          "indexed": false,
          "internalType": "uint256",
          "name": "id",
          "type": "uint256"
        },
        {
          "indexed": true,
          "internalType": "address",
          "name": "investor",
          "type": "address"
        },
        {
          "indexed": true,
          "internalType": "address",
          "name": "trader",
          "type": "address"
        },
        {
          "indexed": true,
          "internalType": "address",
          "name": "token",
          "type": "address"
        },
        {
          "indexed": false,
          "internalType": "uint256",
          "name": "amount",
          "type": "uint256"
        }
      ],
      "name": "Invest",
      "type": "event"
    },
    {
      "anonymous": false,
      "inputs": [
        {
          "indexed": true,
          "internalType": "address",
          "name": "investor",
          "type": "address"
        },
        {
          "indexed": false,
          "internalType": "uint256",
          "name": "investorId",
          "type": "uint256"
        }
      ],
      "name": "Investor",
      "type": "event"
    },
    {
      "anonymous": false,
      "inputs": [
        {
          "indexed": true,
          "internalType": "address",
          "name": "previousOwner",
          "type": "address"
        },
        {
          "indexed": true,
          "internalType": "address",
          "name": "newOwner",
          "type": "address"
        }
      ],
      "name": "OwnershipTransferred",
      "type": "event"
    },
    {
      "anonymous": false,
      "inputs": [
        {
          "indexed": false,
          "internalType": "address",
          "name": "account",
          "type": "address"
        }
      ],
      "name": "Paused",
      "type": "event"
    },
    {
      "anonymous": false,
      "inputs": [
        {
          "indexed": true,
          "internalType": "address",
          "name": "account",
          "type": "address"
        }
      ],
      "name": "PauserAdded",
      "type": "event"
    },
    {
      "anonymous": false,
      "inputs": [
        {
          "indexed": true,
          "internalType": "address",
          "name": "account",
          "type": "address"
        }
      ],
      "name": "PauserRemoved",
      "type": "event"
    },
    {
      "anonymous": false,
      "inputs": [
        {
          "indexed": true,
          "internalType": "address",
          "name": "trader",
          "type": "address"
        },
        {
          "indexed": false,
          "internalType": "uint256",
          "name": "investmentId",
          "type": "uint256"
        },
        {
          "indexed": false,
          "internalType": "uint256",
          "name": "value",
          "type": "uint256"
        }
      ],
      "name": "RejectExit",
      "type": "event"
    },
    {
      "anonymous": false,
      "inputs": [
        {
          "indexed": true,
          "internalType": "address",
          "name": "trader",
          "type": "address"
        },
        {
          "indexed": false,
          "internalType": "uint256",
          "name": "investmentId",
          "type": "uint256"
        },
        {
          "indexed": false,
          "internalType": "uint256",
          "name": "date",
          "type": "uint256"
        },
        {
          "indexed": false,
          "internalType": "uint256",
          "name": "value",
          "type": "uint256"
        },
        {
          "indexed": false,
          "internalType": "uint256",
          "name": "traderProfit",
          "type": "uint256"
        },
        {
          "indexed": false,
          "internalType": "uint256",
          "name": "investorProfit",
          "type": "uint256"
        },
        {
          "indexed": false,
          "internalType": "uint256",
          "name": "traderFee",
          "type": "uint256"
        },
        {
          "indexed": false,
          "internalType": "uint256",
          "name": "investorFee",
          "type": "uint256"
        }
      ],
      "name": "RequestExit",
      "type": "event"
    },
    {
      "anonymous": false,
      "inputs": [
        {
          "indexed": true,
          "internalType": "address",
          "name": "token",
          "type": "address"
        },
        {
          "indexed": false,
          "internalType": "bool",
          "name": "valid",
          "type": "bool"
        }
      ],
      "name": "SetToken",
      "type": "event"
    },
    {
      "anonymous": false,
      "inputs": [
        {
          "indexed": true,
          "internalType": "address",
          "name": "trader",
          "type": "address"
        },
        {
          "indexed": false,
          "internalType": "uint256",
          "name": "traderId",
          "type": "uint256"
        }
      ],
      "name": "Trader",
      "type": "event"
    },
    {
      "anonymous": false,
      "inputs": [
        {
          "indexed": false,
          "internalType": "address",
          "name": "account",
          "type": "address"
        }
      ],
      "name": "Unpaused",
      "type": "event"
    },
    {
      "anonymous": false,
      "inputs": [
        {
          "indexed": true,
          "internalType": "address",
          "name": "token",
          "type": "address"
        },
        {
          "indexed": true,
          "internalType": "address",
          "name": "user",
          "type": "address"
        },
        {
          "indexed": false,
          "internalType": "uint256",
          "name": "amount",
          "type": "uint256"
        },
        {
          "indexed": false,
          "internalType": "uint256",
          "name": "balance",
          "type": "uint256"
        }
      ],
      "name": "Withdraw",
      "type": "event"
    },
    {
      "payable": false,
      "stateMutability": "nonpayable",
      "type": "fallback"
    },
    {
      "constant": false,
      "inputs": [
        {
          "internalType": "address",
          "name": "account",
          "type": "address"
        }
      ],
      "name": "addPauser",
      "outputs": [],
      "payable": false,
      "stateMutability": "nonpayable",
      "type": "function"
    },
    {
      "constant": false,
      "inputs": [
        {
          "internalType": "address",
          "name": "_token",
          "type": "address"
        },
        {
          "internalType": "uint256",
          "name": "_amount",
          "type": "uint256"
        }
      ],
      "name": "allocate",
      "outputs": [],
      "payable": false,
      "stateMutability": "nonpayable",
      "type": "function"
    },
    {
      "constant": true,
      "inputs": [
        {
          "internalType": "address",
          "name": "",
          "type": "address"
        },
        {
          "internalType": "address",
          "name": "",
          "type": "address"
        }
      ],
      "name": "allocations",
      "outputs": [
        {
          "internalType": "uint256",
          "name": "total",
          "type": "uint256"
        },
        {
          "internalType": "uint256",
          "name": "invested",
          "type": "uint256"
        }
      ],
      "payable": false,
      "stateMutability": "view",
      "type": "function"
    },
    {
      "constant": false,
      "inputs": [
        {
          "internalType": "address",
          "name": "_investorAddress",
          "type": "address"
        },
        {
          "internalType": "uint256",
          "name": "_investmentId",
          "type": "uint256"
        }
      ],
      "name": "approveExitEther",
      "outputs": [],
      "payable": true,
      "stateMutability": "payable",
      "type": "function"
    },
    {
      "constant": false,
      "inputs": [
        {
          "internalType": "address",
          "name": "_investorAddress",
          "type": "address"
        },
        {
          "internalType": "uint256",
          "name": "_investmentId",
          "type": "uint256"
        },
        {
          "internalType": "uint256",
          "name": "_amount",
          "type": "uint256"
        }
      ],
      "name": "approveExitToken",
      "outputs": [],
      "payable": false,
      "stateMutability": "nonpayable",
      "type": "function"
    },
    {
      "constant": true,
      "inputs": [
        {
          "internalType": "address",
          "name": "",
          "type": "address"
        },
        {
          "internalType": "address",
          "name": "",
          "type": "address"
        }
      ],
      "name": "balances",
      "outputs": [
        {
          "internalType": "uint256",
          "name": "",
          "type": "uint256"
        }
      ],
      "payable": false,
      "stateMutability": "view",
      "type": "function"
    },
    {
      "constant": true,
      "inputs": [],
      "name": "feeAccount",
      "outputs": [
        {
          "internalType": "address",
          "name": "",
          "type": "address"
        }
      ],
      "payable": false,
      "stateMutability": "view",
      "type": "function"
    },
    {
      "constant": false,
      "inputs": [
        {
          "internalType": "address",
          "name": "sender",
          "type": "address"
        }
      ],
      "name": "initialize",
      "outputs": [],
      "payable": false,
      "stateMutability": "nonpayable",
      "type": "function"
    },
    {
      "constant": false,
      "inputs": [
        {
          "internalType": "address payable",
          "name": "_feeAccount",
          "type": "address"
        },
        {
          "internalType": "uint256",
          "name": "_traderFeePercent",
          "type": "uint256"
        },
        {
          "internalType": "uint256",
          "name": "_investorFeePercent",
          "type": "uint256"
        },
        {
          "internalType": "uint256",
          "name": "_investorProfitPercent",
          "type": "uint256"
        },
        {
          "internalType": "uint256",
          "name": "_secondsToForceExit",
          "type": "uint256"
        }
      ],
      "name": "initialize",
      "outputs": [],
      "payable": false,
      "stateMutability": "nonpayable",
      "type": "function"
    },
    {
      "constant": false,
      "inputs": [
        {
          "internalType": "address",
          "name": "_traderAddress",
          "type": "address"
        }
      ],
      "name": "investEther",
      "outputs": [],
      "payable": true,
      "stateMutability": "payable",
      "type": "function"
    },
    {
      "constant": false,
      "inputs": [
        {
          "internalType": "address",
          "name": "_traderAddress",
          "type": "address"
        },
        {
          "internalType": "address",
          "name": "_token",
          "type": "address"
        },
        {
          "internalType": "uint256",
          "name": "_amount",
          "type": "uint256"
        }
      ],
      "name": "investToken",
      "outputs": [],
      "payable": false,
      "stateMutability": "nonpayable",
      "type": "function"
    },
    {
      "constant": true,
      "inputs": [],
      "name": "investmentCount",
      "outputs": [
        {
          "internalType": "uint256",
          "name": "",
          "type": "uint256"
        }
      ],
      "payable": false,
      "stateMutability": "view",
      "type": "function"
    },
    {
      "constant": true,
      "inputs": [
        {
          "internalType": "uint256",
          "name": "",
          "type": "uint256"
        }
      ],
      "name": "investments",
      "outputs": [
        {
          "internalType": "uint256",
          "name": "id",
          "type": "uint256"
        },
        {
          "internalType": "address payable",
          "name": "trader",
          "type": "address"
        },
        {
          "internalType": "address payable",
          "name": "investor",
          "type": "address"
        },
        {
          "internalType": "bool",
          "name": "forced",
          "type": "bool"
        },
        {
          "internalType": "address",
          "name": "token",
          "type": "address"
        },
        {
          "internalType": "uint256",
          "name": "amount",
          "type": "uint256"
        },
        {
          "internalType": "uint256",
          "name": "startDate",
          "type": "uint256"
        },
        {
          "internalType": "uint256",
          "name": "endDate",
          "type": "uint256"
        },
        {
          "internalType": "uint256",
          "name": "value",
          "type": "uint256"
        },
        {
          "internalType": "uint256",
          "name": "traderProfit",
          "type": "uint256"
        },
        {
          "internalType": "uint256",
          "name": "investorProfit",
          "type": "uint256"
        },
        {
          "internalType": "uint256",
          "name": "traderFee",
          "type": "uint256"
        },
        {
          "internalType": "uint256",
          "name": "investorFee",
          "type": "uint256"
        },
        {
          "internalType": "enum TraderPaired.InvestmentState",
          "name": "state",
          "type": "uint8"
        }
      ],
      "payable": false,
      "stateMutability": "view",
      "type": "function"
    },
    {
      "constant": true,
      "inputs": [],
      "name": "investorCount",
      "outputs": [
        {
          "internalType": "uint256",
          "name": "",
          "type": "uint256"
        }
      ],
      "payable": false,
      "stateMutability": "view",
      "type": "function"
    },
    {
      "constant": true,
      "inputs": [],
      "name": "investorFeePercent",
      "outputs": [
        {
          "internalType": "uint256",
          "name": "",
          "type": "uint256"
        }
      ],
      "payable": false,
      "stateMutability": "view",
      "type": "function"
    },
    {
      "constant": true,
      "inputs": [
        {
          "internalType": "address",
          "name": "",
          "type": "address"
        },
        {
          "internalType": "uint256",
          "name": "",
          "type": "uint256"
        }
      ],
      "name": "investorInvestments",
      "outputs": [
        {
          "internalType": "uint256",
          "name": "",
          "type": "uint256"
        }
      ],
      "payable": false,
      "stateMutability": "view",
      "type": "function"
    },
    {
      "constant": true,
      "inputs": [
        {
          "internalType": "uint256",
          "name": "",
          "type": "uint256"
        }
      ],
      "name": "investorList",
      "outputs": [
        {
          "internalType": "address",
          "name": "",
          "type": "address"
        }
      ],
      "payable": false,
      "stateMutability": "view",
      "type": "function"
    },
    {
      "constant": true,
      "inputs": [],
      "name": "investorProfitPercent",
      "outputs": [
        {
          "internalType": "uint256",
          "name": "",
          "type": "uint256"
        }
      ],
      "payable": false,
      "stateMutability": "view",
      "type": "function"
    },
    {
      "constant": true,
      "inputs": [
        {
          "internalType": "address",
          "name": "",
          "type": "address"
        }
      ],
      "name": "investors",
      "outputs": [
        {
          "internalType": "uint256",
          "name": "id",
          "type": "uint256"
        },
        {
          "internalType": "address payable",
          "name": "user",
          "type": "address"
        },
        {
          "internalType": "uint256",
          "name": "investmentCount",
          "type": "uint256"
        }
      ],
      "payable": false,
      "stateMutability": "view",
      "type": "function"
    },
    {
      "constant": true,
      "inputs": [],
      "name": "isOwner",
      "outputs": [
        {
          "internalType": "bool",
          "name": "",
          "type": "bool"
        }
      ],
      "payable": false,
      "stateMutability": "view",
      "type": "function"
    },
    {
      "constant": true,
      "inputs": [
        {
          "internalType": "address",
          "name": "account",
          "type": "address"
        }
      ],
      "name": "isPauser",
      "outputs": [
        {
          "internalType": "bool",
          "name": "",
          "type": "bool"
        }
      ],
      "payable": false,
      "stateMutability": "view",
      "type": "function"
    },
    {
      "constant": false,
      "inputs": [],
      "name": "joinAsInvestor",
      "outputs": [],
      "payable": false,
      "stateMutability": "nonpayable",
      "type": "function"
    },
    {
      "constant": false,
      "inputs": [],
      "name": "joinAsTrader",
      "outputs": [],
      "payable": false,
      "stateMutability": "nonpayable",
      "type": "function"
    },
    {
      "constant": true,
      "inputs": [],
      "name": "owner",
      "outputs": [
        {
          "internalType": "address",
          "name": "",
          "type": "address"
        }
      ],
      "payable": false,
      "stateMutability": "view",
      "type": "function"
    },
    {
      "constant": false,
      "inputs": [],
      "name": "pause",
      "outputs": [],
      "payable": false,
      "stateMutability": "nonpayable",
      "type": "function"
    },
    {
      "constant": true,
      "inputs": [],
      "name": "paused",
      "outputs": [
        {
          "internalType": "bool",
          "name": "",
          "type": "bool"
        }
      ],
      "payable": false,
      "stateMutability": "view",
      "type": "function"
    },
    {
      "constant": false,
      "inputs": [
        {
          "internalType": "uint256",
          "name": "_investmentId",
          "type": "uint256"
        },
        {
          "internalType": "uint256",
          "name": "_value",
          "type": "uint256"
        }
      ],
      "name": "rejectExit",
      "outputs": [],
      "payable": false,
      "stateMutability": "nonpayable",
      "type": "function"
    },
    {
      "constant": false,
      "inputs": [],
      "name": "renounceOwnership",
      "outputs": [],
      "payable": false,
      "stateMutability": "nonpayable",
      "type": "function"
    },
    {
      "constant": false,
      "inputs": [],
      "name": "renouncePauser",
      "outputs": [],
      "payable": false,
      "stateMutability": "nonpayable",
      "type": "function"
    },
    {
      "constant": false,
      "inputs": [
        {
          "internalType": "address",
          "name": "_traderAddress",
          "type": "address"
        },
        {
          "internalType": "uint256",
          "name": "_investmentId",
          "type": "uint256"
        },
        {
          "internalType": "uint256",
          "name": "_value",
          "type": "uint256"
        }
      ],
      "name": "requestExit",
      "outputs": [],
      "payable": false,
      "stateMutability": "nonpayable",
      "type": "function"
    },
    {
      "constant": true,
      "inputs": [],
      "name": "secondsToForceExit",
      "outputs": [
        {
          "internalType": "uint256",
          "name": "",
          "type": "uint256"
        }
      ],
      "payable": false,
      "stateMutability": "view",
      "type": "function"
    },
    {
      "constant": false,
      "inputs": [
        {
          "internalType": "address",
          "name": "_token",
          "type": "address"
        },
        {
          "internalType": "bool",
          "name": "_valid",
          "type": "bool"
        }
      ],
      "name": "setToken",
      "outputs": [],
      "payable": false,
      "stateMutability": "nonpayable",
      "type": "function"
    },
    {
      "constant": true,
      "inputs": [
        {
          "internalType": "address",
          "name": "",
          "type": "address"
        }
      ],
      "name": "tokens",
      "outputs": [
        {
          "internalType": "bool",
          "name": "",
          "type": "bool"
        }
      ],
      "payable": false,
      "stateMutability": "view",
      "type": "function"
    },
    {
      "constant": true,
      "inputs": [],
      "name": "traderCount",
      "outputs": [
        {
          "internalType": "uint256",
          "name": "",
          "type": "uint256"
        }
      ],
      "payable": false,
      "stateMutability": "view",
      "type": "function"
    },
    {
      "constant": true,
      "inputs": [],
      "name": "traderFeePercent",
      "outputs": [
        {
          "internalType": "uint256",
          "name": "",
          "type": "uint256"
        }
      ],
      "payable": false,
      "stateMutability": "view",
      "type": "function"
    },
    {
      "constant": true,
      "inputs": [
        {
          "internalType": "address",
          "name": "",
          "type": "address"
        },
        {
          "internalType": "uint256",
          "name": "",
          "type": "uint256"
        }
      ],
      "name": "traderInvestments",
      "outputs": [
        {
          "internalType": "uint256",
          "name": "",
          "type": "uint256"
        }
      ],
      "payable": false,
      "stateMutability": "view",
      "type": "function"
    },
    {
      "constant": true,
      "inputs": [
        {
          "internalType": "uint256",
          "name": "",
          "type": "uint256"
        }
      ],
      "name": "traderList",
      "outputs": [
        {
          "internalType": "address",
          "name": "",
          "type": "address"
        }
      ],
      "payable": false,
      "stateMutability": "view",
      "type": "function"
    },
    {
      "constant": true,
      "inputs": [
        {
          "internalType": "address",
          "name": "",
          "type": "address"
        }
      ],
      "name": "traders",
      "outputs": [
        {
          "internalType": "uint256",
          "name": "id",
          "type": "uint256"
        },
        {
          "internalType": "address payable",
          "name": "user",
          "type": "address"
        },
        {
          "internalType": "uint256",
          "name": "investmentCount",
          "type": "uint256"
        }
      ],
      "payable": false,
      "stateMutability": "view",
      "type": "function"
    },
    {
      "constant": false,
      "inputs": [
        {
          "internalType": "address",
          "name": "newOwner",
          "type": "address"
        }
      ],
      "name": "transferOwnership",
      "outputs": [],
      "payable": false,
      "stateMutability": "nonpayable",
      "type": "function"
    },
    {
      "constant": false,
      "inputs": [],
      "name": "unpause",
      "outputs": [],
      "payable": false,
      "stateMutability": "nonpayable",
      "type": "function"
    },
    {
      "constant": false,
      "inputs": [
        {
          "internalType": "uint256",
          "name": "_amount",
          "type": "uint256"
        }
      ],
      "name": "withdrawEther",
      "outputs": [],
      "payable": false,
      "stateMutability": "nonpayable",
      "type": "function"
    },
    {
      "constant": false,
      "inputs": [
        {
          "internalType": "address",
          "name": "_token",
          "type": "address"
        },
        {
          "internalType": "uint256",
          "name": "_amount",
          "type": "uint256"
        }
      ],
      "name": "withdrawToken",
      "outputs": [],
      "payable": false,
      "stateMutability": "nonpayable",
      "type": "function"
    }
  ],
  "bytecode": "0x6080604052615f2d806100136000396000f3fe6080604052600436106102515760003560e01c806383cbd34b11610139578063a6cf3acd116100b6578063d7e64c001161007a578063d7e64c0014610d24578063e486033914610d4f578063eef90b6214610db8578063f2fde38b14610e27578063f92ad21914610e78578063fd345c8a14610ef157610251565b8063a6cf3acd14610b33578063b78b52df14610b78578063c23f001f14610bd3578063c4d66de814610c58578063c9d2511114610ca957610251565b80638f32d59b116100fd5780638f32d59b146109b457806391db6bb5146109e357806392a88fa214610a0e5780639c4abeb714610aad5780639e281a9814610ad857610251565b806383cbd34b1461082a5780638456cb591461088f578063853996e4146108a65780638c68770b146109325780638da5cb5b1461095d57610251565b80635ccaa931116101d25780636f7bc9be116101965780636f7bc9be14610645578063715018a6146106e45780637d4c6fe4146106fb5780637e6fc89f1461072657806380649a341461078b57806382dc1ec4146107d957610251565b80635ccaa9311461055157806365e17c9d1461059557806369dc6765146105ec5780636e146998146106175780636ef8d66d1461062e57610251565b80633e34ed10116102195780633e34ed10146103b85780633f4ba83a1461043357806346fbf68e1461044a5780635a77c18d146104b35780635c975abb1461052257610251565b806312f9b48e14610263578063246b0e5c146102de5780633619fcd1146103095780633816a292146103205780633bed33ce1461037d575b34801561025d57600080fd5b50600080fd5b34801561026f57600080fd5b5061029c6004803603602081101561028657600080fd5b8101908080359060200190929190505050611031565b604051808273ffffffffffffffffffffffffffffffffffffffff1673ffffffffffffffffffffffffffffffffffffffff16815260200191505060405180910390f35b3480156102ea57600080fd5b506102f3611064565b6040518082815260200191505060405180910390f35b34801561031557600080fd5b5061031e61106a565b005b34801561032c57600080fd5b5061037b6004803603604081101561034357600080fd5b81019080803573ffffffffffffffffffffffffffffffffffffffff1690602001909291908035151590602001909291905050506113b6565b005b34801561038957600080fd5b506103b6600480360360208110156103a057600080fd5b81019080803590602001909291905050506114dd565b005b3480156103c457600080fd5b50610431600480360360608110156103db57600080fd5b81019080803573ffffffffffffffffffffffffffffffffffffffff169060200190929190803573ffffffffffffffffffffffffffffffffffffffff1690602001909291908035906020019092919050505061182c565b005b34801561043f57600080fd5b506104486119be565b005b34801561045657600080fd5b506104996004803603602081101561046d57600080fd5b81019080803573ffffffffffffffffffffffffffffffffffffffff169060200190929190505050611b2c565b604051808215151515815260200191505060405180910390f35b3480156104bf57600080fd5b5061050c600480360360408110156104d657600080fd5b81019080803573ffffffffffffffffffffffffffffffffffffffff16906020019092919080359060200190929190505050611b49565b6040518082815260200191505060405180910390f35b34801561052e57600080fd5b50610537611b6e565b604051808215151515815260200191505060405180910390f35b6105936004803603602081101561056757600080fd5b81019080803573ffffffffffffffffffffffffffffffffffffffff169060200190929190505050611b85565b005b3480156105a157600080fd5b506105aa611c17565b604051808273ffffffffffffffffffffffffffffffffffffffff1673ffffffffffffffffffffffffffffffffffffffff16815260200191505060405180910390f35b3480156105f857600080fd5b50610601611c3d565b6040518082815260200191505060405180910390f35b34801561062357600080fd5b5061062c611c43565b005b34801561063a57600080fd5b50610643611f8f565b005b34801561065157600080fd5b506106946004803603602081101561066857600080fd5b81019080803573ffffffffffffffffffffffffffffffffffffffff169060200190929190505050611fa1565b604051808481526020018373ffffffffffffffffffffffffffffffffffffffff1673ffffffffffffffffffffffffffffffffffffffff168152602001828152602001935050505060405180910390f35b3480156106f057600080fd5b506106f9611feb565b005b34801561070757600080fd5b50610710612126565b6040518082815260200191505060405180910390f35b34801561073257600080fd5b506107896004803603606081101561074957600080fd5b81019080803573ffffffffffffffffffffffffffffffffffffffff169060200190929190803590602001909291908035906020019092919050505061212c565b005b6107d7600480360360408110156107a157600080fd5b81019080803573ffffffffffffffffffffffffffffffffffffffff16906020019092919080359060200190929190505050612b7b565b005b3480156107e557600080fd5b50610828600480360360208110156107fc57600080fd5b81019080803573ffffffffffffffffffffffffffffffffffffffff169060200190929190505050612c0d565b005b34801561083657600080fd5b5061088d6004803603606081101561084d57600080fd5b81019080803573ffffffffffffffffffffffffffffffffffffffff1690602001909291908035906020019092919080359060200190929190505050612c7e565b005b34801561089b57600080fd5b506108a4612e46565b005b3480156108b257600080fd5b50610915600480360360408110156108c957600080fd5b81019080803573ffffffffffffffffffffffffffffffffffffffff169060200190929190803573ffffffffffffffffffffffffffffffffffffffff169060200190929190505050612fb5565b604051808381526020018281526020019250505060405180910390f35b34801561093e57600080fd5b50610947612fe6565b6040518082815260200191505060405180910390f35b34801561096957600080fd5b50610972612fec565b604051808273ffffffffffffffffffffffffffffffffffffffff1673ffffffffffffffffffffffffffffffffffffffff16815260200191505060405180910390f35b3480156109c057600080fd5b506109c9613016565b604051808215151515815260200191505060405180910390f35b3480156109ef57600080fd5b506109f8613075565b6040518082815260200191505060405180910390f35b348015610a1a57600080fd5b50610a5d60048036036020811015610a3157600080fd5b81019080803573ffffffffffffffffffffffffffffffffffffffff16906020019092919050505061307b565b604051808481526020018373ffffffffffffffffffffffffffffffffffffffff1673ffffffffffffffffffffffffffffffffffffffff168152602001828152602001935050505060405180910390f35b348015610ab957600080fd5b50610ac26130c5565b6040518082815260200191505060405180910390f35b348015610ae457600080fd5b50610b3160048036036040811015610afb57600080fd5b81019080803573ffffffffffffffffffffffffffffffffffffffff169060200190929190803590602001909291905050506130cb565b005b348015610b3f57600080fd5b50610b7660048036036040811015610b5657600080fd5b8101908080359060200190929190803590602001909291905050506134d8565b005b348015610b8457600080fd5b50610bd160048036036040811015610b9b57600080fd5b81019080803573ffffffffffffffffffffffffffffffffffffffff169060200190929190803590602001909291905050506136a1565b005b348015610bdf57600080fd5b50610c4260048036036040811015610bf657600080fd5b81019080803573ffffffffffffffffffffffffffffffffffffffff169060200190929190803573ffffffffffffffffffffffffffffffffffffffff16906020019092919050505061397f565b6040518082815260200191505060405180910390f35b348015610c6457600080fd5b50610ca760048036036020811015610c7b57600080fd5b81019080803573ffffffffffffffffffffffffffffffffffffffff1690602001909291905050506139a4565b005b348015610cb557600080fd5b50610ce260048036036020811015610ccc57600080fd5b8101908080359060200190929190505050613ac8565b604051808273ffffffffffffffffffffffffffffffffffffffff1673ffffffffffffffffffffffffffffffffffffffff16815260200191505060405180910390f35b348015610d3057600080fd5b50610d39613afb565b6040518082815260200191505060405180910390f35b348015610d5b57600080fd5b50610d9e60048036036020811015610d7257600080fd5b81019080803573ffffffffffffffffffffffffffffffffffffffff169060200190929190505050613b01565b604051808215151515815260200191505060405180910390f35b348015610dc457600080fd5b50610e1160048036036040811015610ddb57600080fd5b81019080803573ffffffffffffffffffffffffffffffffffffffff16906020019092919080359060200190929190505050613b21565b6040518082815260200191505060405180910390f35b348015610e3357600080fd5b50610e7660048036036020811015610e4a57600080fd5b81019080803573ffffffffffffffffffffffffffffffffffffffff169060200190929190505050613b46565b005b348015610e8457600080fd5b50610eef600480360360a0811015610e9b57600080fd5b81019080803573ffffffffffffffffffffffffffffffffffffffff16906020019092919080359060200190929190803590602001909291908035906020019092919080359060200190929190505050613bcc565b005b348015610efd57600080fd5b50610f2a60048036036020811015610f1457600080fd5b8101908080359060200190929190505050613d97565b604051808f81526020018e73ffffffffffffffffffffffffffffffffffffffff1673ffffffffffffffffffffffffffffffffffffffff1681526020018d73ffffffffffffffffffffffffffffffffffffffff1673ffffffffffffffffffffffffffffffffffffffff1681526020018c1515151581526020018b73ffffffffffffffffffffffffffffffffffffffff1673ffffffffffffffffffffffffffffffffffffffff1681526020018a815260200189815260200188815260200187815260200186815260200185815260200184815260200183815260200182600381111561101057fe5b60ff1681526020019e50505050505050505050505050505060405180910390f35b60dd6020528060005260406000206000915054906101000a900473ffffffffffffffffffffffffffffffffffffffff1681565b60d35481565b609960009054906101000a900460ff16156110ed576040517f08c379a00000000000000000000000000000000000000000000000000000000081526004018080602001828103825260108152602001807f5061757361626c653a207061757365640000000000000000000000000000000081525060200191505060405180910390fd5b600073ffffffffffffffffffffffffffffffffffffffff1660d860003373ffffffffffffffffffffffffffffffffffffffff1673ffffffffffffffffffffffffffffffffffffffff16815260200190815260200160002060010160009054906101000a900473ffffffffffffffffffffffffffffffffffffffff1673ffffffffffffffffffffffffffffffffffffffff161461118857600080fd5b600073ffffffffffffffffffffffffffffffffffffffff1660d960003373ffffffffffffffffffffffffffffffffffffffff1673ffffffffffffffffffffffffffffffffffffffff16815260200190815260200160002060010160009054906101000a900473ffffffffffffffffffffffffffffffffffffffff1673ffffffffffffffffffffffffffffffffffffffff161461122357600080fd5b611239600160da54613e7d90919063ffffffff16565b60da819055503360dc600060da54815260200190815260200160002060006101000a81548173ffffffffffffffffffffffffffffffffffffffff021916908373ffffffffffffffffffffffffffffffffffffffff160217905550604051806060016040528060da5481526020013373ffffffffffffffffffffffffffffffffffffffff168152602001600081525060d860003373ffffffffffffffffffffffffffffffffffffffff1673ffffffffffffffffffffffffffffffffffffffff1681526020019081526020016000206000820151816000015560208201518160010160006101000a81548173ffffffffffffffffffffffffffffffffffffffff021916908373ffffffffffffffffffffffffffffffffffffffff160217905550604082015181600201559050503373ffffffffffffffffffffffffffffffffffffffff167f07e6fac70d6958b8515f69f22e83196b98850a5a0891eb226df124f7677bd81560da546040518082815260200191505060405180910390a2565b6113be613016565b611430576040517f08c379a00000000000000000000000000000000000000000000000000000000081526004018080602001828103825260208152602001807f4f776e61626c653a2063616c6c6572206973206e6f7420746865206f776e657281525060200191505060405180910390fd5b8060cc60008473ffffffffffffffffffffffffffffffffffffffff1673ffffffffffffffffffffffffffffffffffffffff16815260200190815260200160002060006101000a81548160ff0219169083151502179055508173ffffffffffffffffffffffffffffffffffffffff167fb7ebab83a58ce61ea26b563c1f73ed2fb8e747c78205f72382399303a9c7b1d282604051808215151515815260200191505060405180910390a25050565b609960009054906101000a900460ff1615611560576040517f08c379a00000000000000000000000000000000000000000000000000000000081526004018080602001828103825260108152602001807f5061757361626c653a207061757365640000000000000000000000000000000081525060200191505060405180910390fd5b8060d760003373ffffffffffffffffffffffffffffffffffffffff1673ffffffffffffffffffffffffffffffffffffffff16815260200190815260200160002060008073ffffffffffffffffffffffffffffffffffffffff1673ffffffffffffffffffffffffffffffffffffffff1681526020019081526020016000205410156115e957600080fd5b6116788160d760003373ffffffffffffffffffffffffffffffffffffffff1673ffffffffffffffffffffffffffffffffffffffff16815260200190815260200160002060008073ffffffffffffffffffffffffffffffffffffffff1673ffffffffffffffffffffffffffffffffffffffff16815260200190815260200160002054613f0590919063ffffffff16565b60d760003373ffffffffffffffffffffffffffffffffffffffff1673ffffffffffffffffffffffffffffffffffffffff16815260200190815260200160002060008073ffffffffffffffffffffffffffffffffffffffff1673ffffffffffffffffffffffffffffffffffffffff168152602001908152602001600020819055503373ffffffffffffffffffffffffffffffffffffffff166108fc829081150290604051600060405180830381858888f1935050505015801561173e573d6000803e3d6000fd5b503373ffffffffffffffffffffffffffffffffffffffff16600073ffffffffffffffffffffffffffffffffffffffff167ff341246adaac6f497bc2a656f546ab9e182111d630394f0c57c710a59a2cb5678360d760003373ffffffffffffffffffffffffffffffffffffffff1673ffffffffffffffffffffffffffffffffffffffff16815260200190815260200160002060008073ffffffffffffffffffffffffffffffffffffffff1673ffffffffffffffffffffffffffffffffffffffff16815260200190815260200160002054604051808381526020018281526020019250505060405180910390a350565b609960009054906101000a900460ff16156118af576040517f08c379a00000000000000000000000000000000000000000000000000000000081526004018080602001828103825260108152602001807f5061757361626c653a207061757365640000000000000000000000000000000081525060200191505060405180910390fd5b8173ffffffffffffffffffffffffffffffffffffffff166323b872dd3330846040518463ffffffff1660e01b8152600401808473ffffffffffffffffffffffffffffffffffffffff1673ffffffffffffffffffffffffffffffffffffffff1681526020018373ffffffffffffffffffffffffffffffffffffffff1673ffffffffffffffffffffffffffffffffffffffff1681526020018281526020019350505050602060405180830381600087803b15801561196a57600080fd5b505af115801561197e573d6000803e3d6000fd5b505050506040513d602081101561199457600080fd5b81019080805190602001909291905050506119ae57600080fd5b6119b9838383613f4f565b505050565b6119ce6119c961465e565b611b2c565b611a23576040517f08c379a0000000000000000000000000000000000000000000000000000000008152600401808060200182810382526030815260200180615e116030913960400191505060405180910390fd5b609960009054906101000a900460ff16611aa5576040517f08c379a00000000000000000000000000000000000000000000000000000000081526004018080602001828103825260148152602001807f5061757361626c653a206e6f742070617573656400000000000000000000000081525060200191505060405180910390fd5b6000609960006101000a81548160ff0219169083151502179055507f5db9ee0a495bf2e6ff9c91a7834c1ba4fdd244a5e8aa4e537bd38aeae4b073aa611ae961465e565b604051808273ffffffffffffffffffffffffffffffffffffffff1673ffffffffffffffffffffffffffffffffffffffff16815260200191505060405180910390a1565b6000611b4282606661466690919063ffffffff16565b9050919050565b60d4602052816000526040600020602052806000526040600020600091509150505481565b6000609960009054906101000a900460ff16905090565b609960009054906101000a900460ff1615611c08576040517f08c379a00000000000000000000000000000000000000000000000000000000081526004018080602001828103825260108152602001807f5061757361626c653a207061757365640000000000000000000000000000000081525060200191505060405180910390fd5b611c1481600034613f4f565b50565b60cd60009054906101000a900473ffffffffffffffffffffffffffffffffffffffff1681565b60da5481565b609960009054906101000a900460ff1615611cc6576040517f08c379a00000000000000000000000000000000000000000000000000000000081526004018080602001828103825260108152602001807f5061757361626c653a207061757365640000000000000000000000000000000081525060200191505060405180910390fd5b600073ffffffffffffffffffffffffffffffffffffffff1660d860003373ffffffffffffffffffffffffffffffffffffffff1673ffffffffffffffffffffffffffffffffffffffff16815260200190815260200160002060010160009054906101000a900473ffffffffffffffffffffffffffffffffffffffff1673ffffffffffffffffffffffffffffffffffffffff1614611d6157600080fd5b600073ffffffffffffffffffffffffffffffffffffffff1660d960003373ffffffffffffffffffffffffffffffffffffffff1673ffffffffffffffffffffffffffffffffffffffff16815260200190815260200160002060010160009054906101000a900473ffffffffffffffffffffffffffffffffffffffff1673ffffffffffffffffffffffffffffffffffffffff1614611dfc57600080fd5b611e12600160db54613e7d90919063ffffffff16565b60db819055503360dd600060db54815260200190815260200160002060006101000a81548173ffffffffffffffffffffffffffffffffffffffff021916908373ffffffffffffffffffffffffffffffffffffffff160217905550604051806060016040528060db5481526020013373ffffffffffffffffffffffffffffffffffffffff168152602001600081525060d960003373ffffffffffffffffffffffffffffffffffffffff1673ffffffffffffffffffffffffffffffffffffffff1681526020019081526020016000206000820151816000015560208201518160010160006101000a81548173ffffffffffffffffffffffffffffffffffffffff021916908373ffffffffffffffffffffffffffffffffffffffff160217905550604082015181600201559050503373ffffffffffffffffffffffffffffffffffffffff167f7eb3885ab39ec25048338624e839a2b90fe3079bb88b9c697f56cfff3147193560db546040518082815260200191505060405180910390a2565b611f9f611f9a61465e565b614744565b565b60d96020528060005260406000206000915090508060000154908060010160009054906101000a900473ffffffffffffffffffffffffffffffffffffffff16908060020154905083565b611ff3613016565b612065576040517f08c379a00000000000000000000000000000000000000000000000000000000081526004018080602001828103825260208152602001807f4f776e61626c653a2063616c6c6572206973206e6f7420746865206f776e657281525060200191505060405180910390fd5b600073ffffffffffffffffffffffffffffffffffffffff16603360009054906101000a900473ffffffffffffffffffffffffffffffffffffffff1673ffffffffffffffffffffffffffffffffffffffff167f8be0079c531659141344cd1fd0a4f28419497f9722a3daafe3b4186f6b6457e060405160405180910390a36000603360006101000a81548173ffffffffffffffffffffffffffffffffffffffff021916908373ffffffffffffffffffffffffffffffffffffffff160217905550565b60d15481565b609960009054906101000a900460ff16156121af576040517f08c379a00000000000000000000000000000000000000000000000000000000081526004018080602001828103825260108152602001807f5061757361626c653a207061757365640000000000000000000000000000000081525060200191505060405180910390fd5b600060d860008573ffffffffffffffffffffffffffffffffffffffff1673ffffffffffffffffffffffffffffffffffffffff16815260200190815260200160002090508373ffffffffffffffffffffffffffffffffffffffff168160010160009054906101000a900473ffffffffffffffffffffffffffffffffffffffff1673ffffffffffffffffffffffffffffffffffffffff161461224e57600080fd5b600060d2600085815260200190815260200160002090508473ffffffffffffffffffffffffffffffffffffffff168160010160009054906101000a900473ffffffffffffffffffffffffffffffffffffffff1673ffffffffffffffffffffffffffffffffffffffff16146122c157600080fd5b3373ffffffffffffffffffffffffffffffffffffffff168160020160009054906101000a900473ffffffffffffffffffffffffffffffffffffffff1673ffffffffffffffffffffffffffffffffffffffff161461231d57600080fd5b600081600601541415612363576000600381111561233757fe5b81600c0160009054906101000a900460ff16600381111561235457fe5b1461235e57600080fd5b6123f6565b6001600381111561237057fe5b81600c0160009054906101000a900460ff16600381111561238d57fe5b1461239757600080fd5b8060020160149054906101000a900460ff16156123b357600080fd5b60d1548160060154420310156123c857600080fd5b828160070154146123d857600080fd5b60018160020160146101000a81548160ff0219169083151502179055505b60008160030160009054906101000a900473ffffffffffffffffffffffffffffffffffffffff16905081600401548411156127e157600061244460cf5460d054613f0590919063ffffffff16565b9050600061247360ce5461246560d054612710613f0590919063ffffffff16565b613f0590919063ffffffff16565b9050600084600401548703905060006124a961271061249b868561479e90919063ffffffff16565b61482490919063ffffffff16565b905060006124d46127106124c6868661479e90919063ffffffff16565b61482490919063ffffffff16565b905060006124fd826124ef8587613f0590919063ffffffff16565b613f0590919063ffffffff16565b9050600061251560028361482490919063ffffffff16565b9050600061252c8284613f0590919063ffffffff16565b9050838a60080181905550848a60090181905550808a600a0181905550818a600b01819055508960020160149054906101000a900460ff16156127d4576125fc8a6004015460d760003373ffffffffffffffffffffffffffffffffffffffff1673ffffffffffffffffffffffffffffffffffffffff16815260200190815260200160002060008c73ffffffffffffffffffffffffffffffffffffffff1673ffffffffffffffffffffffffffffffffffffffff16815260200190815260200160002054613e7d90919063ffffffff16565b60d760003373ffffffffffffffffffffffffffffffffffffffff1673ffffffffffffffffffffffffffffffffffffffff16815260200190815260200160002060008b73ffffffffffffffffffffffffffffffffffffffff1673ffffffffffffffffffffffffffffffffffffffff168152602001908152602001600020819055506127318a600b015460d7600060cd60009054906101000a900473ffffffffffffffffffffffffffffffffffffffff1673ffffffffffffffffffffffffffffffffffffffff1673ffffffffffffffffffffffffffffffffffffffff16815260200190815260200160002060008c73ffffffffffffffffffffffffffffffffffffffff1673ffffffffffffffffffffffffffffffffffffffff16815260200190815260200160002054613e7d90919063ffffffff16565b60d7600060cd60009054906101000a900473ffffffffffffffffffffffffffffffffffffffff1673ffffffffffffffffffffffffffffffffffffffff1673ffffffffffffffffffffffffffffffffffffffff16815260200190815260200160002060008b73ffffffffffffffffffffffffffffffffffffffff1673ffffffffffffffffffffffffffffffffffffffff168152602001908152602001600020819055505b5050505050505050612aa9565b600082600801819055506000826009018190555061283461271061282660ce54612818888760040154613f0590919063ffffffff16565b61479e90919063ffffffff16565b61482490919063ffffffff16565b82600a0181905550600082600b01819055508160020160149054906101000a900460ff1615612aa8576128ec8460d760003373ffffffffffffffffffffffffffffffffffffffff1673ffffffffffffffffffffffffffffffffffffffff16815260200190815260200160002060008473ffffffffffffffffffffffffffffffffffffffff1673ffffffffffffffffffffffffffffffffffffffff16815260200190815260200160002054613e7d90919063ffffffff16565b60d760003373ffffffffffffffffffffffffffffffffffffffff1673ffffffffffffffffffffffffffffffffffffffff16815260200190815260200160002060008373ffffffffffffffffffffffffffffffffffffffff1673ffffffffffffffffffffffffffffffffffffffff16815260200190815260200160002081905550612a2761299c83600a015461298e878660040154613f0590919063ffffffff16565b613f0590919063ffffffff16565b60d760008973ffffffffffffffffffffffffffffffffffffffff1673ffffffffffffffffffffffffffffffffffffffff16815260200190815260200160002060008473ffffffffffffffffffffffffffffffffffffffff1673ffffffffffffffffffffffffffffffffffffffff16815260200190815260200160002054613e7d90919063ffffffff16565b60d760008873ffffffffffffffffffffffffffffffffffffffff1673ffffffffffffffffffffffffffffffffffffffff16815260200190815260200160002060008373ffffffffffffffffffffffffffffffffffffffff1673ffffffffffffffffffffffffffffffffffffffff168152602001908152602001600020819055505b5b428260060181905550838260070181905550600182600c0160006101000a81548160ff02191690836003811115612adc57fe5b02179055508573ffffffffffffffffffffffffffffffffffffffff167fe93d5cdcdc6e5b7ce9050f626fbe0ff4b4ec5c7675cdee914b14cd959e7a23ff868460060154878660080154876009015488600a015489600b01546040518088815260200187815260200186815260200185815260200184815260200183815260200182815260200197505050505050505060405180910390a2505050505050565b609960009054906101000a900460ff1615612bfe576040517f08c379a00000000000000000000000000000000000000000000000000000000081526004018080602001828103825260108152602001807f5061757361626c653a207061757365640000000000000000000000000000000081525060200191505060405180910390fd5b612c0982823461486e565b5050565b612c1d612c1861465e565b611b2c565b612c72576040517f08c379a0000000000000000000000000000000000000000000000000000000008152600401808060200182810382526030815260200180615e116030913960400191505060405180910390fd5b612c7b8161562f565b50565b609960009054906101000a900460ff1615612d01576040517f08c379a00000000000000000000000000000000000000000000000000000000081526004018080602001828103825260108152602001807f5061757361626c653a207061757365640000000000000000000000000000000081525060200191505060405180910390fd5b60d2600083815260200190815260200160002060030160009054906101000a900473ffffffffffffffffffffffffffffffffffffffff1673ffffffffffffffffffffffffffffffffffffffff166323b872dd3330846040518463ffffffff1660e01b8152600401808473ffffffffffffffffffffffffffffffffffffffff1673ffffffffffffffffffffffffffffffffffffffff1681526020018373ffffffffffffffffffffffffffffffffffffffff1673ffffffffffffffffffffffffffffffffffffffff1681526020018281526020019350505050602060405180830381600087803b158015612df257600080fd5b505af1158015612e06573d6000803e3d6000fd5b505050506040513d6020811015612e1c57600080fd5b8101908080519060200190929190505050612e3657600080fd5b612e4183838361486e565b505050565b612e56612e5161465e565b611b2c565b612eab576040517f08c379a0000000000000000000000000000000000000000000000000000000008152600401808060200182810382526030815260200180615e116030913960400191505060405180910390fd5b609960009054906101000a900460ff1615612f2e576040517f08c379a00000000000000000000000000000000000000000000000000000000081526004018080602001828103825260108152602001807f5061757361626c653a207061757365640000000000000000000000000000000081525060200191505060405180910390fd5b6001609960006101000a81548160ff0219169083151502179055507f62e78cea01bee320cd4e420270b5ea74000d11b0c9f74754ebdbfc544b05a258612f7261465e565b604051808273ffffffffffffffffffffffffffffffffffffffff1673ffffffffffffffffffffffffffffffffffffffff16815260200191505060405180910390a1565b60d6602052816000526040600020602052806000526040600020600091509150508060000154908060010154905082565b60cf5481565b6000603360009054906101000a900473ffffffffffffffffffffffffffffffffffffffff16905090565b6000603360009054906101000a900473ffffffffffffffffffffffffffffffffffffffff1673ffffffffffffffffffffffffffffffffffffffff1661305961465e565b73ffffffffffffffffffffffffffffffffffffffff1614905090565b60ce5481565b60d86020528060005260406000206000915090508060000154908060010160009054906101000a900473ffffffffffffffffffffffffffffffffffffffff16908060020154905083565b60d05481565b609960009054906101000a900460ff161561314e576040517f08c379a00000000000000000000000000000000000000000000000000000000081526004018080602001828103825260108152602001807f5061757361626c653a207061757365640000000000000000000000000000000081525060200191505060405180910390fd5b600073ffffffffffffffffffffffffffffffffffffffff168273ffffffffffffffffffffffffffffffffffffffff16141561318857600080fd5b8060d760003373ffffffffffffffffffffffffffffffffffffffff1673ffffffffffffffffffffffffffffffffffffffff16815260200190815260200160002060008473ffffffffffffffffffffffffffffffffffffffff1673ffffffffffffffffffffffffffffffffffffffff16815260200190815260200160002054101561321157600080fd5b8173ffffffffffffffffffffffffffffffffffffffff1663a9059cbb33836040518363ffffffff1660e01b8152600401808373ffffffffffffffffffffffffffffffffffffffff1673ffffffffffffffffffffffffffffffffffffffff16815260200182815260200192505050602060405180830381600087803b15801561329857600080fd5b505af11580156132ac573d6000803e3d6000fd5b505050506040513d60208110156132c257600080fd5b81019080805190602001909291905050506132dc57600080fd5b61336b8160d760003373ffffffffffffffffffffffffffffffffffffffff1673ffffffffffffffffffffffffffffffffffffffff16815260200190815260200160002060008573ffffffffffffffffffffffffffffffffffffffff1673ffffffffffffffffffffffffffffffffffffffff16815260200190815260200160002054613f0590919063ffffffff16565b60d760003373ffffffffffffffffffffffffffffffffffffffff1673ffffffffffffffffffffffffffffffffffffffff16815260200190815260200160002060008473ffffffffffffffffffffffffffffffffffffffff1673ffffffffffffffffffffffffffffffffffffffff168152602001908152602001600020819055503373ffffffffffffffffffffffffffffffffffffffff168273ffffffffffffffffffffffffffffffffffffffff167ff341246adaac6f497bc2a656f546ab9e182111d630394f0c57c710a59a2cb5678360d760003373ffffffffffffffffffffffffffffffffffffffff1673ffffffffffffffffffffffffffffffffffffffff16815260200190815260200160002060008773ffffffffffffffffffffffffffffffffffffffff1673ffffffffffffffffffffffffffffffffffffffff16815260200190815260200160002054604051808381526020018281526020019250505060405180910390a35050565b609960009054906101000a900460ff161561355b576040517f08c379a00000000000000000000000000000000000000000000000000000000081526004018080602001828103825260108152602001807f5061757361626c653a207061757365640000000000000000000000000000000081525060200191505060405180910390fd5b3373ffffffffffffffffffffffffffffffffffffffff1660d2600084815260200190815260200160002060010160009054906101000a900473ffffffffffffffffffffffffffffffffffffffff1673ffffffffffffffffffffffffffffffffffffffff16146135c957600080fd5b600160038111156135d657fe5b60d26000848152602001908152602001600020600c0160009054906101000a900460ff16600381111561360557fe5b1461360f57600080fd5b600260d26000848152602001908152602001600020600c0160006101000a81548160ff0219169083600381111561364257fe5b02179055503373ffffffffffffffffffffffffffffffffffffffff167f7362b21edcb1222c67817188f739016839d9fa8a6c274893dc7cd9fe6451c7978383604051808381526020018281526020019250505060405180910390a25050565b609960009054906101000a900460ff1615613724576040517f08c379a00000000000000000000000000000000000000000000000000000000081526004018080602001828103825260108152602001807f5061757361626c653a207061757365640000000000000000000000000000000081525060200191505060405180910390fd5b60cc60008373ffffffffffffffffffffffffffffffffffffffff1673ffffffffffffffffffffffffffffffffffffffff16815260200190815260200160002060009054906101000a900460ff1661377a57600080fd5b613782615dd9565b60d860003373ffffffffffffffffffffffffffffffffffffffff1673ffffffffffffffffffffffffffffffffffffffff168152602001908152602001600020604051806060016040529081600082015481526020016001820160009054906101000a900473ffffffffffffffffffffffffffffffffffffffff1673ffffffffffffffffffffffffffffffffffffffff1673ffffffffffffffffffffffffffffffffffffffff16815260200160028201548152505090503373ffffffffffffffffffffffffffffffffffffffff16816020015173ffffffffffffffffffffffffffffffffffffffff161461387457600080fd5b8160d660003373ffffffffffffffffffffffffffffffffffffffff1673ffffffffffffffffffffffffffffffffffffffff16815260200190815260200160002060008573ffffffffffffffffffffffffffffffffffffffff1673ffffffffffffffffffffffffffffffffffffffff168152602001908152602001600020600001819055503373ffffffffffffffffffffffffffffffffffffffff167f5168bfb88d6125d4580e2b91ecb103a730312c3e8b0be9c4031a0fc794e2cd5f8484604051808373ffffffffffffffffffffffffffffffffffffffff1673ffffffffffffffffffffffffffffffffffffffff1681526020018281526020019250505060405180910390a2505050565b60d7602052816000526040600020602052806000526040600020600091509150505481565b600060019054906101000a900460ff16806139c357506139c2615689565b5b806139da57506000809054906101000a900460ff16155b613a2f576040517f08c379a000000000000000000000000000000000000000000000000000000000815260040180806020018281038252602e815260200180615ecb602e913960400191505060405180910390fd5b60008060019054906101000a900460ff161590508015613a7f576001600060016101000a81548160ff02191690831515021790555060016000806101000a81548160ff0219169083151502179055505b613a88826156a0565b6000609960006101000a81548160ff0219169083151502179055508015613ac45760008060016101000a81548160ff0219169083151502179055505b5050565b60dc6020528060005260406000206000915054906101000a900473ffffffffffffffffffffffffffffffffffffffff1681565b60db5481565b60cc6020528060005260406000206000915054906101000a900460ff1681565b60d5602052816000526040600020602052806000526040600020600091509150505481565b613b4e613016565b613bc0576040517f08c379a00000000000000000000000000000000000000000000000000000000081526004018080602001828103825260208152602001807f4f776e61626c653a2063616c6c6572206973206e6f7420746865206f776e657281525060200191505060405180910390fd5b613bc9816157b7565b50565b600060019054906101000a900460ff1680613beb5750613bea615689565b5b80613c0257506000809054906101000a900460ff16155b613c57576040517f08c379a000000000000000000000000000000000000000000000000000000000815260040180806020018281038252602e815260200180615ecb602e913960400191505060405180910390fd5b60008060019054906101000a900460ff161590508015613ca7576001600060016101000a81548160ff02191690831515021790555060016000806101000a81548160ff0219169083151502179055505b613cb0336158fd565b613cb9336139a4565b600160cc60008073ffffffffffffffffffffffffffffffffffffffff1673ffffffffffffffffffffffffffffffffffffffff16815260200190815260200160002060006101000a81548160ff0219169083151502179055508560cd60006101000a81548173ffffffffffffffffffffffffffffffffffffffff021916908373ffffffffffffffffffffffffffffffffffffffff1602179055508460ce819055508360cf819055508260d0819055508160d1819055508015613d8f5760008060016101000a81548160ff0219169083151502179055505b505050505050565b60d26020528060005260406000206000915090508060000154908060010160009054906101000a900473ffffffffffffffffffffffffffffffffffffffff16908060020160009054906101000a900473ffffffffffffffffffffffffffffffffffffffff16908060020160149054906101000a900460ff16908060030160009054906101000a900473ffffffffffffffffffffffffffffffffffffffff169080600401549080600501549080600601549080600701549080600801549080600901549080600a01549080600b01549080600c0160009054906101000a900460ff1690508e565b600080828401905083811015613efb576040517f08c379a000000000000000000000000000000000000000000000000000000000815260040180806020018281038252601b8152602001807f536166654d6174683a206164646974696f6e206f766572666c6f77000000000081525060200191505060405180910390fd5b8091505092915050565b6000613f4783836040518060400160405280601e81526020017f536166654d6174683a207375627472616374696f6e206f766572666c6f770000815250615abb565b905092915050565b60cc60008373ffffffffffffffffffffffffffffffffffffffff1673ffffffffffffffffffffffffffffffffffffffff16815260200190815260200160002060009054906101000a900460ff16613fa557600080fd5b600060d960003373ffffffffffffffffffffffffffffffffffffffff1673ffffffffffffffffffffffffffffffffffffffff16815260200190815260200160002090503373ffffffffffffffffffffffffffffffffffffffff168160010160009054906101000a900473ffffffffffffffffffffffffffffffffffffffff1673ffffffffffffffffffffffffffffffffffffffff161461404457600080fd5b600060d860008673ffffffffffffffffffffffffffffffffffffffff1673ffffffffffffffffffffffffffffffffffffffff16815260200190815260200160002090508473ffffffffffffffffffffffffffffffffffffffff168160010160009054906101000a900473ffffffffffffffffffffffffffffffffffffffff1673ffffffffffffffffffffffffffffffffffffffff16146140e357600080fd5b600060d660008360010160009054906101000a900473ffffffffffffffffffffffffffffffffffffffff1673ffffffffffffffffffffffffffffffffffffffff1673ffffffffffffffffffffffffffffffffffffffff16815260200190815260200160002060008673ffffffffffffffffffffffffffffffffffffffff1673ffffffffffffffffffffffffffffffffffffffff1681526020019081526020016000209050838160010154826000015403101561419e57600080fd5b6141b5848260010154613e7d90919063ffffffff16565b81600101819055506141d3600160d354613e7d90919063ffffffff16565b60d381905550604051806101c0016040528060d35481526020018360010160009054906101000a900473ffffffffffffffffffffffffffffffffffffffff1673ffffffffffffffffffffffffffffffffffffffff1681526020018460010160009054906101000a900473ffffffffffffffffffffffffffffffffffffffff1673ffffffffffffffffffffffffffffffffffffffff1681526020016000151581526020018673ffffffffffffffffffffffffffffffffffffffff168152602001858152602001428152602001600081526020016000815260200160008152602001600081526020016000815260200160008152602001600060038111156142d557fe5b81525060d2600060d35481526020019081526020016000206000820151816000015560208201518160010160006101000a81548173ffffffffffffffffffffffffffffffffffffffff021916908373ffffffffffffffffffffffffffffffffffffffff16021790555060408201518160020160006101000a81548173ffffffffffffffffffffffffffffffffffffffff021916908373ffffffffffffffffffffffffffffffffffffffff16021790555060608201518160020160146101000a81548160ff02191690831515021790555060808201518160030160006101000a81548173ffffffffffffffffffffffffffffffffffffffff021916908373ffffffffffffffffffffffffffffffffffffffff16021790555060a0820151816004015560c0820151816005015560e0820151816006015561010082015181600701556101208201518160080155610140820151816009015561016082015181600a015561018082015181600b01556101a082015181600c0160006101000a81548160ff0219169083600381111561446657fe5b021790555090505061448660018360020154613e7d90919063ffffffff16565b826002018190555060d35460d460008460010160009054906101000a900473ffffffffffffffffffffffffffffffffffffffff1673ffffffffffffffffffffffffffffffffffffffff1673ffffffffffffffffffffffffffffffffffffffff1681526020019081526020016000206000846002015481526020019081526020016000208190555061452560018460020154613e7d90919063ffffffff16565b836002018190555060d35460d560008560010160009054906101000a900473ffffffffffffffffffffffffffffffffffffffff1673ffffffffffffffffffffffffffffffffffffffff1673ffffffffffffffffffffffffffffffffffffffff168152602001908152602001600020600085600201548152602001908152602001600020819055508473ffffffffffffffffffffffffffffffffffffffff168260010160009054906101000a900473ffffffffffffffffffffffffffffffffffffffff1673ffffffffffffffffffffffffffffffffffffffff163373ffffffffffffffffffffffffffffffffffffffff167f74ab455bf1fbf7a48394cdd46b35b3bb6b086b10d5c21b4f4ea561cdc2c8493b60d35488604051808381526020018281526020019250505060405180910390a4505050505050565b600033905090565b60008073ffffffffffffffffffffffffffffffffffffffff168273ffffffffffffffffffffffffffffffffffffffff1614156146ed576040517f08c379a0000000000000000000000000000000000000000000000000000000008152600401808060200182810382526022815260200180615ea96022913960400191505060405180910390fd5b8260000160008373ffffffffffffffffffffffffffffffffffffffff1673ffffffffffffffffffffffffffffffffffffffff16815260200190815260200160002060009054906101000a900460ff16905092915050565b614758816066615b7b90919063ffffffff16565b8073ffffffffffffffffffffffffffffffffffffffff167fcd265ebaf09df2871cc7bd4133404a235ba12eff2041bb89d9c714a2621c7c7e60405160405180910390a250565b6000808314156147b1576000905061481e565b60008284029050828482816147c257fe5b0414614819576040517f08c379a0000000000000000000000000000000000000000000000000000000008152600401808060200182810382526021815260200180615e886021913960400191505060405180910390fd5b809150505b92915050565b600061486683836040518060400160405280601a81526020017f536166654d6174683a206469766973696f6e206279207a65726f000000000000815250615c38565b905092915050565b600060d860003373ffffffffffffffffffffffffffffffffffffffff1673ffffffffffffffffffffffffffffffffffffffff16815260200190815260200160002090503373ffffffffffffffffffffffffffffffffffffffff168160010160009054906101000a900473ffffffffffffffffffffffffffffffffffffffff1673ffffffffffffffffffffffffffffffffffffffff161461490d57600080fd5b600060d960008673ffffffffffffffffffffffffffffffffffffffff1673ffffffffffffffffffffffffffffffffffffffff1681526020019081526020016000209050600060d2600086815260200190815260200160002090508573ffffffffffffffffffffffffffffffffffffffff168260010160009054906101000a900473ffffffffffffffffffffffffffffffffffffffff1673ffffffffffffffffffffffffffffffffffffffff16146149c357600080fd5b3373ffffffffffffffffffffffffffffffffffffffff168160010160009054906101000a900473ffffffffffffffffffffffffffffffffffffffff1673ffffffffffffffffffffffffffffffffffffffff1614614a1f57600080fd5b8573ffffffffffffffffffffffffffffffffffffffff168160020160009054906101000a900473ffffffffffffffffffffffffffffffffffffffff1673ffffffffffffffffffffffffffffffffffffffff1614614a7b57600080fd5b60016003811115614a8857fe5b81600c0160009054906101000a900460ff166003811115614aa557fe5b14614aaf57600080fd5b60008160030160009054906101000a900473ffffffffffffffffffffffffffffffffffffffff16905084614af483600a01548460090154613e7d90919063ffffffff16565b14614afe57600080fd5b816004015482600701541115615030578160020160149054906101000a900460ff1615614d9457614bb8826009015460d760008a73ffffffffffffffffffffffffffffffffffffffff1673ffffffffffffffffffffffffffffffffffffffff16815260200190815260200160002060008473ffffffffffffffffffffffffffffffffffffffff1673ffffffffffffffffffffffffffffffffffffffff16815260200190815260200160002054613e7d90919063ffffffff16565b60d760008973ffffffffffffffffffffffffffffffffffffffff1673ffffffffffffffffffffffffffffffffffffffff16815260200190815260200160002060008373ffffffffffffffffffffffffffffffffffffffff1673ffffffffffffffffffffffffffffffffffffffff16815260200190815260200160002081905550614ced82600a015460d7600060cd60009054906101000a900473ffffffffffffffffffffffffffffffffffffffff1673ffffffffffffffffffffffffffffffffffffffff1673ffffffffffffffffffffffffffffffffffffffff16815260200190815260200160002060008473ffffffffffffffffffffffffffffffffffffffff1673ffffffffffffffffffffffffffffffffffffffff16815260200190815260200160002054613e7d90919063ffffffff16565b60d7600060cd60009054906101000a900473ffffffffffffffffffffffffffffffffffffffff1673ffffffffffffffffffffffffffffffffffffffff1673ffffffffffffffffffffffffffffffffffffffff16815260200190815260200160002060008373ffffffffffffffffffffffffffffffffffffffff1673ffffffffffffffffffffffffffffffffffffffff1681526020019081526020016000208190555061502b565b614e3d614db283600901548460040154613e7d90919063ffffffff16565b60d760008a73ffffffffffffffffffffffffffffffffffffffff1673ffffffffffffffffffffffffffffffffffffffff16815260200190815260200160002060008473ffffffffffffffffffffffffffffffffffffffff1673ffffffffffffffffffffffffffffffffffffffff16815260200190815260200160002054613e7d90919063ffffffff16565b60d760008973ffffffffffffffffffffffffffffffffffffffff1673ffffffffffffffffffffffffffffffffffffffff16815260200190815260200160002060008373ffffffffffffffffffffffffffffffffffffffff1673ffffffffffffffffffffffffffffffffffffffff16815260200190815260200160002081905550614f8882600b0154614f7a84600a015460d7600060cd60009054906101000a900473ffffffffffffffffffffffffffffffffffffffff1673ffffffffffffffffffffffffffffffffffffffff1673ffffffffffffffffffffffffffffffffffffffff16815260200190815260200160002060008673ffffffffffffffffffffffffffffffffffffffff1673ffffffffffffffffffffffffffffffffffffffff16815260200190815260200160002054613e7d90919063ffffffff16565b613e7d90919063ffffffff16565b60d7600060cd60009054906101000a900473ffffffffffffffffffffffffffffffffffffffff1673ffffffffffffffffffffffffffffffffffffffff1673ffffffffffffffffffffffffffffffffffffffff16815260200190815260200160002060008373ffffffffffffffffffffffffffffffffffffffff1673ffffffffffffffffffffffffffffffffffffffff168152602001908152602001600020819055505b6153f1565b8160020160149054906101000a900460ff16615299576150d9826007015460d760008a73ffffffffffffffffffffffffffffffffffffffff1673ffffffffffffffffffffffffffffffffffffffff16815260200190815260200160002060008473ffffffffffffffffffffffffffffffffffffffff1673ffffffffffffffffffffffffffffffffffffffff16815260200190815260200160002054613e7d90919063ffffffff16565b60d760008973ffffffffffffffffffffffffffffffffffffffff1673ffffffffffffffffffffffffffffffffffffffff16815260200190815260200160002060008373ffffffffffffffffffffffffffffffffffffffff1673ffffffffffffffffffffffffffffffffffffffff1681526020019081526020016000208190555061521861518d83600a015461517f85600701548660040154613f0590919063ffffffff16565b613f0590919063ffffffff16565b60d760003373ffffffffffffffffffffffffffffffffffffffff1673ffffffffffffffffffffffffffffffffffffffff16815260200190815260200160002060008473ffffffffffffffffffffffffffffffffffffffff1673ffffffffffffffffffffffffffffffffffffffff16815260200190815260200160002054613e7d90919063ffffffff16565b60d760003373ffffffffffffffffffffffffffffffffffffffff1673ffffffffffffffffffffffffffffffffffffffff16815260200190815260200160002060008373ffffffffffffffffffffffffffffffffffffffff1673ffffffffffffffffffffffffffffffffffffffff168152602001908152602001600020819055505b61534e82600a015460d7600060cd60009054906101000a900473ffffffffffffffffffffffffffffffffffffffff1673ffffffffffffffffffffffffffffffffffffffff1673ffffffffffffffffffffffffffffffffffffffff16815260200190815260200160002060008473ffffffffffffffffffffffffffffffffffffffff1673ffffffffffffffffffffffffffffffffffffffff16815260200190815260200160002054613e7d90919063ffffffff16565b60d7600060cd60009054906101000a900473ffffffffffffffffffffffffffffffffffffffff1673ffffffffffffffffffffffffffffffffffffffff1673ffffffffffffffffffffffffffffffffffffffff16815260200190815260200160002060008373ffffffffffffffffffffffffffffffffffffffff1673ffffffffffffffffffffffffffffffffffffffff168152602001908152602001600020819055505b6154cf826004015460d660008760010160009054906101000a900473ffffffffffffffffffffffffffffffffffffffff1673ffffffffffffffffffffffffffffffffffffffff1673ffffffffffffffffffffffffffffffffffffffff16815260200190815260200160002060008560030160009054906101000a900473ffffffffffffffffffffffffffffffffffffffff1673ffffffffffffffffffffffffffffffffffffffff1673ffffffffffffffffffffffffffffffffffffffff16815260200190815260200160002060010154613f0590919063ffffffff16565b60d660008660010160009054906101000a900473ffffffffffffffffffffffffffffffffffffffff1673ffffffffffffffffffffffffffffffffffffffff1673ffffffffffffffffffffffffffffffffffffffff16815260200190815260200160002060008460030160009054906101000a900473ffffffffffffffffffffffffffffffffffffffff1673ffffffffffffffffffffffffffffffffffffffff1673ffffffffffffffffffffffffffffffffffffffff16815260200190815260200160002060010181905550600382600c0160006101000a81548160ff021916908360038111156155bb57fe5b02179055503373ffffffffffffffffffffffffffffffffffffffff167ff1742434e1b80bd4f9edb22a1663806afc3d7b52840f28ff20056578a2e8a78f878460080154856009015460405180848152602001838152602001828152602001935050505060405180910390a250505050505050565b615643816066615cfe90919063ffffffff16565b8073ffffffffffffffffffffffffffffffffffffffff167f6719d08c1888103bea251a4ed56406bd0c3e69723c8a1686e017e7bbe159b6f860405160405180910390a250565b6000803090506000813b9050600081149250505090565b600060019054906101000a900460ff16806156bf57506156be615689565b5b806156d657506000809054906101000a900460ff16155b61572b576040517f08c379a000000000000000000000000000000000000000000000000000000000815260040180806020018281038252602e815260200180615ecb602e913960400191505060405180910390fd5b60008060019054906101000a900460ff16159050801561577b576001600060016101000a81548160ff02191690831515021790555060016000806101000a81548160ff0219169083151502179055505b61578482611b2c565b615792576157918261562f565b5b80156157b35760008060016101000a81548160ff0219169083151502179055505b5050565b600073ffffffffffffffffffffffffffffffffffffffff168173ffffffffffffffffffffffffffffffffffffffff16141561583d576040517f08c379a0000000000000000000000000000000000000000000000000000000008152600401808060200182810382526026815260200180615e416026913960400191505060405180910390fd5b8073ffffffffffffffffffffffffffffffffffffffff16603360009054906101000a900473ffffffffffffffffffffffffffffffffffffffff1673ffffffffffffffffffffffffffffffffffffffff167f8be0079c531659141344cd1fd0a4f28419497f9722a3daafe3b4186f6b6457e060405160405180910390a380603360006101000a81548173ffffffffffffffffffffffffffffffffffffffff021916908373ffffffffffffffffffffffffffffffffffffffff16021790555050565b600060019054906101000a900460ff168061591c575061591b615689565b5b8061593357506000809054906101000a900460ff16155b615988576040517f08c379a000000000000000000000000000000000000000000000000000000000815260040180806020018281038252602e815260200180615ecb602e913960400191505060405180910390fd5b60008060019054906101000a900460ff1615905080156159d8576001600060016101000a81548160ff02191690831515021790555060016000806101000a81548160ff0219169083151502179055505b81603360006101000a81548173ffffffffffffffffffffffffffffffffffffffff021916908373ffffffffffffffffffffffffffffffffffffffff160217905550603360009054906101000a900473ffffffffffffffffffffffffffffffffffffffff1673ffffffffffffffffffffffffffffffffffffffff16600073ffffffffffffffffffffffffffffffffffffffff167f8be0079c531659141344cd1fd0a4f28419497f9722a3daafe3b4186f6b6457e060405160405180910390a38015615ab75760008060016101000a81548160ff0219169083151502179055505b5050565b6000838311158290615b68576040517f08c379a00000000000000000000000000000000000000000000000000000000081526004018080602001828103825283818151815260200191508051906020019080838360005b83811015615b2d578082015181840152602081019050615b12565b50505050905090810190601f168015615b5a5780820380516001836020036101000a031916815260200191505b509250505060405180910390fd5b5060008385039050809150509392505050565b615b858282614666565b615bda576040517f08c379a0000000000000000000000000000000000000000000000000000000008152600401808060200182810382526021815260200180615e676021913960400191505060405180910390fd5b60008260000160008373ffffffffffffffffffffffffffffffffffffffff1673ffffffffffffffffffffffffffffffffffffffff16815260200190815260200160002060006101000a81548160ff0219169083151502179055505050565b60008083118290615ce4576040517f08c379a00000000000000000000000000000000000000000000000000000000081526004018080602001828103825283818151815260200191508051906020019080838360005b83811015615ca9578082015181840152602081019050615c8e565b50505050905090810190601f168015615cd65780820380516001836020036101000a031916815260200191505b509250505060405180910390fd5b506000838581615cf057fe5b049050809150509392505050565b615d088282614666565b15615d7b576040517f08c379a000000000000000000000000000000000000000000000000000000000815260040180806020018281038252601f8152602001807f526f6c65733a206163636f756e7420616c72656164792068617320726f6c650081525060200191505060405180910390fd5b60018260000160008373ffffffffffffffffffffffffffffffffffffffff1673ffffffffffffffffffffffffffffffffffffffff16815260200190815260200160002060006101000a81548160ff0219169083151502179055505050565b604051806060016040528060008152602001600073ffffffffffffffffffffffffffffffffffffffff16815260200160008152509056fe506175736572526f6c653a2063616c6c657220646f6573206e6f742068617665207468652050617573657220726f6c654f776e61626c653a206e6577206f776e657220697320746865207a65726f2061646472657373526f6c65733a206163636f756e7420646f6573206e6f74206861766520726f6c65536166654d6174683a206d756c7469706c69636174696f6e206f766572666c6f77526f6c65733a206163636f756e7420697320746865207a65726f2061646472657373436f6e747261637420696e7374616e63652068617320616c7265616479206265656e20696e697469616c697a6564a265627a7a72315820c6833446cdd2925e433804f79ba6eb129433c7508dc8f4f9a565fb5bcd6e6b0864736f6c63430005110032",
  "compiler": {
    "name": "solc",
    "version": "0.5.17+commit.d19bba13.Emscripten.clang",
    "optimizer": {
      "enabled": false,
      "runs": 200
    },
    "evmVersion": "petersburg"
  }
}