{
  "fileName": "TraderPaired.sol",
  "contractName": "TraderPaired",
  "source": "// \"SPDX-License-Identifier: UNLICENSED\"\npragma solidity >=0.4.21 <0.7.0;\n\nimport \"@openzeppelin/contracts-ethereum-package/contracts/math/SafeMath.sol\";\nimport \"@openzeppelin/upgrades/contracts/Initializable.sol\";\nimport \"@openzeppelin/contracts-ethereum-package/contracts/ownership/Ownable.sol\";\nimport \"@openzeppelin/contracts-ethereum-package/contracts/lifecycle/Pausable.sol\";\nimport \"@openzeppelin/contracts-ethereum-package/contracts/token/ERC20/IERC20.sol\";\n\nimport \"./PairedInvestments.sol\";\nimport \"./MultiSigFundWalletFactory.sol\";\nimport \"./MultiSigFundWallet.sol\";\n\ncontract TraderPaired is Initializable, Ownable, Pausable {\n\tusing SafeMath for uint256;\n\n    address constant ETHER = address(0); // allows storage of ether in blank address in token mapping\n    address public feeAccount; // account that will receive fees\n\n    mapping(address => _Trader) public traders;\n    mapping(address => _Investor) public investors;\n\n    address public multiSigFundWalletFactory;\n\n    address public pairedInvestments;\n\n    mapping(address => bool) public tokens;\n\n    mapping(address => mapping(uint256 => uint256)) public traderInvestments;\n    mapping(address => mapping(uint256 => uint256)) public investorInvestments;\n    mapping(address => mapping(address => _Allocation)) public allocations;\n\n    mapping(address => mapping(address => uint256)) public balances; // mapping of token balances to addresses\n\n    event Trader(address indexed trader, uint256 date);\n    event Investor(address indexed investor, uint256 date);\n    event Investment(address indexed wallet, address indexed trader, address indexed investor, uint256 date);\n    event Allocate(address indexed trader, address token, uint256 amount, uint256 date);\n    event Withdraw(address indexed token, address indexed user, uint256 amount, uint256 balance, uint256 date);\n    event Invest(uint256 id, address indexed investor, address indexed trader, address indexed token, uint256 amount, uint256 date);\n    event RequestExit(address indexed trader, uint256 investmentId, uint256 value, uint256 date);\n    event RejectExit(address indexed trader, uint256 investmentId, uint256 value, uint256 date);\n    event ApproveExit(address indexed trader, uint256 investmentId, uint256 date);\n\n    struct _Trader {\n        address user;\n        uint256 investmentCount;\n    }\n\n    struct _Allocation {\n        uint256 total;\n        uint256 invested;\n    }\n\n    struct _Investor {\n        address user;\n        uint256 investmentCount;\n    }\n\n    modifier isTrader(address trader) {\n        require(trader != address(0) && traders[trader].user == trader);\n        _;\n    }\n\n    modifier isInvestor(address investor) {\n        require(investor != address(0) && investors[investor].user == investor);\n        _;\n    }\n\n    modifier notInvested(address trader, address investor) {\n        require(!isInvested(trader, investor));\n        _;\n    }\n\n    modifier onlyWallet {\n        require(MultiSigFundWalletFactory(multiSigFundWalletFactory).isInstantiation(msg.sender));\n        _;\n    }\n\n    function initialize(\n            address _feeAccount\n            ) public initializer {\n        Ownable.initialize(msg.sender);\n        Pausable.initialize(msg.sender);\n        feeAccount = _feeAccount;\n    }\n\n    function setMultiSigFundWalletFactory(\n            address _factory\n            ) public onlyOwner {\n        multiSigFundWalletFactory = _factory;\n    }\n\n    function setPairedInvestments(\n            address _pairedInvestments\n            ) public onlyOwner {\n        pairedInvestments = _pairedInvestments;\n    }\n\n    // reverts if ether is sent directly\n    function () external {\n        revert();\n    }\n\n    function setToken(address _token, bool _valid) external onlyOwner {\n        tokens[_token] = _valid;\n    }\n\n    function joinAsTrader() external whenNotPaused {\n        require(traders[msg.sender].user == address(0));\n        require(investors[msg.sender].user == address(0));\n\n        traders[msg.sender] = _Trader({\n            user: msg.sender, \n            investmentCount: 0\n        });\n\n        emit Trader(msg.sender, now);\n    }\n\n    function joinAsInvestor() external whenNotPaused {\n        require(traders[msg.sender].user == address(0));\n        require(investors[msg.sender].user == address(0));\n\n        investors[msg.sender] = _Investor({\n                user: msg.sender,\n                investmentCount: 0\n            });\n\n        emit Investor(msg.sender, now);\n    }\n\n    function allocate(address _token, uint256 _amount) external whenNotPaused {\n        require(tokens[_token]);\n        _Trader memory _trader = traders[msg.sender];\n        require(_trader.user == msg.sender);\n\n        allocations[msg.sender][_token].total = _amount;\n\n        emit Allocate(msg.sender, _token, _amount, now);\n    }\n\n    function isInvested(address _traderAddress, address _investorAddress) \n        internal\n        returns (bool) \n    {\n        address[] memory wallets = MultiSigFundWalletFactory(multiSigFundWalletFactory).getInstantiations(_investorAddress);\n        \n        for(uint256 i = 0; i < wallets.length; i++) {\n            address _trader = MultiSigFundWallet(wallets[i]).trader();\n            if (_trader == _traderAddress) {\n                return true;\n            }\n        }\n\n        return false;\n    }\n\n    function createInvestment(address _traderAddress) \n        external\n        whenNotPaused\n        isInvestor(msg.sender)\n        isTrader(_traderAddress)\n        notInvested(_traderAddress, msg.sender)\n    {\n        address wallet = MultiSigFundWalletFactory(multiSigFundWalletFactory).create(address(this), _traderAddress, msg.sender, feeAccount);\n        emit Investment(wallet, _traderAddress, msg.sender, now);\n    }\n\n    function invest(address _traderAddress, address _investorAddress, address _token, uint256 _amount) \n        public \n        whenNotPaused \n        onlyWallet \n        returns (uint256 investmentCount)\n    {\n        require(tokens[_token]);\n        _Investor storage _investor = investors[_investorAddress];\n        require(_investor.user == _investorAddress);\n\n        _Trader storage _trader = traders[_traderAddress];\n        require(_trader.user == _traderAddress);\n\n        _Allocation storage allocation = allocations[_trader.user][_token];\n\n        // falls within trader allocations\n        require(allocation.total - allocation.invested >= _amount);\n        allocation.invested = allocation.invested.add(_amount);\n\n        investmentCount = PairedInvestments(pairedInvestments).invest(\n            _traderAddress, \n            _investorAddress, \n            _token, \n            _amount\n        );\n\n        _trader.investmentCount = _trader.investmentCount.add(1);\n        traderInvestments[_trader.user][_trader.investmentCount] = investmentCount;\n\n        _investor.investmentCount = _investor.investmentCount.add(1);\n        investorInvestments[_investor.user][_investor.investmentCount] = investmentCount;\n\n        emit Invest(\n            investmentCount,\n            _investorAddress,\n            _trader.user,\n            _token,\n            _amount,\n            now\n        );\n    }\n\n    //\n    //    Investor exits an investment\n    //\n    function requestExit(address _traderAddress, address _investorAddress, uint256 _investmentId, uint256 _value) \n        public \n        whenNotPaused \n        onlyWallet \n    {\n        _Trader memory _trader = traders[_traderAddress];\n        require(_trader.user == _traderAddress);\n \n        address[2] memory _addressArgs = [\n            _traderAddress, \n            _investorAddress];\n\n        uint256[2] memory _uint256Args = [\n            _investmentId, \n            _value];\n\n        PairedInvestments(pairedInvestments).requestExit(_addressArgs, _uint256Args);\n\n        emit RequestExit(\n            _traderAddress,\n            _investmentId, \n            _value,\n            now\n        );\n    }\n\n    function approveExit(address _traderAddress, address _investorAddress, uint256 _investmentId, address _token, uint256 _amount) \n        public \n        whenNotPaused\n        onlyWallet\n        returns (uint256[3] memory payouts)\n    {\n        _Trader memory _trader = traders[_traderAddress];\n        _Investor memory _investor = investors[_investorAddress];\n        require(_trader.user == _traderAddress);\n        require(_investor.user == _investorAddress);\n\n        address[2] memory _addressArgs = [\n            _traderAddress,\n            _investorAddress];\n\n        uint256[2] memory _uint256Args = [\n            _investmentId, \n            _amount];\n\n        uint256[4] memory _result = PairedInvestments(pairedInvestments).approveExit(_addressArgs, _uint256Args);\n\n        allocations[_traderAddress][_token].invested = allocations[_traderAddress][_token].invested.sub(_result[3]);\n        \n        payouts[0] = _result[0];\n        payouts[1] = _result[1];\n        payouts[2] = _result[2];\n\n        emit ApproveExit(\n            _traderAddress,\n            _investmentId,\n            now\n        );\n    }\n\n    //\n    //    Investor withdraws previously deposited ether funds, perhaps including profits (and losses)\n    //\n    function withdrawEther(uint256 _amount) external whenNotPaused {\n        uint256 balance = balances[msg.sender][ETHER];\n        balances[msg.sender][ETHER] = balance.sub(_amount);\n        msg.sender.transfer(_amount);\n        emit Withdraw(ETHER, msg.sender, _amount, balances[msg.sender][ETHER], now);\n    }\n\n    //\n    //    Investor withdraws previously deposited token funds, perhaps including profits (and losses)\n    //\n    function withdrawToken(address _token, uint256 _amount) external whenNotPaused {\n        require(_token != ETHER);\n        uint256 balance = balances[msg.sender][_token];\n        // require(IERC20(_token).transferFrom(address(this), msg.sender, _amount));\n        require(IERC20(_token).transfer(msg.sender, _amount));\n        balances[msg.sender][_token] = balance.sub(_amount);\n        emit Withdraw(_token, msg.sender, _amount, balances[msg.sender][_token], now);\n    }\n\n}\n",
  "sourcePath": "contracts/TraderPaired.sol",
  "abi": [
    {
      "anonymous": false,
      "inputs": [
        {
          "indexed": true,
          "internalType": "address",
          "name": "trader",
          "type": "address"
        },
        {
          "indexed": false,
          "internalType": "address",
          "name": "token",
          "type": "address"
        },
        {
          "indexed": false,
          "internalType": "uint256",
          "name": "amount",
          "type": "uint256"
        },
        {
          "indexed": false,
          "internalType": "uint256",
          "name": "date",
          "type": "uint256"
        }
      ],
      "name": "Allocate",
      "type": "event"
    },
    {
      "anonymous": false,
      "inputs": [
        {
          "indexed": true,
          "internalType": "address",
          "name": "trader",
          "type": "address"
        },
        {
          "indexed": false,
          "internalType": "uint256",
          "name": "investmentId",
          "type": "uint256"
        },
        {
          "indexed": false,
          "internalType": "uint256",
          "name": "date",
          "type": "uint256"
        }
      ],
      "name": "ApproveExit",
      "type": "event"
    },
    {
      "anonymous": false,
      "inputs": [
        {
          "indexed": false,
          "internalType": "uint256",
          "name": "id",
          "type": "uint256"
        },
        {
          "indexed": true,
          "internalType": "address",
          "name": "investor",
          "type": "address"
        },
        {
          "indexed": true,
          "internalType": "address",
          "name": "trader",
          "type": "address"
        },
        {
          "indexed": true,
          "internalType": "address",
          "name": "token",
          "type": "address"
        },
        {
          "indexed": false,
          "internalType": "uint256",
          "name": "amount",
          "type": "uint256"
        },
        {
          "indexed": false,
          "internalType": "uint256",
          "name": "date",
          "type": "uint256"
        }
      ],
      "name": "Invest",
      "type": "event"
    },
    {
      "anonymous": false,
      "inputs": [
        {
          "indexed": true,
          "internalType": "address",
          "name": "wallet",
          "type": "address"
        },
        {
          "indexed": true,
          "internalType": "address",
          "name": "trader",
          "type": "address"
        },
        {
          "indexed": true,
          "internalType": "address",
          "name": "investor",
          "type": "address"
        },
        {
          "indexed": false,
          "internalType": "uint256",
          "name": "date",
          "type": "uint256"
        }
      ],
      "name": "Investment",
      "type": "event"
    },
    {
      "anonymous": false,
      "inputs": [
        {
          "indexed": true,
          "internalType": "address",
          "name": "investor",
          "type": "address"
        },
        {
          "indexed": false,
          "internalType": "uint256",
          "name": "date",
          "type": "uint256"
        }
      ],
      "name": "Investor",
      "type": "event"
    },
    {
      "anonymous": false,
      "inputs": [
        {
          "indexed": true,
          "internalType": "address",
          "name": "previousOwner",
          "type": "address"
        },
        {
          "indexed": true,
          "internalType": "address",
          "name": "newOwner",
          "type": "address"
        }
      ],
      "name": "OwnershipTransferred",
      "type": "event"
    },
    {
      "anonymous": false,
      "inputs": [
        {
          "indexed": false,
          "internalType": "address",
          "name": "account",
          "type": "address"
        }
      ],
      "name": "Paused",
      "type": "event"
    },
    {
      "anonymous": false,
      "inputs": [
        {
          "indexed": true,
          "internalType": "address",
          "name": "account",
          "type": "address"
        }
      ],
      "name": "PauserAdded",
      "type": "event"
    },
    {
      "anonymous": false,
      "inputs": [
        {
          "indexed": true,
          "internalType": "address",
          "name": "account",
          "type": "address"
        }
      ],
      "name": "PauserRemoved",
      "type": "event"
    },
    {
      "anonymous": false,
      "inputs": [
        {
          "indexed": true,
          "internalType": "address",
          "name": "trader",
          "type": "address"
        },
        {
          "indexed": false,
          "internalType": "uint256",
          "name": "investmentId",
          "type": "uint256"
        },
        {
          "indexed": false,
          "internalType": "uint256",
          "name": "value",
          "type": "uint256"
        },
        {
          "indexed": false,
          "internalType": "uint256",
          "name": "date",
          "type": "uint256"
        }
      ],
      "name": "RejectExit",
      "type": "event"
    },
    {
      "anonymous": false,
      "inputs": [
        {
          "indexed": true,
          "internalType": "address",
          "name": "trader",
          "type": "address"
        },
        {
          "indexed": false,
          "internalType": "uint256",
          "name": "investmentId",
          "type": "uint256"
        },
        {
          "indexed": false,
          "internalType": "uint256",
          "name": "value",
          "type": "uint256"
        },
        {
          "indexed": false,
          "internalType": "uint256",
          "name": "date",
          "type": "uint256"
        }
      ],
      "name": "RequestExit",
      "type": "event"
    },
    {
      "anonymous": false,
      "inputs": [
        {
          "indexed": true,
          "internalType": "address",
          "name": "trader",
          "type": "address"
        },
        {
          "indexed": false,
          "internalType": "uint256",
          "name": "date",
          "type": "uint256"
        }
      ],
      "name": "Trader",
      "type": "event"
    },
    {
      "anonymous": false,
      "inputs": [
        {
          "indexed": false,
          "internalType": "address",
          "name": "account",
          "type": "address"
        }
      ],
      "name": "Unpaused",
      "type": "event"
    },
    {
      "anonymous": false,
      "inputs": [
        {
          "indexed": true,
          "internalType": "address",
          "name": "token",
          "type": "address"
        },
        {
          "indexed": true,
          "internalType": "address",
          "name": "user",
          "type": "address"
        },
        {
          "indexed": false,
          "internalType": "uint256",
          "name": "amount",
          "type": "uint256"
        },
        {
          "indexed": false,
          "internalType": "uint256",
          "name": "balance",
          "type": "uint256"
        },
        {
          "indexed": false,
          "internalType": "uint256",
          "name": "date",
          "type": "uint256"
        }
      ],
      "name": "Withdraw",
      "type": "event"
    },
    {
      "payable": false,
      "stateMutability": "nonpayable",
      "type": "fallback"
    },
    {
      "constant": false,
      "inputs": [
        {
          "internalType": "address",
          "name": "account",
          "type": "address"
        }
      ],
      "name": "addPauser",
      "outputs": [],
      "payable": false,
      "stateMutability": "nonpayable",
      "type": "function"
    },
    {
      "constant": false,
      "inputs": [
        {
          "internalType": "address",
          "name": "_token",
          "type": "address"
        },
        {
          "internalType": "uint256",
          "name": "_amount",
          "type": "uint256"
        }
      ],
      "name": "allocate",
      "outputs": [],
      "payable": false,
      "stateMutability": "nonpayable",
      "type": "function"
    },
    {
      "constant": true,
      "inputs": [
        {
          "internalType": "address",
          "name": "",
          "type": "address"
        },
        {
          "internalType": "address",
          "name": "",
          "type": "address"
        }
      ],
      "name": "allocations",
      "outputs": [
        {
          "internalType": "uint256",
          "name": "total",
          "type": "uint256"
        },
        {
          "internalType": "uint256",
          "name": "invested",
          "type": "uint256"
        }
      ],
      "payable": false,
      "stateMutability": "view",
      "type": "function"
    },
    {
      "constant": false,
      "inputs": [
        {
          "internalType": "address",
          "name": "_traderAddress",
          "type": "address"
        },
        {
          "internalType": "address",
          "name": "_investorAddress",
          "type": "address"
        },
        {
          "internalType": "uint256",
          "name": "_investmentId",
          "type": "uint256"
        },
        {
          "internalType": "address",
          "name": "_token",
          "type": "address"
        },
        {
          "internalType": "uint256",
          "name": "_amount",
          "type": "uint256"
        }
      ],
      "name": "approveExit",
      "outputs": [
        {
          "internalType": "uint256[3]",
          "name": "payouts",
          "type": "uint256[3]"
        }
      ],
      "payable": false,
      "stateMutability": "nonpayable",
      "type": "function"
    },
    {
      "constant": true,
      "inputs": [
        {
          "internalType": "address",
          "name": "",
          "type": "address"
        },
        {
          "internalType": "address",
          "name": "",
          "type": "address"
        }
      ],
      "name": "balances",
      "outputs": [
        {
          "internalType": "uint256",
          "name": "",
          "type": "uint256"
        }
      ],
      "payable": false,
      "stateMutability": "view",
      "type": "function"
    },
    {
      "constant": false,
      "inputs": [
        {
          "internalType": "address",
          "name": "_traderAddress",
          "type": "address"
        }
      ],
      "name": "createInvestment",
      "outputs": [],
      "payable": false,
      "stateMutability": "nonpayable",
      "type": "function"
    },
    {
      "constant": true,
      "inputs": [],
      "name": "feeAccount",
      "outputs": [
        {
          "internalType": "address",
          "name": "",
          "type": "address"
        }
      ],
      "payable": false,
      "stateMutability": "view",
      "type": "function"
    },
    {
      "constant": false,
      "inputs": [
        {
          "internalType": "address",
          "name": "_feeAccount",
          "type": "address"
        }
      ],
      "name": "initialize",
      "outputs": [],
      "payable": false,
      "stateMutability": "nonpayable",
      "type": "function"
    },
    {
      "constant": false,
      "inputs": [
        {
          "internalType": "address",
          "name": "_traderAddress",
          "type": "address"
        },
        {
          "internalType": "address",
          "name": "_investorAddress",
          "type": "address"
        },
        {
          "internalType": "address",
          "name": "_token",
          "type": "address"
        },
        {
          "internalType": "uint256",
          "name": "_amount",
          "type": "uint256"
        }
      ],
      "name": "invest",
      "outputs": [
        {
          "internalType": "uint256",
          "name": "investmentCount",
          "type": "uint256"
        }
      ],
      "payable": false,
      "stateMutability": "nonpayable",
      "type": "function"
    },
    {
      "constant": true,
      "inputs": [
        {
          "internalType": "address",
          "name": "",
          "type": "address"
        },
        {
          "internalType": "uint256",
          "name": "",
          "type": "uint256"
        }
      ],
      "name": "investorInvestments",
      "outputs": [
        {
          "internalType": "uint256",
          "name": "",
          "type": "uint256"
        }
      ],
      "payable": false,
      "stateMutability": "view",
      "type": "function"
    },
    {
      "constant": true,
      "inputs": [
        {
          "internalType": "address",
          "name": "",
          "type": "address"
        }
      ],
      "name": "investors",
      "outputs": [
        {
          "internalType": "address",
          "name": "user",
          "type": "address"
        },
        {
          "internalType": "uint256",
          "name": "investmentCount",
          "type": "uint256"
        }
      ],
      "payable": false,
      "stateMutability": "view",
      "type": "function"
    },
    {
      "constant": true,
      "inputs": [],
      "name": "isOwner",
      "outputs": [
        {
          "internalType": "bool",
          "name": "",
          "type": "bool"
        }
      ],
      "payable": false,
      "stateMutability": "view",
      "type": "function"
    },
    {
      "constant": true,
      "inputs": [
        {
          "internalType": "address",
          "name": "account",
          "type": "address"
        }
      ],
      "name": "isPauser",
      "outputs": [
        {
          "internalType": "bool",
          "name": "",
          "type": "bool"
        }
      ],
      "payable": false,
      "stateMutability": "view",
      "type": "function"
    },
    {
      "constant": false,
      "inputs": [],
      "name": "joinAsInvestor",
      "outputs": [],
      "payable": false,
      "stateMutability": "nonpayable",
      "type": "function"
    },
    {
      "constant": false,
      "inputs": [],
      "name": "joinAsTrader",
      "outputs": [],
      "payable": false,
      "stateMutability": "nonpayable",
      "type": "function"
    },
    {
      "constant": true,
      "inputs": [],
      "name": "multiSigFundWalletFactory",
      "outputs": [
        {
          "internalType": "address",
          "name": "",
          "type": "address"
        }
      ],
      "payable": false,
      "stateMutability": "view",
      "type": "function"
    },
    {
      "constant": true,
      "inputs": [],
      "name": "owner",
      "outputs": [
        {
          "internalType": "address",
          "name": "",
          "type": "address"
        }
      ],
      "payable": false,
      "stateMutability": "view",
      "type": "function"
    },
    {
      "constant": true,
      "inputs": [],
      "name": "pairedInvestments",
      "outputs": [
        {
          "internalType": "address",
          "name": "",
          "type": "address"
        }
      ],
      "payable": false,
      "stateMutability": "view",
      "type": "function"
    },
    {
      "constant": false,
      "inputs": [],
      "name": "pause",
      "outputs": [],
      "payable": false,
      "stateMutability": "nonpayable",
      "type": "function"
    },
    {
      "constant": true,
      "inputs": [],
      "name": "paused",
      "outputs": [
        {
          "internalType": "bool",
          "name": "",
          "type": "bool"
        }
      ],
      "payable": false,
      "stateMutability": "view",
      "type": "function"
    },
    {
      "constant": false,
      "inputs": [],
      "name": "renounceOwnership",
      "outputs": [],
      "payable": false,
      "stateMutability": "nonpayable",
      "type": "function"
    },
    {
      "constant": false,
      "inputs": [],
      "name": "renouncePauser",
      "outputs": [],
      "payable": false,
      "stateMutability": "nonpayable",
      "type": "function"
    },
    {
      "constant": false,
      "inputs": [
        {
          "internalType": "address",
          "name": "_traderAddress",
          "type": "address"
        },
        {
          "internalType": "address",
          "name": "_investorAddress",
          "type": "address"
        },
        {
          "internalType": "uint256",
          "name": "_investmentId",
          "type": "uint256"
        },
        {
          "internalType": "uint256",
          "name": "_value",
          "type": "uint256"
        }
      ],
      "name": "requestExit",
      "outputs": [],
      "payable": false,
      "stateMutability": "nonpayable",
      "type": "function"
    },
    {
      "constant": false,
      "inputs": [
        {
          "internalType": "address",
          "name": "_factory",
          "type": "address"
        }
      ],
      "name": "setMultiSigFundWalletFactory",
      "outputs": [],
      "payable": false,
      "stateMutability": "nonpayable",
      "type": "function"
    },
    {
      "constant": false,
      "inputs": [
        {
          "internalType": "address",
          "name": "_pairedInvestments",
          "type": "address"
        }
      ],
      "name": "setPairedInvestments",
      "outputs": [],
      "payable": false,
      "stateMutability": "nonpayable",
      "type": "function"
    },
    {
      "constant": false,
      "inputs": [
        {
          "internalType": "address",
          "name": "_token",
          "type": "address"
        },
        {
          "internalType": "bool",
          "name": "_valid",
          "type": "bool"
        }
      ],
      "name": "setToken",
      "outputs": [],
      "payable": false,
      "stateMutability": "nonpayable",
      "type": "function"
    },
    {
      "constant": true,
      "inputs": [
        {
          "internalType": "address",
          "name": "",
          "type": "address"
        }
      ],
      "name": "tokens",
      "outputs": [
        {
          "internalType": "bool",
          "name": "",
          "type": "bool"
        }
      ],
      "payable": false,
      "stateMutability": "view",
      "type": "function"
    },
    {
      "constant": true,
      "inputs": [
        {
          "internalType": "address",
          "name": "",
          "type": "address"
        },
        {
          "internalType": "uint256",
          "name": "",
          "type": "uint256"
        }
      ],
      "name": "traderInvestments",
      "outputs": [
        {
          "internalType": "uint256",
          "name": "",
          "type": "uint256"
        }
      ],
      "payable": false,
      "stateMutability": "view",
      "type": "function"
    },
    {
      "constant": true,
      "inputs": [
        {
          "internalType": "address",
          "name": "",
          "type": "address"
        }
      ],
      "name": "traders",
      "outputs": [
        {
          "internalType": "address",
          "name": "user",
          "type": "address"
        },
        {
          "internalType": "uint256",
          "name": "investmentCount",
          "type": "uint256"
        }
      ],
      "payable": false,
      "stateMutability": "view",
      "type": "function"
    },
    {
      "constant": false,
      "inputs": [
        {
          "internalType": "address",
          "name": "newOwner",
          "type": "address"
        }
      ],
      "name": "transferOwnership",
      "outputs": [],
      "payable": false,
      "stateMutability": "nonpayable",
      "type": "function"
    },
    {
      "constant": false,
      "inputs": [],
      "name": "unpause",
      "outputs": [],
      "payable": false,
      "stateMutability": "nonpayable",
      "type": "function"
    },
    {
      "constant": false,
      "inputs": [
        {
          "internalType": "uint256",
          "name": "_amount",
          "type": "uint256"
        }
      ],
      "name": "withdrawEther",
      "outputs": [],
      "payable": false,
      "stateMutability": "nonpayable",
      "type": "function"
    },
    {
      "constant": false,
      "inputs": [
        {
          "internalType": "address",
          "name": "_token",
          "type": "address"
        },
        {
          "internalType": "uint256",
          "name": "_amount",
          "type": "uint256"
        }
      ],
      "name": "withdrawToken",
      "outputs": [],
      "payable": false,
      "stateMutability": "nonpayable",
      "type": "function"
    }
  ],
  "bytecode": "0x6080604052612707806100136000396000f3fe608060405234801561001057600080fd5b50600436106101fb5760003560e01c80638456cb591161011a578063b78b52df116100ad578063d37a15d01161007c578063d37a15d014610601578063e486033914610627578063eef90b621461064d578063f2fde38b14610679578063fb171a521461069f576101fb565b8063b78b52df1461055b578063c23f001f14610587578063c4d66de8146105b5578063c9076b5b146105db576101fb565b806392a88fa2116100e957806392a88fa2146104855780639e281a98146104ab578063a57a71b7146104d7578063b3cb642f14610553576101fb565b80638456cb5914610426578063853996e41461042e5780638da5cb5b146104755780638f32d59b1461047d576101fb565b80635a77c18d116101925780636ef8d66d116101615780636ef8d66d146103a75780636f7bc9be146103af578063715018a6146103f857806382dc1ec414610400576101fb565b80635a77c18d146103475780635c975abb1461037357806365e17c9d1461037b5780636e1469981461039f576101fb565b80633bed33ce116101ce5780633bed33ce146102ac5780633f4ba83a146102c957806346fbf68e146102d15780634d69d7a31461030b576101fb565b80631896de521461020057806335e7fdb61461024e5780633619fcd1146102765780633816a2921461027e575b600080fd5b61023c6004803603608081101561021657600080fd5b506001600160a01b038135811691602081013582169160408201351690606001356106a7565b60408051918252519081900360200190f35b6102746004803603602081101561026457600080fd5b50356001600160a01b03166109b4565b005b610274610b69565b6102746004803603604081101561029457600080fd5b506001600160a01b0381351690602001351515610c77565b610274600480360360208110156102c257600080fd5b5035610ce9565b610274610e01565b6102f7600480360360208110156102e757600080fd5b50356001600160a01b0316610eea565b604080519115158252519081900360200190f35b6102746004803603608081101561032157600080fd5b506001600160a01b03813581169160208101359091169060408101359060600135610f03565b61023c6004803603604081101561035d57600080fd5b506001600160a01b038135169060200135611167565b6102f7611184565b61038361118d565b604080516001600160a01b039092168252519081900360200190f35b61027461119c565b6102746112aa565b6103d5600480360360208110156103c557600080fd5b50356001600160a01b03166112bc565b604080516001600160a01b03909316835260208301919091528051918290030190f35b6102746112e1565b6102746004803603602081101561041657600080fd5b50356001600160a01b0316611372565b6102746113c4565b61045c6004803603604081101561044457600080fd5b506001600160a01b038135811691602001351661148b565b6040805192835260208301919091528051918290030190f35b6103836114af565b6102f76114be565b6103d56004803603602081101561049b57600080fd5b50356001600160a01b03166114e4565b610274600480360360408110156104c157600080fd5b506001600160a01b038135169060200135611509565b61051b600480360360a08110156104ed57600080fd5b506001600160a01b038135811691602081013582169160408201359160608101359091169060800135611689565b6040518082606080838360005b83811015610540578181015183820152602001610528565b5050505090500191505060405180910390f35b6103836119fc565b6102746004803603604081101561057157600080fd5b506001600160a01b038135169060200135611a0b565b61023c6004803603604081101561059d57600080fd5b506001600160a01b0381358116916020013516611b2f565b610274600480360360208110156105cb57600080fd5b50356001600160a01b0316611b4c565b610274600480360360208110156105f157600080fd5b50356001600160a01b0316611c1c565b6102746004803603602081101561061757600080fd5b50356001600160a01b0316611c85565b6102f76004803603602081101561063d57600080fd5b50356001600160a01b0316611cee565b61023c6004803603604081101561066357600080fd5b506001600160a01b038135169060200135611d03565b6102746004803603602081101561068f57600080fd5b50356001600160a01b0316611d20565b610383611d70565b60995460009060ff16156106f5576040805162461bcd60e51b815260206004820152601060248201526f14185d5cd8589b194e881c185d5cd95960821b604482015290519081900360640190fd5b60cf54604080516317a7998b60e11b815233600482015290516001600160a01b0390921691632f4f331691602480820192602092909190829003018186803b15801561074057600080fd5b505afa158015610754573d6000803e3d6000fd5b505050506040513d602081101561076a57600080fd5b505161077557600080fd5b6001600160a01b038316600090815260d1602052604090205460ff1661079a57600080fd5b6001600160a01b03808516600081815260ce602052604090208054909216146107c257600080fd5b6001600160a01b03808716600081815260cd602052604090208054909216146107ea57600080fd5b80546001600160a01b03908116600090815260d460209081526040808320938916835292905220600181015481540385111561082557600080fd5b600181015461083a908663ffffffff611d7f16565b600182015560d05460408051630c4b6f2960e11b81526001600160a01b038b811660048301528a8116602483015289811660448301526064820189905291519190921691631896de529160848083019260209291908290030181600087803b1580156108a557600080fd5b505af11580156108b9573d6000803e3d6000fd5b505050506040513d60208110156108cf57600080fd5b50516001838101549195506108ea919063ffffffff611d7f16565b600180840182905583546001600160a01b0316600090815260d260209081526040808320948352939052919091208590558381015461092e9163ffffffff611d7f16565b6001840181905583546001600160a01b03908116600090815260d360209081526040808320948352938152908390208790558454835188815291820189905242828501529251898316938316928b16917fdd1f7f399039cfed2bfd62579273f6a61162a5724bea9728560733671c15e81c919081900360600190a4505050949350505050565b60995460ff16156109ff576040805162461bcd60e51b815260206004820152601060248201526f14185d5cd8589b194e881c185d5cd95960821b604482015290519081900360640190fd5b338015801590610a2957506001600160a01b03808216600081815260ce6020526040902054909116145b610a3257600080fd5b816001600160a01b03811615801590610a6557506001600160a01b03808216600081815260cd6020526040902054909116145b610a6e57600080fd5b8233610a7a8282611de0565b15610a8457600080fd5b60cf5460cc5460408051632afffbff60e21b81523060048201526001600160a01b03898116602483015233604483015292831660648201529051600093929092169163abffeffc9160848082019260209290919082900301818787803b158015610aed57600080fd5b505af1158015610b01573d6000803e3d6000fd5b505050506040513d6020811015610b1757600080fd5b505160408051428152905191925033916001600160a01b0389811692908516917f9002184dd61cb5fee4bfb8438d083222ce681edbb0de4c3079128ab85b44819b9181900360200190a4505050505050565b60995460ff1615610bb4576040805162461bcd60e51b815260206004820152601060248201526f14185d5cd8589b194e881c185d5cd95960821b604482015290519081900360640190fd5b33600090815260cd60205260409020546001600160a01b031615610bd757600080fd5b33600090815260ce60205260409020546001600160a01b031615610bfa57600080fd5b604080518082018252338082526000602080840182815283835260cd825291859020935184546001600160a01b0319166001600160a01b0390911617845590516001909301929092558251428152925190927f07e6fac70d6958b8515f69f22e83196b98850a5a0891eb226df124f7677bd81592908290030190a2565b610c7f6114be565b610cbe576040805162461bcd60e51b81526020600482018190526024820152600080516020612663833981519152604482015290519081900360640190fd5b6001600160a01b0391909116600090815260d160205260409020805460ff1916911515919091179055565b60995460ff1615610d34576040805162461bcd60e51b815260206004820152601060248201526f14185d5cd8589b194e881c185d5cd95960821b604482015290519081900360640190fd5b33600090815260d560209081526040808320838052909152902054610d5f818363ffffffff611fb916565b33600081815260d560209081526040808320838052909152808220939093559151909184156108fc02918591818181858888f19350505050158015610da8573d6000803e3d6000fd5b5033600081815260d5602090815260408083208380528252808320548151878152928301524282820152517febff2602b3f468259e1e99f613fed6691f3a6526effe6ef3e768ba7ae7a36c4f9181900360600190a35050565b610e11610e0c611ffb565b610eea565b610e4c5760405162461bcd60e51b81526004018080602001828103825260308152602001806125ec6030913960400191505060405180910390fd5b60995460ff16610e9a576040805162461bcd60e51b815260206004820152601460248201527314185d5cd8589b194e881b9bdd081c185d5cd95960621b604482015290519081900360640190fd5b6099805460ff191690557f5db9ee0a495bf2e6ff9c91a7834c1ba4fdd244a5e8aa4e537bd38aeae4b073aa610ecd611ffb565b604080516001600160a01b039092168252519081900360200190a1565b6000610efd60668363ffffffff611fff16565b92915050565b60995460ff1615610f4e576040805162461bcd60e51b815260206004820152601060248201526f14185d5cd8589b194e881c185d5cd95960821b604482015290519081900360640190fd5b60cf54604080516317a7998b60e11b815233600482015290516001600160a01b0390921691632f4f331691602480820192602092909190829003018186803b158015610f9957600080fd5b505afa158015610fad573d6000803e3d6000fd5b505050506040513d6020811015610fc357600080fd5b5051610fce57600080fd5b610fd661257a565b506001600160a01b03808516600081815260cd60209081526040918290208251808401909352805490941680835260019094015490820152911461101957600080fd5b611021612591565b50604080518082019091526001600160a01b03808716825285166020820152611048612591565b506040805180820182528581526020810185905260d0548251630a33af8360e21b815291926001600160a01b03909116916328cebe0c91859185916004909101908190849080838360005b838110156110ab578181015183820152602001611093565b5050505090500182600260200280838360005b838110156110d65781810151838201526020016110be565b5050505090500192505050600060405180830381600087803b1580156110fb57600080fd5b505af115801561110f573d6000803e3d6000fd5b50506040805188815260208101889052428183015290516001600160a01b038b1693507f1ba6e7576ae4d1d432c1146c68136b75d0a329b7c0163bdb28145ddae4910b0992509081900360600190a250505050505050565b60d260209081526000928352604080842090915290825290205481565b60995460ff1690565b60cc546001600160a01b031681565b60995460ff16156111e7576040805162461bcd60e51b815260206004820152601060248201526f14185d5cd8589b194e881c185d5cd95960821b604482015290519081900360640190fd5b33600090815260cd60205260409020546001600160a01b03161561120a57600080fd5b33600090815260ce60205260409020546001600160a01b03161561122d57600080fd5b604080518082018252338082526000602080840182815283835260ce825291859020935184546001600160a01b0319166001600160a01b0390911617845590516001909301929092558251428152925190927f7eb3885ab39ec25048338624e839a2b90fe3079bb88b9c697f56cfff3147193592908290030190a2565b6112ba6112b5611ffb565b612066565b565b60ce60205260009081526040902080546001909101546001600160a01b039091169082565b6112e96114be565b611328576040805162461bcd60e51b81526020600482018190526024820152600080516020612663833981519152604482015290519081900360640190fd5b6033546040516000916001600160a01b0316907f8be0079c531659141344cd1fd0a4f28419497f9722a3daafe3b4186f6b6457e0908390a3603380546001600160a01b0319169055565b61137d610e0c611ffb565b6113b85760405162461bcd60e51b81526004018080602001828103825260308152602001806125ec6030913960400191505060405180910390fd5b6113c1816120ae565b50565b6113cf610e0c611ffb565b61140a5760405162461bcd60e51b81526004018080602001828103825260308152602001806125ec6030913960400191505060405180910390fd5b60995460ff1615611455576040805162461bcd60e51b815260206004820152601060248201526f14185d5cd8589b194e881c185d5cd95960821b604482015290519081900360640190fd5b6099805460ff191660011790557f62e78cea01bee320cd4e420270b5ea74000d11b0c9f74754ebdbfc544b05a258610ecd611ffb565b60d46020908152600092835260408084209091529082529020805460019091015482565b6033546001600160a01b031690565b6033546000906001600160a01b03166114d5611ffb565b6001600160a01b031614905090565b60cd60205260009081526040902080546001909101546001600160a01b039091169082565b60995460ff1615611554576040805162461bcd60e51b815260206004820152601060248201526f14185d5cd8589b194e881c185d5cd95960821b604482015290519081900360640190fd5b6001600160a01b03821661156757600080fd5b33600081815260d5602090815260408083206001600160a01b03871680855290835281842054825163a9059cbb60e01b815260048101969096526024860187905291519194909363a9059cbb9360448084019491939192918390030190829087803b1580156115d557600080fd5b505af11580156115e9573d6000803e3d6000fd5b505050506040513d60208110156115ff57600080fd5b505161160a57600080fd5b61161a818363ffffffff611fb916565b33600081815260d5602090815260408083206001600160a01b0389168085529083529281902085905580518781529182019490945242818501529251919290917febff2602b3f468259e1e99f613fed6691f3a6526effe6ef3e768ba7ae7a36c4f9181900360600190a3505050565b6116916125af565b60995460ff16156116dc576040805162461bcd60e51b815260206004820152601060248201526f14185d5cd8589b194e881c185d5cd95960821b604482015290519081900360640190fd5b60cf54604080516317a7998b60e11b815233600482015290516001600160a01b0390921691632f4f331691602480820192602092909190829003018186803b15801561172757600080fd5b505afa15801561173b573d6000803e3d6000fd5b505050506040513d602081101561175157600080fd5b505161175c57600080fd5b61176461257a565b506001600160a01b03808716600090815260cd6020908152604091829020825180840190935280549093168252600190920154918101919091526117a661257a565b506001600160a01b03868116600090815260ce602090815260409182902082518084019093528054841683526001015490820152825190918981169116146117ed57600080fd5b866001600160a01b031681600001516001600160a01b03161461180f57600080fd5b611817612591565b50604080518082019091526001600160a01b03808a1682528816602082015261183e612591565b604051806040016040528089815260200187815250905061185d6125cd565b60d0546040805163385da3dd60e01b81526001600160a01b039092169163385da3dd91869186916004909101908190849080838360005b838110156118ac578181015183820152602001611894565b5050505090500182600260200280838360005b838110156118d75781810151838201526020016118bf565b5050505090500192505050608060405180830381600087803b1580156118fc57600080fd5b505af1158015611910573d6000803e3d6000fd5b505050506040513d601f19601f82011682018060405250608081101561193557600080fd5b5060608101516001600160a01b038d8116600090815260d460209081526040808320938e16835292905220600101549192506119719190611fb9565b6001600160a01b038c8116600081815260d460209081526040808320948e1683529381529083902060010193909355835189528383015189840152838201518983015281518c81524293810193909352815190927f157a16655c9fec6a7b8d28e7996c8bc1f1ebe0a2b4fa91bbd6427f6dc2bf114b92908290030190a2505050505095945050505050565b60cf546001600160a01b031681565b60995460ff1615611a56576040805162461bcd60e51b815260206004820152601060248201526f14185d5cd8589b194e881c185d5cd95960821b604482015290519081900360640190fd5b6001600160a01b038216600090815260d1602052604090205460ff16611a7b57600080fd5b611a8361257a565b5033600081815260cd6020908152604091829020825180840190935280546001600160a01b031680845260019091015491830191909152909114611ac657600080fd5b33600081815260d4602090815260408083206001600160a01b0388168085529083529281902086905580519283529082018590524282820152517f5b9d56b28a7cde78f80ab41749028c18864c008e0e3722985c63ea258111b7eb9181900360600190a2505050565b60d560209081526000928352604080842090915290825290205481565b600054610100900460ff1680611b655750611b656120f6565b80611b73575060005460ff16155b611bae5760405162461bcd60e51b815260040180806020018281038252602e8152602001806126a5602e913960400191505060405180910390fd5b600054610100900460ff16158015611bd9576000805460ff1961ff0019909116610100171660011790555b611be2336120fc565b611beb336121ed565b60cc80546001600160a01b0319166001600160a01b0384161790558015611c18576000805461ff00191690555b5050565b611c246114be565b611c63576040805162461bcd60e51b81526020600482018190526024820152600080516020612663833981519152604482015290519081900360640190fd5b60cf80546001600160a01b0319166001600160a01b0392909216919091179055565b611c8d6114be565b611ccc576040805162461bcd60e51b81526020600482018190526024820152600080516020612663833981519152604482015290519081900360640190fd5b60d080546001600160a01b0319166001600160a01b0392909216919091179055565b60d16020526000908152604090205460ff1681565b60d360209081526000928352604080842090915290825290205481565b611d286114be565b611d67576040805162461bcd60e51b81526020600482018190526024820152600080516020612663833981519152604482015290519081900360640190fd5b6113c1816122a2565b60d0546001600160a01b031681565b600082820183811015611dd9576040805162461bcd60e51b815260206004820152601b60248201527f536166654d6174683a206164646974696f6e206f766572666c6f770000000000604482015290519081900360640190fd5b9392505050565b60cf5460408051630636629560e11b81526001600160a01b03848116600483015291516000936060931691630c6cc52a9160248083019287929190829003018186803b158015611e2f57600080fd5b505afa158015611e43573d6000803e3d6000fd5b505050506040513d6000823e601f3d908101601f191682016040526020811015611e6c57600080fd5b8101908080516040519392919084640100000000821115611e8c57600080fd5b908301906020820185811115611ea157600080fd5b8251866020820283011164010000000082111715611ebe57600080fd5b82525081516020918201928201910280838360005b83811015611eeb578181015183820152602001611ed3565b50505050905001604052505050905060008090505b8151811015611fae576000828281518110611f1757fe5b60200260200101516001600160a01b0316631758078b6040518163ffffffff1660e01b815260040160206040518083038186803b158015611f5757600080fd5b505afa158015611f6b573d6000803e3d6000fd5b505050506040513d6020811015611f8157600080fd5b505190506001600160a01b038082169087161415611fa55760019350505050610efd565b50600101611f00565b506000949350505050565b6000611dd983836040518060400160405280601e81526020017f536166654d6174683a207375627472616374696f6e206f766572666c6f770000815250612343565b3390565b60006001600160a01b0382166120465760405162461bcd60e51b81526004018080602001828103825260228152602001806126836022913960400191505060405180910390fd5b506001600160a01b03166000908152602091909152604090205460ff1690565b61207760668263ffffffff6123da16565b6040516001600160a01b038216907fcd265ebaf09df2871cc7bd4133404a235ba12eff2041bb89d9c714a2621c7c7e90600090a250565b6120bf60668263ffffffff61244116565b6040516001600160a01b038216907f6719d08c1888103bea251a4ed56406bd0c3e69723c8a1686e017e7bbe159b6f890600090a250565b303b1590565b600054610100900460ff168061211557506121156120f6565b80612123575060005460ff16155b61215e5760405162461bcd60e51b815260040180806020018281038252602e8152602001806126a5602e913960400191505060405180910390fd5b600054610100900460ff16158015612189576000805460ff1961ff0019909116610100171660011790555b603380546001600160a01b0319166001600160a01b0384811691909117918290556040519116906000907f8be0079c531659141344cd1fd0a4f28419497f9722a3daafe3b4186f6b6457e0908290a38015611c18576000805461ff00191690555050565b600054610100900460ff168061220657506122066120f6565b80612214575060005460ff16155b61224f5760405162461bcd60e51b815260040180806020018281038252602e8152602001806126a5602e913960400191505060405180910390fd5b600054610100900460ff1615801561227a576000805460ff1961ff0019909116610100171660011790555b612283826124c2565b6099805460ff191690558015611c18576000805461ff00191690555050565b6001600160a01b0381166122e75760405162461bcd60e51b815260040180806020018281038252602681526020018061261c6026913960400191505060405180910390fd5b6033546040516001600160a01b038084169216907f8be0079c531659141344cd1fd0a4f28419497f9722a3daafe3b4186f6b6457e090600090a3603380546001600160a01b0319166001600160a01b0392909216919091179055565b600081848411156123d25760405162461bcd60e51b81526004018080602001828103825283818151815260200191508051906020019080838360005b8381101561239757818101518382015260200161237f565b50505050905090810190601f1680156123c45780820380516001836020036101000a031916815260200191505b509250505060405180910390fd5b505050900390565b6123e48282611fff565b61241f5760405162461bcd60e51b81526004018080602001828103825260218152602001806126426021913960400191505060405180910390fd5b6001600160a01b0316600090815260209190915260409020805460ff19169055565b61244b8282611fff565b1561249d576040805162461bcd60e51b815260206004820152601f60248201527f526f6c65733a206163636f756e7420616c72656164792068617320726f6c6500604482015290519081900360640190fd5b6001600160a01b0316600090815260209190915260409020805460ff19166001179055565b600054610100900460ff16806124db57506124db6120f6565b806124e9575060005460ff16155b6125245760405162461bcd60e51b815260040180806020018281038252602e8152602001806126a5602e913960400191505060405180910390fd5b600054610100900460ff1615801561254f576000805460ff1961ff0019909116610100171660011790555b61255882610eea565b61256557612565826120ae565b8015611c18576000805461ff00191690555050565b604080518082019091526000808252602082015290565b60405180604001604052806002906020820280388339509192915050565b60405180606001604052806003906020820280388339509192915050565b6040518060800160405280600490602082028038833950919291505056fe506175736572526f6c653a2063616c6c657220646f6573206e6f742068617665207468652050617573657220726f6c654f776e61626c653a206e6577206f776e657220697320746865207a65726f2061646472657373526f6c65733a206163636f756e7420646f6573206e6f74206861766520726f6c654f776e61626c653a2063616c6c6572206973206e6f7420746865206f776e6572526f6c65733a206163636f756e7420697320746865207a65726f2061646472657373436f6e747261637420696e7374616e63652068617320616c7265616479206265656e20696e697469616c697a6564a265627a7a72315820e101ed3a4dec684f0cb0afc7953c7a6793d9b19cc21cda05fad51c5aec06ecbf64736f6c63430005110032",
  "compiler": {
    "name": "solc",
    "version": "0.5.17+commit.d19bba13.Emscripten.clang",
    "optimizer": {
      "enabled": true,
      "runs": 200
    },
    "evmVersion": "petersburg"
  }
}