{
  "contractName": "CrowdVest",
  "abi": [
    {
      "inputs": [
        {
          "internalType": "address payable",
          "name": "_feeAccount",
          "type": "address"
        },
        {
          "internalType": "uint256",
          "name": "_traderFeePercent",
          "type": "uint256"
        },
        {
          "internalType": "uint256",
          "name": "_investorFeePercent",
          "type": "uint256"
        }
      ],
      "stateMutability": "nonpayable",
      "type": "constructor"
    },
    {
      "anonymous": false,
      "inputs": [
        {
          "indexed": true,
          "internalType": "address",
          "name": "trader",
          "type": "address"
        },
        {
          "indexed": false,
          "internalType": "uint256",
          "name": "investmentId",
          "type": "uint256"
        },
        {
          "indexed": false,
          "internalType": "uint256",
          "name": "nettAmount",
          "type": "uint256"
        }
      ],
      "name": "ApproveExit",
      "type": "event"
    },
    {
      "anonymous": false,
      "inputs": [
        {
          "indexed": true,
          "internalType": "address",
          "name": "trader",
          "type": "address"
        },
        {
          "indexed": false,
          "internalType": "uint256",
          "name": "investmentId",
          "type": "uint256"
        }
      ],
      "name": "CancelExit",
      "type": "event"
    },
    {
      "anonymous": false,
      "inputs": [
        {
          "indexed": true,
          "internalType": "address",
          "name": "investor",
          "type": "address"
        },
        {
          "indexed": false,
          "internalType": "uint256",
          "name": "investorId",
          "type": "uint256"
        },
        {
          "indexed": false,
          "internalType": "uint256",
          "name": "amount",
          "type": "uint256"
        },
        {
          "indexed": false,
          "internalType": "uint256",
          "name": "balance",
          "type": "uint256"
        }
      ],
      "name": "Deposit",
      "type": "event"
    },
    {
      "anonymous": false,
      "inputs": [
        {
          "indexed": false,
          "internalType": "uint256",
          "name": "id",
          "type": "uint256"
        },
        {
          "indexed": true,
          "internalType": "address",
          "name": "investor",
          "type": "address"
        },
        {
          "indexed": true,
          "internalType": "address",
          "name": "trader",
          "type": "address"
        },
        {
          "indexed": false,
          "internalType": "uint256",
          "name": "amount",
          "type": "uint256"
        },
        {
          "indexed": false,
          "internalType": "uint256",
          "name": "balance",
          "type": "uint256"
        }
      ],
      "name": "Invest",
      "type": "event"
    },
    {
      "anonymous": false,
      "inputs": [
        {
          "indexed": true,
          "internalType": "address",
          "name": "investor",
          "type": "address"
        },
        {
          "indexed": false,
          "internalType": "uint256",
          "name": "investorId",
          "type": "uint256"
        }
      ],
      "name": "Investor",
      "type": "event"
    },
    {
      "anonymous": false,
      "inputs": [
        {
          "indexed": true,
          "internalType": "address",
          "name": "trader",
          "type": "address"
        },
        {
          "indexed": false,
          "internalType": "uint256",
          "name": "investmentId",
          "type": "uint256"
        }
      ],
      "name": "RejectExit",
      "type": "event"
    },
    {
      "anonymous": false,
      "inputs": [
        {
          "indexed": true,
          "internalType": "address",
          "name": "trader",
          "type": "address"
        },
        {
          "indexed": false,
          "internalType": "uint256",
          "name": "investmentId",
          "type": "uint256"
        },
        {
          "indexed": false,
          "internalType": "uint256",
          "name": "date",
          "type": "uint256"
        },
        {
          "indexed": false,
          "internalType": "uint256",
          "name": "value",
          "type": "uint256"
        },
        {
          "indexed": false,
          "internalType": "uint256",
          "name": "investorProfit",
          "type": "uint256"
        },
        {
          "indexed": false,
          "internalType": "uint256",
          "name": "platformFee",
          "type": "uint256"
        }
      ],
      "name": "RequestExit",
      "type": "event"
    },
    {
      "anonymous": false,
      "inputs": [
        {
          "indexed": true,
          "internalType": "address",
          "name": "trader",
          "type": "address"
        },
        {
          "indexed": false,
          "internalType": "uint256",
          "name": "traderId",
          "type": "uint256"
        },
        {
          "indexed": false,
          "internalType": "uint256",
          "name": "investorProfitPercent",
          "type": "uint256"
        }
      ],
      "name": "Trader",
      "type": "event"
    },
    {
      "anonymous": false,
      "inputs": [
        {
          "indexed": true,
          "internalType": "address",
          "name": "investor",
          "type": "address"
        },
        {
          "indexed": false,
          "internalType": "uint256",
          "name": "investorId",
          "type": "uint256"
        },
        {
          "indexed": false,
          "internalType": "uint256",
          "name": "amount",
          "type": "uint256"
        },
        {
          "indexed": false,
          "internalType": "uint256",
          "name": "balance",
          "type": "uint256"
        }
      ],
      "name": "Withdraw",
      "type": "event"
    },
    {
      "stateMutability": "nonpayable",
      "type": "fallback"
    },
    {
      "inputs": [],
      "name": "feeAccount",
      "outputs": [
        {
          "internalType": "address payable",
          "name": "",
          "type": "address"
        }
      ],
      "stateMutability": "view",
      "type": "function",
      "constant": true
    },
    {
      "inputs": [
        {
          "internalType": "address",
          "name": "",
          "type": "address"
        },
        {
          "internalType": "uint256",
          "name": "",
          "type": "uint256"
        }
      ],
      "name": "investments",
      "outputs": [
        {
          "internalType": "address payable",
          "name": "trader",
          "type": "address"
        },
        {
          "internalType": "address payable",
          "name": "investor",
          "type": "address"
        },
        {
          "internalType": "uint256",
          "name": "amount",
          "type": "uint256"
        },
        {
          "internalType": "uint256",
          "name": "startDate",
          "type": "uint256"
        },
        {
          "internalType": "uint256",
          "name": "endDate",
          "type": "uint256"
        },
        {
          "internalType": "uint256",
          "name": "value",
          "type": "uint256"
        },
        {
          "internalType": "uint256",
          "name": "investorProfit",
          "type": "uint256"
        },
        {
          "internalType": "uint256",
          "name": "platformFee",
          "type": "uint256"
        },
        {
          "internalType": "enum CrowdVest.InvestmentState",
          "name": "state",
          "type": "uint8"
        }
      ],
      "stateMutability": "view",
      "type": "function",
      "constant": true
    },
    {
      "inputs": [],
      "name": "investorCount",
      "outputs": [
        {
          "internalType": "uint256",
          "name": "",
          "type": "uint256"
        }
      ],
      "stateMutability": "view",
      "type": "function",
      "constant": true
    },
    {
      "inputs": [],
      "name": "investorFeePercent",
      "outputs": [
        {
          "internalType": "uint256",
          "name": "",
          "type": "uint256"
        }
      ],
      "stateMutability": "view",
      "type": "function",
      "constant": true
    },
    {
      "inputs": [
        {
          "internalType": "uint256",
          "name": "",
          "type": "uint256"
        }
      ],
      "name": "investorList",
      "outputs": [
        {
          "internalType": "address",
          "name": "",
          "type": "address"
        }
      ],
      "stateMutability": "view",
      "type": "function",
      "constant": true
    },
    {
      "inputs": [
        {
          "internalType": "address",
          "name": "",
          "type": "address"
        }
      ],
      "name": "investors",
      "outputs": [
        {
          "internalType": "uint256",
          "name": "id",
          "type": "uint256"
        },
        {
          "internalType": "address payable",
          "name": "user",
          "type": "address"
        },
        {
          "internalType": "uint256",
          "name": "balance",
          "type": "uint256"
        }
      ],
      "stateMutability": "view",
      "type": "function",
      "constant": true
    },
    {
      "inputs": [],
      "name": "traderCount",
      "outputs": [
        {
          "internalType": "uint256",
          "name": "",
          "type": "uint256"
        }
      ],
      "stateMutability": "view",
      "type": "function",
      "constant": true
    },
    {
      "inputs": [],
      "name": "traderFeePercent",
      "outputs": [
        {
          "internalType": "uint256",
          "name": "",
          "type": "uint256"
        }
      ],
      "stateMutability": "view",
      "type": "function",
      "constant": true
    },
    {
      "inputs": [
        {
          "internalType": "uint256",
          "name": "",
          "type": "uint256"
        }
      ],
      "name": "traderList",
      "outputs": [
        {
          "internalType": "address",
          "name": "",
          "type": "address"
        }
      ],
      "stateMutability": "view",
      "type": "function",
      "constant": true
    },
    {
      "inputs": [
        {
          "internalType": "address",
          "name": "",
          "type": "address"
        }
      ],
      "name": "traders",
      "outputs": [
        {
          "internalType": "uint256",
          "name": "id",
          "type": "uint256"
        },
        {
          "internalType": "address payable",
          "name": "user",
          "type": "address"
        },
        {
          "internalType": "uint256",
          "name": "investorProfitPercent",
          "type": "uint256"
        },
        {
          "internalType": "uint256",
          "name": "balance",
          "type": "uint256"
        },
        {
          "internalType": "uint256",
          "name": "investmentCount",
          "type": "uint256"
        }
      ],
      "stateMutability": "view",
      "type": "function",
      "constant": true
    },
    {
      "inputs": [
        {
          "internalType": "uint256",
          "name": "_investorProfitPercent",
          "type": "uint256"
        }
      ],
      "name": "joinAsTrader",
      "outputs": [],
      "stateMutability": "nonpayable",
      "type": "function"
    },
    {
      "inputs": [],
      "name": "joinAsInvestor",
      "outputs": [],
      "stateMutability": "nonpayable",
      "type": "function"
    },
    {
      "inputs": [],
      "name": "deposit",
      "outputs": [],
      "stateMutability": "payable",
      "type": "function",
      "payable": true
    },
    {
      "inputs": [
        {
          "internalType": "uint256",
          "name": "_amount",
          "type": "uint256"
        }
      ],
      "name": "withdraw",
      "outputs": [],
      "stateMutability": "nonpayable",
      "type": "function"
    },
    {
      "inputs": [
        {
          "internalType": "address",
          "name": "_traderAddress",
          "type": "address"
        },
        {
          "internalType": "uint256",
          "name": "_amount",
          "type": "uint256"
        }
      ],
      "name": "invest",
      "outputs": [],
      "stateMutability": "nonpayable",
      "type": "function"
    },
    {
      "inputs": [
        {
          "internalType": "address",
          "name": "_traderAddress",
          "type": "address"
        },
        {
          "internalType": "uint256",
          "name": "_investmentId",
          "type": "uint256"
        },
        {
          "internalType": "uint256",
          "name": "_value",
          "type": "uint256"
        }
      ],
      "name": "requestExit",
      "outputs": [],
      "stateMutability": "nonpayable",
      "type": "function"
    },
    {
      "inputs": [
        {
          "internalType": "address",
          "name": "_traderAddress",
          "type": "address"
        },
        {
          "internalType": "uint256",
          "name": "_investmentId",
          "type": "uint256"
        }
      ],
      "name": "cancelExit",
      "outputs": [],
      "stateMutability": "nonpayable",
      "type": "function"
    },
    {
      "inputs": [
        {
          "internalType": "uint256",
          "name": "_investmentId",
          "type": "uint256"
        }
      ],
      "name": "rejectExit",
      "outputs": [],
      "stateMutability": "nonpayable",
      "type": "function"
    },
    {
      "inputs": [
        {
          "internalType": "uint256",
          "name": "_investmentId",
          "type": "uint256"
        },
        {
          "internalType": "address",
          "name": "_investorAddress",
          "type": "address"
        }
      ],
      "name": "approveExit",
      "outputs": [],
      "stateMutability": "payable",
      "type": "function",
      "payable": true
    }
  ],
  "bytecode": "0x608060405234801561001057600080fd5b506040516116363803806116368339818101604052606081101561003357600080fd5b5080516020820151604090920151600080546001600160a01b039093166001600160a01b0319909316929092179091556001919091556002556115bb8061007b6000396000f3fe6080604052600436106101145760003560e01c80636f7bc9be116100a057806392a88fa21161006457806392a88fa21461041d578063b9b8c24614610483578063c9d25111146104bc578063d0e30db0146104e6578063d7e64c00146104ee57610114565b80636f7bc9be146103225780637b63c7601461037b5780637e6fc89f146103b45780638c68770b146103f357806391db6bb51461040857610114565b806352adcb8e116100e757806352adcb8e1461027b57806365e17c9d146102a557806369dc6765146102ba5780636cbce35d146102e15780636e1469981461030d57610114565b806312f9b48e146101265780632e1a7d4d1461016c578063320cbd1e146101985780633e6d9770146101c2575b34801561012057600080fd5b50600080fd5b34801561013257600080fd5b506101506004803603602081101561014957600080fd5b5035610503565b604080516001600160a01b039092168252519081900360200190f35b34801561017857600080fd5b506101966004803603602081101561018f57600080fd5b503561051e565b005b3480156101a457600080fd5b50610196600480360360208110156101bb57600080fd5b50356105f0565b3480156101ce57600080fd5b506101fb600480360360408110156101e557600080fd5b506001600160a01b0381351690602001356106ec565b604051808a6001600160a01b03166001600160a01b03168152602001896001600160a01b03166001600160a01b0316815260200188815260200187815260200186815260200185815260200184815260200183815260200182600381111561025f57fe5b60ff168152602001995050505050505050505060405180910390f35b34801561028757600080fd5b506101966004803603602081101561029e57600080fd5b503561074f565b3480156102b157600080fd5b50610150610812565b3480156102c657600080fd5b506102cf610821565b60408051918252519081900360200190f35b610196600480360360408110156102f757600080fd5b50803590602001356001600160a01b0316610827565b34801561031957600080fd5b50610196610b2d565b34801561032e57600080fd5b506103556004803603602081101561034557600080fd5b50356001600160a01b0316610beb565b604080519384526001600160a01b03909216602084015282820152519081900360600190f35b34801561038757600080fd5b506101966004803603604081101561039e57600080fd5b506001600160a01b038135169060200135610c15565b3480156103c057600080fd5b50610196600480360360608110156103d757600080fd5b506001600160a01b038135169060208101359060400135610cee565b3480156103ff57600080fd5b506102cf610fbe565b34801561041457600080fd5b506102cf610fc4565b34801561042957600080fd5b506104506004803603602081101561044057600080fd5b50356001600160a01b0316610fca565b604080519586526001600160a01b0390941660208601528484019290925260608401526080830152519081900360a00190f35b34801561048f57600080fd5b50610196600480360360408110156104a657600080fd5b506001600160a01b038135169060200135611004565b3480156104c857600080fd5b50610150600480360360208110156104df57600080fd5b5035611278565b610196611293565b3480156104fa57600080fd5b506102cf611322565b6007602052600090815260409020546001600160a01b031681565b336000818152600560205260409020600181015490916001600160a01b039091161461054957600080fd5b818160020154101561055a57600080fd5b600281015461056f908363ffffffff61132816565b6002820155604051339083156108fc029084906000818181858888f193505050501580156105a1573d6000803e3d6000fd5b50805460028201546040805192835260208301859052828101919091525133917f02f25270a4d87bea75db541cdfe559334a275b4a233520ed6c0a2429667cca94919081900360600190a25050565b6127108110801561060357506002548110155b61060c57600080fd5b60085461062090600163ffffffff61137316565b600881815560009182526006602090815260408084208054336001600160a01b03199182168117909255825160a0810184528554815280850183815281850189815260608301898152608084018a8152868b526004808a529a8890209451855592516001850180549096166001600160a01b03909116179094555160028301559151600382015590519501949094559154825190815290810184905281517f2443e16faef9accaee1c7486a06f0da588a8f541204a9e4bca14555672cae000929181900390910190a250565b600360208181526000938452604080852090915291835291208054600182015460028301549383015460048401546005850154600686015460078701546008909701546001600160a01b0396871698969095169693949293919290919060ff1689565b3360008181526003602090815260408083208584529091529020546001600160a01b03161461077d57600080fd5b60013360009081526003602081815260408084208685529091529091206008015460ff16908111156107ab57fe5b146107b557600080fd5b336000818152600360209081526040808320858452825291829020600801805460ff19166002179055815184815291517fb392219ec131a66afaabf07885d1a01be712cce8a51d649cffa2060e85366fe49281900390910190a250565b6000546001600160a01b031681565b60085481565b336000818152600460205260409020600181015490916001600160a01b039091161461085257600080fd5b6001600160a01b03808316600081815260056020526040902060018101549092161461087d57600080fd5b3360008181526003602090815260408083208884529091529020546001600160a01b0316146108ab57600080fd5b60013360009081526003602081815260408084208985529091529091206008015460ff16908111156108d957fe5b146108e357600080fd5b3360009081526003602081815260408084208885529091529091206002015490830154101561091157600080fd5b336000908152600360209081526040808320878452909152812060028101546005909101541115610a01573360009081526003602090815260408083208884529091529020600281015460069091015461096a91611373565b336000908152600360209081526040808320898452909152902060070154909150349061099e90839063ffffffff61137316565b146109a857600080fd5b600080543382526003602090815260408084208985529091528083206007015490516001600160a01b039092169281156108fc029290818181858888f193505050501580156109fb573d6000803e3d6000fd5b50610a93565b336000908152600360209081526040808320888452909152902060028101546005909101541415610a5c5750336000908152600360209081526040808320878452909152902060020154348114610a5757600080fd5b610a93565b50336000908152600360209081526040808320878452909152902060058101546002909101549081039003348114610a9357600080fd5b33600090815260036020818152604080842089855290915290912060088101805460ff1916831790556002015490840154610acd91611328565b60038401556002820154610ae7908263ffffffff61137316565b60028301556040805186815260208101839052815133927f157a16655c9fec6a7b8d28e7996c8bc1f1ebe0a2b4fa91bbd6427f6dc2bf114b928290030190a25050505050565b600954610b4190600163ffffffff61137316565b600981815560009182526007602090815260408084208054336001600160a01b03199182168117909255825160608101845285548152808501838152818501888152848952600587529785902091518255516001820180549093166001600160a01b039091161790915594516002909501949094559154825190815291517f7eb3885ab39ec25048338624e839a2b90fe3079bb88b9c697f56cfff314719359281900390910190a2565b60056020526000908152604090208054600182015460029092015490916001600160a01b03169083565b6001600160a01b038281166000908152600360209081526040808320858452909152902060010154163314610c4957600080fd5b60016001600160a01b03831660009081526003602081815260408084208685529091529091206008015460ff1690811115610c8057fe5b14610c8a57600080fd5b6001600160a01b0382166000818152600360209081526040808320858452825291829020600801805460ff19169055815184815291517fa909ee4a9c487bd8f292c8ba76828f5fb7442be838d92c48e1ee0346ec7a5f0f9281900390910190a25050565b6001600160a01b038084166000818152600460205260409020600181015490921614610d1957600080fd5b6001600160a01b038481166000908152600360209081526040808320878452909152902060010154163314610d4d57600080fd5b6001600160a01b038416600090815260036020818152604080842087855290915282206008015460ff1690811115610d8157fe5b14610d8b57600080fd5b6001600160a01b0384166000908152600360209081526040808320868452909152902060020154821115610ec4576000610dd4600254836002015461132890919063ffffffff16565b90506000610e03600154610df7856002015461271061132890919063ffffffff16565b9063ffffffff61132816565b6001600160a01b038716600090815260036020908152604080832089845290915281206002015491925090850390610e53612710610e47848763ffffffff6113cd16565b9063ffffffff61142616565b90506000610e6d612710610e47858763ffffffff6113cd16565b90506000610e8582610df7868663ffffffff61132816565b6001600160a01b038b1660009081526003602090815260408083208d84529091529020600681019490945560079093019290925550610f209350505050565b6001600160a01b03841660009081526003602090815260408083208684529091529020600201548211610f20576001600160a01b0384166000908152600360209081526040808320868452909152812060068101829055600701555b6001600160a01b038416600081815260036020908152604080832087845282529182902042600482018190556005820187905560088201805460ff1916600117905560068201546007909201548451898152938401919091528284018790526060830191909152608082015290517f21c2c3637622eaa2a4b473203e836b936340ca4de5df2267314455f0ed6143089181900360a00190a250505050565b60025481565b60015481565b60046020819052600091825260409091208054600182015460028301546003840154939094015491936001600160a01b0390911692909185565b336000818152600560205260409020600181015490916001600160a01b039091161461102f57600080fd5b6001600160a01b03808416600081815260046020526040902060018101549092161461105a57600080fd5b828260020154101561106b57600080fd5b6002820154611080908463ffffffff61132816565b6002830155600381015461109a908463ffffffff61137316565b600382015560018101546040516001600160a01b039091169084156108fc029085906000818181858888f193505050501580156110db573d6000803e3d6000fd5b5060048101546110f290600163ffffffff61137316565b600482015560408051610120810182526001808401546001600160a01b0390811683529085015416602082015290810184905242606082015260006080820181905260a0820181905260c0820181905260e082018190526101008201526001808301546001600160a01b0390811660009081526003602081815260408084206004808a0154865290835293819020875181549087166001600160a01b03199182161782559288015181880180549190971693169290921790945592850151600284015560608501518382015560808501519183019190915560a0840151600583015560c0840151600683015560e0840151600783015561010084015160088301805493949193909260ff199091169190849081111561120d57fe5b02179055505050600181015460048201546002840154604080519283526020830187905282810191909152516001600160a01b039092169133917fd105eaedaf57ce095a2cd72786e7a94f6ff565f7df2d15bd020517ef6102bed7919081900360600190a350505050565b6006602052600090815260409020546001600160a01b031681565b336000818152600560205260409020600181015490916001600160a01b03909116146112be57600080fd5b60028101546112d3903463ffffffff61137316565b6002820181905581546040805191825234602083015281810192909252905133917f36af321ec8d3c75236829c5317affd40ddb308863a1236d2d277a4025cccee1e919081900360600190a250565b60095481565b600061136a83836040518060400160405280601e81526020017f536166654d6174683a207375627472616374696f6e206f766572666c6f770000815250611468565b90505b92915050565b60008282018381101561136a576040805162461bcd60e51b815260206004820152601b60248201527f536166654d6174683a206164646974696f6e206f766572666c6f770000000000604482015290519081900360640190fd5b6000826113dc5750600061136d565b828202828482816113e957fe5b041461136a5760405162461bcd60e51b81526004018080602001828103825260218152602001806115656021913960400191505060405180910390fd5b600061136a83836040518060400160405280601a81526020017f536166654d6174683a206469766973696f6e206279207a65726f0000000000008152506114ff565b600081848411156114f75760405162461bcd60e51b81526004018080602001828103825283818151815260200191508051906020019080838360005b838110156114bc5781810151838201526020016114a4565b50505050905090810190601f1680156114e95780820380516001836020036101000a031916815260200191505b509250505060405180910390fd5b505050900390565b6000818361154e5760405162461bcd60e51b81526020600482018181528351602484015283519092839260449091019190850190808383600083156114bc5781810151838201526020016114a4565b50600083858161155a57fe5b049594505050505056fe536166654d6174683a206d756c7469706c69636174696f6e206f766572666c6f77a264697066735822122067b968c40ad5a45a4b36a57508e2b527542afcd516aa4929f312511bf6344d3e64736f6c63430006080033",
  "immutableReferences": {},
  "source": "// \"SPDX-License-Identifier: UNLICENSED\"\npragma solidity 0.6.8;\n\nimport \"@openzeppelin/contracts/math/SafeMath.sol\";\nimport \"@openzeppelin/contracts/access/Ownable.sol\";\n\ncontract CrowdVest {\n\n\tusing SafeMath for uint256;\n\n    address payable public feeAccount; // account that will receive fees\n    uint256 public traderFeePercent; // trader fee percentage in unit of 100, i.e. 100 == 1% and 5 == 0.05% and 10000 == 100%\n    uint256 public investorFeePercent; // investor fee percentage in unit of 100, i.e. 100 == 1% and 5 == 0.05% and 10000 == 100%\n    \n    mapping(address => mapping(uint256 => _Investment)) public investments; // mapping list of investments to traders\n\n    mapping(address => _Trader) public traders;\n    mapping(address => _Investor) public investors;\n\n    mapping(uint256 => address) public traderList;\n    mapping(uint256 => address) public investorList;\n\n    uint256 public traderCount;\n    uint256 public investorCount;\n\n    event Trader(address indexed trader, uint256 traderId, uint256 investorProfitPercent);\n    event Investor(address indexed investor, uint256 investorId);\n    event Deposit(address indexed investor, uint256 investorId, uint256 amount, uint256 balance);\n    event Withdraw(address indexed investor, uint256 investorId, uint256 amount, uint256 balance);\n    event Invest(uint256 id, address indexed investor, address indexed trader, uint256 amount, uint256 balance);\n    event RequestExit(address indexed trader, uint256 investmentId, uint256 date, uint256 value, uint256 investorProfit, uint256 platformFee);\n    event CancelExit(address indexed trader, uint256 investmentId);\n    event RejectExit(address indexed trader, uint256 investmentId);\n    event ApproveExit(address indexed trader, uint256 investmentId, uint256 nettAmount);\n\n    enum InvestmentState {\n        Invested,\n        ExitRequested,\n        ExitRejected,\n        Divested\n    }\n\n    struct _Trader {\n        uint256 id;\n        address payable user;\n        uint256 investorProfitPercent;\n        uint256 balance;\n        uint256 investmentCount;\n    }\n\n    struct _Investor {\n        uint256 id;\n        address payable user;\n        uint256 balance;\n    }\n\n    struct _Investment {\n        address payable trader;\n        address payable investor;\n        uint256 amount;\n        uint256 startDate;\n        uint256 endDate;\n        uint256 value;\n        uint256 investorProfit;\n        uint256 platformFee;\n        InvestmentState state;\n    }\n\n    constructor(address payable _feeAccount, uint256 _traderFeePercent, uint256 _investorFeePercent) public {\n        feeAccount = _feeAccount;\n        traderFeePercent = _traderFeePercent;\n        investorFeePercent = _investorFeePercent;\n    }\n\n    // reverts if ether is sent directly\n    fallback() external {\n        revert();\n    }\n\n    function joinAsTrader(uint256 _investorProfitPercent) public {\n        require(\n            _investorProfitPercent < 10000 && \n            _investorProfitPercent >= investorFeePercent);\n\n        traderCount = traderCount.add(1);\n        traderList[traderCount] = msg.sender;\n\n        traders[msg.sender] = _Trader(\n                traderCount,\n                msg.sender, \n                _investorProfitPercent,\n                0,\n                0\n            );\n        \n\n        emit Trader(msg.sender, traderCount, _investorProfitPercent);\n    }\n\n    function joinAsInvestor() public {\n        investorCount = investorCount.add(1);\n        investorList[investorCount] = msg.sender;\n        investors[msg.sender] = _Investor(\n                investorCount,\n                msg.sender,\n                0\n            );\n\n        emit Investor(msg.sender, investorCount);\n    }\n\n    /**\n        Investor deposits money into the contract for the purposes of later investment\n    */\n    function deposit() public payable {\n        _Investor storage _investor = investors[msg.sender];\n        require(_investor.user == msg.sender);\n        _investor.balance = _investor.balance.add(msg.value);\n        emit Deposit(msg.sender, _investor.id, msg.value, _investor.balance);\n    }\n\n    /**\n        Investor withdraws previously deposited funds, perhaps including profits (and losses)\n    */\n    function withdraw(uint256 _amount) public {\n        _Investor storage _investor = investors[msg.sender];\n        require(_investor.user == msg.sender);\n        require(_investor.balance >= _amount);\n        _investor.balance = _investor.balance.sub(_amount);\n        msg.sender.transfer(_amount);\n        emit Withdraw(msg.sender, _investor.id, _amount, _investor.balance);\n    }\n\n    /**\n        Investor allocates funds to a trader for investment\n    */\n    function invest(address _traderAddress, uint256 _amount) public {\n        _Investor storage _investor = investors[msg.sender];\n        require(_investor.user == msg.sender);\n\n        _Trader storage _trader = traders[_traderAddress];\n        require(_trader.user == _traderAddress);\n        require(_investor.balance >= _amount);\n\n        _investor.balance = _investor.balance.sub(_amount);\n        _trader.balance = _trader.balance.add(_amount);\n        _trader.user.transfer(_amount);\n\n        _trader.investmentCount = _trader.investmentCount.add(1);\n        investments[_trader.user][_trader.investmentCount] = _Investment(\n                _trader.user,\n                _investor.user,\n                _amount,\n                now,\n                0,\n                0,\n                0,\n                0,\n                InvestmentState.Invested\n            );\n\n        emit Invest(\n            _trader.investmentCount, \n            msg.sender, \n            _trader.user, \n            _amount, \n            _investor.balance\n        );\n    }\n\n    /**\n        Investor requests an exit, indicating the nett profit\n    */\n    function requestExit(address _traderAddress, uint256 _investmentId, uint256 _value) external {\n        _Trader storage _trader = traders[_traderAddress];\n        require(_trader.user == _traderAddress);\n        require(investments[_traderAddress][_investmentId].investor == msg.sender);\n        require(investments[_traderAddress][_investmentId].state == InvestmentState.Invested);\n\n        if (_value > investments[_traderAddress][_investmentId].amount) {\n            // profit\n            uint256 _investorProfitPercent = _trader.investorProfitPercent.sub(investorFeePercent);\n            uint256 _traderProfitPercent = uint256(10000).sub(_trader.investorProfitPercent).sub(traderFeePercent);\n\n            uint256 _profit = _value - investments[_traderAddress][_investmentId].amount;\n            uint256 _investorProfit = _profit.mul(_investorProfitPercent).div(10000);\n            uint256 _traderProfit = _profit.mul(_traderProfitPercent).div(10000);\n            uint256 _fee = _profit.sub(_investorProfit).sub(_traderProfit);\n\n            investments[_traderAddress][_investmentId].investorProfit = _investorProfit;\n            investments[_traderAddress][_investmentId].platformFee = _fee;\n\n        } else if (_value <= investments[_traderAddress][_investmentId].amount) {\n            // break even or loss\n            investments[_traderAddress][_investmentId].investorProfit = 0;\n            investments[_traderAddress][_investmentId].platformFee = 0;\n        }\n        \n        investments[_traderAddress][_investmentId].endDate = now;\n        investments[_traderAddress][_investmentId].value = _value;\n        investments[_traderAddress][_investmentId].state = InvestmentState.ExitRequested;\n\n        emit RequestExit(\n            _traderAddress, \n            _investmentId, \n            investments[_traderAddress][_investmentId].endDate, \n            _value, \n            investments[_traderAddress][_investmentId].investorProfit, \n            investments[_traderAddress][_investmentId].platformFee\n        );\n    }\n\n    /**\n        Investor cancels an exit request\n    */\n    function cancelExit(address _traderAddress, uint256 _investmentId) external {\n        require(investments[_traderAddress][_investmentId].investor == msg.sender);\n        require(investments[_traderAddress][_investmentId].state == InvestmentState.ExitRequested);\n\n        investments[_traderAddress][_investmentId].state = InvestmentState.Invested;\n\n        emit CancelExit(\n            _traderAddress, \n            _investmentId\n        );\n    }\n\n    /**\n        Trader rejects the exit request\n        Perhaps the investor made a false profit claim\n        This will now enter a dispute workflow managed on the client\n    */\n    function rejectExit(uint256 _investmentId) external {\n        require(investments[msg.sender][_investmentId].trader == msg.sender);\n        require(investments[msg.sender][_investmentId].state == InvestmentState.ExitRequested);\n        \n        investments[msg.sender][_investmentId].state = InvestmentState.ExitRejected;\n\n        emit RejectExit(\n            msg.sender, \n            _investmentId\n        );\n    }\n\n    /**\n        Trader approves the exit by paying the nett profit back to the contract, under the name of the investor\n    */\n    function approveExit(uint256 _investmentId, address _investorAddress) external payable {\n        _Trader storage _trader = traders[msg.sender];\n        require(_trader.user == msg.sender);\n        _Investor storage _investor = investors[_investorAddress];\n        require(_investor.user == _investorAddress);\n        require(investments[msg.sender][_investmentId].trader == msg.sender);\n        require(investments[msg.sender][_investmentId].state == InvestmentState.ExitRequested);\n        require(_trader.balance >= investments[msg.sender][_investmentId].amount);\n        \n        uint256 _nettAmount = 0;\n\n        if (investments[msg.sender][_investmentId].value > investments[msg.sender][_investmentId].amount) {\n            // profit\n            _nettAmount = investments[msg.sender][_investmentId].investorProfit.add(investments[msg.sender][_investmentId].amount);\n            require(_nettAmount.add(investments[msg.sender][_investmentId].platformFee) == msg.value);\n\n            feeAccount.transfer(investments[msg.sender][_investmentId].platformFee);\n\n        } else if (investments[msg.sender][_investmentId].value == investments[msg.sender][_investmentId].amount) {\n            // break even\n            _nettAmount = investments[msg.sender][_investmentId].amount;\n            require(_nettAmount == msg.value);\n        } else {\n            // loss\n            _nettAmount = investments[msg.sender][_investmentId].amount - (investments[msg.sender][_investmentId].amount - investments[msg.sender][_investmentId].value);\n            require(_nettAmount == msg.value);\n        }\n\n        investments[msg.sender][_investmentId].state = InvestmentState.Divested;\n        // subtract the original invested amount from the trader balance\n        _trader.balance = _trader.balance.sub(investments[msg.sender][_investmentId].amount);\n\n        // add the nettAmount to the investor balance\n        _investor.balance = _investor.balance.add(_nettAmount);\n\n        emit ApproveExit(\n            msg.sender,\n            _investmentId,\n            _nettAmount\n        );\n    }\n}\n",
  "sourcePath": "/Users/jaco/dev/workspace/ethereum/tradeinvest/src/contracts/CrowdVest.sol",
  "compiler": {
    "name": "solc",
    "version": "0.6.8+commit.0bbfe453.Emscripten.clang"
  },
  "schemaVersion": "3.1.0",
  "updatedAt": "2020-06-06T13:07:01.197Z",
  "networkType": "ethereum",
  "devdoc": {
    "methods": {}
  },
  "userdoc": {
    "methods": {
      "approveExit(uint256,address)": {
        "notice": "Trader approves the exit by paying the nett profit back to the contract, under the name of the investor"
      },
      "cancelExit(address,uint256)": {
        "notice": "Investor cancels an exit request"
      },
      "deposit()": {
        "notice": "Investor deposits money into the contract for the purposes of later investment"
      },
      "invest(address,uint256)": {
        "notice": "Investor allocates funds to a trader for investment"
      },
      "rejectExit(uint256)": {
        "notice": "Trader rejects the exit request Perhaps the investor made a false profit claim This will now enter a dispute workflow managed on the client"
      },
      "requestExit(address,uint256,uint256)": {
        "notice": "Investor requests an exit, indicating the nett profit"
      },
      "withdraw(uint256)": {
        "notice": "Investor withdraws previously deposited funds, perhaps including profits (and losses)"
      }
    }
  }
}