{
  "contractName": "DecentraVest",
  "abi": [
    {
      "inputs": [
        {
          "internalType": "address payable",
          "name": "_feeAccount",
          "type": "address"
        },
        {
          "internalType": "uint256",
          "name": "_traderFeePercent",
          "type": "uint256"
        },
        {
          "internalType": "uint256",
          "name": "_investorFeePercent",
          "type": "uint256"
        }
      ],
      "payable": false,
      "stateMutability": "nonpayable",
      "type": "constructor"
    },
    {
      "anonymous": false,
      "inputs": [
        {
          "indexed": true,
          "internalType": "address",
          "name": "trader",
          "type": "address"
        },
        {
          "indexed": false,
          "internalType": "address",
          "name": "token",
          "type": "address"
        },
        {
          "indexed": false,
          "internalType": "uint256",
          "name": "amount",
          "type": "uint256"
        }
      ],
      "name": "Allocate",
      "type": "event"
    },
    {
      "anonymous": false,
      "inputs": [
        {
          "indexed": true,
          "internalType": "address",
          "name": "trader",
          "type": "address"
        },
        {
          "indexed": false,
          "internalType": "uint256",
          "name": "investmentId",
          "type": "uint256"
        },
        {
          "indexed": false,
          "internalType": "uint256",
          "name": "traderAmount",
          "type": "uint256"
        },
        {
          "indexed": false,
          "internalType": "uint256",
          "name": "investorAmount",
          "type": "uint256"
        }
      ],
      "name": "ApproveExit",
      "type": "event"
    },
    {
      "anonymous": false,
      "inputs": [
        {
          "indexed": false,
          "internalType": "uint256",
          "name": "id",
          "type": "uint256"
        },
        {
          "indexed": true,
          "internalType": "address",
          "name": "investor",
          "type": "address"
        },
        {
          "indexed": true,
          "internalType": "address",
          "name": "trader",
          "type": "address"
        },
        {
          "indexed": true,
          "internalType": "address",
          "name": "token",
          "type": "address"
        },
        {
          "indexed": false,
          "internalType": "uint256",
          "name": "amount",
          "type": "uint256"
        }
      ],
      "name": "Invest",
      "type": "event"
    },
    {
      "anonymous": false,
      "inputs": [
        {
          "indexed": true,
          "internalType": "address",
          "name": "investor",
          "type": "address"
        },
        {
          "indexed": false,
          "internalType": "uint256",
          "name": "investorId",
          "type": "uint256"
        }
      ],
      "name": "Investor",
      "type": "event"
    },
    {
      "anonymous": false,
      "inputs": [
        {
          "indexed": true,
          "internalType": "address",
          "name": "trader",
          "type": "address"
        },
        {
          "indexed": false,
          "internalType": "uint256",
          "name": "investmentId",
          "type": "uint256"
        }
      ],
      "name": "RejectExit",
      "type": "event"
    },
    {
      "anonymous": false,
      "inputs": [
        {
          "indexed": true,
          "internalType": "address",
          "name": "trader",
          "type": "address"
        },
        {
          "indexed": false,
          "internalType": "uint256",
          "name": "investmentId",
          "type": "uint256"
        },
        {
          "indexed": false,
          "internalType": "uint256",
          "name": "date",
          "type": "uint256"
        },
        {
          "indexed": false,
          "internalType": "uint256",
          "name": "value",
          "type": "uint256"
        },
        {
          "indexed": false,
          "internalType": "uint256",
          "name": "traderProfit",
          "type": "uint256"
        },
        {
          "indexed": false,
          "internalType": "uint256",
          "name": "investorProfit",
          "type": "uint256"
        },
        {
          "indexed": false,
          "internalType": "uint256",
          "name": "traderFee",
          "type": "uint256"
        },
        {
          "indexed": false,
          "internalType": "uint256",
          "name": "investorFee",
          "type": "uint256"
        }
      ],
      "name": "RequestExit",
      "type": "event"
    },
    {
      "anonymous": false,
      "inputs": [
        {
          "indexed": true,
          "internalType": "address",
          "name": "trader",
          "type": "address"
        },
        {
          "indexed": false,
          "internalType": "uint256",
          "name": "traderId",
          "type": "uint256"
        },
        {
          "indexed": false,
          "internalType": "uint256",
          "name": "investorProfitPercent",
          "type": "uint256"
        }
      ],
      "name": "Trader",
      "type": "event"
    },
    {
      "anonymous": false,
      "inputs": [
        {
          "indexed": true,
          "internalType": "address",
          "name": "token",
          "type": "address"
        },
        {
          "indexed": true,
          "internalType": "address",
          "name": "user",
          "type": "address"
        },
        {
          "indexed": false,
          "internalType": "uint256",
          "name": "amount",
          "type": "uint256"
        },
        {
          "indexed": false,
          "internalType": "uint256",
          "name": "balance",
          "type": "uint256"
        }
      ],
      "name": "Withdraw",
      "type": "event"
    },
    {
      "payable": false,
      "stateMutability": "nonpayable",
      "type": "fallback"
    },
    {
      "constant": true,
      "inputs": [
        {
          "internalType": "address",
          "name": "",
          "type": "address"
        },
        {
          "internalType": "address",
          "name": "",
          "type": "address"
        }
      ],
      "name": "allocations",
      "outputs": [
        {
          "internalType": "uint256",
          "name": "total",
          "type": "uint256"
        },
        {
          "internalType": "uint256",
          "name": "invested",
          "type": "uint256"
        }
      ],
      "payable": false,
      "stateMutability": "view",
      "type": "function"
    },
    {
      "constant": true,
      "inputs": [
        {
          "internalType": "address",
          "name": "",
          "type": "address"
        },
        {
          "internalType": "address",
          "name": "",
          "type": "address"
        }
      ],
      "name": "balances",
      "outputs": [
        {
          "internalType": "uint256",
          "name": "",
          "type": "uint256"
        }
      ],
      "payable": false,
      "stateMutability": "view",
      "type": "function"
    },
    {
      "constant": true,
      "inputs": [],
      "name": "feeAccount",
      "outputs": [
        {
          "internalType": "address",
          "name": "",
          "type": "address"
        }
      ],
      "payable": false,
      "stateMutability": "view",
      "type": "function"
    },
    {
      "constant": true,
      "inputs": [],
      "name": "investmentCount",
      "outputs": [
        {
          "internalType": "uint256",
          "name": "",
          "type": "uint256"
        }
      ],
      "payable": false,
      "stateMutability": "view",
      "type": "function"
    },
    {
      "constant": true,
      "inputs": [
        {
          "internalType": "uint256",
          "name": "",
          "type": "uint256"
        }
      ],
      "name": "investments",
      "outputs": [
        {
          "internalType": "uint256",
          "name": "id",
          "type": "uint256"
        },
        {
          "internalType": "address payable",
          "name": "trader",
          "type": "address"
        },
        {
          "internalType": "address payable",
          "name": "investor",
          "type": "address"
        },
        {
          "internalType": "address",
          "name": "token",
          "type": "address"
        },
        {
          "internalType": "uint256",
          "name": "amount",
          "type": "uint256"
        },
        {
          "internalType": "uint256",
          "name": "startDate",
          "type": "uint256"
        },
        {
          "internalType": "uint256",
          "name": "endDate",
          "type": "uint256"
        },
        {
          "internalType": "uint256",
          "name": "value",
          "type": "uint256"
        },
        {
          "internalType": "uint256",
          "name": "traderProfit",
          "type": "uint256"
        },
        {
          "internalType": "uint256",
          "name": "investorProfit",
          "type": "uint256"
        },
        {
          "internalType": "uint256",
          "name": "traderFee",
          "type": "uint256"
        },
        {
          "internalType": "uint256",
          "name": "investorFee",
          "type": "uint256"
        },
        {
          "internalType": "enum DecentraVest.InvestmentState",
          "name": "state",
          "type": "uint8"
        }
      ],
      "payable": false,
      "stateMutability": "view",
      "type": "function"
    },
    {
      "constant": true,
      "inputs": [],
      "name": "investorCount",
      "outputs": [
        {
          "internalType": "uint256",
          "name": "",
          "type": "uint256"
        }
      ],
      "payable": false,
      "stateMutability": "view",
      "type": "function"
    },
    {
      "constant": true,
      "inputs": [],
      "name": "investorFeePercent",
      "outputs": [
        {
          "internalType": "uint256",
          "name": "",
          "type": "uint256"
        }
      ],
      "payable": false,
      "stateMutability": "view",
      "type": "function"
    },
    {
      "constant": true,
      "inputs": [
        {
          "internalType": "address",
          "name": "",
          "type": "address"
        },
        {
          "internalType": "uint256",
          "name": "",
          "type": "uint256"
        }
      ],
      "name": "investorInvestments",
      "outputs": [
        {
          "internalType": "uint256",
          "name": "",
          "type": "uint256"
        }
      ],
      "payable": false,
      "stateMutability": "view",
      "type": "function"
    },
    {
      "constant": true,
      "inputs": [
        {
          "internalType": "uint256",
          "name": "",
          "type": "uint256"
        }
      ],
      "name": "investorList",
      "outputs": [
        {
          "internalType": "address",
          "name": "",
          "type": "address"
        }
      ],
      "payable": false,
      "stateMutability": "view",
      "type": "function"
    },
    {
      "constant": true,
      "inputs": [
        {
          "internalType": "address",
          "name": "",
          "type": "address"
        }
      ],
      "name": "investors",
      "outputs": [
        {
          "internalType": "uint256",
          "name": "id",
          "type": "uint256"
        },
        {
          "internalType": "address payable",
          "name": "user",
          "type": "address"
        },
        {
          "internalType": "uint256",
          "name": "investmentCount",
          "type": "uint256"
        }
      ],
      "payable": false,
      "stateMutability": "view",
      "type": "function"
    },
    {
      "constant": true,
      "inputs": [],
      "name": "traderCount",
      "outputs": [
        {
          "internalType": "uint256",
          "name": "",
          "type": "uint256"
        }
      ],
      "payable": false,
      "stateMutability": "view",
      "type": "function"
    },
    {
      "constant": true,
      "inputs": [],
      "name": "traderFeePercent",
      "outputs": [
        {
          "internalType": "uint256",
          "name": "",
          "type": "uint256"
        }
      ],
      "payable": false,
      "stateMutability": "view",
      "type": "function"
    },
    {
      "constant": true,
      "inputs": [
        {
          "internalType": "address",
          "name": "",
          "type": "address"
        },
        {
          "internalType": "uint256",
          "name": "",
          "type": "uint256"
        }
      ],
      "name": "traderInvestments",
      "outputs": [
        {
          "internalType": "uint256",
          "name": "",
          "type": "uint256"
        }
      ],
      "payable": false,
      "stateMutability": "view",
      "type": "function"
    },
    {
      "constant": true,
      "inputs": [
        {
          "internalType": "uint256",
          "name": "",
          "type": "uint256"
        }
      ],
      "name": "traderList",
      "outputs": [
        {
          "internalType": "address",
          "name": "",
          "type": "address"
        }
      ],
      "payable": false,
      "stateMutability": "view",
      "type": "function"
    },
    {
      "constant": true,
      "inputs": [
        {
          "internalType": "address",
          "name": "",
          "type": "address"
        }
      ],
      "name": "traders",
      "outputs": [
        {
          "internalType": "uint256",
          "name": "id",
          "type": "uint256"
        },
        {
          "internalType": "address payable",
          "name": "user",
          "type": "address"
        },
        {
          "internalType": "uint256",
          "name": "investorProfitPercent",
          "type": "uint256"
        },
        {
          "internalType": "uint256",
          "name": "investmentCount",
          "type": "uint256"
        }
      ],
      "payable": false,
      "stateMutability": "view",
      "type": "function"
    },
    {
      "constant": false,
      "inputs": [
        {
          "internalType": "uint256",
          "name": "_investorProfitPercent",
          "type": "uint256"
        }
      ],
      "name": "joinAsTrader",
      "outputs": [],
      "payable": false,
      "stateMutability": "nonpayable",
      "type": "function"
    },
    {
      "constant": false,
      "inputs": [],
      "name": "joinAsInvestor",
      "outputs": [],
      "payable": false,
      "stateMutability": "nonpayable",
      "type": "function"
    },
    {
      "constant": false,
      "inputs": [
        {
          "internalType": "address",
          "name": "_token",
          "type": "address"
        },
        {
          "internalType": "uint256",
          "name": "_amount",
          "type": "uint256"
        }
      ],
      "name": "allocate",
      "outputs": [],
      "payable": false,
      "stateMutability": "nonpayable",
      "type": "function"
    },
    {
      "constant": false,
      "inputs": [
        {
          "internalType": "address",
          "name": "_traderAddress",
          "type": "address"
        }
      ],
      "name": "investEther",
      "outputs": [],
      "payable": true,
      "stateMutability": "payable",
      "type": "function"
    },
    {
      "constant": false,
      "inputs": [
        {
          "internalType": "address",
          "name": "_traderAddress",
          "type": "address"
        },
        {
          "internalType": "address",
          "name": "_token",
          "type": "address"
        },
        {
          "internalType": "uint256",
          "name": "_amount",
          "type": "uint256"
        }
      ],
      "name": "investToken",
      "outputs": [],
      "payable": false,
      "stateMutability": "nonpayable",
      "type": "function"
    },
    {
      "constant": false,
      "inputs": [
        {
          "internalType": "address",
          "name": "_traderAddress",
          "type": "address"
        },
        {
          "internalType": "uint256",
          "name": "_investmentId",
          "type": "uint256"
        },
        {
          "internalType": "uint256",
          "name": "_value",
          "type": "uint256"
        }
      ],
      "name": "requestExit",
      "outputs": [],
      "payable": false,
      "stateMutability": "nonpayable",
      "type": "function"
    },
    {
      "constant": false,
      "inputs": [
        {
          "internalType": "uint256",
          "name": "_investmentId",
          "type": "uint256"
        }
      ],
      "name": "rejectExit",
      "outputs": [],
      "payable": false,
      "stateMutability": "nonpayable",
      "type": "function"
    },
    {
      "constant": false,
      "inputs": [
        {
          "internalType": "uint256",
          "name": "_investmentId",
          "type": "uint256"
        },
        {
          "internalType": "address",
          "name": "_investorAddress",
          "type": "address"
        }
      ],
      "name": "approveExitEther",
      "outputs": [],
      "payable": true,
      "stateMutability": "payable",
      "type": "function"
    },
    {
      "constant": false,
      "inputs": [
        {
          "internalType": "uint256",
          "name": "_investmentId",
          "type": "uint256"
        },
        {
          "internalType": "address",
          "name": "_investorAddress",
          "type": "address"
        },
        {
          "internalType": "address",
          "name": "_token",
          "type": "address"
        },
        {
          "internalType": "uint256",
          "name": "_amount",
          "type": "uint256"
        }
      ],
      "name": "approveExitToken",
      "outputs": [],
      "payable": false,
      "stateMutability": "nonpayable",
      "type": "function"
    },
    {
      "constant": false,
      "inputs": [
        {
          "internalType": "uint256",
          "name": "_amount",
          "type": "uint256"
        }
      ],
      "name": "withdrawEther",
      "outputs": [],
      "payable": false,
      "stateMutability": "nonpayable",
      "type": "function"
    },
    {
      "constant": false,
      "inputs": [
        {
          "internalType": "address",
          "name": "_token",
          "type": "address"
        },
        {
          "internalType": "uint256",
          "name": "_amount",
          "type": "uint256"
        }
      ],
      "name": "withdrawToken",
      "outputs": [],
      "payable": false,
      "stateMutability": "nonpayable",
      "type": "function"
    }
  ],
  "bytecode": "0x608060405234801561001057600080fd5b506040516122523803806122528339818101604052606081101561003357600080fd5b5080516020820151604090920151600080546001600160a01b039093166001600160a01b0319909316929092179091556001919091556002556121d78061007b6000396000f3fe6080604052600436106101815760003560e01c80637e6fc89f116100d1578063b78b52df1161008a578063d7e64c0011610064578063d7e64c00146105f8578063d8f31b601461060d578063eef90b6214610639578063fd345c8a1461067257610181565b8063b78b52df1461055a578063c23f001f14610593578063c9d25111146105ce57610181565b80637e6fc89f14610403578063853996e4146104425780638c68770b1461049657806391db6bb5146104ab57806392a88fa2146104c05780639e281a981461052157610181565b80635a77c18d1161013e57806369dc67651161011857806369dc6765146103375780636e1469981461034c5780636f7bc9be146103615780637807106c146103ba57610181565b80635a77c18d146102c35780635ccaa931146102fc57806365e17c9d1461032257610181565b806312f9b48e14610193578063246b0e5c146101d9578063320cbd1e146102005780633bed33ce1461022c5780633e34ed101461025657806352adcb8e14610299575b34801561018d57600080fd5b50600080fd5b34801561019f57600080fd5b506101bd600480360360208110156101b657600080fd5b503561074a565b604080516001600160a01b039092168252519081900360200190f35b3480156101e557600080fd5b506101ee610765565b60408051918252519081900360200190f35b34801561020c57600080fd5b5061022a6004803603602081101561022357600080fd5b503561076b565b005b34801561023857600080fd5b5061022a6004803603602081101561024f57600080fd5b5035610938565b34801561026257600080fd5b5061022a6004803603606081101561027957600080fd5b506001600160a01b03813581169160208101359091169060400135610a27565b3480156102a557600080fd5b5061022a600480360360208110156102bc57600080fd5b5035610e0d565b3480156102cf57600080fd5b506101ee600480360360408110156102e657600080fd5b506001600160a01b038135169060200135610eb6565b61022a6004803603602081101561031257600080fd5b50356001600160a01b0316610ed3565b34801561032e57600080fd5b506101bd611226565b34801561034357600080fd5b506101ee611235565b34801561035857600080fd5b5061022a61123b565b34801561036d57600080fd5b506103946004803603602081101561038457600080fd5b50356001600160a01b03166113d5565b604080519384526001600160a01b03909216602084015282820152519081900360600190f35b3480156103c657600080fd5b5061022a600480360360808110156103dd57600080fd5b508035906001600160a01b036020820135811691604081013590911690606001356113ff565b34801561040f57600080fd5b5061022a6004803603606081101561042657600080fd5b506001600160a01b038135169060208101359060400135611411565b34801561044e57600080fd5b5061047d6004803603604081101561046557600080fd5b506001600160a01b0381358116916020013516611701565b6040805192835260208301919091528051918290030190f35b3480156104a257600080fd5b506101ee611725565b3480156104b757600080fd5b506101ee61172b565b3480156104cc57600080fd5b506104f3600480360360208110156104e357600080fd5b50356001600160a01b0316611731565b604080519485526001600160a01b039093166020850152838301919091526060830152519081900360800190f35b34801561052d57600080fd5b5061022a6004803603604081101561054457600080fd5b506001600160a01b038135169060200135611762565b34801561056657600080fd5b5061022a6004803603604081101561057d57600080fd5b506001600160a01b0381351690602001356118cd565b34801561059f57600080fd5b506101ee600480360360408110156105b657600080fd5b506001600160a01b03813581169160200135166119d8565b3480156105da57600080fd5b506101bd600480360360208110156105f157600080fd5b50356119f5565b34801561060457600080fd5b506101ee611a10565b61022a6004803603604081101561062357600080fd5b50803590602001356001600160a01b0316611a16565b34801561064557600080fd5b506101ee6004803603604081101561065c57600080fd5b506001600160a01b038135169060200135611a27565b34801561067e57600080fd5b5061069c6004803603602081101561069557600080fd5b5035611a44565b604051808e81526020018d6001600160a01b03166001600160a01b031681526020018c6001600160a01b03166001600160a01b031681526020018b6001600160a01b03166001600160a01b031681526020018a815260200189815260200188815260200187815260200186815260200185815260200184815260200183815260200182600381111561072a57fe5b60ff1681526020019d505050505050505050505050505060405180910390f35b600e602052600090815260409020546001600160a01b031681565b60045481565b336000908152600960205260409020600101546001600160a01b0316156107d9576040805162461bcd60e51b815260206004820152601c60248201527f416c726561647920726567697374657265642061732074726164657200000000604482015290519081900360640190fd5b336000908152600a60205260409020600101546001600160a01b031615610847576040805162461bcd60e51b815260206004820152601e60248201527f416c7265616479207265676973746572656420617320696e766573746f720000604482015290519081900360640190fd5b6127108110801561085a57506002548110155b61086357600080fd5b600b5461087790600163ffffffff611abe16565b600b8181556000918252600d602090815260408084208054336001600160a01b0319918216811790925582516080810184528554815280850183815281850189815260608301898152858a5260098852988690209251835590516001830180549094166001600160a01b03909116179092559051600282015594516003909501949094559154825190815290810184905281517f2443e16faef9accaee1c7486a06f0da588a8f541204a9e4bca14555672cae000929181900390910190a250565b33600090815260086020908152604080832083805290915290205481111561095f57600080fd5b33600090815260086020908152604080832083805290915290205461098a908263ffffffff611b2116565b336000818152600860209081526040808320838052909152808220939093559151909183156108fc02918491818181858888f193505050501580156109d3573d6000803e3d6000fd5b5033600081815260086020908152604080832083805282528083205481518681529283015280517ff341246adaac6f497bc2a656f546ab9e182111d630394f0c57c710a59a2cb5679281900390910190a350565b336000818152600a60205260409020600181015490916001600160a01b0390911614610a5257600080fd5b6001600160a01b038085166000818152600960205260409020600181015490921614610a7d57600080fd5b6001818101546001600160a01b03908116600090815260076020908152604080832093891683529290522090810154905403831115610abb57600080fd5b6040805163a9059cbb60e01b81523060048201526024810185905290516001600160a01b0386169163a9059cbb9160448083019260209291908290030181600087803b158015610b0a57600080fd5b505af1158015610b1e573d6000803e3d6000fd5b505050506040513d6020811015610b3457600080fd5b5051610b3f57600080fd5b6001808201546001600160a01b0390811660009081526007602090815260408083209389168352929052200154610b7c908463ffffffff611abe16565b6001808301546001600160a01b039081166000908152600760209081526040808320938a16835292905220810191909155600454610bbf9163ffffffff611abe16565b6004819055604080516101a0810182529182526001808401546001600160a01b0390811660208501529085015481169183019190915285166060820152608081018490524260a0820152600060c0820181905260e082018190526101008201819052610120820181905261014082018190526101608201819052610180820152600480546000908152600360208181526040928390208551815590850151600180830180546001600160a01b03199081166001600160a01b03948516179091559487015160028401805487169184169190911790556060870151838501805490961692169190911790935560808501519381019390935560a0840151600584015560c0840151600684015560e0840151600784015561010084015160088401556101208401516009840155610140840151600a840155610160840151600b840155610180840151600c840180549193909260ff19909216918490811115610d2257fe5b021790555050506003810154610d3f90600163ffffffff611abe16565b600382018190556004546001808401546001600160a01b0316600090815260056020908152604080832095835294905292909220556002830154610d889163ffffffff611abe16565b600283018190556004546001808501546001600160a01b03908116600090815260066020908152604080832096835295815290859020849055918501548451938452918301879052835188821694929091169233927f74ab455bf1fbf7a48394cdd46b35b3bb6b086b10d5c21b4f4ea561cdc2c8493b92918290030190a45050505050565b6000818152600360205260409020600101546001600160a01b03163314610e3357600080fd5b60016000828152600360208190526040909120600c015460ff1690811115610e5757fe5b14610e6157600080fd5b600081815260036020908152604091829020600c01805460ff191660021790558151838152915133927fb392219ec131a66afaabf07885d1a01be712cce8a51d649cffa2060e85366fe492908290030190a250565b600560209081526000928352604080842090915290825290205481565b336000818152600a60205260409020600181015490916001600160a01b0390911614610efe57600080fd5b6001600160a01b038083166000818152600960205260409020600181015490921614610f2957600080fd5b6001818101546001600160a01b031660009081526007602090815260408083208380529091529020908101549054349190031015610f6657600080fd5b6001808201546001600160a01b0316600090815260076020908152604080832083805290915290200154610fa0903463ffffffff611abe16565b6001808301546001600160a01b031660009081526007602090815260408083208380529091529020810191909155600454610fe09163ffffffff611abe16565b6004819055604080516101a0810182529182526001808401546001600160a01b0390811660208501529085015416908201526000606082018190523460808301524260a083015260c0820181905260e082018190526101008201819052610120820181905261014082018190526101608201819052610180820152600480546000908152600360208181526040928390208551815590850151600180830180546001600160a01b03199081166001600160a01b03948516179091559487015160028401805487169184169190911790556060870151838501805490961692169190911790935560808501519381019390935560a0840151600584015560c0840151600684015560e0840151600784015561010084015160088401556101208401516009840155610140840151600a840155610160840151600b840155610180840151600c840180549193909260ff1990921691849081111561113e57fe5b02179055505050600381015461115b90600163ffffffff611abe16565b600382018190556004546001808401546001600160a01b03166000908152600560209081526040808320958352949052929092205560028301546111a49163ffffffff611abe16565b600283018190556004546001808501546001600160a01b039081166000908152600660209081526040808320968352958152858220859055928601548551948552349385019390935284519094929091169233927f74ab455bf1fbf7a48394cdd46b35b3bb6b086b10d5c21b4f4ea561cdc2c8493b92918290030190a4505050565b6000546001600160a01b031681565b600b5481565b336000908152600960205260409020600101546001600160a01b0316156112a9576040805162461bcd60e51b815260206004820152601c60248201527f416c726561647920726567697374657265642061732074726164657200000000604482015290519081900360640190fd5b336000908152600a60205260409020600101546001600160a01b031615611317576040805162461bcd60e51b815260206004820152601e60248201527f416c7265616479207265676973746572656420617320696e766573746f720000604482015290519081900360640190fd5b600c5461132b90600163ffffffff611abe16565b600c8181556000918252600e602090815260408084208054336001600160a01b03199182168117909255825160608101845285548152808501838152818501888152848952600a87529785902091518255516001820180549093166001600160a01b039091161790915594516002909501949094559154825190815291517f7eb3885ab39ec25048338624e839a2b90fe3079bb88b9c697f56cfff314719359281900390910190a2565b600a6020526000908152604090208054600182015460029092015490916001600160a01b03169083565b61140b84848484611b63565b50505050565b6001600160a01b03808416600081815260096020526040902060018101549092161461143c57600080fd5b6000838152600360205260409020600201546001600160a01b0316331461146257600080fd5b6000838152600360205260409020600101546001600160a01b0385811691161461148b57600080fd5b60008381526003602081905260408220600c015460ff16908111156114ac57fe5b146114b657600080fd5b6000838152600360205260409020600401548211156115e45760006114ea6002548360020154611b2190919063ffffffff16565b9050600061151960015461150d8560020154612710611b2190919063ffffffff16565b9063ffffffff611b2116565b60008681526003602052604081206004015491925090850390611554612710611548848763ffffffff611fb916565b9063ffffffff61201216565b9050600061156e612710611548858763ffffffff611fb916565b905060006115868261150d868663ffffffff611b2116565b9050600061159b82600263ffffffff61201216565b905060006115af838363ffffffff611b2116565b60008c81526003602052604090206008810195909555600985019590955550600a83019390935550600b015550611650915050565b600083815260036020526040812060088101829055600981019190915560015460049091015461163391612710916115489190611627908763ffffffff611b2116565b9063ffffffff611fb916565b6000848152600360205260408120600a810192909255600b909101555b600083815260036020908152604091829020426006820181905560078201869055600c82018054600160ff1990911617905560088201546009830154600a840154600b9094015486518a8152958601939093528486018890526060850191909152608084015260a083019190915260c082015290516001600160a01b038616917fe93d5cdcdc6e5b7ce9050f626fbe0ff4b4ec5c7675cdee914b14cd959e7a23ff919081900360e00190a250505050565b60076020908152600092835260408084209091529082529020805460019091015482565b60025481565b60015481565b600960205260009081526040902080546001820154600283015460039093015491926001600160a01b039091169184565b6001600160a01b03821661177557600080fd5b3360009081526008602090815260408083206001600160a01b03861684529091529020548111156117a557600080fd5b604080516323b872dd60e01b81523060048201523360248201526044810183905290516001600160a01b038416916323b872dd9160648083019260209291908290030181600087803b1580156117fa57600080fd5b505af115801561180e573d6000803e3d6000fd5b505050506040513d602081101561182457600080fd5b505161182f57600080fd5b3360009081526008602090815260408083206001600160a01b0386168452909152902054611863908263ffffffff611b2116565b3360008181526008602090815260408083206001600160a01b038816808552908352928190208590558051868152918201949094528351929391927ff341246adaac6f497bc2a656f546ab9e182111d630394f0c57c710a59a2cb567929181900390910190a35050565b6118d5612150565b503360008181526009602090815260409182902082516080810184528154815260018201546001600160a01b031692810183905260028201549381019390935260030154606083015290911461192a57600080fd5b3360009081526007602090815260408083206001600160a01b03871684529091529020541561195857600080fd5b6040805180820182528381526000602080830182815233808452600783528584206001600160a01b038a168086529084529386902094518555905160019094019390935583519182528101859052825191927f5168bfb88d6125d4580e2b91ecb103a730312c3e8b0be9c4031a0fc794e2cd5f92918290030190a2505050565b600860209081526000928352604080842090915290825290205481565b600d602052600090815260409020546001600160a01b031681565b600c5481565b611a238282600034611b63565b5050565b600660209081526000928352604080842090915290825290205481565b600360208190526000918252604090912080546001820154600283015493830154600484015460058501546006860154600787015460088801546009890154600a8a0154600b8b0154600c909b0154999b6001600160a01b03998a169b908a169a9890991698969795969495939492939192909160ff168d565b600082820183811015611b18576040805162461bcd60e51b815260206004820152601b60248201527f536166654d6174683a206164646974696f6e206f766572666c6f770000000000604482015290519081900360640190fd5b90505b92915050565b6000611b1883836040518060400160405280601e81526020017f536166654d6174683a207375627472616374696f6e206f766572666c6f770000815250612054565b336000818152600960205260409020600181015490916001600160a01b0390911614611b8e57600080fd5b6001600160a01b038085166000818152600a60205260409020600181015490921614611bb957600080fd5b6000868152600360205260409020600101546001600160a01b03163314611bdf57600080fd5b60016000878152600360208190526040909120600c015460ff1690811115611c0357fe5b14611c0d57600080fd5b6000868152600360205260409020600a8101546009909101548491611c38919063ffffffff611abe16565b14611c4257600080fd5b600086815260036020526040902060048101546007909101541115611d665760008681526003602052604090206009810154600490910154611cc091611c8e919063ffffffff611abe16565b6001600160a01b038088166000908152600860209081526040808320938a16835292905220549063ffffffff611abe16565b6001600160a01b0380871660009081526008602081815260408084208a8616808652908352818520969096558b845260038252808420600b810154600a909101548554909616855292825280842095845294905292902054611d399291611d2d919063ffffffff611abe16565b9063ffffffff611abe16565b600080546001600160a01b0390811682526008602090815260408084209289168452919052902055611ebd565b6000868152600360209081526040808320600701546001600160a01b03808a16855260088452828520908916855290925290912054611daa9163ffffffff611abe16565b6001600160a01b03808716600090815260086020908152604080832093891683529281528282209390935588815260039092529020600a8101546007820154600490920154611e3792611e07929161150d9163ffffffff611b2116565b3360009081526008602090815260408083206001600160a01b038a1684529091529020549063ffffffff611abe16565b3360009081526008602081815260408084206001600160a01b038a8116808752918452828620969096558b855260038352818520600a015485549096168552928252808420928452919052902054611e949163ffffffff611abe16565b600080546001600160a01b03908116825260086020908152604080842092891684529190529020555b600086815260036020818152604080842060048101546001808901546001600160a01b039081168852600786528488209390960154909516865292529092200154611f0d9163ffffffff611b2116565b6001838101546001600160a01b0390811660009081526007602090815260408083208c8452600380845282852080820154909616855290835281842090950195909555908a9052828152600c8201805460ff1916909317909255600881015460099091015483518a81529283019190915281830152905133917ff1742434e1b80bd4f9edb22a1663806afc3d7b52840f28ff20056578a2e8a78f919081900360600190a2505050505050565b600082611fc857506000611b1b565b82820282848281611fd557fe5b0414611b185760405162461bcd60e51b81526004018080602001828103825260218152602001806121826021913960400191505060405180910390fd5b6000611b1883836040518060400160405280601a81526020017f536166654d6174683a206469766973696f6e206279207a65726f0000000000008152506120eb565b600081848411156120e35760405162461bcd60e51b81526004018080602001828103825283818151815260200191508051906020019080838360005b838110156120a8578181015183820152602001612090565b50505050905090810190601f1680156120d55780820380516001836020036101000a031916815260200191505b509250505060405180910390fd5b505050900390565b6000818361213a5760405162461bcd60e51b81526020600482018181528351602484015283519092839260449091019190850190808383600083156120a8578181015183820152602001612090565b50600083858161214657fe5b0495945050505050565b60405180608001604052806000815260200160006001600160a01b031681526020016000815260200160008152509056fe536166654d6174683a206d756c7469706c69636174696f6e206f766572666c6f77a265627a7a72315820c98557a6ef32d69916f4b22a036c910f1a737444c0bd4248d6f07215e246f63864736f6c63430005100032",
  "source": "// \"SPDX-License-Identifier: UNLICENSED\"\npragma solidity >=0.4.21 <0.7.0;\n\nimport \"@openzeppelin/contracts/math/SafeMath.sol\";\nimport \"@openzeppelin/contracts/token/ERC20/IERC20.sol\";\n\ncontract DecentraVest {\n\n\tusing SafeMath for uint256;\n\n    address constant ETHER = address(0); // allows storage of ether in blank address in token mapping\n    address public feeAccount; // account that will receive fees\n    uint256 public traderFeePercent; // trader fee percentage in unit of 100, i.e. 100 == 1% and 5 == 0.05% and 10000 == 100%\n    uint256 public investorFeePercent; // investor fee percentage in unit of 100, i.e. 100 == 1% and 5 == 0.05% and 10000 == 100%\n    \n    mapping(uint256 => _Investment) public investments;\n    uint256 public investmentCount;\n\n    mapping(address => mapping(uint256 => uint256)) public traderInvestments;\n    mapping(address => mapping(uint256 => uint256)) public investorInvestments;\n    mapping(address => mapping(address => _Allocation)) public allocations;\n\n    mapping(address => mapping(address => uint256)) public balances; // mapping of token balances to addresses\n\n    mapping(address => _Trader) public traders;\n    mapping(address => _Investor) public investors;\n\n    uint256 public traderCount;\n    uint256 public investorCount;\n\n    mapping(uint256 => address) public traderList;\n    mapping(uint256 => address) public investorList;\n\n    event Trader(address indexed trader, uint256 traderId, uint256 investorProfitPercent);\n    event Investor(address indexed investor, uint256 investorId);\n    event Allocate(address indexed trader, address token, uint256 amount);\n    event Withdraw(address indexed token, address indexed user, uint256 amount, uint256 balance);\n    event Invest(uint256 id, address indexed investor, address indexed trader, address indexed token, uint256 amount);\n    event RequestExit(address indexed trader, uint256 investmentId, uint256 date, uint256 value, uint256 traderProfit, uint256 investorProfit, uint256 traderFee, uint256 investorFee);\n    event RejectExit(address indexed trader, uint256 investmentId);\n    event ApproveExit(address indexed trader, uint256 investmentId, uint256 traderAmount, uint256 investorAmount);\n\n    enum InvestmentState {\n        Invested,\n        ExitRequested,\n        ExitRejected,\n        Divested\n    }\n\n    struct _Trader {\n        uint256 id;\n        address payable user;\n        uint256 investorProfitPercent;\n        uint256 investmentCount;\n    }\n\n    struct _Allocation {\n        uint256 total;\n        uint256 invested;\n    }\n\n    struct _Investor {\n        uint256 id;\n        address payable user;\n        uint256 investmentCount;\n    }\n\n    struct _Investment {\n        uint256 id;\n        address payable trader;\n        address payable investor;\n        address token;\n        uint256 amount;\n        uint256 startDate;\n        uint256 endDate;\n        uint256 value;\n        uint256 traderProfit;\n        uint256 investorProfit;\n        uint256 traderFee;\n        uint256 investorFee;\n        InvestmentState state;\n    }\n\n    constructor(address payable _feeAccount, uint256 _traderFeePercent, uint256 _investorFeePercent) public {\n        feeAccount = _feeAccount;\n        traderFeePercent = _traderFeePercent;\n        investorFeePercent = _investorFeePercent;\n    }\n\n    // reverts if ether is sent directly\n    function () external {\n        revert();\n    }\n\n    function joinAsTrader(uint256 _investorProfitPercent) external {\n        require(traders[msg.sender].user == address(0), \"Already registered as trader\");\n        require(investors[msg.sender].user == address(0), \"Already registered as investor\");\n\n        require(\n            _investorProfitPercent < 10000 && \n            _investorProfitPercent >= investorFeePercent);\n\n        traderCount = traderCount.add(1);\n        traderList[traderCount] = msg.sender;\n\n        traders[msg.sender] = _Trader({\n            id: traderCount, \n            user: msg.sender, \n            investorProfitPercent: _investorProfitPercent, \n            investmentCount: 0\n        });\n        \n\n        emit Trader(msg.sender, traderCount, _investorProfitPercent);\n    }\n\n    function joinAsInvestor() external {\n        require(traders[msg.sender].user == address(0), \"Already registered as trader\");\n        require(investors[msg.sender].user == address(0), \"Already registered as investor\");\n\n        investorCount = investorCount.add(1);\n        investorList[investorCount] = msg.sender;\n        investors[msg.sender] = _Investor({\n                id: investorCount,\n                user: msg.sender,\n                investmentCount: 0\n            });\n\n        emit Investor(msg.sender, investorCount);\n    }\n\n    function allocate(address _token, uint256 _amount) external {\n        _Trader memory _trader = traders[msg.sender];\n        require(_trader.user == msg.sender);\n        require(allocations[msg.sender][_token].total == 0);\n\n        allocations[msg.sender][_token] = _Allocation({\n                total: _amount,\n                invested: 0\n            });\n\n        emit Allocate(msg.sender, _token, _amount);\n    }\n\n    /**\n        Investor invests\n    */\n    function investEther(address _traderAddress) external payable {\n        _Investor storage _investor = investors[msg.sender];\n        require(_investor.user == msg.sender);\n\n        _Trader storage _trader = traders[_traderAddress];\n        require(_trader.user == _traderAddress);\n\n        // falls within trader allocations\n        require(allocations[_trader.user][ETHER].total - allocations[_trader.user][ETHER].invested >= msg.value);\n\n        allocations[_trader.user][ETHER].invested = allocations[_trader.user][ETHER].invested.add(msg.value);\n        \n        investmentCount = investmentCount.add(1);\n        investments[investmentCount] = _Investment({\n                id: investmentCount,\n                trader: _trader.user,\n                investor: _investor.user,\n                token: ETHER,\n                amount: msg.value,\n                startDate: now,\n                endDate: 0,\n                value: 0,\n                traderProfit: 0,\n                investorProfit: 0,\n                traderFee: 0,\n                investorFee: 0,\n                state: InvestmentState.Invested\n            });\n\n        _trader.investmentCount = _trader.investmentCount.add(1);\n        traderInvestments[_trader.user][_trader.investmentCount] = investmentCount;\n\n        _investor.investmentCount = _investor.investmentCount.add(1);\n        investorInvestments[_investor.user][_investor.investmentCount] = investmentCount;\n\n        emit Invest(\n            investmentCount,\n            msg.sender,\n            _trader.user,\n            ETHER,\n            msg.value\n        );\n    }\n\n    /**\n        Investor invests\n    */\n    function investToken(address _traderAddress, address _token, uint256 _amount) external {\n        _Investor storage _investor = investors[msg.sender];\n        require(_investor.user == msg.sender);\n\n        _Trader storage _trader = traders[_traderAddress];\n        require(_trader.user == _traderAddress);\n\n        // falls within trader allocations\n        require(allocations[_trader.user][_token].total - allocations[_trader.user][_token].invested >= _amount);\n\n        require(IERC20(_token).transfer(address(this), _amount));\n\n        allocations[_trader.user][_token].invested = allocations[_trader.user][_token].invested.add(_amount);\n        \n        investmentCount = investmentCount.add(1);\n        investments[investmentCount] = _Investment({\n                id: investmentCount,\n                trader: _trader.user,\n                investor: _investor.user,\n                token: _token,\n                amount: _amount,\n                startDate: now,\n                endDate: 0,\n                value: 0,\n                traderProfit: 0,\n                investorProfit: 0,\n                traderFee: 0,\n                investorFee: 0,\n                state: InvestmentState.Invested\n            });\n\n        _trader.investmentCount = _trader.investmentCount.add(1);\n        traderInvestments[_trader.user][_trader.investmentCount] = investmentCount;\n\n        _investor.investmentCount = _investor.investmentCount.add(1);\n        investorInvestments[_investor.user][_investor.investmentCount] = investmentCount;\n\n        emit Invest(\n            investmentCount,\n            msg.sender,\n            _trader.user,\n            _token,\n            _amount\n        );\n    }\n\n    /**\n        Investor exits an investment\n    */\n    function requestExit(address _traderAddress, uint256 _investmentId, uint256 _value) external {\n        _Trader storage _trader = traders[_traderAddress];\n        require(_trader.user == _traderAddress);\n        require(investments[_investmentId].investor == msg.sender);\n        require(investments[_investmentId].trader == _traderAddress);\n        require(investments[_investmentId].state == InvestmentState.Invested);\n\n        if (_value > investments[_investmentId].amount) {\n            // profit\n            uint256 _investorProfitPercent = _trader.investorProfitPercent.sub(investorFeePercent);\n            uint256 _traderProfitPercent = uint256(10000).sub(_trader.investorProfitPercent).sub(traderFeePercent);\n\n            uint256 _profit = _value - investments[_investmentId].amount;\n            uint256 _investorProfit = _profit.mul(_investorProfitPercent).div(10000);\n            uint256 _traderProfit = _profit.mul(_traderProfitPercent).div(10000);\n            uint256 _fee = _profit.sub(_investorProfit).sub(_traderProfit);\n            uint256 _investorFee = _fee.div(2);\n            uint256 _traderFee = _fee.sub(_investorFee);\n\n            investments[_investmentId].traderProfit = _traderProfit;\n            investments[_investmentId].investorProfit = _investorProfit;\n            investments[_investmentId].traderFee = _traderFee;\n            investments[_investmentId].investorFee = _investorFee;\n\n        } else {\n            // break even or loss\n            investments[_investmentId].traderProfit = 0;\n            investments[_investmentId].investorProfit = 0;\n            investments[_investmentId].traderFee = (investments[_investmentId].amount.sub(_value)).mul(traderFeePercent).div(10000);\n            investments[_investmentId].investorFee = 0;\n        }\n\n        investments[_investmentId].endDate = now;\n        investments[_investmentId].value = _value;\n        investments[_investmentId].state = InvestmentState.ExitRequested;\n\n        emit RequestExit(\n            _traderAddress, \n            _investmentId, \n            investments[_investmentId].endDate, \n            _value, \n            investments[_investmentId].traderProfit, \n            investments[_investmentId].investorProfit, \n            investments[_investmentId].traderFee,\n            investments[_investmentId].investorFee\n        );\n    }\n\n    /**\n        Trader rejects the exit request\n        Perhaps the investor made a false profit claim\n        This will now enter a dispute workflow managed on the client\n    */\n    function rejectExit(uint256 _investmentId) external {\n        require(investments[_investmentId].trader == msg.sender);\n        require(investments[_investmentId].state == InvestmentState.ExitRequested);\n        \n        investments[_investmentId].state = InvestmentState.ExitRejected;\n\n        emit RejectExit(\n            msg.sender, \n            _investmentId\n        );\n    }\n\n    /**\n        Trader approves the exit by paying the nett profit back to the contract, under the name of the investor\n    */\n    function approveExitEther(uint256 _investmentId, address _investorAddress) external payable {\n        approveExit(_investmentId, _investorAddress, ETHER, msg.value);\n    }\n\n    /**\n        Trader approves the exit by paying the nett profit back to the contract, under the name of the investor\n    */\n    function approveExitToken(uint256 _investmentId, address _investorAddress, address _token, uint256 _amount) external {\n        approveExit(_investmentId, _investorAddress, _token, _amount);\n    }\n\n    function approveExit(uint256 _investmentId, address _investorAddress, address _token, uint256 _amount) internal {\n        _Trader storage _trader = traders[msg.sender];\n        require(_trader.user == msg.sender);\n        _Investor storage _investor = investors[_investorAddress];\n        require(_investor.user == _investorAddress);\n        require(investments[_investmentId].trader == msg.sender);\n        require(investments[_investmentId].state == InvestmentState.ExitRequested);\n\n        require(\n                investments[_investmentId].investorProfit\n                .add(investments[_investmentId].traderFee) == _amount\n            );\n\n        if (investments[_investmentId].value > investments[_investmentId].amount) {\n            // investment amount plus profit (minus fee)\n            balances[_investorAddress][_token] = balances[_investorAddress][_token].add(\n                investments[_investmentId].amount.add(\n                    investments[_investmentId].investorProfit\n                )\n            );\n            \n            // fees\n            balances[feeAccount][_token] = balances[feeAccount][_token]\n                .add(investments[_investmentId].traderFee)\n                .add(investments[_investmentId].investorFee);\n\n        } else {\n            // take losses away from investor\n            balances[_investorAddress][_token] = balances[_investorAddress][_token].add(investments[_investmentId].value);\n            \n            // add losses to trader balance\n            balances[msg.sender][_token] = balances[msg.sender][_token]\n                .add(investments[_investmentId].amount\n                    .sub(investments[_investmentId].value)\n                    .sub(investments[_investmentId].traderFee)\n                );\n\n            // fees\n            balances[feeAccount][_token] = balances[feeAccount][_token]\n                .add(investments[_investmentId].traderFee);\n        }\n\n        allocations[_trader.user][investments[_investmentId].token].invested = allocations[_trader.user][investments[_investmentId].token].invested.sub(investments[_investmentId].amount);\n        \n        investments[_investmentId].state = InvestmentState.Divested;\n\n        emit ApproveExit(\n            msg.sender,\n            _investmentId,\n            investments[_investmentId].traderProfit,\n            investments[_investmentId].investorProfit\n        );\n    }\n\n    /**\n        Investor withdraws previously deposited ether funds, perhaps including profits (and losses)\n    */\n    function withdrawEther(uint256 _amount) external {\n        require(balances[msg.sender][ETHER] >= _amount);\n        balances[msg.sender][ETHER] = balances[msg.sender][ETHER].sub(_amount);\n        msg.sender.transfer(_amount);\n        emit Withdraw(ETHER, msg.sender, _amount, balances[msg.sender][ETHER]);\n    }\n\n    /**\n        Investor withdraws previously deposited token funds, perhaps including profits (and losses)\n    */\n    function withdrawToken(address _token, uint256 _amount) external {\n        require(_token != ETHER);\n        require(balances[msg.sender][_token] >= _amount);\n        require(IERC20(_token).transferFrom(address(this), msg.sender, _amount));\n        balances[msg.sender][_token] = balances[msg.sender][_token].sub(_amount);\n        emit Withdraw(_token, msg.sender, _amount, balances[msg.sender][_token]);\n    }\n\n}\n",
  "sourcePath": "/Users/jaco/dev/workspace/ethereum/decentravest/src/contracts/DecentraVest.sol",
  "compiler": {
    "name": "solc",
    "version": "0.5.16+commit.9c3226ce.Emscripten.clang"
  },
  "schemaVersion": "3.1.0",
  "updatedAt": "2020-06-18T17:22:56.061Z",
  "devdoc": {
    "methods": {}
  },
  "userdoc": {
    "methods": {
      "approveExitEther(uint256,address)": {
        "notice": "Trader approves the exit by paying the nett profit back to the contract, under the name of the investor"
      },
      "approveExitToken(uint256,address,address,uint256)": {
        "notice": "Trader approves the exit by paying the nett profit back to the contract, under the name of the investor"
      },
      "investEther(address)": {
        "notice": "Investor invests"
      },
      "investToken(address,address,uint256)": {
        "notice": "Investor invests"
      },
      "rejectExit(uint256)": {
        "notice": "Trader rejects the exit request Perhaps the investor made a false profit claim This will now enter a dispute workflow managed on the client"
      },
      "requestExit(address,uint256,uint256)": {
        "notice": "Investor exits an investment"
      },
      "withdrawEther(uint256)": {
        "notice": "Investor withdraws previously deposited ether funds, perhaps including profits (and losses)"
      },
      "withdrawToken(address,uint256)": {
        "notice": "Investor withdraws previously deposited token funds, perhaps including profits (and losses)"
      }
    }
  }
}