{
  "contractName": "OwnedUpgradeabilityProxy",
  "abi": [
    {
      "inputs": [],
      "payable": false,
      "stateMutability": "nonpayable",
      "type": "constructor"
    },
    {
      "anonymous": false,
      "inputs": [
        {
          "indexed": false,
          "internalType": "address",
          "name": "previousOwner",
          "type": "address"
        },
        {
          "indexed": false,
          "internalType": "address",
          "name": "newOwner",
          "type": "address"
        }
      ],
      "name": "ProxyOwnershipTransferred",
      "type": "event"
    },
    {
      "anonymous": false,
      "inputs": [
        {
          "indexed": true,
          "internalType": "address",
          "name": "implementation",
          "type": "address"
        }
      ],
      "name": "Upgraded",
      "type": "event"
    },
    {
      "payable": true,
      "stateMutability": "payable",
      "type": "fallback"
    },
    {
      "constant": true,
      "inputs": [],
      "name": "implementation",
      "outputs": [
        {
          "internalType": "address",
          "name": "impl",
          "type": "address"
        }
      ],
      "payable": false,
      "stateMutability": "view",
      "type": "function"
    },
    {
      "constant": true,
      "inputs": [],
      "name": "proxyOwner",
      "outputs": [
        {
          "internalType": "address",
          "name": "owner",
          "type": "address"
        }
      ],
      "payable": false,
      "stateMutability": "view",
      "type": "function"
    },
    {
      "constant": false,
      "inputs": [
        {
          "internalType": "address",
          "name": "newOwner",
          "type": "address"
        }
      ],
      "name": "transferProxyOwnership",
      "outputs": [],
      "payable": false,
      "stateMutability": "nonpayable",
      "type": "function"
    },
    {
      "constant": false,
      "inputs": [
        {
          "internalType": "address",
          "name": "implementation",
          "type": "address"
        }
      ],
      "name": "upgradeTo",
      "outputs": [],
      "payable": false,
      "stateMutability": "nonpayable",
      "type": "function"
    },
    {
      "constant": false,
      "inputs": [
        {
          "internalType": "address",
          "name": "implementation",
          "type": "address"
        },
        {
          "internalType": "bytes",
          "name": "data",
          "type": "bytes"
        }
      ],
      "name": "upgradeToAndCall",
      "outputs": [],
      "payable": true,
      "stateMutability": "payable",
      "type": "function"
    }
  ],
  "bytecode": "0x608060405234801561001057600080fd5b50610023336001600160e01b0361002816565b61005d565b604080517f636f6d2e646563656e747261766573742e70726f78792e6f776e6572000000008152905190819003601c01902055565b6105528061006c6000396000f3fe60806040526004361061004a5760003560e01c8063025313a21461008e5780633659cfe6146100bf5780634f1ef286146100f45780635c60da1b146101aa578063f1739cae146101bf575b60006100546101f2565b90506001600160a01b03811661006957600080fd5b60405136600082376000803683855af43d806000843e81801561008a578184f35b8184fd5b34801561009a57600080fd5b506100a3610215565b604080516001600160a01b039092168252519081900360200190f35b3480156100cb57600080fd5b506100f2600480360360208110156100e257600080fd5b50356001600160a01b031661024b565b005b6100f26004803603604081101561010a57600080fd5b6001600160a01b03823516919081019060408101602082013564010000000081111561013557600080fd5b82018360208201111561014757600080fd5b8035906020019184600183028401116401000000008311171561016957600080fd5b91908080601f01602080910402602001604051908101604052809392919081815260200183838082843760009201919091525092955061027c945050505050565b3480156101b657600080fd5b506100a36101f2565b3480156101cb57600080fd5b506100f2600480360360208110156101e257600080fd5b50356001600160a01b03166103a9565b60008060405180806104f960259139604051908190036025019020549392505050565b604080517f636f6d2e646563656e747261766573742e70726f78792e6f776e6572000000008152905190819003601c0190205490565b610253610215565b6001600160a01b0316336001600160a01b03161461027057600080fd5b61027981610435565b50565b610284610215565b6001600160a01b0316336001600160a01b0316146102a157600080fd5b6102aa8261024b565b6000306001600160a01b031634836040518082805190602001908083835b602083106102e75780518252601f1990920191602091820191016102c8565b6001836020036101000a03801982511681845116808217855250505050505090500191505060006040518083038185875af1925050503d8060008114610349576040519150601f19603f3d011682016040523d82523d6000602084013e61034e565b606091505b50509050806103a4576040805162461bcd60e51b815260206004820152601760248201527f75706772616465546f416e6443616c6c206661696c6564000000000000000000604482015290519081900360640190fd5b505050565b6103b1610215565b6001600160a01b0316336001600160a01b0316146103ce57600080fd5b6001600160a01b0381166103e157600080fd5b7f5a3e66efaa1e445ebd894728a69d6959842ea1e97bd79b892797106e270efcd961040a610215565b604080516001600160a01b03928316815291841660208301528051918290030190a1610279816104a1565b600061043f6101f2565b9050816001600160a01b0316816001600160a01b0316141561046057600080fd5b610469826104d6565b6040516001600160a01b038316907fbc7cd75a20ee27fd9adebab32041f755214dbc6bffa90cc0225b39da2e5c2d3b90600090a25050565b604080517f636f6d2e646563656e747261766573742e70726f78792e6f776e6572000000008152905190819003601c01902055565b600060405180806104f96025913960405190819003602501902092909255505056fe636f6d2e646563656e747261766573742e70726f78792e696d706c656d656e746174696f6ea265627a7a72315820872851951ad35b44ee5f2a144a5ec6bbdcd001369c82dd7925cee7f8b804825c64736f6c63430005100032",
  "source": "// \"SPDX-License-Identifier: UNLICENSED\"\npragma solidity >=0.4.21 <0.7.0;\n\nimport './UpgradeabilityProxy.sol';\n\n/**\n * @title OwnedUpgradeabilityProxy\n * @dev This contract combines an upgradeability proxy with basic authorization control functionalities\n */\ncontract OwnedUpgradeabilityProxy is UpgradeabilityProxy {\n  /**\n  * @dev Event to show ownership has been transferred\n  * @param previousOwner representing the address of the previous owner\n  * @param newOwner representing the address of the new owner\n  */\n  event ProxyOwnershipTransferred(address previousOwner, address newOwner);\n\n  // Storage position of the owner of the contract\n  bytes32 private constant proxyOwnerPosition = keccak256(\"com.decentravest.proxy.owner\");\n\n  /**\n  * @dev the constructor sets the original owner of the contract to the sender account.\n  */\n  constructor() public {\n    setUpgradeabilityOwner(msg.sender);\n  }\n\n  /**\n  * @dev Throws if called by any account other than the owner.\n  */\n  modifier onlyProxyOwner() {\n    require(msg.sender == proxyOwner());\n    _;\n  }\n\n  /**\n   * @dev Tells the address of the owner\n   * @return the address of the owner\n   */\n  function proxyOwner() public view returns (address owner) {\n    bytes32 position = proxyOwnerPosition;\n    assembly {\n      owner := sload(position)\n    }\n  }\n\n  /**\n   * @dev Sets the address of the owner\n   */\n  function setUpgradeabilityOwner(address newProxyOwner) internal {\n    bytes32 position = proxyOwnerPosition;\n    assembly {\n      sstore(position, newProxyOwner)\n    }\n  }\n\n  /**\n   * @dev Allows the current owner to transfer control of the contract to a newOwner.\n   * @param newOwner The address to transfer ownership to.\n   */\n  function transferProxyOwnership(address newOwner) public onlyProxyOwner {\n    require(newOwner != address(0));\n    emit ProxyOwnershipTransferred(proxyOwner(), newOwner);\n    setUpgradeabilityOwner(newOwner);\n  }\n\n  /**\n   * @dev Allows the proxy owner to upgrade the current version of the proxy.\n   * @param implementation representing the address of the new implementation to be set.\n   */\n  function upgradeTo(address implementation) public onlyProxyOwner {\n    _upgradeTo(implementation);\n  }\n\n  /**\n   * @dev Allows the proxy owner to upgrade the current version of the proxy and call the new implementation\n   * to initialize whatever is needed through a low level call.\n   * @param implementation representing the address of the new implementation to be set.\n   * @param data represents the msg.data to bet sent in the low level call. This parameter may include the function\n   * signature of the implementation to be called with the needed payload\n   */\n  function upgradeToAndCall(address implementation, bytes memory data) payable public onlyProxyOwner {\n    upgradeTo(implementation);\n    (bool success, ) = address(this).call.value(msg.value)(data);\n    require(success, \"upgradeToAndCall failed\");\n  }\n}",
  "sourcePath": "/Users/jaco/dev/workspace/ethereum/decentravest/src/contracts/OwnedUpgradeabilityProxy.sol",
  "compiler": {
    "name": "solc",
    "version": "0.5.16+commit.9c3226ce.Emscripten.clang"
  },
  "schemaVersion": "3.1.0",
  "updatedAt": "2020-06-18T17:42:25.947Z",
  "devdoc": {
    "details": "This contract combines an upgradeability proxy with basic authorization control functionalities",
    "methods": {
      "constructor": {
        "details": "the constructor sets the original owner of the contract to the sender account."
      },
      "implementation()": {
        "details": "Tells the address of the current implementation",
        "return": "address of the current implementation"
      },
      "proxyOwner()": {
        "details": "Tells the address of the owner",
        "return": "the address of the owner"
      },
      "transferProxyOwnership(address)": {
        "details": "Allows the current owner to transfer control of the contract to a newOwner.",
        "params": {
          "newOwner": "The address to transfer ownership to."
        }
      },
      "upgradeTo(address)": {
        "details": "Allows the proxy owner to upgrade the current version of the proxy.",
        "params": {
          "implementation": "representing the address of the new implementation to be set."
        }
      },
      "upgradeToAndCall(address,bytes)": {
        "details": "Allows the proxy owner to upgrade the current version of the proxy and call the new implementation to initialize whatever is needed through a low level call.",
        "params": {
          "data": "represents the msg.data to bet sent in the low level call. This parameter may include the function signature of the implementation to be called with the needed payload",
          "implementation": "representing the address of the new implementation to be set."
        }
      }
    },
    "title": "OwnedUpgradeabilityProxy"
  },
  "userdoc": {
    "methods": {}
  }
}