{
  "fileName": "MultiSigFundWallet.sol",
  "contractName": "MultiSigFundWallet",
  "source": "// \"SPDX-License-Identifier: UNLICENSED\"\npragma solidity >=0.4.21 <0.7.0;\n\nimport \"@openzeppelin/contracts-ethereum-package/contracts/math/SafeMath.sol\";\nimport \"@openzeppelin/contracts-ethereum-package/contracts/token/ERC20/IERC20.sol\";\n\nimport \"./ITraderPaired.sol\";\nimport \"./IMultiSigFundWallet.sol\";\n\ncontract MultiSigFundWallet is IMultiSigFundWallet {\n    using SafeMath for uint256;\n\n    /*\n     *  Constants\n     */\n    address constant ETHER = address(0); // allows storage of ether in blank address in token mapping\n    uint8 constant MAX_TOKENS = 20;\n    uint8 constant VERSION = 1;\n\n    /*\n     *  Storage\n     */\n    address public fund;\n    mapping (address => bool) public traders;\n    address public investor;\n    address public admin;\n    mapping (address => mapping (address => uint256)) balances;\n    uint256 private disbursementIdx;\n    mapping (uint256 => Disbursement) public disbursements;\n    uint256[] private pendingDisbursements;\n\n    /*\n     *  Events\n     */\n    event SetTrader(address trader, bool active);\n    event Fund(address trader, address investor, uint256 investmentId, address token, uint256 amount, uint8 investmentType, uint256 date);\n    event Stopped(address trader, address initiator, uint256 investmentId, uint256 date);\n    event DisbursementCreated(address trader, address initiator, uint256 investmentId, uint256 disbursementId, address token, uint256 value, uint256 amount, uint256 date);\n    event DisbursementCompleted(address initiator, address signedBy, uint256 investmentId, uint256 disbursementId, uint256 date);\n    event DisbursementRejected(address initiator, uint256 investmentId, uint256 disbursementId, address token, uint256 value, uint256 amount, uint256 date);\n    event Payout(address token, uint256 amount, address to);\n    \n    /*\n     *  Structs\n     */\n    struct Disbursement {\n        address trader;\n        address initiator;\n        uint256 investmentId;\n        uint256 amount;\n    }\n\n    /*\n     *  Modifiers\n     */\n    modifier isAdmin() {\n        require(msg.sender == admin);\n        _;\n    }\n\n    modifier isInvestor() {\n        require(msg.sender == investor);\n        _;\n    }\n\n    modifier isTrader(address _trader) {\n        require(traders[_trader]);\n        if (msg.sender != investor && msg.sender != admin) {\n            require(msg.sender == _trader);\n        }\n        _;\n    }\n\n    modifier isNotTrader(address _trader) {\n        require(!traders[_trader]);\n        _;\n    }\n\n    modifier traderOrInvestor(address _trader) {\n        require(msg.sender == investor || (traders[msg.sender] && msg.sender == _trader));\n        _;\n    }\n\n    modifier validOwner() {\n        require(msg.sender == investor || msg.sender == admin || traders[msg.sender]);\n        _;\n    }\n\n    modifier validSignature(address trader, uint256 disbursementId) {\n        require(_validateSignature(trader, disbursementId));\n        _;\n    }\n\n    // @dev reverts if ether is sent directly\n    function () external {\n        revert();\n    }\n\n    /// @dev Constructor\n    /// @param _fund Fund address\n    /// @param _investor Investor address\n    /// @param _admin Admin address\n    constructor (address _fund, address _investor, address _admin)\n        public\n    {\n        // all are unique and non-zero\n        require (_fund != _investor && _fund != _admin && _investor != _admin && _admin != address(0));\n\n        fund = _fund;\n        investor = _investor;\n        admin = _admin;\n    }\n\n    function version()\n        external\n        pure\n        returns (uint8)\n    {\n        return VERSION;\n    }\n\n    /// @dev Add/Remove a trader\n    /// @param _trader Trader address\n    /// @param _active set active or not\n    function setTrader(address _trader, bool _active) \n        external\n        isInvestor\n    {\n        // TODO: only deactivate on zero balances\n        require (_trader != investor && _trader != admin && _trader != fund);\n\n        traders[_trader] = _active;\n        emit SetTrader(_trader, _active);\n    }\n\n    /// @dev Replace admin\n    /// @param _admin Admin address\n    function replaceAdmin(address _admin) \n        external\n        isAdmin\n    {\n        require (_admin != address(0) && _admin != investor && !traders[_admin]);\n        admin = _admin;\n    }\n\n    /// @dev Fund wallet with ether\n    /// @param _trader Trader address\n    function fundEther(address _trader, uint8 _type) \n        external \n        payable\n    {\n        _fundEther(_trader, msg.value, _type);\n    }\n\n    /// @dev Fund wallet with token\n    /// @param _trader Trader address\n    /// @param _token Token address\n    /// @param _amount Amount of tokens\n    function fundToken(address _trader, address _token, uint256 _amount, uint8 _type)\n        external \n    {\n        _fundToken(_trader, _token, _amount, _type);\n    }\n\n    /// @dev Fund wallet with ether\n    /// @param _trader Trader address\n    /// @param _amount Amount of ether\n    function _fundEther(address _trader, uint256 _amount, uint8 _type) \n        internal\n        isInvestor\n        isTrader(_trader)\n    {\n        if (_type == 0) {\n            balances[_trader][ETHER] = balances[_trader][ETHER].add(_amount);\n        } else {\n            address payable _toAddress = address(uint160(_trader));\n            _toAddress.transfer(_amount);\n        }\n        \n        uint256 investmentId = ITraderPaired(fund).invest(_trader, investor, ETHER, _amount, _type);\n        emit Fund(_trader, msg.sender, investmentId, ETHER, _amount, _type, now);\n    }\n\n    /// @dev Fund wallet with token\n    /// @param _trader Trader address\n    /// @param _token Token address\n    /// @param _amount Amount of tokens\n    function _fundToken(address _trader, address _token, uint256 _amount, uint8 _type)\n        internal \n        isInvestor\n        isTrader(_trader)\n    {\n        require(_token != ETHER);\n\n        if (_type == 0) {\n            require(IERC20(_token).transferFrom(msg.sender, address(this), _amount));\n            balances[_trader][_token] = balances[_trader][_token].add(_amount);\n        } else {\n            require(IERC20(_token).transferFrom(msg.sender, _trader, _amount));\n        }\n        \n        uint256 investmentId = ITraderPaired(fund).invest(_trader, investor, _token, _amount, _type);\n        emit Fund(_trader, msg.sender, investmentId, _token, _amount, _type, now);\n    }\n\n    /// @dev Stop investment\n    /// @param _trader Trader address\n    /// @param _investmentId Investment id\n    function stop(address _trader, uint256 _investmentId)\n        external\n        traderOrInvestor(_trader)\n        isTrader(_trader)\n    {\n        ITraderPaired(fund).stop(_trader, investor, msg.sender, _investmentId);\n        \n        emit Stopped(_trader, msg.sender, _investmentId, now);\n    }\n\n    /// @dev Request investment disbursement in ether\n    /// @param _trader Trader address\n    /// @param _investmentId Investment id\n    /// @param _value Investment value\n    function disburseEther(address _trader, uint256 _investmentId, uint256 _value)\n        external\n        payable\n    {\n        _disburse(_trader, msg.sender, _investmentId, ETHER, _value, msg.value);\n    }\n\n    /// @dev Request investment disbursement in tokens\n    /// @param _trader Trader address\n    /// @param _investmentId Investment id\n    /// @param _token Token address\n    /// @param _value Investment value\n    /// @param _amount transaction amount\n    function disburseToken(address _trader, uint256 _investmentId, address _token, uint256 _value, uint256 _amount)\n        external \n    {\n        if (_amount > 0) {\n            require(IERC20(_token).transferFrom(msg.sender, address(this), _amount));\n        }\n        _disburse(_trader, msg.sender, _investmentId, _token, _value, _amount);\n    }\n\n    /// @dev Request investment disbursement\n    /// @param _trader Trader address\n    /// @param _initiator Initiator address\n    /// @param _investmentId Investment id\n    /// @param _token Token address\n    /// @param _value Investment value\n    /// @param _amount transaction amount\n    function _disburse(address _trader, address _initiator, uint256 _investmentId, address _token, uint256 _value, uint256 _amount)\n        internal \n        traderOrInvestor(_trader)\n        isTrader(_trader)\n    {\n        if (_initiator == investor) {\n            ITraderPaired(fund).requestExitInvestor(_trader, investor, _investmentId, _value);\n        } else {\n            ITraderPaired(fund).requestExitTrader(_trader, investor, _investmentId, _value, _amount);\n        }\n\n        if (_amount > 0) {\n            balances[_trader][_token] = balances[_trader][_token].add(_amount);\n        }\n\n        uint256 _disbursementId = disbursementIdx++;\n\n        Disbursement memory _disbursement;\n        _disbursement.trader = _trader;\n        _disbursement.initiator = _initiator;\n        _disbursement.investmentId = _investmentId;\n        _disbursement.amount = _amount;\n\n        disbursements[_disbursementId] = _disbursement;\n        pendingDisbursements.push(_disbursementId);\n\n        emit DisbursementCreated(_trader, _initiator, _investmentId, _disbursementId, _token, _value, _amount, now);\n    }\n\n    /// @dev Get pending disbursements\n    function getPendingDisbursements()\n      external\n      view\n      validOwner\n      returns (uint256[] memory) \n    {\n        return pendingDisbursements;\n    }\n\n    /// @dev Approve ether disbursement\n    /// @param _trader Trader address\n    /// @param _disbursementId disbursement id\n    function approveDisbursementEther(address _trader, uint256 _disbursementId)\n      external\n      payable \n    {\n        _approveDisbursement(_trader, _disbursementId, ETHER, msg.value);\n    }\n\n    /// @dev Approve token disbursement\n    /// @param _trader Trader address\n    /// @param _disbursementId disbursement id\n    /// @param _token Token address\n    /// @param _amount transaction amount\n    function approveDisbursementToken(address _trader, uint256 _disbursementId, address _token, uint256 _amount)\n      external\n    {\n        if (_amount > 0) {\n            require(IERC20(_token).transferFrom(msg.sender, address(this), _amount));\n        }\n\n        _approveDisbursement(_trader, _disbursementId, _token, _amount);\n    }\n\n    /// @dev Approve disbursement\n    /// @param _trader Trader address\n    /// @param _disbursementId disbursement id\n    /// @param _token Token address\n    /// @param _amount transaction amount\n    function _approveDisbursement(address _trader, uint256 _disbursementId, address _token, uint256 _amount)\n      internal\n      validOwner\n      isTrader(_trader)\n      validSignature(_trader, _disbursementId)\n    {\n        Disbursement memory _disbursement = disbursements[_disbursementId];\n        _executeDisbursement(_trader, msg.sender, _disbursementId, _token, _amount);\n        emit DisbursementCompleted(_disbursement.initiator, msg.sender, _disbursement.investmentId, _disbursementId, now);\n        _deleteDisbursement(_disbursementId);\n    }\n\n    /// @dev Reject disbursement\n    /// @param _trader Trader address\n    /// @param _disbursementId disbursement id\n    function rejectDisbursement(address _trader, uint256 _disbursementId, address _token, uint256 _value)\n      external\n      validOwner\n      isTrader(_trader)\n    {\n        Disbursement memory _disbursement = disbursements[_disbursementId];\n        ITraderPaired(fund).rejectExit(_trader, _disbursement.investmentId, _value, msg.sender);\n        \n        if (_disbursement.amount > 0) {\n            if (_token == ETHER) {\n                _payoutEther(_trader, _disbursement.amount, _disbursement.initiator);\n            } else {\n                _payoutToken(_trader, _token, _disbursement.amount, _disbursement.initiator);\n            }\n        }\n        \n        emit DisbursementRejected(msg.sender, _disbursement.investmentId, _disbursementId, _token, _value, _disbursement.amount, now);\n        _deleteDisbursement(_disbursementId);\n    }\n\n    /// @dev Fulfill disbursement\n    /// @param _trader Trader address\n    /// @param _signer Signer address\n    /// @param _disbursementId disbursement id\n    /// @param _token Token address\n    /// @param _amount transaction amount\n    function _executeDisbursement(address _trader, address _signer, uint256 _disbursementId, address _token, uint256 _amount) \n        internal \n    {\n        Disbursement storage _disbursement = disbursements[_disbursementId];\n        uint256[3] memory _payouts = ITraderPaired(fund).approveExit(_trader, investor, _signer, _disbursement.investmentId, _token, _amount);\n\n        if (_amount > 0) {\n            balances[_trader][_token] = balances[_trader][_token].add(_amount);\n        }\n\n        if (_token == ETHER) {\n            _payoutEther(_trader, _payouts[0], _trader);\n            _payoutEther(_trader, _payouts[1], investor);\n            _payoutEther(_trader, _payouts[2], admin);\n            \n        } else {\n            _payoutToken(_trader, _token, _payouts[0], _trader);\n            _payoutToken(_trader, _token, _payouts[1], investor);\n            _payoutToken(_trader, _token, _payouts[2], admin);\n        }\n    }\n\n    /// @dev Payout ether\n    /// @param _trader Trader address\n    /// @param _amount payment amount\n    /// @param _to Target address\n    function _payoutEther(address _trader, uint256 _amount, address _to) \n        internal\n    {\n        if (_amount > 0) {\n            address payable _toAddress = address(uint160(_to));\n            balances[_trader][ETHER] = balances[_trader][ETHER].sub(_amount);\n            _toAddress.transfer(_amount);\n            emit Payout(ETHER, _amount, _toAddress);\n        }\n    }\n\n    /// @dev Payout tokens\n    /// @param _trader Trader address\n    /// @param _token Token address\n    /// @param _amount payment amount\n    /// @param _to Target address\n    function _payoutToken(address _trader, address _token, uint256 _amount, address _to) \n        internal\n    {\n        if (_amount > 0) {\n            balances[_trader][_token] = balances[_trader][_token].sub(_amount);\n            require(IERC20(_token).transfer(_to, _amount));\n            emit Payout(_token, _amount, _to);\n        }\n    }\n\n    /// @dev Delete disbursement\n    /// @param _disbursementId Disbursement id\n    function _deleteDisbursement(uint256 _disbursementId)\n      internal \n    {\n        uint8 replace = 0;\n        for(uint256 i = 0; i < pendingDisbursements.length; i++) {\n            if (1 == replace) {\n                pendingDisbursements[i-1] = pendingDisbursements[i];\n            } else if (_disbursementId == pendingDisbursements[i]) {\n                replace = 1;\n            }\n        }\n        delete pendingDisbursements[pendingDisbursements.length - 1];\n        pendingDisbursements.length--;\n        delete disbursements[_disbursementId];\n    }\n\n    /// @dev Validate disbursement signature\n    /// @param _trader Trader address\n    /// @param _disbursementId Disbursement id\n    /// @return true if disbursement approval is valid\n    function _validateSignature(address _trader, uint256 _disbursementId)\n        internal\n        view\n        returns (bool)\n    {\n        Disbursement storage _disbursement = disbursements[_disbursementId];\n\n        require (_disbursement.trader == _trader);\n\n        // disbursement must exist\n        if(address(0) == _disbursement.initiator) {\n            return false;\n        }\n        // Initiator cannot sign the disbursement\n        if(msg.sender == _disbursement.initiator) {\n            return false;\n        }\n        // if a trader is signing, it must match the trader for this disbursement\n        if(traders[msg.sender]) {\n            require (_disbursement.trader == msg.sender);\n        }\n\n        return true;\n    }\n\n    /// @dev Get wallet ether balance\n    /// @return ether balance\n    function etherBalance()\n        external\n        view\n        returns (uint256) \n    {\n        return address(this).balance;\n    }\n\n    /// @dev Get wallet token balance\n    /// @param _token Token address\n    /// @return token balance\n    function tokenBalance(address _token)\n        external\n        view\n        returns (uint256) \n    {\n        return IERC20(_token).balanceOf(address(this));\n    }\n}\n",
  "sourcePath": "contracts/MultiSigFundWallet.sol",
  "abi": [
    {
      "inputs": [
        {
          "internalType": "address",
          "name": "_fund",
          "type": "address"
        },
        {
          "internalType": "address",
          "name": "_investor",
          "type": "address"
        },
        {
          "internalType": "address",
          "name": "_admin",
          "type": "address"
        }
      ],
      "payable": false,
      "stateMutability": "nonpayable",
      "type": "constructor"
    },
    {
      "anonymous": false,
      "inputs": [
        {
          "indexed": false,
          "internalType": "address",
          "name": "initiator",
          "type": "address"
        },
        {
          "indexed": false,
          "internalType": "address",
          "name": "signedBy",
          "type": "address"
        },
        {
          "indexed": false,
          "internalType": "uint256",
          "name": "investmentId",
          "type": "uint256"
        },
        {
          "indexed": false,
          "internalType": "uint256",
          "name": "disbursementId",
          "type": "uint256"
        },
        {
          "indexed": false,
          "internalType": "uint256",
          "name": "date",
          "type": "uint256"
        }
      ],
      "name": "DisbursementCompleted",
      "type": "event"
    },
    {
      "anonymous": false,
      "inputs": [
        {
          "indexed": false,
          "internalType": "address",
          "name": "trader",
          "type": "address"
        },
        {
          "indexed": false,
          "internalType": "address",
          "name": "initiator",
          "type": "address"
        },
        {
          "indexed": false,
          "internalType": "uint256",
          "name": "investmentId",
          "type": "uint256"
        },
        {
          "indexed": false,
          "internalType": "uint256",
          "name": "disbursementId",
          "type": "uint256"
        },
        {
          "indexed": false,
          "internalType": "address",
          "name": "token",
          "type": "address"
        },
        {
          "indexed": false,
          "internalType": "uint256",
          "name": "value",
          "type": "uint256"
        },
        {
          "indexed": false,
          "internalType": "uint256",
          "name": "amount",
          "type": "uint256"
        },
        {
          "indexed": false,
          "internalType": "uint256",
          "name": "date",
          "type": "uint256"
        }
      ],
      "name": "DisbursementCreated",
      "type": "event"
    },
    {
      "anonymous": false,
      "inputs": [
        {
          "indexed": false,
          "internalType": "address",
          "name": "initiator",
          "type": "address"
        },
        {
          "indexed": false,
          "internalType": "uint256",
          "name": "investmentId",
          "type": "uint256"
        },
        {
          "indexed": false,
          "internalType": "uint256",
          "name": "disbursementId",
          "type": "uint256"
        },
        {
          "indexed": false,
          "internalType": "address",
          "name": "token",
          "type": "address"
        },
        {
          "indexed": false,
          "internalType": "uint256",
          "name": "value",
          "type": "uint256"
        },
        {
          "indexed": false,
          "internalType": "uint256",
          "name": "amount",
          "type": "uint256"
        },
        {
          "indexed": false,
          "internalType": "uint256",
          "name": "date",
          "type": "uint256"
        }
      ],
      "name": "DisbursementRejected",
      "type": "event"
    },
    {
      "anonymous": false,
      "inputs": [
        {
          "indexed": false,
          "internalType": "address",
          "name": "trader",
          "type": "address"
        },
        {
          "indexed": false,
          "internalType": "address",
          "name": "investor",
          "type": "address"
        },
        {
          "indexed": false,
          "internalType": "uint256",
          "name": "investmentId",
          "type": "uint256"
        },
        {
          "indexed": false,
          "internalType": "address",
          "name": "token",
          "type": "address"
        },
        {
          "indexed": false,
          "internalType": "uint256",
          "name": "amount",
          "type": "uint256"
        },
        {
          "indexed": false,
          "internalType": "uint8",
          "name": "investmentType",
          "type": "uint8"
        },
        {
          "indexed": false,
          "internalType": "uint256",
          "name": "date",
          "type": "uint256"
        }
      ],
      "name": "Fund",
      "type": "event"
    },
    {
      "anonymous": false,
      "inputs": [
        {
          "indexed": false,
          "internalType": "address",
          "name": "token",
          "type": "address"
        },
        {
          "indexed": false,
          "internalType": "uint256",
          "name": "amount",
          "type": "uint256"
        },
        {
          "indexed": false,
          "internalType": "address",
          "name": "to",
          "type": "address"
        }
      ],
      "name": "Payout",
      "type": "event"
    },
    {
      "anonymous": false,
      "inputs": [
        {
          "indexed": false,
          "internalType": "address",
          "name": "trader",
          "type": "address"
        },
        {
          "indexed": false,
          "internalType": "bool",
          "name": "active",
          "type": "bool"
        }
      ],
      "name": "SetTrader",
      "type": "event"
    },
    {
      "anonymous": false,
      "inputs": [
        {
          "indexed": false,
          "internalType": "address",
          "name": "trader",
          "type": "address"
        },
        {
          "indexed": false,
          "internalType": "address",
          "name": "initiator",
          "type": "address"
        },
        {
          "indexed": false,
          "internalType": "uint256",
          "name": "investmentId",
          "type": "uint256"
        },
        {
          "indexed": false,
          "internalType": "uint256",
          "name": "date",
          "type": "uint256"
        }
      ],
      "name": "Stopped",
      "type": "event"
    },
    {
      "payable": false,
      "stateMutability": "nonpayable",
      "type": "fallback"
    },
    {
      "constant": true,
      "inputs": [],
      "name": "admin",
      "outputs": [
        {
          "internalType": "address",
          "name": "",
          "type": "address"
        }
      ],
      "payable": false,
      "stateMutability": "view",
      "type": "function"
    },
    {
      "constant": false,
      "inputs": [
        {
          "internalType": "address",
          "name": "_trader",
          "type": "address"
        },
        {
          "internalType": "uint256",
          "name": "_disbursementId",
          "type": "uint256"
        }
      ],
      "name": "approveDisbursementEther",
      "outputs": [],
      "payable": true,
      "stateMutability": "payable",
      "type": "function"
    },
    {
      "constant": false,
      "inputs": [
        {
          "internalType": "address",
          "name": "_trader",
          "type": "address"
        },
        {
          "internalType": "uint256",
          "name": "_disbursementId",
          "type": "uint256"
        },
        {
          "internalType": "address",
          "name": "_token",
          "type": "address"
        },
        {
          "internalType": "uint256",
          "name": "_amount",
          "type": "uint256"
        }
      ],
      "name": "approveDisbursementToken",
      "outputs": [],
      "payable": false,
      "stateMutability": "nonpayable",
      "type": "function"
    },
    {
      "constant": false,
      "inputs": [
        {
          "internalType": "address",
          "name": "_trader",
          "type": "address"
        },
        {
          "internalType": "uint256",
          "name": "_investmentId",
          "type": "uint256"
        },
        {
          "internalType": "uint256",
          "name": "_value",
          "type": "uint256"
        }
      ],
      "name": "disburseEther",
      "outputs": [],
      "payable": true,
      "stateMutability": "payable",
      "type": "function"
    },
    {
      "constant": false,
      "inputs": [
        {
          "internalType": "address",
          "name": "_trader",
          "type": "address"
        },
        {
          "internalType": "uint256",
          "name": "_investmentId",
          "type": "uint256"
        },
        {
          "internalType": "address",
          "name": "_token",
          "type": "address"
        },
        {
          "internalType": "uint256",
          "name": "_value",
          "type": "uint256"
        },
        {
          "internalType": "uint256",
          "name": "_amount",
          "type": "uint256"
        }
      ],
      "name": "disburseToken",
      "outputs": [],
      "payable": false,
      "stateMutability": "nonpayable",
      "type": "function"
    },
    {
      "constant": true,
      "inputs": [
        {
          "internalType": "uint256",
          "name": "",
          "type": "uint256"
        }
      ],
      "name": "disbursements",
      "outputs": [
        {
          "internalType": "address",
          "name": "trader",
          "type": "address"
        },
        {
          "internalType": "address",
          "name": "initiator",
          "type": "address"
        },
        {
          "internalType": "uint256",
          "name": "investmentId",
          "type": "uint256"
        },
        {
          "internalType": "uint256",
          "name": "amount",
          "type": "uint256"
        }
      ],
      "payable": false,
      "stateMutability": "view",
      "type": "function"
    },
    {
      "constant": true,
      "inputs": [],
      "name": "etherBalance",
      "outputs": [
        {
          "internalType": "uint256",
          "name": "",
          "type": "uint256"
        }
      ],
      "payable": false,
      "stateMutability": "view",
      "type": "function"
    },
    {
      "constant": true,
      "inputs": [],
      "name": "fund",
      "outputs": [
        {
          "internalType": "address",
          "name": "",
          "type": "address"
        }
      ],
      "payable": false,
      "stateMutability": "view",
      "type": "function"
    },
    {
      "constant": false,
      "inputs": [
        {
          "internalType": "address",
          "name": "_trader",
          "type": "address"
        },
        {
          "internalType": "uint8",
          "name": "_type",
          "type": "uint8"
        }
      ],
      "name": "fundEther",
      "outputs": [],
      "payable": true,
      "stateMutability": "payable",
      "type": "function"
    },
    {
      "constant": false,
      "inputs": [
        {
          "internalType": "address",
          "name": "_trader",
          "type": "address"
        },
        {
          "internalType": "address",
          "name": "_token",
          "type": "address"
        },
        {
          "internalType": "uint256",
          "name": "_amount",
          "type": "uint256"
        },
        {
          "internalType": "uint8",
          "name": "_type",
          "type": "uint8"
        }
      ],
      "name": "fundToken",
      "outputs": [],
      "payable": false,
      "stateMutability": "nonpayable",
      "type": "function"
    },
    {
      "constant": true,
      "inputs": [],
      "name": "getPendingDisbursements",
      "outputs": [
        {
          "internalType": "uint256[]",
          "name": "",
          "type": "uint256[]"
        }
      ],
      "payable": false,
      "stateMutability": "view",
      "type": "function"
    },
    {
      "constant": true,
      "inputs": [],
      "name": "investor",
      "outputs": [
        {
          "internalType": "address",
          "name": "",
          "type": "address"
        }
      ],
      "payable": false,
      "stateMutability": "view",
      "type": "function"
    },
    {
      "constant": false,
      "inputs": [
        {
          "internalType": "address",
          "name": "_trader",
          "type": "address"
        },
        {
          "internalType": "uint256",
          "name": "_disbursementId",
          "type": "uint256"
        },
        {
          "internalType": "address",
          "name": "_token",
          "type": "address"
        },
        {
          "internalType": "uint256",
          "name": "_value",
          "type": "uint256"
        }
      ],
      "name": "rejectDisbursement",
      "outputs": [],
      "payable": false,
      "stateMutability": "nonpayable",
      "type": "function"
    },
    {
      "constant": false,
      "inputs": [
        {
          "internalType": "address",
          "name": "_admin",
          "type": "address"
        }
      ],
      "name": "replaceAdmin",
      "outputs": [],
      "payable": false,
      "stateMutability": "nonpayable",
      "type": "function"
    },
    {
      "constant": false,
      "inputs": [
        {
          "internalType": "address",
          "name": "_trader",
          "type": "address"
        },
        {
          "internalType": "bool",
          "name": "_active",
          "type": "bool"
        }
      ],
      "name": "setTrader",
      "outputs": [],
      "payable": false,
      "stateMutability": "nonpayable",
      "type": "function"
    },
    {
      "constant": false,
      "inputs": [
        {
          "internalType": "address",
          "name": "_trader",
          "type": "address"
        },
        {
          "internalType": "uint256",
          "name": "_investmentId",
          "type": "uint256"
        }
      ],
      "name": "stop",
      "outputs": [],
      "payable": false,
      "stateMutability": "nonpayable",
      "type": "function"
    },
    {
      "constant": true,
      "inputs": [
        {
          "internalType": "address",
          "name": "_token",
          "type": "address"
        }
      ],
      "name": "tokenBalance",
      "outputs": [
        {
          "internalType": "uint256",
          "name": "",
          "type": "uint256"
        }
      ],
      "payable": false,
      "stateMutability": "view",
      "type": "function"
    },
    {
      "constant": true,
      "inputs": [
        {
          "internalType": "address",
          "name": "",
          "type": "address"
        }
      ],
      "name": "traders",
      "outputs": [
        {
          "internalType": "bool",
          "name": "",
          "type": "bool"
        }
      ],
      "payable": false,
      "stateMutability": "view",
      "type": "function"
    },
    {
      "constant": true,
      "inputs": [],
      "name": "version",
      "outputs": [
        {
          "internalType": "uint8",
          "name": "",
          "type": "uint8"
        }
      ],
      "payable": false,
      "stateMutability": "pure",
      "type": "function"
    }
  ],
  "bytecode": "0x608060405234801561001057600080fd5b506040516120493803806120498339818101604052606081101561003357600080fd5b50805160208201516040909201519091906001600160a01b03808416908316148015906100725750806001600160a01b0316836001600160a01b031614155b80156100905750806001600160a01b0316826001600160a01b031614155b80156100a457506001600160a01b03811615155b6100ad57600080fd5b600080546001600160a01b039485166001600160a01b031991821617909155600280549385169382169390931790925560038054919093169116179055611f50806100f96000396000f3fe6080604052600436106101145760003560e01c80636f730652116100a0578063b60d428811610064578063b60d4288146104ad578063bd50caab146104c2578063c4f4face146104f1578063eedc966a14610524578063f851a4401461055757610114565b80636f730652146103705780637ef59d01146103bd57806389e3f278146103f857806392a88fa21461043f578063ad66e52a1461048657610114565b80632f10cf36116100e75780632f10cf361461023e578063415a73b71461026a5780634e29cba61461029c57806354fd4d50146102f85780635f9eb4ed1461032357610114565b80630f4e1a0914610126578063160c4cf6146101615780631e0018d6146101c65780632ce302d9146101f7575b34801561012057600080fd5b50600080fd5b34801561013257600080fd5b5061015f6004803603604081101561014957600080fd5b506001600160a01b03813516906020013561056c565b005b34801561016d57600080fd5b506101766106e9565b60408051602080825283518183015283519192839290830191858101910280838360005b838110156101b257818101518382015260200161019a565b505050509050019250505060405180910390f35b3480156101d257600080fd5b506101db610789565b604080516001600160a01b039092168252519081900360200190f35b34801561020357600080fd5b5061015f6004803603608081101561021a57600080fd5b506001600160a01b0381358116916020810135916040820135169060600135610798565b61015f6004803603604081101561025457600080fd5b506001600160a01b0381351690602001356109cd565b61015f6004803603606081101561028057600080fd5b506001600160a01b0381351690602081013590604001356109de565b3480156102a857600080fd5b506102c6600480360360208110156102bf57600080fd5b50356109f2565b604080516001600160a01b03958616815293909416602084015282840191909152606082015290519081900360800190f35b34801561030457600080fd5b5061030d610a26565b6040805160ff9092168252519081900360200190f35b34801561032f57600080fd5b5061015f6004803603608081101561034657600080fd5b5080356001600160a01b03908116916020810135909116906040810135906060013560ff16610a2b565b34801561037c57600080fd5b5061015f600480360360a081101561039357600080fd5b506001600160a01b0381358116916020810135916040820135169060608101359060800135610a3d565b3480156103c957600080fd5b5061015f600480360360408110156103e057600080fd5b506001600160a01b0381351690602001351515610ae2565b34801561040457600080fd5b5061015f6004803603608081101561041b57600080fd5b506001600160a01b0381358116916020810135916040820135169060600135610bac565b34801561044b57600080fd5b506104726004803603602081101561046257600080fd5b50356001600160a01b0316610c48565b604080519115158252519081900360200190f35b34801561049257600080fd5b5061049b610c5d565b60408051918252519081900360200190f35b3480156104b957600080fd5b506101db610c62565b61015f600480360360408110156104d857600080fd5b5080356001600160a01b0316906020013560ff16610c71565b3480156104fd57600080fd5b5061015f6004803603602081101561051457600080fd5b50356001600160a01b0316610c7c565b34801561053057600080fd5b5061049b6004803603602081101561054757600080fd5b50356001600160a01b0316610d09565b34801561056357600080fd5b506101db610d85565b60025482906001600160a01b03163314806105a957503360009081526001602052604090205460ff1680156105a95750336001600160a01b038216145b6105b257600080fd5b6001600160a01b038316600090815260016020526040902054839060ff166105d957600080fd5b6002546001600160a01b031633148015906105ff57506003546001600160a01b03163314155b1561061957336001600160a01b0382161461061957600080fd5b6000805460025460408051635931add760e01b81526001600160a01b03898116600483015292831660248201523360448201526064810188905290519190921692635931add7926084808201939182900301818387803b15801561067c57600080fd5b505af1158015610690573d6000803e3d6000fd5b5050604080516001600160a01b038816815233602082015280820187905242606082015290517f0a3fb0839d30fc7e0420364c827723e1d306863b68eae727d9540baf81c5ab129350908190036080019150a150505050565b6002546060906001600160a01b031633148061070f57506003546001600160a01b031633145b8061072957503360009081526001602052604090205460ff165b61073257600080fd5b600780548060200260200160405190810160405280929190818152602001828054801561077e57602002820191906000526020600020905b81548152602001906001019080831161076a575b505050505090505b90565b6002546001600160a01b031681565b6002546001600160a01b03163314806107bb57506003546001600160a01b031633145b806107d557503360009081526001602052604090205460ff165b6107de57600080fd5b6001600160a01b038416600090815260016020526040902054849060ff1661080557600080fd5b6002546001600160a01b0316331480159061082b57506003546001600160a01b03163314155b1561084557336001600160a01b0382161461084557600080fd5b61084d611e81565b506000848152600660209081526040808320815160808101835281546001600160a01b03908116825260018301548116948201949094526002820154818401819052600390920154606082015284548351637004352360e11b81528b8616600482015260248101939093526044830188905233606484015292519094929093169263e0086a469260848084019391929182900301818387803b1580156108f257600080fd5b505af1158015610906573d6000803e3d6000fd5b5050505060608101511561094e576001600160a01b03841661093a576109358682606001518360200151610d94565b61094e565b61094e868583606001518460200151610e75565b604080820151606080840151835133815260208101939093528284018990526001600160a01b038816918301919091526080820186905260a08201524260c082015290517fec374192adf49597a8362baede9329c0ee0bb81a503b9af65ff991212a4b8bf19181900360e00190a16109c585610fa4565b505050505050565b6109da828260003461108c565b5050565b6109ed83338460008534611227565b505050565b60066020526000908152604090208054600182015460028301546003909301546001600160a01b0392831693919092169184565b600190565b610a3784848484611579565b50505050565b8015610acd57604080516323b872dd60e01b81523360048201523060248201526044810183905290516001600160a01b038516916323b872dd9160648083019260209291908290030181600087803b158015610a9857600080fd5b505af1158015610aac573d6000803e3d6000fd5b505050506040513d6020811015610ac257600080fd5b5051610acd57600080fd5b610adb853386868686611227565b5050505050565b6002546001600160a01b03163314610af957600080fd5b6002546001600160a01b03838116911614801590610b2557506003546001600160a01b03838116911614155b8015610b3f57506000546001600160a01b03838116911614155b610b4857600080fd5b6001600160a01b038216600081815260016020908152604091829020805460ff191685151590811790915582519384529083015280517f1a3544092dc1db93ff00d7694d763de72c72c66ca489a6c62593aba947a087ed9281900390910190a15050565b8015610c3c57604080516323b872dd60e01b81523360048201523060248201526044810183905290516001600160a01b038416916323b872dd9160648083019260209291908290030181600087803b158015610c0757600080fd5b505af1158015610c1b573d6000803e3d6000fd5b505050506040513d6020811015610c3157600080fd5b5051610c3c57600080fd5b610a378484848461108c565b60016020526000908152604090205460ff1681565b303190565b6000546001600160a01b031681565b6109da82348361189b565b6003546001600160a01b03163314610c9357600080fd5b6001600160a01b03811615801590610cb957506002546001600160a01b03828116911614155b8015610cde57506001600160a01b03811660009081526001602052604090205460ff16155b610ce757600080fd5b600380546001600160a01b0319166001600160a01b0392909216919091179055565b604080516370a0823160e01b815230600482015290516000916001600160a01b038416916370a0823191602480820192602092909190829003018186803b158015610d5357600080fd5b505afa158015610d67573d6000803e3d6000fd5b505050506040513d6020811015610d7d57600080fd5b505192915050565b6003546001600160a01b031681565b81156109ed576001600160a01b03831660009081526004602090815260408083208380529091529020548190610dd0908463ffffffff611ac616565b6001600160a01b0380861660009081526004602090815260408083208380529091528082209390935591519083169185156108fc02918691818181858888f19350505050158015610e25573d6000803e3d6000fd5b506040805160008152602081018590526001600160a01b0383168183015290517f1be0a78bb08f226c98376fe01c6b0037104329761c8799e7d9f3ba5599c9eba79181900360600190a150505050565b8115610a37576001600160a01b03808516600090815260046020908152604080832093871683529290522054610eb1908363ffffffff611ac616565b6001600160a01b03808616600090815260046020818152604080842089861680865290835281852096909655805163a9059cbb60e01b81529487169285019290925260248401879052905163a9059cbb93604480820194918390030190829087803b158015610f1f57600080fd5b505af1158015610f33573d6000803e3d6000fd5b505050506040513d6020811015610f4957600080fd5b5051610f5457600080fd5b604080516001600160a01b0380861682526020820185905283168183015290517f1be0a78bb08f226c98376fe01c6b0037104329761c8799e7d9f3ba5599c9eba79181900360600190a150505050565b6000805b600754811015611023578160ff1660011415610ff75760078181548110610fcb57fe5b906000526020600020015460076001830381548110610fe657fe5b60009182526020909120015561101b565b6007818154811061100457fe5b906000526020600020015483141561101b57600191505b600101610fa8565b5060078054600019810190811061103657fe5b60009182526020822001556007805490611054906000198301611ebb565b5050600090815260066020526040812080546001600160a01b0319908116825560018201805490911690556002810182905560030155565b6002546001600160a01b03163314806110af57506003546001600160a01b031633145b806110c957503360009081526001602052604090205460ff165b6110d257600080fd5b6001600160a01b038416600090815260016020526040902054849060ff166110f957600080fd5b6002546001600160a01b0316331480159061111f57506003546001600160a01b03163314155b1561113957336001600160a01b0382161461113957600080fd5b84846111458282611b11565b61114e57600080fd5b611156611e81565b50600086815260066020908152604091829020825160808101845281546001600160a01b0390811682526001830154169281019290925260028101549282019290925260039091015460608201526111b18833898989611bab565b60208082015160408084015181516001600160a01b0390931683523393830193909352818101929092526060810189905242608082015290517faf0a9f08f5d6509cfd9dcdfff23a996f6ec8c9808094dfd9e4cee7d91c278b259181900360a00190a161121d87610fa4565b5050505050505050565b60025486906001600160a01b031633148061126457503360009081526001602052604090205460ff1680156112645750336001600160a01b038216145b61126d57600080fd5b6001600160a01b038716600090815260016020526040902054879060ff1661129457600080fd5b6002546001600160a01b031633148015906112ba57506003546001600160a01b03163314155b156112d457336001600160a01b038216146112d457600080fd5b6002546001600160a01b038881169116141561136b5760008054600254604080516302ea5cad60e31b81526001600160a01b038d811660048301529283166024820152604481018b90526064810189905290519190921692631752e568926084808201939182900301818387803b15801561134e57600080fd5b505af1158015611362573d6000803e3d6000fd5b505050506113ef565b600080546002546040805163468bdb2360e01b81526001600160a01b038d811660048301529283166024820152604481018b905260648101899052608481018890529051919092169263468bdb239260a4808201939182900301818387803b1580156113d657600080fd5b505af11580156113ea573d6000803e3d6000fd5b505050505b8215611452576001600160a01b0380891660009081526004602090815260408083209389168352929052205461142b908463ffffffff611d9016565b6001600160a01b03808a166000908152600460209081526040808320938a16835292905220555b6005805460018101909155611465611e81565b6001600160a01b03808b168083528a8216602080850182815260408087018e815260608089018d815260008b8152600687528481208b518154908c166001600160a01b0319918216178255965160018083018054928e1692909916919091179097559351600285015590516003909301929092556007805494850181559091527fa66cc928b5edb82af9bd49922954155ab7b0942694bea4ce44661d9a8736c6889092018890558051948552918401929092528281018c9052908201859052918916608082015260a0810188905260c081018790524260e082015290517ff8b28da55f2ffe4802d23c23f76cc31b0d7eb2e93034f362b5c8b19a0c8e2a9b918190036101000190a150505050505050505050565b6002546001600160a01b0316331461159057600080fd5b6001600160a01b038416600090815260016020526040902054849060ff166115b757600080fd5b6002546001600160a01b031633148015906115dd57506003546001600160a01b03163314155b156115f757336001600160a01b038216146115f757600080fd5b6001600160a01b03841661160a57600080fd5b60ff82166116fd57604080516323b872dd60e01b81523360048201523060248201526044810185905290516001600160a01b038616916323b872dd9160648083019260209291908290030181600087803b15801561166757600080fd5b505af115801561167b573d6000803e3d6000fd5b505050506040513d602081101561169157600080fd5b505161169c57600080fd5b6001600160a01b038086166000908152600460209081526040808320938816835292905220546116d2908463ffffffff611d9016565b6001600160a01b0380871660009081526004602090815260408083209389168352929052205561178b565b604080516323b872dd60e01b81523360048201526001600160a01b038781166024830152604482018690529151918616916323b872dd916064808201926020929091908290030181600087803b15801561175657600080fd5b505af115801561176a573d6000803e3d6000fd5b505050506040513d602081101561178057600080fd5b505161178b57600080fd5b60008054600254604080516341393e2360e11b81526001600160a01b038a81166004830152928316602482015288831660448201526064810188905260ff87166084820152905191909216916382727c469160a480830192602092919082900301818787803b1580156117fd57600080fd5b505af1158015611811573d6000803e3d6000fd5b505050506040513d602081101561182757600080fd5b5051604080516001600160a01b03808a168252336020830152818301849052881660608201526080810187905260ff861660a08201524260c082015290519192507f522ac21ff64b0b4acd11391d410c49c908d042d3c095886334c0c7888df464d2919081900360e00190a1505050505050565b6002546001600160a01b031633146118b257600080fd5b6001600160a01b038316600090815260016020526040902054839060ff166118d957600080fd5b6002546001600160a01b031633148015906118ff57506003546001600160a01b03163314155b1561191957336001600160a01b0382161461191957600080fd5b60ff821661197e576001600160a01b0384166000908152600460209081526040808320838052909152902054611955908463ffffffff611d9016565b6001600160a01b03851660009081526004602090815260408083208380529091529020556119b9565b60405184906001600160a01b0382169085156108fc029086906000818181858888f193505050501580156119b6573d6000803e3d6000fd5b50505b60008054600254604080516341393e2360e11b81526001600160a01b0389811660048301529283166024820152604481018590526064810188905260ff87166084820152905191909216916382727c469160a480830192602092919082900301818787803b158015611a2a57600080fd5b505af1158015611a3e573d6000803e3d6000fd5b505050506040513d6020811015611a5457600080fd5b5051604080516001600160a01b0388168152336020820152808201839052600060608201526080810187905260ff861660a08201524260c082015290519192507f522ac21ff64b0b4acd11391d410c49c908d042d3c095886334c0c7888df464d2919081900360e00190a15050505050565b6000611b0883836040518060400160405280601e81526020017f536166654d6174683a207375627472616374696f6e206f766572666c6f770000815250611dea565b90505b92915050565b600081815260066020526040812080546001600160a01b03858116911614611b3857600080fd5b60018101546001600160a01b0316611b54576000915050611b0b565b60018101546001600160a01b0316331415611b73576000915050611b0b565b3360009081526001602052604090205460ff1615611ba15780546001600160a01b03163314611ba157600080fd5b5060019392505050565b6000838152600660205260409020611bc1611edf565b60008054600280549085015460408051637af64fbf60e11b81526001600160a01b038d8116600483015293841660248201528b841660448201526064810192909252888316608483015260a4820188905251919092169263f5ec9f7e9260c480820193606093909283900390910190829087803b158015611c4157600080fd5b505af1158015611c55573d6000803e3d6000fd5b505050506040513d601f19601f820116820180604052506060811015611c7a57600080fd5b5090508215611ce0576001600160a01b03808816600090815260046020908152604080832093881683529290522054611cb9908463ffffffff611d9016565b6001600160a01b038089166000908152600460209081526040808320938916835292905220555b6001600160a01b038416611d3b578051611cfc90889081610d94565b611d198782600160200201516002546001600160a01b0316610d94565b611d368782600260200201516003546001600160a01b0316610d94565b611d87565b8051611d4b908890869082610e75565b611d69878583600160200201516002546001600160a01b0316610e75565b611d87878583600260200201516003546001600160a01b0316610e75565b50505050505050565b600082820183811015611b08576040805162461bcd60e51b815260206004820152601b60248201527f536166654d6174683a206164646974696f6e206f766572666c6f770000000000604482015290519081900360640190fd5b60008184841115611e795760405162461bcd60e51b81526004018080602001828103825283818151815260200191508051906020019080838360005b83811015611e3e578181015183820152602001611e26565b50505050905090810190601f168015611e6b5780820380516001836020036101000a031916815260200191505b509250505060405180910390fd5b505050900390565b604051806080016040528060006001600160a01b0316815260200160006001600160a01b0316815260200160008152602001600081525090565b8154818355818111156109ed576000838152602090206109ed918101908301611efd565b60405180606001604052806003906020820280388339509192915050565b61078691905b80821115611f175760008155600101611f03565b509056fea265627a7a72315820507f070dea210e1b7e8f4f28e8f0d01ac6d3ce16a9888ba27c7f12c7771b551664736f6c63430005110032",
  "compiler": {
    "name": "solc",
    "version": "0.5.17+commit.d19bba13.Emscripten.clang",
    "optimizer": {
      "enabled": true,
      "runs": 200
    },
    "evmVersion": "petersburg"
  }
}