{
  "fileName": "MultiSigFundWallet.sol",
  "contractName": "MultiSigFundWallet",
  "source": "// \"SPDX-License-Identifier: UNLICENSED\"\npragma solidity >=0.4.21 <0.7.0;\n\nimport \"@openzeppelin/contracts-ethereum-package/contracts/math/SafeMath.sol\";\nimport \"@openzeppelin/contracts-ethereum-package/contracts/token/ERC20/IERC20.sol\";\n\nimport \"./ITraderPaired.sol\";\nimport \"./IMultiSigFundWallet.sol\";\n\ncontract MultiSigFundWallet is IMultiSigFundWallet {\n    using SafeMath for uint256;\n\n    /*\n     *  Constants\n     */\n    address constant ETHER = address(0); // allows storage of ether in blank address in token mapping\n    uint8 constant MAX_TOKENS = 20;\n\n    /*\n     *  Storage\n     */\n    address public fund;\n    mapping (address => bool) public traders;\n    address public investor;\n    address public admin;\n    mapping (address => mapping (address => uint256)) balances;\n    uint256 private disbursementIdx;\n    mapping (uint256 => Disbursement) public disbursements;\n    uint256[] private pendingDisbursements;\n\n    /*\n     *  Events\n     */\n    event SetTrader(address trader, bool active);\n    event Fund(address trader, address investor, uint256 investmentId, address token, uint256 amount, uint256 date);\n    event Stopped(address trader, address initiator, uint256 investmentId, uint256 date);\n    event DisbursementCreated(address trader, address initiator, uint256 investmentId, uint256 disbursementId, address token, uint256 value, uint256 amount, uint256 date);\n    event DisbursementCompleted(address initiator, address signedBy, uint256 investmentId, uint256 disbursementId, uint256 date);\n    event DisbursementRejected(address initiator, uint256 investmentId, uint256 disbursementId, address token, uint256 value, uint256 amount, uint256 date);\n    event Payout(address token, uint256 amount, address to);\n    \n    /*\n     *  Structs\n     */\n    struct Disbursement {\n        address trader;\n        address initiator;\n        uint256 investmentId;\n        uint256 amount;\n    }\n\n    /*\n     *  Modifiers\n     */\n    modifier isAdmin() {\n        require(msg.sender == admin);\n        _;\n    }\n\n    modifier isInvestor() {\n        require(msg.sender == investor);\n        _;\n    }\n\n    modifier isTrader(address _trader) {\n        require(traders[_trader]);\n        if (msg.sender != investor && msg.sender != admin) {\n            require(msg.sender == _trader);\n        }\n        _;\n    }\n\n    modifier isNotTrader(address _trader) {\n        require(!traders[_trader]);\n        _;\n    }\n\n    modifier traderOrInvestor(address _trader) {\n        require(msg.sender == investor || (traders[msg.sender] && msg.sender == _trader));\n        _;\n    }\n\n    modifier validOwner() {\n        require(msg.sender == investor || msg.sender == admin || traders[msg.sender]);\n        _;\n    }\n\n    modifier validSignature(address trader, uint256 disbursementId) {\n        require(_validateSignature(trader, disbursementId));\n        _;\n    }\n\n    // @dev reverts if ether is sent directly\n    function () external {\n        revert();\n    }\n\n    /// @dev Constructor\n    /// @param _fund Fund address\n    /// @param _investor Investor address\n    /// @param _admin Admin address\n    constructor (address _fund, address _investor, address _admin)\n        public\n    {\n        // all are unique and non-zero\n        require (_fund != _investor && _fund != _admin && _investor != _admin && _admin != address(0));\n\n        fund = _fund;\n        investor = _investor;\n        admin = _admin;\n    }\n\n    /// @dev Add/Remove a trader\n    /// @param _trader Trader address\n    /// @param _active set active or not\n    function setTrader(address _trader, bool _active) \n        external\n        isInvestor\n    {\n        // TODO: only deactivate on zero balances\n        require (_trader != investor && _trader != admin && _trader != fund);\n\n        traders[_trader] = _active;\n        emit SetTrader(_trader, _active);\n    }\n\n    /// @dev Replace admin\n    /// @param _admin Admin address\n    function replaceAdmin(address _admin) \n        external\n        isAdmin\n    {\n        require (_admin != address(0) && _admin != investor && !traders[_admin]);\n        admin = _admin;\n    }\n\n    /// @dev Fund wallet with ether\n    /// @param _trader Trader address\n    function fundEther(address _trader) \n        external \n        payable\n    {\n        _fundEther(_trader, msg.value);\n    }\n\n    /// @dev Fund wallet with token\n    /// @param _trader Trader address\n    /// @param _token Token address\n    /// @param _amount Amount of tokens\n    function fundToken(address _trader, address _token, uint256 _amount)\n        external \n    {\n        _fundToken(_trader, _token, _amount);\n    }\n\n    /// @dev Fund wallet with ether\n    /// @param _trader Trader address\n    /// @param _amount Amount of ether\n    function _fundEther(address _trader, uint256 _amount) \n        internal\n        isInvestor\n        isTrader(_trader)\n    {\n        uint256 investmentId = ITraderPaired(fund).invest(_trader, investor, ETHER, _amount);\n        balances[_trader][ETHER] = balances[_trader][ETHER].add(_amount);\n        emit Fund(_trader, msg.sender, investmentId, ETHER, _amount, now);\n    }\n\n    /// @dev Fund wallet with token\n    /// @param _trader Trader address\n    /// @param _token Token address\n    /// @param _amount Amount of tokens\n    function _fundToken(address _trader, address _token, uint256 _amount)\n        internal \n        isInvestor\n        isTrader(_trader)\n    {\n        require(_token != ETHER);\n        require(IERC20(_token).transferFrom(msg.sender, address(this), _amount));\n        uint256 investmentId = ITraderPaired(fund).invest(_trader, investor, _token, _amount);\n        balances[_trader][_token] = balances[_trader][_token].add(_amount);\n        emit Fund(_trader, msg.sender, investmentId, _token, _amount, now);\n    }\n\n    /// @dev Stop investment\n    /// @param _trader Trader address\n    /// @param _investmentId Investment id\n    function stop(address _trader, uint256 _investmentId)\n        external\n        traderOrInvestor(_trader)\n        isTrader(_trader)\n    {\n        ITraderPaired(fund).stop(_trader, investor, msg.sender, _investmentId);\n        \n        emit Stopped(_trader, msg.sender, _investmentId, now);\n    }\n\n    /// @dev Request investment disbursement in ether\n    /// @param _trader Trader address\n    /// @param _investmentId Investment id\n    /// @param _value Investment value\n    function disburseEther(address _trader, uint256 _investmentId, uint256 _value)\n        external\n        payable\n    {\n        _disburse(_trader, msg.sender, _investmentId, ETHER, _value, msg.value);\n    }\n\n    /// @dev Request investment disbursement in tokens\n    /// @param _trader Trader address\n    /// @param _investmentId Investment id\n    /// @param _token Token address\n    /// @param _value Investment value\n    /// @param _amount transaction amount\n    function disburseToken(address _trader, uint256 _investmentId, address _token, uint256 _value, uint256 _amount)\n        external \n    {\n        if (_amount > 0) {\n            require(IERC20(_token).transferFrom(msg.sender, address(this), _amount));\n        }\n        _disburse(_trader, msg.sender, _investmentId, _token, _value, _amount);\n    }\n\n    /// @dev Request investment disbursement\n    /// @param _trader Trader address\n    /// @param _initiator Initiator address\n    /// @param _investmentId Investment id\n    /// @param _token Token address\n    /// @param _value Investment value\n    /// @param _amount transaction amount\n    function _disburse(address _trader, address _initiator, uint256 _investmentId, address _token, uint256 _value, uint256 _amount)\n        internal \n        traderOrInvestor(_trader)\n        isTrader(_trader)\n    {\n        if (_initiator == investor) {\n            ITraderPaired(fund).requestExitInvestor(_trader, investor, _investmentId, _value);\n        } else {\n            ITraderPaired(fund).requestExitTrader(_trader, investor, _investmentId, _value, _amount);\n        }\n\n        if (_amount > 0) {\n            balances[_trader][_token] = balances[_trader][_token].add(_amount);\n        }\n\n        uint256 _disbursementId = disbursementIdx++;\n\n        Disbursement memory _disbursement;\n        _disbursement.trader = _trader;\n        _disbursement.initiator = _initiator;\n        _disbursement.investmentId = _investmentId;\n        _disbursement.amount = _amount;\n\n        disbursements[_disbursementId] = _disbursement;\n        pendingDisbursements.push(_disbursementId);\n\n        emit DisbursementCreated(_trader, _initiator, _investmentId, _disbursementId, _token, _value, _amount, now);\n    }\n\n    /// @dev Get pending disbursements\n    function getPendingDisbursements()\n      external\n      view\n      validOwner\n      returns (uint256[] memory) \n    {\n        return pendingDisbursements;\n    }\n\n    /// @dev Approve ether disbursement\n    /// @param _trader Trader address\n    /// @param _disbursementId disbursement id\n    function approveDisbursementEther(address _trader, uint256 _disbursementId)\n      external\n      payable \n    {\n        _approveDisbursement(_trader, _disbursementId, ETHER, msg.value);\n    }\n\n    /// @dev Approve token disbursement\n    /// @param _trader Trader address\n    /// @param _disbursementId disbursement id\n    /// @param _token Token address\n    /// @param _amount transaction amount\n    function approveDisbursementToken(address _trader, uint256 _disbursementId, address _token, uint256 _amount)\n      external\n    {\n        if (_amount > 0) {\n            require(IERC20(_token).transferFrom(msg.sender, address(this), _amount));\n        }\n\n        _approveDisbursement(_trader, _disbursementId, _token, _amount);\n    }\n\n    /// @dev Approve disbursement\n    /// @param _trader Trader address\n    /// @param _disbursementId disbursement id\n    /// @param _token Token address\n    /// @param _amount transaction amount\n    function _approveDisbursement(address _trader, uint256 _disbursementId, address _token, uint256 _amount)\n      internal\n      validOwner\n      isTrader(_trader)\n      validSignature(_trader, _disbursementId)\n    {\n        Disbursement memory _disbursement = disbursements[_disbursementId];\n        _executeDisbursement(_trader, _disbursementId, _token, _amount);\n        emit DisbursementCompleted(_disbursement.initiator, msg.sender, _disbursement.investmentId, _disbursementId, now);\n        _deleteDisbursement(_disbursementId);\n    }\n\n    /// @dev Reject disbursement\n    /// @param _trader Trader address\n    /// @param _disbursementId disbursement id\n    function rejectDisbursement(address _trader, uint256 _disbursementId, address _token, uint256 _value)\n      external\n      validOwner\n      isTrader(_trader)\n    {\n        Disbursement memory _disbursement = disbursements[_disbursementId];\n        ITraderPaired(fund).rejectExit(_trader, _disbursement.investmentId, _value, msg.sender);\n        \n        if (_disbursement.amount > 0) {\n            if (_token == ETHER) {\n                _payoutEther(_trader, _disbursement.amount, _disbursement.initiator);\n            } else {\n                _payoutToken(_trader, _token, _disbursement.amount, _disbursement.initiator);\n            }\n        }\n        \n        emit DisbursementRejected(msg.sender, _disbursement.investmentId, _disbursementId, _token, _value, _disbursement.amount, now);\n        _deleteDisbursement(_disbursementId);\n    }\n\n    /// @dev Fulfill disbursement\n    /// @param _trader Trader address\n    /// @param _disbursementId disbursement id\n    /// @param _token Token address\n    /// @param _amount transaction amount\n    function _executeDisbursement(address _trader, uint256 _disbursementId, address _token, uint256 _amount) \n        internal \n    {\n        Disbursement storage _disbursement = disbursements[_disbursementId];\n        uint256[3] memory _payouts = ITraderPaired(fund).approveExit(_trader, investor, _disbursement.investmentId, _token, _amount);\n\n        if (_amount > 0) {\n            balances[_trader][_token] = balances[_trader][_token].add(_amount);\n        }\n\n        if (_token == ETHER) {\n            _payoutEther(_trader, _payouts[0], _trader);\n            _payoutEther(_trader, _payouts[1], investor);\n            _payoutEther(_trader, _payouts[2], admin);\n            \n        } else {\n            _payoutToken(_trader, _token, _payouts[0], _trader);\n            _payoutToken(_trader, _token, _payouts[1], investor);\n            _payoutToken(_trader, _token, _payouts[2], admin);\n        }\n    }\n\n    /// @dev Payout ether\n    /// @param _trader Trader address\n    /// @param _amount payment amount\n    /// @param _to Target address\n    function _payoutEther(address _trader, uint256 _amount, address _to) \n        internal\n    {\n        if (_amount > 0) {\n            address payable _toAddress = address(uint160(_to));\n            balances[_trader][ETHER] = balances[_trader][ETHER].sub(_amount);\n            _toAddress.transfer(_amount);\n            emit Payout(ETHER, _amount, _toAddress);\n        }\n    }\n\n    /// @dev Payout tokens\n    /// @param _trader Trader address\n    /// @param _token Token address\n    /// @param _amount payment amount\n    /// @param _to Target address\n    function _payoutToken(address _trader, address _token, uint256 _amount, address _to) \n        internal\n    {\n        if (_amount > 0) {\n            balances[_trader][_token] = balances[_trader][_token].sub(_amount);\n            require(IERC20(_token).transfer(_to, _amount));\n            emit Payout(_token, _amount, _to);\n        }\n    }\n\n    /// @dev Delete disbursement\n    /// @param _disbursementId Disbursement id\n    function _deleteDisbursement(uint256 _disbursementId)\n      internal \n    {\n        uint8 replace = 0;\n        for(uint256 i = 0; i < pendingDisbursements.length; i++) {\n            if (1 == replace) {\n                pendingDisbursements[i-1] = pendingDisbursements[i];\n            } else if (_disbursementId == pendingDisbursements[i]) {\n                replace = 1;\n            }\n        }\n        delete pendingDisbursements[pendingDisbursements.length - 1];\n        pendingDisbursements.length--;\n        delete disbursements[_disbursementId];\n    }\n\n    /// @dev Validate disbursement signature\n    /// @param _trader Trader address\n    /// @param _disbursementId Disbursement id\n    /// @return true if disbursement approval is valid\n    function _validateSignature(address _trader, uint256 _disbursementId)\n        internal\n        view\n        returns (bool)\n    {\n        Disbursement storage _disbursement = disbursements[_disbursementId];\n\n        require (_disbursement.trader == _trader);\n\n        // disbursement must exist\n        if(address(0) == _disbursement.initiator) {\n            return false;\n        }\n        // Initiator cannot sign the disbursement\n        if(msg.sender == _disbursement.initiator) {\n            return false;\n        }\n        // if a trader is signing, it must match the trader for this disbursement\n        if(traders[msg.sender]) {\n            require (_disbursement.trader == msg.sender);\n        }\n\n        return true;\n    }\n\n    /// @dev Get wallet ether balance\n    /// @return ether balance\n    function etherBalance()\n        external\n        view\n        returns (uint256) \n    {\n        return address(this).balance;\n    }\n\n    /// @dev Get wallet token balance\n    /// @param _token Token address\n    /// @return token balance\n    function tokenBalance(address _token)\n        external\n        view\n        returns (uint256) \n    {\n        return IERC20(_token).balanceOf(address(this));\n    }\n}\n",
  "sourcePath": "contracts/MultiSigFundWallet.sol",
  "abi": [
    {
      "inputs": [
        {
          "internalType": "address",
          "name": "_fund",
          "type": "address"
        },
        {
          "internalType": "address",
          "name": "_investor",
          "type": "address"
        },
        {
          "internalType": "address",
          "name": "_admin",
          "type": "address"
        }
      ],
      "payable": false,
      "stateMutability": "nonpayable",
      "type": "constructor"
    },
    {
      "anonymous": false,
      "inputs": [
        {
          "indexed": false,
          "internalType": "address",
          "name": "initiator",
          "type": "address"
        },
        {
          "indexed": false,
          "internalType": "address",
          "name": "signedBy",
          "type": "address"
        },
        {
          "indexed": false,
          "internalType": "uint256",
          "name": "investmentId",
          "type": "uint256"
        },
        {
          "indexed": false,
          "internalType": "uint256",
          "name": "disbursementId",
          "type": "uint256"
        },
        {
          "indexed": false,
          "internalType": "uint256",
          "name": "date",
          "type": "uint256"
        }
      ],
      "name": "DisbursementCompleted",
      "type": "event"
    },
    {
      "anonymous": false,
      "inputs": [
        {
          "indexed": false,
          "internalType": "address",
          "name": "trader",
          "type": "address"
        },
        {
          "indexed": false,
          "internalType": "address",
          "name": "initiator",
          "type": "address"
        },
        {
          "indexed": false,
          "internalType": "uint256",
          "name": "investmentId",
          "type": "uint256"
        },
        {
          "indexed": false,
          "internalType": "uint256",
          "name": "disbursementId",
          "type": "uint256"
        },
        {
          "indexed": false,
          "internalType": "address",
          "name": "token",
          "type": "address"
        },
        {
          "indexed": false,
          "internalType": "uint256",
          "name": "value",
          "type": "uint256"
        },
        {
          "indexed": false,
          "internalType": "uint256",
          "name": "amount",
          "type": "uint256"
        },
        {
          "indexed": false,
          "internalType": "uint256",
          "name": "date",
          "type": "uint256"
        }
      ],
      "name": "DisbursementCreated",
      "type": "event"
    },
    {
      "anonymous": false,
      "inputs": [
        {
          "indexed": false,
          "internalType": "address",
          "name": "initiator",
          "type": "address"
        },
        {
          "indexed": false,
          "internalType": "uint256",
          "name": "investmentId",
          "type": "uint256"
        },
        {
          "indexed": false,
          "internalType": "uint256",
          "name": "disbursementId",
          "type": "uint256"
        },
        {
          "indexed": false,
          "internalType": "address",
          "name": "token",
          "type": "address"
        },
        {
          "indexed": false,
          "internalType": "uint256",
          "name": "value",
          "type": "uint256"
        },
        {
          "indexed": false,
          "internalType": "uint256",
          "name": "amount",
          "type": "uint256"
        },
        {
          "indexed": false,
          "internalType": "uint256",
          "name": "date",
          "type": "uint256"
        }
      ],
      "name": "DisbursementRejected",
      "type": "event"
    },
    {
      "anonymous": false,
      "inputs": [
        {
          "indexed": false,
          "internalType": "address",
          "name": "trader",
          "type": "address"
        },
        {
          "indexed": false,
          "internalType": "address",
          "name": "investor",
          "type": "address"
        },
        {
          "indexed": false,
          "internalType": "uint256",
          "name": "investmentId",
          "type": "uint256"
        },
        {
          "indexed": false,
          "internalType": "address",
          "name": "token",
          "type": "address"
        },
        {
          "indexed": false,
          "internalType": "uint256",
          "name": "amount",
          "type": "uint256"
        },
        {
          "indexed": false,
          "internalType": "uint256",
          "name": "date",
          "type": "uint256"
        }
      ],
      "name": "Fund",
      "type": "event"
    },
    {
      "anonymous": false,
      "inputs": [
        {
          "indexed": false,
          "internalType": "address",
          "name": "token",
          "type": "address"
        },
        {
          "indexed": false,
          "internalType": "uint256",
          "name": "amount",
          "type": "uint256"
        },
        {
          "indexed": false,
          "internalType": "address",
          "name": "to",
          "type": "address"
        }
      ],
      "name": "Payout",
      "type": "event"
    },
    {
      "anonymous": false,
      "inputs": [
        {
          "indexed": false,
          "internalType": "address",
          "name": "trader",
          "type": "address"
        },
        {
          "indexed": false,
          "internalType": "bool",
          "name": "active",
          "type": "bool"
        }
      ],
      "name": "SetTrader",
      "type": "event"
    },
    {
      "anonymous": false,
      "inputs": [
        {
          "indexed": false,
          "internalType": "address",
          "name": "trader",
          "type": "address"
        },
        {
          "indexed": false,
          "internalType": "address",
          "name": "initiator",
          "type": "address"
        },
        {
          "indexed": false,
          "internalType": "uint256",
          "name": "investmentId",
          "type": "uint256"
        },
        {
          "indexed": false,
          "internalType": "uint256",
          "name": "date",
          "type": "uint256"
        }
      ],
      "name": "Stopped",
      "type": "event"
    },
    {
      "payable": false,
      "stateMutability": "nonpayable",
      "type": "fallback"
    },
    {
      "constant": true,
      "inputs": [],
      "name": "admin",
      "outputs": [
        {
          "internalType": "address",
          "name": "",
          "type": "address"
        }
      ],
      "payable": false,
      "stateMutability": "view",
      "type": "function"
    },
    {
      "constant": false,
      "inputs": [
        {
          "internalType": "address",
          "name": "_trader",
          "type": "address"
        },
        {
          "internalType": "uint256",
          "name": "_disbursementId",
          "type": "uint256"
        }
      ],
      "name": "approveDisbursementEther",
      "outputs": [],
      "payable": true,
      "stateMutability": "payable",
      "type": "function"
    },
    {
      "constant": false,
      "inputs": [
        {
          "internalType": "address",
          "name": "_trader",
          "type": "address"
        },
        {
          "internalType": "uint256",
          "name": "_disbursementId",
          "type": "uint256"
        },
        {
          "internalType": "address",
          "name": "_token",
          "type": "address"
        },
        {
          "internalType": "uint256",
          "name": "_amount",
          "type": "uint256"
        }
      ],
      "name": "approveDisbursementToken",
      "outputs": [],
      "payable": false,
      "stateMutability": "nonpayable",
      "type": "function"
    },
    {
      "constant": false,
      "inputs": [
        {
          "internalType": "address",
          "name": "_trader",
          "type": "address"
        },
        {
          "internalType": "uint256",
          "name": "_investmentId",
          "type": "uint256"
        },
        {
          "internalType": "uint256",
          "name": "_value",
          "type": "uint256"
        }
      ],
      "name": "disburseEther",
      "outputs": [],
      "payable": true,
      "stateMutability": "payable",
      "type": "function"
    },
    {
      "constant": false,
      "inputs": [
        {
          "internalType": "address",
          "name": "_trader",
          "type": "address"
        },
        {
          "internalType": "uint256",
          "name": "_investmentId",
          "type": "uint256"
        },
        {
          "internalType": "address",
          "name": "_token",
          "type": "address"
        },
        {
          "internalType": "uint256",
          "name": "_value",
          "type": "uint256"
        },
        {
          "internalType": "uint256",
          "name": "_amount",
          "type": "uint256"
        }
      ],
      "name": "disburseToken",
      "outputs": [],
      "payable": false,
      "stateMutability": "nonpayable",
      "type": "function"
    },
    {
      "constant": true,
      "inputs": [
        {
          "internalType": "uint256",
          "name": "",
          "type": "uint256"
        }
      ],
      "name": "disbursements",
      "outputs": [
        {
          "internalType": "address",
          "name": "trader",
          "type": "address"
        },
        {
          "internalType": "address",
          "name": "initiator",
          "type": "address"
        },
        {
          "internalType": "uint256",
          "name": "investmentId",
          "type": "uint256"
        },
        {
          "internalType": "uint256",
          "name": "amount",
          "type": "uint256"
        }
      ],
      "payable": false,
      "stateMutability": "view",
      "type": "function"
    },
    {
      "constant": true,
      "inputs": [],
      "name": "etherBalance",
      "outputs": [
        {
          "internalType": "uint256",
          "name": "",
          "type": "uint256"
        }
      ],
      "payable": false,
      "stateMutability": "view",
      "type": "function"
    },
    {
      "constant": true,
      "inputs": [],
      "name": "fund",
      "outputs": [
        {
          "internalType": "address",
          "name": "",
          "type": "address"
        }
      ],
      "payable": false,
      "stateMutability": "view",
      "type": "function"
    },
    {
      "constant": false,
      "inputs": [
        {
          "internalType": "address",
          "name": "_trader",
          "type": "address"
        }
      ],
      "name": "fundEther",
      "outputs": [],
      "payable": true,
      "stateMutability": "payable",
      "type": "function"
    },
    {
      "constant": false,
      "inputs": [
        {
          "internalType": "address",
          "name": "_trader",
          "type": "address"
        },
        {
          "internalType": "address",
          "name": "_token",
          "type": "address"
        },
        {
          "internalType": "uint256",
          "name": "_amount",
          "type": "uint256"
        }
      ],
      "name": "fundToken",
      "outputs": [],
      "payable": false,
      "stateMutability": "nonpayable",
      "type": "function"
    },
    {
      "constant": true,
      "inputs": [],
      "name": "getPendingDisbursements",
      "outputs": [
        {
          "internalType": "uint256[]",
          "name": "",
          "type": "uint256[]"
        }
      ],
      "payable": false,
      "stateMutability": "view",
      "type": "function"
    },
    {
      "constant": true,
      "inputs": [],
      "name": "investor",
      "outputs": [
        {
          "internalType": "address",
          "name": "",
          "type": "address"
        }
      ],
      "payable": false,
      "stateMutability": "view",
      "type": "function"
    },
    {
      "constant": false,
      "inputs": [
        {
          "internalType": "address",
          "name": "_trader",
          "type": "address"
        },
        {
          "internalType": "uint256",
          "name": "_disbursementId",
          "type": "uint256"
        },
        {
          "internalType": "address",
          "name": "_token",
          "type": "address"
        },
        {
          "internalType": "uint256",
          "name": "_value",
          "type": "uint256"
        }
      ],
      "name": "rejectDisbursement",
      "outputs": [],
      "payable": false,
      "stateMutability": "nonpayable",
      "type": "function"
    },
    {
      "constant": false,
      "inputs": [
        {
          "internalType": "address",
          "name": "_admin",
          "type": "address"
        }
      ],
      "name": "replaceAdmin",
      "outputs": [],
      "payable": false,
      "stateMutability": "nonpayable",
      "type": "function"
    },
    {
      "constant": false,
      "inputs": [
        {
          "internalType": "address",
          "name": "_trader",
          "type": "address"
        },
        {
          "internalType": "bool",
          "name": "_active",
          "type": "bool"
        }
      ],
      "name": "setTrader",
      "outputs": [],
      "payable": false,
      "stateMutability": "nonpayable",
      "type": "function"
    },
    {
      "constant": false,
      "inputs": [
        {
          "internalType": "address",
          "name": "_trader",
          "type": "address"
        },
        {
          "internalType": "uint256",
          "name": "_investmentId",
          "type": "uint256"
        }
      ],
      "name": "stop",
      "outputs": [],
      "payable": false,
      "stateMutability": "nonpayable",
      "type": "function"
    },
    {
      "constant": true,
      "inputs": [
        {
          "internalType": "address",
          "name": "_token",
          "type": "address"
        }
      ],
      "name": "tokenBalance",
      "outputs": [
        {
          "internalType": "uint256",
          "name": "",
          "type": "uint256"
        }
      ],
      "payable": false,
      "stateMutability": "view",
      "type": "function"
    },
    {
      "constant": true,
      "inputs": [
        {
          "internalType": "address",
          "name": "",
          "type": "address"
        }
      ],
      "name": "traders",
      "outputs": [
        {
          "internalType": "bool",
          "name": "",
          "type": "bool"
        }
      ],
      "payable": false,
      "stateMutability": "view",
      "type": "function"
    }
  ],
  "bytecode": "0x608060405234801561001057600080fd5b50604051611ed2380380611ed28339818101604052606081101561003357600080fd5b50805160208201516040909201519091906001600160a01b03808416908316148015906100725750806001600160a01b0316836001600160a01b031614155b80156100905750806001600160a01b0316826001600160a01b031614155b80156100a457506001600160a01b03811615155b6100ad57600080fd5b600080546001600160a01b039485166001600160a01b031991821617909155600280549385169382169390931790925560038054919093169116179055611dd9806100f96000396000f3fe6080604052600436106101095760003560e01c806389e3f27811610095578063c4f4face11610064578063c4f4face1461043f578063eedc966a14610472578063f851a440146104a5578063f9b50ff3146104ba578063ffad08bb146104e057610109565b806389e3f2781461037557806392a88fa2146103bc578063ad66e52a14610403578063b60d42881461042a57610109565b80632f10cf36116100dc5780632f10cf3614610233578063415a73b71461025f5780634e29cba6146102915780636f730652146102ed5780637ef59d011461033a57610109565b80630f4e1a091461011b578063160c4cf6146101565780631e0018d6146101bb5780632ce302d9146101ec575b34801561011557600080fd5b50600080fd5b34801561012757600080fd5b506101546004803603604081101561013e57600080fd5b506001600160a01b038135169060200135610523565b005b34801561016257600080fd5b5061016b6106a0565b60408051602080825283518183015283519192839290830191858101910280838360005b838110156101a757818101518382015260200161018f565b505050509050019250505060405180910390f35b3480156101c757600080fd5b506101d0610740565b604080516001600160a01b039092168252519081900360200190f35b3480156101f857600080fd5b506101546004803603608081101561020f57600080fd5b506001600160a01b038135811691602081013591604082013516906060013561074f565b6101546004803603604081101561024957600080fd5b506001600160a01b038135169060200135610984565b6101546004803603606081101561027557600080fd5b506001600160a01b038135169060208101359060400135610995565b34801561029d57600080fd5b506102bb600480360360208110156102b457600080fd5b50356109a9565b604080516001600160a01b03958616815293909416602084015282840191909152606082015290519081900360800190f35b3480156102f957600080fd5b50610154600480360360a081101561031057600080fd5b506001600160a01b03813581169160208101359160408201351690606081013590608001356109dd565b34801561034657600080fd5b506101546004803603604081101561035d57600080fd5b506001600160a01b0381351690602001351515610a82565b34801561038157600080fd5b506101546004803603608081101561039857600080fd5b506001600160a01b0381358116916020810135916040820135169060600135610b4c565b3480156103c857600080fd5b506103ef600480360360208110156103df57600080fd5b50356001600160a01b0316610bee565b604080519115158252519081900360200190f35b34801561040f57600080fd5b50610418610c03565b60408051918252519081900360200190f35b34801561043657600080fd5b506101d0610c08565b34801561044b57600080fd5b506101546004803603602081101561046257600080fd5b50356001600160a01b0316610c17565b34801561047e57600080fd5b506104186004803603602081101561049557600080fd5b50356001600160a01b0316610ca4565b3480156104b157600080fd5b506101d0610d20565b610154600480360360208110156104d057600080fd5b50356001600160a01b0316610d2f565b3480156104ec57600080fd5b506101546004803603606081101561050357600080fd5b506001600160a01b03813581169160208101359091169060400135610d3c565b60025482906001600160a01b031633148061056057503360009081526001602052604090205460ff1680156105605750336001600160a01b038216145b61056957600080fd5b6001600160a01b038316600090815260016020526040902054839060ff1661059057600080fd5b6002546001600160a01b031633148015906105b657506003546001600160a01b03163314155b156105d057336001600160a01b038216146105d057600080fd5b6000805460025460408051635931add760e01b81526001600160a01b03898116600483015292831660248201523360448201526064810188905290519190921692635931add7926084808201939182900301818387803b15801561063357600080fd5b505af1158015610647573d6000803e3d6000fd5b5050604080516001600160a01b038816815233602082015280820187905242606082015290517f0a3fb0839d30fc7e0420364c827723e1d306863b68eae727d9540baf81c5ab129350908190036080019150a150505050565b6002546060906001600160a01b03163314806106c657506003546001600160a01b031633145b806106e057503360009081526001602052604090205460ff165b6106e957600080fd5b600780548060200260200160405190810160405280929190818152602001828054801561073557602002820191906000526020600020905b815481526020019060010190808311610721575b505050505090505b90565b6002546001600160a01b031681565b6002546001600160a01b031633148061077257506003546001600160a01b031633145b8061078c57503360009081526001602052604090205460ff165b61079557600080fd5b6001600160a01b038416600090815260016020526040902054849060ff166107bc57600080fd5b6002546001600160a01b031633148015906107e257506003546001600160a01b03163314155b156107fc57336001600160a01b038216146107fc57600080fd5b610804611d0a565b506000848152600660209081526040808320815160808101835281546001600160a01b03908116825260018301548116948201949094526002820154818401819052600390920154606082015284548351637004352360e11b81528b8616600482015260248101939093526044830188905233606484015292519094929093169263e0086a469260848084019391929182900301818387803b1580156108a957600080fd5b505af11580156108bd573d6000803e3d6000fd5b50505050606081015115610905576001600160a01b0384166108f1576108ec8682606001518360200151610d47565b610905565b610905868583606001518460200151610e28565b604080820151606080840151835133815260208101939093528284018990526001600160a01b038816918301919091526080820186905260a08201524260c082015290517fec374192adf49597a8362baede9329c0ee0bb81a503b9af65ff991212a4b8bf19181900360e00190a161097c85610f57565b505050505050565b610991828260003461103f565b5050565b6109a4833384600085346111d9565b505050565b60066020526000908152604090208054600182015460028301546003909301546001600160a01b0392831693919092169184565b8015610a6d57604080516323b872dd60e01b81523360048201523060248201526044810183905290516001600160a01b038516916323b872dd9160648083019260209291908290030181600087803b158015610a3857600080fd5b505af1158015610a4c573d6000803e3d6000fd5b505050506040513d6020811015610a6257600080fd5b5051610a6d57600080fd5b610a7b8533868686866111d9565b5050505050565b6002546001600160a01b03163314610a9957600080fd5b6002546001600160a01b03838116911614801590610ac557506003546001600160a01b03838116911614155b8015610adf57506000546001600160a01b03838116911614155b610ae857600080fd5b6001600160a01b038216600081815260016020908152604091829020805460ff191685151590811790915582519384529083015280517f1a3544092dc1db93ff00d7694d763de72c72c66ca489a6c62593aba947a087ed9281900390910190a15050565b8015610bdc57604080516323b872dd60e01b81523360048201523060248201526044810183905290516001600160a01b038416916323b872dd9160648083019260209291908290030181600087803b158015610ba757600080fd5b505af1158015610bbb573d6000803e3d6000fd5b505050506040513d6020811015610bd157600080fd5b5051610bdc57600080fd5b610be88484848461103f565b50505050565b60016020526000908152604090205460ff1681565b303190565b6000546001600160a01b031681565b6003546001600160a01b03163314610c2e57600080fd5b6001600160a01b03811615801590610c5457506002546001600160a01b03828116911614155b8015610c7957506001600160a01b03811660009081526001602052604090205460ff16155b610c8257600080fd5b600380546001600160a01b0319166001600160a01b0392909216919091179055565b604080516370a0823160e01b815230600482015290516000916001600160a01b038416916370a0823191602480820192602092909190829003018186803b158015610cee57600080fd5b505afa158015610d02573d6000803e3d6000fd5b505050506040513d6020811015610d1857600080fd5b505192915050565b6003546001600160a01b031681565b610d39813461152b565b50565b6109a48383836116ef565b81156109a4576001600160a01b03831660009081526004602090815260408083208380529091529020548190610d83908463ffffffff61196016565b6001600160a01b0380861660009081526004602090815260408083208380529091528082209390935591519083169185156108fc02918691818181858888f19350505050158015610dd8573d6000803e3d6000fd5b506040805160008152602081018590526001600160a01b0383168183015290517f1be0a78bb08f226c98376fe01c6b0037104329761c8799e7d9f3ba5599c9eba79181900360600190a150505050565b8115610be8576001600160a01b03808516600090815260046020908152604080832093871683529290522054610e64908363ffffffff61196016565b6001600160a01b03808616600090815260046020818152604080842089861680865290835281852096909655805163a9059cbb60e01b81529487169285019290925260248401879052905163a9059cbb93604480820194918390030190829087803b158015610ed257600080fd5b505af1158015610ee6573d6000803e3d6000fd5b505050506040513d6020811015610efc57600080fd5b5051610f0757600080fd5b604080516001600160a01b0380861682526020820185905283168183015290517f1be0a78bb08f226c98376fe01c6b0037104329761c8799e7d9f3ba5599c9eba79181900360600190a150505050565b6000805b600754811015610fd6578160ff1660011415610faa5760078181548110610f7e57fe5b906000526020600020015460076001830381548110610f9957fe5b600091825260209091200155610fce565b60078181548110610fb757fe5b9060005260206000200154831415610fce57600191505b600101610f5b565b50600780546000198101908110610fe957fe5b60009182526020822001556007805490611007906000198301611d44565b5050600090815260066020526040812080546001600160a01b0319908116825560018201805490911690556002810182905560030155565b6002546001600160a01b031633148061106257506003546001600160a01b031633145b8061107c57503360009081526001602052604090205460ff165b61108557600080fd5b6001600160a01b038416600090815260016020526040902054849060ff166110ac57600080fd5b6002546001600160a01b031633148015906110d257506003546001600160a01b03163314155b156110ec57336001600160a01b038216146110ec57600080fd5b84846110f882826119ab565b61110157600080fd5b611109611d0a565b50600086815260066020908152604091829020825160808101845281546001600160a01b03908116825260018301541692810192909252600281015492820192909252600390910154606082015261116388888888611a45565b60208082015160408084015181516001600160a01b0390931683523393830193909352818101929092526060810189905242608082015290517faf0a9f08f5d6509cfd9dcdfff23a996f6ec8c9808094dfd9e4cee7d91c278b259181900360a00190a16111cf87610f57565b5050505050505050565b60025486906001600160a01b031633148061121657503360009081526001602052604090205460ff1680156112165750336001600160a01b038216145b61121f57600080fd5b6001600160a01b038716600090815260016020526040902054879060ff1661124657600080fd5b6002546001600160a01b0316331480159061126c57506003546001600160a01b03163314155b1561128657336001600160a01b0382161461128657600080fd5b6002546001600160a01b038881169116141561131d5760008054600254604080516302ea5cad60e31b81526001600160a01b038d811660048301529283166024820152604481018b90526064810189905290519190921692631752e568926084808201939182900301818387803b15801561130057600080fd5b505af1158015611314573d6000803e3d6000fd5b505050506113a1565b600080546002546040805163468bdb2360e01b81526001600160a01b038d811660048301529283166024820152604481018b905260648101899052608481018890529051919092169263468bdb239260a4808201939182900301818387803b15801561138857600080fd5b505af115801561139c573d6000803e3d6000fd5b505050505b8215611404576001600160a01b038089166000908152600460209081526040808320938916835292905220546113dd908463ffffffff611c1916565b6001600160a01b03808a166000908152600460209081526040808320938a16835292905220555b6005805460018101909155611417611d0a565b6001600160a01b03808b168083528a8216602080850182815260408087018e815260608089018d815260008b8152600687528481208b518154908c166001600160a01b0319918216178255965160018083018054928e1692909916919091179097559351600285015590516003909301929092556007805494850181559091527fa66cc928b5edb82af9bd49922954155ab7b0942694bea4ce44661d9a8736c6889092018890558051948552918401929092528281018c9052908201859052918916608082015260a0810188905260c081018790524260e082015290517ff8b28da55f2ffe4802d23c23f76cc31b0d7eb2e93034f362b5c8b19a0c8e2a9b918190036101000190a150505050505050505050565b6002546001600160a01b0316331461154257600080fd5b6001600160a01b038216600090815260016020526040902054829060ff1661156957600080fd5b6002546001600160a01b0316331480159061158f57506003546001600160a01b03163314155b156115a957336001600160a01b038216146115a957600080fd5b6000805460025460408051630c4b6f2960e11b81526001600160a01b0388811660048301529283166024820152604481018590526064810187905290519190921691631896de5291608480830192602092919082900301818787803b15801561161157600080fd5b505af1158015611625573d6000803e3d6000fd5b505050506040513d602081101561163b57600080fd5b50516001600160a01b0385166000908152600460209081526040808320838052909152902054909150611674908463ffffffff611c1916565b6001600160a01b0385166000818152600460209081526040808320838052825280832094909455835192835233908301528183018490526060820152608081018590524260a082015290517f8d543feb7ab204eb3d3c58cdc5b330052056bbabbdc1b1fddd51049ac954712c9181900360c00190a150505050565b6002546001600160a01b0316331461170657600080fd5b6001600160a01b038316600090815260016020526040902054839060ff1661172d57600080fd5b6002546001600160a01b0316331480159061175357506003546001600160a01b03163314155b1561176d57336001600160a01b0382161461176d57600080fd5b6001600160a01b03831661178057600080fd5b604080516323b872dd60e01b81523360048201523060248201526044810184905290516001600160a01b038516916323b872dd9160648083019260209291908290030181600087803b1580156117d557600080fd5b505af11580156117e9573d6000803e3d6000fd5b505050506040513d60208110156117ff57600080fd5b505161180a57600080fd5b6000805460025460408051630c4b6f2960e11b81526001600160a01b038981166004830152928316602482015287831660448201526064810187905290519190921691631896de5291608480830192602092919082900301818787803b15801561187357600080fd5b505af1158015611887573d6000803e3d6000fd5b505050506040513d602081101561189d57600080fd5b50516001600160a01b038087166000908152600460209081526040808320938916835292905220549091506118d8908463ffffffff611c1916565b6001600160a01b038087166000818152600460209081526040808320948a168084529482529182902094909455805191825233938201939093528083018490526060810191909152608081018590524260a082015290517f8d543feb7ab204eb3d3c58cdc5b330052056bbabbdc1b1fddd51049ac954712c9181900360c00190a15050505050565b60006119a283836040518060400160405280601e81526020017f536166654d6174683a207375627472616374696f6e206f766572666c6f770000815250611c73565b90505b92915050565b600081815260066020526040812080546001600160a01b038581169116146119d257600080fd5b60018101546001600160a01b03166119ee5760009150506119a5565b60018101546001600160a01b0316331415611a0d5760009150506119a5565b3360009081526001602052604090205460ff1615611a3b5780546001600160a01b03163314611a3b57600080fd5b5060019392505050565b6000838152600660205260409020611a5b611d68565b6000805460028054908501546040805163a57a71b760e01b81526001600160a01b038c811660048301529384166024820152604481019290925288831660648301526084820188905251919092169263a57a71b79260a480820193606093909283900390910190829087803b158015611ad357600080fd5b505af1158015611ae7573d6000803e3d6000fd5b505050506040513d601f19601f820116820180604052506060811015611b0c57600080fd5b5090508215611b72576001600160a01b03808716600090815260046020908152604080832093881683529290522054611b4b908463ffffffff611c1916565b6001600160a01b038088166000908152600460209081526040808320938916835292905220555b6001600160a01b038416611bcd578051611b8e90879081610d47565b611bab8682600160200201516002546001600160a01b0316610d47565b611bc88682600260200201516003546001600160a01b0316610d47565b61097c565b8051611bdd908790869082610e28565b611bfb868583600160200201516002546001600160a01b0316610e28565b61097c868583600260200201516003546001600160a01b0316610e28565b6000828201838110156119a2576040805162461bcd60e51b815260206004820152601b60248201527f536166654d6174683a206164646974696f6e206f766572666c6f770000000000604482015290519081900360640190fd5b60008184841115611d025760405162461bcd60e51b81526004018080602001828103825283818151815260200191508051906020019080838360005b83811015611cc7578181015183820152602001611caf565b50505050905090810190601f168015611cf45780820380516001836020036101000a031916815260200191505b509250505060405180910390fd5b505050900390565b604051806080016040528060006001600160a01b0316815260200160006001600160a01b0316815260200160008152602001600081525090565b8154818355818111156109a4576000838152602090206109a4918101908301611d86565b60405180606001604052806003906020820280388339509192915050565b61073d91905b80821115611da05760008155600101611d8c565b509056fea265627a7a7231582017b265d6247a8930ed005df574705ba849135dd8392954c3e3821b340ede009264736f6c63430005110032",
  "compiler": {
    "name": "solc",
    "version": "0.5.17+commit.d19bba13.Emscripten.clang",
    "optimizer": {
      "enabled": true,
      "runs": 200
    },
    "evmVersion": "petersburg"
  }
}