{
  "fileName": "MultiSigFundWalletFactory.sol",
  "contractName": "MultiSigFundWalletFactory",
  "source": "// \"SPDX-License-Identifier: UNLICENSED\"\npragma solidity >=0.4.21 <0.7.0;\n\nimport \"@openzeppelin/contracts-ethereum-package/contracts/ownership/Ownable.sol\";\nimport \"@openzeppelin/upgrades/contracts/Initializable.sol\";\nimport \"./Factory.sol\";\nimport \"./MultiSigFundWallet.sol\";\nimport \"./IMultiSigFundWalletFactory.sol\";\n\n\ncontract MultiSigFundWalletFactory is Factory, Ownable, IMultiSigFundWalletFactory {\n\n\t/*\n     *  Storage\n     */\n\taddress public manager;\n\n\t/*\n     *  Modifiers\n     */\n    modifier onlyManager() {\n        require(manager == msg.sender);\n        _;\n    }\n\n    /// @dev Initialize\n    function initialize() \n        public \n        initializer \n    {\n        Ownable.initialize(msg.sender);\n    }\n\n    /// @dev Set manager contract address\n    /// @param _manager Manager address\n    function setManager(address _manager) \n        public \n        onlyOwner \n    {\n        manager = _manager;\n    }\n\n    /// @dev Create a new multisig wallet\n    /// @param _fund Fund address\n    /// @param _investor Investor address\n    /// @param _admin Wallet admin address\n    /// @return new wallet address\n    function create(address _fund, address _investor, address _admin)\n        public\n        onlyManager\n        returns (address wallet)\n    {\n        MultiSigFundWallet msfw = new MultiSigFundWallet(_fund, _investor, _admin);\n        wallet = address(msfw);\n        register(wallet, _investor);\n    }\n}\n",
  "sourcePath": "contracts/MultiSigFundWalletFactory.sol",
  "abi": [
    {
      "anonymous": false,
      "inputs": [
        {
          "indexed": false,
          "internalType": "address",
          "name": "creator",
          "type": "address"
        },
        {
          "indexed": false,
          "internalType": "address",
          "name": "instantiation",
          "type": "address"
        }
      ],
      "name": "ContractInstantiation",
      "type": "event"
    },
    {
      "anonymous": false,
      "inputs": [
        {
          "indexed": true,
          "internalType": "address",
          "name": "previousOwner",
          "type": "address"
        },
        {
          "indexed": true,
          "internalType": "address",
          "name": "newOwner",
          "type": "address"
        }
      ],
      "name": "OwnershipTransferred",
      "type": "event"
    },
    {
      "constant": false,
      "inputs": [
        {
          "internalType": "address",
          "name": "_fund",
          "type": "address"
        },
        {
          "internalType": "address",
          "name": "_investor",
          "type": "address"
        },
        {
          "internalType": "address",
          "name": "_admin",
          "type": "address"
        }
      ],
      "name": "create",
      "outputs": [
        {
          "internalType": "address",
          "name": "wallet",
          "type": "address"
        }
      ],
      "payable": false,
      "stateMutability": "nonpayable",
      "type": "function"
    },
    {
      "constant": true,
      "inputs": [
        {
          "internalType": "address",
          "name": "creator",
          "type": "address"
        }
      ],
      "name": "getInstantiationCount",
      "outputs": [
        {
          "internalType": "uint256",
          "name": "",
          "type": "uint256"
        }
      ],
      "payable": false,
      "stateMutability": "view",
      "type": "function"
    },
    {
      "constant": true,
      "inputs": [
        {
          "internalType": "address",
          "name": "creator",
          "type": "address"
        }
      ],
      "name": "getInstantiations",
      "outputs": [
        {
          "internalType": "address[]",
          "name": "",
          "type": "address[]"
        }
      ],
      "payable": false,
      "stateMutability": "view",
      "type": "function"
    },
    {
      "constant": false,
      "inputs": [],
      "name": "initialize",
      "outputs": [],
      "payable": false,
      "stateMutability": "nonpayable",
      "type": "function"
    },
    {
      "constant": false,
      "inputs": [
        {
          "internalType": "address",
          "name": "sender",
          "type": "address"
        }
      ],
      "name": "initialize",
      "outputs": [],
      "payable": false,
      "stateMutability": "nonpayable",
      "type": "function"
    },
    {
      "constant": true,
      "inputs": [
        {
          "internalType": "address",
          "name": "",
          "type": "address"
        },
        {
          "internalType": "uint256",
          "name": "",
          "type": "uint256"
        }
      ],
      "name": "instantiations",
      "outputs": [
        {
          "internalType": "address",
          "name": "",
          "type": "address"
        }
      ],
      "payable": false,
      "stateMutability": "view",
      "type": "function"
    },
    {
      "constant": true,
      "inputs": [
        {
          "internalType": "address",
          "name": "",
          "type": "address"
        }
      ],
      "name": "isInstantiation",
      "outputs": [
        {
          "internalType": "bool",
          "name": "",
          "type": "bool"
        }
      ],
      "payable": false,
      "stateMutability": "view",
      "type": "function"
    },
    {
      "constant": true,
      "inputs": [],
      "name": "isOwner",
      "outputs": [
        {
          "internalType": "bool",
          "name": "",
          "type": "bool"
        }
      ],
      "payable": false,
      "stateMutability": "view",
      "type": "function"
    },
    {
      "constant": true,
      "inputs": [],
      "name": "manager",
      "outputs": [
        {
          "internalType": "address",
          "name": "",
          "type": "address"
        }
      ],
      "payable": false,
      "stateMutability": "view",
      "type": "function"
    },
    {
      "constant": true,
      "inputs": [],
      "name": "owner",
      "outputs": [
        {
          "internalType": "address",
          "name": "",
          "type": "address"
        }
      ],
      "payable": false,
      "stateMutability": "view",
      "type": "function"
    },
    {
      "constant": false,
      "inputs": [],
      "name": "renounceOwnership",
      "outputs": [],
      "payable": false,
      "stateMutability": "nonpayable",
      "type": "function"
    },
    {
      "constant": false,
      "inputs": [
        {
          "internalType": "address",
          "name": "_manager",
          "type": "address"
        }
      ],
      "name": "setManager",
      "outputs": [],
      "payable": false,
      "stateMutability": "nonpayable",
      "type": "function"
    },
    {
      "constant": false,
      "inputs": [
        {
          "internalType": "address",
          "name": "newOwner",
          "type": "address"
        }
      ],
      "name": "transferOwnership",
      "outputs": [],
      "payable": false,
      "stateMutability": "nonpayable",
      "type": "function"
    }
  ],
  "bytecode": "0x60806040526129b0806100136000396000f3fe608060405234801561001057600080fd5b50600436106100cf5760003560e01c80638da5cb5b1161008c5780639c041ebd116100665780639c041ebd1461022e578063c4d66de814610266578063d0ebdbe71461028c578063f2fde38b146102b2576100cf565b80638da5cb5b146101e65780638f32d59b146101ee5780638f838478146101f6576100cf565b80630c6cc52a146100d45780632f4f33161461014a578063481c6a751461018457806357183c82146101a8578063715018a6146101d45780638129fc1c146101de575b600080fd5b6100fa600480360360208110156100ea57600080fd5b50356001600160a01b03166102d8565b60408051602080825283518183015283519192839290830191858101910280838360005b8381101561013657818101518382015260200161011e565b505050509050019250505060405180910390f35b6101706004803603602081101561016057600080fd5b50356001600160a01b031661034e565b604080519115158252519081900360200190f35b61018c610363565b604080516001600160a01b039092168252519081900360200190f35b61018c600480360360408110156101be57600080fd5b506001600160a01b038135169060200135610372565b6101dc6103a7565b005b6101dc61044a565b61018c6104f5565b610170610504565b61021c6004803603602081101561020c57600080fd5b50356001600160a01b031661052a565b60408051918252519081900360200190f35b61018c6004803603606081101561024457600080fd5b506001600160a01b038135811691602081013582169160409091013516610545565b6101dc6004803603602081101561027c57600080fd5b50356001600160a01b03166105c7565b6101dc600480360360208110156102a257600080fd5b50356001600160a01b03166106b9565b6101dc600480360360208110156102c857600080fd5b50356001600160a01b0316610734565b6001600160a01b03811660009081526001602090815260409182902080548351818402810184019094528084526060939283018282801561034257602002820191906000526020600020905b81546001600160a01b03168152600190910190602001808311610324575b50505050509050919050565b60006020819052908152604090205460ff1681565b6068546001600160a01b031681565b6001602052816000526040600020818154811061038b57fe5b6000918252602090912001546001600160a01b03169150829050565b6103af610504565b610400576040805162461bcd60e51b815260206004820181905260248201527f4f776e61626c653a2063616c6c6572206973206e6f7420746865206f776e6572604482015290519081900360640190fd5b6035546040516000916001600160a01b0316907f8be0079c531659141344cd1fd0a4f28419497f9722a3daafe3b4186f6b6457e0908390a3603580546001600160a01b0319169055565b600254610100900460ff16806104635750610463610796565b80610471575060025460ff16155b6104ac5760405162461bcd60e51b815260040180806020018281038252602e81526020018061294e602e913960400191505060405180910390fd5b600254610100900460ff161580156104d7576002805460ff1961ff0019909116610100171660011790555b6104e0336105c7565b80156104f2576002805461ff00191690555b50565b6035546001600160a01b031690565b6035546000906001600160a01b031661051b61079c565b6001600160a01b031614905090565b6001600160a01b031660009081526001602052604090205490565b6068546000906001600160a01b0316331461055f57600080fd5b6000848484604051610570906108d1565b6001600160a01b03938416815291831660208301529091166040808301919091525190819003606001906000f0801580156105af573d6000803e3d6000fd5b5090508091506105bf82856107a0565b509392505050565b600254610100900460ff16806105e057506105e0610796565b806105ee575060025460ff16155b6106295760405162461bcd60e51b815260040180806020018281038252602e81526020018061294e602e913960400191505060405180910390fd5b600254610100900460ff16158015610654576002805460ff1961ff0019909116610100171660011790555b603580546001600160a01b0319166001600160a01b0384811691909117918290556040519116906000907f8be0079c531659141344cd1fd0a4f28419497f9722a3daafe3b4186f6b6457e0908290a380156106b5576002805461ff00191690555b5050565b6106c1610504565b610712576040805162461bcd60e51b815260206004820181905260248201527f4f776e61626c653a2063616c6c6572206973206e6f7420746865206f776e6572604482015290519081900360640190fd5b606880546001600160a01b0319166001600160a01b0392909216919091179055565b61073c610504565b61078d576040805162461bcd60e51b815260206004820181905260248201527f4f776e61626c653a2063616c6c6572206973206e6f7420746865206f776e6572604482015290519081900360640190fd5b6104f281610830565b303b1590565b3390565b6001600160a01b03808316600081815260208181526040808320805460ff191660019081179091559486168084528583528184208054968701815584529282902090940180546001600160a01b03191684179055835191825281019190915281517f4fb057ad4a26ed17a57957fa69c306f11987596069b89521c511fc9a894e6161929181900390910190a15050565b6001600160a01b0381166108755760405162461bcd60e51b81526004018080602001828103825260268152602001806129286026913960400191505060405180910390fd5b6035546040516001600160a01b038084169216907f8be0079c531659141344cd1fd0a4f28419497f9722a3daafe3b4186f6b6457e090600090a3603580546001600160a01b0319166001600160a01b0392909216919091179055565b612049806108df8339019056fe608060405234801561001057600080fd5b506040516120493803806120498339818101604052606081101561003357600080fd5b50805160208201516040909201519091906001600160a01b03808416908316148015906100725750806001600160a01b0316836001600160a01b031614155b80156100905750806001600160a01b0316826001600160a01b031614155b80156100a457506001600160a01b03811615155b6100ad57600080fd5b600080546001600160a01b039485166001600160a01b031991821617909155600280549385169382169390931790925560038054919093169116179055611f50806100f96000396000f3fe6080604052600436106101145760003560e01c80636f730652116100a0578063b60d428811610064578063b60d4288146104ad578063bd50caab146104c2578063c4f4face146104f1578063eedc966a14610524578063f851a4401461055757610114565b80636f730652146103705780637ef59d01146103bd57806389e3f278146103f857806392a88fa21461043f578063ad66e52a1461048657610114565b80632f10cf36116100e75780632f10cf361461023e578063415a73b71461026a5780634e29cba61461029c57806354fd4d50146102f85780635f9eb4ed1461032357610114565b80630f4e1a0914610126578063160c4cf6146101615780631e0018d6146101c65780632ce302d9146101f7575b34801561012057600080fd5b50600080fd5b34801561013257600080fd5b5061015f6004803603604081101561014957600080fd5b506001600160a01b03813516906020013561056c565b005b34801561016d57600080fd5b506101766106e9565b60408051602080825283518183015283519192839290830191858101910280838360005b838110156101b257818101518382015260200161019a565b505050509050019250505060405180910390f35b3480156101d257600080fd5b506101db610789565b604080516001600160a01b039092168252519081900360200190f35b34801561020357600080fd5b5061015f6004803603608081101561021a57600080fd5b506001600160a01b0381358116916020810135916040820135169060600135610798565b61015f6004803603604081101561025457600080fd5b506001600160a01b0381351690602001356109cd565b61015f6004803603606081101561028057600080fd5b506001600160a01b0381351690602081013590604001356109de565b3480156102a857600080fd5b506102c6600480360360208110156102bf57600080fd5b50356109f2565b604080516001600160a01b03958616815293909416602084015282840191909152606082015290519081900360800190f35b34801561030457600080fd5b5061030d610a26565b6040805160ff9092168252519081900360200190f35b34801561032f57600080fd5b5061015f6004803603608081101561034657600080fd5b5080356001600160a01b03908116916020810135909116906040810135906060013560ff16610a2b565b34801561037c57600080fd5b5061015f600480360360a081101561039357600080fd5b506001600160a01b0381358116916020810135916040820135169060608101359060800135610a3d565b3480156103c957600080fd5b5061015f600480360360408110156103e057600080fd5b506001600160a01b0381351690602001351515610ae2565b34801561040457600080fd5b5061015f6004803603608081101561041b57600080fd5b506001600160a01b0381358116916020810135916040820135169060600135610bac565b34801561044b57600080fd5b506104726004803603602081101561046257600080fd5b50356001600160a01b0316610c48565b604080519115158252519081900360200190f35b34801561049257600080fd5b5061049b610c5d565b60408051918252519081900360200190f35b3480156104b957600080fd5b506101db610c62565b61015f600480360360408110156104d857600080fd5b5080356001600160a01b0316906020013560ff16610c71565b3480156104fd57600080fd5b5061015f6004803603602081101561051457600080fd5b50356001600160a01b0316610c7c565b34801561053057600080fd5b5061049b6004803603602081101561054757600080fd5b50356001600160a01b0316610d09565b34801561056357600080fd5b506101db610d85565b60025482906001600160a01b03163314806105a957503360009081526001602052604090205460ff1680156105a95750336001600160a01b038216145b6105b257600080fd5b6001600160a01b038316600090815260016020526040902054839060ff166105d957600080fd5b6002546001600160a01b031633148015906105ff57506003546001600160a01b03163314155b1561061957336001600160a01b0382161461061957600080fd5b6000805460025460408051635931add760e01b81526001600160a01b03898116600483015292831660248201523360448201526064810188905290519190921692635931add7926084808201939182900301818387803b15801561067c57600080fd5b505af1158015610690573d6000803e3d6000fd5b5050604080516001600160a01b038816815233602082015280820187905242606082015290517f0a3fb0839d30fc7e0420364c827723e1d306863b68eae727d9540baf81c5ab129350908190036080019150a150505050565b6002546060906001600160a01b031633148061070f57506003546001600160a01b031633145b8061072957503360009081526001602052604090205460ff165b61073257600080fd5b600780548060200260200160405190810160405280929190818152602001828054801561077e57602002820191906000526020600020905b81548152602001906001019080831161076a575b505050505090505b90565b6002546001600160a01b031681565b6002546001600160a01b03163314806107bb57506003546001600160a01b031633145b806107d557503360009081526001602052604090205460ff165b6107de57600080fd5b6001600160a01b038416600090815260016020526040902054849060ff1661080557600080fd5b6002546001600160a01b0316331480159061082b57506003546001600160a01b03163314155b1561084557336001600160a01b0382161461084557600080fd5b61084d611e81565b506000848152600660209081526040808320815160808101835281546001600160a01b03908116825260018301548116948201949094526002820154818401819052600390920154606082015284548351637004352360e11b81528b8616600482015260248101939093526044830188905233606484015292519094929093169263e0086a469260848084019391929182900301818387803b1580156108f257600080fd5b505af1158015610906573d6000803e3d6000fd5b5050505060608101511561094e576001600160a01b03841661093a576109358682606001518360200151610d94565b61094e565b61094e868583606001518460200151610e75565b604080820151606080840151835133815260208101939093528284018990526001600160a01b038816918301919091526080820186905260a08201524260c082015290517fec374192adf49597a8362baede9329c0ee0bb81a503b9af65ff991212a4b8bf19181900360e00190a16109c585610fa4565b505050505050565b6109da828260003461108c565b5050565b6109ed83338460008534611227565b505050565b60066020526000908152604090208054600182015460028301546003909301546001600160a01b0392831693919092169184565b600190565b610a3784848484611579565b50505050565b8015610acd57604080516323b872dd60e01b81523360048201523060248201526044810183905290516001600160a01b038516916323b872dd9160648083019260209291908290030181600087803b158015610a9857600080fd5b505af1158015610aac573d6000803e3d6000fd5b505050506040513d6020811015610ac257600080fd5b5051610acd57600080fd5b610adb853386868686611227565b5050505050565b6002546001600160a01b03163314610af957600080fd5b6002546001600160a01b03838116911614801590610b2557506003546001600160a01b03838116911614155b8015610b3f57506000546001600160a01b03838116911614155b610b4857600080fd5b6001600160a01b038216600081815260016020908152604091829020805460ff191685151590811790915582519384529083015280517f1a3544092dc1db93ff00d7694d763de72c72c66ca489a6c62593aba947a087ed9281900390910190a15050565b8015610c3c57604080516323b872dd60e01b81523360048201523060248201526044810183905290516001600160a01b038416916323b872dd9160648083019260209291908290030181600087803b158015610c0757600080fd5b505af1158015610c1b573d6000803e3d6000fd5b505050506040513d6020811015610c3157600080fd5b5051610c3c57600080fd5b610a378484848461108c565b60016020526000908152604090205460ff1681565b303190565b6000546001600160a01b031681565b6109da82348361189b565b6003546001600160a01b03163314610c9357600080fd5b6001600160a01b03811615801590610cb957506002546001600160a01b03828116911614155b8015610cde57506001600160a01b03811660009081526001602052604090205460ff16155b610ce757600080fd5b600380546001600160a01b0319166001600160a01b0392909216919091179055565b604080516370a0823160e01b815230600482015290516000916001600160a01b038416916370a0823191602480820192602092909190829003018186803b158015610d5357600080fd5b505afa158015610d67573d6000803e3d6000fd5b505050506040513d6020811015610d7d57600080fd5b505192915050565b6003546001600160a01b031681565b81156109ed576001600160a01b03831660009081526004602090815260408083208380529091529020548190610dd0908463ffffffff611ac616565b6001600160a01b0380861660009081526004602090815260408083208380529091528082209390935591519083169185156108fc02918691818181858888f19350505050158015610e25573d6000803e3d6000fd5b506040805160008152602081018590526001600160a01b0383168183015290517f1be0a78bb08f226c98376fe01c6b0037104329761c8799e7d9f3ba5599c9eba79181900360600190a150505050565b8115610a37576001600160a01b03808516600090815260046020908152604080832093871683529290522054610eb1908363ffffffff611ac616565b6001600160a01b03808616600090815260046020818152604080842089861680865290835281852096909655805163a9059cbb60e01b81529487169285019290925260248401879052905163a9059cbb93604480820194918390030190829087803b158015610f1f57600080fd5b505af1158015610f33573d6000803e3d6000fd5b505050506040513d6020811015610f4957600080fd5b5051610f5457600080fd5b604080516001600160a01b0380861682526020820185905283168183015290517f1be0a78bb08f226c98376fe01c6b0037104329761c8799e7d9f3ba5599c9eba79181900360600190a150505050565b6000805b600754811015611023578160ff1660011415610ff75760078181548110610fcb57fe5b906000526020600020015460076001830381548110610fe657fe5b60009182526020909120015561101b565b6007818154811061100457fe5b906000526020600020015483141561101b57600191505b600101610fa8565b5060078054600019810190811061103657fe5b60009182526020822001556007805490611054906000198301611ebb565b5050600090815260066020526040812080546001600160a01b0319908116825560018201805490911690556002810182905560030155565b6002546001600160a01b03163314806110af57506003546001600160a01b031633145b806110c957503360009081526001602052604090205460ff165b6110d257600080fd5b6001600160a01b038416600090815260016020526040902054849060ff166110f957600080fd5b6002546001600160a01b0316331480159061111f57506003546001600160a01b03163314155b1561113957336001600160a01b0382161461113957600080fd5b84846111458282611b11565b61114e57600080fd5b611156611e81565b50600086815260066020908152604091829020825160808101845281546001600160a01b0390811682526001830154169281019290925260028101549282019290925260039091015460608201526111b18833898989611bab565b60208082015160408084015181516001600160a01b0390931683523393830193909352818101929092526060810189905242608082015290517faf0a9f08f5d6509cfd9dcdfff23a996f6ec8c9808094dfd9e4cee7d91c278b259181900360a00190a161121d87610fa4565b5050505050505050565b60025486906001600160a01b031633148061126457503360009081526001602052604090205460ff1680156112645750336001600160a01b038216145b61126d57600080fd5b6001600160a01b038716600090815260016020526040902054879060ff1661129457600080fd5b6002546001600160a01b031633148015906112ba57506003546001600160a01b03163314155b156112d457336001600160a01b038216146112d457600080fd5b6002546001600160a01b038881169116141561136b5760008054600254604080516302ea5cad60e31b81526001600160a01b038d811660048301529283166024820152604481018b90526064810189905290519190921692631752e568926084808201939182900301818387803b15801561134e57600080fd5b505af1158015611362573d6000803e3d6000fd5b505050506113ef565b600080546002546040805163468bdb2360e01b81526001600160a01b038d811660048301529283166024820152604481018b905260648101899052608481018890529051919092169263468bdb239260a4808201939182900301818387803b1580156113d657600080fd5b505af11580156113ea573d6000803e3d6000fd5b505050505b8215611452576001600160a01b0380891660009081526004602090815260408083209389168352929052205461142b908463ffffffff611d9016565b6001600160a01b03808a166000908152600460209081526040808320938a16835292905220555b6005805460018101909155611465611e81565b6001600160a01b03808b168083528a8216602080850182815260408087018e815260608089018d815260008b8152600687528481208b518154908c166001600160a01b0319918216178255965160018083018054928e1692909916919091179097559351600285015590516003909301929092556007805494850181559091527fa66cc928b5edb82af9bd49922954155ab7b0942694bea4ce44661d9a8736c6889092018890558051948552918401929092528281018c9052908201859052918916608082015260a0810188905260c081018790524260e082015290517ff8b28da55f2ffe4802d23c23f76cc31b0d7eb2e93034f362b5c8b19a0c8e2a9b918190036101000190a150505050505050505050565b6002546001600160a01b0316331461159057600080fd5b6001600160a01b038416600090815260016020526040902054849060ff166115b757600080fd5b6002546001600160a01b031633148015906115dd57506003546001600160a01b03163314155b156115f757336001600160a01b038216146115f757600080fd5b6001600160a01b03841661160a57600080fd5b60ff82166116fd57604080516323b872dd60e01b81523360048201523060248201526044810185905290516001600160a01b038616916323b872dd9160648083019260209291908290030181600087803b15801561166757600080fd5b505af115801561167b573d6000803e3d6000fd5b505050506040513d602081101561169157600080fd5b505161169c57600080fd5b6001600160a01b038086166000908152600460209081526040808320938816835292905220546116d2908463ffffffff611d9016565b6001600160a01b0380871660009081526004602090815260408083209389168352929052205561178b565b604080516323b872dd60e01b81523360048201526001600160a01b038781166024830152604482018690529151918616916323b872dd916064808201926020929091908290030181600087803b15801561175657600080fd5b505af115801561176a573d6000803e3d6000fd5b505050506040513d602081101561178057600080fd5b505161178b57600080fd5b60008054600254604080516341393e2360e11b81526001600160a01b038a81166004830152928316602482015288831660448201526064810188905260ff87166084820152905191909216916382727c469160a480830192602092919082900301818787803b1580156117fd57600080fd5b505af1158015611811573d6000803e3d6000fd5b505050506040513d602081101561182757600080fd5b5051604080516001600160a01b03808a168252336020830152818301849052881660608201526080810187905260ff861660a08201524260c082015290519192507f522ac21ff64b0b4acd11391d410c49c908d042d3c095886334c0c7888df464d2919081900360e00190a1505050505050565b6002546001600160a01b031633146118b257600080fd5b6001600160a01b038316600090815260016020526040902054839060ff166118d957600080fd5b6002546001600160a01b031633148015906118ff57506003546001600160a01b03163314155b1561191957336001600160a01b0382161461191957600080fd5b60ff821661197e576001600160a01b0384166000908152600460209081526040808320838052909152902054611955908463ffffffff611d9016565b6001600160a01b03851660009081526004602090815260408083208380529091529020556119b9565b60405184906001600160a01b0382169085156108fc029086906000818181858888f193505050501580156119b6573d6000803e3d6000fd5b50505b60008054600254604080516341393e2360e11b81526001600160a01b0389811660048301529283166024820152604481018590526064810188905260ff87166084820152905191909216916382727c469160a480830192602092919082900301818787803b158015611a2a57600080fd5b505af1158015611a3e573d6000803e3d6000fd5b505050506040513d6020811015611a5457600080fd5b5051604080516001600160a01b0388168152336020820152808201839052600060608201526080810187905260ff861660a08201524260c082015290519192507f522ac21ff64b0b4acd11391d410c49c908d042d3c095886334c0c7888df464d2919081900360e00190a15050505050565b6000611b0883836040518060400160405280601e81526020017f536166654d6174683a207375627472616374696f6e206f766572666c6f770000815250611dea565b90505b92915050565b600081815260066020526040812080546001600160a01b03858116911614611b3857600080fd5b60018101546001600160a01b0316611b54576000915050611b0b565b60018101546001600160a01b0316331415611b73576000915050611b0b565b3360009081526001602052604090205460ff1615611ba15780546001600160a01b03163314611ba157600080fd5b5060019392505050565b6000838152600660205260409020611bc1611edf565b60008054600280549085015460408051637af64fbf60e11b81526001600160a01b038d8116600483015293841660248201528b841660448201526064810192909252888316608483015260a4820188905251919092169263f5ec9f7e9260c480820193606093909283900390910190829087803b158015611c4157600080fd5b505af1158015611c55573d6000803e3d6000fd5b505050506040513d601f19601f820116820180604052506060811015611c7a57600080fd5b5090508215611ce0576001600160a01b03808816600090815260046020908152604080832093881683529290522054611cb9908463ffffffff611d9016565b6001600160a01b038089166000908152600460209081526040808320938916835292905220555b6001600160a01b038416611d3b578051611cfc90889081610d94565b611d198782600160200201516002546001600160a01b0316610d94565b611d368782600260200201516003546001600160a01b0316610d94565b611d87565b8051611d4b908890869082610e75565b611d69878583600160200201516002546001600160a01b0316610e75565b611d87878583600260200201516003546001600160a01b0316610e75565b50505050505050565b600082820183811015611b08576040805162461bcd60e51b815260206004820152601b60248201527f536166654d6174683a206164646974696f6e206f766572666c6f770000000000604482015290519081900360640190fd5b60008184841115611e795760405162461bcd60e51b81526004018080602001828103825283818151815260200191508051906020019080838360005b83811015611e3e578181015183820152602001611e26565b50505050905090810190601f168015611e6b5780820380516001836020036101000a031916815260200191505b509250505060405180910390fd5b505050900390565b604051806080016040528060006001600160a01b0316815260200160006001600160a01b0316815260200160008152602001600081525090565b8154818355818111156109ed576000838152602090206109ed918101908301611efd565b60405180606001604052806003906020820280388339509192915050565b61078691905b80821115611f175760008155600101611f03565b509056fea265627a7a72315820507f070dea210e1b7e8f4f28e8f0d01ac6d3ce16a9888ba27c7f12c7771b551664736f6c634300051100324f776e61626c653a206e6577206f776e657220697320746865207a65726f2061646472657373436f6e747261637420696e7374616e63652068617320616c7265616479206265656e20696e697469616c697a6564a265627a7a7231582099b427682140c493011aed753ad89c2e5a431b0b3b0238bdb07f8a55ee41a4a864736f6c63430005110032",
  "compiler": {
    "name": "solc",
    "version": "0.5.17+commit.d19bba13.Emscripten.clang",
    "optimizer": {
      "enabled": true,
      "runs": 200
    },
    "evmVersion": "petersburg"
  }
}