{
  "fileName": "PairedInvestments.sol",
  "contractName": "PairedInvestments",
  "source": "// \"SPDX-License-Identifier: UNLICENSED\"\npragma solidity >=0.4.21 <0.7.0;\n\nimport \"@openzeppelin/contracts-ethereum-package/contracts/math/SafeMath.sol\";\nimport \"@openzeppelin/upgrades/contracts/Initializable.sol\";\nimport \"@openzeppelin/contracts-ethereum-package/contracts/ownership/Ownable.sol\";\n\nimport \"./IPairedInvestments.sol\";\n\ncontract PairedInvestments is Initializable, Ownable, IPairedInvestments {\n\tusing SafeMath for uint256;\n\n    /*\n     *  Constants\n     */\n    uint8 constant INVESTMENT_TYPE_COLLATERAL = 0;\n    uint8 constant INVESTMENT_TYPE_DIRECT = 1;\n\n    /*\n     *  Storage\n     */\n\taddress public manager;\n\n\tuint256 public traderFeePercent; // trader fee percentage in unit of 100, i.e. 100 == 1% and 5 == 0.05% and 10000 == 100%\n    uint256 public investorFeePercent; // investor fee percentage in unit of 100, i.e. 100 == 1% and 5 == 0.05% and 10000 == 100%\n    uint256 public investorProfitPercent;\n\n\tmapping(uint256 => _Investment) public investments;\n    uint256 public investmentCount;\n\n    /*\n     *  Structs\n     */\n    enum InvestmentState {\n        Invested,\n        Stopped,\n        ExitRequestedInvestor,\n        ExitRequestedTrader,\n        Divested\n    }\n\n    struct _Investment {\n        uint256 id;\n        address trader;\n        address investor;\n        address token;\n        uint256 amount;\n        uint256 value;\n        uint256 start;\n        uint256 end;\n        uint16 investorProfitPercent;\n        uint8 investmentType;\n        InvestmentState state;\n    }\n\n    /*\n     *  Modifiers\n     */\n    modifier onlyManager() {\n        require(manager == msg.sender);\n        _;\n    }\n\n    /// @dev Initialize\n    /// @param _traderFeePercent trader fee percentage in unit of 100, i.e. 100 == 1% and 5 == 0.05% and 10000 == 100%\n    /// @param _investorFeePercent investor fee percentage\n    function initialize(\n\t    \tuint256 _traderFeePercent, \n\t        uint256 _investorFeePercent) \n        public \n        initializer \n    {\n    \tOwnable.initialize(msg.sender);\n    \ttraderFeePercent = _traderFeePercent;\n        investorFeePercent = _investorFeePercent;\n    }\n\n    /// @dev Set manager\n    /// @param _manager manager address\n    function setManager(address _manager) \n        public \n        onlyOwner \n    {\n        manager = _manager;\n    }\n\n    /// @dev New investment\n    /// @param _traderAddress trader address\n    /// @param _investorAddress investor address\n    /// @param _token token address\n    /// @param _amount amount to invest\n    /// @param _investorProfitPercent percentage profit for investor\n    /// @param _type type of investment\n    /// @return investment id and start date\n    function invest(\n            address _traderAddress, \n            address _investorAddress, \n            address _token, \n            uint256 _amount, \n            uint16 _investorProfitPercent,\n            uint8 _type) \n        public \n        onlyManager \n        returns(uint256, uint256) \n    {\n        require(_investorProfitPercent > 0 && _investorProfitPercent < 10000);\n        require(_type == INVESTMENT_TYPE_COLLATERAL || _type == INVESTMENT_TYPE_DIRECT);\n        \n        uint256 start = now;\n        investmentCount = investmentCount.add(1);\n        investments[investmentCount] = _Investment({\n                id: investmentCount,\n                trader: _traderAddress,\n                investor: _investorAddress,\n                token: _token,\n                amount: _amount,\n                value: 0,\n                start: start,\n                end: 0,\n                investorProfitPercent: _investorProfitPercent,\n                state: InvestmentState.Invested,\n                investmentType: _type\n            });\n\n        return (investmentCount, start);\n    }\n\n    /// @dev Stop investment\n    /// @param _traderAddress trader address\n    /// @param _investorAddress investor address\n    /// @param _investmentId investment id\n    /// @return end date\n    function stop(address _traderAddress, address _investorAddress, uint256 _investmentId) \n        public \n        onlyManager \n        returns (uint256)\n    {\n        uint256 end = now;\n        _Investment storage _investment = investments[_investmentId];\n\n        require(_investment.trader == _traderAddress);\n        require(_investment.investor == _investorAddress);\n        require(_investment.state == InvestmentState.Invested);\n\n        _investment.end = end;\n        _investment.state = InvestmentState.Stopped;\n\n        return end;\n    }\n\n    /// @dev Investor requests investment exit\n    /// @param _traderAddress trader address\n    /// @param _investorAddress investor address\n    /// @param _investmentId investment id\n    /// @param _value investment value\n    function requestExitInvestor(address _traderAddress, address _investorAddress, uint256 _investmentId, uint256 _value) \n        public  \n    {\n        _requestExit(_traderAddress, _investorAddress, _investmentId, _value, InvestmentState.ExitRequestedInvestor);\n    }\n\n    /// @dev Trader requests investment exit\n    /// @param _traderAddress trader address\n    /// @param _investorAddress investor address\n    /// @param _investmentId investment id\n    /// @param _value investment value\n    /// @param _amount transaction amount\n    function requestExitTrader(address _traderAddress, address _investorAddress, uint256 _investmentId, uint256 _value, uint256 _amount) \n        public \n    {\n        _Investment memory _investment = investments[_investmentId];\n\n        uint256 _expected = 0;\n\n        if (_value > _investment.amount) {\n\n            (\n                uint256 _traderFee,\n                uint256 _investorFee,\n                ,\n                uint256 _investorProfit\n            ) = calculateProfitsAndFees(\n                _value, \n                _investment.amount, \n                traderFeePercent, \n                investorFeePercent, \n                _investment.investorProfitPercent\n            );\n\n            _expected = _investorProfit.add(_traderFee).add(_investorFee);\n\n            if (_investment.investmentType == INVESTMENT_TYPE_DIRECT) {\n                _expected = _expected.add(_investment.amount);\n            }\n\n            require(_expected == _amount);\n            \n        } else {\n\n            uint256 _traderFee = (_investment.amount.sub(_value)).mul(traderFeePercent).div(10000);\n\n            _expected =_traderFee;\n\n            if (_investment.investmentType == INVESTMENT_TYPE_DIRECT) {\n                _expected = _expected.add(_value);\n            }\n\n            require(_expected == _amount);\n        }\n\n        _requestExit(_traderAddress, _investorAddress, _investmentId, _value, InvestmentState.ExitRequestedTrader);\n    }\n\n    /// @dev Request investment exit\n    /// @param _traderAddress trader address\n    /// @param _investorAddress investor address\n    /// @param _investmentId investment id\n    /// @param _value investment value\n    /// @param _state new investment state\n    function _requestExit(address _traderAddress, address _investorAddress, uint256 _investmentId, uint256 _value, InvestmentState _state) \n        internal \n        onlyManager \n    {\n        _Investment storage _investment = investments[_investmentId];\n\n        require(_investment.trader == _traderAddress);\n        require(_investment.investor == _investorAddress);\n        require(_investment.state == InvestmentState.Stopped);\n\n        _investment.value = _value;\n        _investment.state = _state;\n    }\n\n    /// @dev Approve investment exit\n    /// @param _traderAddress trader address\n    /// @param _investorAddress investor address\n    /// @param _signer Signer address\n    /// @param _investmentId investment id\n    /// @param _amount transaction amount\n    /// @return array with: trader payout, investor payout, fee payout, original investment amount\n    function approveExit(address _traderAddress, address _investorAddress, address _signer, uint256 _investmentId, uint256 _amount) \n        public \n        onlyManager \n        returns (uint256[5] memory result) \n    {\n        _Investment storage _investment = investments[_investmentId];\n        require(_investment.trader == _traderAddress);\n        require(_investment.investor == _investorAddress);\n        require(_investment.state == InvestmentState.ExitRequestedInvestor || \n                _investment.state == InvestmentState.ExitRequestedTrader);\n\n        uint256 _expected = 0;\n\n        if (_investment.value > _investment.amount) {\n\n        \t(\n            \tuint256 _traderFee,\n            \tuint256 _investorFee,\n            \t,\n            \tuint256 _investorProfit\n            ) = calculateProfitsAndFees(\n            \t_investment.value, \n            \t_investment.amount, \n            \ttraderFeePercent, \n            \tinvestorFeePercent, \n            \t_investment.investorProfitPercent\n            );\n\n            if (_signer != _traderAddress && _signer != _investorAddress) {\n                // signed by admin\n                require(0 == _amount);\n\n                if (_investment.investmentType == INVESTMENT_TYPE_COLLATERAL) {\n                    if (_investment.state == InvestmentState.ExitRequestedTrader) {\n                        result[1] = _investment.amount.add(_investorProfit);\n                        result[2] = _traderFee.add(_investorFee);\n                    } else {\n                        result[1] = _investment.amount.sub(_investorFee);\n                        result[2] = _investorFee;\n                    }\n                } else {\n                    if (_investment.state == InvestmentState.ExitRequestedTrader) {\n                        result[1] = _investment.amount.add(_investorProfit);\n                        result[2] = _traderFee.add(_investorFee);\n                    }\n                }\n\n            } else {\n                // if the investor requested the exit, the trader will have to pay the amount\n                // if the trader requested the exit, they've already paid the amount\n                if (_investment.state == InvestmentState.ExitRequestedInvestor) {\n                    _expected = _investorProfit.add(_traderFee).add(_investorFee);\n\n                    if (_investment.investmentType == INVESTMENT_TYPE_DIRECT) {\n                        _expected = _expected.add(_investment.amount);\n                    }\n                }\n\n                require(_expected == _amount);\n\n                // investment amount plus profit (minus fee)\n                result[1] = _investment.amount.add(_investorProfit);\n\n                // pay trader and investor fee\n                result[2] = _traderFee.add(_investorFee);\n            }\n            \n        } else {\n\n        \tuint256 _traderFee = (_investment.amount.sub(_investment.value)).mul(traderFeePercent).div(10000);\n\n            if (_signer != _traderAddress && _signer != _investorAddress) {\n                // signed by admin\n                require(0 == _amount);\n\n                if (_investment.investmentType == INVESTMENT_TYPE_COLLATERAL) {\n                    if (_investment.state == InvestmentState.ExitRequestedTrader) {\n                        result[0] = _investment.amount.sub(_investment.value);\n                        result[1] = _investment.value;\n                        result[2] = _traderFee;\n                    } else {\n                        result[0] = _investment.amount.sub(_investment.value);\n                        result[1] = _investment.value;\n                    }\n                } else {\n                    if (_investment.state == InvestmentState.ExitRequestedTrader) {\n                        result[1] = _investment.value;\n                        result[2] = _traderFee;\n                    }\n                }\n\n            } else {\n                // if the investor requested the exit, the trader will have to pay the amount\n                // if the trader requested the exit, they've already paid the amount\n                if (_investment.state == InvestmentState.ExitRequestedInvestor) {\n                    _expected = _traderFee;\n\n                    if (_investment.investmentType == INVESTMENT_TYPE_DIRECT) {\n                        _expected = _expected.add(_investment.value);\n                    }\n                }\n\n                require(_expected == _amount);\n\n                // take losses away from investor\n                result[1] = _investment.value;\n                \n                if (_investment.investmentType == INVESTMENT_TYPE_COLLATERAL) {\n                    // add losses to trader balance\n                    result[0] = _investment.amount.sub(_investment.value);\n                }\n                \n                // trader fee\n                result[2] = _traderFee;\n            }\n        }\n\n        _investment.state = InvestmentState.Divested;\n\n        result[3] = _investment.amount;\n        result[4] = _investment.investmentType;\n    }\n\n    /// @dev Reject an exit request\n    /// @param _traderAddress trader address\n    /// @param _investmentId investment id\n    /// @param _value proposed investment value\n    function rejectExit(address _traderAddress, uint256 _investmentId, uint256 _value) \n        public \n        onlyManager\n    {\n        \n        _Investment storage _investment = investments[_investmentId];\n        require(_investment.trader == _traderAddress);\n        require(_investment.state == InvestmentState.ExitRequestedInvestor || \n                _investment.state == InvestmentState.ExitRequestedTrader);\n        \n        _investment.value = _value;\n        _investment.state = InvestmentState.Stopped;\n    }\n\n\n    /// @dev Calculate investment profits and fees\n    /// @param _value investment value\n    /// @param _amount original investment amount\n    /// @param _traderFeePercent trader fee percent\n    /// @param _investorFeePercent investor fee percent\n    /// @param _investorProfitPercent investor profit percent\n    /// @return array with: trader fee, investor fee, trader profit, investor profit\n    function calculateProfitsAndFees (\n\t\tuint256 _value,\n\t\tuint256 _amount,\n\t\tuint256 _traderFeePercent,\n\t\tuint256 _investorFeePercent,\n\t\tuint256 _investorProfitPercent\n\t) public pure returns (uint256, uint256, uint256, uint256) {\n\t\t\n        if (_value > _amount) {\n    \t\tuint256 _profit = _value - _amount;\n            uint256 _investorProfit = _profit.mul(_investorProfitPercent.sub(_investorFeePercent)).div(10000);\n            uint256 _traderProfit = _profit.mul(uint256(10000).sub(_investorProfitPercent).sub(_traderFeePercent)).div(10000);\n            uint256 _fee = _profit.sub(_investorProfit).sub(_traderProfit);\n            uint256 _investorFee = _fee.div(2);\n            uint256 _traderFee = _fee.sub(_investorFee);\n\n            return (_traderFee, _investorFee, _traderProfit, _investorProfit);\n        }\n\n        uint _traderFee = (_amount.sub(_value)).mul(_traderFeePercent).div(10000);\n        return (_traderFee, 0, 0, 0);\n\t}\n}",
  "sourcePath": "contracts/PairedInvestments.sol",
  "abi": [
    {
      "anonymous": false,
      "inputs": [
        {
          "indexed": true,
          "internalType": "address",
          "name": "previousOwner",
          "type": "address"
        },
        {
          "indexed": true,
          "internalType": "address",
          "name": "newOwner",
          "type": "address"
        }
      ],
      "name": "OwnershipTransferred",
      "type": "event"
    },
    {
      "constant": false,
      "inputs": [
        {
          "internalType": "address",
          "name": "_traderAddress",
          "type": "address"
        },
        {
          "internalType": "address",
          "name": "_investorAddress",
          "type": "address"
        },
        {
          "internalType": "address",
          "name": "_signer",
          "type": "address"
        },
        {
          "internalType": "uint256",
          "name": "_investmentId",
          "type": "uint256"
        },
        {
          "internalType": "uint256",
          "name": "_amount",
          "type": "uint256"
        }
      ],
      "name": "approveExit",
      "outputs": [
        {
          "internalType": "uint256[5]",
          "name": "result",
          "type": "uint256[5]"
        }
      ],
      "payable": false,
      "stateMutability": "nonpayable",
      "type": "function"
    },
    {
      "constant": true,
      "inputs": [
        {
          "internalType": "uint256",
          "name": "_value",
          "type": "uint256"
        },
        {
          "internalType": "uint256",
          "name": "_amount",
          "type": "uint256"
        },
        {
          "internalType": "uint256",
          "name": "_traderFeePercent",
          "type": "uint256"
        },
        {
          "internalType": "uint256",
          "name": "_investorFeePercent",
          "type": "uint256"
        },
        {
          "internalType": "uint256",
          "name": "_investorProfitPercent",
          "type": "uint256"
        }
      ],
      "name": "calculateProfitsAndFees",
      "outputs": [
        {
          "internalType": "uint256",
          "name": "",
          "type": "uint256"
        },
        {
          "internalType": "uint256",
          "name": "",
          "type": "uint256"
        },
        {
          "internalType": "uint256",
          "name": "",
          "type": "uint256"
        },
        {
          "internalType": "uint256",
          "name": "",
          "type": "uint256"
        }
      ],
      "payable": false,
      "stateMutability": "pure",
      "type": "function"
    },
    {
      "constant": false,
      "inputs": [
        {
          "internalType": "address",
          "name": "sender",
          "type": "address"
        }
      ],
      "name": "initialize",
      "outputs": [],
      "payable": false,
      "stateMutability": "nonpayable",
      "type": "function"
    },
    {
      "constant": false,
      "inputs": [
        {
          "internalType": "uint256",
          "name": "_traderFeePercent",
          "type": "uint256"
        },
        {
          "internalType": "uint256",
          "name": "_investorFeePercent",
          "type": "uint256"
        }
      ],
      "name": "initialize",
      "outputs": [],
      "payable": false,
      "stateMutability": "nonpayable",
      "type": "function"
    },
    {
      "constant": false,
      "inputs": [
        {
          "internalType": "address",
          "name": "_traderAddress",
          "type": "address"
        },
        {
          "internalType": "address",
          "name": "_investorAddress",
          "type": "address"
        },
        {
          "internalType": "address",
          "name": "_token",
          "type": "address"
        },
        {
          "internalType": "uint256",
          "name": "_amount",
          "type": "uint256"
        },
        {
          "internalType": "uint16",
          "name": "_investorProfitPercent",
          "type": "uint16"
        },
        {
          "internalType": "uint8",
          "name": "_type",
          "type": "uint8"
        }
      ],
      "name": "invest",
      "outputs": [
        {
          "internalType": "uint256",
          "name": "",
          "type": "uint256"
        },
        {
          "internalType": "uint256",
          "name": "",
          "type": "uint256"
        }
      ],
      "payable": false,
      "stateMutability": "nonpayable",
      "type": "function"
    },
    {
      "constant": true,
      "inputs": [],
      "name": "investmentCount",
      "outputs": [
        {
          "internalType": "uint256",
          "name": "",
          "type": "uint256"
        }
      ],
      "payable": false,
      "stateMutability": "view",
      "type": "function"
    },
    {
      "constant": true,
      "inputs": [
        {
          "internalType": "uint256",
          "name": "",
          "type": "uint256"
        }
      ],
      "name": "investments",
      "outputs": [
        {
          "internalType": "uint256",
          "name": "id",
          "type": "uint256"
        },
        {
          "internalType": "address",
          "name": "trader",
          "type": "address"
        },
        {
          "internalType": "address",
          "name": "investor",
          "type": "address"
        },
        {
          "internalType": "address",
          "name": "token",
          "type": "address"
        },
        {
          "internalType": "uint256",
          "name": "amount",
          "type": "uint256"
        },
        {
          "internalType": "uint256",
          "name": "value",
          "type": "uint256"
        },
        {
          "internalType": "uint256",
          "name": "start",
          "type": "uint256"
        },
        {
          "internalType": "uint256",
          "name": "end",
          "type": "uint256"
        },
        {
          "internalType": "uint16",
          "name": "investorProfitPercent",
          "type": "uint16"
        },
        {
          "internalType": "uint8",
          "name": "investmentType",
          "type": "uint8"
        },
        {
          "internalType": "enum PairedInvestments.InvestmentState",
          "name": "state",
          "type": "uint8"
        }
      ],
      "payable": false,
      "stateMutability": "view",
      "type": "function"
    },
    {
      "constant": true,
      "inputs": [],
      "name": "investorFeePercent",
      "outputs": [
        {
          "internalType": "uint256",
          "name": "",
          "type": "uint256"
        }
      ],
      "payable": false,
      "stateMutability": "view",
      "type": "function"
    },
    {
      "constant": true,
      "inputs": [],
      "name": "investorProfitPercent",
      "outputs": [
        {
          "internalType": "uint256",
          "name": "",
          "type": "uint256"
        }
      ],
      "payable": false,
      "stateMutability": "view",
      "type": "function"
    },
    {
      "constant": true,
      "inputs": [],
      "name": "isOwner",
      "outputs": [
        {
          "internalType": "bool",
          "name": "",
          "type": "bool"
        }
      ],
      "payable": false,
      "stateMutability": "view",
      "type": "function"
    },
    {
      "constant": true,
      "inputs": [],
      "name": "manager",
      "outputs": [
        {
          "internalType": "address",
          "name": "",
          "type": "address"
        }
      ],
      "payable": false,
      "stateMutability": "view",
      "type": "function"
    },
    {
      "constant": true,
      "inputs": [],
      "name": "owner",
      "outputs": [
        {
          "internalType": "address",
          "name": "",
          "type": "address"
        }
      ],
      "payable": false,
      "stateMutability": "view",
      "type": "function"
    },
    {
      "constant": false,
      "inputs": [
        {
          "internalType": "address",
          "name": "_traderAddress",
          "type": "address"
        },
        {
          "internalType": "uint256",
          "name": "_investmentId",
          "type": "uint256"
        },
        {
          "internalType": "uint256",
          "name": "_value",
          "type": "uint256"
        }
      ],
      "name": "rejectExit",
      "outputs": [],
      "payable": false,
      "stateMutability": "nonpayable",
      "type": "function"
    },
    {
      "constant": false,
      "inputs": [],
      "name": "renounceOwnership",
      "outputs": [],
      "payable": false,
      "stateMutability": "nonpayable",
      "type": "function"
    },
    {
      "constant": false,
      "inputs": [
        {
          "internalType": "address",
          "name": "_traderAddress",
          "type": "address"
        },
        {
          "internalType": "address",
          "name": "_investorAddress",
          "type": "address"
        },
        {
          "internalType": "uint256",
          "name": "_investmentId",
          "type": "uint256"
        },
        {
          "internalType": "uint256",
          "name": "_value",
          "type": "uint256"
        }
      ],
      "name": "requestExitInvestor",
      "outputs": [],
      "payable": false,
      "stateMutability": "nonpayable",
      "type": "function"
    },
    {
      "constant": false,
      "inputs": [
        {
          "internalType": "address",
          "name": "_traderAddress",
          "type": "address"
        },
        {
          "internalType": "address",
          "name": "_investorAddress",
          "type": "address"
        },
        {
          "internalType": "uint256",
          "name": "_investmentId",
          "type": "uint256"
        },
        {
          "internalType": "uint256",
          "name": "_value",
          "type": "uint256"
        },
        {
          "internalType": "uint256",
          "name": "_amount",
          "type": "uint256"
        }
      ],
      "name": "requestExitTrader",
      "outputs": [],
      "payable": false,
      "stateMutability": "nonpayable",
      "type": "function"
    },
    {
      "constant": false,
      "inputs": [
        {
          "internalType": "address",
          "name": "_manager",
          "type": "address"
        }
      ],
      "name": "setManager",
      "outputs": [],
      "payable": false,
      "stateMutability": "nonpayable",
      "type": "function"
    },
    {
      "constant": false,
      "inputs": [
        {
          "internalType": "address",
          "name": "_traderAddress",
          "type": "address"
        },
        {
          "internalType": "address",
          "name": "_investorAddress",
          "type": "address"
        },
        {
          "internalType": "uint256",
          "name": "_investmentId",
          "type": "uint256"
        }
      ],
      "name": "stop",
      "outputs": [
        {
          "internalType": "uint256",
          "name": "",
          "type": "uint256"
        }
      ],
      "payable": false,
      "stateMutability": "nonpayable",
      "type": "function"
    },
    {
      "constant": true,
      "inputs": [],
      "name": "traderFeePercent",
      "outputs": [
        {
          "internalType": "uint256",
          "name": "",
          "type": "uint256"
        }
      ],
      "payable": false,
      "stateMutability": "view",
      "type": "function"
    },
    {
      "constant": false,
      "inputs": [
        {
          "internalType": "address",
          "name": "newOwner",
          "type": "address"
        }
      ],
      "name": "transferOwnership",
      "outputs": [],
      "payable": false,
      "stateMutability": "nonpayable",
      "type": "function"
    }
  ],
  "bytecode": "0x6080604052611903806100136000396000f3fe608060405234801561001057600080fd5b506004361061012c5760003560e01c8063979d5a26116100ad578063d15d33c011610071578063d15d33c014610379578063e4a30116146103f3578063ee9aa30414610416578063f2fde38b14610448578063fd345c8a1461046e5761012c565b8063979d5a26146102945780639c4abeb7146102ca578063b9220c3f146102d2578063c4d66de81461032d578063d0ebdbe7146103535761012c565b8063715018a6116100f4578063715018a6146102585780638c68770b146102605780638da5cb5b146102685780638f32d59b1461027057806391db6bb51461028c5761012c565b80630e1ed15b146101315780631752e5681461019a578063246b0e5c146101d8578063468bdb23146101f2578063481c6a7514610234575b600080fd5b610181600480360360c081101561014757600080fd5b5080356001600160a01b0390811691602081013582169160408201351690606081013590608081013561ffff169060a0013560ff16610514565b6040805192835260208301919091528051918290030190f35b6101d6600480360360808110156101b057600080fd5b506001600160a01b03813581169160208101359091169060408101359060600135610712565b005b6101e0610726565b60408051918252519081900360200190f35b6101d6600480360360a081101561020857600080fd5b506001600160a01b0381358116916020810135909116906040810135906060810135906080013561072c565b61023c610921565b604080516001600160a01b039092168252519081900360200190f35b6101d6610930565b6101e06109d3565b61023c6109d9565b6102786109e8565b604080519115158252519081900360200190f35b6101e0610a0e565b6101e0600480360360608110156102aa57600080fd5b506001600160a01b03813581169160208101359091169060400135610a14565b6101e0610ac0565b610307600480360360a08110156102e857600080fd5b5080359060208101359060408101359060608101359060800135610ac6565b604080519485526020850193909352838301919091526060830152519081900360800190f35b6101d66004803603602081101561034357600080fd5b50356001600160a01b0316610bc4565b6101d66004803603602081101561036957600080fd5b50356001600160a01b0316610cb6565b6103bb600480360360a081101561038f57600080fd5b506001600160a01b03813581169160208101358216916040820135169060608101359060800135610d31565b604051808260a080838360005b838110156103e05781810151838201526020016103c8565b5050505090500191505060405180910390f35b6101d66004803603604081101561040957600080fd5b5080359060200135611208565b6101d66004803603606081101561042c57600080fd5b506001600160a01b0381351690602081013590604001356112bf565b6101d66004803603602081101561045e57600080fd5b50356001600160a01b031661136a565b61048b6004803603602081101561048457600080fd5b50356113cf565b604080518c81526001600160a01b03808d1660208301528b81169282019290925290891660608201526080810188905260a0810187905260c0810186905260e0810185905261ffff841661010082015260ff831661012082015261014081018260048111156104f657fe5b60ff1681526020019b50505050505050505050505060405180910390f35b60665460009081906001600160a01b0316331461053057600080fd5b60008461ffff1611801561054957506127108461ffff16105b61055257600080fd5b60ff83161580610565575060ff83166001145b61056e57600080fd5b606b54429061058490600163ffffffff61144216565b606b81905550604051806101600160405280606b5481526020018a6001600160a01b03168152602001896001600160a01b03168152602001886001600160a01b0316815260200187815260200160008152602001828152602001600081526020018661ffff1681526020018560ff1681526020016000600481111561060557fe5b9052606b546000908152606a602090815260409182902083518155908301516001820180546001600160a01b03199081166001600160a01b03938416179091559284015160028301805485169183169190911790556060840151600383018054909416911617909155608082015160048083019190915560a0830151600583015560c0830151600683015560e0830151600783015561010083015160088301805461012086015161ffff1990911661ffff9093169290921762ff000019166201000060ff90931692909202919091178082556101408501519263ff000000199091169063010000009084908111156106f957fe5b021790555050606b549a91995090975050505050505050565b6107208484848460026114a5565b50505050565b606b5481565b6107346117e1565b6000848152606a60209081526040918290208251610160810184528154815260018201546001600160a01b03908116938201939093526002820154831693810193909352600381015490911660608301526004808201546080840152600582015460a0840152600682015460c0840152600782015460e0840152600882015461ffff811661010085015260ff6201000082048116610120860152610140850192630100000090920416908111156107e757fe5b60048111156107f257fe5b905250608081015190915060009084111561089557600080600061082a87866080015160675460685489610100015161ffff16610ac6565b9350509250925061085482610848858461144290919063ffffffff16565b9063ffffffff61144216565b61012086015190945060ff166001141561088157608085015161087e90859063ffffffff61144216565b93505b85841461088d57600080fd5b50505061090a565b60006108d26127106108c66067546108ba89886080015161155d90919063ffffffff16565b9063ffffffff61159f16565b9063ffffffff6115f816565b61012084015190925082915060ff16600114156108fc576108f9828663ffffffff61144216565b91505b83821461090857600080fd5b505b6109188787878760036114a5565b50505050505050565b6066546001600160a01b031681565b6109386109e8565b610989576040805162461bcd60e51b815260206004820181905260248201527f4f776e61626c653a2063616c6c6572206973206e6f7420746865206f776e6572604482015290519081900360640190fd5b6033546040516000916001600160a01b0316907f8be0079c531659141344cd1fd0a4f28419497f9722a3daafe3b4186f6b6457e0908390a3603380546001600160a01b0319169055565b60685481565b6033546001600160a01b031690565b6033546000906001600160a01b03166109ff61163a565b6001600160a01b031614905090565b60675481565b6066546000906001600160a01b03163314610a2e57600080fd5b6000828152606a6020526040902060018101544291906001600160a01b03878116911614610a5b57600080fd5b60028101546001600160a01b03868116911614610a7757600080fd5b600060088201546301000000900460ff166004811115610a9357fe5b14610a9d57600080fd5b60078101829055600801805463ff00000019166301000000179055949350505050565b60695481565b60008060008087891115610b8e578789036000610aff6127106108c6610af28a8c63ffffffff61155d16565b859063ffffffff61159f16565b90506000610b396127106108c6610b2c8d610b20848e63ffffffff61155d16565b9063ffffffff61155d16565b869063ffffffff61159f16565b90506000610b5182610b20868663ffffffff61155d16565b90506000610b6682600263ffffffff6115f816565b90506000610b7a838363ffffffff61155d16565b9950909750919550919350610bb892505050565b6000610baa6127106108c68a6108ba8d8f63ffffffff61155d16565b945060009350839250829150505b95509550955095915050565b600054610100900460ff1680610bdd5750610bdd61163e565b80610beb575060005460ff16155b610c265760405162461bcd60e51b815260040180806020018281038252602e8152602001806118a1602e913960400191505060405180910390fd5b600054610100900460ff16158015610c51576000805460ff1961ff0019909116610100171660011790555b603380546001600160a01b0319166001600160a01b0384811691909117918290556040519116906000907f8be0079c531659141344cd1fd0a4f28419497f9722a3daafe3b4186f6b6457e0908290a38015610cb2576000805461ff00191690555b5050565b610cbe6109e8565b610d0f576040805162461bcd60e51b815260206004820181905260248201527f4f776e61626c653a2063616c6c6572206973206e6f7420746865206f776e6572604482015290519081900360640190fd5b606680546001600160a01b0319166001600160a01b0392909216919091179055565b610d3961183b565b6066546001600160a01b03163314610d5057600080fd5b6000838152606a6020526040902060018101546001600160a01b03888116911614610d7a57600080fd5b60028101546001600160a01b03878116911614610d9657600080fd5b600260088201546301000000900460ff166004811115610db257fe5b1480610dd75750600360088201546301000000900460ff166004811115610dd557fe5b145b610de057600080fd5b600481015460058201546000911015610ff2576000806000610e27856005015486600401546067546068548960080160009054906101000a900461ffff1661ffff16610ac6565b935050925092508a6001600160a01b0316896001600160a01b031614158015610e625750896001600160a01b0316896001600160a01b031614155b15610f4c578615610e7257600080fd5b600885015462010000900460ff16610efb57600360088601546301000000900460ff166004811115610ea057fe5b1415610ed4576004850154610ebb908263ffffffff61144216565b6020870152610eca8383611442565b6040870152610ef6565b6004850154610ee9908363ffffffff61155d16565b6020870152604086018290525b610f47565b600360088601546301000000900460ff166004811115610f1757fe5b1415610f47576004850154610f32908263ffffffff61144216565b6020870152610f418383611442565b60408701525b610fea565b600260088601546301000000900460ff166004811115610f6857fe5b1415610fb457610f8282610848838663ffffffff61144216565b600886015490945062010000900460ff1660011415610fb4576004850154610fb190859063ffffffff61144216565b93505b868414610fc057600080fd5b6004850154610fd5908263ffffffff61144216565b6020870152610fe48383611442565b60408701525b5050506111ce565b600061101b6127106108c66067546108ba8760050154886004015461155d90919063ffffffff16565b9050886001600160a01b0316876001600160a01b0316141580156110515750876001600160a01b0316876001600160a01b031614155b1561112a57841561106157600080fd5b600883015462010000900460ff166110f157600360088401546301000000900460ff16600481111561108f57fe5b14156110c657600583015460048401546110ae9163ffffffff61155d16565b845260058301546020850152604084018190526110ec565b600583015460048401546110df9163ffffffff61155d16565b8452600583015460208501525b611125565b600360088401546301000000900460ff16600481111561110d57fe5b14156111255760058301546020850152604084018190525b6111cc565b600260088401546301000000900460ff16600481111561114657fe5b1415611180576008830154909150819062010000900460ff166001141561118057600583015461117d90839063ffffffff61144216565b91505b84821461118c57600080fd5b60058301546020850152600883015462010000900460ff166111c457600583015460048401546111c19163ffffffff61155d16565b84525b604084018190525b505b5060088101805463ff000000191663040000001790819055600490910154606083015262010000900460ff16608082015295945050505050565b600054610100900460ff1680611221575061122161163e565b8061122f575060005460ff16155b61126a5760405162461bcd60e51b815260040180806020018281038252602e8152602001806118a1602e913960400191505060405180910390fd5b600054610100900460ff16158015611295576000805460ff1961ff0019909116610100171660011790555b61129e33610bc4565b6067839055606882905580156112ba576000805461ff00191690555b505050565b6066546001600160a01b031633146112d657600080fd5b6000828152606a6020526040902060018101546001600160a01b0385811691161461130057600080fd5b600260088201546301000000900460ff16600481111561131c57fe5b14806113415750600360088201546301000000900460ff16600481111561133f57fe5b145b61134a57600080fd5b6005810191909155600801805463ff000000191663010000001790555050565b6113726109e8565b6113c3576040805162461bcd60e51b815260206004820181905260248201527f4f776e61626c653a2063616c6c6572206973206e6f7420746865206f776e6572604482015290519081900360640190fd5b6113cc81611644565b50565b606a6020526000908152604090208054600182015460028301546003840154600485015460058601546006870154600788015460089098015496976001600160a01b03968716979587169694909416949293919290919061ffff81169060ff62010000820481169163010000009004168b565b60008282018381101561149c576040805162461bcd60e51b815260206004820152601b60248201527f536166654d6174683a206164646974696f6e206f766572666c6f770000000000604482015290519081900360640190fd5b90505b92915050565b6066546001600160a01b031633146114bc57600080fd5b6000838152606a6020526040902060018101546001600160a01b038781169116146114e657600080fd5b60028101546001600160a01b0386811691161461150257600080fd5b600160088201546301000000900460ff16600481111561151e57fe5b1461152857600080fd5b6005810183905560088101805483919063ff0000001916630100000083600481111561155057fe5b0217905550505050505050565b600061149c83836040518060400160405280601e81526020017f536166654d6174683a207375627472616374696f6e206f766572666c6f7700008152506116e5565b6000826115ae5750600061149f565b828202828482816115bb57fe5b041461149c5760405162461bcd60e51b81526004018080602001828103825260218152602001806118806021913960400191505060405180910390fd5b600061149c83836040518060400160405280601a81526020017f536166654d6174683a206469766973696f6e206279207a65726f00000000000081525061177c565b3390565b303b1590565b6001600160a01b0381166116895760405162461bcd60e51b815260040180806020018281038252602681526020018061185a6026913960400191505060405180910390fd5b6033546040516001600160a01b038084169216907f8be0079c531659141344cd1fd0a4f28419497f9722a3daafe3b4186f6b6457e090600090a3603380546001600160a01b0319166001600160a01b0392909216919091179055565b600081848411156117745760405162461bcd60e51b81526004018080602001828103825283818151815260200191508051906020019080838360005b83811015611739578181015183820152602001611721565b50505050905090810190601f1680156117665780820380516001836020036101000a031916815260200191505b509250505060405180910390fd5b505050900390565b600081836117cb5760405162461bcd60e51b8152602060048201818152835160248401528351909283926044909101919085019080838360008315611739578181015183820152602001611721565b5060008385816117d757fe5b0495945050505050565b6040805161016081018252600080825260208201819052918101829052606081018290526080810182905260a0810182905260c0810182905260e08101829052610100810182905261012081018290529061014082015290565b6040518060a00160405280600590602082028038833950919291505056fe4f776e61626c653a206e6577206f776e657220697320746865207a65726f2061646472657373536166654d6174683a206d756c7469706c69636174696f6e206f766572666c6f77436f6e747261637420696e7374616e63652068617320616c7265616479206265656e20696e697469616c697a6564a265627a7a723158207d073aa681333f58d9d998595249922eaaa573034e582aa3b72d147a20bb644064736f6c63430005110032",
  "compiler": {
    "name": "solc",
    "version": "0.5.17+commit.d19bba13.Emscripten.clang",
    "optimizer": {
      "enabled": true,
      "runs": 200
    },
    "evmVersion": "petersburg"
  }
}