{
  "fileName": "PairedInvestments.sol",
  "contractName": "PairedInvestments",
  "source": "// \"SPDX-License-Identifier: UNLICENSED\"\npragma solidity >=0.4.21 <0.7.0;\n\nimport \"@openzeppelin/contracts-ethereum-package/contracts/math/SafeMath.sol\";\nimport \"@openzeppelin/upgrades/contracts/Initializable.sol\";\nimport \"@openzeppelin/contracts-ethereum-package/contracts/ownership/Ownable.sol\";\n\ncontract PairedInvestments is Initializable, Ownable {\n\tusing SafeMath for uint256;\n\n    /*\n     *  Storage\n     */\n\taddress public manager;\n\n\tuint256 public traderFeePercent; // trader fee percentage in unit of 100, i.e. 100 == 1% and 5 == 0.05% and 10000 == 100%\n    uint256 public investorFeePercent; // investor fee percentage in unit of 100, i.e. 100 == 1% and 5 == 0.05% and 10000 == 100%\n    uint256 public investorProfitPercent;\n\n\tmapping(uint256 => _Investment) public investments;\n    uint256 public investmentCount;\n\n    /*\n     *  Structs\n     */\n    enum InvestmentState {\n        Invested,\n        Stopped,\n        ExitRequestedInvestor,\n        ExitRequestedTrader,\n        Divested\n    }\n\n    struct _Investment {\n        uint256 id;\n        address trader;\n        address investor;\n        address token;\n        uint256 amount;\n        uint256 value;\n        uint256 start;\n        uint256 end;\n        InvestmentState state;\n    }\n\n    /*\n     *  Modifiers\n     */\n    modifier onlyManager() {\n        require(manager == msg.sender);\n        _;\n    }\n\n    /// @dev Initialize\n    /// @param _traderFeePercent trader fee percentage in unit of 100, i.e. 100 == 1% and 5 == 0.05% and 10000 == 100%\n    /// @param _investorFeePercent investor fee percentage\n    /// @param _investorProfitPercent investor profit percentage\n    function initialize(\n\t    \tuint256 _traderFeePercent, \n\t        uint256 _investorFeePercent, \n\t        uint256 _investorProfitPercent) \n        public \n        initializer \n    {\n    \tOwnable.initialize(msg.sender);\n    \ttraderFeePercent = _traderFeePercent;\n        investorFeePercent = _investorFeePercent;\n        investorProfitPercent = _investorProfitPercent;\n    }\n\n    /// @dev Set manager\n    /// @param _manager manager address\n    function setManager(address _manager) \n        public \n        onlyOwner \n    {\n        manager = _manager;\n    }\n\n    /// @dev New investment\n    /// @param _traderAddress trader address\n    /// @param _investorAddress investor address\n    /// @param _token token address\n    /// @param _amount amount to invest\n    /// @return investment id and start date\n    function invest(address _traderAddress, address _investorAddress, address _token, uint256 _amount) \n        public \n        onlyManager \n        returns(uint256, uint256) \n    {\n        \n        uint256 start = now;\n        investmentCount = investmentCount.add(1);\n        investments[investmentCount] = _Investment({\n                id: investmentCount,\n                trader: _traderAddress,\n                investor: _investorAddress,\n                token: _token,\n                amount: _amount,\n                value: 0,\n                start: start,\n                end: 0,\n                state: InvestmentState.Invested\n            });\n\n        return (investmentCount, start);\n    }\n\n    /// @dev Stop investment\n    /// @param _traderAddress trader address\n    /// @param _investorAddress investor address\n    /// @param _investmentId investment id\n    /// @return end date\n    function stop(address _traderAddress, address _investorAddress, uint256 _investmentId) \n        public \n        onlyManager \n        returns (uint256)\n    {\n        uint256 end = now;\n        _Investment storage _investment = investments[_investmentId];\n\n        require(_investment.trader == _traderAddress);\n        require(_investment.investor == _investorAddress);\n        require(_investment.state == InvestmentState.Invested);\n\n        _investment.end = end;\n        _investment.state = InvestmentState.Stopped;\n\n        return end;\n    }\n\n    /// @dev Investor requests investment exit\n    /// @param _traderAddress trader address\n    /// @param _investorAddress investor address\n    /// @param _investmentId investment id\n    /// @param _value investment value\n    function requestExitInvestor(address _traderAddress, address _investorAddress, uint256 _investmentId, uint256 _value) \n        public  \n    {\n        _requestExit(_traderAddress, _investorAddress, _investmentId, _value, InvestmentState.ExitRequestedInvestor);\n    }\n\n    /// @dev Trader requests investment exit\n    /// @param _traderAddress trader address\n    /// @param _investorAddress investor address\n    /// @param _investmentId investment id\n    /// @param _value investment value\n    /// @param _amount transaction amount\n    function requestExitTrader(address _traderAddress, address _investorAddress, uint256 _investmentId, uint256 _value, uint256 _amount) \n        public \n    {\n        _Investment memory _investment = investments[_investmentId];\n\n        if (_value > _investment.amount) {\n\n            (\n                uint256 _traderFee,\n                uint256 _investorFee,\n                ,\n                uint256 _investorProfit\n            ) = calculateProfitsAndFees(\n                _value, \n                _investment.amount, \n                traderFeePercent, \n                investorFeePercent, \n                investorProfitPercent\n            );\n\n            require(_investorProfit.add(_traderFee).add(_investorFee) == _amount);\n            \n        } else {\n\n            uint256 _traderFee = (_investment.amount.sub(_value)).mul(traderFeePercent).div(10000);\n\n            require(_traderFee == _amount);\n        }\n\n        _requestExit(_traderAddress, _investorAddress, _investmentId, _value, InvestmentState.ExitRequestedTrader);\n    }\n\n    /// @dev Request investment exit\n    /// @param _traderAddress trader address\n    /// @param _investorAddress investor address\n    /// @param _investmentId investment id\n    /// @param _value investment value\n    /// @param _state new investment state\n    function _requestExit(address _traderAddress, address _investorAddress, uint256 _investmentId, uint256 _value, InvestmentState _state) \n        internal \n        onlyManager \n    {\n        _Investment storage _investment = investments[_investmentId];\n\n        require(_investment.trader == _traderAddress);\n        require(_investment.investor == _investorAddress);\n        require(_investment.state == InvestmentState.Stopped);\n\n        _investment.value = _value;\n        _investment.state = _state;\n    }\n\n    /// @dev Approve investment exit\n    /// @param _traderAddress trader address\n    /// @param _investorAddress investor address\n    /// @param _investmentId investment id\n    /// @param _amount transaction amount\n    /// @return array with: trader payout, investor payout, fee payout, original investment amount\n    function approveExit(address _traderAddress, address _investorAddress, uint256 _investmentId, uint256 _amount) \n        public \n        onlyManager \n        returns (uint256[4] memory result) \n    {\n        _Investment storage _investment = investments[_investmentId];\n        require(_investment.trader == _traderAddress);\n        require(_investment.investor == _investorAddress);\n        require(_investment.state == InvestmentState.ExitRequestedInvestor || \n                _investment.state == InvestmentState.ExitRequestedTrader);\n\n        uint256 _expected = 0;\n\n        if (_investment.value > _investment.amount) {\n\n        \t(\n            \tuint256 _traderFee,\n            \tuint256 _investorFee,\n            \t,\n            \tuint256 _investorProfit\n            ) = calculateProfitsAndFees(\n            \t_investment.value, \n            \t_investment.amount, \n            \ttraderFeePercent, \n            \tinvestorFeePercent, \n            \tinvestorProfitPercent\n            );\n\n            // if the investor requested the exit, the trader will have to pay the amount\n            // if the trader requested the exit, they've already paid the amount\n            if (_investment.state == InvestmentState.ExitRequestedInvestor) {\n                _expected = _investorProfit.add(_traderFee).add(_investorFee);   \n            }\n\n            require(_expected == _amount);\n\n            // investment amount plus profit (minus fee)\n            result[1] = _investment.amount.add(_investorProfit);\n\n            // pay trader and investor fee\n            result[2] = _traderFee.add(_investorFee);\n            \n            \n        } else {\n\n        \tuint256 _traderFee = (_investment.amount.sub(_investment.value)).mul(traderFeePercent).div(10000);\n\n            // if the investor requested the exit, the trader will have to pay the amount\n            // if the trader requested the exit, they've already paid the amount\n            if (_investment.state == InvestmentState.ExitRequestedInvestor) {\n        \t   _expected =_traderFee;\n            }\n\n            require(_expected == _amount);\n\n            // take losses away from investor\n            result[1] = _investment.value;\n            \n            // add losses to trader balance\n            result[0] = _investment.amount.sub(_investment.value);\n            \n            // trader fee\n            result[2] = _traderFee;\n        }\n\n        _investment.state = InvestmentState.Divested;\n\n        result[3] = _investment.amount;\n    }\n\n    /// @dev Reject an exit request\n    /// @param _traderAddress trader address\n    /// @param _investmentId investment id\n    /// @param _value proposed investment value\n    function rejectExit(address _traderAddress, uint256 _investmentId, uint256 _value) \n        public \n        onlyManager\n    {\n        \n        _Investment storage _investment = investments[_investmentId];\n        require(_investment.trader == _traderAddress);\n        require(_investment.state == InvestmentState.ExitRequestedInvestor || \n                _investment.state == InvestmentState.ExitRequestedTrader);\n        \n        _investment.value = _value;\n        _investment.state = InvestmentState.Stopped;\n    }\n\n\n    /// @dev Calculate investment profits and fees\n    /// @param _value investment value\n    /// @param _amount original investment amount\n    /// @param _traderFeePercent trader fee percent\n    /// @param _investorFeePercent investor fee percent\n    /// @param _investorProfitPercent investor profit percent\n    /// @return array with: trader fee, investor fee, trader profit, investor profit\n    function calculateProfitsAndFees(\n\t\tuint256 _value,\n\t\tuint256 _amount,\n\t\tuint256 _traderFeePercent,\n\t\tuint256 _investorFeePercent,\n\t\tuint256 _investorProfitPercent\n\t) public pure returns (uint256, uint256, uint256, uint256) {\n\t\t\n        if (_value > _amount) {\n    \t\tuint256 _profit = _value - _amount;\n            uint256 _investorProfit = _profit.mul(_investorProfitPercent.sub(_investorFeePercent)).div(10000);\n            uint256 _traderProfit = _profit.mul(uint256(10000).sub(_investorProfitPercent).sub(_traderFeePercent)).div(10000);\n            uint256 _fee = _profit.sub(_investorProfit).sub(_traderProfit);\n            uint256 _investorFee = _fee.div(2);\n            uint256 _traderFee = _fee.sub(_investorFee);\n\n            return (_traderFee, _investorFee, _traderProfit, _investorProfit);\n        }\n\n        uint _traderFee = (_amount.sub(_value)).mul(_traderFeePercent).div(10000);\n        return (_traderFee, 0, 0, 0);\n\t}\n}",
  "sourcePath": "contracts/PairedInvestments.sol",
  "abi": [
    {
      "anonymous": false,
      "inputs": [
        {
          "indexed": true,
          "internalType": "address",
          "name": "previousOwner",
          "type": "address"
        },
        {
          "indexed": true,
          "internalType": "address",
          "name": "newOwner",
          "type": "address"
        }
      ],
      "name": "OwnershipTransferred",
      "type": "event"
    },
    {
      "constant": false,
      "inputs": [
        {
          "internalType": "address",
          "name": "_traderAddress",
          "type": "address"
        },
        {
          "internalType": "address",
          "name": "_investorAddress",
          "type": "address"
        },
        {
          "internalType": "uint256",
          "name": "_investmentId",
          "type": "uint256"
        },
        {
          "internalType": "uint256",
          "name": "_amount",
          "type": "uint256"
        }
      ],
      "name": "approveExit",
      "outputs": [
        {
          "internalType": "uint256[4]",
          "name": "result",
          "type": "uint256[4]"
        }
      ],
      "payable": false,
      "stateMutability": "nonpayable",
      "type": "function"
    },
    {
      "constant": true,
      "inputs": [
        {
          "internalType": "uint256",
          "name": "_value",
          "type": "uint256"
        },
        {
          "internalType": "uint256",
          "name": "_amount",
          "type": "uint256"
        },
        {
          "internalType": "uint256",
          "name": "_traderFeePercent",
          "type": "uint256"
        },
        {
          "internalType": "uint256",
          "name": "_investorFeePercent",
          "type": "uint256"
        },
        {
          "internalType": "uint256",
          "name": "_investorProfitPercent",
          "type": "uint256"
        }
      ],
      "name": "calculateProfitsAndFees",
      "outputs": [
        {
          "internalType": "uint256",
          "name": "",
          "type": "uint256"
        },
        {
          "internalType": "uint256",
          "name": "",
          "type": "uint256"
        },
        {
          "internalType": "uint256",
          "name": "",
          "type": "uint256"
        },
        {
          "internalType": "uint256",
          "name": "",
          "type": "uint256"
        }
      ],
      "payable": false,
      "stateMutability": "pure",
      "type": "function"
    },
    {
      "constant": false,
      "inputs": [
        {
          "internalType": "uint256",
          "name": "_traderFeePercent",
          "type": "uint256"
        },
        {
          "internalType": "uint256",
          "name": "_investorFeePercent",
          "type": "uint256"
        },
        {
          "internalType": "uint256",
          "name": "_investorProfitPercent",
          "type": "uint256"
        }
      ],
      "name": "initialize",
      "outputs": [],
      "payable": false,
      "stateMutability": "nonpayable",
      "type": "function"
    },
    {
      "constant": false,
      "inputs": [
        {
          "internalType": "address",
          "name": "sender",
          "type": "address"
        }
      ],
      "name": "initialize",
      "outputs": [],
      "payable": false,
      "stateMutability": "nonpayable",
      "type": "function"
    },
    {
      "constant": false,
      "inputs": [
        {
          "internalType": "address",
          "name": "_traderAddress",
          "type": "address"
        },
        {
          "internalType": "address",
          "name": "_investorAddress",
          "type": "address"
        },
        {
          "internalType": "address",
          "name": "_token",
          "type": "address"
        },
        {
          "internalType": "uint256",
          "name": "_amount",
          "type": "uint256"
        }
      ],
      "name": "invest",
      "outputs": [
        {
          "internalType": "uint256",
          "name": "",
          "type": "uint256"
        },
        {
          "internalType": "uint256",
          "name": "",
          "type": "uint256"
        }
      ],
      "payable": false,
      "stateMutability": "nonpayable",
      "type": "function"
    },
    {
      "constant": true,
      "inputs": [],
      "name": "investmentCount",
      "outputs": [
        {
          "internalType": "uint256",
          "name": "",
          "type": "uint256"
        }
      ],
      "payable": false,
      "stateMutability": "view",
      "type": "function"
    },
    {
      "constant": true,
      "inputs": [
        {
          "internalType": "uint256",
          "name": "",
          "type": "uint256"
        }
      ],
      "name": "investments",
      "outputs": [
        {
          "internalType": "uint256",
          "name": "id",
          "type": "uint256"
        },
        {
          "internalType": "address",
          "name": "trader",
          "type": "address"
        },
        {
          "internalType": "address",
          "name": "investor",
          "type": "address"
        },
        {
          "internalType": "address",
          "name": "token",
          "type": "address"
        },
        {
          "internalType": "uint256",
          "name": "amount",
          "type": "uint256"
        },
        {
          "internalType": "uint256",
          "name": "value",
          "type": "uint256"
        },
        {
          "internalType": "uint256",
          "name": "start",
          "type": "uint256"
        },
        {
          "internalType": "uint256",
          "name": "end",
          "type": "uint256"
        },
        {
          "internalType": "enum PairedInvestments.InvestmentState",
          "name": "state",
          "type": "uint8"
        }
      ],
      "payable": false,
      "stateMutability": "view",
      "type": "function"
    },
    {
      "constant": true,
      "inputs": [],
      "name": "investorFeePercent",
      "outputs": [
        {
          "internalType": "uint256",
          "name": "",
          "type": "uint256"
        }
      ],
      "payable": false,
      "stateMutability": "view",
      "type": "function"
    },
    {
      "constant": true,
      "inputs": [],
      "name": "investorProfitPercent",
      "outputs": [
        {
          "internalType": "uint256",
          "name": "",
          "type": "uint256"
        }
      ],
      "payable": false,
      "stateMutability": "view",
      "type": "function"
    },
    {
      "constant": true,
      "inputs": [],
      "name": "isOwner",
      "outputs": [
        {
          "internalType": "bool",
          "name": "",
          "type": "bool"
        }
      ],
      "payable": false,
      "stateMutability": "view",
      "type": "function"
    },
    {
      "constant": true,
      "inputs": [],
      "name": "manager",
      "outputs": [
        {
          "internalType": "address",
          "name": "",
          "type": "address"
        }
      ],
      "payable": false,
      "stateMutability": "view",
      "type": "function"
    },
    {
      "constant": true,
      "inputs": [],
      "name": "owner",
      "outputs": [
        {
          "internalType": "address",
          "name": "",
          "type": "address"
        }
      ],
      "payable": false,
      "stateMutability": "view",
      "type": "function"
    },
    {
      "constant": false,
      "inputs": [
        {
          "internalType": "address",
          "name": "_traderAddress",
          "type": "address"
        },
        {
          "internalType": "uint256",
          "name": "_investmentId",
          "type": "uint256"
        },
        {
          "internalType": "uint256",
          "name": "_value",
          "type": "uint256"
        }
      ],
      "name": "rejectExit",
      "outputs": [],
      "payable": false,
      "stateMutability": "nonpayable",
      "type": "function"
    },
    {
      "constant": false,
      "inputs": [],
      "name": "renounceOwnership",
      "outputs": [],
      "payable": false,
      "stateMutability": "nonpayable",
      "type": "function"
    },
    {
      "constant": false,
      "inputs": [
        {
          "internalType": "address",
          "name": "_traderAddress",
          "type": "address"
        },
        {
          "internalType": "address",
          "name": "_investorAddress",
          "type": "address"
        },
        {
          "internalType": "uint256",
          "name": "_investmentId",
          "type": "uint256"
        },
        {
          "internalType": "uint256",
          "name": "_value",
          "type": "uint256"
        }
      ],
      "name": "requestExitInvestor",
      "outputs": [],
      "payable": false,
      "stateMutability": "nonpayable",
      "type": "function"
    },
    {
      "constant": false,
      "inputs": [
        {
          "internalType": "address",
          "name": "_traderAddress",
          "type": "address"
        },
        {
          "internalType": "address",
          "name": "_investorAddress",
          "type": "address"
        },
        {
          "internalType": "uint256",
          "name": "_investmentId",
          "type": "uint256"
        },
        {
          "internalType": "uint256",
          "name": "_value",
          "type": "uint256"
        },
        {
          "internalType": "uint256",
          "name": "_amount",
          "type": "uint256"
        }
      ],
      "name": "requestExitTrader",
      "outputs": [],
      "payable": false,
      "stateMutability": "nonpayable",
      "type": "function"
    },
    {
      "constant": false,
      "inputs": [
        {
          "internalType": "address",
          "name": "_manager",
          "type": "address"
        }
      ],
      "name": "setManager",
      "outputs": [],
      "payable": false,
      "stateMutability": "nonpayable",
      "type": "function"
    },
    {
      "constant": false,
      "inputs": [
        {
          "internalType": "address",
          "name": "_traderAddress",
          "type": "address"
        },
        {
          "internalType": "address",
          "name": "_investorAddress",
          "type": "address"
        },
        {
          "internalType": "uint256",
          "name": "_investmentId",
          "type": "uint256"
        }
      ],
      "name": "stop",
      "outputs": [
        {
          "internalType": "uint256",
          "name": "",
          "type": "uint256"
        }
      ],
      "payable": false,
      "stateMutability": "nonpayable",
      "type": "function"
    },
    {
      "constant": true,
      "inputs": [],
      "name": "traderFeePercent",
      "outputs": [
        {
          "internalType": "uint256",
          "name": "",
          "type": "uint256"
        }
      ],
      "payable": false,
      "stateMutability": "view",
      "type": "function"
    },
    {
      "constant": false,
      "inputs": [
        {
          "internalType": "address",
          "name": "newOwner",
          "type": "address"
        }
      ],
      "name": "transferOwnership",
      "outputs": [],
      "payable": false,
      "stateMutability": "nonpayable",
      "type": "function"
    }
  ],
  "bytecode": "0x60806040526114df806100136000396000f3fe608060405234801561001057600080fd5b506004361061012c5760003560e01c80638f32d59b116100ad578063c4d66de811610071578063c4d66de8146103b6578063d0ebdbe7146103dc578063ee9aa30414610402578063f2fde38b14610434578063fd345c8a1461045a5761012c565b80638f32d59b146102f957806391db6bb514610315578063979d5a261461031d5780639c4abeb714610353578063b9220c3f1461035b5761012c565b8063481c6a75116100f4578063481c6a7514610294578063715018a6146102b857806380d85911146102c05780638c68770b146102e95780638da5cb5b146102f15761012c565b80631752e568146101315780631896de521461016f578063246b0e5c146101c457806334872831146101de578063468bdb2314610252575b600080fd5b61016d6004803603608081101561014757600080fd5b506001600160a01b03813581169160208101359091169060408101359060600135610509565b005b6101ab6004803603608081101561018557600080fd5b506001600160a01b0381358116916020810135821691604082013516906060013561051d565b6040805192835260208301919091528051918290030190f35b6101cc610692565b60408051918252519081900360200190f35b61021a600480360360808110156101f457600080fd5b506001600160a01b03813581169160208101359091169060408101359060600135610698565b6040518082608080838360005b8381101561023f578181015183820152602001610227565b5050505090500191505060405180910390f35b61016d600480360360a081101561026857600080fd5b506001600160a01b038135811691602081013590911690604081013590606081013590608001356108ac565b61029c6109fd565b604080516001600160a01b039092168252519081900360200190f35b61016d610a0c565b61016d600480360360608110156102d657600080fd5b5080359060208101359060400135610aaf565b6101cc610b6b565b61029c610b71565b610301610b80565b604080519115158252519081900360200190f35b6101cc610ba6565b6101cc6004803603606081101561033357600080fd5b506001600160a01b03813581169160208101359091169060400135610bac565b6101cc610c4b565b610390600480360360a081101561037157600080fd5b5080359060208101359060408101359060608101359060800135610c51565b604080519485526020850193909352838301919091526060830152519081900360800190f35b61016d600480360360208110156103cc57600080fd5b50356001600160a01b0316610d4f565b61016d600480360360208110156103f257600080fd5b50356001600160a01b0316610e41565b61016d6004803603606081101561041857600080fd5b506001600160a01b038135169060208101359060400135610ebc565b61016d6004803603602081101561044a57600080fd5b50356001600160a01b0316610f53565b6104776004803603602081101561047057600080fd5b5035610fb8565b604051808a8152602001896001600160a01b03166001600160a01b03168152602001886001600160a01b03166001600160a01b03168152602001876001600160a01b03166001600160a01b031681526020018681526020018581526020018481526020018381526020018260048111156104ed57fe5b60ff168152602001995050505050505050505060405180910390f35b610517848484846002611014565b50505050565b60665460009081906001600160a01b0316331461053957600080fd5b606b54429061054f90600163ffffffff6110bf16565b606b81905550604051806101200160405280606b548152602001886001600160a01b03168152602001876001600160a01b03168152602001866001600160a01b031681526020018581526020016000815260200182815260200160008152602001600060048111156105bd57fe5b9052606b546000908152606a60209081526040918290208351815590830151600180830180546001600160a01b03199081166001600160a01b03948516179091559385015160028401805486169184169190911790556060850151600384018054909516921691909117909255608083015160048083019190915560a0840151600583015560c0840151600683015560e0840151600783015561010084015160088301805493949193909260ff199091169190849081111561067b57fe5b021790555050606b54989197509095505050505050565b606b5481565b6106a06113a6565b6066546001600160a01b031633146106b757600080fd5b6000838152606a6020526040902060018101546001600160a01b038781169116146106e157600080fd5b60028101546001600160a01b038681169116146106fd57600080fd5b6002600882015460ff16600481111561071257fe5b148061073057506003600882015460ff16600481111561072e57fe5b145b61073957600080fd5b6004810154600582015460009110156107fa57600080600061076c85600501548660040154606754606854606954610c51565b935050925092506002600481111561078057fe5b600886015460ff16600481111561079357fe5b14156107bc576107b9826107ad838663ffffffff6110bf16565b9063ffffffff6110bf16565b93505b8684146107c857600080fd5b60048501546107dd908263ffffffff6110bf16565b60208701526107ec83836110bf565b60408701525061088a915050565b600061083b61271061082f6067546108238760050154886004015461112290919063ffffffff16565b9063ffffffff61116416565b9063ffffffff6111bd16565b90506002600884015460ff16600481111561085257fe5b141561085c578091505b84821461086857600080fd5b600583015460208501819052600484015461088291611122565b845260408401525b5060088101805460ff1916600490811790915501546060820152949350505050565b6108b46113c4565b6000848152606a60209081526040918290208251610120810184528154815260018201546001600160a01b03908116938201939093526002820154831693810193909352600381015490911660608301526004808201546080840152600582015460a0840152600682015460c0840152600782015460e0840152600882015461010084019160ff9091169081111561094857fe5b600481111561095357fe5b81525050905080608001518311156109b2576000806000610981868560800151606754606854606954610c51565b93505092509250846109a0836107ad86856110bf90919063ffffffff16565b146109aa57600080fd5b5050506109e7565b60006109d761271061082f60675461082388876080015161112290919063ffffffff16565b90508281146109e557600080fd5b505b6109f5868686866003611014565b505050505050565b6066546001600160a01b031681565b610a14610b80565b610a65576040805162461bcd60e51b815260206004820181905260248201527f4f776e61626c653a2063616c6c6572206973206e6f7420746865206f776e6572604482015290519081900360640190fd5b6033546040516000916001600160a01b0316907f8be0079c531659141344cd1fd0a4f28419497f9722a3daafe3b4186f6b6457e0908390a3603380546001600160a01b0319169055565b600054610100900460ff1680610ac85750610ac86111ff565b80610ad6575060005460ff16155b610b115760405162461bcd60e51b815260040180806020018281038252602e81526020018061147d602e913960400191505060405180910390fd5b600054610100900460ff16158015610b3c576000805460ff1961ff0019909116610100171660011790555b610b4533610d4f565b6067849055606883905560698290558015610517576000805461ff001916905550505050565b60685481565b6033546001600160a01b031690565b6033546000906001600160a01b0316610b97611205565b6001600160a01b031614905090565b60675481565b6066546000906001600160a01b03163314610bc657600080fd5b6000828152606a6020526040902060018101544291906001600160a01b03878116911614610bf357600080fd5b60028101546001600160a01b03868116911614610c0f57600080fd5b6000600882015460ff166004811115610c2457fe5b14610c2e57600080fd5b60078101829055600801805460ff19166001179055949350505050565b60695481565b60008060008087891115610d19578789036000610c8a61271061082f610c7d8a8c63ffffffff61112216565b859063ffffffff61116416565b90506000610cc461271061082f610cb78d610cab848e63ffffffff61112216565b9063ffffffff61112216565b869063ffffffff61116416565b90506000610cdc82610cab868663ffffffff61112216565b90506000610cf182600263ffffffff6111bd16565b90506000610d05838363ffffffff61112216565b9950909750919550919350610d4392505050565b6000610d3561271061082f8a6108238d8f63ffffffff61112216565b945060009350839250829150505b95509550955095915050565b600054610100900460ff1680610d685750610d686111ff565b80610d76575060005460ff16155b610db15760405162461bcd60e51b815260040180806020018281038252602e81526020018061147d602e913960400191505060405180910390fd5b600054610100900460ff16158015610ddc576000805460ff1961ff0019909116610100171660011790555b603380546001600160a01b0319166001600160a01b0384811691909117918290556040519116906000907f8be0079c531659141344cd1fd0a4f28419497f9722a3daafe3b4186f6b6457e0908290a38015610e3d576000805461ff00191690555b5050565b610e49610b80565b610e9a576040805162461bcd60e51b815260206004820181905260248201527f4f776e61626c653a2063616c6c6572206973206e6f7420746865206f776e6572604482015290519081900360640190fd5b606680546001600160a01b0319166001600160a01b0392909216919091179055565b6066546001600160a01b03163314610ed357600080fd5b6000828152606a6020526040902060018101546001600160a01b03858116911614610efd57600080fd5b6002600882015460ff166004811115610f1257fe5b1480610f3057506003600882015460ff166004811115610f2e57fe5b145b610f3957600080fd5b6005810191909155600801805460ff191660011790555050565b610f5b610b80565b610fac576040805162461bcd60e51b815260206004820181905260248201527f4f776e61626c653a2063616c6c6572206973206e6f7420746865206f776e6572604482015290519081900360640190fd5b610fb581611209565b50565b606a6020526000908152604090208054600182015460028301546003840154600485015460058601546006870154600788015460089098015496976001600160a01b039687169795871696909416949293919290919060ff1689565b6066546001600160a01b0316331461102b57600080fd5b6000838152606a6020526040902060018101546001600160a01b0387811691161461105557600080fd5b60028101546001600160a01b0386811691161461107157600080fd5b6001600882015460ff16600481111561108657fe5b1461109057600080fd5b6005810183905560088101805483919060ff191660018360048111156110b257fe5b0217905550505050505050565b600082820183811015611119576040805162461bcd60e51b815260206004820152601b60248201527f536166654d6174683a206164646974696f6e206f766572666c6f770000000000604482015290519081900360640190fd5b90505b92915050565b600061111983836040518060400160405280601e81526020017f536166654d6174683a207375627472616374696f6e206f766572666c6f7700008152506112aa565b6000826111735750600061111c565b8282028284828161118057fe5b04146111195760405162461bcd60e51b815260040180806020018281038252602181526020018061145c6021913960400191505060405180910390fd5b600061111983836040518060400160405280601a81526020017f536166654d6174683a206469766973696f6e206279207a65726f000000000000815250611341565b303b1590565b3390565b6001600160a01b03811661124e5760405162461bcd60e51b81526004018080602001828103825260268152602001806114366026913960400191505060405180910390fd5b6033546040516001600160a01b038084169216907f8be0079c531659141344cd1fd0a4f28419497f9722a3daafe3b4186f6b6457e090600090a3603380546001600160a01b0319166001600160a01b0392909216919091179055565b600081848411156113395760405162461bcd60e51b81526004018080602001828103825283818151815260200191508051906020019080838360005b838110156112fe5781810151838201526020016112e6565b50505050905090810190601f16801561132b5780820380516001836020036101000a031916815260200191505b509250505060405180910390fd5b505050900390565b600081836113905760405162461bcd60e51b81526020600482018181528351602484015283519092839260449091019190850190808383600083156112fe5781810151838201526020016112e6565b50600083858161139c57fe5b0495945050505050565b60405180608001604052806004906020820280388339509192915050565b6040518061012001604052806000815260200160006001600160a01b0316815260200160006001600160a01b0316815260200160006001600160a01b03168152602001600081526020016000815260200160008152602001600081526020016000600481111561143057fe5b90529056fe4f776e61626c653a206e6577206f776e657220697320746865207a65726f2061646472657373536166654d6174683a206d756c7469706c69636174696f6e206f766572666c6f77436f6e747261637420696e7374616e63652068617320616c7265616479206265656e20696e697469616c697a6564a265627a7a72315820cc9aaf529da409064ecaad7a1a98c977d6e6f62f8e7195c240f281906f9b50a464736f6c63430005110032",
  "compiler": {
    "name": "solc",
    "version": "0.5.17+commit.d19bba13.Emscripten.clang",
    "optimizer": {
      "enabled": true,
      "runs": 200
    },
    "evmVersion": "petersburg"
  }
}