{
  "fileName": "TraderPaired.sol",
  "contractName": "TraderPaired",
  "source": "// \"SPDX-License-Identifier: UNLICENSED\"\npragma solidity >=0.4.21 <0.7.0;\n\nimport \"@openzeppelin/contracts-ethereum-package/contracts/math/SafeMath.sol\";\nimport \"@openzeppelin/upgrades/contracts/Initializable.sol\";\nimport \"@openzeppelin/contracts-ethereum-package/contracts/ownership/Ownable.sol\";\nimport \"@openzeppelin/contracts-ethereum-package/contracts/lifecycle/Pausable.sol\";\nimport \"@openzeppelin/contracts-ethereum-package/contracts/token/ERC20/IERC20.sol\";\n\nimport \"./ITraderPaired.sol\";\nimport \"./IPairedInvestments.sol\";\nimport \"./IFactory.sol\";\nimport \"./IMultiSigFundWalletFactory.sol\";\nimport \"./IMultiSigFundWallet.sol\";\n\ncontract TraderPaired is Initializable, Ownable, Pausable, ITraderPaired {\n\tusing SafeMath for uint256;\n\n    /*\n     *  Constants\n     */\n    address constant ETHER = address(0); // allows storage of ether in blank address in token mapping\n    uint16 constant DEFAULT_COLLATERAL_PERCENTAGE = 2000;\n    uint16 constant DEFAULT_DIRECT_PERCENTAGE = 8000;\n\n    /*\n     *  Storage\n     */\n    address public feeAccount; // account that will receive fees\n\n\n    mapping(address => _Trader) public traders;\n    mapping(address => _Investor) public investors;\n\n    address public multiSigFundWalletFactory;\n    address public pairedInvestments;\n\n    mapping(address => bool) public tokens;\n\n    mapping(address => mapping(uint256 => uint256)) public traderInvestments;\n    mapping(address => mapping(uint256 => uint256)) public investorInvestments;\n    mapping(address => mapping(address => _Allocation)) public allocations;\n\n    mapping(uint256 => address) public traderAddresses;\n    mapping(uint256 => address) public investorAddresses;\n\n    uint256 public traderCount;\n    uint256 public investorCount;\n\n    /*\n     *  Events\n     */\n    event Trader(address indexed user, uint256 traderId, uint16 investorCollateralProfitPercent, uint16 investorDirectProfitPercent, uint256 date);\n    event Investor(address indexed user, uint256 investorId, uint256 date);\n    event ProfitPercentages(address indexed trader, uint16 investorCollateralProfitPercent, uint16 investorDirectProfitPercent);\n    event Investment(address wallet, address indexed investor, uint256 date);\n    event Allocate(address indexed trader, address indexed token, uint256 total, uint256 invested, uint256 date);\n    event Invest(uint256 id, address wallet, address indexed trader, address indexed investor, address token, uint256 amount, uint16 investorProfitPercent, uint8 investmentType, uint256 allocationInvested, uint256 allocationTotal, uint256 date);\n    event Stop(uint256 id, address wallet, address indexed trader, address indexed investor, address from, uint256 date);\n    event RequestExit(uint256 id, address wallet, address indexed trader, address indexed investor, address from, uint256 value, uint256 date);\n    event ApproveExit(uint256 id, address wallet, address indexed trader, address indexed investor, address from, uint256 allocationInvested, uint256 allocationTotal, uint256 date);\n    event RejectExit(uint256 id, address wallet, address indexed trader, uint256 value, address from, uint256 date);\n\n    /*\n     *  Structs\n     */\n    struct _Trader {\n        address user;\n        uint256 investmentCount;\n        uint16 investorCollateralProfitPercent;\n        uint16 investorDirectProfitPercent;\n    }\n\n    struct _Allocation {\n        uint256 total;\n        uint256 invested;\n    }\n\n    struct _Investor {\n        address user;\n        uint256 investmentCount;\n    }\n\n    /*\n     *  Modifiers\n     */\n    modifier isTrader(address trader) {\n        require(trader != address(0) && traders[trader].user == trader);\n        _;\n    }\n\n    modifier isInvestor(address investor) {\n        require(investor != address(0) && investors[investor].user == investor);\n        _;\n    }\n\n    // modifier notInvested(address trader, address investor) {\n    //     require(!isInvested(trader, investor));\n    //     _;\n    // }\n\n    modifier onlyWallet {\n        require(IFactory(multiSigFundWalletFactory).isInstantiation(msg.sender));\n        _;\n    }\n\n    /// @dev Initialize\n    /// @param _feeAccount fee account\n    function initialize(address _feeAccount) \n        public \n        initializer \n    {\n        Ownable.initialize(msg.sender);\n        Pausable.initialize(msg.sender);\n        feeAccount = _feeAccount;\n    }\n\n    /// @dev set MultiSigFundWalletFactory\n    /// @param _factory contract address\n    function setMultiSigFundWalletFactory(address _factory) \n        public \n        onlyOwner \n    {\n        multiSigFundWalletFactory = _factory;\n    }\n\n    /// @dev set PairedInvestments\n    /// @param _pairedInvestments contract address\n    function setPairedInvestments(address _pairedInvestments) \n        public \n        onlyOwner \n    {\n        pairedInvestments = _pairedInvestments;\n    }\n\n    /// @dev reverts if ether is sent directly\n    function () external {\n        revert();\n    }\n\n    /// @dev activate/deactivate token\n    /// @param _token token address\n    /// @param _valid active or not\n    function setToken(address _token, bool _valid) \n        external \n        onlyOwner \n    {\n        tokens[_token] = _valid;\n    }\n\n    /// @dev Join as trader\n    function joinAsTrader() \n        external \n        whenNotPaused \n    {\n        require(traders[msg.sender].user == address(0));\n        require(investors[msg.sender].user == address(0));\n\n        traders[msg.sender] = _Trader({\n            user: msg.sender, \n            investmentCount: 0,\n            investorCollateralProfitPercent: DEFAULT_COLLATERAL_PERCENTAGE,\n            investorDirectProfitPercent: DEFAULT_DIRECT_PERCENTAGE\n        });\n\n        traderCount = traderCount.add(1);\n        traderAddresses[traderCount] = msg.sender;\n\n        emit Trader(msg.sender, traderCount, DEFAULT_COLLATERAL_PERCENTAGE, DEFAULT_DIRECT_PERCENTAGE, now);\n    }\n\n    /// @dev Join as investor\n    function joinAsInvestor() \n        external \n        whenNotPaused \n    {\n        require(traders[msg.sender].user == address(0));\n        require(investors[msg.sender].user == address(0));\n\n        investors[msg.sender] = _Investor({\n            user: msg.sender,\n            investmentCount: 0\n        });\n\n        investorCount = investorCount.add(1);\n        investorAddresses[investorCount] = msg.sender;\n\n        emit Investor(msg.sender, investorCount, now);\n    }\n\n    /// @dev Allocate amount of tokens\n    /// @param _token token address\n    /// @param _amount amount to allocate\n    function allocate(address _token, uint256 _amount) \n        external \n        whenNotPaused \n    {\n        require(tokens[_token]);\n        _Trader memory _trader = traders[msg.sender];\n        require(_trader.user == msg.sender);\n\n        allocations[msg.sender][_token].total = _amount;\n\n        emit Allocate(msg.sender, _token, _amount, allocations[msg.sender][_token].invested, now);\n    }\n\n    /// @dev Sets profit percentages\n    /// @param _investorCollateralProfitPercent investor profit for collateral investments\n    /// @param _investorDirectProfitPercent investor profit for direct investments\n    function setProfitPercentages(\n            uint16 _investorCollateralProfitPercent, \n            uint16 _investorDirectProfitPercent)\n        external\n        whenNotPaused\n        isTrader(msg.sender)\n    {\n        _Trader storage _trader = traders[msg.sender];\n        _trader.investorCollateralProfitPercent = _investorCollateralProfitPercent;\n        _trader.investorDirectProfitPercent = _investorDirectProfitPercent;\n\n        emit ProfitPercentages(msg.sender, _investorCollateralProfitPercent, _investorDirectProfitPercent);\n    }\n\n    /// @dev Checks if investor is invested with trader\n    /// @param _traderAddress trader address\n    /// @param _investorAddress investor address\n    /// @return invested\n    // function isInvested(address _traderAddress, address _investorAddress) \n    //     internal\n    //     view\n    //     returns (bool) \n    // {\n    //     address[] memory wallets = IFactory(multiSigFundWalletFactory).getInstantiations(_investorAddress);\n        \n    //     for(uint256 i = 0; i < wallets.length; i++) {\n    //         if (IMultiSigFundWallet(wallets[i]).traders(_traderAddress)) {\n    //             return true;\n    //         }\n    //     }\n\n    //     return false;\n    // }\n\n    /// @dev Checks if investor has a wallet\n    /// @param _investorAddress investor address\n    /// @return has wallet\n    function hasWallet(address _investorAddress) \n        internal\n        view\n        returns (bool) \n    {\n        return IFactory(multiSigFundWalletFactory).isInstantiation(_investorAddress);\n    }\n\n    /// @dev Create new investment wallet\n    function createInvestment() \n        external\n        whenNotPaused\n        isInvestor(msg.sender)\n    {\n        require(!hasWallet(msg.sender));\n        address wallet = IMultiSigFundWalletFactory(multiSigFundWalletFactory).create(address(this), msg.sender, feeAccount);\n        emit Investment(wallet, msg.sender, now);\n    }\n\n    /// @dev Invest\n    /// @param _traderAddress trader address\n    /// @param _investorAddress investor address\n    /// @param _token token address\n    /// @param _amount amount to invest\n    /// @param _type investment type\n    /// @return investment id\n    function invest(address _traderAddress, address _investorAddress, address _token, uint256 _amount, uint8 _type) \n        public \n        whenNotPaused \n        onlyWallet \n        returns (uint256 investmentCount)\n    {\n        require(tokens[_token]);\n        _Investor storage _investor = investors[_investorAddress];\n        require(_investor.user == _investorAddress);\n\n        _Trader storage _trader = traders[_traderAddress];\n        require(_trader.user == _traderAddress);\n\n        _Allocation storage allocation = allocations[_trader.user][_token];\n\n        if (_type == 0) {\n            // falls within trader allocations\n            require(allocation.total - allocation.invested >= _amount);\n            allocation.invested = allocation.invested.add(_amount);\n        }\n\n        uint16 _investorProfitPercent = _trader.investorCollateralProfitPercent;\n        if (_type == 1) {\n            _investorProfitPercent = _trader.investorDirectProfitPercent;\n        }\n\n        uint256 starttime;\n        (investmentCount, starttime) = IPairedInvestments(pairedInvestments).invest(\n            _traderAddress, \n            _investorAddress, \n            _token, \n            _amount,\n            _investorProfitPercent,\n            _type\n        );\n\n        _trader.investmentCount = _trader.investmentCount.add(1);\n        traderInvestments[_trader.user][_trader.investmentCount] = investmentCount;\n\n        _investor.investmentCount = _investor.investmentCount.add(1);\n        investorInvestments[_investor.user][_investor.investmentCount] = investmentCount;\n\n        emit Invest(\n            investmentCount,\n            msg.sender,\n            _traderAddress,\n            _investorAddress,\n            _token,\n            _amount,\n            _investorProfitPercent,\n            _type,\n            allocation.invested,\n            allocation.total,\n            starttime\n        );\n    }\n\n    /// @dev Trader/Investor stops an investment\n    /// @param _traderAddress trader address\n    /// @param _investorAddress investor address\n    /// @param _from initiator address\n    /// @param _investmentId investment id\n    function stop(address _traderAddress, address _investorAddress, address _from, uint256 _investmentId) \n        public \n        whenNotPaused \n        onlyWallet \n    {\n        _Trader memory _trader = traders[_traderAddress];\n        require(_trader.user == _traderAddress);\n\n        uint256 stoptime = IPairedInvestments(pairedInvestments).stop(\n            _traderAddress, \n            _investorAddress, \n            _investmentId);\n\n        emit Stop(\n            _investmentId,\n            msg.sender,\n            _traderAddress,\n            _investorAddress,\n            _from,\n            stoptime\n        );\n    }\n\n    /// @dev Investor requests to exit an investment\n    /// @param _traderAddress trader address\n    /// @param _investorAddress investor address\n    /// @param _investmentId investment id\n    /// @param _value investment value\n    function requestExitInvestor(address _traderAddress, address _investorAddress, uint256 _investmentId, uint256 _value) \n        public \n        whenNotPaused \n        onlyWallet \n    {\n        _Trader memory _trader = traders[_traderAddress];\n        require(_trader.user == _traderAddress);\n\n        IPairedInvestments(pairedInvestments).requestExitInvestor(\n            _traderAddress, \n            _investorAddress, \n            _investmentId, \n            _value);\n\n        emit RequestExit(\n            _investmentId,\n            msg.sender,\n            _traderAddress,\n            _investorAddress,\n            _investorAddress,\n            _value,\n            now\n        );\n    }\n    \n    /// @dev Trader requests to exit an investment\n    /// @param _traderAddress trader address\n    /// @param _investorAddress investor address\n    /// @param _investmentId investment id\n    /// @param _value investment value\n    /// @param _amount transaction amount\n    function requestExitTrader(address _traderAddress, address _investorAddress, uint256 _investmentId, uint256 _value, uint256 _amount) \n        public \n        whenNotPaused \n        onlyWallet \n    {\n        _Trader memory _trader = traders[_traderAddress];\n        require(_trader.user == _traderAddress);\n\n        IPairedInvestments(pairedInvestments).requestExitTrader(\n            _traderAddress, \n            _investorAddress, \n            _investmentId, \n            _value,\n            _amount);\n\n        emit RequestExit(\n            _investmentId,\n            msg.sender,\n            _traderAddress,\n            _investorAddress,\n            _traderAddress,\n            _value,\n            now\n        );\n    }\n\n    /// @dev Approve exit of investment\n    /// @param _traderAddress trader address\n    /// @param _investorAddress investor address\n    /// @param _signer Signer address\n    /// @param _investmentId investment id\n    /// @param _token token address\n    /// @param _amount transaction amount\n    function approveExit(address _traderAddress, address _investorAddress, address _signer, uint256 _investmentId, address _token, uint256 _amount) \n        public \n        whenNotPaused\n        onlyWallet\n        returns (uint256[3] memory payouts)\n    {\n        _Trader memory _trader = traders[_traderAddress];\n        _Investor memory _investor = investors[_investorAddress];\n        require(_trader.user == _traderAddress);\n        require(_investor.user == _investorAddress);\n\n        uint256[5] memory _result = IPairedInvestments(pairedInvestments).approveExit(\n            _traderAddress,\n            _investorAddress, \n            _signer,\n            _investmentId, \n            _amount);\n\n        _Allocation storage allocation = allocations[_traderAddress][_token];\n\n        if (_result[4] == 0) {\n            allocation.invested = allocation.invested.sub(_result[3]);\n        }\n        \n        payouts[0] = _result[0];\n        payouts[1] = _result[1];\n        payouts[2] = _result[2];\n\n        emit ApproveExit(\n            _investmentId,\n            msg.sender,\n            _traderAddress,\n            _investorAddress,\n            _signer,\n            allocation.invested,\n            allocation.total,\n            now\n        );\n    }\n\n    /// @dev Reject exit of investment\n    /// @param _traderAddress trader address\n    /// @param _investmentId investment id\n    /// @param _value proposed investment value\n    /// @param _from initiator address\n    function rejectExit(address _traderAddress, uint256 _investmentId, uint256 _value, address _from)\n        public \n        whenNotPaused\n        onlyWallet\n    {\n        IPairedInvestments(pairedInvestments).rejectExit(\n            _traderAddress,\n            _investmentId,\n            _value\n        );\n\n        emit RejectExit(\n            _investmentId,\n            msg.sender,\n            _traderAddress,\n            _value,\n            _from,\n            now\n        );\n    }\n\n\n}\n",
  "sourcePath": "contracts/TraderPaired.sol",
  "abi": [
    {
      "anonymous": false,
      "inputs": [
        {
          "indexed": true,
          "internalType": "address",
          "name": "trader",
          "type": "address"
        },
        {
          "indexed": true,
          "internalType": "address",
          "name": "token",
          "type": "address"
        },
        {
          "indexed": false,
          "internalType": "uint256",
          "name": "total",
          "type": "uint256"
        },
        {
          "indexed": false,
          "internalType": "uint256",
          "name": "invested",
          "type": "uint256"
        },
        {
          "indexed": false,
          "internalType": "uint256",
          "name": "date",
          "type": "uint256"
        }
      ],
      "name": "Allocate",
      "type": "event"
    },
    {
      "anonymous": false,
      "inputs": [
        {
          "indexed": false,
          "internalType": "uint256",
          "name": "id",
          "type": "uint256"
        },
        {
          "indexed": false,
          "internalType": "address",
          "name": "wallet",
          "type": "address"
        },
        {
          "indexed": true,
          "internalType": "address",
          "name": "trader",
          "type": "address"
        },
        {
          "indexed": true,
          "internalType": "address",
          "name": "investor",
          "type": "address"
        },
        {
          "indexed": false,
          "internalType": "address",
          "name": "from",
          "type": "address"
        },
        {
          "indexed": false,
          "internalType": "uint256",
          "name": "allocationInvested",
          "type": "uint256"
        },
        {
          "indexed": false,
          "internalType": "uint256",
          "name": "allocationTotal",
          "type": "uint256"
        },
        {
          "indexed": false,
          "internalType": "uint256",
          "name": "date",
          "type": "uint256"
        }
      ],
      "name": "ApproveExit",
      "type": "event"
    },
    {
      "anonymous": false,
      "inputs": [
        {
          "indexed": false,
          "internalType": "uint256",
          "name": "id",
          "type": "uint256"
        },
        {
          "indexed": false,
          "internalType": "address",
          "name": "wallet",
          "type": "address"
        },
        {
          "indexed": true,
          "internalType": "address",
          "name": "trader",
          "type": "address"
        },
        {
          "indexed": true,
          "internalType": "address",
          "name": "investor",
          "type": "address"
        },
        {
          "indexed": false,
          "internalType": "address",
          "name": "token",
          "type": "address"
        },
        {
          "indexed": false,
          "internalType": "uint256",
          "name": "amount",
          "type": "uint256"
        },
        {
          "indexed": false,
          "internalType": "uint16",
          "name": "investorProfitPercent",
          "type": "uint16"
        },
        {
          "indexed": false,
          "internalType": "uint8",
          "name": "investmentType",
          "type": "uint8"
        },
        {
          "indexed": false,
          "internalType": "uint256",
          "name": "allocationInvested",
          "type": "uint256"
        },
        {
          "indexed": false,
          "internalType": "uint256",
          "name": "allocationTotal",
          "type": "uint256"
        },
        {
          "indexed": false,
          "internalType": "uint256",
          "name": "date",
          "type": "uint256"
        }
      ],
      "name": "Invest",
      "type": "event"
    },
    {
      "anonymous": false,
      "inputs": [
        {
          "indexed": false,
          "internalType": "address",
          "name": "wallet",
          "type": "address"
        },
        {
          "indexed": true,
          "internalType": "address",
          "name": "investor",
          "type": "address"
        },
        {
          "indexed": false,
          "internalType": "uint256",
          "name": "date",
          "type": "uint256"
        }
      ],
      "name": "Investment",
      "type": "event"
    },
    {
      "anonymous": false,
      "inputs": [
        {
          "indexed": true,
          "internalType": "address",
          "name": "user",
          "type": "address"
        },
        {
          "indexed": false,
          "internalType": "uint256",
          "name": "investorId",
          "type": "uint256"
        },
        {
          "indexed": false,
          "internalType": "uint256",
          "name": "date",
          "type": "uint256"
        }
      ],
      "name": "Investor",
      "type": "event"
    },
    {
      "anonymous": false,
      "inputs": [
        {
          "indexed": true,
          "internalType": "address",
          "name": "previousOwner",
          "type": "address"
        },
        {
          "indexed": true,
          "internalType": "address",
          "name": "newOwner",
          "type": "address"
        }
      ],
      "name": "OwnershipTransferred",
      "type": "event"
    },
    {
      "anonymous": false,
      "inputs": [
        {
          "indexed": false,
          "internalType": "address",
          "name": "account",
          "type": "address"
        }
      ],
      "name": "Paused",
      "type": "event"
    },
    {
      "anonymous": false,
      "inputs": [
        {
          "indexed": true,
          "internalType": "address",
          "name": "account",
          "type": "address"
        }
      ],
      "name": "PauserAdded",
      "type": "event"
    },
    {
      "anonymous": false,
      "inputs": [
        {
          "indexed": true,
          "internalType": "address",
          "name": "account",
          "type": "address"
        }
      ],
      "name": "PauserRemoved",
      "type": "event"
    },
    {
      "anonymous": false,
      "inputs": [
        {
          "indexed": true,
          "internalType": "address",
          "name": "trader",
          "type": "address"
        },
        {
          "indexed": false,
          "internalType": "uint16",
          "name": "investorCollateralProfitPercent",
          "type": "uint16"
        },
        {
          "indexed": false,
          "internalType": "uint16",
          "name": "investorDirectProfitPercent",
          "type": "uint16"
        }
      ],
      "name": "ProfitPercentages",
      "type": "event"
    },
    {
      "anonymous": false,
      "inputs": [
        {
          "indexed": false,
          "internalType": "uint256",
          "name": "id",
          "type": "uint256"
        },
        {
          "indexed": false,
          "internalType": "address",
          "name": "wallet",
          "type": "address"
        },
        {
          "indexed": true,
          "internalType": "address",
          "name": "trader",
          "type": "address"
        },
        {
          "indexed": false,
          "internalType": "uint256",
          "name": "value",
          "type": "uint256"
        },
        {
          "indexed": false,
          "internalType": "address",
          "name": "from",
          "type": "address"
        },
        {
          "indexed": false,
          "internalType": "uint256",
          "name": "date",
          "type": "uint256"
        }
      ],
      "name": "RejectExit",
      "type": "event"
    },
    {
      "anonymous": false,
      "inputs": [
        {
          "indexed": false,
          "internalType": "uint256",
          "name": "id",
          "type": "uint256"
        },
        {
          "indexed": false,
          "internalType": "address",
          "name": "wallet",
          "type": "address"
        },
        {
          "indexed": true,
          "internalType": "address",
          "name": "trader",
          "type": "address"
        },
        {
          "indexed": true,
          "internalType": "address",
          "name": "investor",
          "type": "address"
        },
        {
          "indexed": false,
          "internalType": "address",
          "name": "from",
          "type": "address"
        },
        {
          "indexed": false,
          "internalType": "uint256",
          "name": "value",
          "type": "uint256"
        },
        {
          "indexed": false,
          "internalType": "uint256",
          "name": "date",
          "type": "uint256"
        }
      ],
      "name": "RequestExit",
      "type": "event"
    },
    {
      "anonymous": false,
      "inputs": [
        {
          "indexed": false,
          "internalType": "uint256",
          "name": "id",
          "type": "uint256"
        },
        {
          "indexed": false,
          "internalType": "address",
          "name": "wallet",
          "type": "address"
        },
        {
          "indexed": true,
          "internalType": "address",
          "name": "trader",
          "type": "address"
        },
        {
          "indexed": true,
          "internalType": "address",
          "name": "investor",
          "type": "address"
        },
        {
          "indexed": false,
          "internalType": "address",
          "name": "from",
          "type": "address"
        },
        {
          "indexed": false,
          "internalType": "uint256",
          "name": "date",
          "type": "uint256"
        }
      ],
      "name": "Stop",
      "type": "event"
    },
    {
      "anonymous": false,
      "inputs": [
        {
          "indexed": true,
          "internalType": "address",
          "name": "user",
          "type": "address"
        },
        {
          "indexed": false,
          "internalType": "uint256",
          "name": "traderId",
          "type": "uint256"
        },
        {
          "indexed": false,
          "internalType": "uint16",
          "name": "investorCollateralProfitPercent",
          "type": "uint16"
        },
        {
          "indexed": false,
          "internalType": "uint16",
          "name": "investorDirectProfitPercent",
          "type": "uint16"
        },
        {
          "indexed": false,
          "internalType": "uint256",
          "name": "date",
          "type": "uint256"
        }
      ],
      "name": "Trader",
      "type": "event"
    },
    {
      "anonymous": false,
      "inputs": [
        {
          "indexed": false,
          "internalType": "address",
          "name": "account",
          "type": "address"
        }
      ],
      "name": "Unpaused",
      "type": "event"
    },
    {
      "payable": false,
      "stateMutability": "nonpayable",
      "type": "fallback"
    },
    {
      "constant": false,
      "inputs": [
        {
          "internalType": "address",
          "name": "account",
          "type": "address"
        }
      ],
      "name": "addPauser",
      "outputs": [],
      "payable": false,
      "stateMutability": "nonpayable",
      "type": "function"
    },
    {
      "constant": false,
      "inputs": [
        {
          "internalType": "address",
          "name": "_token",
          "type": "address"
        },
        {
          "internalType": "uint256",
          "name": "_amount",
          "type": "uint256"
        }
      ],
      "name": "allocate",
      "outputs": [],
      "payable": false,
      "stateMutability": "nonpayable",
      "type": "function"
    },
    {
      "constant": true,
      "inputs": [
        {
          "internalType": "address",
          "name": "",
          "type": "address"
        },
        {
          "internalType": "address",
          "name": "",
          "type": "address"
        }
      ],
      "name": "allocations",
      "outputs": [
        {
          "internalType": "uint256",
          "name": "total",
          "type": "uint256"
        },
        {
          "internalType": "uint256",
          "name": "invested",
          "type": "uint256"
        }
      ],
      "payable": false,
      "stateMutability": "view",
      "type": "function"
    },
    {
      "constant": false,
      "inputs": [
        {
          "internalType": "address",
          "name": "_traderAddress",
          "type": "address"
        },
        {
          "internalType": "address",
          "name": "_investorAddress",
          "type": "address"
        },
        {
          "internalType": "address",
          "name": "_signer",
          "type": "address"
        },
        {
          "internalType": "uint256",
          "name": "_investmentId",
          "type": "uint256"
        },
        {
          "internalType": "address",
          "name": "_token",
          "type": "address"
        },
        {
          "internalType": "uint256",
          "name": "_amount",
          "type": "uint256"
        }
      ],
      "name": "approveExit",
      "outputs": [
        {
          "internalType": "uint256[3]",
          "name": "payouts",
          "type": "uint256[3]"
        }
      ],
      "payable": false,
      "stateMutability": "nonpayable",
      "type": "function"
    },
    {
      "constant": false,
      "inputs": [],
      "name": "createInvestment",
      "outputs": [],
      "payable": false,
      "stateMutability": "nonpayable",
      "type": "function"
    },
    {
      "constant": true,
      "inputs": [],
      "name": "feeAccount",
      "outputs": [
        {
          "internalType": "address",
          "name": "",
          "type": "address"
        }
      ],
      "payable": false,
      "stateMutability": "view",
      "type": "function"
    },
    {
      "constant": false,
      "inputs": [
        {
          "internalType": "address",
          "name": "_feeAccount",
          "type": "address"
        }
      ],
      "name": "initialize",
      "outputs": [],
      "payable": false,
      "stateMutability": "nonpayable",
      "type": "function"
    },
    {
      "constant": false,
      "inputs": [
        {
          "internalType": "address",
          "name": "_traderAddress",
          "type": "address"
        },
        {
          "internalType": "address",
          "name": "_investorAddress",
          "type": "address"
        },
        {
          "internalType": "address",
          "name": "_token",
          "type": "address"
        },
        {
          "internalType": "uint256",
          "name": "_amount",
          "type": "uint256"
        },
        {
          "internalType": "uint8",
          "name": "_type",
          "type": "uint8"
        }
      ],
      "name": "invest",
      "outputs": [
        {
          "internalType": "uint256",
          "name": "investmentCount",
          "type": "uint256"
        }
      ],
      "payable": false,
      "stateMutability": "nonpayable",
      "type": "function"
    },
    {
      "constant": true,
      "inputs": [
        {
          "internalType": "uint256",
          "name": "",
          "type": "uint256"
        }
      ],
      "name": "investorAddresses",
      "outputs": [
        {
          "internalType": "address",
          "name": "",
          "type": "address"
        }
      ],
      "payable": false,
      "stateMutability": "view",
      "type": "function"
    },
    {
      "constant": true,
      "inputs": [],
      "name": "investorCount",
      "outputs": [
        {
          "internalType": "uint256",
          "name": "",
          "type": "uint256"
        }
      ],
      "payable": false,
      "stateMutability": "view",
      "type": "function"
    },
    {
      "constant": true,
      "inputs": [
        {
          "internalType": "address",
          "name": "",
          "type": "address"
        },
        {
          "internalType": "uint256",
          "name": "",
          "type": "uint256"
        }
      ],
      "name": "investorInvestments",
      "outputs": [
        {
          "internalType": "uint256",
          "name": "",
          "type": "uint256"
        }
      ],
      "payable": false,
      "stateMutability": "view",
      "type": "function"
    },
    {
      "constant": true,
      "inputs": [
        {
          "internalType": "address",
          "name": "",
          "type": "address"
        }
      ],
      "name": "investors",
      "outputs": [
        {
          "internalType": "address",
          "name": "user",
          "type": "address"
        },
        {
          "internalType": "uint256",
          "name": "investmentCount",
          "type": "uint256"
        }
      ],
      "payable": false,
      "stateMutability": "view",
      "type": "function"
    },
    {
      "constant": true,
      "inputs": [],
      "name": "isOwner",
      "outputs": [
        {
          "internalType": "bool",
          "name": "",
          "type": "bool"
        }
      ],
      "payable": false,
      "stateMutability": "view",
      "type": "function"
    },
    {
      "constant": true,
      "inputs": [
        {
          "internalType": "address",
          "name": "account",
          "type": "address"
        }
      ],
      "name": "isPauser",
      "outputs": [
        {
          "internalType": "bool",
          "name": "",
          "type": "bool"
        }
      ],
      "payable": false,
      "stateMutability": "view",
      "type": "function"
    },
    {
      "constant": false,
      "inputs": [],
      "name": "joinAsInvestor",
      "outputs": [],
      "payable": false,
      "stateMutability": "nonpayable",
      "type": "function"
    },
    {
      "constant": false,
      "inputs": [],
      "name": "joinAsTrader",
      "outputs": [],
      "payable": false,
      "stateMutability": "nonpayable",
      "type": "function"
    },
    {
      "constant": true,
      "inputs": [],
      "name": "multiSigFundWalletFactory",
      "outputs": [
        {
          "internalType": "address",
          "name": "",
          "type": "address"
        }
      ],
      "payable": false,
      "stateMutability": "view",
      "type": "function"
    },
    {
      "constant": true,
      "inputs": [],
      "name": "owner",
      "outputs": [
        {
          "internalType": "address",
          "name": "",
          "type": "address"
        }
      ],
      "payable": false,
      "stateMutability": "view",
      "type": "function"
    },
    {
      "constant": true,
      "inputs": [],
      "name": "pairedInvestments",
      "outputs": [
        {
          "internalType": "address",
          "name": "",
          "type": "address"
        }
      ],
      "payable": false,
      "stateMutability": "view",
      "type": "function"
    },
    {
      "constant": false,
      "inputs": [],
      "name": "pause",
      "outputs": [],
      "payable": false,
      "stateMutability": "nonpayable",
      "type": "function"
    },
    {
      "constant": true,
      "inputs": [],
      "name": "paused",
      "outputs": [
        {
          "internalType": "bool",
          "name": "",
          "type": "bool"
        }
      ],
      "payable": false,
      "stateMutability": "view",
      "type": "function"
    },
    {
      "constant": false,
      "inputs": [
        {
          "internalType": "address",
          "name": "_traderAddress",
          "type": "address"
        },
        {
          "internalType": "uint256",
          "name": "_investmentId",
          "type": "uint256"
        },
        {
          "internalType": "uint256",
          "name": "_value",
          "type": "uint256"
        },
        {
          "internalType": "address",
          "name": "_from",
          "type": "address"
        }
      ],
      "name": "rejectExit",
      "outputs": [],
      "payable": false,
      "stateMutability": "nonpayable",
      "type": "function"
    },
    {
      "constant": false,
      "inputs": [],
      "name": "renounceOwnership",
      "outputs": [],
      "payable": false,
      "stateMutability": "nonpayable",
      "type": "function"
    },
    {
      "constant": false,
      "inputs": [],
      "name": "renouncePauser",
      "outputs": [],
      "payable": false,
      "stateMutability": "nonpayable",
      "type": "function"
    },
    {
      "constant": false,
      "inputs": [
        {
          "internalType": "address",
          "name": "_traderAddress",
          "type": "address"
        },
        {
          "internalType": "address",
          "name": "_investorAddress",
          "type": "address"
        },
        {
          "internalType": "uint256",
          "name": "_investmentId",
          "type": "uint256"
        },
        {
          "internalType": "uint256",
          "name": "_value",
          "type": "uint256"
        }
      ],
      "name": "requestExitInvestor",
      "outputs": [],
      "payable": false,
      "stateMutability": "nonpayable",
      "type": "function"
    },
    {
      "constant": false,
      "inputs": [
        {
          "internalType": "address",
          "name": "_traderAddress",
          "type": "address"
        },
        {
          "internalType": "address",
          "name": "_investorAddress",
          "type": "address"
        },
        {
          "internalType": "uint256",
          "name": "_investmentId",
          "type": "uint256"
        },
        {
          "internalType": "uint256",
          "name": "_value",
          "type": "uint256"
        },
        {
          "internalType": "uint256",
          "name": "_amount",
          "type": "uint256"
        }
      ],
      "name": "requestExitTrader",
      "outputs": [],
      "payable": false,
      "stateMutability": "nonpayable",
      "type": "function"
    },
    {
      "constant": false,
      "inputs": [
        {
          "internalType": "address",
          "name": "_factory",
          "type": "address"
        }
      ],
      "name": "setMultiSigFundWalletFactory",
      "outputs": [],
      "payable": false,
      "stateMutability": "nonpayable",
      "type": "function"
    },
    {
      "constant": false,
      "inputs": [
        {
          "internalType": "address",
          "name": "_pairedInvestments",
          "type": "address"
        }
      ],
      "name": "setPairedInvestments",
      "outputs": [],
      "payable": false,
      "stateMutability": "nonpayable",
      "type": "function"
    },
    {
      "constant": false,
      "inputs": [
        {
          "internalType": "uint16",
          "name": "_investorCollateralProfitPercent",
          "type": "uint16"
        },
        {
          "internalType": "uint16",
          "name": "_investorDirectProfitPercent",
          "type": "uint16"
        }
      ],
      "name": "setProfitPercentages",
      "outputs": [],
      "payable": false,
      "stateMutability": "nonpayable",
      "type": "function"
    },
    {
      "constant": false,
      "inputs": [
        {
          "internalType": "address",
          "name": "_token",
          "type": "address"
        },
        {
          "internalType": "bool",
          "name": "_valid",
          "type": "bool"
        }
      ],
      "name": "setToken",
      "outputs": [],
      "payable": false,
      "stateMutability": "nonpayable",
      "type": "function"
    },
    {
      "constant": false,
      "inputs": [
        {
          "internalType": "address",
          "name": "_traderAddress",
          "type": "address"
        },
        {
          "internalType": "address",
          "name": "_investorAddress",
          "type": "address"
        },
        {
          "internalType": "address",
          "name": "_from",
          "type": "address"
        },
        {
          "internalType": "uint256",
          "name": "_investmentId",
          "type": "uint256"
        }
      ],
      "name": "stop",
      "outputs": [],
      "payable": false,
      "stateMutability": "nonpayable",
      "type": "function"
    },
    {
      "constant": true,
      "inputs": [
        {
          "internalType": "address",
          "name": "",
          "type": "address"
        }
      ],
      "name": "tokens",
      "outputs": [
        {
          "internalType": "bool",
          "name": "",
          "type": "bool"
        }
      ],
      "payable": false,
      "stateMutability": "view",
      "type": "function"
    },
    {
      "constant": true,
      "inputs": [
        {
          "internalType": "uint256",
          "name": "",
          "type": "uint256"
        }
      ],
      "name": "traderAddresses",
      "outputs": [
        {
          "internalType": "address",
          "name": "",
          "type": "address"
        }
      ],
      "payable": false,
      "stateMutability": "view",
      "type": "function"
    },
    {
      "constant": true,
      "inputs": [],
      "name": "traderCount",
      "outputs": [
        {
          "internalType": "uint256",
          "name": "",
          "type": "uint256"
        }
      ],
      "payable": false,
      "stateMutability": "view",
      "type": "function"
    },
    {
      "constant": true,
      "inputs": [
        {
          "internalType": "address",
          "name": "",
          "type": "address"
        },
        {
          "internalType": "uint256",
          "name": "",
          "type": "uint256"
        }
      ],
      "name": "traderInvestments",
      "outputs": [
        {
          "internalType": "uint256",
          "name": "",
          "type": "uint256"
        }
      ],
      "payable": false,
      "stateMutability": "view",
      "type": "function"
    },
    {
      "constant": true,
      "inputs": [
        {
          "internalType": "address",
          "name": "",
          "type": "address"
        }
      ],
      "name": "traders",
      "outputs": [
        {
          "internalType": "address",
          "name": "user",
          "type": "address"
        },
        {
          "internalType": "uint256",
          "name": "investmentCount",
          "type": "uint256"
        },
        {
          "internalType": "uint16",
          "name": "investorCollateralProfitPercent",
          "type": "uint16"
        },
        {
          "internalType": "uint16",
          "name": "investorDirectProfitPercent",
          "type": "uint16"
        }
      ],
      "payable": false,
      "stateMutability": "view",
      "type": "function"
    },
    {
      "constant": false,
      "inputs": [
        {
          "internalType": "address",
          "name": "newOwner",
          "type": "address"
        }
      ],
      "name": "transferOwnership",
      "outputs": [],
      "payable": false,
      "stateMutability": "nonpayable",
      "type": "function"
    },
    {
      "constant": false,
      "inputs": [],
      "name": "unpause",
      "outputs": [],
      "payable": false,
      "stateMutability": "nonpayable",
      "type": "function"
    }
  ],
  "bytecode": "0x6080604052612bdf806100136000396000f3fe608060405234801561001057600080fd5b50600436106102325760003560e01c806382dc1ec411610130578063c4d66de8116100b8578063e48603391161007c578063e4860339146106b6578063eef90b62146106dc578063f2fde38b14610708578063f5ec9f7e1461072e578063fb171a52146107b057610232565b8063c4d66de814610602578063c9076b5b14610628578063d37a15d01461064e578063d7e64c0014610674578063e0086a461461067c57610232565b80638f32d59b116100ff5780638f32d59b1461054f57806392a88fa21461055757806395a25efa146105b1578063b3cb642f146105ce578063b78b52df146105d657610232565b806382dc1ec4146104d25780638456cb59146104f8578063853996e4146105005780638da5cb5b1461054757610232565b80635931add7116101be5780636e146998116101825780636e1469981461042b5780636ef8d66d146104335780636f7bc9be1461043b578063715018a61461048457806382727c461461048c57610232565b80635931add7146103995780635a77c18d146103d55780635c975abb1461041357806365e17c9d1461041b57806369dc67651461042357610232565b80633619fcd1116102055780633619fcd1146102df5780633816a292146102e75780633f4ba83a14610315578063468bdb231461031d57806346fbf68e1461035f57610232565b80630de3970e146102375780631752e5681461026257806317dcf29b1461029e5780632daf2f02146102d7575b600080fd5b6102606004803603604081101561024d57600080fd5b5061ffff813581169160200135166107b8565b005b6102606004803603608081101561027857600080fd5b506001600160a01b038135811691602081013590911690604081013590606001356108ae565b6102bb600480360360208110156102b457600080fd5b5035610ac4565b604080516001600160a01b039092168252519081900360200190f35b610260610adf565b610260610c49565b610260600480360360408110156102fd57600080fd5b506001600160a01b0381351690602001351515610dec565b610260610e5e565b610260600480360360a081101561033357600080fd5b506001600160a01b03813581169160208101359091169060408101359060608101359060800135610f47565b6103856004803603602081101561037557600080fd5b50356001600160a01b0316611166565b604080519115158252519081900360200190f35b610260600480360360808110156103af57600080fd5b506001600160a01b0381358116916020810135821691604082013516906060013561117f565b610401600480360360408110156103eb57600080fd5b506001600160a01b0381351690602001356113a4565b60408051918252519081900360200190f35b6103856113c1565b6102bb6113ca565b6104016113d9565b6102606113df565b61026061152a565b6104616004803603602081101561045157600080fd5b50356001600160a01b031661153c565b604080516001600160a01b03909316835260208301919091528051918290030190f35b610260611561565b610401600480360360a08110156104a257600080fd5b5080356001600160a01b03908116916020810135821691604082013516906060810135906080013560ff166115f2565b610260600480360360208110156104e857600080fd5b50356001600160a01b0316611982565b6102606119d4565b61052e6004803603604081101561051657600080fd5b506001600160a01b0381358116916020013516611a9b565b6040805192835260208301919091528051918290030190f35b6102bb611abf565b610385611ace565b61057d6004803603602081101561056d57600080fd5b50356001600160a01b0316611af4565b604080516001600160a01b039095168552602085019390935261ffff91821684840152166060830152519081900360800190f35b6102bb600480360360208110156105c757600080fd5b5035611b2d565b6102bb611b48565b610260600480360360408110156105ec57600080fd5b506001600160a01b038135169060200135611b57565b6102606004803603602081101561061857600080fd5b50356001600160a01b0316611ca0565b6102606004803603602081101561063e57600080fd5b50356001600160a01b0316611d70565b6102606004803603602081101561066457600080fd5b50356001600160a01b0316611dd9565b610401611e42565b6102606004803603608081101561069257600080fd5b506001600160a01b0381358116916020810135916040820135916060013516611e48565b610385600480360360208110156106cc57600080fd5b50356001600160a01b0316611fe6565b610401600480360360408110156106f257600080fd5b506001600160a01b038135169060200135611ffb565b6102606004803603602081101561071e57600080fd5b50356001600160a01b0316612018565b610778600480360360c081101561074457600080fd5b506001600160a01b038135811691602081013582169160408201358116916060810135916080820135169060a00135612068565b6040518082606080838360005b8381101561079d578181015183820152602001610785565b5050505090500191505060405180910390f35b6102bb612395565b60995460ff1615610803576040805162461bcd60e51b815260206004820152601060248201526f14185d5cd8589b194e881c185d5cd95960821b604482015290519081900360640190fd5b33801580159061082d57506001600160a01b03808216600081815260cd6020526040902054909116145b61083657600080fd5b33600081815260cd602090815260409182902060028101805461ffff191661ffff89811691821763ffff0000191662010000918a169182021790925584519081529283015282519093927f03daa5dd7f60f78b26b50bc356f21dd36eb72448c3397af6cd436bb20869b385928290030190a250505050565b60995460ff16156108f9576040805162461bcd60e51b815260206004820152601060248201526f14185d5cd8589b194e881c185d5cd95960821b604482015290519081900360640190fd5b60cf54604080516317a7998b60e11b815233600482015290516001600160a01b0390921691632f4f331691602480820192602092909190829003018186803b15801561094457600080fd5b505afa158015610958573d6000803e3d6000fd5b505050506040513d602081101561096e57600080fd5b505161097957600080fd5b610981612a49565b506001600160a01b03808516600081815260cd6020908152604091829020825160808101845281549095168086526001820154928601929092526002015461ffff808216938601939093526201000090049091166060840152146109e457600080fd5b60d054604080516302ea5cad60e31b81526001600160a01b0388811660048301528781166024830152604482018790526064820186905291519190921691631752e56891608480830192600092919082900301818387803b158015610a4857600080fd5b505af1158015610a5c573d6000803e3d6000fd5b5050604080518681523360208201526001600160a01b03808916828401819052606083018890524260808401529251929450891692507ff1fcf51588e9e75fe5e9591517dfd728e6b717db09b8764132b9077ed2de0579919081900360a00190a35050505050565b60d5602052600090815260409020546001600160a01b031681565b60995460ff1615610b2a576040805162461bcd60e51b815260206004820152601060248201526f14185d5cd8589b194e881c185d5cd95960821b604482015290519081900360640190fd5b338015801590610b5457506001600160a01b03808216600081815260ce6020526040902054909116145b610b5d57600080fd5b610b66336123a4565b15610b7057600080fd5b60cf5460cc5460408051639c041ebd60e01b81523060048201523360248201526001600160a01b03928316604482015290516000939290921691639c041ebd9160648082019260209290919082900301818787803b158015610bd157600080fd5b505af1158015610be5573d6000803e3d6000fd5b505050506040513d6020811015610bfb57600080fd5b5051604080516001600160a01b0383168152426020820152815192935033927f1db4dbd1a480026d914fad200d8cff01748461d96bcd8684a4e4496d8b46c6e7929181900390910190a25050565b60995460ff1615610c94576040805162461bcd60e51b815260206004820152601060248201526f14185d5cd8589b194e881c185d5cd95960821b604482015290519081900360640190fd5b33600090815260cd60205260409020546001600160a01b031615610cb757600080fd5b33600090815260ce60205260409020546001600160a01b031615610cda57600080fd5b6040805160808101825233808252600060208084018281526107d0858701908152611f406060870190815294845260cd90925294909120925183546001600160a01b0319166001600160a01b039091161783559251600180840191909155925160029092018054915161ffff1990921661ffff9384161763ffff0000191662010000939092169290920217905560d754610d7391612427565b60d7818155600091825260d5602090815260409283902080546001600160a01b03191633908117909155915483519081526107d091810191909152611f4081840152426060820152915190917f8d31938108e6f413a0a59fcd1a1305377d8f8ce856818a44f93156ec5d45cac4919081900360800190a2565b610df4611ace565b610e33576040805162461bcd60e51b81526020600482018190526024820152600080516020612b3b833981519152604482015290519081900360640190fd5b6001600160a01b0391909116600090815260d160205260409020805460ff1916911515919091179055565b610e6e610e69612488565b611166565b610ea95760405162461bcd60e51b8152600401808060200182810382526030815260200180612ac46030913960400191505060405180910390fd5b60995460ff16610ef7576040805162461bcd60e51b815260206004820152601460248201527314185d5cd8589b194e881b9bdd081c185d5cd95960621b604482015290519081900360640190fd5b6099805460ff191690557f5db9ee0a495bf2e6ff9c91a7834c1ba4fdd244a5e8aa4e537bd38aeae4b073aa610f2a612488565b604080516001600160a01b039092168252519081900360200190a1565b60995460ff1615610f92576040805162461bcd60e51b815260206004820152601060248201526f14185d5cd8589b194e881c185d5cd95960821b604482015290519081900360640190fd5b60cf54604080516317a7998b60e11b815233600482015290516001600160a01b0390921691632f4f331691602480820192602092909190829003018186803b158015610fdd57600080fd5b505afa158015610ff1573d6000803e3d6000fd5b505050506040513d602081101561100757600080fd5b505161101257600080fd5b61101a612a49565b506001600160a01b03808616600081815260cd6020908152604091829020825160808101845281549095168086526001820154928601929092526002015461ffff8082169386019390935262010000900490911660608401521461107d57600080fd5b60d0546040805163468bdb2360e01b81526001600160a01b03898116600483015288811660248301526044820188905260648201879052608482018690529151919092169163468bdb239160a480830192600092919082900301818387803b1580156110e857600080fd5b505af11580156110fc573d6000803e3d6000fd5b5050604080518781523360208201526001600160a01b038a8116828401819052606083018990524260808401529251908a1694509192507ff1fcf51588e9e75fe5e9591517dfd728e6b717db09b8764132b9077ed2de0579919081900360a00190a3505050505050565b600061117960668363ffffffff61248c16565b92915050565b60995460ff16156111ca576040805162461bcd60e51b815260206004820152601060248201526f14185d5cd8589b194e881c185d5cd95960821b604482015290519081900360640190fd5b60cf54604080516317a7998b60e11b815233600482015290516001600160a01b0390921691632f4f331691602480820192602092909190829003018186803b15801561121557600080fd5b505afa158015611229573d6000803e3d6000fd5b505050506040513d602081101561123f57600080fd5b505161124a57600080fd5b611252612a49565b506001600160a01b03808516600081815260cd6020908152604091829020825160808101845281549095168086526001820154928601929092526002015461ffff808216938601939093526201000090049091166060840152146112b557600080fd5b60d05460408051634bcead1360e11b81526001600160a01b0388811660048301528781166024830152604482018690529151600093929092169163979d5a269160648082019260209290919082900301818787803b15801561131657600080fd5b505af115801561132a573d6000803e3d6000fd5b505050506040513d602081101561134057600080fd5b5051604080518581523360208201526001600160a01b038781168284015260608201849052915192935081881692918916917f9d7a2a0f1dacbb478b794b94e683c644b7f952bb6d4eb2726f22b74e2d7860449181900360800190a3505050505050565b60d260209081526000928352604080842090915290825290205481565b60995460ff1690565b60cc546001600160a01b031681565b60d75481565b60995460ff161561142a576040805162461bcd60e51b815260206004820152601060248201526f14185d5cd8589b194e881c185d5cd95960821b604482015290519081900360640190fd5b33600090815260cd60205260409020546001600160a01b03161561144d57600080fd5b33600090815260ce60205260409020546001600160a01b03161561147057600080fd5b604080518082018252338082526000602080840182815292825260ce905292909220905181546001600160a01b0319166001600160a01b03909116178155905160019182015560d8546114c291612427565b60d8818155600091825260d6602090815260409283902080546001600160a01b03191633908117909155915483519081524291810191909152825191927fdf8479bd21cd06e0ed866ae36a215b279e87d6a0eb65733fda0ce53775700e0492918290030190a2565b61153a611535612488565b6124f3565b565b60ce60205260009081526040902080546001909101546001600160a01b039091169082565b611569611ace565b6115a8576040805162461bcd60e51b81526020600482018190526024820152600080516020612b3b833981519152604482015290519081900360640190fd5b6033546040516000916001600160a01b0316907f8be0079c531659141344cd1fd0a4f28419497f9722a3daafe3b4186f6b6457e0908390a3603380546001600160a01b0319169055565b60995460009060ff1615611640576040805162461bcd60e51b815260206004820152601060248201526f14185d5cd8589b194e881c185d5cd95960821b604482015290519081900360640190fd5b60cf54604080516317a7998b60e11b815233600482015290516001600160a01b0390921691632f4f331691602480820192602092909190829003018186803b15801561168b57600080fd5b505afa15801561169f573d6000803e3d6000fd5b505050506040513d60208110156116b557600080fd5b50516116c057600080fd5b6001600160a01b038416600090815260d1602052604090205460ff166116e557600080fd5b6001600160a01b03808616600081815260ce6020526040902080549092161461170d57600080fd5b6001600160a01b03808816600081815260cd6020526040902080549092161461173557600080fd5b80546001600160a01b03908116600090815260d460209081526040808320938a1683529290522060ff851661179357600181015481540386111561177857600080fd5b600181015461178d908763ffffffff61242716565b60018201555b600282015461ffff1660ff8616600114156117b95750600282015462010000900461ffff165b60d05460408051630e1ed15b60e01b81526001600160a01b038d811660048301528c811660248301528b81166044830152606482018b905261ffff8516608483015260ff8a1660a483015282516000949190911692630e1ed15b9260c4808201939182900301818787803b15801561183057600080fd5b505af1158015611844573d6000803e3d6000fd5b505050506040513d604081101561185a57600080fd5b50805160209091015160018681015492985090925061187f919063ffffffff61242716565b600180860182905585546001600160a01b0316600090815260d26020908152604080832094835293905291909120879055858101546118c39163ffffffff61242716565b600180870182905586546001600160a01b03908116600090815260d360209081526040808320958352948152908490208a905591860154865484518b815233948101949094528d831684860152606084018d905261ffff8716608085015260ff8c1660a085015260c084019190915260e0830152610100820184905291518c8316928e16917f59e5e72e0bbe29b00020724711df6dff86e5ecb93c9e482c1515a3fabd4ec47c91908190036101200190a3505050505095945050505050565b61198d610e69612488565b6119c85760405162461bcd60e51b8152600401808060200182810382526030815260200180612ac46030913960400191505060405180910390fd5b6119d18161253b565b50565b6119df610e69612488565b611a1a5760405162461bcd60e51b8152600401808060200182810382526030815260200180612ac46030913960400191505060405180910390fd5b60995460ff1615611a65576040805162461bcd60e51b815260206004820152601060248201526f14185d5cd8589b194e881c185d5cd95960821b604482015290519081900360640190fd5b6099805460ff191660011790557f62e78cea01bee320cd4e420270b5ea74000d11b0c9f74754ebdbfc544b05a258610f2a612488565b60d46020908152600092835260408084209091529082529020805460019091015482565b6033546001600160a01b031690565b6033546000906001600160a01b0316611ae5612488565b6001600160a01b031614905090565b60cd602052600090815260409020805460018201546002909201546001600160a01b03909116919061ffff808216916201000090041684565b60d6602052600090815260409020546001600160a01b031681565b60cf546001600160a01b031681565b60995460ff1615611ba2576040805162461bcd60e51b815260206004820152601060248201526f14185d5cd8589b194e881c185d5cd95960821b604482015290519081900360640190fd5b6001600160a01b038216600090815260d1602052604090205460ff16611bc757600080fd5b611bcf612a49565b5033600081815260cd6020908152604091829020825160808101845281546001600160a01b031680825260018301549382019390935260029091015461ffff808216948301949094526201000090049092166060830152909114611c3257600080fd5b33600081815260d4602090815260408083206001600160a01b03881680855290835292819020868155600101548151878152928301524282820152519192917f776bbaa896d9abe5db2f98efa8cbb7b341d887ba96ec823714a54aae19dc241f9181900360600190a3505050565b600054610100900460ff1680611cb95750611cb9612583565b80611cc7575060005460ff16155b611d025760405162461bcd60e51b815260040180806020018281038252602e815260200180612b7d602e913960400191505060405180910390fd5b600054610100900460ff16158015611d2d576000805460ff1961ff0019909116610100171660011790555b611d3633612589565b611d3f3361267a565b60cc80546001600160a01b0319166001600160a01b0384161790558015611d6c576000805461ff00191690555b5050565b611d78611ace565b611db7576040805162461bcd60e51b81526020600482018190526024820152600080516020612b3b833981519152604482015290519081900360640190fd5b60cf80546001600160a01b0319166001600160a01b0392909216919091179055565b611de1611ace565b611e20576040805162461bcd60e51b81526020600482018190526024820152600080516020612b3b833981519152604482015290519081900360640190fd5b60d080546001600160a01b0319166001600160a01b0392909216919091179055565b60d85481565b60995460ff1615611e93576040805162461bcd60e51b815260206004820152601060248201526f14185d5cd8589b194e881c185d5cd95960821b604482015290519081900360640190fd5b60cf54604080516317a7998b60e11b815233600482015290516001600160a01b0390921691632f4f331691602480820192602092909190829003018186803b158015611ede57600080fd5b505afa158015611ef2573d6000803e3d6000fd5b505050506040513d6020811015611f0857600080fd5b5051611f1357600080fd5b60d05460408051633ba6a8c160e21b81526001600160a01b03878116600483015260248201879052604482018690529151919092169163ee9aa30491606480830192600092919082900301818387803b158015611f6f57600080fd5b505af1158015611f83573d6000803e3d6000fd5b5050604080518681523360208201528082018690526001600160a01b038581166060830152426080830152915191881693507f8af3a505675e5d3f693e0c9269cd4ab544c27b3778e9aab336f49d41840b6479925081900360a00190a250505050565b60d16020526000908152604090205460ff1681565b60d360209081526000928352604080842090915290825290205481565b612020611ace565b61205f576040805162461bcd60e51b81526020600482018190526024820152600080516020612b3b833981519152604482015290519081900360640190fd5b6119d18161272f565b612070612a70565b60995460ff16156120bb576040805162461bcd60e51b815260206004820152601060248201526f14185d5cd8589b194e881c185d5cd95960821b604482015290519081900360640190fd5b60cf54604080516317a7998b60e11b815233600482015290516001600160a01b0390921691632f4f331691602480820192602092909190829003018186803b15801561210657600080fd5b505afa15801561211a573d6000803e3d6000fd5b505050506040513d602081101561213057600080fd5b505161213b57600080fd5b612143612a49565b506001600160a01b03808816600090815260cd60209081526040918290208251608081018452815490941684526001810154918401919091526002015461ffff808216928401929092526201000090041660608201526121a1612a8e565b506001600160a01b03878116600090815260ce602090815260409182902082518084019093528054841683526001015490820152825190918a81169116146121e857600080fd5b876001600160a01b031681600001516001600160a01b03161461220a57600080fd5b612212612aa5565b60d0546040805163034574cf60e61b81526001600160a01b038d811660048301528c811660248301528b81166044830152606482018b9052608482018990529151919092169163d15d33c09160a48083019260a09291908290030181600087803b15801561227f57600080fd5b505af1158015612293573d6000803e3d6000fd5b505050506040513d601f19601f8201168201806040525060a08110156122b857600080fd5b506001600160a01b038b8116600090815260d460209081526040808320938b1683529290522060808201519192509061230457606082015160018201546122fe916127d0565b60018201555b8151855260208083015181870152604080840151818801526001830154835482518c815233948101949094526001600160a01b038d811685850152606085019290925260808401524260a084015290518c821692918e16917f07a504f175a853ccfb030cb8fbbf7530231a5a173b56d2d73e63edefb5f71677919081900360c00190a3505050509695505050505050565b60d0546001600160a01b031681565b60cf54604080516317a7998b60e11b81526001600160a01b03848116600483015291516000939290921691632f4f331691602480820192602092909190829003018186803b1580156123f557600080fd5b505afa158015612409573d6000803e3d6000fd5b505050506040513d602081101561241f57600080fd5b505192915050565b600082820183811015612481576040805162461bcd60e51b815260206004820152601b60248201527f536166654d6174683a206164646974696f6e206f766572666c6f770000000000604482015290519081900360640190fd5b9392505050565b3390565b60006001600160a01b0382166124d35760405162461bcd60e51b8152600401808060200182810382526022815260200180612b5b6022913960400191505060405180910390fd5b506001600160a01b03166000908152602091909152604090205460ff1690565b61250460668263ffffffff61281216565b6040516001600160a01b038216907fcd265ebaf09df2871cc7bd4133404a235ba12eff2041bb89d9c714a2621c7c7e90600090a250565b61254c60668263ffffffff61287916565b6040516001600160a01b038216907f6719d08c1888103bea251a4ed56406bd0c3e69723c8a1686e017e7bbe159b6f890600090a250565b303b1590565b600054610100900460ff16806125a257506125a2612583565b806125b0575060005460ff16155b6125eb5760405162461bcd60e51b815260040180806020018281038252602e815260200180612b7d602e913960400191505060405180910390fd5b600054610100900460ff16158015612616576000805460ff1961ff0019909116610100171660011790555b603380546001600160a01b0319166001600160a01b0384811691909117918290556040519116906000907f8be0079c531659141344cd1fd0a4f28419497f9722a3daafe3b4186f6b6457e0908290a38015611d6c576000805461ff00191690555050565b600054610100900460ff16806126935750612693612583565b806126a1575060005460ff16155b6126dc5760405162461bcd60e51b815260040180806020018281038252602e815260200180612b7d602e913960400191505060405180910390fd5b600054610100900460ff16158015612707576000805460ff1961ff0019909116610100171660011790555b612710826128fa565b6099805460ff191690558015611d6c576000805461ff00191690555050565b6001600160a01b0381166127745760405162461bcd60e51b8152600401808060200182810382526026815260200180612af46026913960400191505060405180910390fd5b6033546040516001600160a01b038084169216907f8be0079c531659141344cd1fd0a4f28419497f9722a3daafe3b4186f6b6457e090600090a3603380546001600160a01b0319166001600160a01b0392909216919091179055565b600061248183836040518060400160405280601e81526020017f536166654d6174683a207375627472616374696f6e206f766572666c6f7700008152506129b2565b61281c828261248c565b6128575760405162461bcd60e51b8152600401808060200182810382526021815260200180612b1a6021913960400191505060405180910390fd5b6001600160a01b0316600090815260209190915260409020805460ff19169055565b612883828261248c565b156128d5576040805162461bcd60e51b815260206004820152601f60248201527f526f6c65733a206163636f756e7420616c72656164792068617320726f6c6500604482015290519081900360640190fd5b6001600160a01b0316600090815260209190915260409020805460ff19166001179055565b600054610100900460ff16806129135750612913612583565b80612921575060005460ff16155b61295c5760405162461bcd60e51b815260040180806020018281038252602e815260200180612b7d602e913960400191505060405180910390fd5b600054610100900460ff16158015612987576000805460ff1961ff0019909116610100171660011790555b61299082611166565b61299d5761299d8261253b565b8015611d6c576000805461ff00191690555050565b60008184841115612a415760405162461bcd60e51b81526004018080602001828103825283818151815260200191508051906020019080838360005b83811015612a065781810151838201526020016129ee565b50505050905090810190601f168015612a335780820380516001836020036101000a031916815260200191505b509250505060405180910390fd5b505050900390565b60408051608081018252600080825260208201819052918101829052606081019190915290565b60405180606001604052806003906020820280388339509192915050565b604080518082019091526000808252602082015290565b6040518060a00160405280600590602082028038833950919291505056fe506175736572526f6c653a2063616c6c657220646f6573206e6f742068617665207468652050617573657220726f6c654f776e61626c653a206e6577206f776e657220697320746865207a65726f2061646472657373526f6c65733a206163636f756e7420646f6573206e6f74206861766520726f6c654f776e61626c653a2063616c6c6572206973206e6f7420746865206f776e6572526f6c65733a206163636f756e7420697320746865207a65726f2061646472657373436f6e747261637420696e7374616e63652068617320616c7265616479206265656e20696e697469616c697a6564a265627a7a72315820c3480e6d41e0eaa6e0ea8b13c73f739fc13e4d1d1e3736cf94ea4d3acb72062364736f6c63430005110032",
  "compiler": {
    "name": "solc",
    "version": "0.5.17+commit.d19bba13.Emscripten.clang",
    "optimizer": {
      "enabled": true,
      "runs": 200
    },
    "evmVersion": "petersburg"
  }
}