{
  "fileName": "TraderPaired.sol",
  "contractName": "TraderPaired",
  "source": "// \"SPDX-License-Identifier: UNLICENSED\"\npragma solidity >=0.4.21 <0.7.0;\n\nimport \"@openzeppelin/contracts-ethereum-package/contracts/math/SafeMath.sol\";\nimport \"@openzeppelin/upgrades/contracts/Initializable.sol\";\nimport \"@openzeppelin/contracts-ethereum-package/contracts/ownership/Ownable.sol\";\nimport \"@openzeppelin/contracts-ethereum-package/contracts/lifecycle/Pausable.sol\";\nimport \"@openzeppelin/contracts-ethereum-package/contracts/token/ERC20/IERC20.sol\";\n\nimport \"./PairedInvestments.sol\";\nimport \"./MultiSigFundWalletFactory.sol\";\nimport \"./MultiSigFundWallet.sol\";\n\ncontract TraderPaired is Initializable, Ownable, Pausable {\n\tusing SafeMath for uint256;\n\n    /*\n     *  Constants\n     */\n    address constant ETHER = address(0); // allows storage of ether in blank address in token mapping\n    address public feeAccount; // account that will receive fees\n\n    /*\n     *  Storage\n     */\n    mapping(address => _Trader) public traders;\n    mapping(address => _Investor) public investors;\n\n    address public multiSigFundWalletFactory;\n    address public pairedInvestments;\n\n    mapping(address => bool) public tokens;\n\n    mapping(address => mapping(uint256 => uint256)) public traderInvestments;\n    mapping(address => mapping(uint256 => uint256)) public investorInvestments;\n    mapping(address => mapping(address => _Allocation)) public allocations;\n\n    mapping(uint256 => address) public traderAddresses;\n    mapping(uint256 => address) public investorAddresses;\n\n    uint256 public traderCount;\n    uint256 public investorCount;\n\n    /*\n     *  Events\n     */\n    event Trader(address indexed user, uint256 traderId, uint256 date);\n    event Investor(address indexed user, uint256 investorId, uint256 date);\n    event Investment(address indexed wallet, address indexed investor, uint256 date);\n    event Allocate(address indexed trader, address indexed token, uint256 total, uint256 invested, uint256 date);\n    event Invest(uint256 id, address indexed wallet, address indexed trader, address indexed investor, address token, uint256 amount, uint256 allocationInvested, uint256 allocationTotal, uint256 date);\n    event Stop(uint256 id, address indexed wallet, address indexed trader, address indexed investor, address from, uint256 date);\n    event RequestExit(uint256 id, address indexed wallet, address indexed trader, address indexed investor, address from, uint256 value, uint256 date);\n    event ApproveExit(uint256 id, address indexed wallet, address indexed trader, address indexed investor, uint256 allocationInvested, uint256 allocationTotal, uint256 date);\n    event RejectExit(uint256 id, address indexed wallet, address indexed trader, uint256 value, address from, uint256 date);\n\n    /*\n     *  Structs\n     */\n    struct _Trader {\n        address user;\n        uint256 investmentCount;\n    }\n\n    struct _Allocation {\n        uint256 total;\n        uint256 invested;\n    }\n\n    struct _Investor {\n        address user;\n        uint256 investmentCount;\n    }\n\n    /*\n     *  Modifiers\n     */\n    modifier isTrader(address trader) {\n        require(trader != address(0) && traders[trader].user == trader);\n        _;\n    }\n\n    modifier isInvestor(address investor) {\n        require(investor != address(0) && investors[investor].user == investor);\n        _;\n    }\n\n    modifier notInvested(address trader, address investor) {\n        require(!isInvested(trader, investor));\n        _;\n    }\n\n    modifier onlyWallet {\n        require(MultiSigFundWalletFactory(multiSigFundWalletFactory).isInstantiation(msg.sender));\n        _;\n    }\n\n    /// @dev Initialize\n    /// @param _feeAccount fee account\n    function initialize(address _feeAccount) \n        public \n        initializer \n    {\n        Ownable.initialize(msg.sender);\n        Pausable.initialize(msg.sender);\n        feeAccount = _feeAccount;\n    }\n\n    /// @dev set MultiSigFundWalletFactory\n    /// @param _factory contract address\n    function setMultiSigFundWalletFactory(address _factory) \n        public \n        onlyOwner \n    {\n        multiSigFundWalletFactory = _factory;\n    }\n\n    /// @dev set PairedInvestments\n    /// @param _pairedInvestments contract address\n    function setPairedInvestments(address _pairedInvestments) \n        public \n        onlyOwner \n    {\n        pairedInvestments = _pairedInvestments;\n    }\n\n    /// @dev reverts if ether is sent directly\n    function () external {\n        revert();\n    }\n\n    /// @dev activate/deactivate token\n    /// @param _token token address\n    /// @param _valid active or not\n    function setToken(address _token, bool _valid) \n        external \n        onlyOwner \n    {\n        tokens[_token] = _valid;\n    }\n\n    /// @dev Join as trader\n    function joinAsTrader() \n        external \n        whenNotPaused \n    {\n        require(traders[msg.sender].user == address(0));\n        require(investors[msg.sender].user == address(0));\n\n        traders[msg.sender] = _Trader({\n            user: msg.sender, \n            investmentCount: 0\n        });\n\n        traderCount = traderCount.add(1);\n        traderAddresses[traderCount] = msg.sender;\n\n        emit Trader(msg.sender, traderCount, now);\n    }\n\n    /// @dev Join as investor\n    function joinAsInvestor() \n        external \n        whenNotPaused \n    {\n        require(traders[msg.sender].user == address(0));\n        require(investors[msg.sender].user == address(0));\n\n        investors[msg.sender] = _Investor({\n            user: msg.sender,\n            investmentCount: 0\n        });\n\n        investorCount = investorCount.add(1);\n        investorAddresses[investorCount] = msg.sender;\n\n        emit Investor(msg.sender, investorCount, now);\n    }\n\n    /// @dev Allocate amount of tokens\n    /// @param _token token address\n    /// @param _amount amount to allocate\n    function allocate(address _token, uint256 _amount) \n        external \n        whenNotPaused \n    {\n        require(tokens[_token]);\n        _Trader memory _trader = traders[msg.sender];\n        require(_trader.user == msg.sender);\n\n        allocations[msg.sender][_token].total = _amount;\n\n        emit Allocate(msg.sender, _token, _amount, allocations[msg.sender][_token].invested, now);\n    }\n\n    /// @dev Checks if investor is invested with trader\n    /// @param _traderAddress trader address\n    /// @param _investorAddress investor address\n    /// @return invested\n    function isInvested(address _traderAddress, address _investorAddress) \n        internal\n        view\n        returns (bool) \n    {\n        address[] memory wallets = MultiSigFundWalletFactory(multiSigFundWalletFactory).getInstantiations(_investorAddress);\n        \n        for(uint256 i = 0; i < wallets.length; i++) {\n            if (MultiSigFundWallet(wallets[i]).traders(_traderAddress)) {\n                return true;\n            }\n        }\n\n        return false;\n    }\n\n    /// @dev Checks if investor has a wallet\n    /// @param _investorAddress investor address\n    /// @return has wallet\n    function hasWallet(address _investorAddress) \n        internal\n        view\n        returns (bool) \n    {\n        return MultiSigFundWalletFactory(multiSigFundWalletFactory).isInstantiation(_investorAddress);\n    }\n\n    /// @dev Create new investment wallet\n    function createInvestment() \n        external\n        whenNotPaused\n        isInvestor(msg.sender)\n    {\n        require(!hasWallet(msg.sender));\n        address wallet = MultiSigFundWalletFactory(multiSigFundWalletFactory).create(address(this), msg.sender, feeAccount);\n        emit Investment(wallet, msg.sender, now);\n    }\n\n    /// @dev Invest\n    /// @param _traderAddress trader address\n    /// @param _investorAddress investor address\n    /// @param _token token address\n    /// @param _amount amount to invest\n    /// @return investment id\n    function invest(address _traderAddress, address _investorAddress, address _token, uint256 _amount) \n        public \n        whenNotPaused \n        onlyWallet \n        returns (uint256 investmentCount)\n    {\n        require(tokens[_token]);\n        _Investor storage _investor = investors[_investorAddress];\n        require(_investor.user == _investorAddress);\n\n        _Trader storage _trader = traders[_traderAddress];\n        require(_trader.user == _traderAddress);\n\n        _Allocation storage allocation = allocations[_trader.user][_token];\n\n        // falls within trader allocations\n        require(allocation.total - allocation.invested >= _amount);\n        allocation.invested = allocation.invested.add(_amount);\n\n        uint256 starttime;\n        (investmentCount, starttime) = PairedInvestments(pairedInvestments).invest(\n            _traderAddress, \n            _investorAddress, \n            _token, \n            _amount\n        );\n\n        _trader.investmentCount = _trader.investmentCount.add(1);\n        traderInvestments[_trader.user][_trader.investmentCount] = investmentCount;\n\n        _investor.investmentCount = _investor.investmentCount.add(1);\n        investorInvestments[_investor.user][_investor.investmentCount] = investmentCount;\n\n        emit Invest(\n            investmentCount,\n            msg.sender,\n            _traderAddress,\n            _investorAddress,\n            _token,\n            _amount,\n            allocation.invested,\n            allocation.total,\n            starttime\n        );\n    }\n\n    /// @dev Trader/Investor stops an investment\n    /// @param _traderAddress trader address\n    /// @param _investorAddress investor address\n    /// @param _from initiator address\n    /// @param _investmentId investment id\n    function stop(address _traderAddress, address _investorAddress, address _from, uint256 _investmentId) \n        public \n        whenNotPaused \n        onlyWallet \n    {\n        _Trader memory _trader = traders[_traderAddress];\n        require(_trader.user == _traderAddress);\n\n        uint256 stoptime = PairedInvestments(pairedInvestments).stop(\n            _traderAddress, \n            _investorAddress, \n            _investmentId);\n\n        emit Stop(\n            _investmentId,\n            msg.sender,\n            _traderAddress,\n            _investorAddress,\n            _from,\n            stoptime\n        );\n    }\n\n    /// @dev Investor requests to exit an investment\n    /// @param _traderAddress trader address\n    /// @param _investorAddress investor address\n    /// @param _investmentId investment id\n    /// @param _value investment value\n    function requestExitInvestor(address _traderAddress, address _investorAddress, uint256 _investmentId, uint256 _value) \n        public \n        whenNotPaused \n        onlyWallet \n    {\n        _Trader memory _trader = traders[_traderAddress];\n        require(_trader.user == _traderAddress);\n\n        PairedInvestments(pairedInvestments).requestExitInvestor(\n            _traderAddress, \n            _investorAddress, \n            _investmentId, \n            _value);\n\n        emit RequestExit(\n            _investmentId,\n            msg.sender,\n            _traderAddress,\n            _investorAddress,\n            _investorAddress,\n            _value,\n            now\n        );\n    }\n    \n    /// @dev Trader requests to exit an investment\n    /// @param _traderAddress trader address\n    /// @param _investorAddress investor address\n    /// @param _investmentId investment id\n    /// @param _value investment value\n    /// @param _amount transaction amount\n    function requestExitTrader(address _traderAddress, address _investorAddress, uint256 _investmentId, uint256 _value, uint256 _amount) \n        public \n        whenNotPaused \n        onlyWallet \n    {\n        _Trader memory _trader = traders[_traderAddress];\n        require(_trader.user == _traderAddress);\n\n        PairedInvestments(pairedInvestments).requestExitTrader(\n            _traderAddress, \n            _investorAddress, \n            _investmentId, \n            _value,\n            _amount);\n\n        emit RequestExit(\n            _investmentId,\n            msg.sender,\n            _traderAddress,\n            _investorAddress,\n            _traderAddress,\n            _value,\n            now\n        );\n    }\n\n    /// @dev Approve exit of investment\n    /// @param _traderAddress trader address\n    /// @param _investorAddress investor address\n    /// @param _investmentId investment id\n    /// @param _token token address\n    /// @param _amount transaction amount\n    function approveExit(address _traderAddress, address _investorAddress, uint256 _investmentId, address _token, uint256 _amount) \n        public \n        whenNotPaused\n        onlyWallet\n        returns (uint256[3] memory payouts)\n    {\n        _Trader memory _trader = traders[_traderAddress];\n        _Investor memory _investor = investors[_investorAddress];\n        require(_trader.user == _traderAddress);\n        require(_investor.user == _investorAddress);\n\n        uint256[4] memory _result = PairedInvestments(pairedInvestments).approveExit(\n            _traderAddress,\n            _investorAddress, \n            _investmentId, \n            _amount);\n\n        _Allocation storage allocation = allocations[_traderAddress][_token];\n\n        allocation.invested = allocation.invested.sub(_result[3]);\n        \n        payouts[0] = _result[0];\n        payouts[1] = _result[1];\n        payouts[2] = _result[2];\n\n        emit ApproveExit(\n            _investmentId,\n            msg.sender,\n            _traderAddress,\n            _investorAddress,\n            allocation.invested,\n            allocation.total,\n            now\n        );\n    }\n\n    /// @dev Reject exit of investment\n    /// @param _traderAddress trader address\n    /// @param _investmentId investment id\n    /// @param _value proposed investment value\n    /// @param _from initiator address\n    function rejectExit(address _traderAddress, uint256 _investmentId, uint256 _value, address _from)\n        public \n        whenNotPaused\n        onlyWallet\n    {\n        PairedInvestments(pairedInvestments).rejectExit(\n            _traderAddress,\n            _investmentId,\n            _value\n        );\n\n        emit RejectExit(\n            _investmentId,\n            msg.sender,\n            _traderAddress,\n            _value,\n            _from,\n            now\n        );\n    }\n\n\n}\n",
  "sourcePath": "contracts/TraderPaired.sol",
  "abi": [
    {
      "anonymous": false,
      "inputs": [
        {
          "indexed": true,
          "internalType": "address",
          "name": "trader",
          "type": "address"
        },
        {
          "indexed": true,
          "internalType": "address",
          "name": "token",
          "type": "address"
        },
        {
          "indexed": false,
          "internalType": "uint256",
          "name": "total",
          "type": "uint256"
        },
        {
          "indexed": false,
          "internalType": "uint256",
          "name": "invested",
          "type": "uint256"
        },
        {
          "indexed": false,
          "internalType": "uint256",
          "name": "date",
          "type": "uint256"
        }
      ],
      "name": "Allocate",
      "type": "event"
    },
    {
      "anonymous": false,
      "inputs": [
        {
          "indexed": false,
          "internalType": "uint256",
          "name": "id",
          "type": "uint256"
        },
        {
          "indexed": true,
          "internalType": "address",
          "name": "wallet",
          "type": "address"
        },
        {
          "indexed": true,
          "internalType": "address",
          "name": "trader",
          "type": "address"
        },
        {
          "indexed": true,
          "internalType": "address",
          "name": "investor",
          "type": "address"
        },
        {
          "indexed": false,
          "internalType": "uint256",
          "name": "allocationInvested",
          "type": "uint256"
        },
        {
          "indexed": false,
          "internalType": "uint256",
          "name": "allocationTotal",
          "type": "uint256"
        },
        {
          "indexed": false,
          "internalType": "uint256",
          "name": "date",
          "type": "uint256"
        }
      ],
      "name": "ApproveExit",
      "type": "event"
    },
    {
      "anonymous": false,
      "inputs": [
        {
          "indexed": false,
          "internalType": "uint256",
          "name": "id",
          "type": "uint256"
        },
        {
          "indexed": true,
          "internalType": "address",
          "name": "wallet",
          "type": "address"
        },
        {
          "indexed": true,
          "internalType": "address",
          "name": "trader",
          "type": "address"
        },
        {
          "indexed": true,
          "internalType": "address",
          "name": "investor",
          "type": "address"
        },
        {
          "indexed": false,
          "internalType": "address",
          "name": "token",
          "type": "address"
        },
        {
          "indexed": false,
          "internalType": "uint256",
          "name": "amount",
          "type": "uint256"
        },
        {
          "indexed": false,
          "internalType": "uint256",
          "name": "allocationInvested",
          "type": "uint256"
        },
        {
          "indexed": false,
          "internalType": "uint256",
          "name": "allocationTotal",
          "type": "uint256"
        },
        {
          "indexed": false,
          "internalType": "uint256",
          "name": "date",
          "type": "uint256"
        }
      ],
      "name": "Invest",
      "type": "event"
    },
    {
      "anonymous": false,
      "inputs": [
        {
          "indexed": true,
          "internalType": "address",
          "name": "wallet",
          "type": "address"
        },
        {
          "indexed": true,
          "internalType": "address",
          "name": "investor",
          "type": "address"
        },
        {
          "indexed": false,
          "internalType": "uint256",
          "name": "date",
          "type": "uint256"
        }
      ],
      "name": "Investment",
      "type": "event"
    },
    {
      "anonymous": false,
      "inputs": [
        {
          "indexed": true,
          "internalType": "address",
          "name": "user",
          "type": "address"
        },
        {
          "indexed": false,
          "internalType": "uint256",
          "name": "investorId",
          "type": "uint256"
        },
        {
          "indexed": false,
          "internalType": "uint256",
          "name": "date",
          "type": "uint256"
        }
      ],
      "name": "Investor",
      "type": "event"
    },
    {
      "anonymous": false,
      "inputs": [
        {
          "indexed": true,
          "internalType": "address",
          "name": "previousOwner",
          "type": "address"
        },
        {
          "indexed": true,
          "internalType": "address",
          "name": "newOwner",
          "type": "address"
        }
      ],
      "name": "OwnershipTransferred",
      "type": "event"
    },
    {
      "anonymous": false,
      "inputs": [
        {
          "indexed": false,
          "internalType": "address",
          "name": "account",
          "type": "address"
        }
      ],
      "name": "Paused",
      "type": "event"
    },
    {
      "anonymous": false,
      "inputs": [
        {
          "indexed": true,
          "internalType": "address",
          "name": "account",
          "type": "address"
        }
      ],
      "name": "PauserAdded",
      "type": "event"
    },
    {
      "anonymous": false,
      "inputs": [
        {
          "indexed": true,
          "internalType": "address",
          "name": "account",
          "type": "address"
        }
      ],
      "name": "PauserRemoved",
      "type": "event"
    },
    {
      "anonymous": false,
      "inputs": [
        {
          "indexed": false,
          "internalType": "uint256",
          "name": "id",
          "type": "uint256"
        },
        {
          "indexed": true,
          "internalType": "address",
          "name": "wallet",
          "type": "address"
        },
        {
          "indexed": true,
          "internalType": "address",
          "name": "trader",
          "type": "address"
        },
        {
          "indexed": false,
          "internalType": "uint256",
          "name": "value",
          "type": "uint256"
        },
        {
          "indexed": false,
          "internalType": "address",
          "name": "from",
          "type": "address"
        },
        {
          "indexed": false,
          "internalType": "uint256",
          "name": "date",
          "type": "uint256"
        }
      ],
      "name": "RejectExit",
      "type": "event"
    },
    {
      "anonymous": false,
      "inputs": [
        {
          "indexed": false,
          "internalType": "uint256",
          "name": "id",
          "type": "uint256"
        },
        {
          "indexed": true,
          "internalType": "address",
          "name": "wallet",
          "type": "address"
        },
        {
          "indexed": true,
          "internalType": "address",
          "name": "trader",
          "type": "address"
        },
        {
          "indexed": true,
          "internalType": "address",
          "name": "investor",
          "type": "address"
        },
        {
          "indexed": false,
          "internalType": "address",
          "name": "from",
          "type": "address"
        },
        {
          "indexed": false,
          "internalType": "uint256",
          "name": "value",
          "type": "uint256"
        },
        {
          "indexed": false,
          "internalType": "uint256",
          "name": "date",
          "type": "uint256"
        }
      ],
      "name": "RequestExit",
      "type": "event"
    },
    {
      "anonymous": false,
      "inputs": [
        {
          "indexed": false,
          "internalType": "uint256",
          "name": "id",
          "type": "uint256"
        },
        {
          "indexed": true,
          "internalType": "address",
          "name": "wallet",
          "type": "address"
        },
        {
          "indexed": true,
          "internalType": "address",
          "name": "trader",
          "type": "address"
        },
        {
          "indexed": true,
          "internalType": "address",
          "name": "investor",
          "type": "address"
        },
        {
          "indexed": false,
          "internalType": "address",
          "name": "from",
          "type": "address"
        },
        {
          "indexed": false,
          "internalType": "uint256",
          "name": "date",
          "type": "uint256"
        }
      ],
      "name": "Stop",
      "type": "event"
    },
    {
      "anonymous": false,
      "inputs": [
        {
          "indexed": true,
          "internalType": "address",
          "name": "user",
          "type": "address"
        },
        {
          "indexed": false,
          "internalType": "uint256",
          "name": "traderId",
          "type": "uint256"
        },
        {
          "indexed": false,
          "internalType": "uint256",
          "name": "date",
          "type": "uint256"
        }
      ],
      "name": "Trader",
      "type": "event"
    },
    {
      "anonymous": false,
      "inputs": [
        {
          "indexed": false,
          "internalType": "address",
          "name": "account",
          "type": "address"
        }
      ],
      "name": "Unpaused",
      "type": "event"
    },
    {
      "payable": false,
      "stateMutability": "nonpayable",
      "type": "fallback"
    },
    {
      "constant": false,
      "inputs": [
        {
          "internalType": "address",
          "name": "account",
          "type": "address"
        }
      ],
      "name": "addPauser",
      "outputs": [],
      "payable": false,
      "stateMutability": "nonpayable",
      "type": "function"
    },
    {
      "constant": false,
      "inputs": [
        {
          "internalType": "address",
          "name": "_token",
          "type": "address"
        },
        {
          "internalType": "uint256",
          "name": "_amount",
          "type": "uint256"
        }
      ],
      "name": "allocate",
      "outputs": [],
      "payable": false,
      "stateMutability": "nonpayable",
      "type": "function"
    },
    {
      "constant": true,
      "inputs": [
        {
          "internalType": "address",
          "name": "",
          "type": "address"
        },
        {
          "internalType": "address",
          "name": "",
          "type": "address"
        }
      ],
      "name": "allocations",
      "outputs": [
        {
          "internalType": "uint256",
          "name": "total",
          "type": "uint256"
        },
        {
          "internalType": "uint256",
          "name": "invested",
          "type": "uint256"
        }
      ],
      "payable": false,
      "stateMutability": "view",
      "type": "function"
    },
    {
      "constant": false,
      "inputs": [
        {
          "internalType": "address",
          "name": "_traderAddress",
          "type": "address"
        },
        {
          "internalType": "address",
          "name": "_investorAddress",
          "type": "address"
        },
        {
          "internalType": "uint256",
          "name": "_investmentId",
          "type": "uint256"
        },
        {
          "internalType": "address",
          "name": "_token",
          "type": "address"
        },
        {
          "internalType": "uint256",
          "name": "_amount",
          "type": "uint256"
        }
      ],
      "name": "approveExit",
      "outputs": [
        {
          "internalType": "uint256[3]",
          "name": "payouts",
          "type": "uint256[3]"
        }
      ],
      "payable": false,
      "stateMutability": "nonpayable",
      "type": "function"
    },
    {
      "constant": false,
      "inputs": [],
      "name": "createInvestment",
      "outputs": [],
      "payable": false,
      "stateMutability": "nonpayable",
      "type": "function"
    },
    {
      "constant": true,
      "inputs": [],
      "name": "feeAccount",
      "outputs": [
        {
          "internalType": "address",
          "name": "",
          "type": "address"
        }
      ],
      "payable": false,
      "stateMutability": "view",
      "type": "function"
    },
    {
      "constant": false,
      "inputs": [
        {
          "internalType": "address",
          "name": "_feeAccount",
          "type": "address"
        }
      ],
      "name": "initialize",
      "outputs": [],
      "payable": false,
      "stateMutability": "nonpayable",
      "type": "function"
    },
    {
      "constant": false,
      "inputs": [
        {
          "internalType": "address",
          "name": "_traderAddress",
          "type": "address"
        },
        {
          "internalType": "address",
          "name": "_investorAddress",
          "type": "address"
        },
        {
          "internalType": "address",
          "name": "_token",
          "type": "address"
        },
        {
          "internalType": "uint256",
          "name": "_amount",
          "type": "uint256"
        }
      ],
      "name": "invest",
      "outputs": [
        {
          "internalType": "uint256",
          "name": "investmentCount",
          "type": "uint256"
        }
      ],
      "payable": false,
      "stateMutability": "nonpayable",
      "type": "function"
    },
    {
      "constant": true,
      "inputs": [
        {
          "internalType": "uint256",
          "name": "",
          "type": "uint256"
        }
      ],
      "name": "investorAddresses",
      "outputs": [
        {
          "internalType": "address",
          "name": "",
          "type": "address"
        }
      ],
      "payable": false,
      "stateMutability": "view",
      "type": "function"
    },
    {
      "constant": true,
      "inputs": [],
      "name": "investorCount",
      "outputs": [
        {
          "internalType": "uint256",
          "name": "",
          "type": "uint256"
        }
      ],
      "payable": false,
      "stateMutability": "view",
      "type": "function"
    },
    {
      "constant": true,
      "inputs": [
        {
          "internalType": "address",
          "name": "",
          "type": "address"
        },
        {
          "internalType": "uint256",
          "name": "",
          "type": "uint256"
        }
      ],
      "name": "investorInvestments",
      "outputs": [
        {
          "internalType": "uint256",
          "name": "",
          "type": "uint256"
        }
      ],
      "payable": false,
      "stateMutability": "view",
      "type": "function"
    },
    {
      "constant": true,
      "inputs": [
        {
          "internalType": "address",
          "name": "",
          "type": "address"
        }
      ],
      "name": "investors",
      "outputs": [
        {
          "internalType": "address",
          "name": "user",
          "type": "address"
        },
        {
          "internalType": "uint256",
          "name": "investmentCount",
          "type": "uint256"
        }
      ],
      "payable": false,
      "stateMutability": "view",
      "type": "function"
    },
    {
      "constant": true,
      "inputs": [],
      "name": "isOwner",
      "outputs": [
        {
          "internalType": "bool",
          "name": "",
          "type": "bool"
        }
      ],
      "payable": false,
      "stateMutability": "view",
      "type": "function"
    },
    {
      "constant": true,
      "inputs": [
        {
          "internalType": "address",
          "name": "account",
          "type": "address"
        }
      ],
      "name": "isPauser",
      "outputs": [
        {
          "internalType": "bool",
          "name": "",
          "type": "bool"
        }
      ],
      "payable": false,
      "stateMutability": "view",
      "type": "function"
    },
    {
      "constant": false,
      "inputs": [],
      "name": "joinAsInvestor",
      "outputs": [],
      "payable": false,
      "stateMutability": "nonpayable",
      "type": "function"
    },
    {
      "constant": false,
      "inputs": [],
      "name": "joinAsTrader",
      "outputs": [],
      "payable": false,
      "stateMutability": "nonpayable",
      "type": "function"
    },
    {
      "constant": true,
      "inputs": [],
      "name": "multiSigFundWalletFactory",
      "outputs": [
        {
          "internalType": "address",
          "name": "",
          "type": "address"
        }
      ],
      "payable": false,
      "stateMutability": "view",
      "type": "function"
    },
    {
      "constant": true,
      "inputs": [],
      "name": "owner",
      "outputs": [
        {
          "internalType": "address",
          "name": "",
          "type": "address"
        }
      ],
      "payable": false,
      "stateMutability": "view",
      "type": "function"
    },
    {
      "constant": true,
      "inputs": [],
      "name": "pairedInvestments",
      "outputs": [
        {
          "internalType": "address",
          "name": "",
          "type": "address"
        }
      ],
      "payable": false,
      "stateMutability": "view",
      "type": "function"
    },
    {
      "constant": false,
      "inputs": [],
      "name": "pause",
      "outputs": [],
      "payable": false,
      "stateMutability": "nonpayable",
      "type": "function"
    },
    {
      "constant": true,
      "inputs": [],
      "name": "paused",
      "outputs": [
        {
          "internalType": "bool",
          "name": "",
          "type": "bool"
        }
      ],
      "payable": false,
      "stateMutability": "view",
      "type": "function"
    },
    {
      "constant": false,
      "inputs": [
        {
          "internalType": "address",
          "name": "_traderAddress",
          "type": "address"
        },
        {
          "internalType": "uint256",
          "name": "_investmentId",
          "type": "uint256"
        },
        {
          "internalType": "uint256",
          "name": "_value",
          "type": "uint256"
        },
        {
          "internalType": "address",
          "name": "_from",
          "type": "address"
        }
      ],
      "name": "rejectExit",
      "outputs": [],
      "payable": false,
      "stateMutability": "nonpayable",
      "type": "function"
    },
    {
      "constant": false,
      "inputs": [],
      "name": "renounceOwnership",
      "outputs": [],
      "payable": false,
      "stateMutability": "nonpayable",
      "type": "function"
    },
    {
      "constant": false,
      "inputs": [],
      "name": "renouncePauser",
      "outputs": [],
      "payable": false,
      "stateMutability": "nonpayable",
      "type": "function"
    },
    {
      "constant": false,
      "inputs": [
        {
          "internalType": "address",
          "name": "_traderAddress",
          "type": "address"
        },
        {
          "internalType": "address",
          "name": "_investorAddress",
          "type": "address"
        },
        {
          "internalType": "uint256",
          "name": "_investmentId",
          "type": "uint256"
        },
        {
          "internalType": "uint256",
          "name": "_value",
          "type": "uint256"
        }
      ],
      "name": "requestExitInvestor",
      "outputs": [],
      "payable": false,
      "stateMutability": "nonpayable",
      "type": "function"
    },
    {
      "constant": false,
      "inputs": [
        {
          "internalType": "address",
          "name": "_traderAddress",
          "type": "address"
        },
        {
          "internalType": "address",
          "name": "_investorAddress",
          "type": "address"
        },
        {
          "internalType": "uint256",
          "name": "_investmentId",
          "type": "uint256"
        },
        {
          "internalType": "uint256",
          "name": "_value",
          "type": "uint256"
        },
        {
          "internalType": "uint256",
          "name": "_amount",
          "type": "uint256"
        }
      ],
      "name": "requestExitTrader",
      "outputs": [],
      "payable": false,
      "stateMutability": "nonpayable",
      "type": "function"
    },
    {
      "constant": false,
      "inputs": [
        {
          "internalType": "address",
          "name": "_factory",
          "type": "address"
        }
      ],
      "name": "setMultiSigFundWalletFactory",
      "outputs": [],
      "payable": false,
      "stateMutability": "nonpayable",
      "type": "function"
    },
    {
      "constant": false,
      "inputs": [
        {
          "internalType": "address",
          "name": "_pairedInvestments",
          "type": "address"
        }
      ],
      "name": "setPairedInvestments",
      "outputs": [],
      "payable": false,
      "stateMutability": "nonpayable",
      "type": "function"
    },
    {
      "constant": false,
      "inputs": [
        {
          "internalType": "address",
          "name": "_token",
          "type": "address"
        },
        {
          "internalType": "bool",
          "name": "_valid",
          "type": "bool"
        }
      ],
      "name": "setToken",
      "outputs": [],
      "payable": false,
      "stateMutability": "nonpayable",
      "type": "function"
    },
    {
      "constant": false,
      "inputs": [
        {
          "internalType": "address",
          "name": "_traderAddress",
          "type": "address"
        },
        {
          "internalType": "address",
          "name": "_investorAddress",
          "type": "address"
        },
        {
          "internalType": "address",
          "name": "_from",
          "type": "address"
        },
        {
          "internalType": "uint256",
          "name": "_investmentId",
          "type": "uint256"
        }
      ],
      "name": "stop",
      "outputs": [],
      "payable": false,
      "stateMutability": "nonpayable",
      "type": "function"
    },
    {
      "constant": true,
      "inputs": [
        {
          "internalType": "address",
          "name": "",
          "type": "address"
        }
      ],
      "name": "tokens",
      "outputs": [
        {
          "internalType": "bool",
          "name": "",
          "type": "bool"
        }
      ],
      "payable": false,
      "stateMutability": "view",
      "type": "function"
    },
    {
      "constant": true,
      "inputs": [
        {
          "internalType": "uint256",
          "name": "",
          "type": "uint256"
        }
      ],
      "name": "traderAddresses",
      "outputs": [
        {
          "internalType": "address",
          "name": "",
          "type": "address"
        }
      ],
      "payable": false,
      "stateMutability": "view",
      "type": "function"
    },
    {
      "constant": true,
      "inputs": [],
      "name": "traderCount",
      "outputs": [
        {
          "internalType": "uint256",
          "name": "",
          "type": "uint256"
        }
      ],
      "payable": false,
      "stateMutability": "view",
      "type": "function"
    },
    {
      "constant": true,
      "inputs": [
        {
          "internalType": "address",
          "name": "",
          "type": "address"
        },
        {
          "internalType": "uint256",
          "name": "",
          "type": "uint256"
        }
      ],
      "name": "traderInvestments",
      "outputs": [
        {
          "internalType": "uint256",
          "name": "",
          "type": "uint256"
        }
      ],
      "payable": false,
      "stateMutability": "view",
      "type": "function"
    },
    {
      "constant": true,
      "inputs": [
        {
          "internalType": "address",
          "name": "",
          "type": "address"
        }
      ],
      "name": "traders",
      "outputs": [
        {
          "internalType": "address",
          "name": "user",
          "type": "address"
        },
        {
          "internalType": "uint256",
          "name": "investmentCount",
          "type": "uint256"
        }
      ],
      "payable": false,
      "stateMutability": "view",
      "type": "function"
    },
    {
      "constant": false,
      "inputs": [
        {
          "internalType": "address",
          "name": "newOwner",
          "type": "address"
        }
      ],
      "name": "transferOwnership",
      "outputs": [],
      "payable": false,
      "stateMutability": "nonpayable",
      "type": "function"
    },
    {
      "constant": false,
      "inputs": [],
      "name": "unpause",
      "outputs": [],
      "payable": false,
      "stateMutability": "nonpayable",
      "type": "function"
    }
  ],
  "bytecode": "0x60806040526128b6806100136000396000f3fe608060405234801561001057600080fd5b50600436106102275760003560e01c806382dc1ec411610130578063b78b52df116100b8578063e0086a461161007c578063e0086a4614610686578063e4860339146106c0578063eef90b62146106e6578063f2fde38b14610712578063fb171a521461073857610227565b8063b78b52df146105e0578063c4d66de81461060c578063c9076b5b14610632578063d37a15d014610658578063d7e64c001461067e57610227565b80638f32d59b116100ff5780638f32d59b1461051157806392a88fa21461051957806395a25efa1461053f578063a57a71b71461055c578063b3cb642f146105d857610227565b806382dc1ec4146104945780638456cb59146104ba578063853996e4146104c25780638da5cb5b1461050957610227565b80635931add7116101b357806369dc67651161018257806369dc67651461042b5780636e146998146104335780636ef8d66d1461043b5780636f7bc9be14610443578063715018a61461048c57610227565b80635931add7146103b35780635a77c18d146103ef5780635c975abb1461041b57806365e17c9d1461042357610227565b80633619fcd1116101fa5780633619fcd1146102f95780633816a292146103015780633f4ba83a1461032f578063468bdb231461033757806346fbf68e1461037957610227565b80631752e5681461022c57806317dcf29b1461026a5780631896de52146102a35780632daf2f02146102f1575b600080fd5b6102686004803603608081101561024257600080fd5b506001600160a01b03813581169160208101359091169060408101359060600135610740565b005b6102876004803603602081101561028057600080fd5b5035610931565b604080516001600160a01b039092168252519081900360200190f35b6102df600480360360808110156102b957600080fd5b506001600160a01b0381358116916020810135821691604082013516906060013561094c565b60408051918252519081900360200190f35b610268610c7e565b610268610de4565b6102686004803603604081101561031757600080fd5b506001600160a01b0381351690602001351515610f2f565b610268610fa1565b610268600480360360a081101561034d57600080fd5b506001600160a01b0381358116916020810135909116906040810135906060810135906080013561108a565b61039f6004803603602081101561038f57600080fd5b50356001600160a01b0316611284565b604080519115158252519081900360200190f35b610268600480360360808110156103c957600080fd5b506001600160a01b0381358116916020810135821691604082013516906060013561129d565b6102df6004803603604081101561040557600080fd5b506001600160a01b03813516906020013561149f565b61039f6114bc565b6102876114c5565b6102df6114d4565b6102686114da565b610268611625565b6104696004803603602081101561045957600080fd5b50356001600160a01b0316611637565b604080516001600160a01b03909316835260208301919091528051918290030190f35b61026861165c565b610268600480360360208110156104aa57600080fd5b50356001600160a01b03166116ed565b61026861173f565b6104f0600480360360408110156104d857600080fd5b506001600160a01b0381358116916020013516611806565b6040805192835260208301919091528051918290030190f35b61028761182a565b61039f611839565b6104696004803603602081101561052f57600080fd5b50356001600160a01b031661185f565b6102876004803603602081101561055557600080fd5b5035611884565b6105a0600480360360a081101561057257600080fd5b506001600160a01b03813581169160208101358216916040820135916060810135909116906080013561189f565b6040518082606080838360005b838110156105c55781810151838201526020016105ad565b5050505090500191505060405180910390f35b610287611b96565b610268600480360360408110156105f657600080fd5b506001600160a01b038135169060200135611ba5565b6102686004803603602081101561062257600080fd5b50356001600160a01b0316611cce565b6102686004803603602081101561064857600080fd5b50356001600160a01b0316611d9e565b6102686004803603602081101561066e57600080fd5b50356001600160a01b0316611e07565b6102df611e70565b6102686004803603608081101561069c57600080fd5b506001600160a01b0381358116916020810135916040820135916060013516611e76565b61039f600480360360208110156106d657600080fd5b50356001600160a01b0316612011565b6102df600480360360408110156106fc57600080fd5b506001600160a01b038135169060200135612026565b6102686004803603602081101561072857600080fd5b50356001600160a01b0316612043565b610287612093565b60995460ff161561078b576040805162461bcd60e51b815260206004820152601060248201526f14185d5cd8589b194e881c185d5cd95960821b604482015290519081900360640190fd5b60cf54604080516317a7998b60e11b815233600482015290516001600160a01b0390921691632f4f331691602480820192602092909190829003018186803b1580156107d657600080fd5b505afa1580156107ea573d6000803e3d6000fd5b505050506040513d602081101561080057600080fd5b505161080b57600080fd5b610813612747565b506001600160a01b03808516600081815260cd60209081526040918290208251808401909352805490941680835260019094015490820152911461085657600080fd5b60d054604080516302ea5cad60e31b81526001600160a01b0388811660048301528781166024830152604482018790526064820186905291519190921691631752e56891608480830192600092919082900301818387803b1580156108ba57600080fd5b505af11580156108ce573d6000803e3d6000fd5b5050604080518681526001600160a01b038089166020830181905282840188905242606084015292519294508916925033917ff1fcf51588e9e75fe5e9591517dfd728e6b717db09b8764132b9077ed2de05799181900360800190a45050505050565b60d5602052600090815260409020546001600160a01b031681565b60995460009060ff161561099a576040805162461bcd60e51b815260206004820152601060248201526f14185d5cd8589b194e881c185d5cd95960821b604482015290519081900360640190fd5b60cf54604080516317a7998b60e11b815233600482015290516001600160a01b0390921691632f4f331691602480820192602092909190829003018186803b1580156109e557600080fd5b505afa1580156109f9573d6000803e3d6000fd5b505050506040513d6020811015610a0f57600080fd5b5051610a1a57600080fd5b6001600160a01b038316600090815260d1602052604090205460ff16610a3f57600080fd5b6001600160a01b03808516600081815260ce60205260409020805490921614610a6757600080fd5b6001600160a01b03808716600081815260cd60205260409020805490921614610a8f57600080fd5b80546001600160a01b03908116600090815260d4602090815260408083209389168352929052206001810154815403851115610aca57600080fd5b6001810154610adf908663ffffffff6120a216565b600182015560d05460408051630c4b6f2960e11b81526001600160a01b038b811660048301528a8116602483015289811660448301526064820189905282516000949190911692631896de52926084808201939182900301818787803b158015610b4857600080fd5b505af1158015610b5c573d6000803e3d6000fd5b505050506040513d6040811015610b7257600080fd5b508051602090910151600185810154929750909250610b97919063ffffffff6120a216565b600180850182905584546001600160a01b0316600090815260d2602090815260408083209483529390529190912086905584810154610bdb9163ffffffff6120a216565b600180860182905585546001600160a01b03908116600090815260d3602090815260408083209583529481529084902089905591850154855484518a81528c8416948101949094528385018b90526060840191909152608083015260a0820184905291518a8316928c169133917fb5686e6556d185c30eb1db7246cd7609b59a4bd0d90dda8b0860a499057422259181900360c00190a450505050949350505050565b60995460ff1615610cc9576040805162461bcd60e51b815260206004820152601060248201526f14185d5cd8589b194e881c185d5cd95960821b604482015290519081900360640190fd5b338015801590610cf357506001600160a01b03808216600081815260ce6020526040902054909116145b610cfc57600080fd5b610d0533612103565b15610d0f57600080fd5b60cf5460cc5460408051639c041ebd60e01b81523060048201523360248201526001600160a01b03928316604482015290516000939290921691639c041ebd9160648082019260209290919082900301818787803b158015610d7057600080fd5b505af1158015610d84573d6000803e3d6000fd5b505050506040513d6020811015610d9a57600080fd5b505160408051428152905191925033916001600160a01b038416917f1db4dbd1a480026d914fad200d8cff01748461d96bcd8684a4e4496d8b46c6e7919081900360200190a35050565b60995460ff1615610e2f576040805162461bcd60e51b815260206004820152601060248201526f14185d5cd8589b194e881c185d5cd95960821b604482015290519081900360640190fd5b33600090815260cd60205260409020546001600160a01b031615610e5257600080fd5b33600090815260ce60205260409020546001600160a01b031615610e7557600080fd5b604080518082018252338082526000602080840182815292825260cd905292909220905181546001600160a01b0319166001600160a01b03909116178155905160019182015560d754610ec7916120a2565b60d7818155600091825260d5602090815260409283902080546001600160a01b03191633908117909155915483519081524291810191909152825191927f2443e16faef9accaee1c7486a06f0da588a8f541204a9e4bca14555672cae00092918290030190a2565b610f37611839565b610f76576040805162461bcd60e51b81526020600482018190526024820152600080516020612812833981519152604482015290519081900360640190fd5b6001600160a01b0391909116600090815260d160205260409020805460ff1916911515919091179055565b610fb1610fac612186565b611284565b610fec5760405162461bcd60e51b815260040180806020018281038252603081526020018061279b6030913960400191505060405180910390fd5b60995460ff1661103a576040805162461bcd60e51b815260206004820152601460248201527314185d5cd8589b194e881b9bdd081c185d5cd95960621b604482015290519081900360640190fd5b6099805460ff191690557f5db9ee0a495bf2e6ff9c91a7834c1ba4fdd244a5e8aa4e537bd38aeae4b073aa61106d612186565b604080516001600160a01b039092168252519081900360200190a1565b60995460ff16156110d5576040805162461bcd60e51b815260206004820152601060248201526f14185d5cd8589b194e881c185d5cd95960821b604482015290519081900360640190fd5b60cf54604080516317a7998b60e11b815233600482015290516001600160a01b0390921691632f4f331691602480820192602092909190829003018186803b15801561112057600080fd5b505afa158015611134573d6000803e3d6000fd5b505050506040513d602081101561114a57600080fd5b505161115557600080fd5b61115d612747565b506001600160a01b03808616600081815260cd6020908152604091829020825180840190935280549094168083526001909401549082015291146111a057600080fd5b60d0546040805163468bdb2360e01b81526001600160a01b03898116600483015288811660248301526044820188905260648201879052608482018690529151919092169163468bdb239160a480830192600092919082900301818387803b15801561120b57600080fd5b505af115801561121f573d6000803e3d6000fd5b5050604080518781526001600160a01b038a8116602083018190528284018990524260608401529251908a16945091925033917ff1fcf51588e9e75fe5e9591517dfd728e6b717db09b8764132b9077ed2de05799181900360800190a4505050505050565b600061129760668363ffffffff61218a16565b92915050565b60995460ff16156112e8576040805162461bcd60e51b815260206004820152601060248201526f14185d5cd8589b194e881c185d5cd95960821b604482015290519081900360640190fd5b60cf54604080516317a7998b60e11b815233600482015290516001600160a01b0390921691632f4f331691602480820192602092909190829003018186803b15801561133357600080fd5b505afa158015611347573d6000803e3d6000fd5b505050506040513d602081101561135d57600080fd5b505161136857600080fd5b611370612747565b506001600160a01b03808516600081815260cd6020908152604091829020825180840190935280549094168083526001909401549082015291146113b357600080fd5b60d05460408051634bcead1360e11b81526001600160a01b0388811660048301528781166024830152604482018690529151600093929092169163979d5a269160648082019260209290919082900301818787803b15801561141457600080fd5b505af1158015611428573d6000803e3d6000fd5b505050506040513d602081101561143e57600080fd5b5051604080518581526001600160a01b0387811660208301528183018490529151929350818816929189169133917f9d7a2a0f1dacbb478b794b94e683c644b7f952bb6d4eb2726f22b74e2d786044919081900360600190a4505050505050565b60d260209081526000928352604080842090915290825290205481565b60995460ff1690565b60cc546001600160a01b031681565b60d75481565b60995460ff1615611525576040805162461bcd60e51b815260206004820152601060248201526f14185d5cd8589b194e881c185d5cd95960821b604482015290519081900360640190fd5b33600090815260cd60205260409020546001600160a01b03161561154857600080fd5b33600090815260ce60205260409020546001600160a01b03161561156b57600080fd5b604080518082018252338082526000602080840182815292825260ce905292909220905181546001600160a01b0319166001600160a01b03909116178155905160019182015560d8546115bd916120a2565b60d8818155600091825260d6602090815260409283902080546001600160a01b03191633908117909155915483519081524291810191909152825191927fdf8479bd21cd06e0ed866ae36a215b279e87d6a0eb65733fda0ce53775700e0492918290030190a2565b611635611630612186565b6121f1565b565b60ce60205260009081526040902080546001909101546001600160a01b039091169082565b611664611839565b6116a3576040805162461bcd60e51b81526020600482018190526024820152600080516020612812833981519152604482015290519081900360640190fd5b6033546040516000916001600160a01b0316907f8be0079c531659141344cd1fd0a4f28419497f9722a3daafe3b4186f6b6457e0908390a3603380546001600160a01b0319169055565b6116f8610fac612186565b6117335760405162461bcd60e51b815260040180806020018281038252603081526020018061279b6030913960400191505060405180910390fd5b61173c81612239565b50565b61174a610fac612186565b6117855760405162461bcd60e51b815260040180806020018281038252603081526020018061279b6030913960400191505060405180910390fd5b60995460ff16156117d0576040805162461bcd60e51b815260206004820152601060248201526f14185d5cd8589b194e881c185d5cd95960821b604482015290519081900360640190fd5b6099805460ff191660011790557f62e78cea01bee320cd4e420270b5ea74000d11b0c9f74754ebdbfc544b05a25861106d612186565b60d46020908152600092835260408084209091529082529020805460019091015482565b6033546001600160a01b031690565b6033546000906001600160a01b0316611850612186565b6001600160a01b031614905090565b60cd60205260009081526040902080546001909101546001600160a01b039091169082565b60d6602052600090815260409020546001600160a01b031681565b6118a761275e565b60995460ff16156118f2576040805162461bcd60e51b815260206004820152601060248201526f14185d5cd8589b194e881c185d5cd95960821b604482015290519081900360640190fd5b60cf54604080516317a7998b60e11b815233600482015290516001600160a01b0390921691632f4f331691602480820192602092909190829003018186803b15801561193d57600080fd5b505afa158015611951573d6000803e3d6000fd5b505050506040513d602081101561196757600080fd5b505161197257600080fd5b61197a612747565b506001600160a01b03808716600090815260cd6020908152604091829020825180840190935280549093168252600190920154918101919091526119bc612747565b506001600160a01b03868116600090815260ce60209081526040918290208251808401909352805484168352600101549082015282519091898116911614611a0357600080fd5b866001600160a01b031681600001516001600160a01b031614611a2557600080fd5b611a2d61277c565b60d05460408051633487283160e01b81526001600160a01b038c811660048301528b81166024830152604482018b9052606482018990529151919092169163348728319160848083019260809291908290030181600087803b158015611a9257600080fd5b505af1158015611aa6573d6000803e3d6000fd5b505050506040513d601f19601f820116820180604052506080811015611acb57600080fd5b506001600160a01b03808b16600090815260d460209081526040808320938b16835292905220909150611b10826003602002015160018301549063ffffffff61228116565b60018201819055825186526020808401518188015260408085015181890152835481518c8152928301939093528181019290925242606082015290516001600160a01b038b811692908d169133917f4180898819db8636488bd8088532fab4d77cbae964f136c223763571f8292dda919081900360800190a45050505095945050505050565b60cf546001600160a01b031681565b60995460ff1615611bf0576040805162461bcd60e51b815260206004820152601060248201526f14185d5cd8589b194e881c185d5cd95960821b604482015290519081900360640190fd5b6001600160a01b038216600090815260d1602052604090205460ff16611c1557600080fd5b611c1d612747565b5033600081815260cd6020908152604091829020825180840190935280546001600160a01b031680845260019091015491830191909152909114611c6057600080fd5b33600081815260d4602090815260408083206001600160a01b03881680855290835292819020868155600101548151878152928301524282820152519192917f776bbaa896d9abe5db2f98efa8cbb7b341d887ba96ec823714a54aae19dc241f9181900360600190a3505050565b600054610100900460ff1680611ce75750611ce76122c3565b80611cf5575060005460ff16155b611d305760405162461bcd60e51b815260040180806020018281038252602e815260200180612854602e913960400191505060405180910390fd5b600054610100900460ff16158015611d5b576000805460ff1961ff0019909116610100171660011790555b611d64336122c9565b611d6d336123ba565b60cc80546001600160a01b0319166001600160a01b0384161790558015611d9a576000805461ff00191690555b5050565b611da6611839565b611de5576040805162461bcd60e51b81526020600482018190526024820152600080516020612812833981519152604482015290519081900360640190fd5b60cf80546001600160a01b0319166001600160a01b0392909216919091179055565b611e0f611839565b611e4e576040805162461bcd60e51b81526020600482018190526024820152600080516020612812833981519152604482015290519081900360640190fd5b60d080546001600160a01b0319166001600160a01b0392909216919091179055565b60d85481565b60995460ff1615611ec1576040805162461bcd60e51b815260206004820152601060248201526f14185d5cd8589b194e881c185d5cd95960821b604482015290519081900360640190fd5b60cf54604080516317a7998b60e11b815233600482015290516001600160a01b0390921691632f4f331691602480820192602092909190829003018186803b158015611f0c57600080fd5b505afa158015611f20573d6000803e3d6000fd5b505050506040513d6020811015611f3657600080fd5b5051611f4157600080fd5b60d05460408051633ba6a8c160e21b81526001600160a01b03878116600483015260248201879052604482018690529151919092169163ee9aa30491606480830192600092919082900301818387803b158015611f9d57600080fd5b505af1158015611fb1573d6000803e3d6000fd5b505060408051868152602081018690526001600160a01b0385811682840152426060830152915191881693503392507f8af3a505675e5d3f693e0c9269cd4ab544c27b3778e9aab336f49d41840b6479919081900360800190a350505050565b60d16020526000908152604090205460ff1681565b60d360209081526000928352604080842090915290825290205481565b61204b611839565b61208a576040805162461bcd60e51b81526020600482018190526024820152600080516020612812833981519152604482015290519081900360640190fd5b61173c8161246f565b60d0546001600160a01b031681565b6000828201838110156120fc576040805162461bcd60e51b815260206004820152601b60248201527f536166654d6174683a206164646974696f6e206f766572666c6f770000000000604482015290519081900360640190fd5b9392505050565b60cf54604080516317a7998b60e11b81526001600160a01b03848116600483015291516000939290921691632f4f331691602480820192602092909190829003018186803b15801561215457600080fd5b505afa158015612168573d6000803e3d6000fd5b505050506040513d602081101561217e57600080fd5b505192915050565b3390565b60006001600160a01b0382166121d15760405162461bcd60e51b81526004018080602001828103825260228152602001806128326022913960400191505060405180910390fd5b506001600160a01b03166000908152602091909152604090205460ff1690565b61220260668263ffffffff61251016565b6040516001600160a01b038216907fcd265ebaf09df2871cc7bd4133404a235ba12eff2041bb89d9c714a2621c7c7e90600090a250565b61224a60668263ffffffff61257716565b6040516001600160a01b038216907f6719d08c1888103bea251a4ed56406bd0c3e69723c8a1686e017e7bbe159b6f890600090a250565b60006120fc83836040518060400160405280601e81526020017f536166654d6174683a207375627472616374696f6e206f766572666c6f7700008152506125f8565b303b1590565b600054610100900460ff16806122e257506122e26122c3565b806122f0575060005460ff16155b61232b5760405162461bcd60e51b815260040180806020018281038252602e815260200180612854602e913960400191505060405180910390fd5b600054610100900460ff16158015612356576000805460ff1961ff0019909116610100171660011790555b603380546001600160a01b0319166001600160a01b0384811691909117918290556040519116906000907f8be0079c531659141344cd1fd0a4f28419497f9722a3daafe3b4186f6b6457e0908290a38015611d9a576000805461ff00191690555050565b600054610100900460ff16806123d357506123d36122c3565b806123e1575060005460ff16155b61241c5760405162461bcd60e51b815260040180806020018281038252602e815260200180612854602e913960400191505060405180910390fd5b600054610100900460ff16158015612447576000805460ff1961ff0019909116610100171660011790555b6124508261268f565b6099805460ff191690558015611d9a576000805461ff00191690555050565b6001600160a01b0381166124b45760405162461bcd60e51b81526004018080602001828103825260268152602001806127cb6026913960400191505060405180910390fd5b6033546040516001600160a01b038084169216907f8be0079c531659141344cd1fd0a4f28419497f9722a3daafe3b4186f6b6457e090600090a3603380546001600160a01b0319166001600160a01b0392909216919091179055565b61251a828261218a565b6125555760405162461bcd60e51b81526004018080602001828103825260218152602001806127f16021913960400191505060405180910390fd5b6001600160a01b0316600090815260209190915260409020805460ff19169055565b612581828261218a565b156125d3576040805162461bcd60e51b815260206004820152601f60248201527f526f6c65733a206163636f756e7420616c72656164792068617320726f6c6500604482015290519081900360640190fd5b6001600160a01b0316600090815260209190915260409020805460ff19166001179055565b600081848411156126875760405162461bcd60e51b81526004018080602001828103825283818151815260200191508051906020019080838360005b8381101561264c578181015183820152602001612634565b50505050905090810190601f1680156126795780820380516001836020036101000a031916815260200191505b509250505060405180910390fd5b505050900390565b600054610100900460ff16806126a857506126a86122c3565b806126b6575060005460ff16155b6126f15760405162461bcd60e51b815260040180806020018281038252602e815260200180612854602e913960400191505060405180910390fd5b600054610100900460ff1615801561271c576000805460ff1961ff0019909116610100171660011790555b61272582611284565b6127325761273282612239565b8015611d9a576000805461ff00191690555050565b604080518082019091526000808252602082015290565b60405180606001604052806003906020820280388339509192915050565b6040518060800160405280600490602082028038833950919291505056fe506175736572526f6c653a2063616c6c657220646f6573206e6f742068617665207468652050617573657220726f6c654f776e61626c653a206e6577206f776e657220697320746865207a65726f2061646472657373526f6c65733a206163636f756e7420646f6573206e6f74206861766520726f6c654f776e61626c653a2063616c6c6572206973206e6f7420746865206f776e6572526f6c65733a206163636f756e7420697320746865207a65726f2061646472657373436f6e747261637420696e7374616e63652068617320616c7265616479206265656e20696e697469616c697a6564a265627a7a7231582015c6d372e92c236a2b030a95ba0162f7d75fed18c3d06526941a032957569a4e64736f6c63430005110032",
  "compiler": {
    "name": "solc",
    "version": "0.5.17+commit.d19bba13.Emscripten.clang",
    "optimizer": {
      "enabled": true,
      "runs": 200
    },
    "evmVersion": "petersburg"
  }
}