{
  "fileName": "TraderPaired.sol",
  "contractName": "TraderPaired",
  "source": "// \"SPDX-License-Identifier: UNLICENSED\"\npragma solidity >=0.4.21 <0.7.0;\n\nimport \"@openzeppelin/contracts-ethereum-package/contracts/math/SafeMath.sol\";\nimport \"@openzeppelin/upgrades/contracts/Initializable.sol\";\nimport \"@openzeppelin/contracts-ethereum-package/contracts/ownership/Ownable.sol\";\nimport \"@openzeppelin/contracts-ethereum-package/contracts/lifecycle/Pausable.sol\";\nimport \"@openzeppelin/contracts-ethereum-package/contracts/token/ERC20/IERC20.sol\";\n\nimport \"./ITraderPaired.sol\";\nimport \"./IPairedInvestments.sol\";\nimport \"./IFactory.sol\";\nimport \"./IMultiSigFundWalletFactory.sol\";\nimport \"./IMultiSigFundWallet.sol\";\n\ncontract TraderPaired is Initializable, Ownable, Pausable, ITraderPaired {\n\tusing SafeMath for uint256;\n\n    /*\n     *  Constants\n     */\n    address constant ETHER = address(0); // allows storage of ether in blank address in token mapping\n    uint16 constant DEFAULT_COLLATERAL_PERCENTAGE = 2000;\n    uint16 constant DEFAULT_DIRECT_PERCENTAGE = 8000;\n\n    /*\n     *  Storage\n     */\n    address public feeAccount; // account that will receive fees\n\n\n    mapping(address => _Trader) public traders;\n    mapping(address => _Investor) public investors;\n\n    address public multiSigFundWalletFactory;\n    address public pairedInvestments;\n\n    mapping(address => bool) public tokens;\n\n    mapping(address => mapping(uint256 => uint256)) public traderInvestments;\n    mapping(address => mapping(uint256 => uint256)) public investorInvestments;\n    mapping(address => mapping(address => _Allocation)) public allocations;\n\n    mapping(uint256 => address) public traderAddresses;\n    mapping(uint256 => address) public investorAddresses;\n\n    uint256 public traderCount;\n    uint256 public investorCount;\n\n    /*\n     *  Events\n     */\n    event Trader(address indexed user, uint256 traderId, uint256 date);\n    event Investor(address indexed user, uint256 investorId, uint256 date);\n    event ProfitPercentages(address indexed trader, uint16 investorCollateralProfitPercent, uint16 investorDirectProfitPercent);\n    event Investment(address indexed wallet, address indexed investor, uint256 date);\n    event Allocate(address indexed trader, address indexed token, uint256 total, uint256 invested, uint256 date);\n    event Invest(uint256 id, address indexed wallet, address indexed trader, address indexed investor, address token, uint256 amount, uint16 investorProfitPercent, uint8 investmentType, uint256 allocationInvested, uint256 allocationTotal, uint256 date);\n    event Stop(uint256 id, address indexed wallet, address indexed trader, address indexed investor, address from, uint256 date);\n    event RequestExit(uint256 id, address indexed wallet, address indexed trader, address indexed investor, address from, uint256 value, uint256 date);\n    event ApproveExit(uint256 id, address indexed wallet, address indexed trader, address indexed investor, uint256 allocationInvested, uint256 allocationTotal, uint256 date);\n    event RejectExit(uint256 id, address indexed wallet, address indexed trader, uint256 value, address from, uint256 date);\n\n    /*\n     *  Structs\n     */\n    struct _Trader {\n        address user;\n        uint256 investmentCount;\n        uint16 investorCollateralProfitPercent;\n        uint16 investorDirectProfitPercent;\n    }\n\n    struct _Allocation {\n        uint256 total;\n        uint256 invested;\n    }\n\n    struct _Investor {\n        address user;\n        uint256 investmentCount;\n    }\n\n    /*\n     *  Modifiers\n     */\n    modifier isTrader(address trader) {\n        require(trader != address(0) && traders[trader].user == trader);\n        _;\n    }\n\n    modifier isInvestor(address investor) {\n        require(investor != address(0) && investors[investor].user == investor);\n        _;\n    }\n\n    // modifier notInvested(address trader, address investor) {\n    //     require(!isInvested(trader, investor));\n    //     _;\n    // }\n\n    modifier onlyWallet {\n        require(IFactory(multiSigFundWalletFactory).isInstantiation(msg.sender));\n        _;\n    }\n\n    /// @dev Initialize\n    /// @param _feeAccount fee account\n    function initialize(address _feeAccount) \n        public \n        initializer \n    {\n        Ownable.initialize(msg.sender);\n        Pausable.initialize(msg.sender);\n        feeAccount = _feeAccount;\n    }\n\n    /// @dev set MultiSigFundWalletFactory\n    /// @param _factory contract address\n    function setMultiSigFundWalletFactory(address _factory) \n        public \n        onlyOwner \n    {\n        multiSigFundWalletFactory = _factory;\n    }\n\n    /// @dev set PairedInvestments\n    /// @param _pairedInvestments contract address\n    function setPairedInvestments(address _pairedInvestments) \n        public \n        onlyOwner \n    {\n        pairedInvestments = _pairedInvestments;\n    }\n\n    /// @dev reverts if ether is sent directly\n    function () external {\n        revert();\n    }\n\n    /// @dev activate/deactivate token\n    /// @param _token token address\n    /// @param _valid active or not\n    function setToken(address _token, bool _valid) \n        external \n        onlyOwner \n    {\n        tokens[_token] = _valid;\n    }\n\n    /// @dev Join as trader\n    function joinAsTrader() \n        external \n        whenNotPaused \n    {\n        require(traders[msg.sender].user == address(0));\n        require(investors[msg.sender].user == address(0));\n\n        traders[msg.sender] = _Trader({\n            user: msg.sender, \n            investmentCount: 0,\n            investorCollateralProfitPercent: DEFAULT_COLLATERAL_PERCENTAGE,\n            investorDirectProfitPercent: DEFAULT_DIRECT_PERCENTAGE\n        });\n\n        traderCount = traderCount.add(1);\n        traderAddresses[traderCount] = msg.sender;\n\n        emit Trader(msg.sender, traderCount, now);\n    }\n\n    /// @dev Join as investor\n    function joinAsInvestor() \n        external \n        whenNotPaused \n    {\n        require(traders[msg.sender].user == address(0));\n        require(investors[msg.sender].user == address(0));\n\n        investors[msg.sender] = _Investor({\n            user: msg.sender,\n            investmentCount: 0\n        });\n\n        investorCount = investorCount.add(1);\n        investorAddresses[investorCount] = msg.sender;\n\n        emit Investor(msg.sender, investorCount, now);\n    }\n\n    /// @dev Allocate amount of tokens\n    /// @param _token token address\n    /// @param _amount amount to allocate\n    function allocate(address _token, uint256 _amount) \n        external \n        whenNotPaused \n    {\n        require(tokens[_token]);\n        _Trader memory _trader = traders[msg.sender];\n        require(_trader.user == msg.sender);\n\n        allocations[msg.sender][_token].total = _amount;\n\n        emit Allocate(msg.sender, _token, _amount, allocations[msg.sender][_token].invested, now);\n    }\n\n    /// @dev Sets profit percentages\n    /// @param _investorCollateralProfitPercent investor profit for collateral investments\n    /// @param _investorDirectProfitPercent investor profit for direct investments\n    function setProfitPercentages(\n            uint16 _investorCollateralProfitPercent, \n            uint16 _investorDirectProfitPercent)\n        external\n        whenNotPaused\n        isTrader(msg.sender)\n    {\n        _Trader storage _trader = traders[msg.sender];\n        _trader.investorCollateralProfitPercent = _investorCollateralProfitPercent;\n        _trader.investorDirectProfitPercent = _investorDirectProfitPercent;\n\n        emit ProfitPercentages(msg.sender, _investorCollateralProfitPercent, _investorDirectProfitPercent);\n    }\n\n    /// @dev Checks if investor is invested with trader\n    /// @param _traderAddress trader address\n    /// @param _investorAddress investor address\n    /// @return invested\n    // function isInvested(address _traderAddress, address _investorAddress) \n    //     internal\n    //     view\n    //     returns (bool) \n    // {\n    //     address[] memory wallets = IFactory(multiSigFundWalletFactory).getInstantiations(_investorAddress);\n        \n    //     for(uint256 i = 0; i < wallets.length; i++) {\n    //         if (IMultiSigFundWallet(wallets[i]).traders(_traderAddress)) {\n    //             return true;\n    //         }\n    //     }\n\n    //     return false;\n    // }\n\n    /// @dev Checks if investor has a wallet\n    /// @param _investorAddress investor address\n    /// @return has wallet\n    function hasWallet(address _investorAddress) \n        internal\n        view\n        returns (bool) \n    {\n        return IFactory(multiSigFundWalletFactory).isInstantiation(_investorAddress);\n    }\n\n    /// @dev Create new investment wallet\n    function createInvestment() \n        external\n        whenNotPaused\n        isInvestor(msg.sender)\n    {\n        require(!hasWallet(msg.sender));\n        address wallet = IMultiSigFundWalletFactory(multiSigFundWalletFactory).create(address(this), msg.sender, feeAccount);\n        emit Investment(wallet, msg.sender, now);\n    }\n\n    /// @dev Invest\n    /// @param _traderAddress trader address\n    /// @param _investorAddress investor address\n    /// @param _token token address\n    /// @param _amount amount to invest\n    /// @param _type investment type\n    /// @return investment id\n    function invest(address _traderAddress, address _investorAddress, address _token, uint256 _amount, uint8 _type) \n        public \n        whenNotPaused \n        onlyWallet \n        returns (uint256 investmentCount)\n    {\n        require(tokens[_token]);\n        _Investor storage _investor = investors[_investorAddress];\n        require(_investor.user == _investorAddress);\n\n        _Trader storage _trader = traders[_traderAddress];\n        require(_trader.user == _traderAddress);\n\n        _Allocation storage allocation = allocations[_trader.user][_token];\n\n        if (_type == 0) {\n            // falls within trader allocations\n            require(allocation.total - allocation.invested >= _amount);\n            allocation.invested = allocation.invested.add(_amount);\n        }\n\n        uint16 _investorProfitPercent = _trader.investorCollateralProfitPercent;\n        if (_type == 1) {\n            _investorProfitPercent = _trader.investorDirectProfitPercent;\n        }\n\n        uint256 starttime;\n        (investmentCount, starttime) = IPairedInvestments(pairedInvestments).invest(\n            _traderAddress, \n            _investorAddress, \n            _token, \n            _amount,\n            _investorProfitPercent,\n            _type\n        );\n\n        _trader.investmentCount = _trader.investmentCount.add(1);\n        traderInvestments[_trader.user][_trader.investmentCount] = investmentCount;\n\n        _investor.investmentCount = _investor.investmentCount.add(1);\n        investorInvestments[_investor.user][_investor.investmentCount] = investmentCount;\n\n        emit Invest(\n            investmentCount,\n            msg.sender,\n            _traderAddress,\n            _investorAddress,\n            _token,\n            _amount,\n            _investorProfitPercent,\n            _type,\n            allocation.invested,\n            allocation.total,\n            starttime\n        );\n    }\n\n    /// @dev Trader/Investor stops an investment\n    /// @param _traderAddress trader address\n    /// @param _investorAddress investor address\n    /// @param _from initiator address\n    /// @param _investmentId investment id\n    function stop(address _traderAddress, address _investorAddress, address _from, uint256 _investmentId) \n        public \n        whenNotPaused \n        onlyWallet \n    {\n        _Trader memory _trader = traders[_traderAddress];\n        require(_trader.user == _traderAddress);\n\n        uint256 stoptime = IPairedInvestments(pairedInvestments).stop(\n            _traderAddress, \n            _investorAddress, \n            _investmentId);\n\n        emit Stop(\n            _investmentId,\n            msg.sender,\n            _traderAddress,\n            _investorAddress,\n            _from,\n            stoptime\n        );\n    }\n\n    /// @dev Investor requests to exit an investment\n    /// @param _traderAddress trader address\n    /// @param _investorAddress investor address\n    /// @param _investmentId investment id\n    /// @param _value investment value\n    function requestExitInvestor(address _traderAddress, address _investorAddress, uint256 _investmentId, uint256 _value) \n        public \n        whenNotPaused \n        onlyWallet \n    {\n        _Trader memory _trader = traders[_traderAddress];\n        require(_trader.user == _traderAddress);\n\n        IPairedInvestments(pairedInvestments).requestExitInvestor(\n            _traderAddress, \n            _investorAddress, \n            _investmentId, \n            _value);\n\n        emit RequestExit(\n            _investmentId,\n            msg.sender,\n            _traderAddress,\n            _investorAddress,\n            _investorAddress,\n            _value,\n            now\n        );\n    }\n    \n    /// @dev Trader requests to exit an investment\n    /// @param _traderAddress trader address\n    /// @param _investorAddress investor address\n    /// @param _investmentId investment id\n    /// @param _value investment value\n    /// @param _amount transaction amount\n    function requestExitTrader(address _traderAddress, address _investorAddress, uint256 _investmentId, uint256 _value, uint256 _amount) \n        public \n        whenNotPaused \n        onlyWallet \n    {\n        _Trader memory _trader = traders[_traderAddress];\n        require(_trader.user == _traderAddress);\n\n        IPairedInvestments(pairedInvestments).requestExitTrader(\n            _traderAddress, \n            _investorAddress, \n            _investmentId, \n            _value,\n            _amount);\n\n        emit RequestExit(\n            _investmentId,\n            msg.sender,\n            _traderAddress,\n            _investorAddress,\n            _traderAddress,\n            _value,\n            now\n        );\n    }\n\n    /// @dev Approve exit of investment\n    /// @param _traderAddress trader address\n    /// @param _investorAddress investor address\n    /// @param _signer Signer address\n    /// @param _investmentId investment id\n    /// @param _token token address\n    /// @param _amount transaction amount\n    function approveExit(address _traderAddress, address _investorAddress, address _signer, uint256 _investmentId, address _token, uint256 _amount) \n        public \n        whenNotPaused\n        onlyWallet\n        returns (uint256[3] memory payouts)\n    {\n        _Trader memory _trader = traders[_traderAddress];\n        _Investor memory _investor = investors[_investorAddress];\n        require(_trader.user == _traderAddress);\n        require(_investor.user == _investorAddress);\n\n        uint256[5] memory _result = IPairedInvestments(pairedInvestments).approveExit(\n            _traderAddress,\n            _investorAddress, \n            _signer,\n            _investmentId, \n            _amount);\n\n        _Allocation storage allocation = allocations[_traderAddress][_token];\n\n        if (_result[4] == 0) {\n            allocation.invested = allocation.invested.sub(_result[3]);\n        }\n        \n        payouts[0] = _result[0];\n        payouts[1] = _result[1];\n        payouts[2] = _result[2];\n\n        emit ApproveExit(\n            _investmentId,\n            msg.sender,\n            _traderAddress,\n            _investorAddress,\n            allocation.invested,\n            allocation.total,\n            now\n        );\n    }\n\n    /// @dev Reject exit of investment\n    /// @param _traderAddress trader address\n    /// @param _investmentId investment id\n    /// @param _value proposed investment value\n    /// @param _from initiator address\n    function rejectExit(address _traderAddress, uint256 _investmentId, uint256 _value, address _from)\n        public \n        whenNotPaused\n        onlyWallet\n    {\n        IPairedInvestments(pairedInvestments).rejectExit(\n            _traderAddress,\n            _investmentId,\n            _value\n        );\n\n        emit RejectExit(\n            _investmentId,\n            msg.sender,\n            _traderAddress,\n            _value,\n            _from,\n            now\n        );\n    }\n\n\n}\n",
  "sourcePath": "contracts/TraderPaired.sol",
  "abi": [
    {
      "anonymous": false,
      "inputs": [
        {
          "indexed": true,
          "internalType": "address",
          "name": "trader",
          "type": "address"
        },
        {
          "indexed": true,
          "internalType": "address",
          "name": "token",
          "type": "address"
        },
        {
          "indexed": false,
          "internalType": "uint256",
          "name": "total",
          "type": "uint256"
        },
        {
          "indexed": false,
          "internalType": "uint256",
          "name": "invested",
          "type": "uint256"
        },
        {
          "indexed": false,
          "internalType": "uint256",
          "name": "date",
          "type": "uint256"
        }
      ],
      "name": "Allocate",
      "type": "event"
    },
    {
      "anonymous": false,
      "inputs": [
        {
          "indexed": false,
          "internalType": "uint256",
          "name": "id",
          "type": "uint256"
        },
        {
          "indexed": true,
          "internalType": "address",
          "name": "wallet",
          "type": "address"
        },
        {
          "indexed": true,
          "internalType": "address",
          "name": "trader",
          "type": "address"
        },
        {
          "indexed": true,
          "internalType": "address",
          "name": "investor",
          "type": "address"
        },
        {
          "indexed": false,
          "internalType": "uint256",
          "name": "allocationInvested",
          "type": "uint256"
        },
        {
          "indexed": false,
          "internalType": "uint256",
          "name": "allocationTotal",
          "type": "uint256"
        },
        {
          "indexed": false,
          "internalType": "uint256",
          "name": "date",
          "type": "uint256"
        }
      ],
      "name": "ApproveExit",
      "type": "event"
    },
    {
      "anonymous": false,
      "inputs": [
        {
          "indexed": false,
          "internalType": "uint256",
          "name": "id",
          "type": "uint256"
        },
        {
          "indexed": true,
          "internalType": "address",
          "name": "wallet",
          "type": "address"
        },
        {
          "indexed": true,
          "internalType": "address",
          "name": "trader",
          "type": "address"
        },
        {
          "indexed": true,
          "internalType": "address",
          "name": "investor",
          "type": "address"
        },
        {
          "indexed": false,
          "internalType": "address",
          "name": "token",
          "type": "address"
        },
        {
          "indexed": false,
          "internalType": "uint256",
          "name": "amount",
          "type": "uint256"
        },
        {
          "indexed": false,
          "internalType": "uint16",
          "name": "investorProfitPercent",
          "type": "uint16"
        },
        {
          "indexed": false,
          "internalType": "uint8",
          "name": "investmentType",
          "type": "uint8"
        },
        {
          "indexed": false,
          "internalType": "uint256",
          "name": "allocationInvested",
          "type": "uint256"
        },
        {
          "indexed": false,
          "internalType": "uint256",
          "name": "allocationTotal",
          "type": "uint256"
        },
        {
          "indexed": false,
          "internalType": "uint256",
          "name": "date",
          "type": "uint256"
        }
      ],
      "name": "Invest",
      "type": "event"
    },
    {
      "anonymous": false,
      "inputs": [
        {
          "indexed": true,
          "internalType": "address",
          "name": "wallet",
          "type": "address"
        },
        {
          "indexed": true,
          "internalType": "address",
          "name": "investor",
          "type": "address"
        },
        {
          "indexed": false,
          "internalType": "uint256",
          "name": "date",
          "type": "uint256"
        }
      ],
      "name": "Investment",
      "type": "event"
    },
    {
      "anonymous": false,
      "inputs": [
        {
          "indexed": true,
          "internalType": "address",
          "name": "user",
          "type": "address"
        },
        {
          "indexed": false,
          "internalType": "uint256",
          "name": "investorId",
          "type": "uint256"
        },
        {
          "indexed": false,
          "internalType": "uint256",
          "name": "date",
          "type": "uint256"
        }
      ],
      "name": "Investor",
      "type": "event"
    },
    {
      "anonymous": false,
      "inputs": [
        {
          "indexed": true,
          "internalType": "address",
          "name": "previousOwner",
          "type": "address"
        },
        {
          "indexed": true,
          "internalType": "address",
          "name": "newOwner",
          "type": "address"
        }
      ],
      "name": "OwnershipTransferred",
      "type": "event"
    },
    {
      "anonymous": false,
      "inputs": [
        {
          "indexed": false,
          "internalType": "address",
          "name": "account",
          "type": "address"
        }
      ],
      "name": "Paused",
      "type": "event"
    },
    {
      "anonymous": false,
      "inputs": [
        {
          "indexed": true,
          "internalType": "address",
          "name": "account",
          "type": "address"
        }
      ],
      "name": "PauserAdded",
      "type": "event"
    },
    {
      "anonymous": false,
      "inputs": [
        {
          "indexed": true,
          "internalType": "address",
          "name": "account",
          "type": "address"
        }
      ],
      "name": "PauserRemoved",
      "type": "event"
    },
    {
      "anonymous": false,
      "inputs": [
        {
          "indexed": true,
          "internalType": "address",
          "name": "trader",
          "type": "address"
        },
        {
          "indexed": false,
          "internalType": "uint16",
          "name": "investorCollateralProfitPercent",
          "type": "uint16"
        },
        {
          "indexed": false,
          "internalType": "uint16",
          "name": "investorDirectProfitPercent",
          "type": "uint16"
        }
      ],
      "name": "ProfitPercentages",
      "type": "event"
    },
    {
      "anonymous": false,
      "inputs": [
        {
          "indexed": false,
          "internalType": "uint256",
          "name": "id",
          "type": "uint256"
        },
        {
          "indexed": true,
          "internalType": "address",
          "name": "wallet",
          "type": "address"
        },
        {
          "indexed": true,
          "internalType": "address",
          "name": "trader",
          "type": "address"
        },
        {
          "indexed": false,
          "internalType": "uint256",
          "name": "value",
          "type": "uint256"
        },
        {
          "indexed": false,
          "internalType": "address",
          "name": "from",
          "type": "address"
        },
        {
          "indexed": false,
          "internalType": "uint256",
          "name": "date",
          "type": "uint256"
        }
      ],
      "name": "RejectExit",
      "type": "event"
    },
    {
      "anonymous": false,
      "inputs": [
        {
          "indexed": false,
          "internalType": "uint256",
          "name": "id",
          "type": "uint256"
        },
        {
          "indexed": true,
          "internalType": "address",
          "name": "wallet",
          "type": "address"
        },
        {
          "indexed": true,
          "internalType": "address",
          "name": "trader",
          "type": "address"
        },
        {
          "indexed": true,
          "internalType": "address",
          "name": "investor",
          "type": "address"
        },
        {
          "indexed": false,
          "internalType": "address",
          "name": "from",
          "type": "address"
        },
        {
          "indexed": false,
          "internalType": "uint256",
          "name": "value",
          "type": "uint256"
        },
        {
          "indexed": false,
          "internalType": "uint256",
          "name": "date",
          "type": "uint256"
        }
      ],
      "name": "RequestExit",
      "type": "event"
    },
    {
      "anonymous": false,
      "inputs": [
        {
          "indexed": false,
          "internalType": "uint256",
          "name": "id",
          "type": "uint256"
        },
        {
          "indexed": true,
          "internalType": "address",
          "name": "wallet",
          "type": "address"
        },
        {
          "indexed": true,
          "internalType": "address",
          "name": "trader",
          "type": "address"
        },
        {
          "indexed": true,
          "internalType": "address",
          "name": "investor",
          "type": "address"
        },
        {
          "indexed": false,
          "internalType": "address",
          "name": "from",
          "type": "address"
        },
        {
          "indexed": false,
          "internalType": "uint256",
          "name": "date",
          "type": "uint256"
        }
      ],
      "name": "Stop",
      "type": "event"
    },
    {
      "anonymous": false,
      "inputs": [
        {
          "indexed": true,
          "internalType": "address",
          "name": "user",
          "type": "address"
        },
        {
          "indexed": false,
          "internalType": "uint256",
          "name": "traderId",
          "type": "uint256"
        },
        {
          "indexed": false,
          "internalType": "uint256",
          "name": "date",
          "type": "uint256"
        }
      ],
      "name": "Trader",
      "type": "event"
    },
    {
      "anonymous": false,
      "inputs": [
        {
          "indexed": false,
          "internalType": "address",
          "name": "account",
          "type": "address"
        }
      ],
      "name": "Unpaused",
      "type": "event"
    },
    {
      "payable": false,
      "stateMutability": "nonpayable",
      "type": "fallback"
    },
    {
      "constant": false,
      "inputs": [
        {
          "internalType": "address",
          "name": "account",
          "type": "address"
        }
      ],
      "name": "addPauser",
      "outputs": [],
      "payable": false,
      "stateMutability": "nonpayable",
      "type": "function"
    },
    {
      "constant": false,
      "inputs": [
        {
          "internalType": "address",
          "name": "_token",
          "type": "address"
        },
        {
          "internalType": "uint256",
          "name": "_amount",
          "type": "uint256"
        }
      ],
      "name": "allocate",
      "outputs": [],
      "payable": false,
      "stateMutability": "nonpayable",
      "type": "function"
    },
    {
      "constant": true,
      "inputs": [
        {
          "internalType": "address",
          "name": "",
          "type": "address"
        },
        {
          "internalType": "address",
          "name": "",
          "type": "address"
        }
      ],
      "name": "allocations",
      "outputs": [
        {
          "internalType": "uint256",
          "name": "total",
          "type": "uint256"
        },
        {
          "internalType": "uint256",
          "name": "invested",
          "type": "uint256"
        }
      ],
      "payable": false,
      "stateMutability": "view",
      "type": "function"
    },
    {
      "constant": false,
      "inputs": [
        {
          "internalType": "address",
          "name": "_traderAddress",
          "type": "address"
        },
        {
          "internalType": "address",
          "name": "_investorAddress",
          "type": "address"
        },
        {
          "internalType": "address",
          "name": "_signer",
          "type": "address"
        },
        {
          "internalType": "uint256",
          "name": "_investmentId",
          "type": "uint256"
        },
        {
          "internalType": "address",
          "name": "_token",
          "type": "address"
        },
        {
          "internalType": "uint256",
          "name": "_amount",
          "type": "uint256"
        }
      ],
      "name": "approveExit",
      "outputs": [
        {
          "internalType": "uint256[3]",
          "name": "payouts",
          "type": "uint256[3]"
        }
      ],
      "payable": false,
      "stateMutability": "nonpayable",
      "type": "function"
    },
    {
      "constant": false,
      "inputs": [],
      "name": "createInvestment",
      "outputs": [],
      "payable": false,
      "stateMutability": "nonpayable",
      "type": "function"
    },
    {
      "constant": true,
      "inputs": [],
      "name": "feeAccount",
      "outputs": [
        {
          "internalType": "address",
          "name": "",
          "type": "address"
        }
      ],
      "payable": false,
      "stateMutability": "view",
      "type": "function"
    },
    {
      "constant": false,
      "inputs": [
        {
          "internalType": "address",
          "name": "_feeAccount",
          "type": "address"
        }
      ],
      "name": "initialize",
      "outputs": [],
      "payable": false,
      "stateMutability": "nonpayable",
      "type": "function"
    },
    {
      "constant": false,
      "inputs": [
        {
          "internalType": "address",
          "name": "_traderAddress",
          "type": "address"
        },
        {
          "internalType": "address",
          "name": "_investorAddress",
          "type": "address"
        },
        {
          "internalType": "address",
          "name": "_token",
          "type": "address"
        },
        {
          "internalType": "uint256",
          "name": "_amount",
          "type": "uint256"
        },
        {
          "internalType": "uint8",
          "name": "_type",
          "type": "uint8"
        }
      ],
      "name": "invest",
      "outputs": [
        {
          "internalType": "uint256",
          "name": "investmentCount",
          "type": "uint256"
        }
      ],
      "payable": false,
      "stateMutability": "nonpayable",
      "type": "function"
    },
    {
      "constant": true,
      "inputs": [
        {
          "internalType": "uint256",
          "name": "",
          "type": "uint256"
        }
      ],
      "name": "investorAddresses",
      "outputs": [
        {
          "internalType": "address",
          "name": "",
          "type": "address"
        }
      ],
      "payable": false,
      "stateMutability": "view",
      "type": "function"
    },
    {
      "constant": true,
      "inputs": [],
      "name": "investorCount",
      "outputs": [
        {
          "internalType": "uint256",
          "name": "",
          "type": "uint256"
        }
      ],
      "payable": false,
      "stateMutability": "view",
      "type": "function"
    },
    {
      "constant": true,
      "inputs": [
        {
          "internalType": "address",
          "name": "",
          "type": "address"
        },
        {
          "internalType": "uint256",
          "name": "",
          "type": "uint256"
        }
      ],
      "name": "investorInvestments",
      "outputs": [
        {
          "internalType": "uint256",
          "name": "",
          "type": "uint256"
        }
      ],
      "payable": false,
      "stateMutability": "view",
      "type": "function"
    },
    {
      "constant": true,
      "inputs": [
        {
          "internalType": "address",
          "name": "",
          "type": "address"
        }
      ],
      "name": "investors",
      "outputs": [
        {
          "internalType": "address",
          "name": "user",
          "type": "address"
        },
        {
          "internalType": "uint256",
          "name": "investmentCount",
          "type": "uint256"
        }
      ],
      "payable": false,
      "stateMutability": "view",
      "type": "function"
    },
    {
      "constant": true,
      "inputs": [],
      "name": "isOwner",
      "outputs": [
        {
          "internalType": "bool",
          "name": "",
          "type": "bool"
        }
      ],
      "payable": false,
      "stateMutability": "view",
      "type": "function"
    },
    {
      "constant": true,
      "inputs": [
        {
          "internalType": "address",
          "name": "account",
          "type": "address"
        }
      ],
      "name": "isPauser",
      "outputs": [
        {
          "internalType": "bool",
          "name": "",
          "type": "bool"
        }
      ],
      "payable": false,
      "stateMutability": "view",
      "type": "function"
    },
    {
      "constant": false,
      "inputs": [],
      "name": "joinAsInvestor",
      "outputs": [],
      "payable": false,
      "stateMutability": "nonpayable",
      "type": "function"
    },
    {
      "constant": false,
      "inputs": [],
      "name": "joinAsTrader",
      "outputs": [],
      "payable": false,
      "stateMutability": "nonpayable",
      "type": "function"
    },
    {
      "constant": true,
      "inputs": [],
      "name": "multiSigFundWalletFactory",
      "outputs": [
        {
          "internalType": "address",
          "name": "",
          "type": "address"
        }
      ],
      "payable": false,
      "stateMutability": "view",
      "type": "function"
    },
    {
      "constant": true,
      "inputs": [],
      "name": "owner",
      "outputs": [
        {
          "internalType": "address",
          "name": "",
          "type": "address"
        }
      ],
      "payable": false,
      "stateMutability": "view",
      "type": "function"
    },
    {
      "constant": true,
      "inputs": [],
      "name": "pairedInvestments",
      "outputs": [
        {
          "internalType": "address",
          "name": "",
          "type": "address"
        }
      ],
      "payable": false,
      "stateMutability": "view",
      "type": "function"
    },
    {
      "constant": false,
      "inputs": [],
      "name": "pause",
      "outputs": [],
      "payable": false,
      "stateMutability": "nonpayable",
      "type": "function"
    },
    {
      "constant": true,
      "inputs": [],
      "name": "paused",
      "outputs": [
        {
          "internalType": "bool",
          "name": "",
          "type": "bool"
        }
      ],
      "payable": false,
      "stateMutability": "view",
      "type": "function"
    },
    {
      "constant": false,
      "inputs": [
        {
          "internalType": "address",
          "name": "_traderAddress",
          "type": "address"
        },
        {
          "internalType": "uint256",
          "name": "_investmentId",
          "type": "uint256"
        },
        {
          "internalType": "uint256",
          "name": "_value",
          "type": "uint256"
        },
        {
          "internalType": "address",
          "name": "_from",
          "type": "address"
        }
      ],
      "name": "rejectExit",
      "outputs": [],
      "payable": false,
      "stateMutability": "nonpayable",
      "type": "function"
    },
    {
      "constant": false,
      "inputs": [],
      "name": "renounceOwnership",
      "outputs": [],
      "payable": false,
      "stateMutability": "nonpayable",
      "type": "function"
    },
    {
      "constant": false,
      "inputs": [],
      "name": "renouncePauser",
      "outputs": [],
      "payable": false,
      "stateMutability": "nonpayable",
      "type": "function"
    },
    {
      "constant": false,
      "inputs": [
        {
          "internalType": "address",
          "name": "_traderAddress",
          "type": "address"
        },
        {
          "internalType": "address",
          "name": "_investorAddress",
          "type": "address"
        },
        {
          "internalType": "uint256",
          "name": "_investmentId",
          "type": "uint256"
        },
        {
          "internalType": "uint256",
          "name": "_value",
          "type": "uint256"
        }
      ],
      "name": "requestExitInvestor",
      "outputs": [],
      "payable": false,
      "stateMutability": "nonpayable",
      "type": "function"
    },
    {
      "constant": false,
      "inputs": [
        {
          "internalType": "address",
          "name": "_traderAddress",
          "type": "address"
        },
        {
          "internalType": "address",
          "name": "_investorAddress",
          "type": "address"
        },
        {
          "internalType": "uint256",
          "name": "_investmentId",
          "type": "uint256"
        },
        {
          "internalType": "uint256",
          "name": "_value",
          "type": "uint256"
        },
        {
          "internalType": "uint256",
          "name": "_amount",
          "type": "uint256"
        }
      ],
      "name": "requestExitTrader",
      "outputs": [],
      "payable": false,
      "stateMutability": "nonpayable",
      "type": "function"
    },
    {
      "constant": false,
      "inputs": [
        {
          "internalType": "address",
          "name": "_factory",
          "type": "address"
        }
      ],
      "name": "setMultiSigFundWalletFactory",
      "outputs": [],
      "payable": false,
      "stateMutability": "nonpayable",
      "type": "function"
    },
    {
      "constant": false,
      "inputs": [
        {
          "internalType": "address",
          "name": "_pairedInvestments",
          "type": "address"
        }
      ],
      "name": "setPairedInvestments",
      "outputs": [],
      "payable": false,
      "stateMutability": "nonpayable",
      "type": "function"
    },
    {
      "constant": false,
      "inputs": [
        {
          "internalType": "uint16",
          "name": "_investorCollateralProfitPercent",
          "type": "uint16"
        },
        {
          "internalType": "uint16",
          "name": "_investorDirectProfitPercent",
          "type": "uint16"
        }
      ],
      "name": "setProfitPercentages",
      "outputs": [],
      "payable": false,
      "stateMutability": "nonpayable",
      "type": "function"
    },
    {
      "constant": false,
      "inputs": [
        {
          "internalType": "address",
          "name": "_token",
          "type": "address"
        },
        {
          "internalType": "bool",
          "name": "_valid",
          "type": "bool"
        }
      ],
      "name": "setToken",
      "outputs": [],
      "payable": false,
      "stateMutability": "nonpayable",
      "type": "function"
    },
    {
      "constant": false,
      "inputs": [
        {
          "internalType": "address",
          "name": "_traderAddress",
          "type": "address"
        },
        {
          "internalType": "address",
          "name": "_investorAddress",
          "type": "address"
        },
        {
          "internalType": "address",
          "name": "_from",
          "type": "address"
        },
        {
          "internalType": "uint256",
          "name": "_investmentId",
          "type": "uint256"
        }
      ],
      "name": "stop",
      "outputs": [],
      "payable": false,
      "stateMutability": "nonpayable",
      "type": "function"
    },
    {
      "constant": true,
      "inputs": [
        {
          "internalType": "address",
          "name": "",
          "type": "address"
        }
      ],
      "name": "tokens",
      "outputs": [
        {
          "internalType": "bool",
          "name": "",
          "type": "bool"
        }
      ],
      "payable": false,
      "stateMutability": "view",
      "type": "function"
    },
    {
      "constant": true,
      "inputs": [
        {
          "internalType": "uint256",
          "name": "",
          "type": "uint256"
        }
      ],
      "name": "traderAddresses",
      "outputs": [
        {
          "internalType": "address",
          "name": "",
          "type": "address"
        }
      ],
      "payable": false,
      "stateMutability": "view",
      "type": "function"
    },
    {
      "constant": true,
      "inputs": [],
      "name": "traderCount",
      "outputs": [
        {
          "internalType": "uint256",
          "name": "",
          "type": "uint256"
        }
      ],
      "payable": false,
      "stateMutability": "view",
      "type": "function"
    },
    {
      "constant": true,
      "inputs": [
        {
          "internalType": "address",
          "name": "",
          "type": "address"
        },
        {
          "internalType": "uint256",
          "name": "",
          "type": "uint256"
        }
      ],
      "name": "traderInvestments",
      "outputs": [
        {
          "internalType": "uint256",
          "name": "",
          "type": "uint256"
        }
      ],
      "payable": false,
      "stateMutability": "view",
      "type": "function"
    },
    {
      "constant": true,
      "inputs": [
        {
          "internalType": "address",
          "name": "",
          "type": "address"
        }
      ],
      "name": "traders",
      "outputs": [
        {
          "internalType": "address",
          "name": "user",
          "type": "address"
        },
        {
          "internalType": "uint256",
          "name": "investmentCount",
          "type": "uint256"
        },
        {
          "internalType": "uint16",
          "name": "investorCollateralProfitPercent",
          "type": "uint16"
        },
        {
          "internalType": "uint16",
          "name": "investorDirectProfitPercent",
          "type": "uint16"
        }
      ],
      "payable": false,
      "stateMutability": "view",
      "type": "function"
    },
    {
      "constant": false,
      "inputs": [
        {
          "internalType": "address",
          "name": "newOwner",
          "type": "address"
        }
      ],
      "name": "transferOwnership",
      "outputs": [],
      "payable": false,
      "stateMutability": "nonpayable",
      "type": "function"
    },
    {
      "constant": false,
      "inputs": [],
      "name": "unpause",
      "outputs": [],
      "payable": false,
      "stateMutability": "nonpayable",
      "type": "function"
    }
  ],
  "bytecode": "0x6080604052612ba4806100136000396000f3fe608060405234801561001057600080fd5b50600436106102325760003560e01c806382dc1ec411610130578063c4d66de8116100b8578063e48603391161007c578063e4860339146106b6578063eef90b62146106dc578063f2fde38b14610708578063f5ec9f7e1461072e578063fb171a52146107b057610232565b8063c4d66de814610602578063c9076b5b14610628578063d37a15d01461064e578063d7e64c0014610674578063e0086a461461067c57610232565b80638f32d59b116100ff5780638f32d59b1461054f57806392a88fa21461055757806395a25efa146105b1578063b3cb642f146105ce578063b78b52df146105d657610232565b806382dc1ec4146104d25780638456cb59146104f8578063853996e4146105005780638da5cb5b1461054757610232565b80635931add7116101be5780636e146998116101825780636e1469981461042b5780636ef8d66d146104335780636f7bc9be1461043b578063715018a61461048457806382727c461461048c57610232565b80635931add7146103995780635a77c18d146103d55780635c975abb1461041357806365e17c9d1461041b57806369dc67651461042357610232565b80633619fcd1116102055780633619fcd1146102df5780633816a292146102e75780633f4ba83a14610315578063468bdb231461031d57806346fbf68e1461035f57610232565b80630de3970e146102375780631752e5681461026257806317dcf29b1461029e5780632daf2f02146102d7575b600080fd5b6102606004803603604081101561024d57600080fd5b5061ffff813581169160200135166107b8565b005b6102606004803603608081101561027857600080fd5b506001600160a01b038135811691602081013590911690604081013590606001356108ae565b6102bb600480360360208110156102b457600080fd5b5035610abf565b604080516001600160a01b039092168252519081900360200190f35b610260610ada565b610260610c40565b610260600480360360408110156102fd57600080fd5b506001600160a01b0381351690602001351515610dd2565b610260610e44565b610260600480360360a081101561033357600080fd5b506001600160a01b03813581169160208101359091169060408101359060608101359060800135610f2d565b6103856004803603602081101561037557600080fd5b50356001600160a01b0316611147565b604080519115158252519081900360200190f35b610260600480360360808110156103af57600080fd5b506001600160a01b03813581169160208101358216916040820135169060600135611160565b610401600480360360408110156103eb57600080fd5b506001600160a01b038135169060200135611382565b60408051918252519081900360200190f35b61038561139f565b6102bb6113a8565b6104016113b7565b6102606113bd565b610260611508565b6104616004803603602081101561045157600080fd5b50356001600160a01b031661151a565b604080516001600160a01b03909316835260208301919091528051918290030190f35b61026061153f565b610401600480360360a08110156104a257600080fd5b5080356001600160a01b03908116916020810135821691604082013516906060810135906080013560ff166115d0565b610260600480360360208110156104e857600080fd5b50356001600160a01b031661195a565b6102606119ac565b61052e6004803603604081101561051657600080fd5b506001600160a01b0381358116916020013516611a73565b6040805192835260208301919091528051918290030190f35b6102bb611a97565b610385611aa6565b61057d6004803603602081101561056d57600080fd5b50356001600160a01b0316611acc565b604080516001600160a01b039095168552602085019390935261ffff91821684840152166060830152519081900360800190f35b6102bb600480360360208110156105c757600080fd5b5035611b05565b6102bb611b20565b610260600480360360408110156105ec57600080fd5b506001600160a01b038135169060200135611b2f565b6102606004803603602081101561061857600080fd5b50356001600160a01b0316611c78565b6102606004803603602081101561063e57600080fd5b50356001600160a01b0316611d48565b6102606004803603602081101561066457600080fd5b50356001600160a01b0316611db1565b610401611e1a565b6102606004803603608081101561069257600080fd5b506001600160a01b0381358116916020810135916040820135916060013516611e20565b610385600480360360208110156106cc57600080fd5b50356001600160a01b0316611fbb565b610401600480360360408110156106f257600080fd5b506001600160a01b038135169060200135611fd0565b6102606004803603602081101561071e57600080fd5b50356001600160a01b0316611fed565b610778600480360360c081101561074457600080fd5b506001600160a01b038135811691602081013582169160408201358116916060810135916080820135169060a0013561203d565b6040518082606080838360005b8381101561079d578181015183820152602001610785565b5050505090500191505060405180910390f35b6102bb61235a565b60995460ff1615610803576040805162461bcd60e51b815260206004820152601060248201526f14185d5cd8589b194e881c185d5cd95960821b604482015290519081900360640190fd5b33801580159061082d57506001600160a01b03808216600081815260cd6020526040902054909116145b61083657600080fd5b33600081815260cd602090815260409182902060028101805461ffff191661ffff89811691821763ffff0000191662010000918a169182021790925584519081529283015282519093927f03daa5dd7f60f78b26b50bc356f21dd36eb72448c3397af6cd436bb20869b385928290030190a250505050565b60995460ff16156108f9576040805162461bcd60e51b815260206004820152601060248201526f14185d5cd8589b194e881c185d5cd95960821b604482015290519081900360640190fd5b60cf54604080516317a7998b60e11b815233600482015290516001600160a01b0390921691632f4f331691602480820192602092909190829003018186803b15801561094457600080fd5b505afa158015610958573d6000803e3d6000fd5b505050506040513d602081101561096e57600080fd5b505161097957600080fd5b610981612a0e565b506001600160a01b03808516600081815260cd6020908152604091829020825160808101845281549095168086526001820154928601929092526002015461ffff808216938601939093526201000090049091166060840152146109e457600080fd5b60d054604080516302ea5cad60e31b81526001600160a01b0388811660048301528781166024830152604482018790526064820186905291519190921691631752e56891608480830192600092919082900301818387803b158015610a4857600080fd5b505af1158015610a5c573d6000803e3d6000fd5b5050604080518681526001600160a01b038089166020830181905282840188905242606084015292519294508916925033917ff1fcf51588e9e75fe5e9591517dfd728e6b717db09b8764132b9077ed2de05799181900360800190a45050505050565b60d5602052600090815260409020546001600160a01b031681565b60995460ff1615610b25576040805162461bcd60e51b815260206004820152601060248201526f14185d5cd8589b194e881c185d5cd95960821b604482015290519081900360640190fd5b338015801590610b4f57506001600160a01b03808216600081815260ce6020526040902054909116145b610b5857600080fd5b610b6133612369565b15610b6b57600080fd5b60cf5460cc5460408051639c041ebd60e01b81523060048201523360248201526001600160a01b03928316604482015290516000939290921691639c041ebd9160648082019260209290919082900301818787803b158015610bcc57600080fd5b505af1158015610be0573d6000803e3d6000fd5b505050506040513d6020811015610bf657600080fd5b505160408051428152905191925033916001600160a01b038416917f1db4dbd1a480026d914fad200d8cff01748461d96bcd8684a4e4496d8b46c6e7919081900360200190a35050565b60995460ff1615610c8b576040805162461bcd60e51b815260206004820152601060248201526f14185d5cd8589b194e881c185d5cd95960821b604482015290519081900360640190fd5b33600090815260cd60205260409020546001600160a01b031615610cae57600080fd5b33600090815260ce60205260409020546001600160a01b031615610cd157600080fd5b6040805160808101825233808252600060208084018281526107d0858701908152611f406060870190815294845260cd90925294909120925183546001600160a01b0319166001600160a01b039091161783559251600180840191909155925160029092018054915161ffff1990921661ffff9384161763ffff0000191662010000939092169290920217905560d754610d6a916123ec565b60d7818155600091825260d5602090815260409283902080546001600160a01b03191633908117909155915483519081524291810191909152825191927f2443e16faef9accaee1c7486a06f0da588a8f541204a9e4bca14555672cae00092918290030190a2565b610dda611aa6565b610e19576040805162461bcd60e51b81526020600482018190526024820152600080516020612b00833981519152604482015290519081900360640190fd5b6001600160a01b0391909116600090815260d160205260409020805460ff1916911515919091179055565b610e54610e4f61244d565b611147565b610e8f5760405162461bcd60e51b8152600401808060200182810382526030815260200180612a896030913960400191505060405180910390fd5b60995460ff16610edd576040805162461bcd60e51b815260206004820152601460248201527314185d5cd8589b194e881b9bdd081c185d5cd95960621b604482015290519081900360640190fd5b6099805460ff191690557f5db9ee0a495bf2e6ff9c91a7834c1ba4fdd244a5e8aa4e537bd38aeae4b073aa610f1061244d565b604080516001600160a01b039092168252519081900360200190a1565b60995460ff1615610f78576040805162461bcd60e51b815260206004820152601060248201526f14185d5cd8589b194e881c185d5cd95960821b604482015290519081900360640190fd5b60cf54604080516317a7998b60e11b815233600482015290516001600160a01b0390921691632f4f331691602480820192602092909190829003018186803b158015610fc357600080fd5b505afa158015610fd7573d6000803e3d6000fd5b505050506040513d6020811015610fed57600080fd5b5051610ff857600080fd5b611000612a0e565b506001600160a01b03808616600081815260cd6020908152604091829020825160808101845281549095168086526001820154928601929092526002015461ffff8082169386019390935262010000900490911660608401521461106357600080fd5b60d0546040805163468bdb2360e01b81526001600160a01b03898116600483015288811660248301526044820188905260648201879052608482018690529151919092169163468bdb239160a480830192600092919082900301818387803b1580156110ce57600080fd5b505af11580156110e2573d6000803e3d6000fd5b5050604080518781526001600160a01b038a8116602083018190528284018990524260608401529251908a16945091925033917ff1fcf51588e9e75fe5e9591517dfd728e6b717db09b8764132b9077ed2de05799181900360800190a4505050505050565b600061115a60668363ffffffff61245116565b92915050565b60995460ff16156111ab576040805162461bcd60e51b815260206004820152601060248201526f14185d5cd8589b194e881c185d5cd95960821b604482015290519081900360640190fd5b60cf54604080516317a7998b60e11b815233600482015290516001600160a01b0390921691632f4f331691602480820192602092909190829003018186803b1580156111f657600080fd5b505afa15801561120a573d6000803e3d6000fd5b505050506040513d602081101561122057600080fd5b505161122b57600080fd5b611233612a0e565b506001600160a01b03808516600081815260cd6020908152604091829020825160808101845281549095168086526001820154928601929092526002015461ffff8082169386019390935262010000900490911660608401521461129657600080fd5b60d05460408051634bcead1360e11b81526001600160a01b0388811660048301528781166024830152604482018690529151600093929092169163979d5a269160648082019260209290919082900301818787803b1580156112f757600080fd5b505af115801561130b573d6000803e3d6000fd5b505050506040513d602081101561132157600080fd5b5051604080518581526001600160a01b0387811660208301528183018490529151929350818816929189169133917f9d7a2a0f1dacbb478b794b94e683c644b7f952bb6d4eb2726f22b74e2d786044919081900360600190a4505050505050565b60d260209081526000928352604080842090915290825290205481565b60995460ff1690565b60cc546001600160a01b031681565b60d75481565b60995460ff1615611408576040805162461bcd60e51b815260206004820152601060248201526f14185d5cd8589b194e881c185d5cd95960821b604482015290519081900360640190fd5b33600090815260cd60205260409020546001600160a01b03161561142b57600080fd5b33600090815260ce60205260409020546001600160a01b03161561144e57600080fd5b604080518082018252338082526000602080840182815292825260ce905292909220905181546001600160a01b0319166001600160a01b03909116178155905160019182015560d8546114a0916123ec565b60d8818155600091825260d6602090815260409283902080546001600160a01b03191633908117909155915483519081524291810191909152825191927fdf8479bd21cd06e0ed866ae36a215b279e87d6a0eb65733fda0ce53775700e0492918290030190a2565b61151861151361244d565b6124b8565b565b60ce60205260009081526040902080546001909101546001600160a01b039091169082565b611547611aa6565b611586576040805162461bcd60e51b81526020600482018190526024820152600080516020612b00833981519152604482015290519081900360640190fd5b6033546040516000916001600160a01b0316907f8be0079c531659141344cd1fd0a4f28419497f9722a3daafe3b4186f6b6457e0908390a3603380546001600160a01b0319169055565b60995460009060ff161561161e576040805162461bcd60e51b815260206004820152601060248201526f14185d5cd8589b194e881c185d5cd95960821b604482015290519081900360640190fd5b60cf54604080516317a7998b60e11b815233600482015290516001600160a01b0390921691632f4f331691602480820192602092909190829003018186803b15801561166957600080fd5b505afa15801561167d573d6000803e3d6000fd5b505050506040513d602081101561169357600080fd5b505161169e57600080fd5b6001600160a01b038416600090815260d1602052604090205460ff166116c357600080fd5b6001600160a01b03808616600081815260ce602052604090208054909216146116eb57600080fd5b6001600160a01b03808816600081815260cd6020526040902080549092161461171357600080fd5b80546001600160a01b03908116600090815260d460209081526040808320938a1683529290522060ff851661177157600181015481540386111561175657600080fd5b600181015461176b908763ffffffff6123ec16565b60018201555b600282015461ffff1660ff8616600114156117975750600282015462010000900461ffff165b60d05460408051630e1ed15b60e01b81526001600160a01b038d811660048301528c811660248301528b81166044830152606482018b905261ffff8516608483015260ff8a1660a483015282516000949190911692630e1ed15b9260c4808201939182900301818787803b15801561180e57600080fd5b505af1158015611822573d6000803e3d6000fd5b505050506040513d604081101561183857600080fd5b50805160209091015160018681015492985090925061185d919063ffffffff6123ec16565b600180860182905585546001600160a01b0316600090815260d26020908152604080832094835293905291909120879055858101546118a19163ffffffff6123ec16565b600180870182905586546001600160a01b03908116600090815260d360209081526040808320958352948152908490208a905591860154865484518b81528e8416948101949094528385018d905261ffff8716606085015260ff8c16608085015260a084019190915260c083015260e0820184905291518c8316928e169133917f59e5e72e0bbe29b00020724711df6dff86e5ecb93c9e482c1515a3fabd4ec47c918190036101000190a4505050505095945050505050565b611965610e4f61244d565b6119a05760405162461bcd60e51b8152600401808060200182810382526030815260200180612a896030913960400191505060405180910390fd5b6119a981612500565b50565b6119b7610e4f61244d565b6119f25760405162461bcd60e51b8152600401808060200182810382526030815260200180612a896030913960400191505060405180910390fd5b60995460ff1615611a3d576040805162461bcd60e51b815260206004820152601060248201526f14185d5cd8589b194e881c185d5cd95960821b604482015290519081900360640190fd5b6099805460ff191660011790557f62e78cea01bee320cd4e420270b5ea74000d11b0c9f74754ebdbfc544b05a258610f1061244d565b60d46020908152600092835260408084209091529082529020805460019091015482565b6033546001600160a01b031690565b6033546000906001600160a01b0316611abd61244d565b6001600160a01b031614905090565b60cd602052600090815260409020805460018201546002909201546001600160a01b03909116919061ffff808216916201000090041684565b60d6602052600090815260409020546001600160a01b031681565b60cf546001600160a01b031681565b60995460ff1615611b7a576040805162461bcd60e51b815260206004820152601060248201526f14185d5cd8589b194e881c185d5cd95960821b604482015290519081900360640190fd5b6001600160a01b038216600090815260d1602052604090205460ff16611b9f57600080fd5b611ba7612a0e565b5033600081815260cd6020908152604091829020825160808101845281546001600160a01b031680825260018301549382019390935260029091015461ffff808216948301949094526201000090049092166060830152909114611c0a57600080fd5b33600081815260d4602090815260408083206001600160a01b03881680855290835292819020868155600101548151878152928301524282820152519192917f776bbaa896d9abe5db2f98efa8cbb7b341d887ba96ec823714a54aae19dc241f9181900360600190a3505050565b600054610100900460ff1680611c915750611c91612548565b80611c9f575060005460ff16155b611cda5760405162461bcd60e51b815260040180806020018281038252602e815260200180612b42602e913960400191505060405180910390fd5b600054610100900460ff16158015611d05576000805460ff1961ff0019909116610100171660011790555b611d0e3361254e565b611d173361263f565b60cc80546001600160a01b0319166001600160a01b0384161790558015611d44576000805461ff00191690555b5050565b611d50611aa6565b611d8f576040805162461bcd60e51b81526020600482018190526024820152600080516020612b00833981519152604482015290519081900360640190fd5b60cf80546001600160a01b0319166001600160a01b0392909216919091179055565b611db9611aa6565b611df8576040805162461bcd60e51b81526020600482018190526024820152600080516020612b00833981519152604482015290519081900360640190fd5b60d080546001600160a01b0319166001600160a01b0392909216919091179055565b60d85481565b60995460ff1615611e6b576040805162461bcd60e51b815260206004820152601060248201526f14185d5cd8589b194e881c185d5cd95960821b604482015290519081900360640190fd5b60cf54604080516317a7998b60e11b815233600482015290516001600160a01b0390921691632f4f331691602480820192602092909190829003018186803b158015611eb657600080fd5b505afa158015611eca573d6000803e3d6000fd5b505050506040513d6020811015611ee057600080fd5b5051611eeb57600080fd5b60d05460408051633ba6a8c160e21b81526001600160a01b03878116600483015260248201879052604482018690529151919092169163ee9aa30491606480830192600092919082900301818387803b158015611f4757600080fd5b505af1158015611f5b573d6000803e3d6000fd5b505060408051868152602081018690526001600160a01b0385811682840152426060830152915191881693503392507f8af3a505675e5d3f693e0c9269cd4ab544c27b3778e9aab336f49d41840b6479919081900360800190a350505050565b60d16020526000908152604090205460ff1681565b60d360209081526000928352604080842090915290825290205481565b611ff5611aa6565b612034576040805162461bcd60e51b81526020600482018190526024820152600080516020612b00833981519152604482015290519081900360640190fd5b6119a9816126f4565b612045612a35565b60995460ff1615612090576040805162461bcd60e51b815260206004820152601060248201526f14185d5cd8589b194e881c185d5cd95960821b604482015290519081900360640190fd5b60cf54604080516317a7998b60e11b815233600482015290516001600160a01b0390921691632f4f331691602480820192602092909190829003018186803b1580156120db57600080fd5b505afa1580156120ef573d6000803e3d6000fd5b505050506040513d602081101561210557600080fd5b505161211057600080fd5b612118612a0e565b506001600160a01b03808816600090815260cd60209081526040918290208251608081018452815490941684526001810154918401919091526002015461ffff80821692840192909252620100009004166060820152612176612a53565b506001600160a01b03878116600090815260ce602090815260409182902082518084019093528054841683526001015490820152825190918a81169116146121bd57600080fd5b876001600160a01b031681600001516001600160a01b0316146121df57600080fd5b6121e7612a6a565b60d0546040805163034574cf60e61b81526001600160a01b038d811660048301528c811660248301528b81166044830152606482018b9052608482018990529151919092169163d15d33c09160a48083019260a09291908290030181600087803b15801561225457600080fd5b505af1158015612268573d6000803e3d6000fd5b505050506040513d601f19601f8201168201806040525060a081101561228d57600080fd5b506001600160a01b038b8116600090815260d460209081526040808320938b168352929052206080820151919250906122d957606082015160018201546122d391612795565b60018201555b8151855260208083015181870152604080840151818801526001830154835482518c81529384019190915282820152426060830152516001600160a01b038c811692908e169133917f4180898819db8636488bd8088532fab4d77cbae964f136c223763571f8292dda919081900360800190a4505050509695505050505050565b60d0546001600160a01b031681565b60cf54604080516317a7998b60e11b81526001600160a01b03848116600483015291516000939290921691632f4f331691602480820192602092909190829003018186803b1580156123ba57600080fd5b505afa1580156123ce573d6000803e3d6000fd5b505050506040513d60208110156123e457600080fd5b505192915050565b600082820183811015612446576040805162461bcd60e51b815260206004820152601b60248201527f536166654d6174683a206164646974696f6e206f766572666c6f770000000000604482015290519081900360640190fd5b9392505050565b3390565b60006001600160a01b0382166124985760405162461bcd60e51b8152600401808060200182810382526022815260200180612b206022913960400191505060405180910390fd5b506001600160a01b03166000908152602091909152604090205460ff1690565b6124c960668263ffffffff6127d716565b6040516001600160a01b038216907fcd265ebaf09df2871cc7bd4133404a235ba12eff2041bb89d9c714a2621c7c7e90600090a250565b61251160668263ffffffff61283e16565b6040516001600160a01b038216907f6719d08c1888103bea251a4ed56406bd0c3e69723c8a1686e017e7bbe159b6f890600090a250565b303b1590565b600054610100900460ff16806125675750612567612548565b80612575575060005460ff16155b6125b05760405162461bcd60e51b815260040180806020018281038252602e815260200180612b42602e913960400191505060405180910390fd5b600054610100900460ff161580156125db576000805460ff1961ff0019909116610100171660011790555b603380546001600160a01b0319166001600160a01b0384811691909117918290556040519116906000907f8be0079c531659141344cd1fd0a4f28419497f9722a3daafe3b4186f6b6457e0908290a38015611d44576000805461ff00191690555050565b600054610100900460ff16806126585750612658612548565b80612666575060005460ff16155b6126a15760405162461bcd60e51b815260040180806020018281038252602e815260200180612b42602e913960400191505060405180910390fd5b600054610100900460ff161580156126cc576000805460ff1961ff0019909116610100171660011790555b6126d5826128bf565b6099805460ff191690558015611d44576000805461ff00191690555050565b6001600160a01b0381166127395760405162461bcd60e51b8152600401808060200182810382526026815260200180612ab96026913960400191505060405180910390fd5b6033546040516001600160a01b038084169216907f8be0079c531659141344cd1fd0a4f28419497f9722a3daafe3b4186f6b6457e090600090a3603380546001600160a01b0319166001600160a01b0392909216919091179055565b600061244683836040518060400160405280601e81526020017f536166654d6174683a207375627472616374696f6e206f766572666c6f770000815250612977565b6127e18282612451565b61281c5760405162461bcd60e51b8152600401808060200182810382526021815260200180612adf6021913960400191505060405180910390fd5b6001600160a01b0316600090815260209190915260409020805460ff19169055565b6128488282612451565b1561289a576040805162461bcd60e51b815260206004820152601f60248201527f526f6c65733a206163636f756e7420616c72656164792068617320726f6c6500604482015290519081900360640190fd5b6001600160a01b0316600090815260209190915260409020805460ff19166001179055565b600054610100900460ff16806128d857506128d8612548565b806128e6575060005460ff16155b6129215760405162461bcd60e51b815260040180806020018281038252602e815260200180612b42602e913960400191505060405180910390fd5b600054610100900460ff1615801561294c576000805460ff1961ff0019909116610100171660011790555b61295582611147565b6129625761296282612500565b8015611d44576000805461ff00191690555050565b60008184841115612a065760405162461bcd60e51b81526004018080602001828103825283818151815260200191508051906020019080838360005b838110156129cb5781810151838201526020016129b3565b50505050905090810190601f1680156129f85780820380516001836020036101000a031916815260200191505b509250505060405180910390fd5b505050900390565b60408051608081018252600080825260208201819052918101829052606081019190915290565b60405180606001604052806003906020820280388339509192915050565b604080518082019091526000808252602082015290565b6040518060a00160405280600590602082028038833950919291505056fe506175736572526f6c653a2063616c6c657220646f6573206e6f742068617665207468652050617573657220726f6c654f776e61626c653a206e6577206f776e657220697320746865207a65726f2061646472657373526f6c65733a206163636f756e7420646f6573206e6f74206861766520726f6c654f776e61626c653a2063616c6c6572206973206e6f7420746865206f776e6572526f6c65733a206163636f756e7420697320746865207a65726f2061646472657373436f6e747261637420696e7374616e63652068617320616c7265616479206265656e20696e697469616c697a6564a265627a7a72315820f5e4658e7ac1cd9e220a86d968370aad7c06067ed50a176951f448db4a046f8f64736f6c63430005110032",
  "compiler": {
    "name": "solc",
    "version": "0.5.17+commit.d19bba13.Emscripten.clang",
    "optimizer": {
      "enabled": true,
      "runs": 200
    },
    "evmVersion": "petersburg"
  }
}